:020000040800F2
:1000000000040020758000081D7900081F79000891
:1000100021790008237900082579000800000000F4
:100020000000000000000000000000002779000828
:1000300029790008000000002B7900082D790008BC
:100040001758000817580008175800083579000895
:100050001758000817580008377900081758000883
:10006000175800084B79000817580008417E00080F
:1000700017580008175800081758000817580008A4
:100080001758000817580008175800084D7900083D
:100090004F790008175800081758000851790008D0
:1000A0001758000853790008175800081758000817
:1000B000617900086F7900087D79000817580008F9
:1000C0001758000817580008175800081758000854
:1000D0008D7900088F790008E97A0008D97B00083B
:1000E000257E00083D7E00081758000817580008B4
:1000F0007F7900081758000817580008175800089B
:10010000175800083F7E00081758000817580008C5
:10011000C77C00081758000817580008175800082F
:1001200017580008175800081758000817580008F3
:1001300040B2002805D40901DFF82C2B40B211543D
:1001400008E00901DFF8042C40B210F00F00104461
:1001500000F8041C704780B5411EB1F1807F01D3C7
:10016000012011E0401EDFF8041B08600F215FF042
:10017000FF30FFF7DDFF0020DFF8F41A08600720EA
:10018000DFF8CC1B0860002002BD0020DFF8C41B94
:100190000870DFF8E00ADFF8C01BDFF8B82B127830
:1001A00041F82200DFF8AC0B0078401CDFF8A41BFC
:1001B0000870DFF8C40ADFF8A01BDFF8982B12786C
:1001C00041F82200DFF88C0B0078401CDFF8841B1C
:1001D0000870DFF8640BDFF8801BDFF8782B1278EB
:1001E00041F82200DFF86C0B0078401CDFF8641B3C
:1001F0000870DFF8480BDFF8601BDFF8582B127827
:1002000041F82200DFF84C0B0078401CDFF8441B5B
:100210000870DFF82C0BDFF8401BDFF8382B127862
:1002200041F82200DFF82C0B0078401CDFF8241B7B
:100230000870DFF8100BDFF8201BDFF8182B12789E
:1002400041F82200DFF80C0B0078401CDFF8041B9B
:100250000870DFF8F40ADFF8001BDFF8F82A1278DC
:1002600041F82200DFF8EC0A0078401CDFF8E41ABD
:100270000870DFF8E80ADFF8E01ADFF8D82A127809
:1002800041F82200DFF8CC0A0078401CDFF8C41ADD
:100290000870DFF8CC0ADFF8C01ADFF8B82A127845
:1002A00041F82200DFF8AC0A0078401CDFF8A41AFD
:1002B0000870DFF8B00ADFF8A01ADFF8982A127881
:1002C00041F82200DFF88C0A0078401CDFF8841A1D
:1002D0000870DFF8940ADFF8801ADFF8782A1278BD
:1002E00041F82200DFF86C0A0078401CDFF8641A3D
:1002F0000870DFF8780ADFF8601ADFF8582A1278F9
:1003000041F82200DFF84C0A0078401CDFF8441A5C
:100310000870DFF85C0ADFF8401ADFF8382A127834
:1003200041F82200DFF82C0A0078401CDFF8241A7C
:100330000870DFF8400ADFF8201ADFF8182A127870
:1003400041F82200DFF80C0A0078401CDFF8041A9C
:100350000870DFF8240ADFF8001ADFF8F8291278AD
:1003600041F82200DFF8EC090078401CDFF8E419BE
:100370000870DFF8080ADFF8E019DFF8D8291278EA
:1003800041F82200DFF8CC090078401CDFF8C419DE
:100390000870DFF8EC09DFF8C019DFF8B829127827
:1003A00041F82200DFF8AC090078401CDFF8A419FE
:1003B0000870DFF8D009DFF8A019DFF89829127863
:1003C00041F82200DFF88C090078401CDFF884191E
:1003D0000870DFF8B409DFF88019DFF8782912789F
:1003E00041F82200DFF86C090078401CDFF864193E
:1003F0000870DFF89809DFF86019DFF858291278DB
:1004000041F82200DFF84C090078401CDFF844195D
:100410000870DFF87C09DFF84019DFF83829127816
:1004200041F82200DFF82C090078401CDFF824197D
:100430000870DFF86009DFF82019DFF81829127852
:1004400041F82200DFF80C090078401CDFF804199D
:100450000870DFF84409DFF80019DFF8F82812788F
:1004600041F82200DFF8EC080078401CDFF8E418BF
:100470000870DFF82809DFF8E018DFF8D8281278CC
:1004800041F82200DFF8CC080078401CDFF8C418DF
:100490000870DFF83409DFF8C018DFF8B8281278E0
:1004A00041F82200DFF8AC080078401CDFF8A418FF
:1004B0000870DFF83009DFF8A018DFF89828127804
:1004C00041F82200DFF88C080078401CDFF884181F
:1004D0000870DFF81409DFF88018DFF87828127840
:1004E00041F82200DFF86C080078401CDFF864183F
:1004F0000870DFF81409DFF86018DFF85828127860
:1005000041F82200DFF84C080078401CDFF844185E
:100510000870DFF81809DFF84018DFF8382812787B
:1005200041F82200DFF82C080078401CDFF824187E
:100530000870DFF81009DFF82018DFF818281278A3
:1005400041F82200DFF80C080078401CDFF804189E
:100550000870DFF8F408DFF80018DFF8F8271278E1
:1005600041F82200DFF8EC070078401CDFF8E417C0
:100570000870DFF8FC08DFF8E017DFF8D8271278FA
:1005800041F82200DFF8CC070078401CDFF8C417E0
:100590000870DFF8F408DFF8C017DFF8B827127822
:1005A00041F82200DFF8AC070078401CDFF8A41700
:1005B0000870DFF8D808DFF8A017DFF8982712785E
:1005C00041F82200DFF88C070078401CDFF8841720
:1005D0000870DFF8BC08DFF88017DFF8782712789A
:1005E00041F82200DFF86C070078401CDFF8641740
:1005F0000870704780B5DFF89C08007800280FD19C
:10060000DFF89408007800280AD10121DFF8300AC9
:1006100005F0FBF80221DFF8280A05F0F6F83DE0C6
:10062000DFF87008007801280FD1DFF86C08007837
:1006300000280AD10121DFF8080A05F0E9F80221B3
:10064000DFF8FC0905F0E1F828E0DFF84808007859
:1006500000280FD1DFF84008007801280AD10121D5
:10066000DFF8DC0905F0D1F80221DFF8D40905F044
:10067000CFF813E0DFF81C08007801280ED1DFF86E
:1006800018080078012809D10121DFF8B40905F024
:10069000BCF80221DFF8A80905F0B7F801BD80B564
:1006A000DFF8F0170870FFF7A5FF01BD80B5DFF890
:1006B000E8170870FFF79EFF01BD80B5002805D13F
:1006C0000421DFF87C0905F0A0F804E00421DFF83C
:1006D000700905F09DF801BD80B5002805D10821FD
:1006E000DFF85C0905F091F804E00821DFF8500913
:1006F00005F08EF801BD80B5002805D11021DFF886
:10070000400905F082F804E01021DFF8340905F013
:100710007FF801BD80B5DFF8F4070078002811D11B
:10072000DFF8EC07007800280CD14FF40061DFF807
:10073000100905F06AF84FF48051DFF8040905F05C
:1007400064F843E0DFF8C4070078012811D1DFF82E
:10075000C007007800280CD14FF40061DFF8E008F2
:1007600005F056F84FF48051DFF8D40805F04DF845
:100770002CE0DFF898070078002811D1DFF8900707
:10078000007801280CD14FF40061DFF8B40805F0BF
:100790003CF84FF48051DFF8A80805F039F815E06F
:1007A000DFF868070078012810D1DFF864070078C7
:1007B00001280BD14FF40061DFF8840805F025F81B
:1007C0004FF48051DFF8780805F01FF801BD80B5BF
:1007D000DFF838170870FFF79DFF01BD80B5DFF81F
:1007E00030170870FFF796FF01BD80B5DFF8540899
:1007F0000078002810D1DFF85008007800280BD1CD
:100800004FF48071DFF8380804F0FFFF8021DFF833
:10081000300804F0FAFF40E0DFF8280800780128EB
:1008200010D1DFF82408007800280BD14FF4807134
:10083000DFF80C0804F0ECFF8021DFF8040804F076
:10084000E4FF2AE0DFF8FC070078002810D1DFF889
:10085000F807007801280BD14FF48071DFF8E0072A
:1008600004F0D3FF8021DFF8D80704F0D1FF14E0B3
:10087000DFF8D007007801280FD1DFF8CC07007827
:1008800001280AD14FF48071DFF8B40704F0BDFFEE
:100890008021DFF8AC0704F0B8FF01BD80B5DFF8B8
:1008A000A8170870FFF7A1FF01BD80B5DFF8941706
:1008B0000870FFF79AFF01BD80B5002806D14FF4FC
:1008C0000071DFF87C0704F0A0FF05E04FF4007131
:1008D000DFF86C0704F09CFF01BD80B5002806D14D
:1008E0004FF48061DFF8580704F08FFF05E04FF404
:1008F0008061DFF84C0704F08BFF01BD80B5002854
:1009000006D14FF40051DFF8380704F07EFF05E010
:100910004FF40051DFF8280704F07AFF01BD80B5DD
:10092000002806D14FF48041DFF8140704F06DFF72
:1009300005E04FF48041DFF8080704F069FF01BDCE
:1009400080B5002806D14FF40041DFF8F40604F02A
:100950005CFF05E04FF40041DFF8E40604F058FFC7
:1009600001BD80B5002805D11021DFF8E00604F0B4
:100970004CFF04E01021DFF8D40604F049FF01BD6C
:1009800080B5002805D10421DFF8C40604F03DFF3E
:1009900004E00421DFF8B80604F03AFF01BD80B599
:1009A000002806D14FF48051DFF8A80604F02DFF8F
:1009B00005E04FF48051DFF89C0604F029FF01BDEB
:1009C00080B5002806D14FF40061DFF8880604F0F6
:1009D0001CFF05E04FF40061DFF8780604F018FF13
:1009E00001BD80B5002805D14021DFF8540604F090
:1009F0000CFF04E04021DFF8480604F009FF01BDC8
:100A000080B5002805D12021DFF8340604F0FDFE72
:100A100004E02021DFF8280604F0FAFE01BD80B5CD
:100A2000002806D14FF40041DFF82C0604F0EDFE5B
:100A300005E04FF40041DFF8200604F0E9FE01BDB7
:100A400080B5002806D14FF48061DFF8080604F075
:100A5000DCFE05E04FF48061DFF8F80504F0D8FE15
:100A600001BD80B5002806D14FF40071DFF8E40520
:100A700004F0CBFE05E04FF40071DFF8D80504F078
:100A8000C7FE01BD80B5002805D10821DFF8BC05EF
:100A900004F0BBFE04E00821DFF8B00504F0B8FE66
:100AA00001BD80B5002805D10121DFF8A40504F0BF
:100AB000ACFE04E00121DFF8980504F0A9FE01BDB9
:100AC00080B5002805D10221DFF8840504F09DFEE1
:100AD00004E00221DFF8780504F09AFE01BD80B53C
:100AE00000280DD10821DFF8700504F08EFEDFF834
:100AF000880A007810F0FE00DFF87C1A08700CE01D
:100B00000821DFF8540504F083FEDFF86C0A007852
:100B100050F00100DFF8601A087001BD80B50028B0
:100B200005D10421DFF8300504F06FFE04E0042154
:100B3000DFF8240504F06CFE01BD80B500280ED15D
:100B40004FF48051DFF8040504F05FFEDFF8280A57
:100B5000007810F0FD00DFF8201A08700DE04FF467
:100B60008051DFF8E80404F053FEDFF80C0A007847
:100B700050F00200DFF8001A087001BD80B50028AF
:100B800006D14FF40051DFF8C40404F03EFE05E046
:100B90004FF40051DFF8B40404F03AFE01BD80B513
:100BA00000280ED14FF48051DFF8A40404F02DFE8C
:100BB000DFF8C409007810F0FB00DFF8BC190870FA
:100BC0000DE04FF48051DFF8880404F021FEDFF8D7
:100BD000A809007850F00400DFF89C19087001BDE6
:100BE00080B5002806D14FF40051DFF8640404F00A
:100BF0000CFE05E04FF40051DFF8540404F008FE49
:100C000001BD80B5002806D14FF48041DFF84804CB
:100C100004F0FBFD05E04FF48041DFF83C0404F0F4
:100C2000F7FD01BD80B5002806D14FF40051DFF873
:100C3000280404F0EAFD05E04FF40051DFF8180441
:100C400004F0E6FD01BD80B5002806D14FF48051C7
:100C5000DFF8040404F0D9FD05E04FF48051DFF81B
:100C6000F80304F0D5FD01BD00E400E014E000E06D
:100C700018E000E09F060008AD06000880B500F00F
:100C8000E1FF01F0BCFD00F0FFFEDFF8F0380022CC
:100C900047F60101062002F0FDFA0821DFF8DC0822
:100CA00004F092FEDFF8D838002247F60101062052
:100CB00002F0F0FA0821DFF8C80804F09CFE3021A9
:100CC000DFF8C00804F044FE0A2005F083F9302163
:100CD0004CA004F03DFE082003F048FF01F0D1F9DC
:100CE00001F0BCFE02F0D2F901F088FD01F048FAF3
:100CF00001F028FB01F0FEFB01F0F6FC02F09CFB8A
:100D000002F06CFC03F082FD03F084FD03F094FD1F
:100D100003F078FE03F0B8FE00F0A0F900F0FAF856
:100D200000F0BCF800F0A0FC00F03EFE00F02CFC4F
:100D300004F0AEF9D2E70000BB060008D9060008AF
:100D4000F7060008010A0008E309000818ED00E0B2
:100D500010E000E0DE130020201000209D080008B5
:100D6000AB080008B9080008DB080008CF07000836
:100D7000DD070008FD0800081F09000841090008F8
:100D80001F0A0008A30A0008C10A0008DF0A0008B9
:100D90001D0B00083B0B00087D0B00089F0B000893
:100DA000DFF8941808700120DFF888180870002018
:100DB000DFF8881808800020DFF88C180870002001
:100DC000DFF8881808607047E10B000880B5002044
:100DD000DFF8601808700020DFF8841C0969884774
:100DE00001BD0000030C0008250C0008DFF86418A2
:100DF00008700020DFF8601808700120DFF85C1828
:100E000008707047456E6400470C000880B50020EC
:100E1000DFF8401808700020DFF840180870002044
:100E2000DFF83C1CC968884701BD00006309000861
:100E30000120DFF82C1808700020DFF8641B087010
:100E400070470000810900089F09000880B5012053
:100E5000DFF8FC1708700020DFF808180870DFF8CA
:100E60003C0B0078002801D000F0C5FB01BD00005C
:100E7000C10900080120DFF8B81708700020DFF86A
:100E8000EC1B087070470000410A0008630A000864
:100E9000850A0008D8130020D913002080B5DFF898
:100EA0009007007800282FD0DFF8900700880028EE
:100EB00028D1DFF88C070088DFF888170988884276
:100EC0000BD3DFF8A80B007801281DD1FFF7B0FF86
:100ED0000020DFF8981B087016E0DFF8680700882C
:100EE000801EDFF85C17098888420DDBDFF87C0B79
:100EF0000078002808D1FFF7A9FF0120DFF86C1B5C
:100F0000087001E0FFF794FF01BD0000DA13002034
:100F1000DB13002080B5DFF848070078002800F0D8
:100F20008D80DFF87C0A0078002802D0012869D083
:100F300084E00020DFF818170870DFF8680A0078EE
:100F4000C0F3C000C0B2002803D0002004F0C0FBF2
:100F500030E00020DFF8081B096D88470020DFF82B
:100F6000001BC96C88470120DFF8F41A496E8847D6
:100F70000020DFF8EC1A896D88470020DFF8E01ABE
:100F8000496D88470120DFF8D81A896E8847DFF855
:100F9000D40A807802F0F0F8DFF8C80A407902F04D
:100FA00001F9DFF8C00A017A4FF47A704143DFF8A3
:100FB000B80A0180DFF89C06007800281DD0DFF811
:100FC0009C06007800280AD000F022FB0020DFF801
:100FD000881608700020DFF8841608700DE0DFF82E
:100FE00074060078DFF870160978884205D300F09F
:100FF0000FFB0020DFF8601608700120DFF8A01951
:1010000008701BE0DFF8600A0088002816D1002075
:10101000DFF84C1A496E88470020DFF8441A896EC1
:1010200088473021DFF8480A04F092FC0020DFF8FE
:10103000701908700020DFF82816087001BD000044
:1010400000180140DC130020DD13002000100140D7
:10105000000C0140001C01400014014080B5DFF885
:10106000F0050078002800F08582DFF8F8050078A8
:1010700000281BD0022844D035D3042800F0028178
:101080007CD3062800F05C81C0F01F81082800F0A6
:101090008381C0F0CB810A2800F04582C0F0308205
:1010A0000C2800F06482C0F0618263E2DFF8F4088B
:1010B0000078C0F3C000C0B2002807D0012004F0BF
:1010C00007FB0A20DFF89C1508700BE0DFF8A80486
:1010D000007810F0F700DFF8A01408700120DFF8A6
:1010E0008415087046E24FF4FA70DFF8881908801A
:1010F0000220DFF8701508700220DFF87C190870F4
:1011000038E2DFF870090088002840F033820020C0
:10111000DFF84C19096D88470020DFF84419C96CC5
:1011200088470020DFF83819896D88470020DFF8EC
:101130003019496D88470120DFF82419496E884726
:101140000120DFF81C19896E88473021DFF82C094F
:1011500004F0FEFBDFF80C09007802F00DF8DFF870
:101160000409C07802F01EF840F6B830DFF8041920
:1011700008800320DFF8EC140870FBE1DFF8F408C6
:101180000088002840F0F6813021DFF8F40804F0F0
:10119000DFFBDFF81008007810F00300012827D1EA
:1011A000DFF888044078C0F34000C0B200280CD0BB
:1011B000DFF88804007850F04000DFF880140870F1
:1011C0000C20DFF8A01408705BE00120DFF8901815
:1011D000096D8847DFF88C0881794FF47A704143B4
:1011E000DFF8900801800420DFF87814087048E0E8
:1011F000DFF8B007007810F00300032841D1DFF8D2
:101200002C04407810F0060F24D0DFF8200440783A
:10121000C0F34000C0B2002807D0DFF820040078F7
:1012200050F04000DFF814140870DFF80004407834
:10123000C0F38000C0B2002807D0DFF800040078B7
:1012400050F08000DFF8F41308700C20DFF814145D
:10125000087016E00120DFF80818096D88470120A2
:10126000DFF8FC17896D8847DFF8F80781794FF4BC
:101270007A704143DFF8FC0701800420DFF8E413B3
:10128000087077E1DFF8EC070088002840F07281F1
:101290000120DFF8CC17C96C88470120DFF8C017A0
:1012A000496D88473021DFF8980904F051FBDFF8D9
:1012B000B407C1794FF47A704143DFF8B807018071
:1012C0000520DFF8A013087054E1DFF8A8070088B4
:1012D000002830D0DFF8CC06007810F00300012899
:1012E00011D1DFF848034078C0F34000C0B20028B5
:1012F00025D00620DFF86C1308704FF47A70DFF801
:10130000741708801BE0DFF89C06007810F00300DB
:10131000032814D1DFF81403407810F006000628E3
:101320000DD10620DFF83C1308704FF47A70DFF817
:101330004417088003E00820DFF82813087019E13B
:10134000DFF830070088002822D0DFF85806007840
:1013500010F0030001280AD1B4484078C0F34000DF
:10136000C0B2002817D10820BE49087013E0DFF88A
:101370003406007810F0030003280CD1AB48407805
:1013800010F00600062806D00820B649087002E0D2
:101390000920B4490870EDE0DFF8DC060078002889
:1013A0000AD0DFF8D4060078401EDFF8CC160870AB
:1013B0000220AC49087038E0DFF8E805007810F04A
:1013C000030001280DD199484078C0F34000C0B215
:1013D000002827D19948407850F00200974948707A
:1013E00020E0DFF8C005007810F00300032819D1D1
:1013F0008E484078C0F34000C0B2002805D18F4825
:10140000407850F002008D49487088484078C0F319
:101410008000C0B2002805D18848407850F0040010
:101420008649487007208F490870A3E00020DFF844
:101430003016096D88470020DFF82416C96C8847EC
:101440000020DFF81C16896D88470020DFF8101691
:10145000496D88473021DFF8E00804F079FAFFF79A
:10146000E7FCDFF84005007810F00300012814D1F4
:1014700041480078C0F3C000C0B2002806D06F48D1
:10148000007850F008006D49087035E06B4800782E
:1014900050F00100694908702EE0DFF80805007877
:1014A00010F00300032827D133480078C0F3C000B0
:1014B000C0B2002806D06148007850F008005F49AB
:1014C000087005E05D48007850F001005B49087045
:1014D00029480078C0F30010C0B2002806D0574851
:1014E000007850F010005549087005E05348007826
:1014F00050F00200514908700C205A49087039E038
:10150000DFF86005407801F037FEDFF85805007914
:1015100001F048FE4FF4FA60DFF8581508800A2001
:101520005049087026E0DFF84C050088002821D1DA
:101530000020DFF82C15096D88470020DFF8201502
:10154000896D88473021DFF86C0A04F001FA0A48F7
:10155000007850F00800084908700B2041490870D5
:101560003D480078401C3C49087003E002E0002040
:101570003749087001BD000082130020901100203F
:10158000F81100208080000880B5DFF82C0A007870
:1015900000282FD02948008800282BD1DFF81C0A0A
:1015A000B0F90000DFF8181AB1F9001088420BDB1F
:1015B000DFF8100D007801281CD100F01CF8002085
:1015C000DFF8001D087015E0DFF8F409B0F900003D
:1015D000801EDFF8E819B1F9001088420ADBDFF855
:1015E000E40C0078002805D100F012F80120DFF8A3
:1015F000D41C087001BD0120DFF8F81A0870002023
:10160000DFF8F41A08700020DFF8E01C087070475B
:101610000120DFF8881308700120DFF8DC1A087059
:101620000020DFF8481B0870704700007E13002080
:1016300030140020381400203914002080130020BA
:101640008E130020AA1300203A1400206C130020EF
:101650002614002036140020371400203B140020EC
:10166000291400202714002080B5DFF8A00A007894
:10167000002800F09181DFF8F40A007800281BD0E0
:10168000022857D048D3042800F0AC8078D306282D
:1016900000F0E180C0F0C380082800F0F380C0F0C3
:1016A00007810A2800F04481C0F033810C2800F043
:1016B0006F81C0F05B816FE1BA480078C0F38000B1
:1016C000C0B200280CD0DFF8BC03007810F0DF00B7
:1016D000DFF8B01308700120DFF8901A08701AE0E4
:1016E000B0480078C0F30010C0B2002813D0012029
:1016F00004F006F8DFF88C03007850F02000DFF8E3
:10170000841308704EF66020DFF8641A08800B20FE
:10171000DFF8581A08703FE14FF4FA70DFF8541AF6
:1017200008800220DFF8441A08700220DFF8481A07
:10173000087031E1DFF83C0A0088002840F02C8175
:101740000020C749096E88470020C549C96D8847F0
:101750000120C349C96E88473021DFF8200A04F010
:10176000F7F8DFF82C0B007801F034FD40F6B830C4
:10177000DFF8001A08800320DFF8F01908700BE189
:10178000DFF8F0090088002840F006810120B44904
:10179000096E88473021DFF8FC0A04F0D9F8DFF839
:1017A000F00AC1784FF47A704143DFF8C80901802C
:1017B000DFF8FC0A4078C0F3C000C0B200280CD0AB
:1017C000DFF8140B407850F00100DFF80C1B487074
:1017D0000C20DFF89819087003E00420DFF88C195A
:1017E0000870D9E0DFF88C090088002840F0D48028
:1017F00001209B49C96D88473021DFF8F40A04F0C5
:10180000A7F8DFF88C0A01794FF47A704143DFF8CA
:10181000640901800520DFF854190870BCE0DFF886
:1018200054090088002811D0DFF8840A4078C0F3FA
:10183000C000C0B200280DD00620DFF830190870B3
:101840004FF47A70DFF82C19088003E00820DFF8E5
:101850001C190870A0E0DFF81C09008800280CD0D3
:10186000DFF84C0A4078C0F3C000C0B2002808D1AD
:101870000820DFF8F818087003E00920DFF8EC18FA
:10188000087089E0DFF8F008007800280BD0DFF856
:10189000E8080078401EDFF8E01808700220DFF842
:1018A000CC18087003E00720DFF8C018087073E058
:1018B00000206B49096E884700206949C96D884737
:1018C0003021DFF8780A04F043F8DFF828080078C0
:1018D000002801D1FFF78FFE6A480078C0F340105E
:1018E000C0B2002808D0DFF8F009007850F02000DE
:1018F000DFF8E419087007E0DFF8DC09007850F041
:101900000400DFF8D41908700C20DFF860180870A4
:1019100042E0DFF87C09407801F05CFC4FF4FA60AB
:10192000DFF8501808800A20DFF84018087033E00C
:10193000DFF84008008800282ED100204849096EB1
:1019400088473021DFF8F80904F002F84D480078A4
:1019500050F020004B4908700B20DFF81018087079
:101960004EF66020DFF80818088015E0DFF8F80A66
:10197000007800280BD0DFF8F8070088002806D18F
:10198000FFF739FE3021DFF8100B03F0E1FF03E031
:101990000020DFF87817087001BD00002B1400202C
:1019A0002A140020BA13002080B5DFF84807007819
:1019B000002854D0DFF834090078002802D001282C
:1019C00037D04CE00020DFF844170870DFF8140B24
:1019D0000078C0F38000C0B200281AD0002020494F
:1019E000096E884700201E49C96D884701201C499F
:1019F000C96E8847DFF89808807801F0EBFBDFF8C4
:101A0000900841794FF47A704143DFF8DC0A018095
:101A10000AE0DFF8D00A0078C0F30010C0B2002856
:101A200002D0002003F06CFE0120DFF8C01808701F
:101A300015E0DFF8B40A0088002810D1002008491A
:101A4000C96E88473021DFF8A40A03F081FF002027
:101A5000DFF8981808700020DFF89816087001BDAC
:101A60002010002018130020AC1300203114002097
:101A700038800008A81300202814002044800008A3
:101A8000E87F00088213002010B5FEF77EFB0024DB
:101A900006E00020DFF8581A51F824108847641C2B
:101AA000DFF8600B00788442F3DB4FF40051DFF87D
:101AB000580B03F0ADFE4FF40041DFF84C0B03F080
:101AC000A4FE4FF48061DFF8400B03F0A1FE4FF459
:101AD0008051DFF8340B03F098FE8021DFF8280BEB
:101AE00003F096FE4FF40071DFF81C0B03F08DFE3F
:101AF0001021DFF8140B03F08BFE4021DFF8080BF8
:101B000003F083FE41F2883000F014FF0A2001F058
:101B100033FB142001F046FB1E2001F05BFB01208B
:101B2000DFF8281B08700120DFF8241B0870012053
:101B3000DFF8201B08700120DFF81C1B08706420F0
:101B4000DFF8601B08706420DFF85C1B08706420FD
:101B5000DFF8581B08706420DFF8541B08701B2046
:101B6000DFF8501B08703420DFF8481B4870342021
:101B7000DFF8401B88702620DFF8381BC8704A2029
:101B8000DFF8301B08714A20DFF8281B487103205A
:101B9000DFF8201B88710320DFF8181BC8710520AF
:101BA000DFF8101B08722720DFF8E41608704820C1
:101BB000DFF8DC1648704820DFF8D4168870032060
:101BC000DFF8CC16C8700320DFF8C41608710520B2
:101BD000DFF8BC1648710120DFF8DC1A087001201C
:101BE000DFF8D81A08700120DFF8D41A0870012035
:101BF000DFF8D01A08700120DFF8CC1A0870012035
:101C0000DFF8C81A08700120DFF8C41A0870012034
:101C1000DFF8C01A08700120DFF8BC1A0870012034
:101C2000DFF8B81A08700120DFF8B41A0870012034
:101C3000DFF8B01A08700120DFF8EC1C087010BD46
:101C4000AC7F000880B504F053FA5FF4803004F0F4
:101C50007FFA04F0A7FADFF8D41C0870DFF8CC0C88
:101C60000078012824D1002004F0D7FA002004F0E5
:101C7000E8FA4FF4806004F0DAFA102004F0CCFBAC
:101C8000022004F0BDFB5FF4E0115FF4803004F04B
:101C9000A5FA012004F0AEFA392004F073FB002805
:101CA000FAD0022004F0AAFA04F0B2FA0828FBD114
:101CB0000121042004F046FB0121082004F042FB2E
:101CC0000121102004F03EFB0121202004F03AFB0A
:101CD0000121402004F036FB0121802004F032FB7A
:101CE00001214FF4807004F02DFB01214FF480405E
:101CF00004F028FB01215FF4003004F033FB0121E4
:101D00005FF4802004F02EFB01215FF4002004F03A
:101D100029FB0121012004F005FB01214FF40050B3
:101D200004F010FB00F00AF803F076FD00F058F91B
:101D300000F048F901BD00005080000880B54FF464
:101D4000E070ADF8000018208DF8030003208DF836
:101D500002006946DFF8A00A03F0EAFC4BF2D0600B
:101D6000ADF8000010208DF8030003208DF802006C
:101D70006946DFF8940803F0DBFC44F62010ADF868
:101D8000000048208DF8030003208DF8020069460A
:101D9000DFF8740803F0CCFC4FF40070ADF80000DD
:101DA00018208DF8030003208DF802006946DFF843
:101DB000800B03F0BDFC4FF48060ADF80000042000
:101DC0008DF803006946DFF8680B03F0B1FC0420CE
:101DD000ADF8000018208DF8030003208DF80200F4
:101DE0006946DFF84C0B03F0A3FC0820ADF80000B7
:101DF00004208DF803006946DFF8340B03F098FCEB
:101E00004FF48060ADF8000018208DF80300032027
:101E10008DF802006946DFF8EC0B03F089FC4FF403
:101E20000060ADF8000004208DF803006946DFF87B
:101E3000D40B03F07DFC4FF48060ADF80000182057
:101E40008DF8030003208DF802006946DFF8A80929
:101E500003F06EFC4FF40060ADF8000004208DF834
:101E600003006946DFF8900903F062FC4FF6FF704B
:101E7000ADF8000010208DF8030003208DF802005B
:101E80006946DFF8840B03F053FC4FF20C00ADF809
:101E9000000010208DF8030003208DF80200694631
:101EA000DFF8680B03F044FC4FF47F60ADF80000EE
:101EB00048208DF8030003208DF802006946DFF802
:101EC0004C0B03F035FC43F20300ADF8000010208A
:101ED0008DF8030003208DF802006946DFF8240B1B
:101EE00003F026FC4FF44340ADF8000048208DF885
:101EF000030003208DF802006946DFF8080B03F0A9
:101F000017FC4FF44050ADF8000010208DF803008E
:101F100003208DF802006946DFF8DC0803F008FCB6
:101F20004FF46040ADF8000010208DF8030003204E
:101F30008DF802006946DFF8D80A03F0F9FB0320A8
:101F4000ADF8000048208DF8030003208DF8020052
:101F50006946DFF8B40603F0EBFB1820ADF800008B
:101F600010208DF8030003208DF802006946DFF889
:101F7000880803F0DDFB4FF4F050ADF800001020AE
:101F80008DF8030003208DF802006946DFF8800A0F
:101F900003F0CEFB0420ADF8000010208DF8030004
:101FA00003208DF802006946DFF8580A03F0C0FBF1
:101FB00001BD00005C800008411400209A1300203D
:101FC000C613002080B548F6A040FEF7C4F80028EC
:101FD00000D0FEE700215FF0FF30FEF7A9F801BD59
:101FE00080B54FF4E06004F029FA0B208DF8000072
:101FF00000208DF8010000208DF8020001208DF8EE
:102000000300684604F01FFA25208DF80000002028
:102010008DF8010001208DF8020001208DF80300E9
:10202000684604F010FA26208DF8000000208DF894
:10203000010002208DF8020001208DF8030068469F
:1020400004F001FA27208DF8000000208DF801002F
:1020500003208DF8020001208DF80300684604F08B
:10206000F2F934208DF8000000208DF801000420E2
:102070008DF8020001208DF80300684604F0E3F9B2
:1020800001BDDFF89009008800281CD1DFF888091D
:10209000006890F40040DFF880190860DFF87809E4
:1020A000006890F48040DFF870190860DFF8680974
:1020B000006890F40050DFF8601908604FF4FA707F
:1020C000DFF850190880704780B51F20DFF84C19E1
:1020D00008704FF40041DFF8300503F099FB01BDB3
:1020E00080B54FF40041DFF8200503F08EFB01BD01
:1020F000000000002E1400203C14002080B54FF496
:102100000051DFF8040503F083FB01BD2B14002010
:1021100080B54FF40051DFF8F00403F076FB01BD09
:1021200080B54FF48041DFF8E00403F063FB002842
:102130000DD0DFF8EC0801680122DFF8E00890F923
:10214000000082401143DFF8D80801600CE0DFF89E
:10215000D00801680122DFF8C40890F9000082402D
:102160009143DFF8BC08016001BD00002C14002081
:10217000B8130020AE1300202D140020C07F0008EB
:1021800080B5DFF820050078002840F08080DFF877
:1021900094080078002802D1FFF796FF1CE0DFF8D2
:1021A00084080178032291FBF2F002FB1010C0B208
:1021B000002808D0022803D00ED2FFF7A9FF0BE0B9
:1021C000FFF7AEFF08E0FFF799FFDFF8500800784F
:1021D000401EDFF848180870DFF8400890F900004A
:1021E00000284DD5FFF77CFF0020DFF83818087075
:1021F000DFF82C080068DFF830180860DFF82808DE
:102200000068800CDFF824180880DFF82008B0F997
:102210000000042190FBF1F0DFF810180880DFF8CF
:102220000C080088DFF80818DFF80828127821F871
:102230001200DFF800080078401CDFF8F81708707B
:10224000DFF8F00700780A2803DB0020DFF8E41746
:1022500008700021002205E0DFF8D40730F81200F2
:102260004118521C0A2AF7DB89B20A2091FBF0F0D0
:10227000DFF8C41708806420DFF82814087006E02F
:10228000DFF8A0070078401CDFF89817087001BD40
:102290002C130020F87F000880B51F20DFF89C1762
:1022A00008704FF48051D84803F0B2FA01BD000025
:1022B0007E13002080B54FF48051D34803F0A5FA77
:1022C00001BD00004214002080B54FF48061CE486B
:1022D00003F09EFA01BD00008013002080B54FF48A
:1022E0008061C94803F091FA01BD00002F1400205D
:1022F0000880000880B54FF40061C34803F07AFA03
:1023000000280DD0DFF8380701680122DFF82C071C
:1023100090F9000082401143DFF8240701600CE0CF
:10232000DFF81C0701680122DFF8100790F90000B0
:1023300082409143DFF80807016001BD1880000862
:10234000D47F000880B5D8480078002840F07F800E
:10235000DFF8140D0078002802D1FFF79DFF1CE084
:10236000DFF8040D0178032291FBF2F002FB10105C
:10237000C0B2002808D0022803D00ED2FFF7AEFF6B
:102380000BE0FFF7B7FF08E0FFF79EFFDFF8AC06B2
:102390000078401EDFF8A4160870DFF8A00690F958
:1023A000000000284CD5FFF785FF0020DFF8B81C9F
:1023B0000870DFF88C060068DFF888160860DFF820
:1023C00084060068800CDFF880160880DFF8780645
:1023D000B0F90000042190FBF1F0DFF86C160880E2
:1023E000DFF864060088DFF86416DFF864261278E8
:1023F00021F81200DFF858060078401CDFF850166C
:102400000870DFF84C0600780A2803DB0020DFF8AC
:10241000401608700021002205E0DFF8300630F891
:1024200012004118521C0A2AF7DB89B20A2091FBDC
:10243000F0F0DFF82016088064209B49087006E061
:10244000DFF8240C0078401CDFF81C1C087001BD6C
:1024500080B51F20DFF8001608704FF40071DFF818
:102460000C0C03F0D5F901BD3614002080B54FF4F3
:102470000071DFF8F80B03F0C8F901BD80B58021C9
:10248000DFF8E80B03F0C4F901BD80B58021DFF867
:10249000DC0B03F0BAF901BD6880000880B54FF489
:1024A0008071594803F0A6F900280DD0DFF8C00B61
:1024B00001680122DFF8A00590F900008240114375
:1024C000DFF8AC0B01600CE0DFF8A40B016801221F
:1024D000DFF8840590F9000082409143DFF8900B0B
:1024E000016001BDBA130020B0130020288000084D
:1024F0002010002080B56D480078002840F08180D1
:10250000DFF8FC0C0078002802D1FFF7A1FF1CE0E7
:10251000DFF8EC0C0178032291FBF2F002FB1010C3
:10252000C0B2002808D0022803D00ED2FFF7ADFFBA
:102530000BE0FFF7B3FF08E0FFF7A0FFDFF8180597
:102540000078401EDFF810150870DFF80C0590F9D0
:10255000000000284ED5FFF789FF0020DFF8A01CFF
:102560000870DFF80C0B0068DFF8081B0860DFF864
:10257000040B0068800CDFF8001B0880DFF8F80A05
:10258000B0F90000042190FBF1F0DFF8EC1A0880AC
:10259000DFF8E40AB0F90000401DDFF8E01ADFF8C8
:1025A000E02A127821F81200DFF8D40A0078401CE3
:1025B000DFF8CC1A0870DFF8C80A00780A2803DBB5
:1025C0000020DFF8BC1A08700021002205E0DFF8C7
:1025D000AC0A30F812004118521C0A2AF7DB89B203
:1025E0000A2091FBF0F0DFF89C1A088064202F4944
:1025F000087006E0DFF8080C0078401CDFF8001CCB
:10260000087001BDDE1300200020014080B51F20AE
:10261000DFF8741A08704021DFF8500A03F0F8F868
:1026200001BD80B54021DFF8440A03F0EEF801BD9A
:1026300080B51021DFF8340A03F0EAF801BD80B557
:102640001021DFF8280A03F0E0F801BD5014002043
:10265000571400205E1400206514002080B520214E
:10266000DFF8080A03F0C6F800280DD0DFF8940B55
:1026700001680122DFF8100A90F90000824011433E
:10268000DFF8800B01600CE0DFF8780B01680122B5
:10269000DFF8F40990F9000082409143DFF8640B01
:1026A000016001BD091400200D1400201114002048
:1026B0001514002018130020E1130020E41300205B
:1026C000E7130020ED130020EA130020F013002090
:1026D000F3130020F6130020F9130020FC13002050
:1026E000FF1300200214002080B5DFF8E40A007810
:1026F000002840F08080DFF8500C0078002802D1DC
:10270000FFF784FF1CE0DFF8400C0178032291FB07
:10271000F2F002FB1010C0B2002808D0022803D04B
:102720000ED2FFF78CFF0BE0FFF798FF08E0FFF7F2
:102730007FFFDFF854090078401EDFF84C1908705D
:10274000DFF8440990F9000000284DD5FFF769FF34
:102750000020DFF8F41B0870DFF8A80A0068DFF833
:10276000A81A0860DFF8A00A0068800CDFF89C1A3D
:102770000880DFF8980AB0F90000042190FBF1F01E
:10278000DFF8881A0880DFF8840A0088DFF8801AEA
:10279000DFF8802A127821F81200DFF8780A007832
:1027A000401CDFF8701A0870DFF8680A00780A2801
:1027B00003DB0020DFF85C1A08700021002205E02E
:1027C000DFF84C0A30F812004118521C0A2AF7DBD5
:1027D00089B20A2091FBF0F0DFF8701A08806420BB
:1027E000DFF8EC19087006E0DFF85C0B0078401C9D
:1027F000DFF8541B087001BD00100140704700B5A0
:1028000091B00720ADF8000003208DF802000020F1
:102810008DF803006946DFF86C0A02F089FF012198
:10282000012003F07FFD4FF4004003F014FD01216F
:102830004FF4007003F086FDDFF84C0A03F040FE11
:10284000DFF8480A0690DFF8480A07900020089051
:102850000320099000200A9080200B904FF4007014
:102860000C904FF400600D9020200E904FF400501B
:102870000F900020109006A9DFF80C0A03F0A4FEC8
:102880000121DFF8040A03F0BDFE002001900120C1
:102890008DF8080001208DF809005FF46020039096
:1028A0000020049003208DF8140001A9DFF86C0BC0
:1028B00003F0F0FE052301220A21DFF8600B03F08C
:1028C00053FF052302220B21DFF8500B03F04CFFCE
:1028D000052303220C21DFF8440B03F045FF0121FF
:1028E000DFF8380B03F008FF0121DFF8300B03F0AD
:1028F000F6FEDFF8280B03F00CFFDFF8200B03F0E7
:102900000DFF0028F9D1DFF8140B03F011FFDFF8F9
:102910000C0B03F012FF0028F9D10121DFF8FC0AAB
:1029200003F015FF11B000BD051400201A000020AF
:102930000008014000B587B0DFF8101AB1FBF0F0D5
:10294000DFF80C1A08600020ADF816000020ADF882
:102950001200DFF8FC090068401EADF814000020EA
:10296000ADF8100000208DF8180004A9DFF8680BFE
:1029700003F064FF6020ADF800000020ADF80C000B
:102980000020ADF808000020ADF80E000020ADF8E2
:102990000A000120ADF802000020ADF8040000207C
:1029A000ADF806006946DFF8300B03F062FF6946B8
:1029B000DFF8240B03F096FF6946DFF81C0B03F0E9
:1029C000D1FF0021DFF8100B04F03DF80021DFF803
:1029D000080B04F041F80021DFF8FC0A04F045F888
:1029E0000021DFF8F40A04F020F80121DFF8E80AFA
:1029F00003F0FCFF0121DFF8E00A04F005F807B05E
:102A000000BD0000000C014000180140001401400E
:102A1000001C01407C1300200C1C01400714002006
:102A200040130020081400203C13002084130020D1
:102A3000BC1200200A140020861300200B14002072
:102A4000481300204413002088130020D0120020D7
:102A50000E1400208A1300200F14002080B5DFF828
:102A60007C0A0078002840F0FE821021DFF8700A0E
:102A700002F0C0FE002822D1DFF8A4090078002867
:102A80002DD0DFF8A0090078152810DB0120DFF831
:102A900098190870DFF84C0A007850F00100DFF850
:102AA000441A08700020DFF87819087017E0DFF882
:102AB00074090078401CDFF86C1908700FE0DFF82B
:102AC000240A007810F0FE00DFF8181A08700020C1
:102AD000DFF8501908700120DFF844190870202130
:102AE000DFF8FC0902F086FE002822D1DFF83C095D
:102AF000007800282DD0DFF838090078152810DB81
:102B00000120DFF830190870DFF8D809007850F09C
:102B10000200DFF8D01908700020DFF810190870E3
:102B200017E0DFF80C090078401CDFF80419087082
:102B30000FE0DFF8B009007810F0FD00DFF8A4190D
:102B400008700020DFF8E81808700120DFF8DC18B2
:102B500008704021DFF8880902F04CFE002822D1DD
:102B6000DFF88409007800282DD0DFF8800900788C
:102B7000152810DB0120DFF878190870DFF86409E8
:102B8000007850F00400DFF85C1908700020DFF8CE
:102B90005819087017E0DFF854090078401CDFF876
:102BA0004C1908700FE0DFF83C09007810F0FB00CA
:102BB000DFF8301908700020DFF8301908700120A4
:102BC000DFF8241908708021DFF8140902F012FEE2
:102BD000002822D1DFF81C09007800282DD0DFF86A
:102BE00018090078152810DB0120DFF8101908708B
:102BF000DFF8F008007850F00800DFF8E8180870F7
:102C00000020DFF8F018087017E0DFF8EC08007813
:102C1000401CDFF8E41808700FE0DFF8C8080078FF
:102C200010F0F700DFF8BC1808700020DFF8C818B3
:102C300008700120DFF8BC1808704FF48071DFF8CD
:102C4000A00802F0D7FD002822D1DFF8B4080078F0
:102C500000282DD0DFF8AC080078152810DB012003
:102C6000DFF8A4180870DFF87C08007850F0100036
:102C7000DFF8701808700020DFF88418087017E07B
:102C8000DFF880080078401CDFF8781808700FE043
:102C9000DFF85008007810F0EF00DFF848180870EF
:102CA0000020DFF8601808700120DFF85418087061
:102CB0004FF40071DFF8280802F09CFD002822D1B3
:102CC000DFF84808007800282DD0DFF844080078A5
:102CD000152810DB0120DFF83C180870DFF8040825
:102CE000007850F02000DFF8FC1708700020DFF8B3
:102CF0001C18087017E0DFF818080078401CDFF88F
:102D0000101808700FE0DFF8DC07007810F0DF0023
:102D1000DFF8D01708700020DFF8F41708700120E2
:102D2000DFF8E81708704FF48061DFF8B40702F0AD
:102D300061FD002822D1DFF8E007007800282DD0BF
:102D4000DFF8D8070078152810DB0120DFF8D0174E
:102D50000870DFF89007007850F04000DFF8841723
:102D600008700020DFF8B017087017E0DFF8AC0734
:102D70000078401CDFF8A41708700FE0DFF8640744
:102D8000007810F0BF00DFF85C1708700020DFF853
:102D90008C1708700120DFF8801708704FF400715D
:102DA000DFF8800702F026FD002822D1DFF878073F
:102DB000007800282DD0DFF874070078152810DB84
:102DC0000120DFF86C170870DFF81807007850F062
:102DD0008000DFF8101708700020DFF84C1708702B
:102DE00017E0DFF848070078401CDFF8401708704C
:102DF0000FE0DFF8F006007810F07F00DFF8E4164F
:102E000008700020DFF8241708700120DFF8181779
:102E100008704FF48071DFF80C0702F0EBFC00281B
:102E200022D1DFF81007007800282DD0DFF808073E
:102E30000078152810DB0120DFF800170870DFF894
:102E4000A406407850F00100DFF898164870002082
:102E5000DFF8E016087017E0DFF8DC060078401CA9
:102E6000DFF8D41608700FE0DFF87806407810F02D
:102E7000FE00DFF8701648700020DFF8BC160870FE
:102E80000120DFF8B01608700221DFF8540602F0C6
:102E9000B1FC002822D1DFF8A806007800282DD048
:102EA000DFF8A0060078152810DB0120DFF898165F
:102EB0000870DFF83006407850F00200DFF8241682
:102EC00048700020DFF87816087017E0DFF8740605
:102ED0000078401CDFF86C1608700FE0DFF804067D
:102EE000407810F0FD00DFF8FC1548700020DFF896
:102EF000541608700120DFF8481608704FF480411E
:102F0000DFF8800302F076FC002822D1DFF83C06CF
:102F1000007800282DD0DFF838060078152810DB5F
:102F20000120DFF830160870DFF8B805407850F05F
:102F30000400DFF8B01548700020DFF810160870A4
:102F400017E0DFF80C060078401CDFF80416087064
:102F50000FE0DFF89005407810F0FB00DFF88415F3
:102F600048700020DFF8E81508700120DFF8DC1554
:102F700008704FF48041DFF8AC0502F03BFC0028FC
:102F800022D1DFF8D405007800282DD0DFF8CC0559
:102F90000078152810DB0120DFF8C4150870DFF871
:102FA0004405407850F00800DFF8381548700020DC
:102FB000DFF8A415087017E0DFF8A0050078401CC2
:102FC000DFF8981508700FE0DFF81805407810F06A
:102FD000F700DFF8101548700020DFF88015087042
:102FE0000120DFF8741508704FF40061DFF8F00479
:102FF00002F000FC002822D1DFF8680500780028E4
:103000002DD0DFF864050078152810DB0120DFF8EB
:103010005C150870DFF8CC04407850F08000DFF8D1
:10302000C41448700020DFF83C15087017E0DFF882
:1030300038050078401CDFF8301508700FE0DFF825
:10304000A404407810F07F00DFF898144870002046
:10305000DFF8141508700120DFF80815087001204A
:10306000DFF87814087001BD0C1400200020014026
:10307000501300204C1300208C130020E412002079
:10308000121400208E13002013140020DFF8980380
:103090000078002803D00020DFF88C130870DFF8D8
:1030A00094030078002803D00020DFF8881308700C
:1030B000DFF83C040078002803D00020DFF830144B
:1030C0000870DFF838040078002803D00020DFF80B
:1030D0002C140870DFF830040078002803D000209A
:1030E000DFF824140870DFF82C040078002803D0DF
:1030F0000020DFF820140870DFF82404007800288E
:1031000003D00020DFF818140870DFF824040078DA
:10311000002803D00020DFF818140870DFF81C0422
:103120000078002803D00020DFF810140870DFF8C2
:1031300018040078002803D00020DFF80C14087071
:10314000DFF810040078002803D00020DFF8041412
:103150000870DFF80C040078002803D00020DFF8A6
:1031600000140870DFF804040078002803D0002061
:10317000DFF8F8130870704780B5C0B2642800DB30
:103180006420D0F1640072490968C0B200FB01F00C
:103190006421B0FBF1F0411E89B2DFF83C0303F07B
:1031A0006DFC01BD80B5C0B2642800DB6420D0F1A5
:1031B000640067490968C0B200FB01F06421B0FBFC
:1031C000F1F0411E89B2DFF8100303F059FC01BD94
:1031D0001514002080B5C0B2642800DB6420D0F153
:1031E00064005B490968C0B200FB01F06421B0FBD8
:1031F000F1F0411E89B2B84803F044FC01BD000063
:1032000010140020581300205413002090130020A5
:10321000F81200201614002080B5DFF8540300785F
:10322000002812D0DFF848030178DFF8480302F0E5
:10323000B4FB0020DFF8381308700020DFF83813E3
:1032400008700120DFF83413087001BD92130020CC
:1032500080B5DFF82C030078002812D0DFF82003B7
:103260000178DFF8200302F098FB0020DFF810134C
:1032700008700020DFF8101308700120DFF80C132D
:10328000087001BD00100140080002404C240140BC
:103290009412002030B4FF24BD4D2C70BC4C6070E3
:1032A000C0B2002809D0022814D00CD3042820D0A2
:1032B00019D3062828D01DD32EE0B5484180002020
:1032C000B349888028E00020B14948800020B049F7
:1032D000888021E00020AE4948800020AC49087178
:1032E000AB48427118E00020A9494880A848828074
:1032F00012E011E00120A64988707820A449C87026
:103300000020A349888007E00120A1498870782027
:103310009F49C8709E4882809D4801889C4840888B
:1033200041189B48808841184FF6FF7041439848E8
:10333000C180002003E09649095C1954401C08280C
:10334000F9DB30BC704700001414002000A24A04CE
:1033500034130020F8B580B203F09AFB00228D4BA5
:1033600003F0A4FB00228C4B03F072FC04000D0060
:103370008A48006803F090FD0022864B03F096FB1C
:1033800022002B0003F064FC04000D008348006859
:1033900003F082FD02000B002000290003F0A0FDD5
:1033A00000227F4B03F054FC03F0C8FF04000D0023
:1033B0007C4AD2E9000122002B0003F077FB7A4E11
:1033C000D6E9002303F0BCFF06000F0022002B000B
:1033D0002000290003F06AFB22002B0003F066FBAB
:1033E000724CD4E9002303F061FB32003B0003F090
:1033F000A7FF02000B0000206D4903F029FC02002A
:103400000B005FF066306B4903F09AFF00226A4BB5
:1034100003F096FF04F050F8F4BD000000240140D2
:10342000E1130020E0130020E2130020E413002049
:10343000E3130020E513002080B560480068604970
:1034400008605E4840685E4948605C4880685C4946
:1034500088605B48006880B2FFF77CFF04F058F892
:10346000584908805648406880B2FFF773FF04F05F
:103470004FF8554908805248806880B2FFF76AFFCC
:1034800004F046F8514908804E48B0F900001E305B
:10349000B52803D200204E49087002E001204C49B3
:1034A00008704948B0F900001E30B52803D200204A
:1034B0004849087002E00120464908704348B0F9C5
:1034C00000001E30B52803D200204349087002E0F6
:1034D00001204149087001BD00340140DF13002084
:1034E000001401407E130020E7130020E6130020A3
:1034F000E8130020EA130020E9130020EB1300205A
:10350000ED130020EC130020EE130020F013002038
:10351000EF130020F1130020F3130020F21300201A
:10352000F4130020000C0140F6130020F5130020D6
:10353000F7130020F9130020F8130020FA130020DD
:10354000FC130020FB130020FD130020FF130020BC
:10355000FE1300200014002002140020011400209B
:103560000314002005140020041400200614002079
:10357000581400205C11002055140020571400201E
:103580005F140020C41100205C1400205E14002091
:10359000241300200000044000FEAF400000002083
:1035A00000408F40908000089880000888800008C4
:1035B0000000F03F661271C00000E03F941200204E
:1035C0000C1300209A1300209C1300209E1300204F
:1035D00018140020191400201A14002038B5DFF840
:1035E000B80C0078002800F02887DFF8AC0C0078D1
:1035F000411EC9B2DFF8A40C01F010F9DFF89C1CE1
:10360000DFF8942C1278114411F8011CC0B28142E9
:1036100040F00787DFF8840C4178DFF8800C807871
:10362000C9B2002927D0022900F0A181C0F0A080F2
:10363000042900F07A83C0F05F82062900F05D85DE
:10364000C0F0D584082900F0D185C0F0A2850A29F0
:1036500000F0FA85C0F0E1850C2900F08F86C0F0FB
:10366000F7850E2900F0BD86C0F093860F2900F083
:10367000BE8600F0D6BEDFF8241CC978DFF8BC2D6A
:103680001170DFF8181C0979DFF8B02D5170DFF8E0
:103690000C1C4979DFF8A42D9170DFF8001C8979A2
:1036A000DFF8982DD170DFF8F41BC979DFF8902D81
:1036B0001170C0B2002822D100241BE0DFF8800D79
:1036C000007821002039084110F00100DFF8741D56
:1036D00051F8241088470CE0202CEFDADFF85C0D5D
:1036E0000068E04010F00100DFF8581D51F8241088
:1036F0008847641CDFF8500D00788442ECDBDFF86B
:103700009C0B0078DFF8441D0870DFF8900B4078C0
:10371000DFF8381D4870DFF8840B8078DFF82C1D47
:103720008870DFF8780BC078DFF8201DC870DFF8EC
:103730006C0B0079DFF8141D0871DFF8600B40791D
:10374000DFF8081D4871DFF8540B8079DFF8FC1CA6
:1037500088710721DFF8F40C01F060F8DFF8EC1C49
:10376000C8710821DFF8E40C02F017F900F059BE27
:10377000DFF8281B0978DFF8D42C1170DFF81C1B48
:103780004978DFF8C82C5170DFF8101B8978DFF812
:10379000BC2C9170C0B2002840F0E780DFF8B00C7C
:1037A0000068DFF8981C0860DFF8A80C00884FF468
:1037B000807190FBF1F201FB1200DFF8901CC870E1
:1037C000DFF8900C00884FF4807190FBF1F0DFF887
:1037D0007C1C0871DFF8640C0078DFF8701C4871FD
:1037E000DFF8580C4078DFF8641C8871DFF84C0C67
:1037F0008078DFF8581CC871DFF8400CC078DFF81B
:103800004C1C0872DFF8380C0078DFF8401C487256
:10381000DFF8440C00884FF4807190FBF1F201FB5B
:103820001200DFF8281C8872DFF82C0C00884FF497
:10383000807190FBF1F0DFF8141CC872DFF81C0CEB
:1038400000884FF4807190FBF1F201FB1200DFF869
:10385000FC1B0873DFF8040C00884FF4807190FBA8
:10386000F1F0DFF8E81B4873DFF8F40B00884FF441
:10387000807190FBF1F201FB1200DFF8D01B88731E
:10388000DFF8DC0B00884FF4807190FBF1F0DFF87B
:10389000BC1BC873DFF8CC0B00884FF4807190FB21
:1038A000F1F201FB1200DFF8A41B0874DFF8B40B7F
:1038B00000884FF4807190FBF1F0DFF8901B4874A2
:1038C000DFF8A40BB0F900004FF4807190FBF1F227
:1038D00001FB1200DFF8741B8874DFF88C0BB0F961
:1038E00000004FF4807190FBF1F0DFF8601BC874AA
:1038F000DFF8780BB0F900004FF4807190FBF1F223
:1039000001FB1200DFF8441B0875DFF8600BB0F90B
:1039100000004FF4807190FBF1F0DFF8301B487528
:10392000DFF8140CB0F900004FF4807190FBF1F255
:1039300001FB1200DFF8141B8875DFF8FC0BB0F9EF
:1039400000004FF4807190FBF1F0DFF8001BC875A8
:103950001821DFF8F80A00F061FFDFF8F01A0876A6
:103960001921DFF8E80A02F018F800F05ABDDFF874
:103970002C190978DFF8D42A1170DFF8201949785A
:10398000DFF8C82A5170DFF814198978DFF8BC2AEB
:103990009170C0B2002840F0AD80DFF8BC0A00880A
:1039A0004FF4807190FBF1F201FB1200DFF89C1ADA
:1039B000C870DFF8A40A00884FF4807190FBF1F022
:1039C000DFF8881A0871DFF8940A00884FF48071D4
:1039D00090FBF1F201FB1200DFF8701A4871DFF87A
:1039E0007C0A00884FF4807190FBF1F0DFF85C1ADC
:1039F0008871DFF86C0A00884FF4807190FBF1F257
:103A000001FB1200DFF8441AC871DFF8540A00887D
:103A10004FF4807190FBF1F0DFF8301A0872DFF894
:103A2000440A00884FF4807190FBF1F201FB120010
:103A3000DFF8181A4872DFF82C0A00884FF48071FA
:103A400090FBF1F0DFF8041A8872DFF81C0AB0F975
:103A500000004FF4807190FBF1F201FB1200DFF8DF
:103A6000EC19C872DFF8000AB0F900004FF4807159
:103A700090FBF1F0DFF8D4190873DFF8F009B0F922
:103A800000004FF4807190FBF1F201FB1200DFF8AF
:103A9000BC194873DFF8D409B0F900004FF4807105
:103AA00090FBF1F0DFF8A4198873DFF88C0AB0F905
:103AB00000004FF4807190FBF1F201FB1200DFF87F
:103AC0008C19C873DFF8700AB0F900004FF48071E8
:103AD00090FBF1F0DFF8741908741121DFF86C091C
:103AE00000F09CFEDFF8641948741221DFF85C09CD
:103AF00001F053FF00F095BCDFF8A0170A79DFF85A
:103B00009C174C794FF4807101FB0424DFF88C176B
:103B10008A79DFF88817CD794FF4807101FB05258C
:103B2000C0B2002849D1DFF87407C07807280CD14B
:103B3000DFF868070079DFF8241B0870DFF85C07FE
:103B40000079DFF81C1B0870EBE0DFF85007C07845
:103B5000032806D1DFF80C0B0580DFF80C0B05807D
:103B60000AE0DFF83807C078062805D1DFF8FC0A3C
:103B70000570DFF8FC0A0570DFF8F83A2A0092B207
:103B8000210089B2DFF81407C078FFF783FB082112
:103B9000DFF8E00A01F018FFDFF8DC3A2A0092B201
:103BA000210089B2DFF8F406C078FFF773FB082123
:103BB000DFF8C40A01F01FFFB3E0C0B201283BD117
:103BC000DFF8D806C078072806D1DFF8D0060079DC
:103BD000DFF8881A0870A4E0DFF8983A2A0092B259
:103BE000210089B2DFF8B406C078FFF753FB082143
:103BF000DFF8800A01F0E8FEDFF8A006C0780328AD
:103C000003D1DFF8600A05808BE0DFF89006C0780A
:103C1000062840F08680DFF8540A0570DFF83C0A79
:103C200001784FF47A704143DFF8300B01600020D7
:103C3000DFF82C1B087074E0C0B202283AD1DFF81C
:103C40005C06C078072806D1DFF850060079DFF857
:103C5000101A087065E0DFF8203A2A0092B22100BD
:103C600089B2DFF83806C078FFF714FB0821DFF8C7
:103C7000080A01F0C0FEDFF82406C078032803D14B
:103C8000DFF8E40905804CE0DFF81006C07806286C
:103C900047D1DFF8DC090570DFF8C40901784FF47B
:103CA0007A704143DFF8400B01600020DFF83C1BD5
:103CB000087036E0C0B203281BD1DFF8E005C078F9
:103CC000DFF82C1B0870DFF8D4050179DFF8CC058C
:103CD00042794FF4807000FB0211DFF8180B01806D
:103CE0000020DFF8181D08700120DFF8141D08708F
:103CF00017E0C0B2042804D10120DFF8FC1A0870D4
:103D00000FE0C0B205280CD1DFF89005C178DFF8CC
:103D10008C0502794FF4807000FB0211DFF8DC0A99
:103D20000180062000F03CFD7BE3C0B201283AD1BF
:103D3000DFF86805C078FFF71FFADFF86005007844
:103D4000DFF808170870DFF854054078DFF8FC1634
:103D50004870DFF848058078DFF8F0168870DFF8E3
:103D6000A00A00884FF4807190FBF1F201FB120071
:103D7000DFF8D816C870DFF8880A00884FF4807121
:103D800090FBF1F0DFF8C41608710521DFF8BC06DE
:103D900000F044FDDFF8B41648710621DFF8AC06E8
:103DA00001F0FBFD22E1C0B202283AD1DFF8EC04B9
:103DB000C078FFF7F7F9DFF8E4040078DFF88C1635
:103DC0000870DFF8D8044078DFF880164870DFF814
:103DD000CC048078DFF874168870DFF8280A008831
:103DE0004FF4807190FBF1F201FB1200DFF85C16DA
:103DF000C870DFF8100A00884FF4807190FBF1F072
:103E0000DFF8481608710521DFF8400600F006FDCE
:103E1000DFF8381648710621DFF8300601F0BDFDE5
:103E2000E4E0C0B203283AD1DFF87004C078FFF7AD
:103E3000D1F9DFF868040078DFF810160870DFF8B1
:103E40005C044078DFF804164870DFF8500480788E
:103E5000DFF8F8158870DFF8B00900884FF480713A
:103E600090FBF1F201FB1200DFF8E015C870DFF8FB
:103E7000980900884FF4807190FBF1F0DFF8CC15C1
:103E800008710521DFF8C40500F0C8FCDFF8BC1597
:103E900048710621DFF8B40501F07FFDA6E0C0B24D
:103EA000042835D1DFF8F4030078DFF8A015087096
:103EB000DFF8E8034078DFF894154870DFF8DC039A
:103EC0008078DFF888158870DFF8340900884FF4AF
:103ED000807190FBF1F201FB1200DFF87015C870E1
:103EE000DFF81C0900884FF4807190FBF1F0DFF8D7
:103EF0005C1508710521DFF8540500F08FFCDFF830
:103F00004C1548710621DFF8440501F046FD6DE0CF
:103F1000C0B2052835D1DFF884030078DFF82C150E
:103F20000870DFF878034078DFF820154870DFF874
:103F30006C038078DFF814158870DFF8C8080088F3
:103F40004FF4807190FBF1F201FB1200DFF8FC14DA
:103F5000C870DFF8B00800884FF4807190FBF1F072
:103F6000DFF8E81408710521DFF8E00400F056FCE2
:103F7000DFF8D81448710621DFF8D00401F00DFDF8
:103F800034E0C0B2062831D1C4480078DFF8BC1450
:103F90000870C2484078DFF8B4144870BF48807891
:103FA000DFF8A8148870DFF8600800884FF480718B
:103FB00090FBF1F201FB1200DFF89014C870DFF8FB
:103FC000480800884FF4807190FBF1F0DFF87C1412
:103FD00008710521DFF8740400F020FCDFF86C1490
:103FE00048710621DFF8640401F0D7FC19E2C0B281
:103FF000002812D1A948C078DFF8881A0870A748AD
:104000000079DFF8801A4870A4484079DFF8741A04
:104010008870062000F0C4FB6EE0C0B2012812D107
:104020009E48C078DFF85C1AC8709C480079DFF8B9
:10403000541A087199484079DFF8481A48710620E7
:1040400000F0AEFB58E0C0B2022812D19348C0780D
:10405000DFF8301A887191480079DFF8281AC871A2
:104060008E484079DFF81C1A0872062000F098FB91
:1040700042E0C0B203280CD1DFF88C0A0078002897
:104080003AD1FCF7C3FEFCF7E1FE062000F088FB06
:1040900032E0C0B2042813D1FCF7CAFEFDF7ABFA38
:1040A000FCF7B4FEFCF792FE0020DFF8601A0880EF
:1040B0000020DFF85C1A0870062000F071FB1BE09E
:1040C000C0B205280ED17548C178744804794FF400
:1040D000807000FB0414DFF8400A0480062000F022
:1040E0005FFB09E0C0B2062806D1FCF7C3FEFCF76F
:1040F0008DFE062000F054FB93E1C0B2002812D1DF
:104100006648C078DFF80C1A087064480079DFF858
:10411000041A487061484079DFF8F8198870062061
:1041200000F03EFB34E0C0B2012812D15B48C078F9
:10413000DFF8E019C87059480079DFF8D81908711C
:1041400056484079DFF8CC194871062000F028FB6A
:104150001EE0C0B202280CD1DFF8C00900780028A8
:1041600016D1FDF755FAFCF751FE062000F018FBBA
:104170000EE0C0B203280BD1DFF8A40900780028B4
:1041800006D1FDF738FAFCF741FE062000F008FBE7
:1041900047E1C0B2002805D10520FCF727FEFCF757
:1041A00069FE22E0C0B2012805D10420FCF71EFE02
:1041B000FCF760FE19E0C0B2022805D10320FCF72D
:1041C00015FEFCF757FE10E0C0B2032805D102200F
:1041D000FCF70CFEFCF74EFE07E0C0B2042804D149
:1041E0000120FCF703FEFCF745FE1AE1C0B20028EF
:1041F00003D10020FCF7D4FD0EE0C0B2012803D1AA
:104200000120FCF7CDFD07E0C0B2022804D1012057
:10421000FCF7ECFDFCF72EFE03E12048C1781F48B7
:1042200002794FF4807000FB0211DFF8F80801807A
:104230001A484179194882794FF4807000FB0211C5
:10424000DFF8E4080180ECE0C0B200F08FFCE8E0A9
:10425000C0B2002824D1FCF7EBFDFDF7CCF9FCF748
:10426000D5FDFCF7B3FD0020DFF8A0180880002082
:10427000DFF89C1808700120DFF87C15087000201A
:104280007049896C884700206E49896A88470020F8
:10429000DFF89818087070E051140020F410002026
:1042A000002001F015FA00206649096D88470020BA
:1042B0006449C96C884700206249496E88470020DC
:1042C0006049896D884700205E49496D8847002014
:1042D0005C49896E884700205A49096E884700204A
:1042E0005849C96D884700205649C96E8847002043
:1042F00001F006FA01205349896C88474FF4FA709F
:1043000001F068FE01204F49896A88474FF4FA702E
:1043100001F060FEDFF81808407ADFF81018087026
:104320000020DFF8101808700020DFF80C18086073
:10433000DFF8FC07C179DFF8F807027A4FF48070E4
:1043400000FB02110A0092B2DFF8E4074179DFF8BE
:10435000E00783794FF4807000FB031189B2DFF826
:10436000D007C378DFF8C80704794FF4807000FBEA
:104370000433180080B200F081F952E0DFF8B00792
:104380008078012802D100F0D9F801E000F003F9AB
:1043900047E0DFF89C07807801281DD1DFF89007FF
:1043A0004179DFF88C0782794FF4807000FB0211AD
:1043B00089B2DFF87C07C278DFF8740703794FF41D
:1043C000807000FB0322100080B200F0CBF90120C6
:1043D000DFF86017087003E00020DFF85817087056
:1043E0001FE0DFF84C07807800F042F819E0DFF8B2
:1043F00040078078012808D10120DFF840170870B5
:104400000020DFF83C1708700BE00020DFF8F01503
:1044100008700120DFF8E01308700020DFF81C1797
:1044200008700020DFF81C1708700020DFF818174C
:1044300008700120DFF8F41B087031BD381300202C
:104440001714002020100020DE130020C0100020D0
:104450005C1300207E130020861300208A130020A6
:104460008E130020921300209A1300209C1300202A
:1044700080B5C0B200281BD10020DFF8D01608702C
:10448000FCF7D6FCFDF7B7F80120DB4908700020E7
:10449000DFF8BC1608700220DFF8B816087000209C
:1044A000DFF8B41608700020DFF8B016087041E09D
:1044B000C0B2012814D13220DFF8A41608700420FD
:1044C000DFF8A01608700120DFF88C1608700020B5
:1044D000DFF87C1608700020DFF88C16087029E0E1
:1044E000C0B2022814D16420DFF8741608700620C8
:1044F000DFF8701608700120DFF85C1608700020E5
:10450000DFF84C1608700020DFF85C16087011E028
:10451000C0B203280ED0C0B204280BD0C0B2052808
:1045200008D10120DFF8341608700020DFF8001BE6
:104530000870FFE701BD00009E1300200120DFF896
:10454000F41A08700020DFF8F01A08800020DFF865
:10455000EC1A08700020DFF8E81A08700020DFF875
:10456000E41A08700020DFF8E01A08804620DFF81F
:10457000DC1A08700120DFF8BC1508700020DFF895
:10458000D01A08700120DFF8C81508700020DFF885
:104590006C140870704780B50020DFF8981A087016
:1045A000FCF746FCFDF727F8FCF730FCFCF70EFCA7
:1045B0000020DFF89C1508706320DFF8981A087057
:1045C0000020DFF8801A08700A20DFF8741A0870DB
:1045D0000020DFF8601508700020DFF8681A087006
:1045E0000020DFF8741508700020DFF86C1AC96825
:1045F00088470020DFF8601A096988470020DFF843
:10460000581A496A88470020DFF84C1A49698847D8
:104610000020DFF8441A896988470020DFF8381A3B
:10462000496C88470020DFF8301A896C88470020E1
:10463000DFF8241A896888470020DFF81C1A096807
:1046400088470020DFF8101A4968884701206A4926
:1046500008700020DFF8A813087001BD1B140020AB
:104660001C140020A2130020A41300201D140020FD
:104670001E14002090110020F811002080B580B297
:10468000002807D1DFF890040180FCF7BFFBFCF79E
:10469000F1FB54E0DFF88024118080B2002808D0BC
:1046A00080B2152805DA0520FCF7A0FBFCF7E2FB39
:1046B00045E080B2B0F11502142A05D20420FCF7BF
:1046C00095FBFCF7D7FB3AE080B2B0F12902142A3F
:1046D00005D20420FCF78AFBFCF7CCFB2FE080B26C
:1046E000B0F13D02142A05D20420FCF77FFBFCF751
:1046F000C1FB24E080B25138132805D20420FCF716
:1047000075FBFCF7B7FB1AE089B2B1F11E0029284E
:1047100003D20020FCF744FB11E089B2B1F147005D
:10472000222803D20120FCF73BFB08E089B269395B
:104730001A2904D20120FCF759FBFCF79BFBB4209B
:104740002B4908702D4800882A4908800020AB4971
:1047500008700120AA49087001BD00006013002004
:104760001F14002080B2002807D1DFF8AC030180BD
:104770000120DFF8E818087011E0DFF89C231180B1
:1047800080B2002807D080B2642804DA0320DFF862
:10479000CC18087003E00320DFF8C01808707047D9
:1047A00080B5DFF88C130978DFF8B4281170DFF8D2
:1047B00080134978DFF8A8285170DFF874138978DE
:1047C000DFF89C289170DFF89818C8700421DFF892
:1047D000900800F023F8DFF8881808710521DFF849
:1047E000800801F0DAF801BD6413002020140020D5
:1047F00021140020A61300202314002018000020FC
:1048000094130020961300209813002080B5FEF723
:1048100003FD01BD80B5FEF71BFD01BD10B4020014
:104820000020002402E0135D1818641CC9B28C42F9
:10483000F9DBC0B210BC704710B5DFF8280800786B
:10484000012821D1DFF82038002247F60101062097
:10485000FEF720FD0821DFF8100801F0B5F8DFF8B9
:104860000C38002247F601010620FEF713FD08214F
:10487000DFF8F80701F0BFF80020DFF8E81708704C
:1048800000205F490870B8E05D480078002800F01B
:10489000B4805A480078002802D0012826D0ACE025
:1048A000DFF8C437012247F601010620FEF7F2FCCB
:1048B0000821DFF8B40701F087F8DFF8B0370122EC
:1048C00047F601010620FEF7E5FC0821DFF89C070A
:1048D00001F091F81420DFF8981708600020DFF845
:1048E0009417087001204549087086E0DFF88007BA
:1048F0000068002840F0818097480078002803D1A4
:104900009648007800280BD0DFF86C07B0F900104B
:10491000DFF86407B0F900405FF0FF30444349E03E
:10492000DFF850070078002805D0022823D012D3E2
:10493000032830D03EE0DFF84007B0F900105FF008
:10494000FF304143DFF83007B0F900400120DFF8C5
:10495000242710702EE0DFF82007B0F90010DFF8F0
:104960001807B0F900405FF0FF3044430220DFF841
:10497000042710701EE0DFF80007B0F900105FF0A8
:10498000FF304143DFF8F006B0F900400320DFF8C4
:10499000E42610700EE0DFF8E006B0F90010DFF852
:1049A000D806B0F900405FF0FF3044430020DFF844
:1049B000C4261070DFF8B0360A0092B2002103203E
:1049C000FEF768FC0821DFF8A00600F0FDFFDFF825
:1049D0009C36220092B200210320FEF75BFC0821E6
:1049E000DFF8880601F007F8DFF8900601784FF449
:1049F0007A704143DFF87806016010BD241400206E
:104A00002214002080B5DFF878060078002838D01E
:104A1000DFF870060078002833D0DFF87C0C0068DF
:104A200000282ED1DFF86006007800280BD1DFF8CF
:104A30005C06B0F900105FF0FF3041430120DFF861
:104A40004826107007E0DFF84406B0F90010002097
:104A5000DFF834261070DFF810360A0092B2002119
:104A60000320FEF717FC0821DFF8FC0500F0ACFF7F
:104A7000DFF8100601784FF47A704143DFF8180C24
:104A8000016001BD1813002080B5DFF8100C00781C
:104A9000002838D0DFF8080C0078002833D0DFF881
:104AA000100C006800282ED1DFF8F80B00780028E1
:104AB0000BD1DFF8F40BB0F900105FF0FF30414389
:104AC0000120DFF8E02B107007E0DFF8DC0BB0F915
:104AD00000100020DFF8CC2B1070DFF890350A00B2
:104AE00092B200210320FEF7D5FB0821DFF87C05F8
:104AF00000F081FFDFF8A80B01784FF47A70414392
:104B0000DFF8AC0B016001BD2614002080130020EB
:104B1000301400202C130020AA1300202B14002096
:104B20002E140020BC130020BE1300203D140020D2
:104B3000F41000203E140020701300204A140020BE
:104B40004B140020511400204E1400204714002064
:104B50003C14002046140020431400204814002078
:104B60001B0000201C00002044140020C0B20028BC
:104B700013D0022800F0938050D3042800F0118154
:104B8000C0F0CE80062800F08E81C0F04B8108284E
:104B900000F00B82C0F0C88147E2DFF8100B00780C
:104BA00010F0FE00DFF8041B0870DFF8000B00783F
:104BB00010F0FD00DFF8F41A0870DFF8F00A007852
:104BC00010F0FB00DFF8E41A0870DFF8E00A007864
:104BD00050F00800DFF8D41A0870DFF8D00A007827
:104BE00010F0EF00DFF8C41A0870DFF8C00A007890
:104BF00050F02000DFF8B41A0870DFF8B00A00782F
:104C000010F0BF00DFF8A41A0870DFF8A00A0078DF
:104C100050F08000DFF8941A087006E2DFF88C0A82
:104C2000007850F00100DFF8841A0870DFF87C0A81
:104C3000007810F0FD00DFF8741A0870DFF86C0AD5
:104C4000007810F0FB00DFF8641A0870DFF85C0AE7
:104C5000007810F0F700DFF8541A0870DFF84C0AFB
:104C6000007810F0EF00DFF8441A0870DFF83C0A13
:104C7000007850F02000DFF8341A0870DFF82C0AB2
:104C8000007810F0BF00DFF8241A0870DFF81C0A63
:104C9000007850F08000DFF8141A0870C5E1DFF8E2
:104CA0000C0A007810F0FE00DFF8001A0870DFF838
:104CB000FC09007810F0FD00DFF8F0190870DFF84B
:104CC000EC09007810F0FB00DFF8E0190870DFF85D
:104CD000DC09007850F00800DFF8D0190870DFF820
:104CE000CC09007810F0EF00DFF8C0190870DFF889
:104CF000BC09007850F02000DFF8B0190870DFF828
:104D0000AC09007810F0BF00DFF8A0190870DFF8D8
:104D10009C09007850F08000DFF89019087084E159
:104D2000DFF88809007850F00100DFF8801908707A
:104D3000DFF87809007810F0FD00DFF870190870CE
:104D4000DFF86809007810F0FB00DFF860190870E0
:104D5000DFF85809007810F0F700DFF850190870F4
:104D6000DFF84809007810F0EF00DFF8401908700C
:104D7000DFF83809007850F02000DFF830190870AB
:104D8000DFF82809007810F0BF00DFF8201908705C
:104D9000DFF81809007850F08000DFF8101908706B
:104DA00043E1DFF80809007810F0FE00DFF8FC1896
:104DB0000870DFF8F808007810F0FD00DFF8EC1854
:104DC0000870DFF8E808007810F0FB00DFF8DC1866
:104DD0000870DFF8D808007850F00800DFF8CC1829
:104DE0000870DFF8C808007850F01000DFF8BC1831
:104DF0000870DFF8B808007850F02000DFF8AC1831
:104E00000870DFF8A808007850F04000DFF89C1820
:104E10000870DFF89808007810F07F00DFF88C1831
:104E2000087002E1DFF88408007810F0FE00DFF877
:104E30007C180870DFF87408007810F0FD00DFF8C7
:104E40006C180870DFF86408007810F0FB00DFF8D9
:104E50005C180870DFF85408007850F00800DFF89C
:104E60004C180870DFF84408007850F01000DFF8A4
:104E70003C180870DFF83408007850F02000DFF8A4
:104E80002C180870DFF82408007850F04000DFF894
:104E90001C180870DFF81408007810F07F00DFF8A5
:104EA0000C180870C1E0DFF80408007850F0010029
:104EB000DFF8F8170870DFF8F407007810F0FD004D
:104EC000DFF8E8170870DFF8E407007850F0040016
:104ED000DFF8D8170870DFF8D407007810F0F70073
:104EE000DFF8C8170870DFF8C407007810F0EF008B
:104EF000DFF8B8170870DFF8B407007850F020002A
:104F0000DFF8A8170870DFF8A407007810F0BF00DA
:104F1000DFF898170870DFF89407007810F07F002A
:104F2000DFF88817087080E0DFF88007007810F05D
:104F3000FE00DFF878170870DFF87007007810F0CF
:104F4000FD00DFF868170870DFF86007007810F0E0
:104F5000FB00DFF858170870DFF85007007850F0B2
:104F60000800DFF848170870DFF84007007850F0B5
:104F70001000DFF838170870DFF83007007850F0BD
:104F80002000DFF828170870DFF82007007850F0BD
:104F90004000DFF818170870DFF81007007810F0ED
:104FA0007F00DFF8081708703FE0DFF8000700789F
:104FB00050F00100DFF8F4160870DFF8F006007812
:104FC00050F00200DFF8E4160870DFF8E006007821
:104FD00050F00400DFF8D4160870DFF8D00600782F
:104FE00010F0F700DFF8C4160870DFF8C00600788C
:104FF00010F0EF00DFF8B4160870DFF8B0060078A4
:1050000050F02000DFF8A4160870DFF8A006007842
:1050100050F04000DFF894160870DFF89006007832
:1050200010F07F00DFF884160870704750140020DD
:105030004914002033140020B21300203214002041
:105040003414002045140020B41300203F14002025
:105050004014002035140020201000204C140020A3
:10506000C01000202314002090110020F81100200F
:105070006813002025140020A6130020211400200E
:105080001D1400201B1400201F140020A213002058
:10509000DFF820060068C00708D5DFF81C060068A6
:1050A00040084000DFF81016086007E0DFF8080647
:1050B000006850F00100DFF800160860DFF8F40522
:1050C0000068800708D5DFF8F005006830F00200BE
:1050D000DFF8E415086007E0DFF8DC05006850F051
:1050E0000200DFF8D4150860DFF8C8050068400743
:1050F00008D5DFF8C405006830F00400DFF8B81503
:10510000086007E0DFF8B005006850F00400DFF841
:10511000A8150860DFF89C050068000708D5DFF8CF
:105120009805006830F00800DFF88C15086007E08B
:10513000DFF88405006850F00800DFF87C1508608F
:10514000DFF870050068C00608D5DFF86C05006858
:1051500030F01000DFF86015086007E0DFF8580550
:10516000006850F01000DFF850150860DFF84405C3
:105170000068800608D5DFF84005006830F02000A0
:10518000DFF83415086007E0DFF82C05006850F000
:105190002000DFF824150860DFF8180500684006D5
:1051A00008D5DFF81405006830F04000DFF8081576
:1051B000086007E0DFF80005006850F04000DFF805
:1051C000F8140860DFF8EC040068000608D5DFF882
:1051D000E804006830F08000DFF8DC14086007E0C5
:1051E000DFF8D404006850F08000DFF8CC140860C9
:1051F000DFF8C0040068C00508D5DFF8BC0400680B
:1052000030F48070DFF8B014086007E0DFF8A8041D
:10521000006850F48070DFF8A0140860DFF8940490
:105220000068800508D5DFF89004006830F400704D
:10523000DFF88414086007E0DFF87C04006850F4AD
:105240000070DFF874140860DFF868040068400537
:1052500008D5DFF86404006830F48060DFF8581483
:10526000086007E0DFF85004006850F48060DFF861
:1052700048140860DFF83C040068000508D5DFF832
:105280003804006830F40060DFF82C14086007E090
:10529000DFF82404006850F40060DFF81C14086094
:1052A000DFF810040068C00408D5DFF80C040068BB
:1052B00030F48050DFF80014086007E0DFF8F803EE
:1052C000006850F48050DFF8F0130860DFF8E40362
:1052D0000068800408D5DFF8E003006830F400506F
:1052E000DFF8D413086007E0DFF8CC03006850F45F
:1052F0000050DFF8C4130860DFF8B803006840040A
:1053000008D5DFF8B403006830F48040DFF8A81354
:10531000086007E0DFF8A003006850F48040DFF881
:1053200098130860DFF88C030068000408D5DFF8E4
:105330008803006830F40040DFF87C13086007E061
:10534000DFF87403006850F40040DFF86C13086065
:10535000DFF868030068000408D5DFF85C03006824
:1053600030F48030DFF85013086007E0DFF84803BE
:10537000006850F48030DFF840130860DFF8400325
:105380000068C00708D5DFF83003006830F400304B
:10539000DFF82413086007E0DFF81C03006850F40E
:1053A0000030DFF814130860DFF81403006880078A
:1053B00008D5DFF80403006830F48020DFF8F81225
:1053C000086007E0DFF8F002006850F48020DFF8A2
:1053D000E8120860DFF8E4020068000708D5DFF88B
:1053E000D802006830F40020DFF8CC12086007E033
:1053F000DFF8C402006850F40020DFF8BC12086037
:10540000DFF8B8020068400708D5DFF8AC02006892
:1054100030F48010DFF8A012086007E0DFF898028F
:10542000006850F48010DFF890120860DFF89402F2
:105430000068C00408D5DFF88002006830F400106E
:10544000DFF87412086007E0DFF86C02006850F4BF
:105450000010DFF864120860DFF86802006880045A
:1054600008D5DFF85402006830F48000DFF84812F5
:10547000086007E0DFF84002006850F48000DFF8C1
:1054800038120860DFF838020068C00408D5DFF879
:105490002802006830F40000DFF81C12086007E002
:1054A000DFF81402006850F40000DFF80C12086006
:1054B000DFF80C020068800408D5DFF8FC01006802
:1054C00030F08070DFF8F011086007E0DFF8E801E5
:1054D000006850F08070DFF8E0110860DFF8DC0150
:1054E0000068400408D5DFF8D001006830F0007093
:1054F000DFF8C411086007E0DFF8BC01006850F075
:105500000070DFF8B4110860DFF8B00100688004B3
:1055100008D5DFF8A401006830F08060DFF898114A
:10552000086007E0DFF89001006850F08060DFF865
:1055300088110860DFF884010068C00408D5DFF82E
:105540007801006830F00060DFF86C11086007E057
:10555000DFF86401006850F00060DFF85C1108605B
:10556000DFF860010068C00608D5DFF84C0100686C
:1055700030F08050DFF84011086007E0DFF83801B4
:10558000006850F08050DFF830110860DFF830011B
:105590000068400708D5DFF82001006830F00050AF
:1055A000DFF81411086007E0DFF80C01006850F024
:1055B0000050DFF804110860DFF80C010068C00437
:1055C00008D5DFF8F400006830F08040DFF8E8101C
:1055D000086007E0DFF8E000006850F08040DFF886
:1055E000D8100860DFF8E0000068000508D5DFF893
:1055F000C800006820F00040DFF8BC10086007E039
:10560000DFF8B400006850F00040DFF8AC1008602C
:10561000DFF8B4000068400508D5DFF8B000007876
:1056200010F0FE00DFF8A410087007E0DFF89C001F
:10563000007850F00100DFF894100870DFF888005F
:105640000068800508D5DFF88400007810F0FD00C0
:10565000DFF87810087007E0DFF87000007850F08D
:105660000200DFF868100870DFF8580000680007D3
:1056700008D5DFF85800007810F0FB00DFF84C1078
:10568000087007E0DFF84400007850F00400DFF80D
:105690003C10087070470000601300201E140020AA
:1056A0001C14002020140020A4130020BA13002092
:1056B000641300200C1801405C1300200C140140FE
:1056C0000C0C01400C1001400C1C01401714002070
:1056D00010B50400E4B220001449096F8847E4B211
:1056E00020001249496F8847E4B220000F49896FB2
:1056F0008847E4B220000D49C96F884710BD0000FB
:1057000010B50400E4B220000849D1F880108847A1
:10571000E4B220000549D1F884108847E4B22000A3
:105720000249D1F88810884710BD000020100020E1
:1057300070B4002300220025002600240022CB782C
:1057400013F00F03CA78D20601D58A7813430A787A
:10575000120621D0046800251BE0CA78482A17D118
:105760000122AA40026113E00126AE400A883240BD
:10577000B2420DD1AE000F22B240944313FA06F6A6
:1057800026433400CA78282AE7D10122AA40426180
:105790006D1C082DE8D304600A88B2F5807F27DBF2
:1057A0004468002521E0012215F1080612FA06F6E8
:1057B0000A883240B24217D1AE000F22B240944361
:1057C00013FA06F626433400CA78282A04D10126A3
:1057D00015F1080296404661CA78482A04D101268C
:1057E00015F10802964006616D1C082DDBD344605C
:1057F00070BC704702000020906889B2084201D056
:10580000012000E00020C0B2704789B201617047FA
:1058100089B241617047FEE700B585B05FF4E130C1
:1058200000900020ADF804000020ADF80600002034
:10583000ADF808000020ADF80C000C20ADF80A000F
:105840006946784801F082FE012240F225517548F0
:1058500001F0ECFE002240F22771724801F0E6FEF2
:105860000121704801F0D4FE4FF461400090002007
:10587000ADF804000020ADF806000020ADF80800E7
:105880000020ADF80C000C20ADF80A00694666480F
:1058900001F05CFE012240F22551634801F0C6FE92
:1058A000002240F22771604801F0C0FE01215E48ED
:1058B00001F0AEFE4FF4614000900020ADF804000E
:1058C0000020ADF806000020ADF808000020ADF87B
:1058D0000C000C20ADF80A006946544801F036FE71
:1058E000012240F22551514801F0A0FE002240F271
:1058F00027714E4801F09AFE01214C4801F088FEC4
:105900004FF4165000900020ADF804000020ADF8D0
:1059100006000020ADF808000020ADF80C000C20B7
:10592000ADF80A006946424801F010FE012240F23B
:1059300025513F4801F07AFE002240F227713C4891
:1059400001F074FE01213A4801F062FE05B000BD8D
:1059500070B504000D0000260020364908702000B4
:1059600001F0D8FE801C34490870002604E0A05DD8
:10597000324931448870761C200001F0CBFE86420B
:10598000F5D33B202D4908702C484570012240F288
:105990002771244801F04AFE70BD10B50022002294
:1059A000244B1A70244A1170002203E0835C234CBC
:1059B000A354521CC9B28A42F8DB012240F227717B
:1059C000184801F033FE10BD10B5002200221C4B18
:1059D0001A701C4A1170002203E0835C1A4CA35415
:1059E000521CC9B28A42F8DB012240F227710E48EC
:1059F00001F01CFE10BD10B500220022134B1A70DE
:105A0000134A1170002203E0835C124CA354521C11
:105A1000C9B28A42F8DB012240F22771034801F043
:105A200005FE10BD00380140004400400048004021
:105A3000004C004052140020531400202811002074
:105A4000591400205A1400209011002060140020E6
:105A500061140020F811002080B5DFF88C05007873
:105A6000002804D10120DFF88015087003E0002031
:105A7000DFF874150870DFF874050088002845D039
:105A80000121DFF86C05FFF7B5FE002825D0DFF80F
:105A900064050078002806D1DFF85C050078401C1A
:105AA000DFF854150870DFF85005007803282DDB67
:105AB000DFF840050078002806D1DFF840050088AF
:105AC000401CDFF8381508800120DFF82815087021
:105AD0000020DFF82C15087018E0DFF818050078B2
