:020000040800F2
:100000000004002061180108511101085311010872
:10001000551101085711010859110108000000008D
:100020000000000000000000000000005B1101085B
:100030005D110108000000005F1101086111010855
:10004000BFEA0008BFEA0008BFEA0008691101081A
:10005000BFEA0008BFEA00086B110108BFEA000808
:10006000BFEA00087F110108BFEA00087516010801
:10007000BFEA0008BFEA0008BFEA0008BFEA0008BC
:10008000BFEA0008BFEA0008BFEA000881110108C2
:1000900083110108BFEA0008BFEA000885110108C2
:1000A000BFEA000887110108BFEA0008BFEA00089C
:1000B00095110108A3110108B1110108BFEA000858
:1000C000BFEA0008BFEA0008BFEA0008BFEA00086C
:1000D000C1110108C31101081D1301080D14010805
:1000E0005916010871160108BFEA0008BFEA0008A6
:1000F000B3110108BFEA0008BFEA0008BFEA000820
:10010000BFEA000873160108BFEA0008BFEA00084A
:10011000FB140108BFEA0008BFEA0008BFEA0008B4
:10012000BFEA0008BFEA0008BFEA0008BFEA00080B
:1001300040B2002805D40901DFF8782A40B21154F2
:1001400008E00901DFF83C2D40B210F00F00104428
:1001500000F8041C704780B5411EB1F1807F01D3C7
:10016000012011E0401EDFF8501A08600F215FF0F7
:10017000FF30FFF7DDFF0020DFF8081B08600720D5
:10018000DFF80C1D0860002002BD0020DFF8081D0C
:100190000870DFF8F40ADFF8E81BDFF8FC2C1278AF
:1001A00041F82200DFF8F00C0078401CDFF8E81C72
:1001B0000870DFF8F80ADFF8C81BDFF8DC2C1278CB
:1001C00041F82200DFF8D00C0078401CDFF8C81C92
:1001D0000870DFF8FC0ADFF8A81BDFF8BC2C1278E7
:1001E00041F82200DFF8B00C0078401CDFF8A81CB2
:1001F0000870DFF8000BDFF8881BDFF89C2C127802
:1002000041F82200DFF8900C0078401CDFF8881CD1
:100210000870DFF8080BDFF8681BDFF87C2C127819
:1002200041F82200DFF8700C0078401CDFF8681CF1
:100230000870DFF8100BDFF8481BDFF85C2C127831
:1002400041F82200DFF8500C0078401CDFF8481C11
:100250000870DFF8F40ADFF8281BDFF83C2C12786E
:1002600041F82200DFF8300C0078401CDFF8281C31
:100270000870DFF8100BDFF8081BDFF81C2C127871
:1002800041F82200DFF8100C0078401CDFF8081C51
:100290000870DFF8F40ADFF8E81ADFF8FC2B1278B0
:1002A00041F82200DFF8F00B0078401CDFF8E81B73
:1002B0000870DFF80C0BDFF8C81ADFF8DC2B1278B7
:1002C00041F82200DFF8D00B0078401CDFF8C81B93
:1002D0000870DFF8F00ADFF8A81ADFF8BC2B1278F4
:1002E00041F82200DFF8B00B0078401CDFF8A81BB3
:1002F0000870DFF8F80ADFF8881ADFF89C2B12780C
:1003000041F82200DFF8900B0078401CDFF8881BD2
:100310000870DFF8FC0ADFF8681ADFF87C2B127827
:1003200041F82200DFF8700B0078401CDFF8681BF2
:100330000870DFF8000BDFF8481ADFF85C2B127842
:1003400041F82200DFF8500B0078401CDFF8481B12
:100350000870DFF8080BDFF8281ADFF83C2B12785A
:1003600041F82200DFF8300B0078401CDFF8281B32
:100370000870DFF8140BDFF8081ADFF81C2B12786E
:1003800041F82200DFF8100B0078401CDFF8081B52
:100390000870DFF8F80ADFF8E819DFF8FC2A1278AD
:1003A00041F82200DFF8F00A0078401CDFF8E81A74
:1003B0000870DFF8E00ADFF8C819DFF8DC2A1278E5
:1003C00041F82200DFF8D00A0078401CDFF8C81A94
:1003D0000870DFF8C80ADFF8A819DFF8BC2A12781D
:1003E00041F82200DFF8B00A0078401CDFF8A81AB4
:1003F0000870DFF8D00ADFF88819DFF89C2A127835
:1004000041F82200DFF8900A0078401CDFF8881AD3
:100410000870DFF8D80ADFF86819DFF87C2A12784C
:1004200041F82200DFF8700A0078401CDFF8681AF3
:100430000870DFF8E00ADFF84819DFF85C2A127864
:1004400041F82200DFF8500A0078401CDFF8481A13
:100450000870DFF8C40ADFF82819DFF83C2A1278A0
:1004600041F82200DFF8300A0078401CDFF8281A33
:100470000870DFF8C80ADFF80819DFF81C2A1278BC
:1004800041F82200DFF8100A0078401CDFF8081A53
:100490000870DFF8CC0ADFF8E818DFF8FC291278DA
:1004A00041F82200DFF8F0090078401CDFF8E81975
:1004B0000870DFF8B00ADFF8C818DFF8DC29127816
:1004C00041F82200DFF8D0090078401CDFF8C81995
:1004D0000870DFF8940ADFF8A818DFF8BC29127852
:1004E00041F82200DFF8B0090078401CDFF8A819B5
:1004F0000870DFF8BC0ADFF88818DFF89C2912784A
:1005000041F82200DFF890090078401CDFF88819D4
:100510000870DFF8A00ADFF86818DFF87C29127885
:1005200041F82200DFF870090078401CDFF86819F4
:100530000870DFF8C40ADFF84818DFF85C29127881
:1005400041F82200DFF850090078401CDFF8481914
:100550000870DFF8C80ADFF82818DFF83C2912789D
:1005600041F82200DFF830090078401CDFF8281934
:100570000870DFF8AC0ADFF80818DFF81C291278D9
:1005800041F82200DFF810090078401CDFF8081954
:100590000870DFF8D40ADFF8E817DFF8FC281278D3
:1005A00041F82200DFF8F0080078401CDFF8E81876
:1005B0000870DFF8B80ADFF8C817DFF8DC2812780F
:1005C00041F82200DFF8D0080078401CDFF8C81896
:1005D0000870DFF8C00ADFF8A817DFF8BC28127827
:1005E00041F82200DFF8B0080078401CDFF8A818B6
:1005F0000870704780B5DFF8E41A097800290DD03B
:10060000012805D10121DFF84C0C0EF055FA29E044
:100610000121DFF8400C0EF04CFA23E0012817D13D
:100620000121DFF8300C0EF047FA0221DFF8240C2C
:100630000EF03FFA0120DFF8CC1A08704EF6602069
:10064000DFF8E81A08800120DFF8E41A087009E0F2
:100650000121DFF8000C0EF02CFA0221DFF8F40B78
:100660000EF027FA01BD80B5DFF8701A097800296D
:100670000DD0012805D10221DFF8D80B0EF01CFAAD
:1006800029E00221DFF8CC0B0EF013FA23E0012859
:1006900017D10121DFF8BC0B0EF00BFA0221DFF8B5
:1006A000B40B0EF009FA0220DFF8581A08704EF663
:1006B0006020DFF8781A08800120DFF8741A0870CB
:1006C00009E00121DFF88C0B0EF0F3F90221DFF8CD
:1006D000840B0EF0EEF901BD80B5DFF8280A007832
:1006E000012859D1DFF8480A0078002805D00228EF
:1006F00035D003D3032843D0ACE0ABE0DFF82C0ABD
:100700000088002811D0DFF8900A0078C0F340106C
:10071000C0B2002822D041F28830DFF8101A0880D9
:100720000220DFF80C1A087018E0DFF8700A007871
:1007300000280FD1E120DFF8681A08800220DFF8D6
:10074000641A08707D20DFF8601A08800220DFF844
:100750005C1A08700320DFF8D81908707AE0DFF817
:10076000CC090088002875D10020FFF743FF002046
:10077000DFF8BC1908700020DFF88819087069E0FC
:100780000020FFF737FF0020DFF8A41908700520CC
:10079000DFF8701908705DE0DFF86809007802285A
:1007A00058D1DFF88C090078002805D0022835D010
:1007B00003D3032843D04DE04CE0DFF870090088F4
:1007C000002811D0DFF8D0090078C0F38010C0B243
:1007D000002822D041F28830DFF85019088002202A
:1007E000DFF84C19087018E0DFF8B009007800282D
:1007F0000FD1E120DFF8A81908800220DFF8A41942
:1008000008707D20DFF8A01908800220DFF89C190D
:1008100008700320DFF8181908701BE0DFF80C09D6
:100820000088002816D10020FFF71DFF0020DFF808
:10083000001908700020DFF8CC1808700AE00020CA
:10084000FFF711FF0020DFF8E81808700520DFF837
:10085000B418087001BD80B5DFF880180978002948
:100860000FD0012806D14FF48071DFF8A80A0EF0EE
:1008700023F92EE04FF48071DFF8980A0EF019F991
:1008800027E001281AD14FF48071DFF8880A0EF0B2
:1008900010F98021DFF87C0A0EF00BF94FF480711B
:1008A000DFF8700A0EF008F942F21070DFF8681AEB
:1008B00008800120DFF8641A08700AE04FF48071A4
:1008C000DFF8500A0EF0F5F88021DFF8480A0EF044
:1008D000F0F801BD80B5DFF80418097800290DD0C3
:1008E000012805D18021DFF82C0A0EF0E5F82CE074
:1008F0008021DFF8200A0EF0DCF826E0012819D16B
:100900008021DFF8100A0EF0D4F84FF48071DFF880
:10091000040A0EF0CEF88021DFF8F8090EF0CCF8CA
:1009200042F21070DFF8F01908800120DFF8EC19AE
:1009300008700AE04FF48071DFF8D8090EF0B9F8BA
:100940008021DFF8D0090EF0B4F801BD80B5DFF8E2
:10095000CC090078002802D0012801D014E013E06F
:10096000DFF8B409008800280ED14FF48071DFF859
:10097000E4080EF09EF88021DFF8D8080EF099F810
:100980000020DFF89819087001BD80B5DFF84C171A
:10099000097800290DD0012805D14021DFF874091C
:1009A0000EF08AF82AE04021DFF868090EF081F89D
:1009B00024E0012818D14021DFF858090EF079F819
:1009C0002021DFF850090EF074F84021DFF84409C7
:1009D0000EF072F80120DFF84819087042F210702A
:1009E000DFF84019088009E04021DFF828090EF0FF
:1009F00060F82021DFF81C090EF05BF801BD80B51E
:100A0000DFF8D816097800290DD0012805D120215A
:100A1000DFF800090EF050F82AE02021DFF8F40892
:100A20000EF047F824E0012818D12021DFF8E4086F
:100A30000EF03FF84021DFF8DC080EF03AF82021F4
:100A4000DFF8D0080EF038F80120DFF8D41808706D
:100A500042F21070DFF8CC18088009E04021DFF87E
:100A6000B4080EF026F82021DFF8A8080EF021F8CF
:100A700001BD80B5DFF8A8080078002802D0012861
:100A800001D013E012E0DFF89C08008800280DD1A7
:100A90002021DFF8C0070EF00CF84021DFF8B40782
:100AA0000EF007F80020DFF87818087001BD80B557
:100AB000DFF82816097800290FD0012806D14FF455
:100AC0000061DFF850080DF0F7FF30E04FF40061EF
:100AD000DFF840080DF0EDFF29E001281BD14FF4AD
:100AE0000061DFF830080DF0E4FF4FF48051DFF8CB
:100AF00024080DF0DEFF4FF40061DFF818080DF058
:100B0000DBFF0120DFF8B819087046F2A810DFF803
:100B1000B41908800BE04FF40061DFF8F8070DF01E
:100B2000C8FF4FF48051DFF8EC070DF0C2FF01BDA4
:100B300080B5DFF8A815097800290FD0012806D163
:100B40004FF48051DFF8CC070DF0B6FF30E04FF4E2
:100B50008051DFF8C0070DF0ACFF29E001281BD160
:100B60004FF48051DFF8AC070DF0A3FF4FF40061A4
:100B7000DFF8A0070DF09DFF4FF48051DFF89407D8
:100B80000DF09AFF0120DFF83819087046F2A8101E
:100B9000DFF8301908800BE04FF40061DFF87407CC
:100BA0000DF087FF4FF48051DFF868070DF081FFEB
:100BB00001BD000000E400E014E000E080B5DFF8D3
:100BC00000090078002805D0022829D003D3032883
:100BD00041D055E054E0DFF8EC08008800281ED131
:100BE000DFF8E4080068C00409D44FF4FA70DFF8B5
:100BF000D41808800220DFF8C818087003E000202D
:100C0000DFF8BC1808704FF48051DFF848060DF08B
:100C100050FF4FF40061DFF83C060DF04AFF2FE073
:100C2000DFF8A0080088002814D14FF48051DFF8C5
:100C300024060DF03EFF4FF40061DFF818060DF0BA
:100C40003BFF41F27070DFF87C1808800320DFF86A
:100C50007018087014E0DFF86C08008800280FD1C5
:100C60004FF48051DFF8EC050DF023FF4FF40061E5
:100C7000DFF8E0050DF01DFF0020DFF844180870D4
:100C800001BD000018E000E0F505000880B500286F
:100C900005D10421DFF87C060DF00BFF04E00421F0
:100CA000DFF870060DF008FF01BD000067060008C0
:100CB00080B5002805D10821DFF858060DF0F9FEAF
:100CC00004E00821DFF84C060DF0F6FE01BD00003F
:100CD0008D0C000880B5002805D11021DFF83406FE
:100CE0000DF0E7FE04E01021DFF828060DF0E4FE29
:100CF00001BD0000B10C000880B5002806D14FF4FA
:100D00000071DFF810060DF0D4FE05E04FF400711D
:100D1000DFF800060DF0D0FE01BD0000D50C000884
:100D200080B5002806D14FF48061DFF8E8050DF0AA
:100D3000C0FE05E04FF48061DFF8D8050DF0BCFE81
:100D400001BD0000FF0900088B09000880B50028DC
:100D50000AD14FF40051DFF8FC040DF0AAFE002088
:100D6000DFF8D419087009E04FF40051DFF8E4040B
:100D70000DF0A2FE0120DFF8C019087001BD0000CF
:100D800080100020D50800085708000880B500280A
:100D90000AD14FF48041DFF8BC040DF08AFE002038
:100DA000DFF89819087009E04FF48041DFF8A404D7
:100DB0000DF082FE0120DFF88419087001BD0000EB
:100DC000F90C0008210D000880B5002806D14FF469
:100DD0000041DFF840050DF06CFE05E04FF40041E6
:100DE000DFF830050DF068FE01BD0000AF0A000815
:100DF00080B5002805D11021DFF8980B0DF059FEC1
:100E000004E01021DFF88C0B0DF056FE01BD000050
:100E1000310B000880B5002805D10421DFF8780BDC
:100E20000DF047FE04E00421DFF86C0B0DF044FEEA
:100E300001BD00004D0D000880B5002806D14FF41B
:100E40008051DFF8580B0DF034FE05E04FF480516F
:100E5000DFF8480B0DF030FE01BD00008D0D0008DD
:100E600080B5002806D14FF40061DFF8300B0DF09B
:100E700020FE05E04FF40061DFF8200B0DF01CFEB2
:100E800001BD000018ED00E0C90D0008A10E00082A
:100E900010E000E0410F0008CA1500206D0F0008A7
:100EA00080B5002806D14FF40041DFF8F40A0DF0B8
:100EB00000FE05E04FF40041DFF8E40A0DF0FCFD10
:100EC00001BD0000B90F000880B5002806D14FF41D
:100ED0008061DFF8C80A0DF0ECFD05E04FF4806199
:100EE000DFF8B80A0DF0E8FD01BD0000FD0F0008B5
:100EF00080B5002806D14FF40071DFF8A00A0DF08C
:100F0000D8FD05E04FF40071DFF8900A0DF0D4FD34
:100F100001BD0000251000087110000880B50028F0
:100F200005D10821DFF86C0A0DF0C3FD04E00821AB
:100F3000DFF8600A0DF0C0FD01BD00009910000847
:100F400080B5002805D10121DFF84C0A0DF0B1FD74
:100F500004E00121DFF8400A0DF0AEFD01BD000004
:100F6000E11000080911000835110008002808D117
:100F70000020DFF8301A08700020DFF8A41B08708A
:100F800014E0DFF8240ADFF8241A097810F81100B9
:100F9000DFF8101A0870DFF8100ADFF8101A097865
:100FA00000EB41004078DFF8781B087070470000C4
:100FB00057110008F10D000880B500280DD1082157
:100FC000DFF8DC090DF075FDDFF8580B007810F044
:100FD000FE00DFF8501B08700CE00821DFF8C009A4
:100FE0000DF06AFDDFF83C0B007850F00100DFF8EF
:100FF000341B087001BD0000150E000880B50028E4
:1010000005D10421DFF898090DF053FD04E0042117
:10101000DFF88C090DF050FD01BD0000390E00080D
:10102000610E000880B500280ED14FF48051DFF822
:1010300064090DF03EFDDFF8EC0A007810F0FD00C9
:10104000DFF8E01A08700DE04FF48051DFF8440932
:101050000DF032FDDFF8CC0A007850F00200DFF826
:10106000C41A087001BD0000C90E0008F10E000886
:1010700080B5002806D14FF40051DFF818090DF0B3
:1010800018FD05E04FF40051DFF808090DF014FDDC
:1010900001BD00001D0F000880B500280ED14FF4DF
:1010A0008051DFF8F4080DF004FDDFF8780A0078CD
:1010B00010F0FB00DFF86C1A08700DE04FF480515F
:1010C000DFF8D4080DF0F8FCDFF8580A007850F08B
:1010D0000400DFF8501A087001BD00004616002019
:1010E00080B5002806D14FF40051DFF8AC080DF0B0
:1010F000E0FC05E04FF40051DFF89C080DF0DCFC4B
:1011000001BD0000B815002080B5002806D14FF4BD
:101110008041DFF88C080DF0CCFC05E04FF48041F5
:10112000DFF87C080DF0C8FC01BD0000141500209C
:10113000B915002080B5002806D14FF40051DFF822
:1011400060080DF0B6FC05E04FF40051DFF85008E0
:101150000DF0B2FC01BD80B5002806D14FF48051DE
:10116000DFF83C080DF0A5FC05E04FF48051DFF8F6
:1011700030080DF0A1FC01BD80B5DFF8AC090078A6
:10118000012807D0DFF8A409DFF8A419097850F87E
:101190002100804701BD00002A1500205F160020B5
:1011A0008A1500205A1600208C1500205B1600209E
:1011B000DFF88009DFF874190860DFF87C09DFF8D0
:1011C0006C194860DFF87409DFF860198860DFF88F
:1011D0007009DFF85819C860DFF86809DFF84C19A2
:1011E0000861DFF86409DFF844194861DFF85C0939
:1011F000DFF838198861DFF85809DFF83019C8615D
:10120000DFF85009DFF824190862DFF84C09DFF82D
:101210001C194862DFF84409DFF810198862DFF80A
:101220004009DFF80819C862DFF83809DFF8FC1850
:101230000863DFF83409DFF8F4184863DFF82C0995
:10124000DFF8E8188863DFF82809DFF8E018C863DA
:101250007047000000180140704780B5DFF8A00B10
:101260000078002806D0022817D004D3042840D0E4
:101270002ED34EE04DE0DFF8FC080088DFF8F818C8
:101280000988884204D20320DFF8741B087003E049
:101290000420DFF86C1B08703BE0DFF8DC080088F6
:1012A000801EDFF8D0180988884204DB0320DFF8AD
:1012B000501B08700BE0DFF8BC080088DFF8B81896
:1012C0000988884203D30420DFF8341B087020E02B
:1012D000DFF8A8080078002804D0DFF8A408007818
:1012E000002801D102F03AFD0220DFF8141B08703B
:1012F0000FE0DFF888080078012804D0DFF88008C4
:101300000078012801D102F0D5FC0220DFF8F01AA4
:10131000087001BD0018014016150020BA15002004
:10132000BB1500201815002080B5DFF8580800888C
:10133000002840F0C380DFF8C80A0078DFF84818BA
:101340000870DFF848080078C0B2C009C0B20028B1
:101350005DD0DFF834080078002808D0012807D0D5
:10136000052817D0062830D007283FD0A0E09FE0FE
:10137000DFF800080088DFF800180988884204D2E6
:101380000620DFF80418087003E00720DFF8F817DC
:1013900008708DE0DFF8DC070088DFF8DC170988CB
:1013A000884204D30720DFF8E01708700CE0DFF86C
:1013B000C8070088801EDFF8BC170988884203DB55
:1013C0000620DFF8C417087072E0DFF8B007007875
:1013D000002804D0DFF8A8070078002801D102F027
:1013E000BDFC0520DFF8A017087061E0DFF88C076E
:1013F0000078012804D0DFF888070078012801D19F
:1014000002F058FC0520DFF88017087050E0DFF884
:1014100078070078002806D0022817D004D30428C3
:101420003BD02ED344E043E0DFF848070088DFF8E4
:1014300048170988884204D20320DFF84C17087047
:1014400003E00420DFF84017087031E0DFF82407DC
:101450000088DFF824170988884204D30420DFF8C5
:10146000281708700CE0DFF810070088801EDFF8EE
:1014700004170988884203DB0320DFF80C17087083
:1014800016E0DFF880090078002801D102F08AFC1C
:101490000220DFF8F41608700AE0DFF86809007827
:1014A000012801D102F060FC0220DFF8DC16087090
:1014B000DFF8D4060078DFF84819087001BD000095
:1014C000BC1500201A1500200C18014080B5DFF86B
:1014D000B4060088002840F02D81DFF82409007848
:1014E000DFF824190870DFF8A4060078C0B2C0093C
:1014F000C0B200285DD0DFF810090078002808D0BD
:10150000012807D0032832D0042841D0052813D061
:101510000AE109E1DFF85C060088DFF85C1609885B
:10152000884204D20320DFF8E018087003E00420AA
:10153000DFF8D4180870F7E0DFF838060088DFF825
:1015400038160988884204D30420DFF8BC180870D4
:101550000CE0DFF824060088801EDFF818160988E2
:10156000884203DB0320DFF8A0180870DCE0DFF816
:101570000C060078002804D0DFF804060078002864
:1015800001D102F0EBFB0520DFF87C180870CBE0FE
:10159000DFF8E8050078012804D0DFF8E4050078DA
:1015A000012801D102F086FB0520DFF85C180870E5
:1015B000BAE0DFF85408007800280DD001280CD0DC
:1015C000022819D0032833D0052851D0062861D02D
:1015D000072800F0A080A7E0A6E0DFF898050088C3
:1015E000462804DA0320DFF82018087003E0022000
:1015F000DFF81418087097E0DFF8800500780128FC
:1016000004D0DFF87C050078012801D102F052FBFC
:1016100002F0C8FB0420DFF8F4170870DFF8F007C9
:10162000DFF8F01708600620DFF8DC1708707BE0B1
:10163000DFF8D0070078012801D102F095FB02F015
:101640008DFB0020DFF8D01708804FF4FA70DFF828
:10165000CC17088041F28830DFF8C41708800120D9
:10166000DFF8A81708700520DFF89C1708705BE00A
:10167000DFF80005008846280BDB02F01BFB02F0B8
:1016800091FB0420DFF8841708700620DFF8781734
:10169000087049E0DFF8DC040088462804DA0320FB
:1016A000DFF86417087035E0DFF858070078012884
:1016B0001CD1DFF8C0040088DFF8BC140988884218
:1016C00028D302F051FB0020DFF84C1708804FF4BC
:1016D000FA70DFF84817088041F28830DFF84017C9
:1016E00008800120DFF82417087013E0DFF81407E2
:1016F000007800280ED1DFF880040088801EDFF813
:1017000074140988884205DB02F04CFB0420DFF8E2
:10171000FC16087008E0DFF8FC060068002803D11A
:101720000120DFF8E4160870DFF8DC060078DFF847
:10173000D016087001BD00004F1600205016002082
:10174000704780B5DFF8B8060078DFF8101A087027
:10175000DFF838040078C0B2C009C0B200285DD0FC
:10176000DFF8F8090078002808D0012807D00228FF
:1017700017D0042830D005283FD004E103E1DFF87A
:10178000F4030088DFF8F0130988884204D20420AB
:10179000DFF8C819087003E00520DFF8C0190870E9
:1017A000F1E0DFF8D0030088DFF8CC130988884225
:1017B00004D30520DFF8A41908700CE0DFF8B803A3
:1017C0000088801EDFF8AC130988884203DB042000
:1017D000DFF888190870D6E0DFF8A0030078002849
:1017E00004D0DFF89C030078002801D102F0B6FA9B
:1017F0000220DFF868190870C5E0DFF88003007880
:10180000012804D0DFF878030078012801D102F024
:1018100051FA0220DFF844190870B4E0DFF83C09FF
:10182000007800280DD001280CD0022813D00328FE
:1018300023D004284ED006286ED0072800F08780D9
:10184000A1E0A0E00020DFF8181908700220DFF8FE
:101850000C19087097E0DFF81C030088DFF81813F4
:101860000988884204D20420DFF8F018087003E0E9
:101870000620DFF8E818087085E0BF480088801E61
:10188000BC490988884204DB0420DFF8D0180870BE
:101890001FE0B8480088B8490988884219D3DFF8A2
:1018A000C008007800280AD1DFF8B8080078DFF80F
:1018B000B01808700620DFF8A418087009E0AF48D7
:1018C0000078012803D0AE480078012801D102F049
:1018D000F1F958E0DFF82C050078012801D102F079
:1018E00043FAA6480078002811D1A54800780028BE
:1018F0000DD102F033FADFF868080078002806D02E
:10190000DFF85C080078401EDFF8541808700320E8
:10191000DFF84818087036E098480078012803D0AE
:1019200097480078012801D102F0C4F9DFF8D40407
:101930000078002801D102F035FA4EF66020DFF879
:10194000D41408600720DFF8141808701BE0DFF8D3
:10195000C404006800280BD087480088801E854991
:10196000098888420FDB0420DFF8F01708700AE0CE
:10197000DFF890040078012801D102F0F5F9032086
:10198000DFF8D8170870DFF8D4070078DFF8701494
:10199000087001BD00100140000C0140001C014016
:1019A000001401406B160020541801086D16002029
:1019B00080B5DFF84C04007800280AD0022823D034
:1019C00008D3042865D030D3062800F0948076D35D
:1019D000A5E0A4E00020DFF8C81A08700020DFF8B6
:1019E000C41A0870DFF8C00A007810F0FD00DFF8B4
:1019F000B81A087060480088DFF86C170880022069
:101A0000DFF8FC1308708AE05A480088DFF858179E
:101A10000988884204D20420DFF8E413087003E048
:101A20000520DFF8DC13087079E0DFF83C07008858
:101A3000801E50490988884204DB0420DFF8C01367
:101A400008700AE04B480088DFF81C1709888842B4
:101A500003D30520DFF8A8130870DFF8440A0078E4
:101A6000002815D1DFF83C0A0078012810D1DFF8F2
:101A7000380A0078C0F34000C0B2002808D1DFF86F
:101A80002C0A0068002803D10620DFF874130870C0
:101A900045E0DFF870030078012801D102F064F915
:101AA00036480078002803D035480078002801D156
:101AB00002F054F90320DFF8481308702FE02F4894
:101AC0000078012803D02E480078012801D102F0C7
:101AD000F1F8DFF8D0090078002808D1DFF8D00944
:101AE000DFF8C81908600120DFF8B8190870032072
:101AF000C349087013E0DFF8A809007800280BD16B
:101B0000DFF8A409007850F00200DFF89C19087093
:101B10000120DFF88C1908700320B949087001BD55
:101B20006C1600202E1500203F160020E811002022
:101B300023160020591200085B1200082913000820
:101B4000CD1400084117000843170008B119000818
:101B5000911B0008251E00086D2100086F21000858
:101B600085260008BD2400085928000877290008A8
:101B7000412900083A1500206415002013160020A2
:101B8000161600202C150020BF150020701500200F
:101B900080B59B480078DFF81C190870DFF8180939
:101BA0000078C0B2C009C0B2002800F09A80DFF807
:101BB00004090078002808D0012807D0052850D053
:101BC00006285FD0072823D06CE06BE00020DFF808
:101BD000D01808700020DFF8981A0870DFF8C808DD
:101BE000007810F0FD00DFF8C0180870DFF8840AF4
:101BF0000088DFF8841A0988884204D20520DFF8BB
:101C0000B418087003E00620DFF8A818087049E04F
:101C1000DFF8600A0088DFF8601A0988884212D36A
:101C2000DFF84C0A0078002808D1DFF88408DFF8D4
:101C30007C1808600120DFF8381A08700620DFF8E9
:101C4000741808700CE0DFF8300A0088801EDFF896
:101C5000241A0988884203DB0520DFF85818087029
:101C600020E0DFF8180A0078002804D0DFF8100A16
:101C70000078002801D102F071F80720DFF834184D
:101C800008700FE0DFF8F4090078012804D0DFF8CD
:101C9000F0090078012801D102F00CF80720DFF8E4
:101CA00014180870DFF8C8090078012840F0A180F6
:101CB000DFF8F8070068002840F09B80DFF8E007B5
:101CC0000078002840F09580DFF8DC07007850F0BD
:101CD0000200DFF8D41708700120DFF8C41708707D
:101CE00087E0DFF8D0070078002806D0022827D048
:101CF00004D304284AD03ED360E05FE00020DFF840
:101D0000A01708700020DFF868190870DFF898073E
:101D1000007810F0FD00DFF890170870DFF8540924
:101D20000088DFF854190988884204D20320DFF8BC
:101D30008417087003E00420DFF8781708703DE08E
:101D4000DFF830090088DFF830190988884204D3A9
:101D50000420DFF8601708700CE0DFF81C09008829
:101D6000801EDFF810190988884203DB0320DFF8A2
:101D70004417087022E023480078002801D102F0BF
:101D800011F80220DFF82C17087017E01D480078C2
:101D9000012801D101F0E8FFDFF8D408007800281D
:101DA00008D1DFF80C07DFF8041708600120DFF81E
:101DB000C01808700220DFF8FC160870DFF8B008C1
:101DC0000078012815D1DFF8E4060068002810D15A
:101DD000DFF8CC06007800280BD1DFF8CC060078BD
:101DE00050F00200DFF8C01608700120DFF8B016CE
:101DF0000870DFF8C00600780149087001BD0000D6
:101E00002416002019160020C01500203E160020C0
:101E1000E0930400941400207E150020801500201B
:101E20008215002080B5DFF8840B0078DFF8241AD3
:101E30000870DFF884060078C0B2C009C0B200287C
:101E400000F09A80DFF80C0A0078002808D00128FA
:101E500007D0042850D0052825D007285DD06CE095
:101E60006BE00020DFF8381608700020DFF800185B
:101E70000870DFF83406007810F0FD00DFF828164F
:101E80000870DFF8F0070088DFF8EC17098888424F
:101E900004D20420DFF8BC19087003E00720DFF843
:101EA000B419087049E0DFF8CC070088DFF8C817DC
:101EB0000988884212D3DFF8B8070078002808D1D3
:101EC000DFF8EC05DFF8E41508600120DFF8A01763
:101ED00008700720DFF87C1908700CE0DFF898071D
:101EE0000088801EDFF88C170988884203DB0420F5
:101EF000DFF86019087020E0DFF88007007800281C
:101F000004D0DFF87C070078002801D101F026FF1B
:101F10000520DFF8401908700FE0DFF8600700784F
:101F2000012804D0DFF858070078012801D101F01A
:101F3000C1FE0520DFF81C190870DFF834070078AF
:101F4000012840F00481DFF864050068002840F0B3
:101F5000FE80DFF84C050078002840F0F880DFF8BC
:101F60004805007850F00200DFF83C1508700120A9
:101F7000DFF82C150870EAE0DFF8D80800780028B0
:101F800009D0022818D007D3042840D023D306282C
:101F900074D05CD3C0E0BFE00020DFF80415087007
:101FA0000020DFF8CC160870DFF8FC04007810F091
:101FB000FD00DFF8F4140870DFF8B8060088462842
:101FC00004DA0420DFF88C18087003E00320DFF83F
:101FD00084180870A0E0DFF8A4060078012804D077
:101FE000DFF89C060078012801D101F063FE01F0C2
:101FF000D9FE0420DFF8B8190870DFF8B809DFF857
:10200000B81908600620DFF84C18087084E0DFF883
:10201000AC090078012801D101F0A6FE01F09EFE76
:102020000020DFF89C1908804FF4FA70DFF894194B
:10203000088041F28830DFF8901908800120DFF82D
:10204000701908700520DFF80C18087064E0DFF8DC
:1020500024060088462810DB01F02CFE01F0A2FEC9
:102060000420DFF84C190870DFF84809DFF8481938
:1020700008600620DFF8DC1708704DE0DFF83C0947
:10208000007801282AD1DFF8EC050088DFF8E81590
:102090000988884240D301F067FE0020DFF820194C
:1020A00008804FF4FA70DFF81C19088041F288307C
:1020B000DFF8141908800120DFF8F4180870DFF841
:1020C000B0050078002827D1DFF8E403DFF8DC133F
:1020D00008600120DFF8981508701DE0DFF8DC08C3
:1020E0000078002818D1DFF890050088801EDFF8FE
:1020F0008415098888420FDBDFF8780500884628B8
:1021000004DA0220DFF84C17087005E001F04AFEFF
:102110000420DFF89C180870DFF8540500780128C7
:1021200015D1DFF888030068002810D1DFF87003AC
:10213000007800280BD1DFF87003007850F002001F
:10214000DFF8641308700120DFF854130870DFF81B
:1021500004070078DFF85418087001BDC21500208C
:10216000C1150020221600201C150020704780B5E4
:10217000DFF838080078DFF8BC190870DFF838039A
:102180000078C0B2C009C0B2002800F09980DFF822
:10219000A4090078002808D002281DD006D30428FE
:1021A00053D02BD3052861D070E06FE00020DFF81A
:1021B000881908700020BA4908700020DFF8B014B0
:1021C0000870B948007810F0FD00B7490870022087
:1021D000DFF86019087059E0DFF898040088DFF82C
:1021E00098140988884204D20420DFF8481908703E
:1021F00003E00520DFF83C19087047E0DFF87404BD
:102200000088DFF874140988884210D3DFF860046E
:102210000078002806D1A648A44908600120DFF80C
:10222000501408700520DFF80C1908700CE0DFF876
:1022300048040088801EDFF83C140988884203DBCC
:102240000420DFF8F018087020E0DFF83004007890
:10225000002804D0DFF828040078002801D101F01C
:102260007DFD0320DFF8CC1808700FE0DFF80C04C8
:102270000078012804D0DFF808040078012801D193
:1022800001F018FD0320DFF8AC180870DFF8E00358
:102290000078012840F0FC8084480068002840F065
:1022A000F7807F480078002840F0F2807E48007870
:1022B00050F002007C490870012079490870E7E07D
:1022C000DFF87008007800280ED001280DD0022811
:1022D00021D0032831D0042862D0062800F0828063
:1022E000072800F0A480BEE0BDE00020DFF8481819
:1022F000087000206A4908700020DFF87413087025
:102300006948007810F0FD00674908700220DFF886
:1023100024180870A7E0DFF85C030088DFF8581382
:102320000988884204D20420DFF80818087003E006
:102330000620DFF80018087095E0DFF83C030088FD
:10234000801EDFF830130988884204DB0420DFF8A0
:10235000E417087023E0DFF81C030088DFF8181387
:10236000098888421BD3DFF8D007007800280AD1FB
:10237000DFF8C8070078DFF8C01708700620DFF81C
:10238000B41708700BE0DFF8F4020078012804D0DD
:10239000DFF8EC020078012801D101F08BFC62E04B
:1023A000DFF818060078012801D101F0DDFCB34800
:1023B0000078002811D1B248007800280DD101F032
:1023C000CDFCDFF874070078002806D0DFF8680736
:1023D0000078401EDFF8601708700320DFF85417FC
:1023E000087040E0A5480078012803D0A448007890
:1023F000012801D101F05EFCDFF8C005007800285B
:1024000001D101F0CFFC4EF66020DFF8AC1508607A
:1024100097480078002805D1254824490860012004
:10242000934908700720DFF80C1708701BE0DFF8ED
:102430008805006800280BD08F480088801E8D49D1
:10244000098888420FDB0420DFF8E81608700AE0EC
:10245000DFF868050078012801D101F085FC032030
:10246000DFF8D016087082480078012810D10F4894
:10247000006800280CD10A480078002808D10A48D2
:10248000007850F0020008490870012004490870E3
:10249000DFF8A0060078DFF81415087001BD000011
:1024A000BD150020C31500204416002098140020FC
:1024B000C0270900C41500207015002080B5DFF882
:1024C000EC040078DFF8EC1A0870DFF8E80A00780E
:1024D00000280FD0022813D00DD3042855D03DD3A7
:1024E000062800F0828066D3082800F0AF80C0F094
:1024F0009780B6E0B5E00220DFF8B81A0870B0E0C7
:102500005C4800885C490988884204D20420DFF8CE
:10251000A41A087021E0DFF8A00AB0F90000002832
:1025200017D0544800885449098888420CD3514830
:102530000088DFF8841AB1F90010884204DA072015
:10254000DFF8701A087008E00820DFF8681A0870D1
:1025500003E00520DFF85C1A087082E04648008836
:10256000801E44490988884204DB0420DFF8441AAD
:10257000087009E03F4800883F490988884203D332
:102580000520DFF8301A08706BE0DFF830040078BF
:10259000012801D101F0E8FB38480078002803D079
:1025A00037480078002801D101F0D8FB0320DFF87C
:1025B000041A087055E031480078012803D03048EB
:1025C0000078012801D101F075FBDFF8EC09B0F9C2
:1025D0000000002804D10320DFF8D819087003E0B8
:1025E0000720DFF8D01908703BE0DFF8CC09B0F91C
:1025F0000000801E1F490988884204DB0720DFF89D
:10260000B41908700BE01B480088DFF8AC19B1F969
:102610000010884203DB0820DFF89819087020E0DA
:1026200016480078012803D015480078012801D108
:1026300001F040FBDFF884030078002801D101F0AD
:10264000B1FB0620DFF86C1908700AE0DFF86C03B4
:102650000078012801D101F087FB0620DFF854192A
:102660000870DFF850090078DFF84013087001BDEA
:10267000BE1500203A150020641500201316002016
:102680001616002080B5DFF824030078DFF8C01AA2
:102690000870DFF8BC0A007800280FD0022813D099
:1026A0000DD304285ED042D3062800F08E8070D36C
:1026B000082800F0BE80C0F0A580C4E0C3E002207E
:1026C000DFF88C1A0870BEE0DFF8880A0088DFF8AF
:1026D000881A0988884204D20420DFF8741A087026
:1026E00024E0DFF8D408B0F9000000281AD0DFF8A1
:1026F000640A0088DFF8601A098888420DD3DFF881
:10270000540A0088DFF8B018B1F90010884204DAE2
:102710000720DFF83C1A087008E00820DFF8301ABC
:10272000087003E00520DFF8281A08708BE0DFF856
:10273000280A0088801EDFF81C1A0988884204DBFA
:102740000420DFF80C1A08700BE0DFF8080A008894
:10275000DFF8041A0988884203D30520DFF8F0194E
:10276000087070E095480078012801D101F0FCFA6A
:10277000DFF8E8090078002804D0DFF8E4090078E1
:10278000002801D101F0EAFA0320DFF8C41908702B
:1027900059E0DFF8C8090078012804D0DFF8C00943
:1027A0000078012801D101F085FADFF80C08B0F9B2
:1027B0000000002804D10320DFF89419087003E01A
:1027C0000720DFF88C1908703DE0DFF8EC07B0F95E
:1027D0000000801EDFF87C190988884204DB07208E
:1027E000DFF86C1908700CE0DFF868090088DFF882
:1027F000C817B1F90010884203DB0820DFF8501930
:10280000087020E0DFF854090078012804D0DFF8D0
:1028100050090078012801D101F04CFA674800788E
:10282000002801D101F0BEFA0620DFF82419087053
:1028300009E062480078012801D101F095FA0620EC
:10284000DFF80C190870DFF808090078574908709C
:1028500001BD0000C515002080B554480078DFF8A0
:1028600004190870DFF8FC080078002808D0022856
:102870000CD006D3042836D01AD305284AD059E004
:1028800058E00220DFF8DC18087053E0DFF8C408D5
:102890000088DFF8C4180988884204D20420DFF8D1
:1028A000C418087003E00520DFF8B818087041E08C
:1028B000DFF8A4080088801EDFF89818098888428D
:1028C00004DB0420DFF89C1808700BE0DFF88408B4
:1028D0000088DFF884180988884203D30520DFF8D0
:1028E0008418087026E035480078012801D101F0ED
:1028F0003BFADFF868080078002804D0DFF86008A9
:102900000078002801D101F029FA0320DFF85418DB
:1029100008700FE0DFF844080078012804D0DFF8E1
:1029200040080078012801D101F0C4F90320DFF844
:1029300034180870DFF82C0800781C49087001BDB5
:1029400080B5DFF818080078012804D0DFF81008F7
:102950000078012801D101F0ADF91848007801286C
:1029600001D101F001FA0020DFF80C1A08700120F3
:102970000E49087001BD80B5DFF8E0070078012836
:1029800004D0DFF8DC070078012801D101F092F9CA
:102990000A480078012801D101F0E6F90020DFF8AB
:1029A000D819087000200149087001BD24160020C4
:1029B0003E160020E0930400941400201916002015
:1029C0007E150020801500208215002080B501F0C2
:1029D000ABFD02F0AAFC01F075FC4FF47A700CF02C
:1029E0001DFDDFF89839002247F60101062003F0AB
:1029F0009BFA0821DFF884090CF08BFEDFF88039A0
:102A0000002247F60101062003F08EFA0821DFF8C4
:102A100070090CF098FE002006F02CFE0120DFF873
:102A2000641908700120DFF860190880DFF85C097C
:102A3000007850F00400DFF854190870DFF84C09F2
:102A4000007850F00800DFF84419087001F0B3FF77
:102A500003F0A4FC00F074F807F06AFC06F01AFB1F
:102A600002F01EF902F01AFA02F0F5FA02F0D2FBB7
:102A700003F0BEFBDFF8180900780028E6D102F069
:102A800053FC02F09DFD03F0B5F806F0EDFA06F0F8
:102A9000EFFA06F04BFC06F093FC01F0B1FB08F0F6
:102AA00019F906F0DBFC07F046FF07F06BFF07F0B3
:102AB0009AFFDFF8E008007808F014F808F090F9C1
:102AC00008F04AFE09F05CF909F05AFC0BF0FEF937
:102AD00009F052FDDFF8C80C0078002801D100F0A1
:102AE000E5FA09F0F7FC09F0FBFDFEF745FB09F0FC
:102AF00081FFFDF7F1FDFDF729FFFDF7BAFFFEF7B6
:102B00005DF800F006FA09F09BFF0AF0F8F90AF008
:102B100063FA0AF0CFFA09F0B7FE09F01BFF0AF0DA
:102B200096F900F04DFC00F06DFE01F06FF90AF02F
:102B3000C7FB8BE7C6150020C11500202216002018
:102B400080B5DFF8600C0088002840F0E181AA2001
:102B5000DFF8441808703C20DFF83C184870DFF8B4
:102B60003C080068DFF838180860DFF820080088A3
:102B70004FF4807190FBF1F201FB1200DFF818189E
:102B8000C870DFF8080800884FF4807190FBF1F0FE
:102B9000DFF804180871DFF808080078DFF8F81784
:102BA0004871DFF8FC074078DFF8EC178871DFF830
:102BB000F0078078DFF8E017C871DFF8E407C07825
:102BC000DFF8D4170872DFF8DC070078DFF8C817E1
:102BD0004872DFF8D40700884FF4807190FBF1F25F
:102BE00001FB1200DFF8B0178872DFF8BC0700881D
:102BF0004FF4807190FBF1F0DFF89C17C872DFF89A
:102C0000AC0700884FF4807190FBF1F201FB1200D9
:102C1000DFF884170873DFF8940700884FF4807199
:102C200090FBF1F0DFF870174873DFF82805008893
:102C30004FF4807190FBF1F201FB1200DFF858179E
:102C40008873DFF8100500884FF4807190FBF1F075
:102C5000DFF84417C873DFF8580700884FF4807115
:102C600090FBF1F201FB1200DFF82C170874DFF87B
:102C7000400700884FF4807190FBF1F0DFF81817DF
:102C80004874DFF83007B0F9000080B24FF480716B
:102C900090FBF1F201FB1200DFF8FC168874DFF8FC
:102CA0001407B0F9000080B24FF4807190FBF1F08E
:102CB000DFF8E416C874DFF80007B0F9000080B24E
:102CC0004FF4807190FBF1F201FB1200DFF8C8169F
:102CD0000875DFF8E406B0F9000080B24FF48071A7
:102CE00090FBF1F0DFF8B0164875DFF8D006B0F9C8
:102CF000000080B24FF4807190FBF1F201FB1200F2
:102D0000DFF894168875DFF8B406B0F9000080B2D9
:102D10004FF4807190FBF1F0DFF87C16C875DFF896
:102D2000880A0088DFF870160876DFF8800A0088C5
:102D3000DFF864164876DFF8780A0088DFF858165E
:102D40008876DFF8700A00884FF4807190FBF1F20A
:102D500001FB1200DFF84016C876DFF8580A008839
:102D60004FF4807190FBF1F0DFF82C160877DFF854
:102D7000480A00884FF4807190FBF1F201FB1200C9
:102D8000DFF814164877DFF8300A00884FF48071B6
:102D900090FBF1F0DFF800168877DFF8200A007862
:102DA000DFF8F415C877DFF8DC050078DFF8E81500
:102DB00081F82000DFF8080A0078DFF8DC1581F8D8
:102DC0002100DFF8D0050078DFF8CC1581F822006B
:102DD000DFF8F0090078DFF8C01581F82300DFF88C
:102DE000E8090078DFF8B01581F82400DFF8DC0985
:102DF00000684FF47A71B0FBF1F03C21B0FBF1F0C8
:102E0000DFF8941581F82500DFF8C00900684FF459
:102E10007A71B0FBF1F03C21B0FBF1F201FB120042
:102E2000DFF8741581F82600CB4800884FF48071D4
:102E300090FBF1F201FB1200DFF85C1581F827002E
:102E4000C54800884FF4807190FBF1F0DFF8481519
:102E500081F82800DFF878090078C0F3C000C0B21C
:102E6000002818D0DFF86C0900884FF4807190FBBF
:102E7000F1F201FB1200DFF8201581F83200DFF8D3
:102E8000540900884FF4807190FBF1F0DFF80815C9
:102E900081F8330017E0DFF8400900884FF48071B3
:102EA00090FBF1F201FB1200DFF8EC1481F8320024
:102EB000DFF8240900884FF4807190FBF1F0DFF80F
:102EC000D81481F83300DFF814090078DFF8C8144B
:102ED00081F83400DFF8080900684FF47A71B0FB1C
:102EE000F1F0DFF8B41481F835003621DFF8A804DA
:102EF00006F0C2F8DFF8A01481F836003721DFF8B9
:102F000098040CF03AFC4FF4FA70DFF89818088037
:102F100001BD80B500F014F800F050F800F07DF825
:102F200000F0AAF801BDDFF8BC180870DFF8B81887
:102F30000870DFF8B8180870DFF86C1C087070476C
:102F400080B5DFF8A0080078002805D0022813D04B
:102F500003D303281FD02BE02AE0DFF89408007881
:102F6000002825D10120DFF88C1809688847022045
:102F7000DFF8701808701BE0DFF87408007800288C
:102F800016D10120DFF86C18496888470320DFF864
:102F9000541808700CE0DFF858080078002807D1B2
:102FA0000120DFF8541808700020DFF83818087086
:102FB00001BD0000C71500207A15002080B5DFF89C
:102FC00028080078002805D0022812D003D303284F
:102FD0001ED021E020E00120DFF818184969884759
:102FE0006E20DFF8181808800220DFF8FC17087040
:102FF00012E0DFF80808008800280DD10120DFF872
:10300000F417896988470320DFF8DC17087003E0AC
:103010000020DFF8D417087001BD80B5DFF8CC07B9
:103020000078002805D0022812D003D303281ED030
:1030300021E020E00120DFF8BC17C96A8847FA20A8
:10304000DFF8BC1708800220DFF8A017087012E034
:10305000DFF8AC07008800280DD10120DFF89417B5
:10306000096B88470320DFF88417087003E000200D
:10307000DFF87817087001BD80B5DFF82C0B0078F9
:10308000002803D002280CD001D30EE00DE001206F
:10309000DFF86017C96988470220DFF80C1B087049
:1030A00003E00020DFF8001B087001BD80B5DFF8E9
:1030B000FC0A0078002849D1DFF8F40A00780028DB
:1030C0001AD1DFF8F00A0078012802D100F04CF89C
:1030D00008E0DFF8E40A0078022803D00220DFF8D5
:1030E000481C0870DFF8D40A0078022803D00220B8
:1030F000DFF8CC1A087029E0DFF83C0B00780028D4
:1031000022D0A2480078C0F30010C0B200280DD031
:103110000220DFF8AC1A0870DFF80C0C00780328E6
:1031200011DA0220DFF8001C08700CE00120DFF843
:10313000901A0870DFF8F00B0078032803DA0220F9
:10314000DFF8E41B087001E000F00EF801BD00009C
:10315000C81500203A150020641500201316002021
:1031600016160020C915002010B588480078C0F355
:103170000010C0B2002800F08580DFF8280B00782E
:10318000012866D100241BE0DFF81C0B0078210029
:103190002039084110F00100DFF8581651F82410CA
:1031A00088470CE0202CEFDADFF8000B0068E040E5
:1031B00010F00100DFF83C1651F824108847641C19
:1031C000DFF8EC0A00788442ECDBDFF8380B00789B
:1031D000012804D0DFF8040B0078012802D100F0A8
:1031E000BDFD09E00020DFF80C16496E884700207D
:1031F000DFF80016896E8847DFF8E40A00780128B6
:1032000002D100F0CFFD04E00020DFF8E815C96E20
:103210008847DFF8180B0078DFF8381B0870DFF8F4
:10322000380B00785B4908700020DFF8DC1A087062
:103230000220DFF88C1908700120DFF8EC1A087002
:103240000120DFF8EC1A08700020DFF8581A087027
:1032500091E0DFF8800B0078002840F08C80DFF8E8
:10326000F40A0078012804D10120DFF8BC1A0870A4
:1032700003E00220DFF8B01A08700120DFF8541BC9
:10328000087078E0DFF81C0A007800286FD1434806
:103290000068DFF8181A086042480078DFF8081A5A
:1032A0000870DFF8B00A0078DFF8801A0870DFF8DD
:1032B00030050068DFF8E81A0860DFF81C0B0078BA
:1032C000DFF8401A0870DFF8140B0078DFF80C1AEA
:1032D0000870DFF80C0B0078DFF8041A08702D482E
:1032E0000078DFF8741A087001202A490870DFF8A6
:1032F000E80A0078012804D0DFF8E00A0078012805
:1033000001D100F0D7FCDFF8D80A0078012801D1FC
:1033100000F02AFDDFF83C0A0078012803D10120E3
:10332000DFF8C01A08700020DFF8281A08700120A2
:10333000DFF88C1808700220DFF8EC190870002004
:10334000DFF8B014C96888470020DFF8A8140969BD
:1033500088470020DFF89C14496A88470020DFF87E
:103360009414896888470120DFF838190870002014
:10337000DFF8601A087010BD231600200813002023
:10338000701300204B160020241500202A15002061
:10339000591600202816002020110020C4140020F7
:1033A000A0140020FD150020321500203615002045
:1033B0003E150020521500205415002056150020FF
:1033C00080B5DFF8240A007800282AD002285DD0D2
:1033D00028D3042800F08F807DD3062800F0BC801D
:1033E000C0F0A280082800F0EB80C0F0CD800A2851
:1033F00000F01F81C0F0FB800C2800F04881C0F075
:1034000037810E2800F08081C0F05C81102800F028
:103410008181C0F07A81122800F0BC81C0F0A481C3
:10342000BCE1BBE10220DFF8C4190870DFF8A0039B
:103430000078C0F3C000C0B200280FD0012009F00E
:10344000E4F9DFF8AC09007850F00800DFF8A019C3
:1034500008700E20DFF89019087016E0DFF870038E
:10346000007810F0010000280FD00020DFF8841948
:103470000880DFF87C09007810F0F700DFF8701999
:1034800008700220DFF86019087087E1DFF864092E
:103490000088002840F082810020D649096D8847C5
:1034A0000020D449C96C88470120D249496E884719
:1034B000DFF84409807802F009FCDFF83C09017B61
:1034C0004FF47A704143DFF82C0901800320DFF8C4
:1034D0001819087062E1DFF81C090088002840F024
:1034E0005D814FF4FA70DFF80C1908800420DFF8D2
:1034F000F818087052E1DFF8FC080088002840F056
:103500004D810120BB49496E8847DFF8EC08C0783F
:1035100002F0DCFB40F6B830DFF8D8180880052050
:10352000DFF8C418087039E1DFF8C80800880028FF
:1035300040F034810120AF49096D8847DFF8B808B1
:10354000817A4FF47A704143DFF8A80801800620A1
:10355000DFF89418087021E1DFF898080088002847
:1035600040F01C810120A349C96C8847DFF8880816
:10357000C17A4FF47A704143DFF878080180072060
:10358000DFF86418087009E1DFF86808008800288F
:1035900011D0DFF868084078C0F34000C0B20028BE
:1035A0000DD00820DFF8401808704FF47A70DFF86B
:1035B0004418088003E00920DFF82C180870EDE0BB
:1035C000DFF83008008800280CD0DFF83008407899
:1035D000C0F34000C0B2002808D10920DFF8081865
:1035E000087003E00B20DFF800180870D6E0DFF861
:1035F000FC07007800280BD0DFF8F0070078401EA9
:10360000DFF8E81708700A20DFF8DC1708700FE011
:10361000DFF8EC070078002806D1FB206E4908800F
:103620000220DFF8E01708700F20DFF8BC170870E1
:10363000B4E000206F49096D884700206D49C96CCE
:10364000884701206B49496E8847DFF8AC078078CE
:1036500002F03CFBDFF8A007017B4FF47A70414396
:10366000DFF8900701800220DFF87C17087095E0F2
:10367000DFF88407007902F029FB4FF4FA60DFF8E5
:10368000741708800C20DFF86017087086E0DFF8F8
:1036900064070088002840F0818000205549096DAA
:1036A0008847DFF84C07007850F00800DFF8401733
:1036B00008700120DFF8501708700D20DFF8281778
:1036C00008706BE0DFF834074078C0F34000C0B208
:1036D000002818D1DFF82807007800280BD1FE2039
:1036E0003D4908800220DFF81C1708700020DFF831
:1036F000F816087007E00020DFF80C1708700F209C
:10370000DFF8E416087049E048E01020DFF8D8162A
:10371000087043E02E480078C0F3C000C0B2002813
:1037200003D0002009F071F819E000203149096D3B
:10373000884700202F49C96C884701202D49496ED0
:103740008847DFF8B406807802F0C0FADFF8A806F0
:10375000017B4FF47A704143DFF898060180112015
:10376000DFF88416087019E0DFF888060088002862
:1037700014D100201F49496E8847DFF8740600788D
:1037800010F0F700DFF8681608701220DFF85816FE
:10379000087003E00020DFF85016087001BD00003B
:1037A0006A1600201E150020421500204415002036
:1037B000461500204E150020501500204016002010
:1037C00071000020431600204416002098140020A9
:1037D000701500208C1500208A1500205C16002032
:1037E000D41400207E1600207D1600207C160020B8
:1037F000B815002080100020211600209A15002006
:103800009C15002080B5DFF8A40A0078C0F34000C2
:10381000C0B2002800F0C781DFF8080D007800284A
:1038200029D002283DD027D3042872D061D306289E
:1038300000F0A280C0F08780082800F0D280C0F09D
:10384000B4800A2800F00781C0F0E2800C2800F064
:103850003281C0F022810E2800F06681C0F04481E0
:10386000102800F06781C0F06081122800F0978175
:10387000C0F0808197E196E10220DFF8341A0870E9
:103880000020DFF8301A0880DFF86405007810F0B7
:10389000EF00DFF85C1508700220DFF8881C087064
:1038A00081E1DFF8100A0088002840F07C810020C8
:1038B000DFF8041A896D88470020DFF8FC19496D8C
:1038C00088470120DFF8F019896E8847DFF828055E
:1038D000C07902F01FFADFF82005017B4FF47A70FF
:1038E0004143DFF8D00901800320DFF8381C08705D
:1038F00059E1DFF8C0090088002840F054814FF4F6
:10390000FA70DFF8B01908800420DFF8181C08707E
:1039100049E1DFF8A0090088002840F04481012037
:10392000DFF89419896E8847DFF8CC04007A02F03A
:10393000F1F940F6B830DFF87C1908800520DFF88F
:10394000E41B08702FE1DFF86C090088002840F0C4
:103950002A810120DFF86019896D8847DFF8980413
:10396000817A4FF47A704143DFF8480901800620DC
:10397000DFF8B01B087016E1DFF83809008800286E
:1039800040F011810120DFF83019496D8847DFF8D8
:103990006804C17A4FF47A704143DFF81809018056
:1039A0000720DFF8801B0870FDE0DFF808090088B9
:1039B000002811D0DFF844044078C0F38000C0B282
:1039C00000280DD00820DFF85C1B08704FF47A70D7
:1039D000DFF8E018088003E00920DFF8481B0870D2
:1039E000E1E0DFF8D008008800280CD0DFF80C04F4
:1039F0004078C0F38000C0B2002808D10920DFF869
:103A0000241B087003E00B20DFF8181B0870CAE0C5
:103A1000DFF89C08007800280BD0DFF894080078C5
:103A2000401EDFF88C1808700A20DFF8F81A0870BA
:103A300010E0DFF8CC030078002807D1FC20DFF885
:103A40007C1808800220DFF8BC1308700F20DFF814
:103A5000D41A0870A7E00020DFF85C18896D884749
:103A60000020DFF85418496D88470120DFF8481816
:103A7000896E8847DFF88003C07902F04BF9DFF8E0
:103A80007803017B4FF47A704143DFF82808018006
:103A90000220DFF8901A087085E0D748407A02F0DB
:103AA00039F94FF4FA60DFF80C1808800C20DFF8C1
:103AB000741A087077E0DFF8FC070088002872D1DC
:103AC0000020DFF8F417896D8847C948007850F066
:103AD0001000C74908700120DFF8E41708700D20B6
:103AE000DFF8401A08705EE0C4484078C0F38000F8
:103AF000C0B2002817D1C248007800280BD1FF209F
:103B0000DFF8B81708800220BE4908700020DFF8EF
:103B1000141A087007E00020DFF8A41708700F20BF
:103B2000DFF8001A08703EE03DE01020DFF8F419DD
:103B3000087038E00020DFF88017896D8847002082
:103B4000DFF87417496D88470120DFF86C17896E1C
:103B50008847A948C07902F0DDF8A748017B4FF4F7
:103B60007A704143DFF84C0701801120DFF8B41967
:103B7000087018E0DFF83C070088002813D1002007
:103B8000DFF83417896E88479948007810F0EF0005
:103B9000974908701220DFF88C19087003E00020A4
:103BA000DFF88019087001BD7B1600206F16002019
:103BB0001E16002037160020331600203516002070
:103BC00034160020C0B2002802D0012809D022E01B
:103BD0000220DFF8481A08700420DFF8441A087041
:103BE00019E00320DFF8341A0870DFF8C006007807
:103BF000C0B2C009C0B200280DD10120DFF8201AE0
:103C000008704FF4FA70DFF81C1A088041F288300F
:103C1000DFF8141A08800120DFF8101A087000205D
:103C2000DFF80C1A088001203F4908700120DFF8F6
:103C30009C1C0870704700002A1600200F20DFF837
:103C4000DC1908700220384908700420DFF8D01908
:103C500008707047DFF8DC1908700120DFF8CC1914
:103C600008700020DFF8C819088001202E4908706C
:103C70000420DFF8AC1908700520DFF8A0190870DF
:103C800070470020DFF8AC1908700F20DFF88C199E
:103C900008700420DFF88819087002202249087093
:103CA000704700003F160020FE150020C8140020B9
:103CB000CA15002080B500F003F800F013F801BD2C
:103CC00045480078012805D10020434908700F209D
:103CD0004549087000204C490870704717160020AD
:103CE0001A1600203D480078012806D100203B49E3
:103CF00008700F20DFF82C1808700020DFF8C015BE
:103D000008707047141600200E16002080B50120A0
:103D10003149087001203449087031480078012881
:103D200001D100F021F801BD321600200C16002050
:103D30005716002080B50120284908700120DFF8BF
:103D4000E417087026480078012801D100F00CF82B
:103D500001BD00000B1600202916002080B5FFF7DA
:103D6000D5FFFFF7E7FF01BDDFF840050078C0B2DF
:103D7000C009C0B200280ED11948007801280AD124
:103D80000020174908700F20DFF8441B087000203E
:103D9000DFF8401B08700020DFF83C1B08707047FC
:103DA000D8140020DFF804050078C0B2C009C0B202
:103DB00000280ED101200A4908700120DFF80C1BF1
:103DC00008700120DFF8081B08700120DFF8041BD1
:103DD0000870704758160020131600201616002091
:103DE000191600200D1600201116002015160020AF
:103DF0002E15002060150020681400202A150020D0
:103E00005F1600205A1600204C16002080B5DFF8FF
:103E1000C00A007800282BD0022864D029D30428B7
:103E200000F09980C0F08780062800F0C680C0F0BE
:103E3000AC80082800F0F580C0F0D7800A2800F098
:103E40002981C0F005810C2800F05281C0F0418129
:103E50000E2800F08A81C0F06681102800F08B8166
:103E6000C0F08481122800F0C681C0F0AE81C6E1A6
:103E7000C5E10220DFF8641A0870DFF8300400782A
:103E8000C0F38000C0B2002810D00020DFF8501A24
:103E90000880DFF8500A007810F0DF00DFF8441ADD
:103EA00008700220DFF8281A08701BE0DFF8FC0316
:103EB0000078C0F30010C0B200280FD0012008F035
:103EC000C7FCDFF8200A007850F02000DFF8141A51
:103ED00008700E20DFF8F819087003E00020DFF802
:103EE000F01908708BE1DFF8F8090088002840F02D
:103EF00086810020DFF8C013096E88470020DFF8B4
:103F0000B813C96D88470120DFF8AC13C96E884724
:103F1000DFF8D409807801F029FFDFF8CC09C179F6
:103F20004FF47A704143DFF8B80901800320DFF8CD
:103F3000A019087063E1DFF8A8090088002840F0A4
:103F40005E814FF4FA70DFF8981908800420DFF8DA
:103F50008019087053E1DFF888090088002840F0D4
:103F60004E810120DFF85013C96E8847DFF87809C9
:103F7000C07801F0FBFE40F6B830DFF86419088025
:103F80000520DFF84C19087039E1DFF85409008882
:103F9000002840F034810120C749096E8847DFF8C6
:103FA000480941794FF47A704143DFF834090180C0
:103FB0000620DFF81C19087021E1DFF824090088C9
:103FC000002840F01C810120BB49C96D8847DFF8FB
:103FD000180981794FF47A704143DFF804090180B0
:103FE0000720DFF8EC18087009E1DFF8F408008812
:103FF000002811D0DFF8F4084078C0F3C000C0B248
:1040000000280DD00820DFF8C81808704FF47A7027
:10401000DFF8CC18088003E00920DFF8B418087036
:10402000EDE0DFF8BC08008800280CD0DFF8BC0801
:104030004078C0F3C000C0B2002808D10920DFF8E2
:104040009018087003E00B20DFF884180870D6E0A1
:10405000DFF88808007800280BD0DFF880080078A7
:10406000401EDFF8781808700A20DFF8641808701E
:104070000FE0DFF87C080078002806D1FD208F498A
:1040800008800220DFF86C1808700F20DFF8401855
:104090000870B4E000208849096E884700208649EE
:1040A000C96D884701208449C96E8847DFF8380800
:1040B000807801F05BFEDFF83008C1794FF47A7048
:1040C0004143DFF81C0801800220DFF80418087063
:1040D00095E0DFF81408007901F048FE4FF4FA602B
:1040E000DFF8FC1708800C20DFF8E417087086E082
:1040F000DFF8EC070088002840F0818000206E493E
:10410000096E8847DFF8DC07007850F02000DFF800
:10411000D41708700120DFF8C01708700D20DFF8F1
:10412000B01708706BE0DFF8C4074078C0F3C00038
:10413000C0B2002818D1DFF8B807007800280BD1EA
:104140004FF480705D4908800220DFF8A8170870DE
:104150000020DFF87C1708700020DFF87C1708705B
:104160000F20DFF86C17087049E048E01020DFF8F6
:104170006017087043E04D480078C0F30010C0B2EB
:10418000002803D0002008F063FB19E000204A4912
:10419000096E884700204849C96D88470120464973
:1041A000C96E8847DFF84007807801F0DFFDDFF84F
:1041B0003807C1794FF47A704143DFF82407018052
:1041C0001120DFF80C17087019E0DFF814070088D9
:1041D000002814D100203849C96E8847DFF8040749
:1041E000007810F0DF00DFF8FC1608701220DFF80E
:1041F000E016087003E00020DFF8D416087001BD57
:1042000080B5DFF8800A007800284DD0DFF8780A02
:104210000078212848D0DFF8740A0078072843D0B6
:10422000DFF86C0A007815283ED02048007810F09E
:10423000140F04D10120DFF85C1A087034E0DFF8B5
:10424000580A007800282FD1DFF88006007800286F
:104250002AD0DFF89806007810F00100002811D06D
:1042600000201549096988474FF4FA60DFF82C1AD5
:1042700008800120DFF8701D08700120DFF8141A93
:10428000087011E001200C4909698847DFF8580DD2
:104290000078012808D1DFF8040A0088002803D13B
:1042A0000020DFF8441D087001BD000070150020DB
:1042B0001816002062150020801000208A150020AA
:1042C0004D16002010B5FBF760FFFCF771FF0024CE
:1042D00006E00020DFF8EC1A51F824108847641C2F
:1042E000DFF8F40A00788442F3DB4FF40051DFF882
:1042F000FC0A0AF0E1FB4FF40041DFF8F00A0AF093
:10430000D8FB4FF48061DFF8E40A0AF0D5FB4FF4E4
:104310008051DFF8D80A0AF0CCFB8021DFF8CC0A04
:104320000AF0CAFB4FF40071DFF8C00A0AF0C1FBC3
:104330001021DFF8B80A0AF0BFFB4021DFF8AC0A11
:104340000AF0B7FB41F2883001F08CF80A2001F046
:10435000BDFC142001F0DEFC1E2001F007FD012051
:10436000DFF89C1A08700120DFF8E41A08700120B9
:10437000DFF8E01A08700120DFF8DC1A087064200A
:10438000DFF8D81A08706420DFF8D41A08706420A7
:10439000DFF8D01A08706420DFF8CC1A08701B20F0
:1043A000DFF8C81AC8703420DFF8C01A087134204A
:1043B000DFF8B81A88702620DFF8B01A08724A2091
:1043C000DFF8A81A48724A20DFF8A01AC871032043
:1043D000DFF8981A88720320DFF8901AC872052057
:1043E000DFF8881A08732720DFF8FC14C87048200B
:1043F000DFF8F41408714820DFF8EC14887003200B
:10440000DFF8E41448710320DFF8DC14887105201C
:10441000DFF8D414C8710120DFF8541A08700120A5
:10442000DFF8501A08700120DFF84C1A08700120DC
:10443000DFF8481A08700120DFF8441A08700120DC
:10444000DFF8401A08700120DFF83C1A08700120DC
:10445000DFF8381A08700120DFF8341A08700120DC
:10446000DFF8301A08700120DFF82C1A08700120DC
:10447000DFF8381B0870DFF810080078002801D139
:10448000012000E00020C0B2DFF80008007800281A
:1044900001D1012000E00020C0B20020DFF8F017B9
:1044A00008700020DFF824140870002008F066FE71
:1044B000B0F1AA3F1ED1012008F060FEDFF83C1BDE
:1044C0000860022008F05AFEDFF8341B0860032061
:1044D00008F054FEDFF82C1B0860042008F04EFEA4
:1044E000DFF8241B0860052008F048FEDFF8101DE7
:1044F000086015E008F04CFE0020DFF8001B0860A3
:104500000020DFF8FC1A08600020DFF8F81A0860C5
:104510000020DFF8F41A08600020DFF8E41C0860CF
:1045200010BD00001216002080B50BF05DF95FF49D
:1045300080300BF089F90BF0B1F9DFF8C81C087076
:10454000DFF8C00C0078012824D100200BF0E1F93D
:1045500000200BF0F2F94FF480600BF0E4F910202A
:104560000BF0D6FA02200BF0C7FA5FF4E0115FF40B
:1045700080300BF0AFF901200BF0B8F939200BF0C7
:104580007DFA0028FAD002200BF0B4F90BF0BCF948
:104590000828FBD1012104200BF050FA012108204A
:1045A0000BF04CFA012110200BF048FA01212020D9
:1045B0000BF044FA012140200BF040FA0121802049
:1045C0000BF03CFA01214FF480700BF037FA012117
:1045D0004FF480400BF032FA01215FF400300BF011
:1045E0003DFA01215FF480200BF038FA01215FF4DD
:1045F00000200BF033FA012101200BF00FFA01210A
:104600004FF400500BF01AFA00F016F80AF0CEFF43
:1046100000F080F900F070F901BD000023160020C1
:104620003E16002080150020821500202416002050
:104630002C1500202216002080B54FF4E070ADF854
:10464000000018208DF8030003208DF80200694651
:10465000DFF8180B0AF0C0F94BF2D060ADF800009B
:1046600010208DF8030003208DF802006946DFF862
:104670007C070AF0B1F944F62010ADF8000048209C
:104680008DF8030003208DF802006946DFF85C070F
:104690000AF0A2F94FF40070ADF8000018208DF870
:1046A000030003208DF802006946DFF8F80A0AF0DB
:1046B00093F94FF48060ADF8000004208DF80300FA
:1046C0006946DFF8E00A0AF087F90420ADF8000037
:1046D00018208DF8030003208DF802006946DFF8EA
:1046E000C40A0AF079F90820ADF8000004208DF81A
:1046F00003006946DFF8AC0A0AF06EF94FF48060F7
:10470000ADF8000018208DF8030003208DF802009A
:104710006946DFF8100C0AF05FF94FF40060ADF85D
:10472000000004208DF803006946DFF8F80B0AF05A
:1047300053F94FF48060ADF8000018208DF80300A5
:1047400003208DF802006946DFF8200A0AF044F9D8
:104750004FF40060ADF8000004208DF803006946B6
:10476000DFF8080A0AF038F94FF6FF70ADF80000DC
:1047700010208DF8030003208DF802006946DFF851
:10478000880A0AF029F94FF20C00ADF80000102059
:104790008DF8030003208DF802006946DFF86C0AEB
:1047A0000AF01AF94FF47F60ADF8000048208DF848
:1047B000030003208DF802006946DFF8500A0AF072
:1047C0000BF943F20300ADF8000010208DF8030050
:1047D00003208DF802006946DFF8480B0AF0FCF868
:1047E0004FF44340ADF8000048208DF8030003204B
:1047F0008DF802006946DFF82C0B0AF0EDF84FF453
:104800004050ADF8000010208DF8030003208DF813
:1048100002006946DFF854090AF0DEF84FF4604000
:10482000ADF8000010208DF8030003208DF8020081
:104830006946DFF8DC090AF0CFF80320ADF8000084
:1048400048208DF8030003208DF802006946DFF848
:104850009C050AF0C1F81820ADF8000010208DF872
:10486000030003208DF802006946DFF800090AF012
:10487000B3F84FF4F050ADF8000010208DF80300AD
:1048800003208DF802006946DFF884090AF0A4F8D5
:104890000420ADF8000010208DF8030003208DF8EF
:1048A00002006946DFF87C0A0AF096F84FF440707F
:1048B000ADF8000048208DF8030003208DF80200B9
:1048C0006946DFF8600A0AF087F801BD2616002065
:1048D0001B160020451600204E1600201C16002036
:1048E000681500202E1500208C1400202A150020A9
:1048F0005F1600205A16002080B548F6A040FBF74E
:104900002AFC002800D0FEE700215FF0FF30FBF713
:104910000FFC01BD80B54FF4E0600BF0C5F90B2032
:104920008DF8000000208DF8010000208DF80200B5
:1049300001208DF8030068460BF0BBF925208DF8A7
:10494000000000208DF8010001208DF802000120F8
:104950008DF8030068460BF0ACF926208DF80000B6
:1049600000208DF8010002208DF8020001208DF852
:10497000030068460BF09DF927208DF80000002009
:104980008DF8010003208DF8020001208DF803004E
:1049900068460BF08EF934208DF8000000208DF869
:1049A000010004208DF8020001208DF80300684604
:1049B0000BF07FF901BD80B5DFF8780B0088002887
:1049C00040F01681DFF88C0A0088002806D0DFF856
:1049D000840A0088401EDFF87C1A0880DFF8780A15
:1049E0000088002806D0DFF8700A0088401EDFF833
:1049F000681A0880DFF8640A0088002806D0DFF80B
:104A00005C0A0088401EDFF8541A0880DFF8500A5C
:104A10000088002806D0DFF8480A0088401EDFF82A
:104A2000401A0880DFF8100B0088002806D0DFF855
:104A3000080B0088401EDFF8001B0880DFF8FC0A26
:104A40000088002806D0DFF8F40A0088401EDFF84E
:104A5000EC1A0880DFF8E80A0078002806D0DFF8B2
:104A6000E00A0078401EDFF8D81A0870DFF8D40A90
:104A70000078002806D0DFF8CC0A0078401EDFF866
:104A8000C41A0870DFF8C00A0078002823D0DFF8C5
:104A9000BC0A0068401CDFF8B41A0860DFF8AC0AF2
:104AA000006848F6A041B0FBF1F080B2402808DB76
:104AB000DFF89C0A007850F0FC00DFF8941A0870C8
:104AC00009E0DFF88C1A097811F0030151EA80013E
:104AD000DFF87C0A01706B480078002806D04FF49C
:104AE0000041DFF82C0709F0E7FF05E04FF4004133
:104AF000DFF81C0709F0DDFFDFF8580A006890F4C2
:104B00008040DFF8501A0860DFF8480A006890F427
:104B10000050DFF8401A0860DFF83C0A00880028DF
:104B200041D1DFF8380A0078002806D0DFF8CC043D
:104B30000068401CDFF8C4140860DFF8240A00781D
:104B4000002806D0DFF8B8040068401CDFF8B01475
:104B50000860DFF8100A0078002806D0DFF8A40407
:104B60000068401CDFF89C140860DFF8FC0900783E
:104B7000002806D0DFF890040068401CDFF8881495
:104B80000860DFF8E8090078002806D0DFF8700632
:104B90000068401CDFF8681608604FF41670DFF8F4
:104BA000B819088006E0DFF8B0090088401EDFF879
:104BB000A8190880DFF8B8090078002814D0DFF8B9
:104BC000B0090078401EDFF8A8190870DFF8A009C6
:104BD0000078002804D001207A49896C884703E0D6
:104BE00000207849896C88476420DFF848190880DC
:104BF00001BD80B51F20DFF87C1908704FF400411B
:104C0000DFF8740909F058FF01BD80B54FF4004189
:104C1000DFF8640909F04DFF01BD80B54FF4005184
:104C2000DFF8540909F048FF01BD80B54FF4005189
:104C3000DFF8440909F03DFF01BD80B54FF4804124
:104C40006A4809F02BFF00280DD0DFF83009016811
:104C50000122DFF8200990F9000082401143DFF8BB
:104C60001C0901600CE0DFF8140901680122DFF87B
:104C7000040990F9000082409143DFF800090160C7
:104C800001BD00001E160020301600203C1600203A
:104C90004816002020160020371600207815002026
:104CA00080B56E480078002840F07F80DFF8D0089B
:104CB0000078002802D1FFF79CFF1CE0DFF8C00855
:104CC0000178032291FBF2F002FB1010C0B2002821
:104CD00008D0022803D00ED2FFF7A7FF0BE0FFF7A2
:104CE000ACFF08E0FFF799FFDFF888080078401E66
:104CF000DFF880180870DFF87C0890F900000028C1
:104D00004CD5FFF782FF0020DFF874180870DFF839
:104D10006C080068DFF86C180860DFF86808006845
:104D2000800CDFF864180880DFF85C08B0F9000038
:104D3000042190FBF1F0DFF850180880DFF84808F4
:104D40000088DFF84818DFF84828127821F81200A8
:104D5000DFF83C080078401CDFF834180870DFF8F2
:104D6000300800780A2803DB0020DFF824180870D8
:104D70000021002205E0DFF8140830F81200411885
:104D8000521C0A2AF7DB89B20A2091FBF0F0DFF807
:104D90000418088064203149087006E0DFF8E00755
:104DA0000078401CDFF8D817087001BD80B51F20BF
:104DB000DFF8E41708704FF48051DFF8BC0709F002
:104DC0007BFE01BD8010002080B54FF48051DFF8DC
:104DD000A80709F06EFE01BDCA15002080B54FF48A
:104DE0008061DFF8940709F067FE01BD00200140F3
:104DF00080B54FF48061DFF8800709F05AFE01BDED
:104E00008316002080B54FF40061DFF86C0709F0CD
:104E100045FE00280DD0DFF8840701680122DFF885
:104E2000780790F9000082401143DFF870070160B5
:104E30000CE0DFF8680701680122DFF85C0790F9F1
:104E4000000082409143DFF85407016001BD00007B
:104E50008A1600209116002098160020EE150020DA
:104E6000F2150020F6150020FA1500206814002025
:104E7000CC150020CF150020D2150020D51500201C
:104E8000D8150020DB150020DE150020E1150020DC
:104E9000E3150020E5150020E715002080B5DFF8B8
:104EA00000070078002840F08080DFF8280D0078A7
:104EB000002802D1FFF77AFF1CE0DFF8180D017817
:104EC000032291FBF2F002FB1010C0B2002808D0C0
:104ED000022803D00ED2FFF78BFF0BE0FFF792FF03
:104EE00008E0FFF77BFFDFF8B0060078401EDFF830
:104EF000A8160870DFF8A00690F9000000284DD52C
:104F0000FFF762FF0020DFF8CC1C0870DFF88C068A
:104F10000068DFF890160860DFF888060068800CEB
:104F2000DFF884160880DFF88006B0F9000004215D
:104F300090FBF1F0DFF870160880DFF86C0600884F
:104F4000DFF86816DFF86826127821F81200DFF81B
:104F500060060078401CDFF858160870DFF850062D
:104F600000780A2803DB0020DFF8441608700021CF
:104F7000002205E0DFF8340630F812004118521C18
:104F80000A2AF7DB89B20A2091FBF0F0DFF8241639
:104F900008806420DFF80816087006E0DFF8340C9B
:104FA0000078401CDFF82C1C087001BDEA150020B9
:104FB00080B51F20DFF8001608704FF40071DFF88D
:104FC000B80509F079FD01BD80B54FF40071DFF837
:104FD000A80509F06EFD01BD80B58021DFF89805B8
:104FE00009F06AFD01BD00002716002080B5802170
:104FF000DFF8840509F05DFD01BD0000001500200B
:1050000004150020081500200C15002080B54FF471
:105010008071DFF8640509F041FD00280DD0DFF84C
:10502000B80B01680122DFF8900590F9000082407A
:105030001143DFF8A40B01600CE0DFF89C0B016862
:105040000122DFF8740590F9000082409143DFF8F7
:10505000880B016001BD80B5DFF86005007800288D
:1050600040F08280DFF8480D0078002802D1FFF779
:105070009FFF1CE0DFF8380D0178032291FBF2F06E
:1050800002FB1010C0B2002808D0022803D00ED2B4
:10509000FFF7ACFF0BE0FFF7B9FF08E0FFF79CFF5D
:1050A000DFF814050078401EDFF80C150870DFF8F3
:1050B000080590F9000000284FD5FFF785FF002074
:1050C000DFF8EC1C0870DFF8100B0068DFF80C1B31
:1050D0000860DFF8080B0068800CDFF8041B08800C
:1050E000DFF8FC0AB0F90000042190FBF1F0DFF8D2
:1050F000F01A0880DFF8E80AB0F90000401DDFF878
:10510000E41ADFF8E42A127821F81200DFF8D80A4E
:105110000078401CDFF8D01A0870DFF8CC0A00785D
:105120000A2803DB0020DFF8C01A087000210022E3
:1051300005E0DFF8B00A30F812004118521C0A2AC4
:10514000F7DB89B20A2091FBF0F0DFF8A01A0880A3
:105150006420DFF86814087006E0DFF8540C00786B
:10516000401CDFF84C1C087001BD0000001001401D
:1051700080B51F20DFF8781A08704021DFF8F803A7
:1051800009F09AFC01BD80B54021DFF8EC0309F07D
:1051900090FC01BD80B51021DFF8DC0309F08CFC28
:1051A00001BD00000008014080B51021DFF8C803F0
:1051B00009F07FFC01BD80B52021DFF8BC0309F0B8
:1051C0006DFC00280DD0DFF8900B01680122DFF89C
:1051D000200A90F9000082401143DFF87C0B016047
:1051E0000CE0DFF8740B01680122DFF8040A90F983
:1051F000000082409143DFF8600B016001BD0000B8
:10520000101500206E00002000180140001401401D
:10521000001C014080B5DFF8F80A0078002840F053
:105220008080DFF8F40C0078002802D1FFF7A0FF9F
:105230001CE0DFF8E40C0178032291FBF2F002FBA2
:105240001010C0B2002808D0022803D00ED2FFF7F9
:10525000ABFF0BE0FFF7AFFF08E0FFF79BFFDFF8C6
:1052600090090078401EDFF888190870DFF880097F
:1052700090F9000000284DD5FFF785FF0020DFF8EA
:10528000981C0870DFF8D00A0068DFF8D01A0860B0
:10529000DFF8C80A0068800CDFF8C41A0880DFF85D
:1052A000C00AB0F90000042190FBF1F0DFF8B01A59
:1052B0000880DFF8AC0A0088DFF8A81ADFF8A82A0F
:1052C000127821F81200DFF8A00A0078401CDFF8FD
:1052D000981A0870DFF8900A00780A2803DB00208B
:1052E000DFF8841A08700021002205E0DFF8740A54
:1052F00030F812004118521C0A2AF7DB89B20A2042
:1053000091FBF0F0DFF8AC1A08806420DFF8001A97
:10531000087006E0DFF8000C0078401CDFF8F81B8E
:10532000087001BD000C0140704700B591B023200A
:10533000ADF8000003208DF8020000208DF8030076
:105340006946DFF8740A09F047FB012101200AF0E1
:1053500065FB4FF400400AF0FAFA01214FF40070A7
:105360000AF06CFBDFF8540A0AF0E0FCDFF8500AA0
:105370000690DFF8500A079000200890032009905B
:1053800000200A9080200B904FF400700C904FF496
:1053900000600D9020200E904FF400500F900020E0
:1053A000109006A9DFF8140A0AF044FD0121DFF885
:1053B0000C0A0AF05DFD0020019001208DF8080024
:1053C00001208DF809005FF4602003900020049014
:1053D00003208DF8140001A9DFF81C0C0AF090FDE1
:1053E000052301220A21DFF8100C0AF0F3FD052342
:1053F00002220B21DFF8000C0AF0ECFD052303224A
:105400000F21DFF8F40B0AF0E5FD0121DFF8E80BCE
:105410000AF0A8FD0121DFF8E00B0AF096FDDFF8A5
:10542000D80B0AF0ACFDDFF8D00B0AF0ADFD002878
:10543000F9D1DFF8C40B0AF0B1FDDFF8BC0B0AF0BC
:10544000B2FD0028F9D10121DFF8AC0B0AF0B5FD5F
:1054500011B000BD981500209A1500209C15002061
:105460008415002000B587B0DFF8001AB1FBF0F01A
:10547000DFF8FC1908600020ADF816000020ADF838
:105480001200DFF8EC090068401EADF8140000209F
:10549000ADF8100000208DF8180004A9DFF8440CC6
:1054A0000AF002FE6020ADF800000020ADF80C000C
:1054B0000020ADF808000020ADF80E000020ADF887
:1054C0000A000120ADF802000020ADF80400002021
:1054D000ADF806006946DFF80C0C0AF000FE6946DC
:1054E000DFF8000C0AF034FE6946DFF8F80B0AF02A
:1054F0006FFE0021DFF8EC0B0AF0DBFE0021DFF885
:10550000E40B0AF0DFFE0021DFF8D80B0AF0E3FE1F
:105510000021DFF8D00B0AF0BEFE0121DFF8C40B3A
:105520000AF09AFE0121DFF8BC0B0AF0A3FE07B0D7
:1055300000BD0000201500208615002088150020E1
:10554000531600205616002045160020F81400209F
:10555000441600200C1C0140221500204C1600208F
:105560004D1600204E1600204F1600205016002029
:105570006F160020EC15002000200140A814002028
:10558000ED150020A4140020301500201814002070
:10559000EF15002032150020F0150020B014002077
:1055A000F2150020AC140020341500202C1400202B
:1055B000F315002036150020F4150020F615002004
:1055C00080B5DFF8100C0088002840F0018310211E
:1055D000DFF8280A09F062FA002822D1DFF83C0936
:1055E000007800282DD0DFF838090078152810DB66
:1055F0000120DFF830190870DFF8040A007850F055
:105600000100DFF8FC1908700020DFF8101908709D
:1056100017E0DFF80C090078401CDFF80419087067
:105620000FE0DFF8DC09007810F0FE00DFF8D01999
:1056300008700020DFF8E81808700120DFF8DC1897
:1056400008702021DFF8B40909F028FA002822D1D7
:10565000DFF8B009007800282DD0DFF8AC09007819
:10566000152810DB0120DFF8A4190870DFF8900975
:10567000007850F00200DFF8881908700020DFF889
:105680008419087017E0DFF880090078401CDFF803
:10569000781908700FE0DFF86809007810F0FD0055
:1056A000DFF85C1908700020DFF85C190870012031
:1056B000DFF8501908704021DFF8400909F0EEF9D1
:1056C000002822D1DFF84809007800282DD0DFF823
:1056D00044090078152810DB0120DFF83C19087018
:1056E000DFF81C09007850F00400DFF81419087086
:1056F0000020DFF81C19087017E0DFF8180900789F
:10570000401CDFF8101908700FE0DFF8F40800788B
:1057100010F0FB00DFF8E81808700020DFF8F4183C
:1057200008700120DFF8E81808708021DFF8CC0845
:1057300009F0B4F9002822D1DFF8AC09007800287C
:105740002DD0DFF8A8090078152810DB0120DFF83C
:10575000A0190870DFF8A808007850F00800DFF8FA
:10576000A01808700020DFF88019087017E0DFF833
:105770007C090078401CDFF8741908700FE0DFF82E
:105780008008007810F0F700DFF874180870002027
:10579000DFF8581908700120DFF84C1908704FF431
:1057A0008071DFF8580809F079F900281BD1DFF87B
:1057B0004409008840F22131884208DBDFF84008C4
:1057C000007850F01000DFF83818087006E0DFF8B5
:1057D00024090088401CDFF81C1908800020DFF82D
:1057E000181908801AE0DFF81009008840F221310A
:1057F000884208DBDFF80808007810F0EF00DFF8D7
:105800000018087006E0DFF8F0080088401CDFF898
:10581000E81808800020DFF8DC1808804FF40071D9
:10582000DFF8D80709F03AF9002822D1DFF8A809F3
:10583000007800282DD0DFF8A4090078152810DBA7
:105840000120DFF89C190870DFF8B407007850F0E9
:105850002000DFF8AC1708700020DFF87C19087012
:1058600017E0DFF878090078401CDFF8701908703D
:105870000FE0DFF88C07007810F0DF00DFF880170A
:1058800008700020DFF8541908700120DFF848196B
:1058900008704FF48061DFF8640709F0FFF8002812
:1058A00022D1DFF84009007800282DD0DFF8380930
:1058B0000078152810DB0120DFF830190870DFF8B8
:1058C0004007007850F04000DFF8341708700020DF
:1058D000DFF81019087017E0DFF80C090078401C99
:1058E000DFF8041908700FE0DFF81407007810F0F3
:1058F000BF00DFF80C1708700020DFF8EC18087004
:105900000120DFF8E01808704FF40071DFF8880913
:1059100009F0C4F8002822D1DFF8800900780028B7
:105920002DD0DFF87C090078152810DB0120DFF886
:1059300074190870DFF8C806007850F08000DFF8AE
:10594000C01608700020DFF85419087017E0DFF85F
:1059500050090078401CDFF8481908700FE0DFF8A4
:10596000A006007810F07F00DFF894160870002081
:10597000DFF82C1908700120DFF8201908704FF4A7
:105980008071DFF8140909F089F8002822D1DFF8C6
:105990001809007800282DD0DFF8100900781528A4
:1059A00010DB0120DFF808190870DFF85406407892
:1059B00050F00100DFF8481648700020DFF8E818C2
:1059C000087017E0DFF8E4080078401CDFF8DC1806
:1059D00008700FE0DFF82806407810F0FE00DFF8CE
:1059E000201648700020DFF8C41808700120DFF886
:1059F000B81808700221DFF8040609F04FF80028F3
:105A000022D1DFF8B008007800282DD0DFF8A808F0
:105A10000078152810DB0120DFF8A0180870DFF8E7
:105A2000E005407850F00200DFF8D41548700020FF
:105A3000DFF88018087017E0DFF87C080078401C59
:105A4000DFF8741808700FE0DFF8B405407810F044
:105A5000FD00DFF8AC1548700020DFF85C18087016
:105A60000120DFF8501808704FF48041D24809F047
:105A700015F8002822D1DFF84808007800282DD03A
:105A8000DFF840080078152810DB0120DFF838180F
:105A90000870DFF86C05407850F00400DFF86015FE
:105AA00048700020DFF81818087017E0DFF81408B5
:105AB0000078401CDFF80C1808700FE0DFF8400594
:105AC000407810F0FB00DFF8381548700020DFF850
:105AD000F41708700120DFF8E81708704FF48041D0
