:020000040800F2
:10000000000400205DA60008CD9F0008CF9F0008D7
:10001000D19F0008D39F0008D59F00080000000072
:10002000000000000000000000000000D79F000852
:10003000D99F000800000000DB9F0008DD9F00083A
:100040001B7F00081B7F00081B7F0008E59F00083E
:100050001B7F00081B7F0008E79F00081B7F00082C
:100060001B7F0008FB9F00081B7F0008F1A400080D
:100070001B7F00081B7F00081B7F00081B7F0008F8
:100080001B7F00081B7F00081B7F0008FD9F0008E6
:10009000FF9F00081B7F00081B7F000801A00008CD
:1000A0001B7F000803A000081B7F00081B7F0008BF
:1000B00011A000081FA000082DA000081B7F000849
:1000C0001B7F00081B7F00081B7F00081B7F0008A8
:1000D0003DA000083FA0000899A1000889A20008DF
:1000E000D5A40008EDA400081B7F00081B7F0008B2
:1000F0002FA000081B7F00081B7F00081B7F000843
:100100001B7F0008EFA400081B7F00081B7F00086E
:1001100077A300081B7F00081B7F00081B7F0008D7
:100120001B7F00081B7F00081B7F00081B7F000847
:1001300040B2002805D40901DFF82C2B40B211543D
:1001400008E00901DFF8B82C40B210F00F001044AD
:1001500000F8041C704780B5411EB1F1807F01D3C7
:10016000012011E0401EDFF8241B08600F215FF022
:10017000FF30FFF7DDFF0020DFF8141B08600720C9
:10018000DFF8801C0860002002BD0020DFF8781C2A
:100190000870DFF8000BDFF8A01BDFF86C2C12787A
:1001A00041F82200DFF8600C0078401CDFF8581C92
:1001B0000870DFF8E40ADFF8801BDFF84C2C1278B7
:1001C00041F82200DFF8400C0078401CDFF8381CB2
:1001D0000870DFF8C80ADFF8601BDFF82C2C1278F3
:1001E00041F82200DFF8200C0078401CDFF8181CD2
:1001F0000870DFF8AC0ADFF8401BDFF80C2C12782F
:1002000041F82200DFF8000C0078401CDFF8F81BF2
:100210000870DFF8900ADFF8201BDFF8EC2B12786B
:1002200041F82200DFF8E00B0078401CDFF8D81B13
:100230000870DFF8080BDFF8001BDFF8CC2B127812
:1002400041F82200DFF8C00B0078401CDFF8B81B33
:100250000870DFF8EC0ADFF8E01ADFF8AC2B127850
:1002600041F82200DFF8A00B0078401CDFF8981B53
:100270000870DFF8D00ADFF8C01ADFF88C2B12788C
:1002800041F82200DFF8800B0078401CDFF8781B73
:100290000870DFF8B40ADFF8A01ADFF86C2B1278C8
:1002A00041F82200DFF8600B0078401CDFF8581B93
:1002B0000870DFF8980ADFF8801ADFF84C2B127804
:1002C00041F82200DFF8400B0078401CDFF8381BB3
:1002D0000870DFF87C0ADFF8601ADFF82C2B127840
:1002E00041F82200DFF8200B0078401CDFF8181BD3
:1002F0000870DFF8600ADFF8401ADFF80C2B12787C
:1003000041F82200DFF8000B0078401CDFF8F81AF3
:100310000870DFF8F80ADFF8201ADFF8EC2A127804
:1003200041F82200DFF8E00A0078401CDFF8D81A14
:100330000870DFF8DC0ADFF8001ADFF8CC2A127840
:1003400041F82200DFF8C00A0078401CDFF8B81A34
:100350000870DFF8C00ADFF8E019DFF8AC2A12787D
:1003600041F82200DFF8A00A0078401CDFF8981A54
:100370000870DFF8A40ADFF8C019DFF88C2A1278B9
:1003800041F82200DFF8800A0078401CDFF8781A74
:100390000870DFF8880ADFF8A019DFF86C2A1278F5
:1003A00041F82200DFF8600A0078401CDFF8581A94
:1003B0000870DFF86C0ADFF88019DFF84C2A127831
:1003C00041F82200DFF8400A0078401CDFF8381AB4
:1003D0000870DFF8EC0ADFF86019DFF82C2A1278D1
:1003E00041F82200DFF8200A0078401CDFF8181AD4
:1003F0000870DFF8D00ADFF84019DFF80C2A12780D
:1004000041F82200DFF8000A0078401CDFF8F819F4
:100410000870DFF8B40ADFF82019DFF8EC29127849
:1004200041F82200DFF8E0090078401CDFF8D81915
:100430000870DFF8980ADFF80019DFF8CC29127885
:1004400041F82200DFF8C0090078401CDFF8B81935
:100450000870DFF87C0ADFF8E018DFF8AC291278C2
:1004600041F82200DFF8A0090078401CDFF8981955
:100470000870DFF8600ADFF8C018DFF88C291278FE
:1004800041F82200DFF880090078401CDFF8781975
:100490000870DFF8440ADFF8A018DFF86C2912783A
:1004A00041F82200DFF860090078401CDFF8581995
:1004B0000870DFF8280ADFF88018DFF84C29127876
:1004C00041F82200DFF840090078401CDFF83819B5
:1004D0000870DFF80C0ADFF86018DFF82C291278B2
:1004E00041F82200DFF820090078401CDFF81819D5
:1004F0000870DFF8F009DFF84018DFF80C291278EF
:1005000041F82200DFF800090078401CDFF8F818F5
:100510000870DFF8D409DFF82018DFF8EC2812782B
:1005200041F82200DFF8E0080078401CDFF8D81816
:100530000870DFF8B809DFF80018DFF8CC28127867
:1005400041F82200DFF8C0080078401CDFF8B81836
:100550000870DFF89C09DFF8E017DFF8AC281278A4
:1005600041F82200DFF8A0080078401CDFF8981856
:100570000870DFF88009DFF8C017DFF88C281278E0
:1005800041F82200DFF880080078401CDFF8781876
:100590000870DFF86409DFF8A017DFF86C2812781C
:1005A00041F82200DFF860080078401CDFF8581896
:1005B0000870DFF84809DFF88017DFF84C28127858
:1005C00041F82200DFF840080078401CDFF83818B6
:1005D0000870DFF82C09DFF86017DFF82C28127894
:1005E00041F82200DFF820080078401CDFF81818D6
:1005F0000870704780B5DFF8B40A007800280FD182
:10060000DFF8AC0A007800280AD10121DFF8A40A3B
:1006100007F07DFC0221DFF89C0A07F078FC3DE042
:10062000DFF8880A007801280FD1DFF8840A007803
:1006300000280AD10121DFF87C0A07F06BFC0221B7
:10064000DFF8700A07F063FC28E0DFF8600A007842
:1006500000280FD1DFF8580A007801280AD10121BB
:10066000DFF8500A07F053FC0221DFF8480A07F0D0
:1006700051FC13E0DFF8340A007801280ED1DFF8CE
:10068000300A0078012809D10121DFF8280A07F093
:100690003EFC0221DFF81C0A07F039FC01BD80B5E1
:1006A000DFF8081A0870FFF7A5FF01BD80B5DFF875
:1006B000001A0870FFF79EFF01BD80B5002805D124
:1006C0000421DFF8F00907F022FC04E00421DFF840
:1006D000E40907F01FFC01BD80B5002805D1082101
:1006E000DFF8D00907F013FC04E00821DFF8C409A3
:1006F00007F010FC01BD80B5002805D11021DFF8FE
:10070000B40907F004FC04E01021DFF8A80907F0A1
:1007100001FC01BD80B5DFF8A0090078002811D1E7
:10072000DFF89809007800280CD14FF40061DFF859
:10073000840907F0ECFB4FF48051DFF8780907F0EB
:10074000E6FB43E0DFF870090078012811D1DFF8FB
:100750006C09007800280CD14FF40061DFF85409CF
:1007600007F0D8FB4FF48051DFF8480907F0CFFBC2
:100770002CE0DFF844090078002811D1DFF83C09AB
:10078000007801280CD14FF40061DFF8280907F048
:10079000BEFB4FF48051DFF81C0907F0BBFB15E0EE
:1007A000DFF814090078012810D1DFF8100900786B
:1007B00001280BD14FF40061DFF8F80807F0A7FB20
:1007C0004FF48051DFF8EC0807F0A1FB01BD80B5C4
:1007D000DFF8E4180870FFF79DFF01BD80B5DFF872
:1007E000DC180870FFF796FF01BD80B5DFF8480AF6
:1007F0000078002810D1DFF8440A007800280BD1D7
:100800004FF48071DFF8AC0807F081FB8021DFF83E
:10081000A40807F07CFB40E0DFF81C0A0078012800
:1008200010D1DFF8180A007800280BD14FF480713E
:10083000DFF8800807F06EFB8021DFF8780807F00A
:1008400066FB2AE0DFF8F0090078002810D1DFF815
:10085000EC09007801280BD14FF48071DFF85408BF
:1008600007F055FB8021DFF84C0807F053FB14E03C
:10087000DFF8C409007801280FD1DFF8C00900783B
:1008800001280AD14FF48071DFF8280807F03FFBF8
:100890008021DFF8200807F03AFB01BD80B5DFF8C2
:1008A0009C190870FFF7A1FF01BD80B5DFF888191A
:1008B0000870FFF79AFF01BD80B5002806D14FF4FC
:1008C0000071DFF8F00707F022FB05E04FF400713C
:1008D000DFF8E00707F01EFB01BD80B5002806D158
:1008E0004FF48061DFF8CC0707F011FB05E04FF40F
:1008F0008061DFF8C00707F00DFB01BD80B500285F
:1009000006D14FF40051DFF8AC0707F000FB05E01B
:100910004FF40051DFF89C0707F0FCFA01BD80B5E9
:10092000002806D14FF48041DFF8880707F0EFFA7E
:1009300005E04FF48041DFF87C0707F0EBFA01BDDA
:1009400080B5002806D14FF40041DFF8680707F0B2
:10095000DEFA05E04FF40041DFF8580707F0DAFA55
:1009600001BD80B5002805D11021DFF8500B07F03C
:10097000CEFA04E01021DFF8440B07F0CBFA01BDFA
:1009800080B5002805D10421DFF8340B07F0BFFA49
:1009900004E00421DFF8280B07F0BCFA01BD80B5A4
:1009A000002806D14FF48051DFF8180B07F0AFFA9A
:1009B00005E04FF48051DFF80C0B07F0ABFA01BDF6
:1009C00080B5002806D14FF40061DFF8F80A07F07F
:1009D0009EFA05E04FF40061DFF8E80A07F09AFAA2
:1009E00001BD80B5002805D14021DFF8C80607F019
:1009F0008EFA04E04021DFF8BC0607F08BFA01BD57
:100A000080B5002805D12021DFF8A80607F07FFA7D
:100A100004E02021DFF89C0607F07CFA01BD80B5D8
:100A2000002806D14FF40041DFF89C0A07F06FFA66
:100A300005E04FF40041DFF8900A07F06BFA01BDC2
:100A400080B5002806D14FF48061DFF8780A07F0FE
:100A50005EFA05E04FF48061DFF8680A07F05AFAA1
:100A600001BD80B5002806D14FF40071DFF8540AAB
:100A700007F04DFA05E04FF40071DFF8480A07F07F
:100A800049FA01BD80B5002805D10821DFF82C0AFC
:100A900007F03DFA04E00821DFF8200A07F03AFAEF
:100AA00001BD80B5002805D10121DFF8140A07F047
:100AB0002EFA04E00121DFF8080A07F02BFA01BD45
:100AC00080B5002805D10221DFF8F40907F01FFAEC
:100AD00004E00221DFF8E80907F01CFA01BD80B547
:100AE00000280DD10821DFF8E00907F010FADFF83F
:100AF000040B007810F0FE00DFF8F81A08700CE024
:100B00000821DFF8C40907F005FADFF8E80A0078E1
:100B100050F00100DFF8DC1A087001BD80B5002834
:100B200005D10421DFF8A00907F0F1F904E0042160
:100B3000DFF8940907F0EEF901BD80B500280ED169
:100B40004FF48051DFF8740907F0E1F9DFF8A40AE7
:100B5000007810F0FD00DFF89C1A08700DE04FF4EB
:100B60008051DFF8580907F0D5F9DFF8880A0078D6
:100B700050F00200DFF87C1A087001BD80B5002833
:100B800006D14FF40051DFF8340907F0C0F905E051
:100B90004FF40051DFF8240907F0BCF901BD80B51E
:100BA00000280ED14FF48051DFF8140907F0AFF997
:100BB000DFF8400A007810F0FB00DFF8381A087000
:100BC0000DE04FF48051DFF8F80807F0A3F9DFF8E3
:100BD000240A007850F00400DFF8181A087001BDEC
:100BE00080B5002806D14FF40051DFF8D40807F093
:100BF0008EF905E04FF40051DFF8C40807F08AF9D8
:100C000001BD80B5002806D14FF48041DFF8B80857
:100C100007F07DF905E04FF48041DFF8AC0807F0FC
:100C200079F901BD80B5002806D14FF40051DFF8F5
:100C3000980807F06CF905E04FF40051DFF88808D8
:100C400007F068F901BD80B5002806D14FF4805146
:100C5000DFF8740807F05BF905E04FF48051DFF826
:100C6000680807F057F901BD00E400E080B5DFF83F
:100C700088090078012807D0DFF88009DFF8C01A5A
:100C8000097850F82100804701BD000014E000E021
:100C900018E000E09F060008AD060008BB0600084B
:100CA000D9060008F7060008DFF85409DFF84C19E8
:100CB0000860DFF85009DFF844194860DFF8480998
:100CC000DFF838198860DFF84409DFF83019C860A8
:100CD000DFF83C09DFF824190861DFF83809DFF88C
:100CE0001C194861DFF83009DFF810198861DFF856
:100CF0002C09DFF80819C861DFF82409DFF8FC18AF
:100D00000862DFF82009DFF8F4184862DFF81809F4
:100D1000DFF8E8188862DFF82C0ADFF8E018C8620C
:100D2000DFF8240ADFF8D4180863DFF8200ADFF8B8
:100D3000CC1848637047000020100020010A00080A
:100D4000E30900089D080008AB080008B90800087E
:100D5000DB080008CF070008704780B5DFF87C0B80
:100D60000078002806D0022817D004D304283BD0EE
:100D70002ED344E043E0DFF8D8090088DFF8D41927
:100D80000988884204D20320DFF8501B087003E072
:100D90000420DFF8481B087031E0DFF8B80900884C
:100DA000801EDFF8AC190988884204DB0320DFF8D5
:100DB0002C1B08700BE0DFF898090088DFF8941905
:100DC0000988884203D30420DFF8101B087016E05E
:100DD000DFF884090078002801D100F0B0FF02207C
:100DE000DFF8F81A08700AE0DFF86C0900780128CB
:100DF00001D100F09BFF0220DFF8E01A087001BD6E
:100E000018ED00E010E000E042140020DD070008CB
:100E1000FD0800081F090008410900081F0A000812
:100E2000A30A000880B5DFF834090088002846D1FD
:100E3000DFF8A80A0078002806D0022814D004D3CE
:100E4000042831D024D33AE039E0DFF804090088DF
:100E5000462804DA0320DFF8841A087003E004202F
:100E6000DFF8781A08702AE0DFF8E40800884628DE
:100E700004DB0420DFF8641A087008E0DFF8D0080B
:100E80000088452803DA0320DFF8501A087016E0BE
:100E9000DFF8CC080078002801D101F074FA0220B4
:100EA000DFF8381A08700AE0DFF8B4080078012883
:100EB00001D101F05FFA0220DFF8201A087001BDAD
:100EC000C10A0008DF0A00081D0B00083B0B0008E0
:100ED0007D0B00089F0B0008E10B0008030C0008C5
:100EE000250C0008470C0008630900088109000868
:100EF0009F090008C1090008410A0008630A0008A8
:100F0000850A000880B5DFF854080088002840F002
:100F1000CB80DFF8C8090078DFF8C4190870DFF863
:100F2000BC090078002809D0022817D007D304286C
:100F300038D025D306286DD046D3B5E0B4E0DFF82D
:100F400010080088462804DA0320DFF8901908709A
:100F500003E00220DFF884190870A5E0DFF8F80745
:100F60000078012801D100F0E1FE01F00CFA032025
:100F7000DFF83C1A08700520DFF86019087093E06C
:100F8000DFF8DC070078012801D101F0F3F900F067
:100F9000D6FE0320DFF8181A08700420DFF83C1989
:100FA000087081E0DFF8A807008846280BDB00F016
:100FB000BDFE01F0E8F90320DFF8F4190870052000
:100FC000DFF8181908706FE0DFF884070088DFF891
:100FD0008417098888421CD301F0CCF90120DFF87E
:100FE000D01908700020DFF8FC1908804FF4FA705F
:100FF000DFF8F419088041F28830DFF8F019088032
:10100000DFF8EC09DFF8EC1908600620DFF8CC18EF
:10101000087049E0DFF8DC090068002840D0DFF8FC
:1010200034070088801EDFF828170988884215DBFE
:10103000DFF82C070078002801D101F0A4F9DFF8CF
:1010400070090078012804D0DFF8640900780228CC
:101050002AD10320DFF85819087025E0DFF8F006E0
:101060000088DFF8F016098888421DD3DFF8F00603
:101070000078012801D101F07DF9DFF8340900780A
:10108000032804D0DFF82809007800280CD10120BB
:10109000DFF81C1908700020DFF84819088003E009
:1010A0000120DFF83818087001BD00003614002058
:1010B0003714002000180140381400203914002093
:1010C000704780B5DFF814080078DFF85C19087005
:1010D000DFF80808007800280AD0022812D008D3C8
:1010E00004284FD020D3062800F087806DD3A2E0DB
:1010F000A1E00020DFF8341908700220DFF8DC17C7
:10110000087098E0DFF848060088DFF8481609887C
:10111000884204D20420DFF8C417087003E00520D9
:10112000DFF8B817087086E0DFF828060088801E10
:10113000DFF81C160988884204DB0420DFF89C17BE
:1011400008701EE0DFF808060088DFF80816098836
:10115000884216D3DFF8D408007800280AD1DFF8D7
:10116000D0080078DFF8C41808700520DFF86C1785
:10117000087006E0DFF8E0050078012801D100F0F2
:10118000D5FD58E0DFF8D8050078012801D101F03D
:10119000F1F8DFF8C4050078002811D100F0CFFD88
:1011A000DFF888080078002806D0DFF8800800788B
:1011B000401EDFF8781808700520DFF82017087047
:1011C0000320DFF81817087035E0DFF88C05007889
:1011D000012801D100F0AAFDDFF88405007800287D
:1011E00001D101F0D0F84EF66020DFF80818086051
:1011F0000620DFF8E81608701DE0DFF8F807006841
:1012000000280DD0DFF84C050088801EDFF840155F
:10121000098888420FDB0420DFF8C01608700AE056
:10122000DFF83C050078012801D101F0A3F8032084
:10123000DFF8A816087001BD3A1400203B14002006
:1012400080B5DFF89806007800280AD0022815D06B
:1012500008D304286AD031D3062800F0888071D3DF
:1012600091E090E00020DFF8B01808704620DFF829
:10127000AC1808800220DFF864160870DFF8A008B8
:101280000078012812D1DFF89C08B0F90000DFF8DF
:101290008C180988884204DA0420DFF840160870A8
:1012A0000BE00520DFF83416087006E0DFF8B00424
:1012B0000078012801D101F05DF864E0DFF86008F2
:1012C000007801282AD1DFF854080088801EDFF852
:1012D0005418B1F90010884204DB0420DFF8FC1533
:1012E00008700CE0DFF83C08B0F90000DFF82C18BB
:1012F0000988884203DB0520DFF8E0150870DFF875
:1013000018080078012810D1DFF8E80600680028E6
:101310000BD10620DFF8C415087006E0DFF84004A2
:101320000078012801D101F025F82CE0DFF8300425
:101330000078002801D101F026F80320DFF89C1581
:10134000087020E0DFF818040078012801D101F0CE
:1013500011F8DFF8D407DFF89C1608600120DFF8E9
:10136000B81708700320DFF8741508700BE001202F
:10137000DFF8B81708700020DFF89C17087003200A
:10138000DFF85815087001BD80B5DFF8500500780A
:1013900000280AD002281DD008D304285AD02BD305
:1013A000062800F0828067D387E086E00020DFF81F
:1013B000681708700020DFF874170870DFF89403CE
:1013C00000881E30DFF8541708800220DFF80C1563
:1013D000087072E0DFF878030088DFF840170988AA
:1013E000884204D20420DFF8F414087003E00520DA
:1013F000DFF8E814087060E0DFF820070088801E3E
:10140000DFF84C130988884204DB0420DFF8CC1491
:1014100008700BE0DFF838030088DFF80017098850
:10142000884203D30520DFF8B4140870DFF8E8061B
:10143000007801280DD1DFF8F4060078002808D1E3
:10144000DFF8B0050068002803D10620DFF88C140F
:10145000087032E0DFF808030078012801D100F0BD
:1014600089FFBD480078002801D100F068FC032006
:10147000DFF86814087020E0B7480078012801D12F
:1014800000F054FCDFF890060078002808D1DFF85F
:101490009806DFF8601508600120DFF87C160870F8
:1014A0000320DFF83814087007E00120DFF87C160D
:1014B00008700320DFF82414087001BD00100140FB
:1014C000000C0140001C01400014014080B5DFF811
:1014D0000C040078002809D002281AD007D3042869
:1014E00054D027D306287BD061D381E080E0002050
:1014F000DFF8241608700020DFF8301608709548D1
:101500000088DFF8181608800220DFF8D013087072
:101510006EE08F480088DFF804160988884204D2FC
:101520000420DFF8B813087003E00520DFF8AC13DF
:1015300008705DE0DFF8E4050088801E84490988B2
:10154000884204DB0420DFF8941308700AE0804826
:101550000088DFF8C8150988884203D30520DFF822
:101560007C130870DFF8B005007801280DD1DFF892
:10157000BC050078002808D1DFF87804006800284E
:1015800003D10620DFF85413087031E07448007866
:10159000012801D100F0EEFE6F480078002801D14B
:1015A00000F0CDFB0320DFF83413087020E06A4818
:1015B0000078012801D100F0B9FBDFF85C05007864
:1015C000002808D1DFF86005DFF828140860012042
:1015D000DFF8441508700320DFF80013087007E0F7
:1015E0000120DFF8481508700320DFF8F0120870BA
:1015F00001BD0000DC130020B7140020C010002043
:10160000590D00085B0D0008250E0008050F0008A5
:10161000C1100008C3100008411200088913000817
:10162000CD1400082D1600086517000880B5AB48DA
:101630000078002809D002281AD007D304284FD0F8
:1016400025D3062873D05BD378E077E00020DFF85D
:10165000C81408700020DFF8D41408703D480088D2
:101660001E30DFF8B814088002209C49087065E03D
:1016700037480088DFF8A4140988884203D2042080
:101680009649087002E005209449087056E0DFF89A
:101690008C040088801E2E490988884203DB0420C0
:1016A0008E49087009E02A480088DFF8701409881C
:1016B000884202D3052089490870DFF85C0400786D
:1016C00001280CD1DFF864040078002807D1DFF886
:1016D00024030068002802D10620804908702DE00C
:1016E0001F480078012801D100F044FE1A48007814
:1016F000002801D100F023FB0320784908701DE089
:1017000015480078012801D100F010FBDFF808042B
:101710000078002807D1DFF81004B64908600120DE
:10172000DFF8F413087003206C49087006E001200C
:10173000DFF8F813087003206849087001BD000045
:10174000A0140020E5180008F9190008B5190008D0
:10175000E8130020041400208C140020DA13002069
:101760009214002080B5DFF8E4060088002840F0DD
:10177000B4805A48007800280ED0022811D00CD32B
:10178000042856D03CD306287AD064D3082800F029
:101790009F80C0F09080A0E09FE002204F49087039
:1017A0009BE0DFF8AC060088DFF8A81609888842BD
:1017B00003D204204949087021E0DFF89C06B0F903
:1017C0000000002818D0DFF888060088DFF88416AB
:1017D000098888420CD3DFF878060088DFF878168D
:1017E000B1F90010884203DA07203C49087006E08E
:1017F00008203A49087002E00520384908706CE07A
:10180000DFF850060088801EDFF8441609888842F9
:1018100003DB0420314908700AE0DFF83406008851
:10182000DFF830160988884202D305202B4908705A
:1018300053E0DFF828060078012801D100F09AFD76
:10184000DFF81C060078002801D100F078FA0320A8
:101850002249087041E0DFF808060078012801D12C
:1018600000F064FADFF8F005B0F90000002803D1B9
:1018700003201A49087002E00720184908702CE07C
:10188000DFF8D405B0F90000801EDFF8C415098820
:10189000884203DB0720114908700BE0DFF8B00530
:1018A0000088DFF8B415B1F90010884202DB082087
:1018B0000A49087011E0DFF8A8050078012801D175
:1018C00000F034FA00F05FFD06200449087004E0DF
:1018D00000F050FD06200149087001BDA114002050
:1018E0003C14002080B5DFF86405008800285ED134
:1018F000DFF8AC0A0078002808D002280CD006D304
:10190000042836D01AD3052846D050E04FE00220F4
:10191000DFF88C1A08704AE0DFF834050088DFF839
:1019200034150988884204D20420DFF8741A08703C
:1019300003E00520DFF8681A087038E0DFF81405C6
:101940000088801EDFF808150988884204DB04201F
:10195000DFF84C1A08700BE0DFF8F4040088DFF8B9
:10196000F4140988884203D30520DFF8341A08707C
:101970001DE0DFF8E8040078012801D100F0FAFC4E
:10198000DFF8DC040078002801D100F0D8F903204A
:10199000DFF80C1A08700AE0DFF8C40400780128A8
:1019A00001D100F0C3F90320DFF8F419087001BD7C
:1019B000B614002080B5DFF8A8040078012801D112
:1019C00000F0B4F9DFF894040078012801D100F0A8
:1019D000D1FC0020DFF8981908700120DFF8C01949
:1019E000087001BD221400202414002026140020B9
:1019F000E09304008413002080B5DFF864040078CD
:101A0000012801D100F092F9DFF850040078012894
:101A100001D100F0AFFC0020DFF85419087000205D
:101A2000DFF87C19087001BD3E1400203D14002031
:101A30009F14002080B500F0DDFF01F09AFD00F05A
:101A4000EDFEDFF86839002247F60101062002F0BA
:101A5000D9FA0821DFF8540906F013FBDFF85039F2
:101A6000002247F60101062002F0CCFA0821DFF837
:101A7000400906F01DFB082003F0A4FF072003F037
:101A8000A1FF01F0CFF901F073FD01F043FA01F07D
:101A900015FB01F0E5FB01F0DFFC02F085FB01F036
:101AA00097FE02F0ADF902F053FC03F0CBFD03F01A
:101AB000CDFD03F0DDFD03F0C3FE03F007FF00F0F2
:101AC000D1F900F054F900F083FC00F001FE04F0BD
:101AD000FFF900F05BFE05F08DF803F037FF04F02E
:101AE000FDFC04F027FD04F08DFD04F028FFDFF875
:101AF000940C007804F08CFF05F0E6F805F0FAFC91
:101B000006F056F800F014F806F015F806F0DCF8C8
:101B1000FFF7ACF8B5E700003F140020D413002015
:101B200041140020F4130020C027090040140020B5
:101B300010B5DFF880080078002812D1DFF87808A7
:101B40000078022803D00220DFF870180870DFF850
:101B500070080078022803D00220DFF868180870A7
:101B600093E0DFF844080078C0F30010C0B200280A
:101B700049D0DFF8800C0078012840F086800024EE
:101B80001BE0DFF84408007821002039084110F0FC
:101B90000100DFF8381851F8241088470CE0202C99
:101BA000EFDADFF80C0B0068E04010F00100DFF81E
:101BB0001C1851F824108847641CDFF8F80A0078D4
:101BC0008442ECDBDFF8F00A0078012801D100F054
:101BD000B6F8DFF8E80A0078012801D100F0D3FB5D
:101BE000DFF8DC0A0078DFF8DC1A08700020DFF884
:101BF000D81A08700220DFF8CC1708700020DFF830
:101C0000F41B087041E0DFF8EC0B007800283CD1B1
:101C1000DFF890070068DFF8981A0860DFF8AC0A70
:101C20000078DFF8A4170870DFF8980A0078DFF86A
:101C3000901A08708A480078DFF87C1A0870874884
:101C40000078DFF8781A087085480078012801D1FB
:101C500000F06CF881480078012801D100F08AFB7F
:101C6000DFF8600A0078012803D10120DFF8181B93
:101C700008700120DFF84C1708700220DFF83C17CD
:101C800008700120DFF86C1B087010BDC0B200287E
:101C900002D0012805D008E00220DFF8D416087031
:101CA00003E00320DFF8C81608700120DFF8F01603
:101CB00008700020654908800120DFF800170870CF
:101CC0000120DFF81C1D087070470D20DFF8A016FA
:101CD00008700220DFF8E41608700320DFF8181BF4
:101CE00008707047DFF8141B08700120DFF8B01689
:101CF00008700020554908800120DFF8C0160870E0
:101D00000520DFF86C16087070470020DFF8EC1A29
:101D100008700D20DFF8581608700320DFF8D81A75
:101D200008700220DFF89416087070470120DFF871
:101D3000D01A08700020DFF8CC1A0870704780B500
:101D40000120474908700020DFF8BC1A087043489A
:101D50000078012801D100F00DFB01BD0120DFF862
:101D6000AC1A08700020DFF87C1C0870704780B542
:101D7000DFF88C0A0078002867D0DFF8880A00783E
:101D8000002802D0012849D05FE0002034490870C3
:101D9000DFF87C0A0078C0F3C000C0B2002807D08A
:101DA000002005F0C8FF0020DFF8541A08704CE04E
:101DB0000020DFF81816096D88470020DFF80C16A0
:101DC000C96C88470120DFF80416496E8847002057
:101DD000DFF8F815896D88470020DFF8F015496DA8
:101DE00088470120DFF8E415896E8847DFF8240A68
:101DF000807802F07BF8DFF81C0A407902F08CF85A
:101E0000DFF8100A017A4FF47A704143DFF8080ACC
:101E100001800120DFF8EC19087016E0DFF8F809FE
:101E20000088002811D10020DFF8A015496E8847EE
:101E30000020DFF89815896E88470020DFF8C41964
:101E400008700020DFF8B819087001BDDA1300200F
:101E5000E8130020041400201E1400209214002017
:101E60008C14002080B5DFF8800C0078002800F08A
:101E70007E82DFF89409007800281BD0022844D025
:101E800035D3042800F0F88077D3062800F04A8183
:101E9000C0F00F81082800F07481C0F0C4810A28C6
:101EA00000F04682C0F030820C2800F05C82C0F066
:101EB00059825CE2DFF858090078C0F3C000C0B274
:101EC000002807D0012005F036FF0A20DFF8381976
:101ED00008700BE0DFF8100B007810F0F700DFF867
:101EE000081B08700120DFF8201908703FE24FF44A
:101EF000FA70DFF8F81A08800220DFF80C19087071
:101F00000220DFF8EC1A087031E2DFF8E00A0088FE
:101F1000002840F02C820020DFF8B014096D8847BB
:101F20000020DFF8A814C96C88470020DFF89C1453
:101F3000896D88470020DFF89414496D8847012097
:101F4000DFF88814496E88470120DFF88014896E15
:101F50008847DFF8C008007801F0C8FFDFF8B40850
:101F6000C07801F0D9FF40F6B830DFF8801A088059
:101F70000320DFF894180870F9E1DFF8700A008890
:101F8000002840F0F481DFF88808007810F00300A2
:101F9000012827D1DFF810044078C0F34000C0B218
:101FA00000280CD0DFF8440B007850F04000DFF838
:101FB0003C1B08700C20DFF8501808705BE0012013
:101FC000DFF80814096D8847DFF8480881794FF475
:101FD0007A704143DFF8140A01800420DFF82818E2
:101FE000087048E0DFF82808007810F003000328A4
:101FF00041D1DFF8B403407810F0060F24D0DFF8A9
:10200000A8034078C0F34000C0B2002807D0DFF832
:10201000DC0A007850F04000DFF8D01A0870DFF8D2
:1020200088034078C0F38000C0B2002807D0DFF8F2
:10203000BC0A007850F08000DFF8B01A08700C205D
:10204000DFF8C417087016E00120DFF88013096D6F
:1020500088470120DFF87413896D8847DFF8B407DB
:1020600081794FF47A704143DFF8800901800420C0
:10207000DFF8941708707AE1DFF87009008800280B
:1020800040F075810120DFF84413C96C88470120B6
:10209000CE49496D8847DFF87C07C1794FF47A70E3
:1020A0004143DFF8480901800520DFF85C1708701C
:1020B0005DE1DFF83809008800282ED0DFF85007EE
:1020C000007810F00300012810D1B7484078C0F321
:1020D0004000C0B2002824D00620DFF82C1708707A
:1020E0004FF47A70DFF8041908801AE0DFF820074F
:1020F000007810F00300032813D1AB48407810F0AB
:10210000060006280DD10620DFF8FC1608704FF4F3
:102110007A70DFF8D818088003E00820DFF8E816A6
:10212000087024E1DFF8C4080088002824D0DFF814
:10213000E006007810F0030001280BD19A4840789F
:10214000C0F34000C0B200281AD10820DFF8B8164A
:10215000087015E0DFF8B806007810F003000328D7
:102160000ED19148407810F00600062808D00820CB
:10217000DFF89416087003E00920DFF88C16087069
:10218000F5E0DFF86C08007800280BD0DFF8600875
:102190000078401EDFF8581808700220DFF8681633
:1021A00008703FE0DFF86806007810F003000128AF
:1021B0000FD17D484078C0F34000C0B200282DD137
:1021C000DFF82809407850F00200DFF82019487045
:1021D00024E0DFF83C06007810F0030003281DD14E
:1021E00071484078C0F34000C0B2002807D1DFF842
:1021F000FC08407850F00200DFF8F01848706A4898
:102200004078C0F38000C0B2002807D1DFF8DC08B6
:10221000407850F00400DFF8D41848700720DFF849
:10222000E8150870A3E000206849096D8847002080
:102230006649C96C884700206449896D8847002039
:102240006249496D8847FFF771FDDFF8C4050078E2
:1022500010F00300012819D1DFF88C070078C0F3D3
:10226000C000C0B2002808D0DFF88008007850F025
:102270000800DFF87818087041E0DFF8700800788F
:1022800050F00100DFF86418087038E0DFF88005CE
:10229000007810F00300032831D1DFF84C070078F4
:1022A000C0F3C000C0B2002808D0DFF840080078B2
:1022B00050F00800DFF83418087007E0DFF82C0849
:1022C000007850F00100DFF824180870DFF81807D4
:1022D0000078C0F30010C0B2002808D0DFF80C0866
:1022E000007850F01000DFF80418087007E0DFF8FD
:1022F000FC07007850F00200DFF8F01708700C209F
:10230000DFF80415087032E0DFF80805407801F0C6
:10231000EDFDDFF80005007901F0FEFD4FF4FA60F5
:10232000DFF8C81608800A20DFF8DC1408701EE009
:10233000DFF8B8060088002819D100202349096D6C
:10234000884700202149896D8847DFF89C0600787E
:1023500050F00800DFF8901608700B20DFF8A81482
:10236000087004E003E00020DFF87C17087001BD6E
:10237000A01400200120DFF8841B08700020DFF883
:10238000381D087070470120DFF8741B08700120A9
:10239000DFF84C1608700020DFF8681B08707047E3
:1023A000A1140020B0130020D8130020E011002059
:1023B000481200209C140020AC140020AB14002014
:1023C000AE140020AD1400207C140020201000204A
:1023D00080B5DFF82C0B0078002800F06881DFF86A
:1023E000240B007800281BD0022854D045D30428A1
:1023F00000F0A38073D3062800F0D480C0F0B6802C
:10240000082800F0E680C0F0FA800A2800F0358144
:10241000C0F024810C2800F04681C0F0438146E1E1
:10242000DFF8EC030078C0F38000C0B200280CD0C5
:10243000DFF8B405007810F0DF00DFF8AC150870A5
:102440000120DFF8C01A087016E0DFF8C403007836
:10245000C0F30010C0B200280ED0012005F088FCA7
:10246000DFF88405007850F02000DFF87C15087054
:102470000B20DFF8901A087019E14FF4FA70DFF8BA
:10248000881A08800220DFF87C1A08700220DFF822
:102490007C1A08700BE1DFF8700A0088002840F011
:1024A00006810020DFF8A01B096E88470020DFF8B6
:1024B000981BC96D88470120DFF88C1BC96E8847BF
:1024C000DFF8880B007801F03FFD40F6B830DFF808
:1024D000381A08800320DFF82C1A0870E7E0DFF8CC
:1024E000280A0088002840F0E2800120DFF8581B0D
:1024F000096E8847DFF8540BC1784FF47A70414376
:10250000DFF8040A0180DFF8640B4078C0F3C000F4
:10251000C0B200280CD0DFF8D405407850F001009C
:10252000DFF8C81548700C20DFF8D819087003E0F0
:102530000420DFF8D0190870B9E0DFF8CC09008872
:10254000002840F0B4800120DFF8FC1AC96D8847EC
:10255000DFF8F80A01794FF47A704143DFF8A809EF
:1025600001800520DFF89C190870A0E0DFF89809C9
:102570000088002811D0DFF8F40A4078C0F3C000CA
:10258000C0B200280DD00620DFF8781908704FF48B
:102590007A70DFF87419088003E00820DFF8641906
:1025A000087084E0DFF86009008800280CD0DFF8AC
:1025B000BC0A4078C0F3C000C0B2002808D108208F
:1025C000DFF84019087003E00920DFF838190870B7
:1025D0006DE0DFF83809007800280BD0DFF82C090F
:1025E0000078401EDFF8241908700220DFF8141963
:1025F000087003E00720DFF80C19087057E000208E
:10260000DFF8441A096E88470020DFF83C1AC96DCC
:102610008847DFF8E8080078002801D1FFF7AAFE14
:10262000DFF8C4030078C0F34010C0B2002808D01F
:10263000DFF8B804007850F02000DFF8B01408701C
:1026400007E0DFF8A804007850F00400DFF89C14DD
:1026500008700C20DFF8AC18087028E0DFF8EC09EF
:10266000407801F071FC4FF4FA60DFF89C180880A4
:102670000A20DFF89018087019E0DFF88C0800884D
:10268000002814D10020DFF8C019096E8847D64809
:10269000007850F02000D44908700B20DFF864184F
:1026A000087004E003E00020DFF85418087001BD52
:1026B000B4130020421400208D1400209314002035
:1026C00088140020871400208A1400207B14002026
:1026D00080B5DFF828080078002851D0DFF8D80945
:1026E0000078002802D0012838D049E00020DFF827
:1026F0001018087046480078C0F38000C0B2002867
:102700001DD00020DFF84019096E88470020DFF84F
:102710003819C96D88470120DFF82C19C96E884720
:10272000DFF82809807801F00FFCDFF820094179F3
:102730004FF47A704143DFF81C0B018009E0344804
:102740000078C0F30010C0B2002802D0002005F0CD
:102750000FFB0120DFF86019087011E0DFF8F40AC0
:10276000008800280CD10020DFF8DC18C96E8847EB
:102770000020DFF8441908700020DFF88017087087
:1027800001BD0000A41400208914002080B5DFF8EA
:10279000C80A007800282CD091480078002828D05A
:1027A000DFF8C808007810F0010000280ED00020E3
:1027B000DFF89418096988474FF4FA60DFF89C1A2B
:1027C00008800120DFF8401C087012E00120DFF8CB
:1027D000781809698847DFF8300C0078012808D19B
:1027E000DFF8780A0088002803D10020DFF8181CE1
:1027F000087001BDB7140020B61400209F140020FB
:1028000090140020911400208E14002098140020B1
:1028100012140020681300200614002010B5FDF7E4
:10282000B4FCFEF741FA002406E00020DFF8181897
:1028300051F824108847641CDFF84C0B0078844260
:10284000F3DB4FF40051DFF8540B05F063FB4FF45A
:102850000041DFF8480B05F05AFB4FF48061DFF8C8
:102860003C0B05F057FB4FF48051DFF8300B05F0BF
:102870004EFB8021DFF8240B05F04CFB4FF4007178
:10288000DFF8180B05F043FB1021DFF8100B05F003
:1028900041FB4021DFF8040B05F039FB41F28830A1
:1028A00000F002FF0A2001F021FB142001F034FBAC
:1028B0001E2001F049FB0120DFF8001B08700120F9
:1028C000DFF8481B08700120DFF8441B0870012066
:1028D000DFF8401B08706420DFF83C1B08706420A0
:1028E000DFF8381B08706420DFF8341B08706420A0
:1028F000DFF8301B08701B20DFF82C1B0870342019
:10290000DFF8241B48703420DFF81C1B8870262059
:10291000DFF8141BC8704A20DFF80C1B08714A202E
:10292000DFF8041B48710320DFF8FC1A88710320CC
:10293000DFF8F41AC8710520DFF8EC1A08722720B6
:10294000DFF8081708704820DFF8001748704820A3
:10295000DFF8F81688700320DFF8F016C87003203F
:10296000DFF8E81608710520DFF8E016487101204D
:10297000DFF8B81A08700120DFF8B41A08700120D7
:10298000DFF8B01A08700120DFF8AC1A08700120D7
:10299000DFF8A81A08700120DFF8A41A08700120D7
:1029A000DFF8A01A08700120DFF89C1A08700120D7
:1029B000DFF8981A08700120DFF8941A08700120D7
:1029C000DFF8901A08700120DFF89C1B08700120C6
:1029D000DFF8981B08700020DFF83415087010BD70
:1029E000A214002099140020DC13002002140020FF
:1029F0008F14002080B505F08DFB5FF4803005F06A
:102A0000B9FB05F0E1FBDFF8941C0870DFF88C0CD3
:102A10000078012824D1002005F011FC002005F0E9
:102A200022FC4FF4806005F014FC102005F006FD38
:102A3000022005F0F7FC5FF4E0115FF4803005F050
:102A4000DFFB012005F0E8FB392005F0ADFC002894
:102A5000FAD0022005F0E4FB05F0ECFB0828FBD1DE
:102A60000121042005F080FC0121082005F07CFCF8
:102A70000121102005F078FC0121202005F074FCD4
:102A80000121402005F070FC0121802005F06CFC44
:102A900001214FF4807005F067FC01214FF4804064
:102AA00005F062FC01215FF4003005F06DFC0121AE
:102AB0005FF4802005F068FC01215FF4002005F040
:102AC00063FC0121012005F03FFC01214FF400507F
:102AD00005F04AFC00F00CF805F020FA00F051F97E
:102AE00000F041F901BD00008C140020DA13002031
:102AF00080B54FF4E070ADF8000018208DF80300A9
:102B000003208DF802006946DFF8940B05F092F976
:102B10004BF2D060ADF8000010208DF803000320C8
:102B20008DF802006946DFF8740805F083F944F671
:102B30002010ADF8000048208DF8030003208DF828
:102B400002006946DFF8540805F074F94FF400708C
:102B5000ADF8000018208DF8030003208DF8020066
:102B60006946DFF8400B05F065F94FF48060ADF879
:102B7000000004208DF803006946DFF8280B05F0FB
:102B800059F90420ADF8000018208DF80300032047
:102B90008DF802006946DFF80C0B05F04BF90820B0
:102BA000ADF8000004208DF803006946DFF8F40A50
:102BB00005F040F94FF48060ADF8000018208DF862
:102BC000030003208DF802006946DFF8AC0B05F026
:102BD00031F94FF40060ADF8000004208DF80300D7
:102BE0006946DFF8940B05F025F94FF48060ADF8E5
:102BF000000018208DF8030003208DF802006946BC
:102C0000DFF89C0A05F016F94FF40060ADF80000FB
:102C100004208DF803006946DFF8840A05F00AF9FC
:102C20004FF6FF70ADF8000010208DF80300032070
:102C30008DF802006946DFF8440B05F0FBF84FF20F
:102C40000C00ADF8000010208DF8030003208DF873
:102C500002006946DFF8280B05F0ECF84FF47F60BE
:102C6000ADF8000048208DF8030003208DF8020025
:102C70006946DFF80C0B05F0DDF843F20300ADF810
:102C8000000010208DF8030003208DF80200694633
:102C9000DFF8E40A05F0CEF84FF44340ADF8000049
:102CA00048208DF8030003208DF802006946DFF804
:102CB000C80A05F0BFF84FF44050ADF800001020EE
:102CC0008DF8030003208DF802006946DFF8D00973
:102CD00005F0B0F84FF46040ADF8000010208DF81A
:102CE000030003208DF802006946DFF8980A05F01A
:102CF000A1F80320ADF8000048208DF80300032060
:102D00008DF802006946DFF8940605F093F8182064
:102D1000ADF8000010208DF8030003208DF80200AC
:102D20006946DFF87C0905F085F84FF4F050ADF8FE
:102D3000000010208DF8030003208DF80200694682
:102D4000DFF8400A05F076F80420ADF80000102006
:102D50008DF8030003208DF802006946DFF8180A99
:102D600005F068F801BD80B548F6A040FDF7F3F91D
:102D7000002800D0FEE700215FF0FF30FDF7D8F912
:102D800001BD80B54FF4E06005F06AFB0B208DF8C3
:102D9000000000208DF8010000208DF802000120C5
:102DA0008DF80300684605F060FB25208DF80000D3
:102DB00000208DF8010001208DF8020001208DF81F
:102DC0000300684605F051FB26208DF80000002026
:102DD0008DF8010002208DF8020001208DF803001B
:102DE000684605F042FB27208DF8000000208DF892
:102DF000010003208DF8020001208DF803006846D1
:102E000005F033FB34208DF8000000208DF8010020
:102E100004208DF8020001208DF80300684605F0BB
:102E200024FB01BDDFF86009008800281BD1DFF812
:102E30005C09006890F40040DFF850190860DFF882
:102E40004C09006890F48040DFF840190860DFF812
:102E50003C09006890F40050DFF8301908606420E5
:102E6000DFF824190880704780B51F20DFF820198B
:102E700008704FF40041DFF8240505F04BF801BD60
:102E800080B54FF40041DFF8140505F040F801BDAE
:102E900080B54FF40051DFF8040505F03BF801BDA3
:102EA00080B54FF40051DFF8F40405F030F801BDAF
:102EB00080B54FF48041DFF8E40405F01DF80028E8
:102EC0000DD0DFF8D00801680122DFF8C40890F9BE
:102ED000000082401143DFF8BC0801600CE0DFF81D
:102EE000B40801680122DFF8A80890F900008240C8
:102EF0009143DFF8A008016001BD00009614002096
:102F0000921400209414002008140020951400202E
:102F1000A214002080B5DFF800050078002840F0FA
:102F20008080DFF874080078002802D1FFF79CFF4A
:102F30001CE0DFF864080178032291FBF2F002FB49
:102F40001010C0B2002808D0022803D00ED2FFF71C
:102F5000A7FF0BE0FFF7ACFF08E0FFF799FFDFF8F2
:102F600030080078401EDFF828180870DFF82008C5
:102F700090F9000000284DD5FFF782FF0020DFF810
:102F800018180870DFF80C080068DFF810180860DF
:102F9000DFF808080068800CDFF804180880DFF804
:102FA0000008B0F90000042190FBF1F0DFF8F01701
:102FB0000880DFF8EC070088DFF8E817DFF8E8277B
:102FC000127821F81200DFF8E0070078401CDFF8E3
:102FD000D8170870DFF8D00700780A2803DB002034
:102FE000DFF8C41708700021002205E0DFF8B407FD
:102FF00030F812004118521C0A2AF7DB89B20A2065
:1030000091FBF0F0DFF8A41708806420DFF80814C3
:10301000087006E0DFF880070078401CDFF87817BA
:10302000087001BD80B51F20DFF8841708704FF4C9
:103030008051DA4804F06EFF01BD80B54FF4805135
:10304000D64804F064FF01BD201000207C1300204E
:1030500080B54FF48061D14804F05CFF01BD80B5BC
:103060004FF48061CD4804F052FF01BDD813002019
:1030700080B54FF40061C94804F03EFF00280DD030
:10308000DFF8300701680122DFF8240790F900001B
:1030900082401143DFF81C0701600CE0DFF81407E1
:1030A00001680122DFF8080790F90000824091438F
:1030B000DFF80007016001BD9714002080B5D748F4
:1030C0000078002840F07F80DFF8100D007800289D
:1030D00002D1FFF7A7FF1CE0DFF8000D0178032203
:1030E00091FBF2F002FB1010C0B2002808D00228B9
:1030F00003D00ED2FFF7B3FF0BE0FFF7B9FF08E0F4
:10310000FFF7A6FFDFF8A8060078401EDFF8A0163C
:103110000870DFF89C0690F9000000284CD5FFF7F6
:103120008CFF0020DFF8B41C0870DFF88806006808
:10313000DFF884160860DFF880060068800CDFF88E
:103140007C160880DFF87406B0F90000042190FBBB
:10315000F1F0DFF868160880DFF860060088DFF815
:103160006016DFF86026127821F81200DFF85406A6
:103170000078401CDFF84C160870DFF8480600782D
:103180000A2803DB0020DFF83C160870002100222B
:1031900005E0DFF82C0630F812004118521C0A2A0C
:1031A000F7DB89B20A2091FBF0F0DFF81C160880EB
:1031B00064209A49087006E0DFF8200C0078401C73
:1031C000DFF8181C087001BD80B51F20DFF8FC1562
:1031D00008704FF40071DFF8080C04F09BFE01BD8D
:1031E00080B54FF40071DFF8F80B04F090FE01BDDC
:1031F00080B58021DFF8E80B04F08CFE01BD80B5BE
:103200008021DFF8DC0B04F082FE01BD80B54FF4B5
:103210008071624804F070FE00280DD0DFF8C40B06
:1032200001680122DFF8A40590F9000082401143F3
:10323000DFF8B00B01600CE0DFF8A80B0168012299
:10324000DFF8880590F9000082409143DFF8940B85
:10325000016001BD0A1400209C1400201C140020F1
:1032600080B56F480078002840F08180DFF8040DB9
:103270000078002802D1FFF7A7FF1CE0DFF8F40C6C
:103280000178032291FBF2F002FB1010C0B200287B
:1032900008D0022803D00ED2FFF7B1FF0BE0FFF7F2
:1032A000B5FF08E0FFF7A4FFDFF820050078401E17
:1032B000DFF818150870DFF8140590F900000028F1
:1032C0004ED5FFF78DFF0020DFF8A81C0870DFF84F
:1032D000140B0068DFF8101B0860DFF80C0B0068A7
:1032E000800CDFF8081B0880DFF8000BB0F9000045
:1032F000042190FBF1F0DFF8F41A0880DFF8EC0A03
:10330000B0F90000401DDFF8E81ADFF8E82A12786B
:1033100021F81200DFF8DC0A0078401CDFF8D41A2C
:103320000870DFF8D00A00780A2803DB0020DFF8F5
:10333000C41A08700021002205E0DFF8B40A30F852
:1033400012004118521C0A2AF7DB89B20A2091FBAD
:10335000F0F0DFF8A41A088064203149087006E014
:10336000DFF8100C0078401CDFF8081C087001BD65
:1033700080B51F20DFF8841A08704021DFF8600A4A
:1033800004F0C8FD01BD00004214002080B54021BA
:10339000DFF84C0A04F0BBFD01BD00000020014035
:1033A00080B51021DFF8380A04F0B4FD01BD80B506
:1033B0001021DFF82C0A04F0AAFD01BDBB14002087
:1033C00080B52021DFF8180A04F096FD00280DD002
:1033D000DFF8A40B01680122DFF8200A90F9000051
:1033E00082401143DFF8900B01600CE0DFF8880B9E
:1033F00001680122DFF8040A90F90000824091433D
:10340000DFF8740B016001BDA3140020C21400207A
:10341000C9140020D01400206D1400207114002065
:103420007514002079140020681300204514002032
:10343000481400204B140020511400204E1400208A
:1034400054140020571400205A1400205D1400204A
:10345000601400206314002080B5DFF8E80A0078CB
:10346000002840F08080DFF8500C0078002802D15E
:10347000FFF77EFF1CE0DFF8400C0178032291FB90
:10348000F2F002FB1010C0B2002808D0022803D0CE
:103490000ED2FFF78CFF0BE0FFF792FF08E0FFF77B
:1034A0007FFFDFF858090078401EDFF850190870D8
:1034B000DFF8480990F9000000284DD5FFF766FFB6
:1034C0000020DFF8F41B0870DFF8AC0A0068DFF8B2
:1034D000AC1A0860DFF8A40A0068800CDFF8A01AB4
:1034E0000880DFF89C0AB0F90000042190FBF1F09D
:1034F000DFF88C1A0880DFF8880A0088DFF8841A61
:10350000DFF8842A127821F81200DFF87C0A0078AC
:10351000401CDFF8741A0870DFF86C0A00780A287B
:1035200003DB0020DFF8601A08700021002205E0AC
:10353000DFF8500A30F812004118521C0A2AF7DB53
:1035400089B20A2091FBF0F0DFF8741A0880642039
:10355000DFF8F019087006E0DFF85C0B0078401C1B
:10356000DFF8541B087001BD6614002069140020A8
:10357000704700B591B00720ADF8000003208DF82A
:10358000020000208DF803006946454804F052FC13
:103590000121012004F0D8FE4FF4004004F06DFE3C
:1035A00001214FF4007004F0DFFEDFF84C0A04F054
:1035B00099FFDFF8480A0690DFF8440A07900020D8
:1035C00008900320099000200A9080200B904FF46F
:1035D00000700C904FF400600D9020200E904FF47E
:1035E00000500F900020109006A9DFF80C0A04F09C
:1035F000FDFF0121DFF8000A05F016F80020019018
:1036000001208DF8080001208DF809005FF460208A
:1036100003900020049003208DF8140001A9DFF826
:103620006C0B05F049F8052301220A21DFF85C0B39
:1036300005F0ACF8052302220B21DFF8500B05F052
:10364000A5F8052303220C21DFF8400B05F09EF8B6
:103650000121DFF8380B05F061F80121DFF82C0BB0
:1036600005F04FF8DFF8240B05F065F8DFF81C0BC8
:1036700005F066F80028F9D1DFF8100B05F06AF8BC
:10368000DFF8080B05F06BF80028F9D10121DFF80D
:10369000FC0A05F06EF811B000BD00001A00002011
:1036A000001001400008014000B587B0DFF80C1A97
:1036B000B1FBF0F0DFF8081A08600020ADF8160042
:1036C0000020ADF81200DFF8F8090068401EADF8E0
:1036D00014000020ADF8100000208DF8180004A997
:1036E000DFF8640B05F0BCF86020ADF800000020A6
:1036F000ADF80C000020ADF808000020ADF80E0079
:103700000020ADF80A000120ADF802000020ADF85D
:1037100004000020ADF806006946DFF82C0B05F028
:10372000BAF86946DFF8200B05F0EEF86946DFF8D5
:10373000180B05F029F90021DFF80C0B05F095F9BD
:103740000021DFF8040B05F099F90021DFF8F80AF1
:1037500005F09DF90021DFF8F00A05F078F9012164
:10376000DFF8E40A05F054F90121DFF8DC0A05F07E
:103770005DF907B000BD0000000C014000180140D9
:1037800000140140001C0140D61300200C1C014015
:103790006B140020941300206C1400209013002060
:1037A000DE1300200C1300206E140020E013002014
:1037B0006F1400209C13002098130020E2130020B7
:1037C0002013002072140020E41300207314002042
:1037D00080B5DFF8780A0078002840F0FE821021DA
:1037E000DFF86C0A04F088FB002822D1DFF8A0097A
:1037F000007800282DD0DFF89C090078152810DB10
:103800000120DFF894190870DFF8480A007850F0BA
:103810000100DFF8401A08700020DFF87419087002
:1038200017E0DFF870090078401CDFF868190870AD
:103830000FE0DFF8200A007810F0FE00DFF8141A1D
:1038400008700020DFF84C1908700120DFF84019DB
:1038500008702021DFF8F80904F04EFB002822D17F
:10386000DFF83809007800282DD0DFF83409007817
:10387000152810DB0120DFF82C190870DFF8D409B7
:10388000007850F00200DFF8CC1908700020DFF853
:103890000C19087017E0DFF808090078401CDFF801
:1038A000001908700FE0DFF8AC09007810F0FD0097
:1038B000DFF8A01908700020DFF8E4180870012074
:1038C000DFF8D81808704021DFF8840904F014FBF1
:1038D000002822D1DFF88009007800282DD0DFF8F9
:1038E0007C090078152810DB0120DFF874190870B6
:1038F000DFF86009007850F00400DFF8581908700C
:103900000020DFF85419087017E0DFF8500900783C
:10391000401CDFF8481908700FE0DFF8380900781C
:1039200010F0FB00DFF82C1908700020DFF82C19CC
:1039300008700120DFF8201908708021DFF81009D5
:1039400004F0DAFA002822D1DFF8180900780028FC
:103950002DD0DFF814090078152810DB0120DFF8DE
:103960000C190870DFF8EC08007850F00800DFF858
:10397000E41808700020DFF8EC18087017E0DFF892
:10398000E8080078401CDFF8E01808700FE0DFF866
:10399000C408007810F0F700DFF8B81808700020AD
:1039A000DFF8C41808700120DFF8B81808704FF469
:1039B0008071DFF89C0804F09FFA002822D1DFF81C
:1039C000B008007800282DD0DFF8A8080078152866
:1039D00010DB0120DFF8A0180870DFF87808007805
:1039E00050F01000DFF86C1808700020DFF8801825
:1039F000087017E0DFF87C080078401CDFF87418C6
:103A000008700FE0DFF84C08007810F0EF00DFF8E6
:103A1000441808700020DFF85C1808700120DFF8F7
:103A2000501808704FF40071DFF8240804F064FAAD
:103A3000002822D1DFF84408007800282DD0DFF8D4
:103A400040080078152810DB0120DFF838180870CE
:103A5000DFF80008007850F02000DFF8F817087051
:103A60000020DFF81818087017E0DFF81408007855
:103A7000401CDFF80C1808700FE0DFF8D80700785A
:103A800010F0DF00DFF8CC1708700020DFF8F01727
:103A900008700120DFF8E41708704FF48061DFF848
:103AA000B00704F029FA002822D1DFF8DC070078FB
:103AB00000282DD0DFF8D4070078152810DB01206E
:103AC000DFF8CC170870DFF88C07007850F0400062
:103AD000DFF8801708700020DFF8AC17087017E0D7
:103AE000DFF8A8070078401CDFF8A01708700FE087
:103AF000DFF86007007810F0BF00DFF85817087093
:103B00000020DFF8881708700120DFF87C170870A4
:103B10004FF40071DFF87C0704F0EEF9002822D1A1
:103B2000DFF87407007800282DD0DFF870070078E0
:103B3000152810DB0120DFF868170870DFF814077C
:103B4000007850F08000DFF80C1708700020DFF8D4
:103B50004817087017E0DFF844070078401CDFF8CA
:103B60003C1708700FE0DFF8EC06007810F07F00DB
:103B7000DFF8E01608700020DFF820170870012039
:103B8000DFF8141708704FF48071DFF8080704F0AD
:103B9000B3F9002822D1DFF80C07007800282DD0D7
:103BA000DFF804070078152810DB0120DFF8FC1689
:103BB0000870DFF8A006407850F00100DFF8941696
:103BC00048700020DFF8DC16087017E0DFF8D80630
:103BD0000078401CDFF8D01608700FE0DFF874069C
:103BE000407810F0FE00DFF86C1648700020DFF817
:103BF000B81608700120DFF8AC1608700221DFF853
:103C0000500604F079F9002822D1DFF8A4060078E4
:103C100000282DD0DFF89C060078152810DB012045
:103C2000DFF894160870DFF82C06407850F0020098
:103C3000DFF8201648700020DFF87416087017E0CF
:103C4000DFF870060078401CDFF8681608700FE097
:103C5000DFF80006407810F0FD00DFF8F815487036
:103C60000020DFF8501608700120DFF844160870B5
:103C70004FF48041DFF8440604F03EF9002822D1D9
:103C8000DFF83C06007800282DD0DFF838060078F1
:103C9000152810DB0120DFF830160870DFF8B405B6
:103CA000407850F00400DFF8AC1548700020DFF8D1
:103CB0001016087017E0DFF80C060078401CDFF8DB
:103CC000041608700FE0DFF88C05407810F0FB0058
:103CD000DFF8801548700020DFF8E8150870012033
:103CE000DFF8DC1508704FF48041DFF8A80504F018
:103CF00003F9002822D1DFF8D405007800282DD060
:103D0000DFF8CC050078152810DB0120DFF8C4159A
:103D10000870DFF84005407850F00800DFF83415EF
:103D200048700020DFF8A415087017E0DFF8A00540
:103D30000078401CDFF8981508700FE0DFF81405D4
:103D4000407810F0F700DFF80C1548700020DFF81D
:103D5000801508700120DFF8741508704FF40061B9
:103D6000DFF8EC0404F0C8F8002822D1DFF8680579
:103D7000007800282DD0DFF864050078152810DBC6
:103D80000120DFF85C150870DFF8C804407850F0B7
:103D90008000DFF8C01448700020DFF83C15087080
:103DA00017E0DFF838050078401CDFF830150870A0
:103DB0000FE0DFF8A004407810F07F00DFF89414E3
:103DC00048700020DFF8141508700120DFF808158E
:103DD00008700120DFF87414087001BD7014002011
:103DE00000200140A4130020A0130020E6130020AF
:103DF0003413002076140020E813002077140020EC
:103E0000DFF894030078002803D00020DFF888133F
:103E10000870DFF890030078002803D00020DFF856
:103E200084130870DFF838040078002803D00020DD
:103E3000DFF82C140870DFF834040078002803D071
:103E40000020DFF828140870DFF82C040078002820
:103E500003D00020DFF820140870DFF82804007871
:103E6000002803D00020DFF81C140870DFF82004BD
:103E70000078002803D00020DFF814140870DFF861
:103E800020040078002803D00020DFF81414087004
:103E9000DFF818040078002803D00020DFF80C14A5
:103EA0000870DFF814040078002803D00020DFF841
:103EB00008140870DFF810040078002803D00020F0
:103EC000DFF804140870DFF80C040078002803D031
:103ED0000020DFF800140870DFF8040400780028E0
:103EE00003D00020DFF8F8130870704780B5C0B227
:103EF000642800DB6420D0F1640071490968C0B215
:103F000000FB01F06421B0FBF1F0411E89B2DFF843
:103F1000380304F0C5FD01BD80B5C0B2642800DBE4
:103F20006420D0F1640066490968C0B200FB01F06A
:103F30006421B0FBF1F0411E89B2DFF80C0304F0FC
:103F4000B1FD01BD7914002080B5C0B2642800DB4A
:103F50006420D0F164005A490968C0B200FB01F046
:103F60006421B0FBF1F0411E89B2B74804F09CFD1A
:103F700001BD000074140020AC130020A813002021
:103F8000EA130020481300207A14002080B5DFF8DF
:103F900054030078002812D0DFF848030178DFF8D6
:103FA000480304F057F80020DFF8381308700020A9
:103FB000DFF8381308700120DFF83413087001BDF2
:103FC000EC13002080B5DFF82C030078002812D015
:103FD000DFF820030178DFF8200304F03BF800202D
:103FE000DFF8101308700020DFF8101308700120AC
:103FF000DFF80C13087001BD080002404C2401409A
:10400000E412002030B4FF24BE4D2C70BD4C607013
:10401000C0B2002809D0022814D00CD3042820D024
:1040200019D3062828D01DD32EE0B64841800020A1
:10403000B449888028E00020B24948800020B14976
:10404000888021E00020AF4948800020AD490871F8
:10405000AC48427118E00020AA494880A9488280F3
:1040600012E011E00120A74988707820A549C870A6
:104070000020A449888007E00120A24988707820A8
:10408000A049C8709F4882809E4801889D4840880A
:1040900041189C48808841184FF6FF704143994869
:1040A000C180002003E09749095C1954401C08288E
:1040B000F9DB30BC704700007814002000A24A04ED
:1040C00088130020F8B580B204F0F4FC00228E4B77
:1040D00004F0FEFC00228D4B04F0CCFD04000D002A
:1040E0008B48006804F0EAFE0022874B04F0F0FCE5
:1040F00022002B0004F0BEFD04000D00844800687F
:1041000004F0DCFE02000B002000290004F0FAFE9F
:104110000022804B04F0AEFD05F022F904000D00F2
:104120007D4AD2E9000122002B0004F0D1FC7B4E35
:10413000D6E9002305F016F906000F0022002B0037
:104140002000290004F0C4FC22002B0004F0C0FC75
:10415000734CD4E9002304F0BBFC32003B0005F0B3
:1041600001F902000B0000206E4904F083FD0200FB
:104170000B005FF066306C4905F0F4F800226B4BE1
:1041800005F0F0F805F0AAF9F4BD000000240140A4
:104190004514002044140020461400204814002038
:1041A000471400204914002080B561480068614927
:1041B00008605F4840685F4948605D4880685D49C5
:1041C00088605C48006880B2FFF77CFF05F0B2F9B8
:1041D000594908805748406880B2FFF773FF05F0DF
:1041E000A9F9564908805348806880B2FFF76AFFF2
:1041F00005F0A0F9524908804F48B0F900001E3080
:10420000B52803D200204F49087002E001204D4933
:1042100008704A48B0F900001E30B52803D20020CB
:104220004949087002E00120474908704448B0F944
:1042300000001E30B52803D200204449087002E077
:1042400001204249087001BD0034014043140020A0
:1042500000140140D81300204B1400204A14002001
:104260004C1400204E1400204D1400204F14002048
:104270005114002050140020521400205414002027
:104280005314002055140020571400205614002009
:1042900058140020000C01405A140020591400202A
:1042A0005B1400205D1400205C1400205E140020CC
:1042B000601400205F1400206114002000100140F1
:1042C000631400206214002064140020661400208F
:1042D0006514002067140020691400206814002071
:1042E0006A140020C3140020AC110020C014002068
:1042F000C2140020CA14002014120020C714002089
:10430000C9140020741300200000044000FEAF40D8
:104310000000002000408F4070A6000878A600082A
:1043200068A600080000F03F661271C00000E03F80
:10433000E41200205C130020F4130020F613002088
:10434000F81300207D1400207E1400207F1400202C
:1043500038B5DFF8E00C0078002800F03087DFF88F
:10436000D40C0078411EC9B2DFF8CC0C01F072F910
:10437000DFF8C41CDFF8BC2C1278114411F8011CC2
:10438000C0B2814240F00F87DFF8AC0C4178DFF813
:10439000A80C8078C9B2002927D0022900F0A78193
:1043A000C0F0A080042900F08683C0F06B8206294B
:1043B00000F06985C0F0E184082900F0DD85C0F0D7
:1043C000AE850A2900F00686C0F0ED850C2900F0C4
:1043D000A386C0F003860E2900F0C686C0F0A7862B
:1043E0000F2900F0C78600F0DEBEDFF84C1CC9784C
:1043F000DFF8CC2D1170DFF8401C0979DFF8C02DF3
:104400005170DFF8341C4979DFF8B42D9170DFF872
:10441000281C8979DFF8A82DD170DFF81C1CC97918
:10442000DFF8A02D1170C0B2002822D100241BE0BB
:10443000DFF8900D007821002039084110F00100CC
:10444000DFF8841D51F8241088470CE0202CEFDAA7
:10445000DFF86C0D0068E04010F00100DFF8681D27
:1044600051F824108847641CDFF8600D00788442FE
:10447000ECDBDFF8C40B0078DFF8541D0870DFF8C0
:10448000B80B4078DFF8481D4870DFF8AC0B807837
:10449000DFF83C1D8870DFF8A00BC078DFF8301D16
:1044A000C870DFF8940B0079DFF8241D0871DFF87D
:1044B000880B4079DFF8181D4871DFF87C0B807994
:1044C000DFF80C1D88710721DFF8040D01F0C2F838
:1044D000DFF8FC1CC8710821DFF8F40C03F0BAFD0A
:1044E00000F061BEDFF8501B0978DFF8E42C117092
:1044F000DFF8441B4978DFF8D82C5170DFF8381BFF
:104500008978DFF8CC2C9170C0B2002840F0ED80A3
:10451000DFF8C00C0068DFF8A81C0860DFF8B80CF2
:1045200000884FF4807190FBF1F201FB1200DFF87C
:10453000A01CC870DFF8A00C00884FF4807190FBBD
:10454000F1F0DFF88C1C0871DFF8740C0078DFF8EC
:10455000801C4871DFF8680C4078DFF8741C8871A3
:10456000DFF85C0C8078DFF8681CC871DFF8500C4D
:10457000C078DFF85C1C0872DFF8480C0078DFF8C0
:10458000501C4872DFF8540C00884FF4807190FB87
:10459000F1F201FB1200DFF8381C8872DFF83C0CE6
:1045A00000884FF4807190FBF1F0DFF8241CC87292
:1045B000DFF82C0C00884FF4807190FBF1F201FBC6
:1045C0001200DFF80C1C0873DFF8140C00884FF49D
:1045D000807190FBF1F0DFF8F81B4873DFF8040CF2
:1045E00000884FF4807190FBF1F201FB1200DFF8BC
:1045F000E01B8873DFF8EC0B00884FF4807190FBB0
:10460000F1F0DFF8CC1BC873DFF8DC0B00884FF447
:10461000807190FBF1F201FB1200DFF8B41B08740B
:10462000DFF8C40B00884FF4807190FBF1F0DFF8E5
:10463000A01B4874DFF8B40BB0F9000080B24FF44F
:10464000807190FBF1F201FB1200DFF8841B88748B
:10465000DFF8980BB0F9000080B24FF4807190FB46
:10466000F1F0DFF86C1BC874DFF8840BB0F90000C0
:1046700080B24FF4807190FBF1F201FB1200DFF881
:10468000501B0875DFF8680BB0F9000080B24FF4DA
:10469000807190FBF1F0DFF8381B4875DFF8400CB3
:1046A000B0F9000080B24FF4807190FBF1F201FB91
:1046B0001200DFF81C1B8875DFF8240CB0F900002D
:1046C00080B24FF4807190FBF1F0DFF8041BC875E5
:1046D0001821DFF8FC0A00F0BDFFDFF8F41A0876B5
:1046E0001921DFF8EC0A03F0B5FC00F05CBDDFF83F
:1046F00048190978DFF8D82A1170DFF83C19497891
:10470000DFF8CC2A5170DFF830198978DFF8C02A39
:104710009170C0B2002840F0B380DFF8C00A008872
:104720004FF4807190FBF1F201FB1200DFF8A01A48
:10473000C870DFF8A80A00884FF4807190FBF1F090
:10474000DFF88C1A0871DFF8980A00884FF480713E
:1047500090FBF1F201FB1200DFF8741A4871DFF8E8
:10476000800A00884FF4807190FBF1F0DFF8601A46
:104770008871DFF8700A00884FF4807190FBF1F2C5
:1047800001FB1200DFF8481AC871DFF8580A0088E8
:104790004FF4807190FBF1F0DFF8341A0872DFF803
:1047A000480A00884FF4807190FBF1F201FB12007F
:1047B000DFF81C1A4872DFF8300A00884FF4807165
:1047C00090FBF1F0DFF8081A8872DFF8200AB0F9E0
:1047D000000080B24FF4807190FBF1F201FB1200F7
:1047E000DFF8EC19C872DFF8040AB0F9000080B2F3
:1047F0004FF4807190FBF1F0DFF8D4190873DFF803
:10480000F009B0F9000080B24FF4807190FBF1F232
:1048100001FB1200DFF8B8194873DFF8D409B0F9CA
:10482000000080B24FF4807190FBF1F0DFF8A01926
:104830008873DFF8AC0AB0F9000080B24FF48071E1
:1048400090FBF1F201FB1200DFF88419C873DFF866
:10485000900AB0F9000080B24FF4807190FBF1F043
:10486000DFF86C1908741121DFF8640900F0F2FE1A
:10487000DFF85C1948741221DFF8540903F0EAFBF1
:1048800000F091BCDFF8B0170A79DFF8AC174C796B
:104890004FF4807101FB0424DFF89C178A79DFF85C
:1048A0009817CD794FF4807101FB0525C0B200281F
:1048B00049D1DFF88407C07807280CD1DFF87807E2
:1048C0000079DFF8F81A0870DFF86C070079DFF874
:1048D000481B0870EBE0DFF86007C078032806D1BA
:1048E000DFF8380B0580DFF8380B05800AE0DFF8C9
:1048F0004807C078062805D1DFF8280B0570DFF8D7
:10490000280B0570DFF8243B2A0092B2210089B2FF
:10491000DFF82407C078FFF775FB0821DFF80C0BE0
:1049200003F0AFFBDFF8083B2A0092B2210089B206
:10493000DFF80407C078FFF765FB0821DFF8F00A0D
:1049400003F0B6FBB3E0C0B201283BD1DFF8E806C4
:10495000C078072806D1DFF8E0060079DFF85C1A96
:104960000870A4E0DFF8C43A2A0092B2210089B2AC
:10497000DFF8C406C078FFF745FB0821DFF8AC0A72
:1049800003F07FFBDFF8B006C078032803D1DFF81F
:104990008C0A05808BE0DFF8A006C078062840F07E
:1049A0008680DFF8800A0570DFF8100A01784FF47E
:1049B0007A704143DFF8300B01600020DFF82C1BD8
:1049C000087074E0C0B202283AD1DFF86C06C078F3
:1049D000072806D1DFF860060079DFF83C1A087076
:1049E00065E0DFF84C3A2A0092B2210089B2DFF884
:1049F0004806C078FFF706FB0821DFF8340A03F009
:104A000057FBDFF83406C078032803D1DFF8100A1B
:104A100005804CE0DFF82006C078062847D1DFF893
:104A2000080A0570DFF8F00901784FF47A70414305
:104A3000DFF8BC0A01600020DFF8B81A087036E021
:104A4000C0B203281BD1DFF8F005C078DFF8D81B0F
:104A50000870DFF8E4050179DFF8DC0542794FF4EE
:104A6000807000FB0211DFF8C40B01800020DFF82A
:104A7000C01B08700120DFF8BC1B087017E0C0B233
:104A8000042804D10120DFF8701A08700FE0C0B2CA
:104A900005280CD1DFF8A005C178DFF89C05027964
:104AA0004FF4807000FB0211DFF8300B018006200C
:104AB00000F096FD77E3C0B201283AD1DFF878051F
:104AC000C078FFF713FADFF870050078DFF80017F9
:104AD0000870DFF864054078DFF8F4164870DFF8F6
:104AE00058058078DFF8E8168870DFF84C0B0088EE
:104AF0004FF4807190FBF1F201FB1200DFF8D01649
:104B0000C870DFF8340B00884FF4807190FBF1F02F
:104B1000DFF8BC1608710521DFF8B40600F09AFD35
:104B2000DFF8AC1648710621DFF8A40603F092FA0C
:104B300022E1C0B202283AD1DFF8FC04C078FFF7C6
:104B4000EBF9DFF8F4040078DFF884160870DFF87A
:104B5000E8044078DFF878164870DFF8DC048078E5
:104B6000DFF86C168870DFF8D40A00884FF4807183
:104B700090FBF1F201FB1200DFF85416C870DFF869
:104B8000BC0A00884FF4807190FBF1F0DFF840160A
:104B900008710521DFF8380600F05CFDDFF83016FB
:104BA00048710621DFF8280603F054FAE4E0C0B2A9
:104BB00003283AD1DFF88004C078FFF7C5F9DFF8A1
:104BC00078040078DFF808160870DFF86C04407885
:104BD000DFF8FC154870DFF860048078DFF8F01526
:104BE0008870DFF85C0A00884FF4807190FBF1F266
:104BF00001FB1200DFF8D815C870DFF8440A0088FE
:104C00004FF4807190FBF1F0DFF8C41508710521B5
:104C1000DFF8BC0500F01EFDDFF8B4154871062171
:104C2000DFF8AC0503F016FAA6E0C0B2042835D1CF
:104C3000DFF804040078DFF898150870DFF8F8034F
:104C40004078DFF88C154870DFF8EC038078DFF8E7
:104C500080158870DFF8E00900884FF4807190FBC0
:104C6000F1F201FB1200DFF86815C870DFF8C8091F
:104C700000884FF4807190FBF1F0DFF85415087153
:104C80000521DFF84C0500F0E5FCDFF8441548711C
:104C90000621DFF83C0503F0DDF96DE0C0B2052820
:104CA00035D1DFF894030078DFF824150870DFF8B9
:104CB00088034078DFF818154870DFF87C038078A7
:104CC000DFF80C158870DFF8740900884FF48071E4
:104CD00090FBF1F201FB1200DFF8F414C870DFF86A
:104CE0005C0900884FF4807190FBF1F0DFF8E0146C
:104CF00008710521DFF8D80400F0ACFCDFF8D0140F
:104D000048710621DFF8C80403F0A4F934E0C0B20A
:104D1000062831D1C8480078DFF8B4140870C648B6
:104D20004078DFF8AC144870C3488078DFF8A014EE
:104D30008870DFF80C0900884FF4807190FBF1F265
:104D400001FB1200DFF88814C870DFF8F40800884F
:104D50004FF4807190FBF1F0DFF8741408710521B5
:104D6000DFF86C0400F076FCDFF86414487106216B
:104D7000DFF85C0403F06EF915E2C0B2002812D12E
:104D8000AD48C078DFF8B41A0870AB480079DFF896
:104D9000AC1A4870A8484079DFF8A01A887006203D
:104DA00000F01EFC6EE0C0B2012812D1A248C0780B
:104DB000DFF8881AC870A0480079DFF8801A0871F7
:104DC0009D484079DFF8741A4871062000F008FC0D
:104DD00058E0C0B2022812D19748C078DFF85C1AB8
:104DE000887195480079DFF8541AC8719248407963
:104DF000DFF8481A0872062000F0F2FB42E0C0B269
:104E000003280CD1DFF8B80A007800283AD1FCF763
:104E10007CFFFCF794FF062000F0E2FB32E0C0B21A
:104E2000042813D1FCF782FFFDF7A4FAFCF76DFF0D
:104E3000FCF74BFF0020DFF8301B08800020DFF874
:104E4000841A0870062000F0CBFB1BE0C0B20528D6
:104E50000ED17948C178784804794FF4807000FB0E
:104E60000414DFF8080B0480062000F0B9FB09E009
:104E7000C0B2062806D1FCF771FFFCF746FF0620FA
:104E800000F0AEFB8FE1C0B2002812D16A48C078B2
:104E9000DFF8341A087068480079DFF82C1A487077
:104EA00065484079DFF8201A8870062000F098FBEA
:104EB00034E0C0B2012812D15F48C078DFF8081A88
:104EC000C8705D480079DFF8001A08715A484079C7
:104ED000DFF8F4194871062000F082FB1EE0C0B232
:104EE00002280CD1DFF8880A0078002816D1FDF7D7
:104EF0004AFAFCF70AFF062000F072FB0EE0C0B28F
:104F000003280BD1DFF86C0A0078002806D1FDF7E2
:104F100031FAFCF7FAFE062000F062FB43E1C0B272
:104F2000002805D10520FCF7DDFEFCF717FF22E085
:104F3000C0B2012805D10420FCF7D4FEFCF70EFF17
:104F400019E0C0B2022805D10320FCF7CBFEFCF724
:104F500005FF10E0C0B2032805D10220FCF7C2FE15
:104F6000FCF7FCFE07E0C0B2042804D10120FCF7E6
:104F7000B9FEFCF7F3FE16E1C0B2002803D1002011
:104F8000FCF784FE0EE0C0B2012803D10120FCF73B
:104F90007DFE07E0C0B2022804D10120FCF7A2FE8A
:104FA000FCF7DCFEFFE02448C178234802794FF487
:104FB000807000FB0211DFF8C00901801E484179B2
:104FC0001D4882794FF4807000FB0211DFF8AC09B4
:104FD0000180E8E0C0B200F0F5FCE4E0C0B20028D7
:104FE0002CD1FCF7A3FEFDF7C5F9FCF78EFEFCF70C
:104FF0006CFE0020DFF8701908800020DFF8C4186C
:1050000008700120DFF8F014087000206E49896CE8
:10501000884700206C49896A88470220DFF86019B8
:1050200008700D20DFF85C1908700120DFF85819AE
:10503000087070E0BC14002044110020002002F031
:105040007AFE002002F094FE00205F49096D884737
:1050500000205D49C96C884700205B49496E88473C
:1050600000205949896D884700205749496D884774
:1050700000205549896E884700205349096E8847AA
:1050800000205149C96D884700204F49C96E8847A3
:1050900001204D49896C88474FF4FA7004F038FDBF
:1050A00001204949896A88474FF4FA7004F030FDBD
:1050B000DFF8D808407ADFF8D01808700020DFF851
:1050C000D01808700020DFF8CC180860DFF8BC08A2
:1050D000C179DFF8B808027A4FF4807000FB021142
:1050E0000A0092B2DFF8A4084179DFF8A0088379BA
:1050F0004FF4807000FB031189B2DFF89008C37889
:10510000DFF8880804794FF4807000FB043318003E
:1051100080B200F0F3F946E0DFF8700880780128EB
:1051200002D100F04DF901E000F084F93BE0DFF836
:105130005C084179DFF8540882794FF4807000FBF5
:1051400002110A0092B2DFF84408C178DFF83C0887
:1051500003794FF4807000FB031189B2DFF82C084B
:10516000807800F0BFF81EE0DFF82008807800F0BB
:1051700041F818E0DFF814088078012808D10120F0
:10518000DFF8141808700020DFF8101808700AE023
:105190000020DFF8F01C08700120D74908700020BB
:1051A000DFF8F41708700020DFF8F417087000200B
:1051B000DFF8F01708700120DFF8CC1C087031BD53
:1051C0008C1300207B1400202010002042140020AB
:1051D00010110020B0130020D8130020E01300208D
:1051E000E4130020E8130020EC130020F413002047
:1051F000F613002080B5C0B2002822D10D20DFF8C0
:10520000841708700020DFF8A017496A884700203B
:10521000DFF89417C96888470020DFF88C17896881
:1052200088470120B44908700220DFF8541708703D
:105230000020DFF8781708700020DFF87417087076
:105240004DE0C0B2012818D13220DFF8681708708D
:105250000420DFF8641708700120DFF824170870B5
:105260000120DFF8481708700020DFF85017087099
:105270000120DFF84C17087031E0C0B2022818D1C5
:105280006420DFF8301708700620DFF82C1708704C
:105290000120DFF8EC1608700120DFF81017087005
:1052A0000020DFF8181708700120DFF814170870C5
:1052B00015E0C0B2032812D0C0B204280FD0C0B28B
:1052C00005280CD10120DFF8E81608700120DFF86E
:1052D000B01608700120DFF8B41B0870FFE701BDAD
:1052E000F813002080B5C0B2002818D10D20DFF8D7
:1052F000941608700220DFF88816087001207E4995
:1053000008700020DFF8A016896A88470120DFF8BE
:10531000781608700120DFF8781608704DE089B221
:10532000002913D1DFF8440602800720DFF8541665
:1053300008700120DFF8581B08700120DFF84016C4
:1053400008700020DFF84816087029E0DFF81C0616
:10535000028089B2002913D089B2642910DA0920A9
:10536000DFF8201608700120DFF8241B08700120E8
:10537000DFF80C1608700020DFF8141608700FE034
:105380000820DFF8001608700120DFF8041B087001
:105390000120DFF8EC1508700020DFF8F415087024
:1053A000B420A14908708D480088A04908800020D9
:1053B0009F49087001209F49087001BD801400209A
:1053C0000120DFF8D01A08700020DFF8CC1A08801E
:1053D0000020DFF8C81A08700120DFF8C41A08702E
:1053E0000020DFF8C01A08700020DFF8BC1A08801F
:1053F0004620DFF8B81A08700120DFF8941508700D
:105400000020DFF8AC1A08700120DFF8B015087032
:10541000002087490870704781140020FC13002089
:10542000FE1300208214002083140020E0110020CD
:105430004812002080B50020DFF8581A0870FCF7E9
:1054400075FCFCF797FFFCF760FCFCF73EFC0020C6
:10545000DFF8681508700720DFF8441A087000208C
:10546000DFF82C1508700020DFF8381A08700020CB
:10547000DFF8381508700020DFF82C15C968884758
:105480000020DFF82415096988470020DFF8181587
:10549000496A88470020DFF81015496988470020CD
:1054A000DFF80415896988470020DFF8FC14496C8F
:1054B00088470020DFF8F014896C88470020DFF867
:1054C000E814896888470020DFF8DC1409688847F9
:1054D0000020DFF8D4144968884701200649087085
:1054E00000205449087001BDB81300208414002026
:1054F000BC130020851400208914002080B580B2E0
:10550000002813D1DFF8640401800120DFF874144F
:1055100008700120DFF8781908700120DFF86014A6
:1055200008700020DFF84014088048E0DFF83C24D1
:10553000118080B2002806D080B2152803DA052039
:10554000FCF7D0FB3BE080B2B0F11502142A03D285
:105550000420FCF7C7FB32E080B2B0F12902142A24
:1055600003D20320FCF7BEFB29E080B2B0F13D027C
:10557000142A03D20220FCF7B5FB20E080B2513898
:10558000132803D20120FCF7ADFB18E089B2B1F17A
:105590001E00292803D20020FCF778FB0FE089B217
:1055A000B1F14700222803D20120FCF76FFB06E08F
:1055B00089B269391A2902D20120FCF793FBB42081
:1055C00019490870054800881849088000201849C2
:1055D00008700120DFF8AC18087001BD1800002029
:1055E00080B5DFF8A8130978DFF8C8281170DFF854
:1055F0009C134978DFF8BC285170DFF89013897844
:10560000DFF8B0289170DFF8AC18C8700421DFF81B
:10561000A40800F01FF8DFF89C1808710521DFF8D6
:10562000940802F017FD01BD86140020001400202C
:105630008A14002087140020EE130020F0130020AD
:10564000F213002080B5FEF7A1FC01BD80B5FEF786
:10565000B9FC01BD10B402000020002402E0135D7B
:105660001818641CC9B28C42F9DBC0B210BC704778
:1056700010B5DFF844080078012822D1DFF83C3863
:10568000002247F601010620FEF7BCFC0821DFF8E6
:105690002C0802F0F6FCDFF82838002247F601015A
:1056A0000620FEF7AFFC0821DFF8140802F000FD29
:1056B0000020DFF8041808700020DFF8C817087011
:1056C000BBE0DFF8C0070078002800F0B680DFF804
:1056D000F4070078002802D0012827D0ADE0DFF8D9
:1056E000DC37012247F601010620FEF78BFC08217A
:1056F000DFF8C80702F0C5FCDFF8C437012247F61F
:1057000001010620FEF77EFC0821DFF8B40702F055
:10571000CFFC1420DFF8C01D08600020DFF8A817B8
:1057200008700120DFF89C17087086E0DFF8A80DEC
:105730000068002840F081809C480078002803D150
:105740009B48007800280BD0DFF88007B0F90010E4
:10575000DFF87807B0F900405FF0FF30444349E0DC
:10576000DFF864070078002805D0022823D012D380
:10577000032830D03EE0DFF85407B0F900105FF0A6
:10578000FF304143DFF84407B0F900400120DFF863
:10579000382710702EE0DFF83407B0F90010DFF87A
:1057A0002C07B0F900405FF0FF3044430220DFF8DF
:1057B000182710701EE0DFF81407B0F900105FF032
:1057C000FF304143DFF80407B0F900400320DFF861
:1057D000F82610700EE0DFF8F406B0F90010DFF8DC
:1057E000EC06B0F900405FF0FF3044430020DFF8E2
:1057F000D8261070DFF8C4360A0092B200210320C8
:10580000FEF700FC0821DFF8B40602F03AFCDFF8EE
:10581000B036220092B200210320FEF7F3FB0821EC
:10582000DFF89C0602F044FCDFF8F40C01784FF43A
:105830007A704143DFF8A00C016010BD68130020AE
:1058400080B5DFF8E00C0078002838D0DFF8D80CFD
:105850000078002833D0DFF8900D006800282ED1A2
:10586000DFF8C80C007800280BD1DFF8C40CB0F9C1
:1058700000105FF0FF3041430120DFF8B02C1070C2
:1058800007E0DFF8AC0CB0F900100020DFF89C2C2A
:105890001070DFF828360A0092B200210320FEF7CC
:1058A000B1FB0821DFF8140602F0EBFBDFF8780CFF
:1058B00001784FF47A704143DFF82C0D016001BD8F
:1058C0008C140020981400207C13002080B5DFF891
:1058D0001C0D0078002838D0DFF8140D007800285F
:1058E00033D0DFF8100D006800282ED1DFF8080D46
:1058F000007800280BD1DFF8040DB0F900105FF03C
:10590000FF3041430120DFF8F02C107007E0DFF892
:10591000EC0CB0F900100020DFF8DC2C1070DFF880
:10592000A0350A0092B200210320FEF76BFB08218C
:10593000DFF88C0502F0BCFBDFF8B40C01784FF403
:105940007A704143DFF8AC0C016001BDDFF8B00CA8
:105950000078C0B2C009C0B2002804D0DFF8340516
:1059600000780028FFD07047DA13002004140020CC
:105970009214002096140020141400201614002005
:10598000AB140020A0140020A41400204411002017
:10599000A5140020C4130020B4140020B514002066
:1059A000BC140020B914002020100020A8140020EE
:1059B000B01400201B0000201C000020A2140020B6
:1059C000A9140020C0B2002813D0022800F0938050
:1059D00050D3042800F01181C0F0CE80062800F0DA
:1059E0008E81C0F04B81082800F00B82C0F0C88186
:1059F00047E2DFF80C0C007810F0FE00DFF8001C26
:105A00000870DFF8FC0B007810F0FD00DFF8F01BE9
:105A10000870DFF8EC0B007810F0FB00DFF8E01BFB
:105A20000870DFF8DC0B007850F00800DFF8D01BBE
:105A30000870DFF8CC0B007810F0EF00DFF8C01B27
:105A40000870DFF8BC0B007850F02000DFF8B01BC6
:105A50000870DFF8AC0B007810F0BF00DFF8A01B77
:105A60000870DFF89C0B007850F08000DFF8901B86
:105A7000087006E2DFF8880B007850F00100DFF8CC
:105A8000801B0870DFF8780B007810F0FD00DFF85D
:105A9000701B0870DFF8680B007810F0FB00DFF86F
:105AA000601B0870DFF8580B007810F0F700DFF883
:105AB000501B0870DFF8480B007810F0EF00DFF89B
:105AC000401B0870DFF8380B007850F02000DFF83A
:105AD000301B0870DFF8280B007810F0BF00DFF8EB
