:020000040800F2
:100000000004002079F1000871EA000873EA000892
:1000100075EA000877EA000879EA000800000000A5
:100020000000000000000000000000007BEA000863
:100030007DEA0008000000007FEA000881EA00086D
:100040001FC400081FC400081FC4000889EA000874
:100050001FC400081FC400088BEA00081FC4000862
:100060001FC400089FEA00081FC4000895EF00089D
:100070001FC400081FC400081FC400081FC40008D4
:100080001FC400081FC400081FC40008A1EA00081C
:10009000A3EA00081FC400081FC40008A5EA00085E
:1000A0001FC40008A7EA00081FC400081FC40008F6
:1000B000B5EA0008C3EA0008D1EA00081FC4000836
:1000C0001FC400081FC400081FC400081FC4000884
:1000D000E1EA0008E3EA00083DEC00082DED000825
:1000E00079EF000891EF00081FC400081FC4000842
:1000F000D3EA00081FC400081FC400081FC400087A
:100100001FC4000893EF00081FC400081FC40008A4
:100110001BEE00081FC400081FC400081FC400080D
:100120001FC400081FC400081FC400081FC4000823
:1001300040B2002805D40901DFF8F02A40B211547A
:1001400008E00901DFF8D02C40B210F00F00104495
:1001500000F8041C704780B5411EB1F1807F01D3C7
:10016000012011E0401EDFF8EC1A08600F215FF05B
:10017000FF30FFF7DDFF0020DFF8001B08600720DD
:10018000DFF8C01C0860002002BD0020DFF8E01C82
:100190000870DFF8EC0ADFF8F81BDFF8D42C1278CF
:1001A00041F82200DFF8C80C0078401CDFF8C01CC2
:1001B0000870DFF8040BDFF8D81BDFF8B42C1278D6
:1001C00041F82200DFF8A80C0078401CDFF8A01CE2
:1001D0000870DFF8E80ADFF8B81BDFF8942C127813
:1001E00041F82200DFF8880C0078401CDFF8801C02
:1001F0000870DFF8000BDFF8981BDFF8742C12781A
:1002000041F82200DFF8680C0078401CDFF8601C21
:100210000870DFF8E40ADFF8781BDFF8542C127856
:1002200041F82200DFF8480C0078401CDFF8401C41
:100230000870DFF8EC0ADFF8581BDFF8342C12786E
:1002400041F82200DFF8280C0078401CDFF8201C61
:100250000870DFF8F00ADFF8381BDFF8142C12788A
:1002600041F82200DFF8080C0078401CDFF8001C81
:100270000870DFF8F40ADFF8181BDFF8F42B1278A7
:1002800041F82200DFF8E80B0078401CDFF8E01BA3
:100290000870DFF8000BDFF8F81ADFF8D42B1278BB
:1002A00041F82200DFF8C80B0078401CDFF8C01BC3
:1002B0000870DFF8080BDFF8D81ADFF8B42B1278D3
:1002C00041F82200DFF8A80B0078401CDFF8A01BE3
:1002D0000870DFF8EC0ADFF8B81ADFF8942B127810
:1002E00041F82200DFF8880B0078401CDFF8801B03
:1002F0000870DFF8D00ADFF8981ADFF8742B12784C
:1003000041F82200DFF8680B0078401CDFF8601B22
:100310000870DFF8B40ADFF8781ADFF8542B127887
:1003200041F82200DFF8480B0078401CDFF8401B42
:100330000870DFF8BC0ADFF8581ADFF8342B12789F
:1003400041F82200DFF8280B0078401CDFF8201B62
:100350000870DFF8C80ADFF8381ADFF8142B1278B3
:1003600041F82200DFF8080B0078401CDFF8001B82
:100370000870DFF8D40ADFF8181ADFF8F42A1278C8
:1003800041F82200DFF8E80A0078401CDFF8E01AA4
:100390000870DFF8B80ADFF8F819DFF8D42A127805
:1003A00041F82200DFF8C80A0078401CDFF8C01AC4
:1003B0000870DFF8C00ADFF8D819DFF8B42A12781D
:1003C00041F82200DFF8A80A0078401CDFF8A01AE4
:1003D0000870DFF8C40ADFF8B819DFF8942A127839
:1003E00041F82200DFF8880A0078401CDFF8801A04
:1003F0000870DFF8A80ADFF89819DFF8742A127875
:1004000041F82200DFF8680A0078401CDFF8601A23
:100410000870DFF88C0ADFF87819DFF8542A1278B0
:1004200041F82200DFF8480A0078401CDFF8401A43
:100430000870DFF8B40ADFF85819DFF8342A1278A8
:1004400041F82200DFF8280A0078401CDFF8201A63
:100450000870DFF8980ADFF83819DFF8142A1278E4
:1004600041F82200DFF8080A0078401CDFF8001A83
:100470000870DFF8BC0ADFF81819DFF8F4291278E1
:1004800041F82200DFF8E8090078401CDFF8E019A5
:100490000870DFF8C00ADFF8F818DFF8D4291278FE
:1004A00041F82200DFF8C8090078401CDFF8C019C5
:1004B0000870DFF8A40ADFF8D818DFF8B42912783A
:1004C00041F82200DFF8A8090078401CDFF8A019E5
:1004D0000870DFF8CC0ADFF8B818DFF89429127832
:1004E00041F82200DFF888090078401CDFF8801905
:1004F0000870DFF8B00ADFF89818DFF8742912786E
:1005000041F82200DFF868090078401CDFF8601924
:100510000870DFF8B80ADFF87818DFF85429127885
:1005200041F82200DFF848090078401CDFF8401944
:100530000870DFF89C0ADFF85818DFF834291278C1
:1005400041F82200DFF828090078401CDFF8201964
:100550000870DFF8C40ADFF83818DFF814291278B9
:1005600041F82200DFF808090078401CDFF8001984
:100570000870DFF8CC0ADFF81818DFF8F4281278D2
:1005800041F82200DFF8E8080078401CDFF8E018A6
:100590000870DFF8D40ADFF8F817DFF8D4281278EB
:1005A00041F82200DFF8C8080078401CDFF8C018C6
:1005B0000870DFF8B80ADFF8D817DFF8B428127827
:1005C00041F82200DFF8A8080078401CDFF8A018E6
:1005D0000870DFF8C00ADFF8B817DFF8942812783F
:1005E00041F82200DFF888080078401CDFF8801806
:1005F0000870704780B5DFF8C41A097800290DD05B
:10060000012805D10121DFF87C0B0BF005FF29E063
:100610000121DFF8700B0BF0FCFE23E0012817D15D
:100620000121DFF8600B0BF0F7FE0221DFF8540B1D
:100630000BF0EFFE0120DFF8A81A08704EF66020DC
:10064000DFF8A01A08800120DFF89C1A087009E082
:100650000121DFF8300B0BF0DCFE0221DFF8240B68
:100660000BF0D7FE01BD80B5DFF8501A09780029DC
:100670000DD0012805D10221DFF8D80B0BF0CCFEFC
:1006800029E00221DFF8CC0B0BF0C3FE23E00128A8
:1006900017D10121DFF8BC0B0BF0BBFE0221DFF804
:1006A000B40B0BF0B9FE0220DFF8341A08704EF6D6
:1006B0006020DFF8301A08800120DFF82C1A08705B
:1006C00009E00121DFF88C0B0BF0A3FE0221DFF81B
:1006D000840B0BF09EFE01BD80B5DFF8040A0078A4
:1006E000012851D1DFF8000A0078002805D002283F
:1006F0002DD003D303283BD09CE09BE0DFF8E40936
:100700000088002811D0DFF8800A0078C0F340107C
:10071000C0B200281AD041F28830DFF8C81908802A
:100720000220DFF8C419087010E0DFF8600A0078D2
:10073000002807D1E120DFF8581A08807D20DFF873
:10074000541A08800320DFF8A019087072E0DFF85F
:100750009409008800286DD10020FFF74BFF00208E
:10076000DFF8841908700020DFF87419087061E060
:100770000020FFF73FFF0020DFF86C19087005200C
:10078000DFF85C19087055E0DFF85409007802289A
:1007900050D1DFF854090078002805D002282DD068
:1007A00003D303283BD045E044E0DFF83809008854
:1007B000002811D0DFF8D0090078C0F38010C0B253
:1007C00000281AD041F28830DFF81819088002207A
:1007D000DFF81419087010E0DFF8B009007800287D
:1007E00007D1E120DFF8A81908807D20DFF8A419DF
:1007F00008800320DFF8F01808701BE0DFF8E40839
:100800000088002816D10020FFF72DFF0020DFF818
:10081000D81808700020DFF8C81808700AE0002017
:10082000FFF721FF0020DFF8C01808700520DFF86F
:10083000B018087001BD80B5DFF88018097800296C
:100840000FD0012806D14FF48071DFF8080A0BF0B1
:10085000E3FD2EE04FF48071DFF8F8090BF0D9FDCD
:1008600027E001281AD14FF48071DFF8E8090BF076
:10087000D0FD8021DFF8DC090BF0CBFD4FF4807157
:10088000DFF8D0090BF0C8FD42F21070DFF8C8198C
:1008900008800120DFF8C41908700AE04FF4807165
:1008A000DFF8B0090BF0B5FD8021DFF8A8090BF0E7
:1008B000B0FD01BD80B5DFF80418097800290DD01E
:1008C000012805D18021DFF88C090BF0A5FD2CE073
:1008D0008021DFF880090BF09CFD26E0012819D16A
:1008E0008021DFF870090BF094FD4FF48071DFF880
:1008F00064090BF08EFD8021DFF858090BF08CFDA8
:1009000042F21070DFF8501908800120DFF84C190E
:1009100008700AE04FF48071DFF838090BF079FDB8
:100920008021DFF830090BF074FD01BD80B5DFF8E0
:100930002C090078002802D0012801D014E013E02F
:10094000DFF81409008800280ED14FF48071DFF819
:1009500034080BF05EFD8021DFF828080BF059FD0C
:100960000020DFF8F818087001BD80B5DFF84C17DB
:10097000097800290DD0012805D14021DFF8D408DD
:100980000BF04AFD2AE04021DFF8C8080BF041FDDA
:1009900024E0012818D14021DFF8B8080BF039FD18
:1009A0002021DFF8B0080BF034FD4021DFF8A40867
:1009B0000BF032FD0120DFF8401A087042F210708F
:1009C000DFF8381A088009E04021DFF888080BF0CA
:1009D00020FD2021DFF87C080BF01BFD01BD80B558
:1009E000DFF8D816097800290DD0012805D120217B
:1009F000DFF860080BF010FD2AE02021DFF8540832
:100A00000BF007FD24E0012818D12021DFF844086D
:100A10000BF0FFFC4021DFF83C080BF0FAFC202132
:100A2000DFF830080BF0F8FC0120DFF8CC19087073
:100A300042F21070DFF8C419088009E04021DFF8A5
:100A400014080BF0E6FC2021DFF808080BF0E1FCAD
:100A500001BD80B5DFF8A0090078002802D0012888
:100A600001D013E012E0DFF89409008800280DD1CE
:100A70002021DFF810070BF0CCFC4021DFF8040741
:100A80000BF0C7FC0020DFF87019087001BD80B5BD
:100A9000DFF82816097800290FD0012806D14FF475
:100AA0000061DFF8B0070BF0B7FC30E04FF40061F5
:100AB000DFF8A0070BF0ADFC29E001281BD14FF4B3
:100AC0000061DFF890070BF0A4FC4FF48051DFF8D1
:100AD00084070BF09EFC4FF40061DFF878070BF001
:100AE0009BFC0120DFF81819087046F2A810DFF807
:100AF000141908800BE04FF40061DFF858070BF081
:100B000088FC4FF48051DFF84C070BF082FC01BDEC
:100B100080B5DFF8A815097800290FD0012806D183
:100B20004FF48051DFF82C070BF076FC30E04FF4E7
:100B30008051DFF820070BF06CFC29E001281BD165
:100B40004FF48051DFF80C070BF063FC4FF40061A9
:100B5000DFF800070BF05DFC4FF48051DFF8F4067E
:100B60000BF05AFC0120DFF89818087046F2A81024
:100B7000DFF8901808800BE04FF40061DFF8D4062E
:100B80000BF047FC4FF48051DFF8C8060BF041FC36
:100B900001BD80B5DFF868080078002802D0012880
:100BA00001D015E014E0DFF85C08008800280FD1C0
:100BB0004FF48051DFF8CC050BF02BFC4FF40061B3
:100BC000DFF8C0050BF025FC0020DFF834180870B2
:100BD00001BD80B5002805D10421DFF878060BF0AF
:100BE00018FC04E00421DFF86C060BF015FC01BDD5
:100BF00080B5002805D10821DFF858060BF009FC64
:100C000004E00821DFF84C060BF006FC01BD80B5BE
:100C1000002805D11021DFF83C060BF0FAFB04E0B8
:100C20001021DFF830060BF0F7FB01BD00E400E017
:100C300080B5002806D14FF40071DFF818060BF0DC
:100C4000E8FB05E04FF40071DFF808060BF0E4FB69
:100C500001BD000014E000E080B5002806D14FF48B
:100C60008061DFF8F0050BF0D4FB05E04FF4806104
:100C7000DFF8E0050BF0D0FB01BD000018E000E05C
:100C8000F505000880B500280AD14FF40051DFF8BF
:100C9000F4040BF0BEFB0020DFF8D819087009E05F
:100CA0004FF40051DFF8DC040BF0B6FB0120DFF855
:100CB000C419087001BD000067060008D30B0008C6
:100CC00080B500280AD14FF48041DFF8B8040BF05A
:100CD000A0FB0020DFF8A019087009E04FF4804164
:100CE000DFF8A0040BF098FB0120DFF88C190870E6
:100CF00001BD0000F10B00080F0C000880B50028B2
:100D000006D14FF40041DFF84C050BF082FB05E003
:100D10004FF40041DFF83C050BF07EFB01BD000005
:100D2000DF09000880B5002805D11021DFF8A00BED
:100D30000BF06FFB04E01021DFF8940B0BF06CFB61
:100D400001BD00006B09000880B5002805D1042111
:100D5000DFF8800B0BF05DFB04E00421DFF8740B7F
:100D60000BF05AFB01BD0000B508000880B5002853
:100D700006D14FF48051DFF8600B0BF04AFB05E021
:100D80004FF48051DFF8500B0BF046FB01BD000023
:100D9000781000203708000880B5002806D14FF4ED
:100DA0000061DFF8340B0BF034FB05E04FF4006119
:100DB000DFF8240B0BF030FB01BD0000310C000804
:100DC000590C00088F0A0008110B000880B5002894
:100DD00006D14FF40041DFF8040B0BF01AFB05E0DD
:100DE0004FF40041DFF8F40A0BF016FB01BD0000E0
:100DF000850C000880B5002806D14FF48061DFF82B
:100E0000D80A0BF006FB05E04FF48061DFF8C80A52
:100E10000BF002FB01BD000018ED00E0C10C000862
:100E200080B5002806D14FF40071DFF8AC0A0BF052
:100E3000F0FA05E04FF40071DFF89C0A0BF0ECFAD1
:100E400001BD000010E000E0FD0C0008CD0D000821
:100E500080B5002805D10821DFF8740A0BF0D9FA13
:100E600004E00821DFF8680A0BF0D6FA01BD0000A3
:100E7000BB150020790E000880B5002805D101219E
:100E8000DFF8500A0BF0C5FA04E00121DFF8440A4C
:100E90000BF0C2FA01BD0000A50E0008F10E00081B
:100EA000350F0008002808D10020DFF8341A087038
:100EB0000020DFF8A41B087014E0DFF8280ADFF830
:100EC000281A097810F81100DFF8141A0870DFF8F2
:100ED000140ADFF8141A097800EB41004078DFF8B3
:100EE000781B0870704700005D0F0008A90F00080C
:100EF00080B500280DD10821DFF8E0090BF089FA50
:100F0000DFF8580B007810F0FE00DFF8501B087077
:100F10000CE00821DFF8C4090BF07EFADFF83C0B87
:100F2000007850F00100DFF8341B087001BD0000AC
:100F3000D50F000880B5002805D10421DFF89C09F1
:100F40000BF067FA04E00421DFF890090BF064FA73
:100F500001BD00001D1000084510000880B50028E4
:100F60000ED14FF48051DFF868090BF052FADFF828
:100F7000EC0A007810F0FD00DFF8E01A08700DE0D0
:100F80004FF48051DFF848090BF046FADFF8CC0A3D
:100F9000007850F00200DFF8C41A087001BD0000AC
:100FA000711000089910000880B5002806D14FF490
:100FB0000051DFF81C090BF02CFA05E04FF400514A
:100FC000DFF80C090BF028FA01BD0000250D000820
:100FD000490D000880B500280ED14FF48051DFF88C
:100FE000F4080BF016FADFF8740A007810F0FB0032
:100FF000DFF8681A08700DE04FF48051DFF8D4086C
:101000000BF00AFADFF8540A007850F00400DFF819
:101010004C1A087001BD00006D0D000880B5002855
:1010200006D14FF40051DFF8AC080BF0F2F905E0FF
:101030004FF40051DFF89C080BF0EEF901BD000001
:10104000990D000880B5002806D14FF48041DFF8E3
:101050008C080BF0DEF905E04FF48041DFF87C08E6
:101060000BF0DAF901BD0000F50D0008210E0008B3
:1010700080B5002806D14FF40051DFF860080BF06E
:10108000C8F905E04FF40051DFF850080BF0C4F93F
:1010900001BD0000510E000880B5002806D14FF4B4
:1010A0008051DFF838080BF0B4F905E04FF48051B7
:1010B000DFF828080BF0B0F901BD0000371600205A
:1010C00080B5DFF89C090078012807D0DFF8940983
:1010D000DFF89419097850F82100804701BD00001D
:1010E000AA15002008150020AB150020DFF87C09A8
:1010F000DFF870190860DFF87809DFF868194860D0
:10110000DFF87009DFF85C198860DFF86C09DFF838
:101110005419C860DFF86409DFF848190861DFF87E
:101120006009DFF840194861DFF85809DFF8341921
:101130008861DFF85409DFF82C19C861DFF84C0921
:10114000DFF820190862DFF84809DFF8181948624B
:10115000DFF84009DFF80C198862DFF83C09DFF896
:101160000419C862DFF83409DFF8F8180863DFF8FB
:101170003009DFF8F0184863DFF82809DFF8E418D1
:1011800088637047001801401E1500204C1600208F
:101190007C1500207E150020704780B5DFF8940B89
:1011A0000078002806D0022817D004D3042840D0A5
:1011B0002ED34EE04DE0DFF8F0080088DFF8EC18A1
:1011C0000988884204D20320DFF8681B087003E016
:1011D0000420DFF8601B08703BE0DFF8D0080088CF
:1011E000801EDFF8C4180988884204DB0320DFF87A
:1011F000441B08700BE0DFF8B0080088DFF8AC187B
:101200000988884203D30420DFF8281B087020E0F7
:10121000DFF89C080078002804D0DFF898080078F0
:10122000002801D102F00EFC0220DFF8081B087034
:101230000FE0DFF87C080078012804D0DFF874089C
:101240000078012801D102F09DFB0220DFF8E41AAA
:10125000087001BD001801400A150020AC150020DF
:1012600080B5DFF854080088002840F0C380DFF81C
:10127000C40A0078DFF844180870DFF844080078E2
:10128000C0B2C009C0B200285DD0DFF830080078D5
:10129000002808D0012807D0052817D0062830D00C
:1012A00007283FD0A0E09FE0DFF8FC070088DFF8C8
:1012B000FC170988884204D20620DFF8001808705D
:1012C00003E00720DFF8F41708708DE0DFF8D80797
:1012D0000088DFF8D8170988884204D30720DFF890
:1012E000DC1708700CE0DFF8C4070088801EDFF808
:1012F000B8170988884203DB0620DFF8C01708709A
:1013000072E0DFF8AC070078002804D0DFF8A4070B
:101310000078002801D102F095FB0520DFF89C172A
:10132000087061E0DFF888070078012804D0DFF852
:1013300084070078012801D102F024FB0520DFF8A2
:101340007C17087050E0DFF874070078002806D09A
:10135000022817D004D304283BD02ED344E043E026
:10136000DFF844070088DFF844170988884204D270
:101370000320DFF84817087003E00420DFF83C176B
:10138000087031E0DFF820070088DFF820170988AF
:10139000884204D30420DFF8241708700CE0DFF83B
:1013A0000C070088801EDFF800170988884203DBDD
:1013B0000320DFF80817087016E0DFF87C090078D2
:1013C000002801D102F062FB0220DFF8F01608705D
:1013D0000AE0DFF864090078012801D102F038FB47
:1013E0000220DFF8D8160870DFF8D0060078DFF8A2
:1013F0004419087001BD0000AD1500200C15002037
:10140000AE1500200E15002080B5DFF8AC06008870
:10141000002840F02D81DFF81C090078DFF81C1946
:101420000870DFF89C060078C0B2C009C0B200287E
:101430005DD0DFF808090078002808D0012807D01F
:10144000032832D0042841D0052813D00AE109E14D
:10145000DFF854060088DFF854160988884204D261
:101460000320DFF8D818087003E00420DFF8CC1858
:101470000870F7E0DFF830060088DFF830160988DA
:10148000884204D30420DFF8B41808700CE0DFF8B9
:101490001C060088801EDFF810160988884203DBCE
:1014A0000320DFF898180870DCE0DFF80406007805
:1014B000002804D0DFF8FC050078002801D102F0F4
:1014C000C1FA0520DFF874180870CBE0DFF8E005FA
:1014D0000078012804D0DFF8DC050078012801D16C
:1014E00002F050FA0520DFF854180870BAE0DFF86F
:1014F0004C08007800280DD001280CD0022819D003
:10150000032833D0052851D0062861D0072800F0E1
:10151000A080A7E0A6E0DFF890050088462804DA5E
:101520000320DFF81818087003E00220DFF80C1819
:10153000087097E0DFF878050078012804D0DFF81C
:1015400074050078012801D102F01CFA02F09EFA1D
:101550000420DFF8EC170870DFF8E807DFF8E81779
:1015600008600620DFF8D41708707BE0DFF8C807B2
:101570000078012801D102F06BFA02F063FA002032
:10158000DFF8C81708804FF4FA70DFF8C417088036
:1015900041F28830DFF8BC1708800120DFF8A0177F
:1015A00008700520DFF8941708705BE0DFF8F80496
:1015B000008846280BDB02F0E5F902F067FA042008
:1015C000DFF87C1708700620DFF87017087049E014
:1015D000DFF8D4040088462804DA0320DFF85C171B
:1015E000087035E0DFF85007007801281CD1DFF8DB
:1015F000B8040088DFF8B4140988884228D302F0C0
:1016000027FA0020DFF8441708804FF4FA70DFF85B
:101610004017088041F28830DFF838170880012031
:10162000DFF81C17087013E0DFF80C0700780028BB
:101630000ED1DFF878040088801EDFF86C1409886A
:10164000884205DB02F022FA0420DFF8F416087065
:1016500008E0DFF8F4060068002803D10120DFF875
:10166000DC160870DFF8D4060078DFF8C8160870BA
:1016700001BD00004016002041160020704780B5D3
:10168000DFF8B0060078DFF8EC190870DFF83004F6
:101690000078C0B2C009C0B200285DD0DFF8D4091C
:1016A0000078002808D0012807D0022817D0042885
:1016B00030D005283FD004E103E1DFF8EC030088D7
:1016C000DFF8E8130988884204D20420DFF8A4195F
:1016D000087003E00520DFF89C190870F1E0DFF8DE
:1016E000C8030088DFF8C4130988884204D30520A2
:1016F000DFF8801908700CE0DFF8B0030088801E66
:10170000DFF8A4130988884203DB0420DFF864199A
:101710000870D6E0DFF898030078002804D0DFF8DE
:1017200094030078002801D102F08CF90220DFF840
:1017300044190870C5E0DFF878030078012804D068
:10174000DFF870030078012801D102F01BF90220B4
:10175000DFF820190870B4E0DFF8180900780028D5
:101760000DD001280CD0022813D0032823D0042840
:101770004ED006286ED0072800F08780A1E0A0E0B8
:101780000020DFF8F41808700220DFF8E81808706D
:1017900097E0DFF814030088DFF810130988884207
:1017A00004D20420DFF8CC18087003E00620DFF82C
:1017B000C418087085E0BD480088801EBA490988B1
:1017C000884204DB0420DFF8AC1808701FE0B6483C
:1017D0000088B6490988884219D3DFF89C08007848
:1017E00000280AD1DFF894080078DFF88C18087018
:1017F0000620DFF88018087009E0AD48007801285D
:1018000003D0AC480078012801D102F0BBF858E0C1
:10181000DFF824050078012801D102F019F9A44865
:101820000078002811D1A348007800280DD102F0DB
:1018300009F9DFF844080078002806D0DFF83808F6
:101840000078401EDFF8301808700320DFF82418F5
:10185000087036E096480078012803D09548007853
:10186000012801D102F08EF8DFF8CC0400780028BE
:1018700001D102F00BF94EF66020DFF8CC140860BD
:101880000720DFF8F01708701BE0DFF8BC040068E1
:1018900000280BD085480088801E8349098888422B
:1018A0000FDB0420DFF8CC1708700AE0DFF88804AB
:1018B0000078012801D102F0CBF80320DFF8B4173B
:1018C0000870DFF8B0070078DFF86814087001BD11
:1018D00000100140000C0140001C014000140140B8
:1018E000551600206CF100085716002080B5DFF86F
:1018F0004404007800280AD0022827D008D30428FE
:1019000064D034D3062800F0928075D3A3E0A2E01F
:101910000020DFF86C1708700020DFF868170870E7
:10192000DFF86407007810F0FD00DFF85C1708703E
:101930005E480188DFF8540700784118DFF8500747
:1019400001800220DFF8EC13087084E0564800881C
:10195000DFF83C170988884204D20420DFF8D4134A
:10196000087003E00520DFF8CC13087073E0DFF89F
:1019700020070088801E4C490988884204DB042027
:10198000DFF8B01308700AE047480088DFF8001756
:101990000988884203D30520DFF898130870DFF820
:1019A000E4060078012810D1DFF8DC060078C0F3E7
:1019B0004000C0B2002808D1DFF88C03006800287E
:1019C00003D10620DFF86C13087044E0DFF86803E9
:1019D0000078012801D102F03BF835480078002852
:1019E00003D034480078002801D102F02BF80320FE
:1019F000DFF8401308702EE02D480078012803D04E
:101A00002C480078012801D101F0BCFFDFF87406F2
:101A10000078002807D1DFF8D009CB490860012001
:101A2000DFF8601608700320C249087013E0DFF881
:101A30005006007800280BD1DFF84C06007850F0F3
:101A40000200DFF8441608700120DFF83416087031
:101A50000320B849087001BD561600202215002049
:101A600030160020E0110020151600209911000802
:101A70009B11000861120008091400087D16000877
:101A80007F160008ED180008C51A0008591D000847
:101A9000952000089720000801240008D12500089F
:101AA000EF260008B92600082E1500205615002044
:101AB000051600200816002020150020B015002073
:101AC0006215002080B59B480078DFF82019087067
:101AD000DFF81C090078C0B2C009C0B2002800F0CD
:101AE0009A80DFF808090078002808D0012807D07C
:101AF000052850D006285FD0072823D06CE06BE083
:101B00000020DFF87C1508700020DFF8E818087066
:101B1000DFF87405007810F0FD00DFF86C15087030
:101B2000DFF8D4080088DFF8D4180988884204D286
:101B30000520DFF8B818087003E00620DFF8AC18BD
:101B4000087049E0DFF8B0080088DFF8B0180988AD
:101B5000884212D3DFF89C080078002808D1DFF80B
:101B60008808DFF8601A08600120DFF8881808701C
:101B70000620DFF8781808700CE0DFF8800800888D
:101B8000801EDFF874180988884203DB0520DFF81F
:101B90005C18087020E0DFF8300A0078002804D0D4
:101BA000DFF8280A0078002801D101F04BFF072058
:101BB000DFF8381808700FE0DFF80C0A0078012809
:101BC00004D0DFF8080A0078012801D101F0DAFE1C
:101BD0000720DFF818180870DFF8180800780128C7
:101BE00040F0A180DFF8DC090068002840F09B800D
:101BF000DFF88C040078002840F09580DFF8880436
:101C0000007850F00200DFF8801408700120DFF83F
:101C10007014087087E0DFF8D4070078002806D039
:101C2000022827D004D304284AD03ED360E05FE0E6
:101C30000020DFF84C1408700020DFF8B817087097
:101C4000DFF84404007810F0FD00DFF83C14087061
:101C5000DFF8A4070088DFF8A4170988884204D2B7
:101C60000320DFF88817087003E00420DFF87C17F2
:101C700008703DE0DFF880070088DFF880170988EA
:101C8000884204D30420DFF8641708700CE0DFF802
:101C90006C070088801EDFF860170988884203DB24
:101CA0000320DFF84817087022E023480078002856
:101CB00001D101F0EBFE0220DFF83017087017E0C9
:101CC0001D480078012801D101F0C2FEDFF8240789
:101CD0000078002808D1DFF81007DFF8E81808605E
:101CE0000120DFF8101708700220DFF800170870D5
:101CF000DFF800070078012815D1DFF8C808006870
:101D0000002810D1DFF87803007800280BD1DFF825
:101D10007803007850F00200DFF86C13087001209F
:101D2000DFF85C130870DFF8C4060078014908701A
:101D300001BD0000161600200B160020B115002072
:101D40002F160020E09304008C1400207015002052
:101D5000721500207415002080B5DFF82C0B007878
:101D6000DFF8C0190870DFF888060078C0B2C00933
:101D7000C0B2002800F09380DFF8A809007800289E
:101D800008D0012807D004284DD0052822D00728E4
:101D90005AD069E068E00020B94908700020DFF8F7
:101DA00054160870B848007810F0FD00B649087065
:101DB000DFF844060088DFF844160988884204D218
:101DC0000420DFF86019087003E00720DFF85419D9
:101DD000087049E0DFF820060088DFF8201609883F
:101DE000884212D3DFF80C060078002808D1DFF80B
:101DF000F805DFF8D01708600120DFF8F815087043
:101E00000720DFF8201908700CE0DFF8F0050088E3
:101E1000801EDFF8E4150988884203DB0420DFF820
:101E20000419087020E0DFF8A0070078002804D02B
:101E3000DFF898070078002801D101F003FE0520A3
:101E4000DFF8E01808700FE0DFF87C070078012861
:101E500004D0DFF878070078012801D101F092FD65
:101E60000520DFF8C0180870DFF888050078012821
:101E700040F0F980DFF84C070068002840F0F3805C
:101E80007F480078002840F0EE807F48007850F0CE
:101E900002007D490870012079490870E3E0DFF80D
:101EA00084080078002809D0022815D007D3042818
:101EB0003DD020D3062871D059D3BDE0BCE000202E
:101EC0006F4908700020DFF82C1508706E48007804
:101ED00010F0FD006C490870DFF81C0500884628EA
:101EE00004DA0420DFF83C18087003E00320DFF870
:101EF00034180870A0E0DFF8D0060078012804D07C
:101F0000DFF8C8060078012801D101F03BFD01F09F
:101F1000BDFD0420DFF874190870DFF87409DFF8DC
:101F2000741908600620DFF8FC17087084E0DFF8F9
:101F300068090078012801D101F08AFD01F082FDD5
:101F40000020DFF8581908804FF4FA70DFF85019B4
:101F5000088041F28830DFF84C1908800120DFF852
:101F60002C1908700520DFF8BC17087064E0DFF852
:101F700088040088462810DB01F004FD01F086FD8E
:101F80000420DFF808190870DFF80409DFF80419E5
:101F900008600620DFF88C1708704DE0DFF8F808BD
:101FA000007801282AD1DFF850040088DFF84C14AB
:101FB0000988884240D301F04BFD0020DFF8DC188F
:101FC00008804FF4FA70DFF8D818088041F28830A2
:101FD000DFF8D01808800120DFF8B0180870DFF8AB
:101FE00014040078002827D1DFF8FC03DFF8D415AB
:101FF00008600120DFF8FC1308701DE0DFF8980886
:102000000078002818D1DFF8F4030088801EDFF87C
:10201000E813098888420FDBDFF8DC0300884628D4
:1020200004DA0220DFF8FC16087005E001F02EFD4E
:102030000420DFF858180870DFF8B803007801288A
:1020400011D1DFF88005006800280CD10C48007819
:10205000002808D10C48007850F002000A490870A6
:10206000012007490870DFF8BC060078DFF818186F
:10207000087001BDB3150020B21500201416002011
:10208000AF150020B415002035160020531600208F
:1020900010150020704780B5DFF8EC070078DFF8F6
:1020A00008180870DFF848030078C0B2C009C0B251
:1020B000002800F0A280DFF8F0070078002808D0A0
:1020C000022829D006D3042858D035D3052866D055
:1020D00075E074E00020DFF8D41708700020DFF806
:1020E000D01708700020DFF80C130870DFF8C40761
:1020F000007810F0FD00DFF8BC170870DFF8FC0274
:102100000188DFF8B40700784118BC48018002203C
:10211000DFF89417087052E0B7480088B74909887B
:10212000884204D20420DFF88017087003E00520FD
:10213000DFF87417087042E0AF480088AF4909889B
:1021400088420FD3AB480078002806D1A648DFF8B4
:10215000741408600120A74908700520DFF84817AB
:1021600008700AE0A5480088801EA34909888842B3
:1021700003DB0420DFF83017087020E0DFF84804A4
:102180000078002804D0DFF844040078002801D14A
:1021900001F058FC0320DFF8101708700FE0DFF89B
:1021A00028040078012804D0DFF8200400780128F2
:1021B00001D101F0E7FB0320DFF8EC1608708D4831
:1021C0000078012840F00981DFF8F8030068002852
:1021D00040F00381DFF8D8060078002840F0FD8049
:1021E000DFF8D006007850F00200DFF8C81608705B
:1021F0000120DFF8BC160870EFE0DFF8AC060078CD
:1022000000280ED001280DD002282BD0032839D069
:10221000042866D0062800F08680072800F0A880F1
:10222000C2E0C1E00020DFF8841608700020DFF86B
:102230008016087000206F490870DFF87806007873
:1022400010F0FD00DFF86C1608706C480188DFF8AC
:10225000680600784118694801800220DFF84816B6
:102260000870A1E06448008864490988884204D263
:102270000420DFF83416087003E00620DFF8281683
:10228000087091E05D480088801E5B49098888429B
:1022900004DB0420DFF81016087021E0564800889F
:1022A0005649098888421BD3DFF8000600780028C9
:1022B0000AD1DFF8700A0078DFF8F0150870062000
:1022C000DFF8E41508700BE0DFF8FC020078012865
:1022D00004D0DFF8F8020078012801D101F052FBA8
:1022E00062E0DFF8B4050078012801D101F0B0FB0D
:1022F000B5480078002811D1B448007800280DD1E5
:1023000001F0A0FBDFF8A4050078002806D0DFF874
:102310009C050078401EDFF8941508700320DFF854
:102320008815087040E0A8480078012803D0A74825
:102330000078012801D101F025FBDFF85C05007869
:10234000002801D101F0A2FB4EF66020DFF8441511
:10235000086028480078002805D12348994908607A
:102360000120244908700720DFF83C1508701BE0A5
:10237000DFF82005006800280BD020480088801E68
:102380001D49098888420FDB0420DFF81C150870FE
:102390000AE0DFF804050078012801D101F058FBBC
:1023A0000320DFF80415087012480078012814D1C2
:1023B00084480068002810D1DFF8F4040078002871
:1023C0000BD1DFF8F004007850F00200DFF8E414DD
:1023D00008700120DFF8D8140870DFF8CC0400780A
:1023E000DFF8A414087001BDC0270900B61500204D
:1023F00062150020B51500202E150020561500206E
:1024000080B5DFF884040078DFF8B0190870DFF8D1
:10241000AC09007800280FD0022813D00DD304286F
:102420005ED042D3062800F08B806FD3082800F0DE
:10243000B980C0F0A280BFE0BEE00220DFF87C19C6
:102440000870B9E0DFF878090088DFF878190988A2
:10245000884204D20420DFF86419087024E0DFF811
:102460006809B0F9000000281AD0DFF85409008884
:10247000DFF85019098888420DD3DFF84409008835
:10248000DFF84419B1F90010884204DA0720DFF8B8
:102490002C19087008E00820DFF82019087003E004
:1024A0000520DFF81819087086E0DFF818090088A1
:1024B000801EDFF80C190988884204DB0420DFF84D
:1024C000FC1808700BE0DFF8F8080088DFF8F41853
:1024D0000988884203D30520DFF8E01808706BE014
:1024E000DFF8B4030078012801D101F0B1FA3648D1
:1024F0000078002803D035480078002801D101F089
:10250000A1FA0320DFF8B418087055E02E480078CF
:10251000012803D02D480078012801D101F032FABA
:10252000DFF8A408B0F90000002804D10320DFF888
:102530008C18087003E00720DFF8801808703BE073
:10254000DFF88408B0F90000801EDFF874180988ED
:10255000884204DB0720DFF8641808700CE0DFF81D
:1025600060080088DFF86018B1F90010884203DBCA
:102570000820DFF8481808701EE01348007801288A
:1025800003D012480078012801D101F0FBF9C248BC
:102590000078002801D101F079FA0620DFF81C1834
:1025A000087009E0BC480078012801D101F050FA18
:1025B0000620DFF808180870DFF800080078B24934
:1025C000087001BD90140020051600200816002098
:1025D00080B5AD480078DFF8F4170870DFF8EC0735
:1025E0000078002808D002280CD006D3042836D062
:1025F0001AD305284AD059E058E00220DFF8CC175A
:10260000087053E0DFF8B8070088DFF8B8170988CA
:10261000884204D20420DFF8B417087003E00520D4
:10262000DFF8A817087041E0DFF898070088801EDF
:10263000DFF88C170988884204DB0420DFF88C1748
:1026400008700BE0DFF878070088DFF87817098852
:10265000884203D30520DFF87417087026E08E48FF
:102660000078012801D101F0F3F9DFF8000A0078C1
:10267000002804D0DFF8F8090078002801D101F023
:10268000E1F90320DFF8441708700FE0DFF8DC09F8
:102690000078012804D0DFF8D8090078012801D19A
:1026A00001F070F90320DFF824170870DFF81C0729
:1026B00000787549087001BD80B5DFF8B009007871
:1026C000012804D0DFF8A8090078012801D101F021
:1026D00059F971480078012801D101F0B9F90020B9
:1026E000DFF89019087001206749087001BD80B5B6
:1026F000DFF878090078012804D0DFF87409007841
:10270000012801D101F03EF963480078012801D188
:1027100001F09EF90020DFF85C19087000205A498A
:10272000087001BDB715002080B501F03DFD02F035
:102730003CFC01F019FC4FF47A700AF005FBDFF85D
:102740003839002247F60101062003F02BFA082150
:10275000DFF824090AF073FCDFF82039002247F67D
:102760000101062003F01EFA0821DFF810090AF023
:102770007DFC002006F0E2FA0120DFF80419087061
:102780000120DFF800190880DFF8FC08007850F01D
:102790000400DFF8F4180870DFF8EC08007850F057
:1027A0000800DFF8E418087001F049FF03F034FC7A
:1027B00000F084F806F05CFE06F006F802F0AEF8D1
:1027C00002F0A0F902F087FA02F064FB03F04EFB7E
:1027D000DFF8B80800780028E6D102F0E5FB02F047
:1027E0002DFD03F045F805F0D9FF05F0DBFF06F0FD
:1027F0002FF906F07DF901F069FB07F011FB06F0F7
:10280000C9F907F03FF907F064F907F098F9DFF824
:10281000640C007807F00AFA07F08CFB07F0D8FF89
:1028200008F00CFB08F04EFE08F036FFDFF8480C0D
:102830000078002801D100F0CBFA08F0DDFE08F0A6
:10284000DBFFFEF73DFC09F04DF9FDF745FFFEF714
:102850006DF8FEF7FEF8FEF79CF900F0E4F909F0D8
:1028600063F909F094FB09F0EBFB09F043FC09F074
:1028700089F809F0EBF809F034FB00F015FC00F0E2
:1028800031FE01F02FF98FE7161600202F160020D9
:10289000E09304008C1400200B160020701500201B
:1028A0007215002074150020B8150020B215002004
:1028B000AF150020351600205316002080B5DFF834
:1028C000BC0B0088002840F0AD81AA20DFF8C017BB
:1028D00008703C20DFF8B8174870DFF8B8070068C8
:1028E000DFF8B4170860DFF8A00700884FF48071A4
:1028F00090FBF1F201FB1200DFF89417C870DFF8CB
:10290000880700884FF4807190FBF1F0DFF88017A2
:102910000871DFF884070078DFF874174871DFF872
:1029200078074078DFF868178871DFF86C078078DF
:10293000DFF85C17C871DFF86007C078DFF8501760
:102940000872DFF858070078DFF844174872DFF89C
:10295000500700884FF4807190FBF1F201FB1200E8
:10296000DFF82C178872DFF8380700884FF4807181
:1029700090FBF1F0DFF81817C872DFF8280700881D
:102980004FF4807190FBF1F201FB1200DFF80017A9
:102990000873DFF8100700884FF4807190FBF1F0A6
:1029A000DFF8EC164873DFF8180400884FF48071E4
:1029B00090FBF1F201FB1200DFF8D4168873DFF808
:1029C000000400884FF4807190FBF1F0DFF8C0162E
:1029D000C873DFF8AC0A00884FF4807190FBF1F205
:1029E00001FB1200DFF8A8160874DFF8940A0088CB
:1029F0004FF4807190FBF1F0DFF894164874DFF823
:102A0000840AB0F9000080B24FF4807190FBF1F2BB
:102A100001FB1200DFF878168874DFF8680AB0F955
:102A2000000080B24FF4807190FBF1F0DFF8601687
:102A3000C874DFF8540AB0F9000080B24FF4807116
:102A400090FBF1F201FB1200DFF844160875DFF885
:102A5000380AB0F9000080B24FF4807190FBF1F0B9
:102A6000DFF82C164875DFF8240AB0F9000080B2B0
:102A70004FF4807190FBF1F201FB1200DFF81016A9
:102A80008875DFF8080AB0F9000080B24FF4807151
:102A900090FBF1F0DFF8F815C875DFF8F40900884D
:102AA000DFF8EC150876DFF8EC090088DFF8E015B0
:102AB0004876DFF8E4090088DFF8D4158876DFF877
:102AC000DC0900884FF4807190FBF1F201FB1200E9
:102AD000DFF8BC15C876DFF8C40900884FF48071B0
:102AE00090FBF1F0DFF8A8150877DFF8B40900884B
:102AF0004FF4807190FBF1F201FB1200DFF89015AA
:102B00004877DFF89C0900884FF4807190FBF1F062
:102B1000DFF87C158877DFF88C090078DFF870150E
:102B2000C877DFF85C050078DFF8641581F82000CD
:102B3000DFF874090078DFF8581581F82100DFF814
:102B400034090078DFF8481581F82200DFF85C09C5
:102B50000078DFF83C1581F82300DFF8540900788D
:102B6000DFF82C1581F82400DFF848090078C0F35D
:102B7000C000C0B2002818D0DFF83C0900884FF42C
:102B8000807190FBF1F201FB1200DFF8041581F86F
:102B90003200DFF8240900884FF4807190FBF1F0D7
:102BA000DFF8EC1481F8330017E0DFF81009008833
:102BB0004FF4807190FBF1F201FB1200DFF8D014AA
:102BC00081F83200DFF8F40800884FF4807190FB40
:102BD000F1F0DFF8BC1481F83300DFF8E408007886
:102BE000DFF8AC1481F83400DFF8D80800684FF43F
:102BF0007A71B0FBF1F0DFF8981481F835003621D6
:102C0000DFF88C0405F0D2FDDFF8841481F836007B
:102C10003721DFF87C040AF040FA4FF4FA70DFF84D
:102C20005C18088001BD80B500F014F800F04BF886
:102C300000F07AF800F0A7F801BDDFF88C180870F2
:102C4000DFF888180870DFF888180870DFF8C41CEF
:102C50000870704780B5DFF870080078002805D04C
:102C6000022813D003D303281FD02BE02AE0DFF87B
:102C700064080078002825D10120DFF85C18096875
:102C800088470220DFF8401808701BE0DFF844088E
:102C90000078002816D10120DFF83C1849688847E1
:102CA0000320DFF8241808700CE0DFF8280800780B
:102CB000002807D10120DFF8241808700020DFF871
:102CC0000818087001BD80B5DFF8000800780028FA
:102CD00005D0022812D003D303281ED021E020E023
:102CE0000120DFF8F417496988476E20DFF8F017F4
:102CF00008800220DFF8D417087012E0DFF8E00740
:102D0000008800280DD10120DFF8CC178969884799
:102D10000320DFF8B817087003E00020DFF8AC17D5
:102D2000087001BD1416002080B5DFF8A4070078F4
:102D3000002805D0022812D003D303281ED021E09A
:102D400020E00120DFF89017C96A88476E20DFF87D
:102D5000281B08800220DFF87817087012E0DFF8DF
:102D6000180B008800280DD10120DFF86C17096BC3
:102D700088470320DFF85817087003E00020DFF8C9
:102D80005017087001BD80B5DFF8880B0078002867
:102D900003D002280CD001D30EE00DE00120DFF8B3
:102DA0003817C96988470220DFF8681B087003E0FC
:102DB0000020DFF8601B087001BD0000B91500207D
:102DC0002E150020561500206C150020BA15002085
:102DD00010B5DFF81C0B0078002840F04581DFF8C3
:102DE000140B0078002817D1DFF80C0B00780028AE
:102DF00008D1DFF8240B0078022803D00220DFF886
:102E00001C1B0870DFF8180B0078022803D0022082
:102E1000DFF8101B087027E1DFF80C0B00780028A2
:102E200022D099480078C0F30010C0B200280DD01D
:102E30000220DFF8F01A0870DFF8E00A00780328B3
:102E400011DA0220DFF8D41A08700CE00120DFF854
:102E5000D41A0870DFF8C40A0078032803DA0220C5
:102E6000DFF8B81A0870FFE087480078C0F3001058
:102E7000C0B2002800F08680DFF8040B007801283B
:102E800067D100241BE0DFF82C0B007821002039EB
:102E9000084110F00100DFF8401651F8241088476F
:102EA0000CE0202CEFDADFF8100B0068E04010F0A7
:102EB0000100DFF8241651F824108847641CDFF85D
:102EC000FC0A00788442ECDBDFF8400B0078012834
:102ED00004D0DFF8100B0078012802D100F0B2FD19
:102EE00009E00020DFF8F015496E88470020DFF880
:102EF000E815896E8847DFF8F00A0078012802D1CA
:102F000000F0C4FD04E00020DFF8CC15C96E88474E
:102F1000DFF8200B0078DFF8201B0870DFF81C0BAF
:102F20000078DFF8501508700020DFF8E41A087008
:102F30000220DFF8F01908700120DFF8E0190870AE
:102F40000120DFF8FC1A08700020DFF8341A08703E
:102F50008AE0DFF8680B0078002840F08580DFF811
:102F6000D80A0078012804D10120DFF8B0190870D0
:102F700003E00220DFF8A41908700120DFF83C1BF1
:102F8000087071E0DFF8F8090078002868D141483E
:102F90000068DFF8241A086040480078DFF8141A47
:102FA0000870DFF8940A0078DFF8881A0870DFF8F4
:102FB00014050068DFF8D01A08602C480078DFF8A4
:102FC0004C1A08702A480078DFF8181A0870DFF8E1
:102FD000F00A0078DFF8101A0870DFF8980400781B
:102FE000DFF8581A08700120DFF8881408701F48AD
:102FF0000078012803D01E480078012801D100F094
:10300000C1FCDFF8BC0A0078012801D100F020FDE6
:10301000DFF8240A0078012803D10120DFF8A41A80
:1030200008700020DFF8101A08700120DFF8F4188B
:1030300008700220DFF8E41808700020DFF8981408
:10304000C96888470020DFF8901409698847002084
:10305000DFF88414496A88470120DFF824190870D2
:103060000020DFF8581A087010BD00000516002077
:1030700008160020151600200013002068130020F9
:103080003C160020181500201E1500204A160020AE
:1030900018110020BC14002098140020EE15002008
:1030A000261500202A15002080B5DFF81C0A0078BC
:1030B00000282AD002285DD028D3042800F08F8071
:1030C0007DD3062800F0BC80C0F0A280082800F064
:1030D000EB80C0F0CD800A2800F01B81C0F0FB809F
:1030E0000C2800F04481C0F033810E2800F0768176
:1030F000C0F05781102800F07781C0F0708112284D
:1031000000F0B281C0F09A81B2E1B1E10220DFF8B3
:10311000BC190870DFF89C030078C0F3C000C0B28F
:1031200000280FD0012008F0F5FBDFF8A409007893
:1031300050F00800DFF8981908700E20DFF88819A1
:10314000087016E0DFF86C03007810F0010000282A
:103150000FD00020DFF87C190880DFF874090078B0
:1031600010F0F700DFF8681908700220DFF858192E
:1031700008707DE1DFF85C090088002840F0788164
:103180000020D549096D88470020D349C96C88477C
:103190000120D149496E8847DFF83C09807802F068
:1031A000D3FBDFF83409017B4FF47A704143DFF839
:1031B000240901800320DFF81019087058E1DFF8B6
:1031C00014090088002840F053814FF4FA70DFF8AA
:1031D000041908800420DFF8F018087048E1DFF8CF
:1031E000F4080088002840F043810120BA49496E64
:1031F0008847DFF8E408C07802F0A6FB40F6B83054
:10320000DFF8D01808800520DFF8BC1808702FE11F
:10321000DFF8C0080088002840F02A810120AE496C
:10322000096D8847DFF8B008817A4FF47A7041431E
:10323000DFF8A00801800620DFF88C18087017E17D
:10324000DFF890080088002840F012810120A24990
:10325000C96C8847DFF88008C17A4FF47A7041431F
:10326000DFF8700801800720DFF85C180870FFE0C5
:10327000DFF860080088002811D0DFF86008407887
:10328000C0F34000C0B200280DD00820DFF8381885
:1032900008704FF47A70DFF83C18088003E00920CA
:1032A000DFF824180870E3E0DFF828080088002819
:1032B0000CD0DFF828084078C0F34000C0B20028E6
:1032C00008D10920DFF80018087003E00B20DFF8B0
:1032D000F8170870CCE0DFF8F407007800280BD06E
:1032E000DFF8E8070078401EDFF8E01708700A20D2
:1032F000DFF8D41708700BE0DFF8E4070078002847
:1033000002D1FB206D4908800F20DFF8BC17087040
:10331000AEE000207049096D884700206E49C96CF5
:10332000884701206C49496E8847DFF8AC078078F0
:1033300002F00AFBDFF8A007017B4FF47A704143EB
:10334000DFF8900701800220DFF87C1708708FE01B
:10335000DFF88407007902F0F7FA4FF4FA60DFF83B
:10336000741708800C20DFF86017087080E0DFF821
:103370006407008800287BD100205749096D8847E1
:10338000DFF84C07007850F00800DFF844170870A9
:103390000120DFF8341B08700D20DFF82C170870AF
:1033A00066E0DFF838074078C0F34000C0B200287C
:1033B00013D1DFF82C070078002806D1FE203F4902
:1033C00008800020DFF8001708700020DFF8F81AE6
:1033D00008700F20DFF8F016087049E048E0102070
:1033E000DFF8E416087043E032480078C0F3C0000C
:1033F000C0B2002803D0002008F08CFA19E00020A9
:103400003549096D884700203349C96C8847012038
:103410003149496E8847DFF8C006807802F094FA97
:10342000DFF8B406017B4FF47A704143DFF8A4065D
:1034300001801120DFF89016087019E0DFF894067B
:103440000088002814D100202349496E8847DFF8FE
:103450008006007810F0F700DFF87416087012206C
:10346000DFF86416087003E00020DFF85C160870CF
:1034700001BD00001A16002054160020121500206D
:103480003215002046150020481500204A1500205E
:1034900036150020381500203A150020421500206E
:1034A0004415002031160020710000203416002041
:1034B00035160020621500207E1500207C150020A6
:1034C0004B160020CC1400205D1600205C16002056
:1034D0005B160020AA15002078100020131600208B
:1034E0008C15002080B5DFF8700A0078C0F340002A
:1034F000C0B2002800F0BF81DFF8A00C00780028DF
:1035000029D002283DD027D3042872D061D30628C1
:1035100000F0A280C0F08780082800F0D280C0F0C0
:10352000B4800A2800F00381C0F0E2800C2800F08B
:103530002E81C0F01E810E2800F05E81C0F0408117
:10354000102800F05F81C0F05881122800F08F81B0
:10355000C0F078818FE18EE10220DFF8001A087058
:103560000020DFF8FC190880DFF86405007810F00F
:10357000EF00DFF85C1508700220DFF8201C0870EF
:1035800079E1DFF8DC090088002840F07481002030
:10359000DFF8D019896D88470020DFF8C819496D18
:1035A00088470120DFF8BC19896E8847DFF82805B5
:1035B000C07902F0EDF9DFF82005017B4FF47A7055
:1035C0004143DFF89C0901800320DFF8D01B08701D
:1035D00051E1DFF88C090088002840F04C814FF45D
:1035E000FA70DFF87C1908800420DFF8B01B08703F
:1035F00041E1DFF86C090088002840F03C8101209F
:10360000DFF86019896E8847DFF8CC04007A02F091
:10361000BFF940F6B830DFF8481908800520DFF818
:103620007C1B087027E1DFF838090088002840F08B
:1036300022810120DFF82C19896D8847DFF8980472
:10364000817A4FF47A704143DFF814090180062033
:10365000DFF8481B08700EE1DFF804090088002835
:1036600040F009810120DFF8FC18496D8847DFF838
:103670006804C17A4FF47A704143DFF8E4080180AE
:103680000720DFF8181B0870F5E0DFF8D408008881
:10369000002811D0DFF844044078C0F38000C0B2A5
:1036A00000280DD00820DFF8F41A08704FF47A7063
:1036B000DFF8AC18088003E00920DFF8E01A087092
:1036C000D9E0DFF89C08008800280CD0DFF80C0453
:1036D0004078C0F38000C0B2002808D10920DFF88C
:1036E000BC1A087003E00B20DFF8B01A0870C2E0C3
:1036F000DFF86808007800280BD0DFF86008007851
:10370000401EDFF8581808700A20DFF8901A087079
:103710000CE0DFF8CC030078002803D1FC20DFF8B0
:10372000801A08800F20DFF8741A0870A3E00020C8
:10373000DFF83018896D88470020DFF82818496DB8
:1037400088470120DFF81C18896E8847DFF8880356
:10375000C07902F01DF9DFF88003017B4FF47A7025
:103760004143DFF8FC0701800220DFF8301A0870BF
:1037700081E0D948407A02F00BF94FF4FA60DFF8A3
:10378000E01708800C20DFF8141A087073E0DFF8E7
:10379000D007008800286ED10020DFF8C817896D97
:1037A0008847CB48007850F01000C94908700120C4
:1037B000DFF8F01908700D20DFF8E01908705AE002
:1037C000C6484078C0F38000C0B2002813D1C44876
:1037D0000078002807D1FF20DFF8C41908800020F6
:1037E000DFF8B81908700020DFF8B81908700F204A
:1037F000DFF8A81908703EE03DE01020DFF89C19C2
:10380000087038E00020DFF85C17896D88470020D9
:10381000DFF85017496D88470120DFF84817896E97
:103820008847AD48C07902F0B3F8AB48017B4FF44C
:103830007A704143DFF8280701801120DFF85C1916
:10384000087018E0DFF818070088002813D100205E
:10385000DFF81017896E88479D48007810F0EF0058
:103860009B4908701220DFF83419087003E000202B
:10387000DFF82819087001BD8E150020C0B200289D
:1038800002D0012809D022E00220DFF8101A0870C7
:103890000420DFF80C1A087019E00320DFF8FC1987
:1038A0000870DFF8B4060078C0B2C009C0B20028C2
:1038B0000DD10120DFF8E81908704FF4FA70DFF835
:1038C000E419088041F28830DFF8DC190880012013
:1038D000DFF8D81908700020DFF8D419088001201B
:1038E0000E4908700120DFF86C1C0870704700005A
:1038F0005916002010160020271600200E20DFF891
:103900009C1908700220054908700420DFF89019FE
:10391000087070475A160020231600202216002037
:1039200025160020241600201C160020DFF884191C
:1039300008700120DFF8741908700020DFF8701992
:1039400008800120DFF8701908700420DFF8501992
:1039500008700520DFF84419087070470020DFF870
:10396000541908700E20DFF8341908700420DFF8AD
:10397000301908700220DFF8401908707047000005
:103980003016002080B500F003F800F019F801BDF2
:10399000DFF828090078012806D10020DFF81C197B
:1039A00008700F20484908700020DFF81C150870C7
:1039B00070470000EF150020C0140020BB15002048
:1039C000DFF8940B0078012807D10020DFF8881B6E
:1039D00008700F20DFF8C41708700020DFF8C41744
:1039E00008707047091600200C16002080B50120D1
:1039F000DFF8C81808700120334908703048007893
:103A0000012801D100F024F801BD000006160020B5
:103A10000016002080B50120DFF83C1B0870012053
:103A2000DFF87817087026480078012801D100F0E7
:103A30000FF801BDFE150020FD1500201B1600200B
:103A40004816002080B5FFF7D1FFFFF7E3FF01BD67
:103A5000DFF804050078C0B2C009C0B200280ED15A
:103A60001748007801280AD10020154908700F2056
:103A7000DFF8E81A08700020DFF8E41A0870002068
:103A8000DFF8E01A08707047D0140020DFF8C8048F
:103A90000078C0B2C009C0B200280ED10120084988
:103AA00008700120DFF8AC1A08700120DFF8AC1AAA
:103AB00008700120DFF8A81A087070474916002026
:103AC0000B160020FF15002003160020071600200B
:103AD0002215002052150020601400201E15002021
:103AE0004C16002080B5DFF8740A007800282BD02F
:103AF000022864D029D3042800F09980C0F0878080
:103B0000062800F0C580C0F0AB80082800F0F480E3
:103B1000C0F0D6800A2800F02581C0F004810C286E
:103B200000F04E81C0F03D810E2800F08181C0F090
:103B30006181102800F08281C0F07B81122800F0A2
:103B4000BD81C0F0A581BDE1BCE10220DFF8181AFB
:103B50000870DFF804040078C0F38000C0B20028C9
:103B600010D00020DFF8041A0880DFF8040A00787B
:103B700010F0DF00DFF8F81908700220DFF8DC1918
:103B800008701BE0DFF8D0030078C0F30010C0B26B
:103B900000280FD0012007F0D8FEDFF8D409007804
:103BA00050F02000DFF8C81908700E20DFF8AC19BB
:103BB000087003E00020DFF8A419087082E1DFF844
:103BC000AC090088002840F07D810020DFF89413C4
:103BD000096E88470020DFF88C13C96D88470120E3
:103BE000DFF88013C96E8847DFF88809807801F014
:103BF000FBFEDFF88009C1794FF47A704143DFF8AA
:103C00006C0901800320DFF8541908705AE1DFF8CD
:103C10005C090088002840F055814FF4FA70DFF805
:103C20004C1908800420DFF8341908704AE1DFF8E5
:103C30003C090088002840F045810120C949C96E2F
:103C40008847DFF83009C07801F0CEFE40F6B83082
:103C5000DFF8181908800520DFF80019087031E135
:103C6000DFF808090088002840F02C810120BD49B8
:103C7000096E8847DFF8FC0841794FF47A704143B8
:103C8000DFF8E80801800620DFF8D018087019E195
:103C9000DFF8D8080088002840F014810120B149DD
:103CA000C96D8847DFF8CC0881794FF47A704143B9
:103CB000DFF8B80801800720DFF8A018087001E1DC
:103CC000DFF8A8080088002811D0DFF8AC08407899
:103CD000C0F3C000C0B200280DD00820DFF87C1867
:103CE00008704FF47A70DFF88418088003E0092028
:103CF000DFF868180870E5E0DFF870080088002831
:103D00000CD0DFF874084078C0F3C000C0B20028BF
:103D100008D10920DFF84418087003E00B20DFF811
:103D20003C180870CEE0DFF84008007800280BD07F
:103D3000DFF834080078401EDFF82C1808700A20DD
:103D4000DFF8181808700CE0DFF830080078002859
:103D500003D1FD20DFF8481408800F20DFF8FC179E
:103D60000870AFE000207F49096E884700207D4938
:103D7000C96D884701207B49C96E8847DFF8F40781
:103D8000807801F031FEDFF8EC07C1794FF47A70EA
:103D90004143DFF8D80701800220DFF8C017087020
:103DA00090E0DFF8D007007901F01EFE4FF4FA60D2
:103DB000DFF8B81708800C20DFF8A017087081E042
:103DC000DFF8A807008800287CD100206549096E2B
:103DD0008847DFF89C07007850F02000DFF8901744
:103DE00008700120DFF87C1708700D20DFF86C17D1
:103DF000087067E0DFF880074078C0F3C000C0B209
:103E0000002814D1DFF874070078002807D14FF498
:103E10008070E34908800020DFF840170870002018
:103E2000DFF8401708700F20DFF83017087049E0FE
:103E300048E01020DFF82417087043E04648007877
:103E4000C0F30010C0B2002803D0002007F07DFDB1
:103E500019E000204349096E884700204149C96D97
:103E6000884701203F49C96E8847DFF808078078F6
:103E700001F0BAFDDFF8FC06C1794FF47A704143D6
:103E8000DFF8E80601801120DFF8D016087019E08D
:103E9000DFF8D8060088002814D100203149C96E07
:103EA0008847DFF8CC06007810F0DF00DFF8C01696
:103EB00008701220DFF8A416087003E00020DFF875
:103EC0009C16087001BD00003D16002080B5DFF88B
:103ED000400A007800283ED01F48007810F0140FE8
:103EE00004D10120DFF82C1A087034E0DFF8280A2A
:103EF000007800282FD1DFF85C06007800282AD04F
:103F0000DFF87406007810F00100002811D00020BE
:103F10001449096988474FF4FA60DFF80C1B0880E0
:103F20000120DFF8541D08700120DFF8E81908703F
:103F300011E001200B4909698847DFF83C0D007842
:103F4000012808D1DFF8E00A0088002803D100200A
:103F5000DFF8241D087001BD621500200A1600203C
:103F6000541500207810002010B5FCF70EF9FDF76D
:103F7000BDF8002406E00020DFF8F81A51F82410FC
:103F80008847641CDFF8F00A00788442F3DB4FF4C2
:103F90000051DFF8E80A08F03FFA4FF40041DFF87B
:103FA000DC0A08F036FA4FF48061DFF8D00A08F036
:103FB00033FA4FF48051DFF8C40A08F02AFA80215E
:103FC000DFF8B80A08F028FA4FF40071DFF8AC0AFD
:103FD00008F01FFA1021DFF8A40A08F01DFA4021AA
:103FE000DFF8980A08F015FA41F2883001F07AF803
:103FF0000A2001F0A9FC142001F0CAFC1E2001F0E7
:10400000F3FC0120DFF8C41A08700120DFF8C01AA1
:1040100008700120DFF8BC1A08700120DFF8B81A18
:1040200008706420DFF8B41A08706420DFF8B01A52
:1040300008706420DFF8AC1A08706420DFF8A81A52
:1040400008701B20DFF8A41AC8703420DFF89C1A0F
:1040500008713420DFF8941A88702620DFF88C1A53
:1040600008724A20DFF8841A48724A20DFF87C1A66
:10407000C8710320DFF8741A88720320DFF86C1A05
:10408000C8720520DFF8641A08732720DFF8E414EB
:10409000C8704820DFF8DC1408714820DFF8D41419
:1040A00088700320DFF8CC1448710320DFF8C414B3
:1040B00088710520DFF8BC14C8710120DFF8301AC0
:1040C00008700120DFF82C1A08700120DFF8281A88
:1040D00008700120DFF8241A08700120DFF8201A88
:1040E00008700120DFF82C1B08700120DFF8281B66
:1040F00008700120DFF8241B08700120DFF8381B4E
:1041000008700120DFF8341B08700120DFF8401B25
:1041100008700120DFF84C1B08700020DFF8341411
:104120000870002008F045F8B0F1AA3F1ED1012028
:1041300008F03FF8DFF8441B0860022008F039F867
:10414000DFF83C1B0860032008F033F8DFF8341B6D
:104150000860042008F02DF8DFF82C1B086005200B
:1041600008F027F8DFF8181D086015E008F027F8B8
:104170000020DFF8081B08600020DFF8041B08603F
:104180000020DFF8001B08600020DFF8FC1A086040
:104190000020DFF8EC1C086010BD000004160020B1
:1041A0007C1500203E16002080B508F0ADFF5FF4BE
:1041B000803008F0D9FF09F001F8DFF8C81C08705A
:1041C000DFF8C00C0078012824D1002009F031F874
:1041D000002009F042F84FF4806009F034F8102014
:1041E00009F026F9022009F017F95FF4E0115FF4F5
:1041F000803008F0FFFF012009F008F8392009F0AD
:10420000CDF80028FAD0022009F004F809F00CF8E3
:104210000828FBD10121042009F0A0F80121082081
:1042200009F09CF80121102009F098F801212020C4
:1042300009F094F80121402009F090F80121802034
:1042400009F08CF801214FF4807009F087F8012102
:104250004FF4804009F082F801215FF4003009F04A
:104260008DF801215FF4802009F088F801215FF4C6
:10427000002009F083F80121012009F05FF80121F5
:104280004FF4005009F06AF800F01AF808F024FE24
:1042900000F084F900F074F901BD0000151600204B
:1042A0002F1600207215002074150020161600200D
:1042B00020150020141600202216002005160020CC
:1042C00080B54FF4E070ADF8000018208DF80300C1
:1042D00003208DF802006946DFF8100B08F02CF877
:1042E0004BF2D060ADF8000010208DF803000320E1
:1042F0008DF802006946DFF8840708F01DF844F6DF
:104300002010ADF8000048208DF8030003208DF840
:1043100002006946DFF8640708F00EF84FF40070F9
:10432000ADF8000018208DF8030003208DF802007E
:104330006946DFF8F00A07F0FFFF4FF48060ADF840
:10434000000004208DF803006946DFF8D80A07F062
:10435000F3FF0420ADF8000018208DF803000320BF
:104360008DF802006946DFF8BC0A07F0E5FF082077
:10437000ADF8000004208DF803006946DFF8A40AB8
:1043800007F0DAFF4FF48060ADF8000018208DF8D8
:10439000030003208DF802006946DFF8080C07F0DF
:1043A000CBFF4FF40060ADF8000004208DF803004F
:1043B0006946DFF8F00B07F0BFFF4FF48060ADF8FF
:1043C000000018208DF8030003208DF802006946D4
:1043D000DFF8180A07F0B0FF4FF40060ADF80000F6
:1043E00004208DF803006946DFF8000A07F0A4FFF7
:1043F0004FF6FF70ADF8000010208DF80300032089
:104400008DF802006946DFF8800A07F095FF4FF249
:104410000C00ADF8000010208DF8030003208DF88B
:1044200002006946DFF8640A07F086FF4FF47F60F8
:10443000ADF8000048208DF8030003208DF802003D
:104440006946DFF8480A07F077FF43F20300ADF84A
:10445000000010208DF8030003208DF8020069464B
:10446000DFF8400B07F068FF4FF44340ADF8000061
:1044700048208DF8030003208DF802006946DFF81C
:10448000240B07F059FF4FF44050ADF80000102006
:104490008DF8030003208DF802006946DFF84C090F
:1044A00007F04AFF4FF46040ADF8000010208DF88F
:1044B000030003208DF802006946DFF8D40907F0F5
:1044C0003BFF0320ADF8000048208DF803000320D7
:1044D0008DF802006946DFF8A40507F02DFF1820CB
:1044E000ADF8000010208DF8030003208DF80200C5
:1044F0006946DFF8F80807F01FFF4FF4F050ADF8F9
:10450000000010208DF8030003208DF8020069469A
:10451000DFF87C0907F010FF0420ADF80000102040
:104520008DF8030003208DF802006946DFF8740A55
:1045300007F002FF4FF44070ADF8000048208DF8FE
:10454000030003208DF802006946DFF8580A07F0DF
:10455000F3FE01BD18160020081600200D160020DD
:10456000361600203F1600200E1600205A15002097
:1045700022150020841400201E1500204C16002057
:1045800080B548F6A040FBF7E6FD002800D0FEE726
:1045900000215FF0FF30FBF7CBFD01BD80B54FF48C
:1045A000E06009F011F80B208DF8000000208DF874
:1045B000010000208DF8020001208DF803006846FC
:1045C00009F007F825208DF8000000208DF8010083
:1045D00001208DF8020001208DF80300684608F0E4
:1045E000F8FF26208DF8000000208DF80100022041
:1045F0008DF8020001208DF80300684608F0E9FFFD
:1046000027208DF8000000208DF8010003208DF890
:10461000020001208DF80300684608F0DAFF34201C
:104620008DF8000000208DF8010004208DF80200B4
:1046300001208DF80300684608F0CBFF01BD80B56E
:10464000DFF8700B0088002840F01581DFF8840A3D
:104650000088002806D0DFF87C0A0088401EDFF8BA
:10466000741A0880DFF8700A0088002806D0DFF886
:10467000680A0088401EDFF8601A0880DFF85C0ACC
:104680000088002806D0DFF8540A0088401EDFF8B2
:104690004C1A0880DFF8480A0088002806D0DFF8A6
:1046A000400A0088401EDFF8381A0880DFF8080B3F
:1046B0000088002806D0DFF8000B0088401EDFF8D5
:1046C000F81A0880DFF8F40A0088002806D0DFF81E
:1046D000EC0A0088401EDFF8E41A0880DFF8E00AE0
:1046E0000078002806D0DFF8D80A0078401EDFF8EE
:1046F000D01A0870DFF8CC0A0078002806D0DFF85E
:10470000C40A0078401EDFF8BC1A0870DFF8B80A47
:104710000078002823D0DFF8B40A0068401CDFF8D6
:10472000AC1A0860DFF8A40A006848F6A041B0FBA4
:10473000F1F080B2402808DBDFF8940A007850F0EE
:10474000FC00DFF88C1A087009E0DFF8841A097899
:1047500011F0030151EA8001DFF8740A01706C481E
:104760000078002806D04FF40041DFF8240707F056
:1047700053FE05E04FF40041DFF8140707F049FE4F
:10478000DFF8500A006890F48040DFF8481A0860AB
:10479000DFF8400A006890F40050DFF8381A08602B
:1047A000DFF8340A0088002840D1DFF8300A0078AA
:1047B000002806D0DFF8C4040068401CDFF8BC14F1
:1047C0000860DFF81C0A0078002806D0DFF8B00483
:1047D0000068401CDFF8A81408603A4800780028F8
:1047E00006D0DFF8A0040068401CDFF898140860C9
:1047F000DFF8F0090078002806D0DFF88C040068A4
:10480000401CDFF884140860DFF8DC090078002819
:1048100006D0DFF86C060068401CDFF864160860FC
:104820004FF41670DFF8B019088006E0DFF8A80929
:104830000088401EDFF8A0190880DFF8B009007872
:10484000002814D0DFF8A4090078401EDFF89C1976
:104850000870DFF898090078002804D00120854905
:10486000896C884703E000208249896C884764206E
:10487000DFF84019088001BD80B51F20DFF87019EE
:1048800008704FF40041DFF86C0907F0C5FD01BD69
:1048900080B54FF40041DFF85C0907F0BAFD01BDB7
:1048A00080B54FF40051DFF84C0907F0B5FD01BDAC
:1048B00080B54FF40051DFF83C0907F0AAFD01BDB7
:1048C000000000003F16002080B54FF480416B4887
:1048D00007F094FD00280DD0DFF81C0901680122C3
:1048E000DFF80C0990F9000082401143DFF8080955
:1048F00001600CE0DFF8000901680122DFF8F00830
:1049000090F9000082409143DFF8EC08016001BD9E
:1049100010160020121600202716002080B56F48C0
:104920000078002840F07F80DFF8D0080078002869
:1049300002D1FFF7A1FF1CE0DFF8C00801780322D5
:1049400091FBF2F002FB1010C0B2002808D0022840
:1049500003D00ED2FFF7ACFF0BE0FFF7B5FF08E086
:10496000FFF79EFFDFF888080078401EDFF8801808
:104970000870DFF87C0890F9000000284CD5FFF79C
:1049800087FF0020DFF874180870DFF86C080068F3
:10499000DFF86C180860DFF868080068800CDFF842
:1049A00064180880DFF85C08B0F90000042190FB6F
:1049B000F1F0DFF850180880DFF848080088DFF8C9
:1049C0004818DFF84828127821F81200DFF83C0870
:1049D0000078401CDFF834180870DFF830080078E1
:1049E0000A2803DB0020DFF82418087000210022C9
:1049F00005E0DFF8140830F812004118521C0A2AAA
:104A0000F7DB89B20A2091FBF0F0DFF80418088088
:104A100064203249087006E0DFF8E0070078401CA7
:104A2000DFF8D817087001BD6A15002080B51F2077
:104A3000DFF8E01708704FF48051DFF8B80707F08F
:104A4000EBFC01BD80B54FF48051DFF8A80707F0FB
:104A5000E0FC01BD80B54FF48061DFF8980707F0F6
:104A6000DBFC01BD80B54FF48061DFF8880707F0FB
:104A7000D0FC01BD78100020BB15002000200140B3
:104A800080B54FF40061DFF86C0707F0B7FC002831
:104A90000DD0DFF8840701680122DFF8780790F96C
:104AA000000082401143DFF8700701600CE0DFF87E
:104AB000680701680122DFF85C0790F90000824076
:104AC0009143DFF85407016001BD00006216002029
:104AD000691600207016002077160020DF150020D0
:104AE000E3150020E7150020EB15002060140020DE
:104AF000BD150020C0150020C3150020C6150020DC
:104B0000C915002080B5DFF814070078002840F0B0
:104B10008080DFF83C0D0078002802D1FFF786FF87
:104B20001CE0DFF82C0D0178032291FBF2F002FB70
:104B30001010C0B2002808D0022803D00ED2FFF710
:104B400091FF0BE0FFF79CFF08E0FFF783FFDFF822
:104B5000C4060078401EDFF8BC160870DFF8B40603
:104B600090F9000000284DD5FFF76CFF0020DFF81A
:104B7000E01C0870DFF8A0060068DFF8A4160860E3
:104B8000DFF89C060068800CDFF898160880DFF8D4
:104B90009406B0F90000042190FBF1F0DFF88416D0
:104BA0000880DFF880060088DFF87C16DFF87C26B6
:104BB000127821F81200DFF874060078401CDFF844
:104BC0006C160870DFF8640600780A2803DB002002
:104BD000DFF8581608700021002205E0DFF84806CB
:104BE00030F812004118521C0A2AF7DB89B20A2059
:104BF00091FBF0F0DFF8381608806420DFF81C160F
:104C0000087006E0DFF8480C0078401CDFF8401C14
:104C1000087001BDCC150020CF150020D215002052
:104C200080B51F20DFF80C1608704FF40071DFF814
:104C3000C40507F0F1FB01BDD4150020D6150020F6
:104C400080B54FF40071DFF8AC0507F0E2FB01BD61
:104C5000D815002080B58021DFF8980507F0DCFB2F
:104C600001BD0000DB15002080B58021DFF8840540
:104C700007F0CFFB01BD000019160020F41400203E
:104C8000F8140020FC1400200015002080B54FF41B
:104C90008071DFF8600507F0B1FB00280DD0DFF868
:104CA000B40B01680122DFF88C0590F90000824006
:104CB0001143DFF8A00B01600CE0DFF8980B0168EE
:104CC0000122DFF8700590F9000082409143DFF87F
:104CD000840B016001BD80B5DFF85C050078002819
:104CE00040F08280DFF8480D0078002802D1FFF7FD
:104CF00097FF1CE0DFF8380D0178032291FBF2F0FA
:104D000002FB1010C0B2002808D0022803D00ED237
:104D1000FFF7AAFF0BE0FFF7B9FF08E0FFF79AFFE4
:104D2000DFF810050078401EDFF808150870DFF87E
:104D3000040590F9000000284FD5FFF781FF0020FF
:104D4000DFF8EC1C0870DFF80C0B0068DFF8081BBC
:104D50000860DFF8040B0068800CDFF8001B088097
:104D6000DFF8F80AB0F90000042190FBF1F0DFF859
:104D7000EC1A0880DFF8E40AB0F90000401DDFF803
:104D8000E01ADFF8E02A127821F81200DFF8D40ADE
:104D90000078401CDFF8CC1A0870DFF8C80A0078E9
:104DA0000A2803DB0020DFF8BC1A0870002100226B
:104DB00005E0DFF8AC0A30F812004118521C0A2A4C
:104DC000F7DB89B20A2091FBF0F0DFF89C1A08802B
:104DD0006420DFF86414087006E0DFF8540C0078F3
:104DE000401CDFF84C1C087001BD000000100140A1
:104DF00080B51F20DFF8741A08704021DFF8F40333
:104E000007F00AFB01BD80B54021DFF8E80307F099
:104E100000FB01BD80B51021DFF8D80307F0FCFAD4
:104E200001BD00000008014080B51021DFF8C40377
:104E300007F0EFFA01BD80B52021DFF8B80307F0D5
:104E4000DDFA00280DD0DFF88C0B01680122DFF8B5
:104E50001C0A90F9000082401143DFF8780B0160D2
:104E60000CE0DFF8700B01680122DFF8000A90F90E
:104E7000000082409143DFF85C0B016001BD00003F
:104E8000041500206E0000200018014000140140AD
:104E9000001C014080B5DFF8F40A0078002840F0DB
:104EA0008080DFF8F00C0078002802D1FFF7A0FF27
:104EB0001CE0DFF8E00C0178032291FBF2F002FB2A
:104EC0001010C0B2002808D0022803D00ED2FFF77D
:104ED000ABFF0BE0FFF7AFFF08E0FFF79BFFDFF84A
:104EE0008C090078401EDFF884190870DFF87C090F
:104EF00090F9000000284DD5FFF785FF0020DFF86E
:104F0000941C0870DFF8CC0A0068DFF8CC1A08603F
:104F1000DFF8C40A0068800CDFF8C01A0880DFF8E8
:104F2000BC0AB0F90000042190FBF1F0DFF8AC1AE4
:104F30000880DFF8A80A0088DFF8A41ADFF8A42A9E
:104F4000127821F81200DFF89C0A0078401CDFF884
:104F5000941A0870DFF88C0A00780A2803DB002016
:104F6000DFF8801A08700021002205E0DFF8700ADF
:104F700030F812004118521C0A2AF7DB89B20A20C5
:104F800091FBF0F0DFF8A41A08806420DFF8FC1928
:104F9000087006E0DFF8FC0B0078401CDFF8F41B1B
:104FA000087001BD000C0140704700B591B023208E
:104FB000ADF8000003208DF8020000208DF80300FA
:104FC0006946DFF8700A07F0B7F90121012008F0FF
:104FD000B5F94FF4004008F04AF901214FF4007090
:104FE00008F0BCF9DFF8500A08F030FBDFF84C0A93
:104FF0000690DFF84C0A07900020089003200990E3
:1050000000200A9080200B904FF400700C904FF419
:1050100000600D9020200E904FF400500F90002063
:10502000109006A9DFF8100A08F094FB0121DFF8C0
:10503000080A08F0ADFB0020019001208DF808005F
:1050400001208DF809005FF4602003900020049097
:1050500003208DF8140001A9DFF8180C08F0E0FB1C
:10506000052301220A21DFF80C0C08F043FC05237C
:1050700002220B21DFF8FC0B08F03CFC0523032285
:105080000F21DFF8F00B08F035FC0121DFF8E40B0D
:1050900008F0F8FB0121DFF8DC0B08F0E6FBDFF895
:1050A000D40B08F0FCFBDFF8CC0B08F0FDFB00286C
:1050B000F9D1DFF8C00B08F001FCDFF8B80B08F0FD
:1050C00002FC0028F9D10121DFF8A80B08F005FC4B
:1050D00011B000BD8A1500208C1500208E1500200F
:1050E0007615002000B587B0DFF8FC19B1FBF0F0B1
:1050F000DFF8F81908600020ADF816000020ADF8C0
:105100001200DFF8E8090068401EADF81400002026
:10511000ADF8100000208DF8180004A9DFF8400C4D
:1051200008F052FC6020ADF800000020ADF80C0043
:105130000020ADF808000020ADF80E000020ADF80A
:105140000A000120ADF802000020ADF804000020A4
:10515000ADF806006946DFF8080C08F050FC694617
:10516000DFF8FC0B08F084FC6946DFF8F40B08F06C
:10517000BFFC0021DFF8E80B08F02BFD0021DFF871
:10518000E00B08F02FFD0021DFF8D40B08F033FD11
:105190000021DFF8CC0B08F00EFD0121DFF8C00B79
:1051A00008F0EAFC0121DFF8B80B08F0F3FC07B0C7
:1051B00000BD000014150020781500207A1500208D
:1051C000441600204716002036160020EC1400205C
:1051D000351600200C1C0140161500203D1600203D
:1051E0003E160020401600204116002059160020CF
:1051F000DD15002000200140A0140020DE15002055
:105200009C1400202415002010140020E01500201C
:1052100026150020E1150020A8140020E315002029
:10522000A41400202815002024140020E4150020D8
:105230002A150020E5150020E715002080B5DFF8CD
:10524000100C0088002840F001831021DFF8280AA4
:1052500007F0D4F8002822D1DFF83C0900780028B4
:105260002DD0DFF838090078152810DB0120DFF891
:1052700030190870DFF8040A007850F00100DFF8F8
:10528000FC1908700020DFF81019087017E0DFF82B
:105290000C090078401CDFF8041908700FE0DFF8F3
:1052A000DC09007810F0FE00DFF8D019087000204B
:1052B000DFF8E81808700120DFF8DC1808702021FA
:1052C000DFF8B40907F09AF8002822D1DFF8B00916
:1052D000007800282DD0DFF8AC090078152810DB05
:1052E0000120DFF8A4190870DFF89009007850F069
:1052F0000200DFF8881908700020DFF884190870B0
:1053000017E0DFF880090078401CDFF87819087092
:105310000FE0DFF86809007810F0FD00DFF85C1995
:1053200008700020DFF85C1908700120DFF85019C0
:1053300008704021DFF8400907F060F8002822D10A
:10534000DFF84809007800282DD0DFF844090078FC
:10535000152810DB0120DFF83C190870DFF81C0964
:10536000007850F00400DFF8141908700020DFF80E
:105370001C19087017E0DFF818090078401CDFF8E6
:10538000101908700FE0DFF8F408007810F0FB0047
:10539000DFF8E81808700020DFF8F4180870012022
:1053A000DFF8E81808708021DFF8CC0807F026F84D
:1053B000002822D1DFF8AC09007800282DD0DFF8D2
:1053C000A8090078152810DB0120DFF8A019087063
:1053D000DFF8A808007850F00800DFF8A01808707F
:1053E0000020DFF88019087017E0DFF87C090078EA
:1053F000401CDFF8741908700FE0DFF880080078AF
:1054000010F0F700DFF8741808700020DFF8581962
:1054100008700120DFF84C1908704FF48071DFF834
:10542000580806F0EBFF00281BD1DFF8440900887C
:1054300040F22131884208DBDFF84008007850F064
:105440001000DFF83818087006E0DFF8240900883B
:10545000401CDFF81C1908800020DFF818190880AC
:105460001AE0DFF81009008840F22131884208DB99
:10547000DFF80808007810F0EF00DFF80018087077
:1054800006E0DFF8F0080088401CDFF8E818088024
:105490000020DFF8DC1808804FF40071DFF8D8072F
:1054A00006F0ACFF002822D1DFF8A8090078002818
:1054B0002DD0DFF8A4090078152810DB0120DFF8D3
:1054C0009C190870DFF8B407007850F02000DFF86E
:1054D000AC1708700020DFF87C19087017E0DFF8BF
:1054E00078090078401CDFF8701908700FE0DFF8C9
:1054F0008C07007810F0DF00DFF8801708700020BC
:10550000DFF8541908700120DFF8481908704FF4CB
:105510008061DFF8640706F071FF002822D1DFF810
:105520004009007800282DD0DFF8380900781528C8
:1055300010DB0120DFF830190870DFF84007007831
:1055400050F04000DFF8341708700020DFF8101921
:10555000087017E0DFF80C090078401CDFF8041928
:1055600008700FE0DFF81407007810F0BF00DFF8D4
:105570000C1708700020DFF8EC1808700120DFF825
:10558000E01808704FF40071DFF8880906F036FF64
:10559000002822D1DFF88009007800282DD0DFF81C
:1055A0007C090078152810DB0120DFF874190870D9
:1055B000DFF8C806007850F08000DFF8C0160870E9
:1055C0000020DFF85419087017E0DFF85009007860
:1055D000401CDFF8481908700FE0DFF8A0060078DB
:1055E00010F07F00DFF8941608700020DFF82C1907
:1055F00008700120DFF8201908704FF48071DFF87F
:10560000140906F0FBFE002822D1DFF81809007803
:1056100000282DD0DFF810090078152810DB0120B4
:10562000DFF808190870DFF85406407850F00100E0
:10563000DFF8481648700020DFF8E818087017E017
:10564000DFF8E4080078401CDFF8DC1808700FE091
:10565000DFF82806407810F0FE00DFF820164870CA
:105660000020DFF8C41808700120DFF8B8180870AF
:105670000221DFF8040606F0C1FE002822D1DFF87F
:10568000B008007800282DD0DFF8A8080078152889
:1056900010DB0120DFF8A0180870DFF8E005407883
:1056A00050F00200DFF8D41548700020DFF88018B1
:1056B000087017E0DFF87C080078401CDFF87418E9
:1056C00008700FE0DFF8B405407810F0FD00DFF857
:1056D000AC1548700020DFF85C1808700120DFF876
:1056E000501808704FF48041D24806F087FE002819
:1056F00022D1DFF84808007800282DD0DFF84008D4
:105700000078152810DB0120DFF838180870DFF862
:105710006C05407850F00400DFF8601548700020F8
:10572000DFF81818087017E0DFF814080078401C3C
:10573000DFF80C1808700FE0DFF84005407810F033
:10574000FB00DFF8381548700020DFF8F417087008
:105750000120DFF8E81708704FF48041DFF8B40744
:1057600006F04CFE002822D1DFF8DC070078002884
:105770002DD0DFF8D8070078152810DB0120DFF8DE
:10578000D0170870DFF8F404407850F00800DFF814
:10579000EC1448700020DFF8B017087017E0DFF84D
:1057A000AC070078401CDFF8A41708700FE0DFF8A2
:1057B000CC04407810F0F700DFF8C01448700020E7
:1057C000DFF8881708700120DFF87C1708704FF4A5
:1057D0000061DFF8A40406F011FE002822D1DFF8F2
:1057E0007407007800282DD0DFF86C0700781528A2
:1057F00010DB0120DFF864170870DFF880044078C0
:1058000050F08000DFF8741448700020DFF844176F
:10581000087017E0DFF840070078401CDFF8381701
:1058200008700FE0DFF85404407810F07F00DFF8D4
:105830004C1448700020DFF8201708700120DFF8B2
:10584000141708700120DFF80816088001BD000059
:10585000E2150020B0140020AC1400202C1500200C
:1058600038140020E81500202E150020E91500202E
:10587000DFF82C030078002802D00020C849087007
:10588000DFF804040078002803D00020DFF8F813C4
:105890000870DFF800040078002803D00020DFF84B
:1058A000F4130870DFF8C4040078002803D0002047
:1058B000DFF8B8140870DFF8A4050078002803D0DA
:1058C0000020DFF898150870DFF89C0500780028A4
:1058D00003D00020DFF890150870DFF84406007848
:1058E000002803D00020DFF838160870DFF83C06E7
:1058F0000078002803D00020DFF830160870DFF8A9
:1059000038060078002803D00020DFF82C16087035
:10591000DFF830060078002803D00020DFF82416D6
:105920000870DFF82C060078002803D00020DFF88C
:1059300020160870DFF824060078002803D0002025
:10594000DFF818160870704710B50400E4B2642C34
:1059500000DB6424D4F1640464480068E4B260436A
:105960006421B0FBF1F0411E89B2DFF8F40308F0C6
:105970004BF9DFF8EC0504700020DFF8E81508802B
:105980006420DFF8E415088010BD0000EB1500204E
:1059900010B50400E4B2642C00DB6424D4F1640488
:1059A00052480068E4B260436421B0FBF1F0411E4C
:1059B00089B2DFF8AC0308F029F9DFF8B00504700C
:1059C0000020DFF8AC1508806420DFF8A8150880F7
:1059D00010BD0000B8140020B414002030150020C1
:1059E0004C140020EC15002010B50400E4B2642C27
:1059F00000DB6424D4F164043C480068E4B26043F2
:105A00006421B0FBF1F0411E89B2DFF8540308F0C5
:105A1000FFF8DFF8640504700020DFF860150880E7
:105A20006420DFF85C15088010BD000032150020EE
:105A3000E615002000100140080002404C240140FF
:105A4000D0130020DFF83C05007800284BD0002060
:105A500006E0DFF83415095CDFF830251154401CEE
:105A60000828F6DBDFF824050188DFF820054088E8
:105A70004118DFF81805808841184FF6FF70414340
:105A8000DFF80C050180DFF80405C088DFF8001599
:105A9000098888421BD1DFF8F404008848F2FF012E
:105AA000884214D1DFF8E4044088002806D1DFF8EA
:105AB000DC048088DFF8DC14088008E0DFF8CC0420
:105AC0004088012803D0DFF8C40440880228002061
:105AD000DFF8B01408700020DFF8BC140870012053
