:020000040800F2
:10000000000400207D0E01086D0701086F0701083C
:100010007107010873070108750701080000000057
:100020000000000000000000000000007707010849
:1000300079070108000000007B0701087D0701081F
:10004000E7E00008E7E00008E7E0000885070108AE
:10005000E7E00008E7E0000887070108E7E000089C
:10006000E7E000089B070108E7E00008910C0108A1
:10007000E7E00008E7E00008E7E00008E7E0000844
:10008000E7E00008E7E00008E7E000089D07010856
:100090009F070108E7E00008E7E00008A107010862
:1000A000E7E00008A3070108E7E00008E7E0000830
:1000B000B1070108BF070108CD070108E7E0000804
:1000C000E7E00008E7E00008E7E00008E7E00008F4
:1000D000DD070108DF07010839090108290A0108BD
:1000E000750C01088D0C0108E7E00008E7E0000846
:1000F000CF070108E7E00008E7E00008E7E00008B4
:10010000E7E000088F0C0108E7E00008E7E00008DE
:10011000170B0108E7E00008E7E00008E7E0000847
:10012000E7E00008E7E00008E7E00008E7E0000893
:1001300040B2002805D40901DFF8782A40B21154F2
:1001400008E00901DFF83C2D40B210F00F00104428
:1001500000F8041C704780B5411EB1F1807F01D3C7
:10016000012011E0401EDFF8501A08600F215FF0F7
:10017000FF30FFF7DDFF0020DFF8081B08600720D5
:10018000DFF80C1D0860002002BD0020DFF8081D0C
:100190000870DFF8F40ADFF8E81BDFF8FC2C1278AF
:1001A00041F82200DFF8F00C0078401CDFF8E81C72
:1001B0000870DFF8F80ADFF8C81BDFF8DC2C1278CB
:1001C00041F82200DFF8D00C0078401CDFF8C81C92
:1001D0000870DFF8FC0ADFF8A81BDFF8BC2C1278E7
:1001E00041F82200DFF8B00C0078401CDFF8A81CB2
:1001F0000870DFF8000BDFF8881BDFF89C2C127802
:1002000041F82200DFF8900C0078401CDFF8881CD1
:100210000870DFF8080BDFF8681BDFF87C2C127819
:1002200041F82200DFF8700C0078401CDFF8681CF1
:100230000870DFF8100BDFF8481BDFF85C2C127831
:1002400041F82200DFF8500C0078401CDFF8481C11
:100250000870DFF8F40ADFF8281BDFF83C2C12786E
:1002600041F82200DFF8300C0078401CDFF8281C31
:100270000870DFF8100BDFF8081BDFF81C2C127871
:1002800041F82200DFF8100C0078401CDFF8081C51
:100290000870DFF8F40ADFF8E81ADFF8FC2B1278B0
:1002A00041F82200DFF8F00B0078401CDFF8E81B73
:1002B0000870DFF80C0BDFF8C81ADFF8DC2B1278B7
:1002C00041F82200DFF8D00B0078401CDFF8C81B93
:1002D0000870DFF8F00ADFF8A81ADFF8BC2B1278F4
:1002E00041F82200DFF8B00B0078401CDFF8A81BB3
:1002F0000870DFF8F80ADFF8881ADFF89C2B12780C
:1003000041F82200DFF8900B0078401CDFF8881BD2
:100310000870DFF8FC0ADFF8681ADFF87C2B127827
:1003200041F82200DFF8700B0078401CDFF8681BF2
:100330000870DFF8000BDFF8481ADFF85C2B127842
:1003400041F82200DFF8500B0078401CDFF8481B12
:100350000870DFF8080BDFF8281ADFF83C2B12785A
:1003600041F82200DFF8300B0078401CDFF8281B32
:100370000870DFF8140BDFF8081ADFF81C2B12786E
:1003800041F82200DFF8100B0078401CDFF8081B52
:100390000870DFF8F80ADFF8E819DFF8FC2A1278AD
:1003A00041F82200DFF8F00A0078401CDFF8E81A74
:1003B0000870DFF8E00ADFF8C819DFF8DC2A1278E5
:1003C00041F82200DFF8D00A0078401CDFF8C81A94
:1003D0000870DFF8C80ADFF8A819DFF8BC2A12781D
:1003E00041F82200DFF8B00A0078401CDFF8A81AB4
:1003F0000870DFF8D00ADFF88819DFF89C2A127835
:1004000041F82200DFF8900A0078401CDFF8881AD3
:100410000870DFF8D80ADFF86819DFF87C2A12784C
:1004200041F82200DFF8700A0078401CDFF8681AF3
:100430000870DFF8E00ADFF84819DFF85C2A127864
:1004400041F82200DFF8500A0078401CDFF8481A13
:100450000870DFF8C40ADFF82819DFF83C2A1278A0
:1004600041F82200DFF8300A0078401CDFF8281A33
:100470000870DFF8C80ADFF80819DFF81C2A1278BC
:1004800041F82200DFF8100A0078401CDFF8081A53
:100490000870DFF8CC0ADFF8E818DFF8FC291278DA
:1004A00041F82200DFF8F0090078401CDFF8E81975
:1004B0000870DFF8B00ADFF8C818DFF8DC29127816
:1004C00041F82200DFF8D0090078401CDFF8C81995
:1004D0000870DFF8940ADFF8A818DFF8BC29127852
:1004E00041F82200DFF8B0090078401CDFF8A819B5
:1004F0000870DFF8BC0ADFF88818DFF89C2912784A
:1005000041F82200DFF890090078401CDFF88819D4
:100510000870DFF8A00ADFF86818DFF87C29127885
:1005200041F82200DFF870090078401CDFF86819F4
:100530000870DFF8C40ADFF84818DFF85C29127881
:1005400041F82200DFF850090078401CDFF8481914
:100550000870DFF8C80ADFF82818DFF83C2912789D
:1005600041F82200DFF830090078401CDFF8281934
:100570000870DFF8AC0ADFF80818DFF81C291278D9
:1005800041F82200DFF810090078401CDFF8081954
:100590000870DFF8D40ADFF8E817DFF8FC281278D3
:1005A00041F82200DFF8F0080078401CDFF8E81876
:1005B0000870DFF8B80ADFF8C817DFF8DC2812780F
:1005C00041F82200DFF8D0080078401CDFF8C81896
:1005D0000870DFF8C00ADFF8A817DFF8BC28127827
:1005E00041F82200DFF8B0080078401CDFF8A818B6
:1005F0000870704780B5DFF8E41A097800290DD03B
:10060000012805D10121DFF84C0C0DF069FD29E02E
:100610000121DFF8400C0DF060FD23E0012817D127
:100620000121DFF8300C0DF05BFD0221DFF8240C16
:100630000DF053FD0120DFF8CC1A08704EF6602053
:10064000DFF8E81A08800120DFF8E41A087009E0F2
:100650000121DFF8000C0DF040FD0221DFF8F40B62
:100660000DF03BFD01BD80B5DFF8701A0978002957
:100670000DD0012805D10221DFF8D80B0DF030FD97
:1006800029E00221DFF8CC0B0DF027FD23E0012843
:1006900017D10121DFF8BC0B0DF01FFD0221DFF89F
:1006A000B40B0DF01DFD0220DFF8581A08704EF64D
:1006B0006020DFF8781A08800120DFF8741A0870CB
:1006C00009E00121DFF88C0B0DF007FD0221DFF8B6
:1006D000840B0DF002FD01BD80B5DFF8280A00781B
:1006E000012859D1DFF8480A0078002805D00228EF
:1006F00035D003D3032843D0ACE0ABE0DFF82C0ABD
:100700000088002811D0DFF8900A0078C0F340106C
:10071000C0B2002822D041F28830DFF8101A0880D9
:100720000220DFF80C1A087018E0DFF8700A007871
:1007300000280FD1E120DFF8681A08800220DFF8D6
:10074000641A08707D20DFF8601A08800220DFF844
:100750005C1A08700320DFF8D81908707AE0DFF817
:10076000CC090088002875D10020FFF743FF002046
:10077000DFF8BC1908700020DFF88819087069E0FC
:100780000020FFF737FF0020DFF8A41908700520CC
:10079000DFF8701908705DE0DFF86809007802285A
:1007A00058D1DFF88C090078002805D0022835D010
:1007B00003D3032843D04DE04CE0DFF870090088F4
:1007C000002811D0DFF8D0090078C0F38010C0B243
:1007D000002822D041F28830DFF85019088002202A
:1007E000DFF84C19087018E0DFF8B009007800282D
:1007F0000FD1E120DFF8A81908800220DFF8A41942
:1008000008707D20DFF8A01908800220DFF89C190D
:1008100008700320DFF8181908701BE0DFF80C09D6
:100820000088002816D10020FFF71DFF0020DFF808
:10083000001908700020DFF8CC1808700AE00020CA
:10084000FFF711FF0020DFF8E81808700520DFF837
:10085000B418087001BD80B5DFF880180978002948
:100860000FD0012806D14FF48071DFF8A80A0DF0EF
:1008700037FC2EE04FF48071DFF8980A0DF02DFC64
:1008800027E001281AD14FF48071DFF8880A0DF0B3
:1008900024FC8021DFF87C0A0DF01FFC4FF48071EE
:1008A000DFF8700A0DF01CFC42F21070DFF8681AD5
:1008B00008800120DFF8641A08700AE04FF48071A4
:1008C000DFF8500A0DF009FC8021DFF8480A0DF02E
:1008D00004FC01BD80B5DFF80418097800290DD0AB
:1008E000012805D18021DFF82C0A0DF0F9FB2CE05E
:1008F0008021DFF8200A0DF0F0FB26E0012819D155
:100900008021DFF8100A0DF0E8FB4FF48071DFF86A
:10091000040A0DF0E2FB8021DFF8F8090DF0E0FB9E
:1009200042F21070DFF8F01908800120DFF8EC19AE
:1009300008700AE04FF48071DFF8D8090DF0CDFBA4
:100940008021DFF8D0090DF0C8FB01BD80B5DFF8CC
:10095000CC090078002802D0012801D014E013E06F
:10096000DFF8B409008800280ED14FF48071DFF859
:10097000E4080DF0B2FB8021DFF8D8080DF0ADFBE4
:100980000020DFF89819087001BD80B5DFF84C171A
:10099000097800290DD0012805D14021DFF874091C
:1009A0000DF09EFB2AE04021DFF868090DF095FB71
:1009B00024E0012818D14021DFF858090DF08DFB03
:1009C0002021DFF850090DF088FB4021DFF84409B1
:1009D0000DF086FB0120DFF84819087042F2107014
:1009E000DFF84019088009E04021DFF828090DF000
:1009F00074FB2021DFF81C090DF06FFB01BD80B5F1
:100A0000DFF8D816097800290DD0012805D120215A
:100A1000DFF800090DF064FB2AE02021DFF8F4087C
:100A20000DF05BFB24E0012818D12021DFF8E40859
:100A30000DF053FB4021DFF8DC080DF04EFB2021C8
:100A4000DFF8D0080DF04CFB0120DFF8D418087057
:100A500042F21070DFF8CC18088009E04021DFF87E
:100A6000B4080DF03AFB2021DFF8A8080DF035FBA3
:100A700001BD80B5DFF8A8080078002802D0012861
:100A800001D013E012E0DFF89C08008800280DD1A7
:100A90002021DFF8C0070DF020FB4021DFF8B4076C
:100AA0000DF01BFB0020DFF87818087001BD80B541
:100AB000DFF82816097800290FD0012806D14FF455
:100AC0000061DFF850080DF00BFB30E04FF40061DF
:100AD000DFF840080DF001FB29E001281BD14FF49D
:100AE0000061DFF830080DF0F8FA4FF48051DFF8BC
:100AF00024080DF0F2FA4FF40061DFF818080DF049
:100B0000EFFA0120DFF8B819087046F2A810DFF8F4
:100B1000B41908800BE04FF40061DFF8F8070DF01E
:100B2000DCFA4FF48051DFF8EC070DF0D6FA01BD86
:100B300080B5DFF8A815097800290FD0012806D163
:100B40004FF48051DFF8CC070DF0CAFA30E04FF4D3
:100B50008051DFF8C0070DF0C0FA29E001281BD151
:100B60004FF48051DFF8AC070DF0B7FA4FF4006195
:100B7000DFF8A0070DF0B1FA4FF48051DFF89407C9
:100B80000DF0AEFA0120DFF83819087046F2A8100F
:100B9000DFF8301908800BE04FF40061DFF87407CC
:100BA0000DF09BFA4FF48051DFF868070DF095FACD
:100BB00001BD000000E400E014E000E080B5DFF8D3
:100BC00000090078002805D0022829D003D3032883
:100BD00041D055E054E0DFF8EC08008800281ED131
:100BE000DFF8E4080068C00409D44FF4FA70DFF8B5
:100BF000D41808800220DFF8C818087003E000202D
:100C0000DFF8BC1808704FF48051DFF848060DF08B
:100C100064FA4FF40061DFF83C060DF05EFA2FE055
:100C2000DFF8A0080088002814D14FF48051DFF8C5
:100C300024060DF052FA4FF40061DFF818060DF0AB
:100C40004FFA41F27070DFF87C1808800320DFF85B
:100C50007018087014E0DFF86C08008800280FD1C5
:100C60004FF48051DFF8EC050DF037FA4FF40061D6
:100C7000DFF8E0050DF031FA0020DFF844180870C5
:100C800001BD000018E000E0F505000880B500286F
:100C900005D10421DFF87C060DF01FFA04E00421E1
:100CA000DFF870060DF01CFA01BD000067060008B1
:100CB00080B5002805D10821DFF858060DF00DFA9F
:100CC00004E00821DFF84C060DF00AFA01BD00002F
:100CD0008D0C000880B5002805D11021DFF83406FE
:100CE0000DF0FBF904E01021DFF828060DF0F8F90B
:100CF00001BD0000B10C000880B5002806D14FF4FA
:100D00000071DFF810060DF0E8F905E04FF400710E
:100D1000DFF800060DF0E4F901BD0000D50C000875
:100D200080B5002806D14FF48061DFF8E8050DF0AA
:100D3000D4F905E04FF48061DFF8D8050DF0D0F963
:100D400001BD0000FF0900088B09000880B50028DC
:100D50000AD14FF40051DFF8FC040DF0BEF9002079
:100D6000DFF8D419087009E04FF40051DFF8E4040B
:100D70000DF0B6F90120DFF8C019087001BD0000C0
:100D800080100020D50800085708000880B500280A
:100D90000AD14FF48041DFF8BC040DF09EF9002029
:100DA000DFF89819087009E04FF48041DFF8A404D7
:100DB0000DF096F90120DFF88419087001BD0000DC
:100DC000F90C0008210D000880B5002806D14FF469
:100DD0000041DFF840050DF080F905E04FF40041D7
:100DE000DFF830050DF07CF901BD0000AF0A000806
:100DF00080B5002805D11021DFF8980B0DF06DF9B2
:100E000004E01021DFF88C0B0DF06AF901BD000041
:100E1000310B000880B5002805D10421DFF8780BDC
:100E20000DF05BF904E00421DFF86C0B0DF058F9CC
:100E300001BD00004D0D000880B5002806D14FF41B
:100E40008051DFF8580B0DF048F905E04FF4805160
:100E5000DFF8480B0DF044F901BD00008D0D0008CE
:100E600080B5002806D14FF40061DFF8300B0DF09B
:100E700034F905E04FF40061DFF8200B0DF030F994
:100E800001BD000018ED00E0C90D0008A10E00082A
:100E900010E000E0410F0008CA1500206D0F0008A7
:100EA00080B5002806D14FF40041DFF8F40A0DF0B8
:100EB00014F905E04FF40041DFF8E40A0DF010F9F1
:100EC00001BD0000B90F000880B5002806D14FF41D
:100ED0008061DFF8C80A0DF000F905E04FF4806189
:100EE000DFF8B80A0DF0FCF801BD0000FD0F0008A6
:100EF00080B5002806D14FF40071DFF8A00A0DF08C
:100F0000ECF805E04FF40071DFF8900A0DF0E8F816
:100F100001BD0000251000087110000880B50028F0
:100F200005D10821DFF86C0A0DF0D7F804E008219C
:100F3000DFF8600A0DF0D4F801BD00009910000838
:100F400080B5002805D10121DFF84C0A0DF0C5F865
:100F500004E00121DFF8400A0DF0C2F801BD0000F5
:100F6000E11000080911000835110008002808D117
:100F70000020DFF8301A08700020DFF8AC1B087082
:100F800014E0DFF8240ADFF8241A097810F81100B9
:100F9000DFF8101A0870DFF8100ADFF8101A097865
:100FA00000EB41004078DFF8801B087070470000BC
:100FB00057110008F10D000880B500280DD1082157
:100FC000DFF8DC090DF089F8DFF8600B007810F02D
:100FD000FE00DFF8581B08700CE00821DFF8C0099C
:100FE0000DF07EF8DFF8440B007850F00100DFF8D8
:100FF0003C1B087001BD0000150E000880B50028DC
:1010000005D10421DFF898090DF067F804E0042108
:10101000DFF88C090DF064F801BD0000390E0008FE
:10102000610E000880B500280ED14FF48051DFF822
:1010300064090DF052F8DFF8F40A007810F0FD00B2
:10104000DFF8E81A08700DE04FF48051DFF844092A
:101050000DF046F8DFF8D40A007850F00200DFF80F
:10106000CC1A087001BD0000C90E0008F10E00087E
:1010700080B5002806D14FF40051DFF818090DF0B3
:101080002CF805E04FF40051DFF808090DF028F8BE
:1010900001BD00001D0F000880B500280ED14FF4DF
:1010A0008051DFF8F4080DF018F8DFF8800A0078B6
:1010B00010F0FB00DFF8741A08700DE04FF4805157
:1010C000DFF8D4080DF00CF8DFF8600A007850F073
:1010D0000400DFF8581A087001BD00004716002010
:1010E00080B5002806D14FF40051DFF8AC080CF0B1
:1010F000F4FF05E04FF40051DFF89C080CF0F0FF1E
:1011000001BD0000B815002080B5002806D14FF4BD
:101110008041DFF88C080CF0E0FF05E04FF48041DF
:10112000DFF87C080CF0DCFF01BD00001415002086
:10113000B915002080B5002806D14FF40051DFF822
:1011400060080CF0CAFF05E04FF40051DFF85008CA
:101150000CF0C6FF01BD80B5002806D14FF48051C8
:10116000DFF83C080CF0B9FF05E04FF48051DFF8E0
:1011700030080CF0B5FF01BD80B5DFF8B409007888
:10118000012807D0DFF8AC09DFF8AC19097850F86E
:101190002100804701BD00002A15002060160020B4
:1011A0008A1500205B1600208C1500205C1600209C
:1011B000DFF88809DFF87C190860DFF88409DFF8B8
:1011C00074194860DFF87C09DFF868198860DFF877
:1011D0007809DFF86019C860DFF87009DFF8541982
:1011E0000861DFF86C09DFF84C194861DFF8640921
:1011F000DFF840198861DFF86009DFF83819C86145
:10120000DFF85809DFF82C190862DFF85409DFF815
:1012100024194862DFF84C09DFF818198862DFF8F2
:101220004809DFF81019C862DFF84009DFF804192F
:101230000863DFF83C09DFF8FC184863DFF834097D
:10124000DFF8F0188863DFF83009DFF8E818C863C2
:101250007047000000180140704780B5DFF8A80B08
:101260000078002806D0022817D004D3042840D0E4
:101270002ED34EE04DE0DFF804090088DFF80019B6
:101280000988884204D20320DFF87C1B087003E041
:101290000420DFF8741B08703BE0DFF8E4080088E6
:1012A000801EDFF8D8180988884204DB0320DFF8A5
:1012B000581B08700BE0DFF8C4080088DFF8C0187E
:1012C0000988884203D30420DFF83C1B087020E023
:1012D000DFF8B0080078002804D0DFF8AC08007808
:1012E000002801D102F060FD0220DFF81C1B08700D
:1012F0000FE0DFF890080078012804D0DFF88808B4
:101300000078012801D102F0F9FC0220DFF8F81A78
:10131000087001BD0018014016150020BA15002004
:10132000BB1500201815002080B5DFF86008008884
:10133000002840F0C380DFF8D00A0078DFF85018AA
:101340000870DFF850080078C0B2C009C0B20028A9
:101350005DD0DFF83C080078002808D0012807D0CD
:10136000052817D0062830D007283FD0A0E09FE0FE
:10137000DFF808080088DFF808180988884204D2D6
:101380000620DFF80C18087003E00720DFF80018CB
:1013900008708DE0DFF8E4070088DFF8E4170988BB
:1013A000884204D30720DFF8E81708700CE0DFF864
:1013B000D0070088801EDFF8C4170988884203DB45
:1013C0000620DFF8CC17087072E0DFF8B807007865
:1013D000002804D0DFF8B0070078002801D102F01F
:1013E000E3FC0520DFF8A817087061E0DFF8940738
:1013F0000078012804D0DFF890070078012801D197
:1014000002F07CFC0520DFF88817087050E0DFF858
:1014100080070078002806D0022817D004D30428BB
:101420003BD02ED344E043E0DFF850070088DFF8DC
:1014300050170988884204D20320DFF85417087037
:1014400003E00420DFF84817087031E0DFF82C07CC
:101450000088DFF82C170988884204D30420DFF8BD
:10146000301708700CE0DFF818070088801EDFF8DE
:101470000C170988884203DB0320DFF81417087073
:1014800016E0DFF888090078002801D102F0B0FCEE
:101490000220DFF8FC1608700AE0DFF87009007817
:1014A000012801D102F086FC0220DFF8E416087062
:1014B000DFF8DC060078DFF85019087001BD000085
:1014C000BC1500201A1500200C18014080B5DFF86B
:1014D000BC060088002840F02D81DFF82C09007838
:1014E000DFF82C190870DFF8AC060078C0B2C0092C
:1014F000C0B200285DD0DFF818090078002808D0B5
:10150000012807D0032832D0042841D0052813D061
:101510000AE109E1DFF864060088DFF8641609884B
:10152000884204D20320DFF8E818087003E00420A2
:10153000DFF8DC180870F7E0DFF840060088DFF815
:1015400040160988884204D30420DFF8C4180870C4
:101550000CE0DFF82C060088801EDFF820160988D2
:10156000884203DB0320DFF8A8180870DCE0DFF80E
:1015700014060078002804D0DFF80C060078002854
:1015800001D102F011FC0520DFF884180870CBE0CF
:10159000DFF8F0050078012804D0DFF8EC050078CA
:1015A000012801D102F0AAFB0520DFF864180870B9
:1015B000BAE0DFF85C08007800280DD001280CD0D4
:1015C000022819D0032833D0052851D0062861D02D
:1015D000072800F0A080A7E0A6E0DFF8A0050088BB
:1015E000462804DA0320DFF82818087003E00220F8
:1015F000DFF81C18087097E0DFF8880500780128EC
:1016000004D0DFF884050078012801D102F076FBD0
:1016100002F0EEFB0420DFF8FC170870DFF8F80793
:10162000DFF8F81708600620DFF8E41708707BE0A1
:10163000DFF8D8070078012801D102F0BBFB02F0E7
:10164000B3FB0020DFF8D81708804FF4FA70DFF8FA
:10165000D417088041F28830DFF8CC1708800120C9
:10166000DFF8B01708700520DFF8A41708705BE0FA
:10167000DFF80805008846280BDB02F03FFB02F08C
:10168000B7FB0420DFF88C1708700620DFF88017FE
:10169000087049E0DFF8E4040088462804DA0320F3
:1016A000DFF86C17087035E0DFF860070078012874
:1016B0001CD1DFF8C8040088DFF8C4140988884208
:1016C00028D302F077FB0020DFF8541708804FF48E
:1016D000FA70DFF85017088041F28830DFF84817B9
:1016E00008800120DFF82C17087013E0DFF81C07D2
:1016F000007800280ED1DFF888040088801EDFF80B
:101700007C140988884205DB02F072FB0420DFF8B4
:101710000417087008E0DFF804070068002803D108
:101720000120DFF8EC160870DFF8E4060078DFF837
:10173000D816087001BD0000501600205116002078
:10174000704780B5DFF8C0060078DFF8FC19087034
:10175000DFF840040078C0B2C009C0B200285DD0F4
:10176000DFF8E4090078002808D0012807D0022813
:1017700017D0042830D005283FD004E103E1DFF87A
:10178000FC030088DFF8F8130988884204D204209B
:10179000DFF8B419087003E00520DFF8AC19087011
:1017A000F1E0DFF8D8030088DFF8D4130988884215
:1017B00004D30520DFF8901908700CE0DFF8C003AF
:1017C0000088801EDFF8B4130988884203DB0420F8
:1017D000DFF874190870D6E0DFF8A8030078002855
:1017E00004D0DFF8A4030078002801D102F0DCFA6D
:1017F0000220DFF854190870C5E0DFF8880300788C
:10180000012804D0DFF880030078012801D102F01C
:1018100075FA0220DFF830190870B4E0DFF8280903
:10182000007800280DD001280CD0022813D00328FE
:1018300023D004284ED006286ED0072800F08780D9
:10184000A1E0A0E00020DFF8041908700220DFF812
:10185000F818087097E0DFF824030088DFF82013F9
:101860000988884204D20420DFF8DC18087003E0FD
:101870000620DFF8D418087085E0C1480088801E73
:10188000BE490988884204DB0420DFF8BC180870D0
:101890001FE0BA480088BA490988884219D3DFF89E
:1018A000AC08007800280AD1DFF8A4080078DFF837
:1018B0009C1808700620DFF89018087009E0B148FD
:1018C0000078012803D0B0480078012801D102F047
:1018D00015FA58E0DFF834050078012801D102F04C
:1018E00069FAA8480078002811D1A7480078002894
:1018F0000DD102F059FADFF854080078002806D01C
:10190000DFF848080078401EDFF840180870032010
:10191000DFF83418087036E09A480078012803D0C0
:1019200099480078012801D102F0E8F9DFF8DC04D9
:101930000078002801D102F05BFA4EF66020DFF853
:10194000DC1408600720DFF8001808701BE0DFF8DF
:10195000CC04006800280BD089480088801E874985
:10196000098888420FDB0420DFF8DC1708700AE0E2
:10197000DFF898040078012801D102F01BFA032057
:10198000DFF8C4170870DFF8C0070078DFF87814B4
:10199000087001BD00100140000C0140001C014016
:1019A000001401406C160020700E01086E16002015
:1019B00080B5DFF85404007800280AD0022827D028
:1019C00008D3042869D034D3062800F098807AD34D
:1019D000A9E0A8E00020DFF87C1708700020DFF8FD
:1019E00078170870DFF87407007810F0FD00DFF852
:1019F0006C17087062480188DFF8640700784118A6
:101A0000DFF8600701800220DFF8FC1308708AE02D
:101A10005A480088DFF84C170988884204D204200D
:101A2000DFF8E413087003E00520DFF8DC1308702A
:101A300079E0DFF830070088801E50490988884225
:101A400004DB0420DFF8C01308700AE04B4800886C
:101A5000DFF810170988884203D30520DFF8A813A0
:101A60000870DFF8F0060078002815D1DFF8E806E6
:101A70000078012810D1DFF8E4060078C0F34000B8
:101A8000C0B2002808D1DFF8680A0068002803D136
:101A90000620DFF87413087045E0DFF87003007863
:101AA000012801D102F086F936480078002803D0D9
:101AB00035480078002801D102F076F90320DFF8DC
:101AC000481308702FE02F480078012803D02E48D3
:101AD0000078012801D102F011F9DFF87C060078C6
:101AE000002808D1DFF80C0ADFF8041A086001208A
:101AF000DFF8641608700320C349087013E0DFF8AC
:101B00005406007800280BD1DFF85006007850F01A
:101B10000200DFF8481608700120DFF83816087058
:101B20000320B949087001BD6D1600202E15002054
:101B300040160020E811002023160020591200084A
:101B40005B12000829130008CD1400084117000893
:101B500043170008B1190008991B00082D1E000842
:101B6000692100086B210008E926000815250008F6
:101B7000B9280008E5290008A12900083A15002025
:101B80006415002013160020161600202C150020C6
:101B9000BF1500207015002080B59B480078DFF845
:101BA00058190870DFF854090078C0B2C009C0B2F3
:101BB000002800F09A80DFF840090078002808D05B
:101BC000012807D0052850D006285FD0072823D049
:101BD0006CE06BE00020DFF87C1508700020DFF877
:101BE00020190870DFF87405007810F0FD00DFF8A8
:101BF0006C150870DFF80C090088DFF80C190988EB
:101C0000884204D20520DFF8F018087003E00620AF
:101C1000DFF8E418087049E0DFF8E8080088DFF82A
:101C2000E8180988884212D3DFF8D4080078002821
:101C300008D1DFF8C008DFF8B81808600120DFF825
:101C4000C01808700620DFF8B01808700CE0DFF844
:101C5000B8080088801EDFF8AC180988884203DBCA
:101C60000520DFF89418087020E0DFF8A00800785D
:101C7000002804D0DFF898080078002801D102F08D
:101C800093F80720DFF8701808700FE0DFF87C0881
:101C90000078012804D0DFF878080078012801D105
:101CA00002F02CF80720DFF850180870DFF8500811
:101CB0000078012840F0A180DFF83408006800288F
:101CC00040F09B80DFF88C040078002840F095807D
:101CD000DFF88804007850F00200DFF88014087004
:101CE0000120DFF87014087087E0DFF80C08007836
:101CF000002806D0022827D004D304284AD03ED397
:101D000060E05FE00020DFF84C1408700020DFF88E
:101D1000F0170870DFF84404007810F0FD00DFF8D9
:101D20003C140870DFF8DC070088DFF8DC1709884E
:101D3000884204D20320DFF8C017087003E00420B3
:101D4000DFF8B41708703DE0DFF8B8070088DFF867
:101D5000B8170988884204D30420DFF89C1708705C
:101D60000CE0DFF8A4070088801EDFF898170988C8
:101D7000884203DB0320DFF88017087022E0234845
:101D80000078002801D102F033F80220DFF868174C
:101D9000087017E01D480078012801D102F00AF808
:101DA000DFF85C070078002808D1DFF84807DFF883
:101DB000401708600120DFF8481708700220DFF89C
:101DC00038170870DFF838070078012815D1DFF8D8
:101DD00020070068002810D1DFF878030078002879
:101DE0000BD1DFF87803007850F00200DFF86C13B5
:101DF00008700120DFF85C130870DFF8FC0600783B
:101E00000149087001BD00002416002019160020A9
:101E1000C01500203F160020E09304009414002019
:101E20007E150020801500208215002080B5DFF887
:101E3000A80B0078DFF87C1A0870DFF8C00600787D
:101E4000C0B2C009C0B2002800F09380DFF8640A75
:101E50000078002808D0012807D004284DD0052894
:101E600022D007285AD069E068E00020B9490870FC
:101E70000020DFF88C160870B848007810F0FD00DC
:101E8000B6490870DFF87C060088DFF87C16098800
:101E9000884204D20420DFF81C1A087003E00720EF
:101EA000DFF8101A087049E0DFF858060088DFF8FC
:101EB00058160988884212D3DFF8440600780028B3
:101EC00008D1DFF83006DFF8281608600120DFF8B7
:101ED000301608700720DFF8DC1908700CE0DFF816
:101EE00028060088801EDFF81C160988884203DB5C
:101EF0000420DFF8C019087020E0DFF81006007831
:101F0000002804D0DFF808060078002801D101F08D
:101F10004BFF0520DFF89C1908700FE0DFF8EC0597
:101F20000078012804D0DFF8E8050078012801D105
:101F300001F0E4FE0520DFF87C190870DFF8C00529
:101F40000078012840F0F980DFF8A4050068002837
:101F500040F0F3807F480078002840F0EE807F4812
:101F6000007850F002007D4908700120794908701E
:101F7000E3E0DFF840090078002809D0022815D0F6
:101F800007D304283DD020D3062871D059D3BDE013
:101F9000BCE000206F4908700020DFF8641508706D
:101FA0006E48007810F0FD006C490870DFF85405A9
:101FB0000088462804DA0420DFF8F818087003E0E7
:101FC0000320DFF8F0180870A0E0DFF84005007883
:101FD000012804D0DFF838050078012801D101F08C
:101FE0008DFE01F005FF0420DFF8301A0870DFF8DD
:101FF000EC09DFF8EC1908600620DFF8B818087063
:1020000084E0DFF81C0A0078012801D101F0D2FE3B
:1020100001F0CAFE0020DFF80C1A08804FF4FA70B5
:10202000DFF8041A088041F28830DFF8001A0880CF
:102030000120DFF8E81908700520DFF8781808702B
:1020400064E0DFF8C0040088462810DB01F056FE8B
:1020500001F0CEFE0420DFF8C4190870DFF87C0917
:10206000DFF87C1908600620DFF8481808704DE09A
:10207000DFF8AC09007801282AD1DFF8880400884D
:10208000DFF884140988884240D301F093FE0020D1
:10209000DFF8901908804FF4FA70DFF88C19088087
:1020A00041F28830DFF8841908800120DFF86C19CC
:1020B0000870DFF84C040078002827D1DFF83404DA
:1020C000DFF82C1408600120DFF8341408701DE0DC
:1020D000DFF84C090078002818D1DFF82C040088BC
:1020E000801EDFF82014098888420FDBDFF8140413
:1020F0000088462804DA0220DFF8B817087005E0E7
:1021000001F076FE0420DFF814190870DFF8F00300
:102110000078012811D1DFF8D803006800280CD11D
:102120000C480078002808D10C48007850F00200D4
:102130000A490870012007490870DFF8780700781D
:10214000DFF89418087001BDC2150020C1150020E9
:1021500022160020BD150020C315002045160020C2
:10216000730000201C150020704780B5DFF8680858
:102170000078DFF8241A0870DFF880030078C0B216
:10218000C009C0B2002800F0AF80DFF80C0A007868
:10219000002808D002283AD006D304286AD048D3B1
:1021A000052876D083E082E00020DFF8F01908707F
:1021B0000020DFF8EC1908700020DFF844130870E5
:1021C000DFF8E009007810F0FD00DFF8D81908709A
:1021D000DFF8D409007802280AD1DFF82C0301883F
:1021E000DFF8C80900784118DFF81C03018009E016
:1021F000DFF814030188DFF8B80900784118DFF828
:10220000080301800220DFF8901908704FE0DFF822
:10221000F4020088DFF8F0120988884204D2042012
:10222000DFF87419087003E00520DFF86C190870F6
:102230003DE0B4480088B449098888420ED3B048CC
:102240000078002805D1AB48A94908600120AC49B5
:1022500008700520DFF8401908700AE0AA480088D5
:10226000801EA8490988884203DB0420DFF828196A
:1022700008701CE0A5480078002803D0A448007826
:10228000002801D101F090FD0320DFF80C1908703F
:102290000DE09E480078012803D09D480078012871
:1022A00001D101F02BFD0320DFF8EC1808709448F1
:1022B0000078012840F014818D480068002840F023
:1022C0000F81DFF8DC080078002840F00981DFF892
:1022D000D408007850F00200DFF8C8180870012018
:1022E000DFF8BC180870FBE0DFF8AC0800780028C5
:1022F0000ED001280DD0022839D0032847D0042859
:1023000072D0062800F09280072800F0B480CEE05A
:10231000CDE00020DFF8841808700020DFF8801876
:102320000870002076490870DFF87808007810F00F
:10233000FD00DFF870180870DFF86C0800780228DC
:1023400008D171480188DFF86408007841186E48A8
:10235000018007E06C480188DFF8540800784118D4
:10236000694801800220DFF8301808709FE0654856
:10237000008865490988884204D20420DFF81818CB
:10238000087003E00620DFF8101808708FE05E4840
:102390000088801E5B490988884204DB0420DFF83E
:1023A000F81708701FE05748008857490988884285
:1023B00019D3DFF8E807007800280AD1DFF8F4071E
:1023C0000078DFF8D81708700620DFF8CC170870FF
:1023D00009E04E480078012803D04D4800780128D4
:1023E00001D101F08BFC62E0DFF8340600780128AF
:1023F00001D101F0DFFC45480078002811D14448A4
:10240000007800280DD101F0CFFCDFF890070078AC
:10241000002806D0DFF884070078401EDFF87C171C
:1024200008700320DFF87017087040E03748007824
:10243000012803D036480078012801D101F05EFC64
:10244000DFF8DC050078002801D101F0D1FC4EF660
:102450006020DFF88C15086029480078002805D135
:102460002448234908600120254908700720DFF827
:10247000281708701BE0DFF86805006800280BD0FB
:1024800021480088801E1F49098888420FDB0420EC
:10249000DFF8041708700AE0DFF8840500780128E7
:1024A00001D101F087FC0320DFF8EC160870144816
:1024B0000078012814D10E480068002810D1DFF8F8
:1024C000E006007800280BD1DFF8D806007850F03D
:1024D0000200DFF8D01608700120DFF8C41608707B
:1024E000DFF8B4060078DFF8F014087001BD0000D2
:1024F00098140020C0270900C41500207015002082
:10250000BE1500203A150020641500201316002087
:102510001616002080B5DFF8C0040078DFF8DC1A5A
:102520000870DFF8D80A007800280FD0022813D0EE
:102530000DD304285ED042D3062800F08F8071D3DB
:10254000082800F0C080C0F0A680C7E0C6E00220E6
:10255000DFF8A81A0870C1E0DFF8A40A0088DFF8E5
:10256000A41A0988884204D20420DFF8901A08705F
:1025700024E0DFF8F40AB0F9000000281AD0DFF8F0
:10258000800A0088DFF87C1A098888420DD3DFF8BA
:10259000700A0088DFF8D01AB1F90010884204DA16
:1025A0000720DFF8581A087008E00820DFF84C1AF6
:1025B000087003E00520DFF8441A08708EE0DFF8A9
:1025C000440A0088801EDFF8381A0988884204DB34
:1025D0000420DFF8281A08700BE0DFF8240A0088CE
:1025E000DFF8201A0988884203D30520DFF80C1A87
:1025F000087073E0DFF828040078012801D101F0A9
:10260000D9FBDFF8C80A0078002804D0DFF8C00A38
:102610000078002801D101F0C7FB0320DFF8DC19A6
:1026200008705BE0DFF8A40A0078012804D0DFF826
:10263000A00A0078012801D101F060FBDFF8280A28
:10264000B0F90000002804D10320DFF8B0190870A9
:1026500003E00720DFF8A41908703FE0DFF8080A5C
:10266000B0F90000801EDFF898190988884204DB61
:102670000720DFF8881908700CE0DFF8840900886B
:10268000DFF8E419B1F90010884203DB0820DFF815
:102690006C19087022E0DFF8340A0078012804D0B1
:1026A000DFF82C0A0078012801D101F027FBDFF8C0
:1026B00070030078002801D101F09AFB0620DFF8B2
:1026C0003C1908700AE0DFF858030078012801D1AE
:1026D00001F070FB0620DFF824190870DFF81C09F0
:1026E0000078BD49087001BD80B5BB480078DFF8AF
:1026F000BC1A0870DFF8B40A007800280FD002284E
:1027000013D00DD304285ED042D3062800F08E806B
:1027100070D3082800F0BE80C0F0A580C4E0C3E0FC
:102720000220DFF8881A0870BEE0DFF8D4080088BD
:10273000DFF8D0180988884204D20420DFF86C1A28
:10274000087024E0DFF82009B0F9000000281AD052
:10275000DFF8AC080088DFF8AC18098888420DD390
:10276000DFF89C080088DFF80019B1F900108842F2
:1027700004DA0720DFF8341A087008E00820DFF8D0
:102780002C1A087003E00520DFF8201A08708BE08F
:10279000DFF870080088801EDFF864180988884216
:1027A00004DB0420DFF8041A08700BE0DFF850089F
:1027B0000088DFF850180988884203D30520DFF825
:1027C000EC19087070E096480078012801D101F0FA
:1027D000F1FADFF8F8080078002804D0DFF8F008F4
:1027E0000078002801D101F0DFFA0320DFF8BC19DE
:1027F000087059E0DFF8D4080078012804D0DFF829
:10280000D0080078012801D101F078FADFF85808E3
:10281000B0F90000002804D10320DFF890190870F7
:1028200003E00720DFF8841908703DE0DFF838087E
:10283000B0F90000801EDFF8C8170988884204DB61
:102840000720DFF8681908700CE0DFF8B40700888B
:10285000DFF81418B1F90010884203DB0820DFF814
:102860004C19087020E0DFF864080078012804D0D3
:10287000DFF85C080078012801D101F03FFA6848D0
:102880000078002801D101F0B3FA0620DFF81C1906
:10289000087009E062480078012801D101F08AFA45
:1028A0000620DFF808190870DFF8000900784A49A7
:1028B000087001BDC515002080B547480078DFF8D5
:1028C000F0180870DFF8E8080078002808D002281F
:1028D0000CD006D3042836D01AD305284AD059E0A4
:1028E00058E00220DFF8C818087053E0DFF810073E
:1028F0000088DFF810170988884204D20420DFF826
:10290000B018087003E00520DFF8A418087041E053
:10291000DFF8F0060088801EDFF8E4160988884298
:1029200004DB0420DFF8881808700BE0DFF8D0061D
:102930000088DFF8D0160988884203D30520DFF825
:102940007018087026E036480078012801D101F09F
:1029500031FADFF878070078002804D0DFF8700734
:102960000078002801D101F01FFA0320DFF8401899
:1029700008700FE0DFF854070078012804D0DFF872
:1029800050070078012801D101F0B8F90320DFF8E1
:1029900020180870DFF8180800780F49087001BD8A
:1029A00080B5DFF828070078012804D0DFF8200779
:1029B0000078012801D101F0A1F919480078012817
:1029C00001D101F0F7F90020DFF8F81908700120B3
:1029D0000149087001BD000024160020E0930400A6
:1029E0009414002080B5DFF8E4060078012804D0B4
:1029F000DFF8DC060078012801D101F07FF90848F2
:102A00000078012801D101F0D5F90020DFF8B419D0
:102A100008700020DFF8B019087001BD3F160020D3
:102A2000191600207E150020801500208215002038
:102A300080B501F079FD02F074FC01F057FC4FF411
:102A40007A700BF0FFFFDFF88439002247F60101AE
:102A5000062003F063FA0821DFF870090CF06DF925
:102A6000DFF86C39002247F60101062003F056FA20
:102A70000821DFF85C090CF077F9002006F058FD1A
:102A80000120DFF8501908700120DFF84C19088088
:102A9000DFF84809007850F00400DFF840190870AA
:102AA000DFF83809007850F00800DFF830190870B6
:102AB00001F081FF03F06CFC00F07EF807F074F881
:102AC00006F04EFA02F0E6F802F0D8F902F0BFFA8A
:102AD00002F09CFB03F086FBDFF804090078002875
:102AE000E6D102F01DFC02F065FD03F07DF806F072
:102AF00021FA06F023FA06F09DFB06F0DDFB01F05B
:102B0000A4FB07F027FD06F02FFC07F055FB07F0AC
:102B10007DFB07F0ACFBDFF8CC08007807F021FC68
:102B200007F098FD08F02EFA08F08AFD09F0CAF8BF
:102B30000AF004FE09F0B0F9DFF8A80C00780028CC
:102B400001D100F0E1FA09F057F909F053FAFEF764
:102B500013FB09F0CBFBFDF7BFFDFDF7F7FEFDF71B
:102B600088FFFEF72BF800F0F8F909F0E3FB09F015
:102B70003EFE09F0A7FE09F015FF09F007FB09F07A
:102B800069FB09F0DAFD00F03FFC00F061FE01F0A6
:102B900063F90AF015F88BE7C6150020C11500206F
:102BA000BD1500204516002071160020740000207D
:102BB000750000202216002080B5DFF82C0C00885C
:102BC000002840F0C981AA20DFF81C1808703C20BA
:102BD000DFF814184870DFF814080068DFF81018E0
:102BE0000860DFF8F80700884FF4807190FBF1F27D
:102BF00001FB1200DFF8F017C870DFF8E00700886B
:102C00004FF4807190FBF1F0DFF8DC170871DFF80A
:102C1000E0070078DFF8D0174871DFF8D407407874
:102C2000DFF8C4178871DFF8C8078078DFF8B817B5
:102C3000C871DFF8BC07C078DFF8AC170872DFF89E
:102C4000B4070078DFF8A0174872DFF8AC070088F7
:102C50004FF4807190FBF1F201FB1200DFF888174E
:102C60008872DFF8940700884FF4807190FBF1F0D0
:102C7000DFF87417C872DFF8840700884FF480719A
:102C800090FBF1F201FB1200DFF85C170873DFF82C
:102C90006C0700884FF4807190FBF1F0DFF8481763
:102CA0004873D74800884FF4807190FBF1F201FB24
:102CB0001200DFF834178873D14800884FF4807110
:102CC00090FBF1F0DFF82017C873DFF834070088B5
:102CD0004FF4807190FBF1F201FB1200DFF808174E
:102CE0000874DFF81C0700884FF4807190FBF1F046
:102CF000DFF8F4164874DFF80C07B0F9000080B272
:102D00004FF4807190FBF1F201FB1200DFF8D8164E
:102D10008874DFF8F006B0F9000080B24FF48071DB
:102D200090FBF1F0DFF8C016C874DFF8C00AB0F904
:102D3000000080B24FF4807190FBF1F201FB1200B1
:102D4000DFF8A4160875DFF8A40AB0F9000080B215
:102D50004FF4807190FBF1F0DFF88C164875DFF8C6
:102D6000900AB0F9000080B24FF4807190FBF1F24C
:102D700001FB1200DFF870168875DFF8740AB0F9ED
:102D8000000080B24FF4807190FBF1F0DFF858162C
:102D9000C875DFF8600A0088DFF84C160876DFF89F
:102DA000580A0088DFF840164876DFF8500A008895
:102DB000DFF834168876DFF8480A00884FF480710F
:102DC00090FBF1F201FB1200DFF81C16C876DFF869
:102DD000300A00884FF4807190FBF1F0DFF808169C
:102DE0000877DFF8200A00884FF4807190FBF1F239
:102DF00001FB1200DFF8F0154877DFF8080A0088B9
:102E00004FF4807190FBF1F0DFF8DC158877DFF884
:102E1000F8090078DFF8D015C877DFF8B805007832
:102E2000DFF8C41581F82000DFF8E0090078DFF84A
:102E3000B81581F82100DFF8AC050078DFF8A81597
:102E400081F82200DFF8C8090078DFF89C1581F8C6
:102E50002300DFF8C0090078DFF88C1581F8240022
:102E6000DFF8B40900684FF47A71B0FBF1F03C214F
:102E7000B0FBF1F0DFF8701581F82500DFF8980954
:102E800000684FF47A71B0FBF1F03C21B0FBF1F235
:102E900001FB1200DFF8501581F82600DFF87C09ED
:102EA0000078C0F3C000C0B2002818D0DFF8700965
:102EB00000884FF4807190FBF1F201FB1200DFF803
:102EC000281581F83200DFF8580900884FF4807126
:102ED00090FBF1F0DFF8101581F8330017E0DFF810
:102EE000440900884FF4807190FBF1F201FB12005D
:102EF000DFF8F41481F83200DFF8280900884FF475
:102F0000807190FBF1F0DFF8E01481F83300DFF816
:102F100018090078DFF8D01481F83400DFF80C09C4
:102F200000684FF47A71B0FBF1F0DFF8BC1481F85F
:102F300035003621DFF8B00406F004F8DFF8A814F5
:102F400081F836003721DFF8A0040BF024FF4FF49E
:102F5000FA70DFF89418088001BD80B500F014F80D
:102F600000F052F800F082F800F0B4F801BDDFF88C
:102F7000C0180870DFF8BC180870DFF8BC180870BB
:102F8000DFF8701C0870704780B5DFF8A40800787F
:102F9000002805D0022813D003D303281FD02BE02C
:102FA0002AE0DFF898080078002825D10120DFF812
:102FB0009018096888470220DFF8741808701BE031
:102FC000DFF878080078002816D10120DFF87018A3
:102FD000496888470320DFF8581808700CE0DFF8CC
:102FE0005C080078002807D10120DFF85818087025
:102FF0000020DFF83C18087001BD0000C715002054
:103000003A1500206415002080B5DFF82808007804
:10301000002805D0022812D003D303281ED021E0B7
:1030200020E00120DFF81818496988476E20DFF892
:10303000181808800220DFF8FC17087012E0DFF88B
:103040000808008800280DD10120DFF8F4178969ED
:1030500088470320DFF8DC17087003E00020DFF862
:10306000D417087001BD00007A15002080B5DFF884
:10307000C8070078002805D0022812D003D30328FF
:103080001ED021E020E00120DFF8B417C96A88478C
:10309000FA20DFF8B81708800220DFF89C170870C4
:1030A00012E0DFF8A807008800280DD10120DFF822
:1030B0009017096B88470320DFF87C17087003E03E
:1030C0000020DFF87417087001BD000013160020FF
:1030D0001616002080B5DFF81C0B0078002803D0FE
:1030E00002280CD001D30EE00DE00120DFF85017CC
:1030F000C96988470220DFF8FC1A087003E0002045
:10310000DFF8F01A087001BD80B5DFF8EC0A00782E
:10311000002849D1DFF8E40A007800281AD1DFF846
:10312000E00A0078012802D100F044F808E0DFF856
:10313000D40A0078022803D00220DFF8381C087077
:10314000DFF8380B0078022803D00220DFF8301BAC
:10315000087029E0DFF82C0B0078002822D09F4867
:103160000078C0F30010C0B200280DD00220DFF8B4
:10317000101B0870DFF8FC0B0078032811DA02201E
:10318000DFF8F01B08700CE00120DFF8F41A08707B
:10319000DFF8E00B0078032803DA0220DFF8D41B05
:1031A000087001E000F006F801BD0000C81500201D
:1031B000C915002010B589480078C0F30010C0B2CE
:1031C000002800F08580DFF8280B0078012866D100
:1031D00000241BE0DFF81C0B007821002039084197
:1031E00010F00100DFF8581651F8241088470CE061
:1031F000202CEFDADFF82C0B0068E04010F0010023
:10320000DFF83C1651F824108847641CDFF8E80A00
:1032100000788442ECDBDFF8380B0078012804D01A
:10322000DFF8040B0078012802D100F0BDFD09E0B1
:103230000020DFF80C16496E88470020DFF80016E2
:10324000896E8847DFF8E40A0078012802D100F08F
:10325000CFFD04E00020DFF8E815C96E8847DFF8ED
:10326000180B0078DFF8381B0870DFF8380B00788F
:103270005C4908700020DFF8DC1A08700220DFF8D3
:10328000001A08700120DFF8EC1A08700120DFF83E
:10329000EC1A08700020DFF8581A087091E0DFF887
:1032A000800B0078002840F08C80DFF8F40A00786A
:1032B000012804D10120DFF8BC1A087003E00220C5
:1032C000DFF8B01A08700120DFF8541B087078E0AE
:1032D000DFF81C0A007800286FD144480068DFF846
:1032E000441A086043480078DFF8081A0870DFF8CD
:1032F000B00A0078DFF8801A0870DFF8300500683F
:10330000DFF8E81A0860DFF81C0B0078DFF8401AD5
:103310000870DFF8140B0078DFF80C1A0870DFF87B
:103320000C0B0078DFF8041A08702E480078DFF8DC
:10333000741A087001202B490870DFF8E80A007839
:10334000012804D0DFF8E00A0078012801D100F05C
:10335000D5FCDFF8D80A0078012801D100F02AFD59
:10336000DFF83C0A0078012803D10120DFF8C01AF9
:1033700008700020DFF8281A08700120DFF8001913
:1033800008700220DFF8EC1908700020DFF8B01494
:10339000C96888470020DFF8A81409698847002019
:1033A000DFF89C14496A88470020DFF89414896884
:1033B00088470120DFF8381908700020DFF8601A0C
:1033C000087010BD231600202416002008130020CA
:1033D000701300204C160020241500202A15002010
:1033E0005A1600202816002020110020C4140020A6
:1033F000A0140020FD1500203215002036150020F5
:103400003E1500205215002080B5DFF8280A00780C
:1034100000282AD002285DD028D3042800F08F800D
:103420007DD3062800F0BC80C0F0A280082800F000
:10343000EB80C0F0CD800A2800F01F81C0F0FB8037
:103440000C2800F04881C0F037810E2800F07F8101
:10345000C0F05C81102800F08081C0F079811228D2
:1034600000F0BB81C0F0A381BBE1BAE10220DFF82C
:10347000C8190870DFF8A4030078C0F3C000C0B218
:1034800000280FD0012008F049FEDFF8B0090078CD
:1034900050F00800DFF8A41908700E20DFF8941926
:1034A000087016E0DFF87403007810F001000028BF
:1034B0000FD00020DFF888190880DFF88009007835
:1034C00010F0F700DFF8741908700220DFF86419B3
:1034D000087086E1DFF868090088002840F08181E3
:1034E0000020D749096D88470020D549C96C884715
:1034F0000120D349496E8847DFF84809807802F0F7
:10350000DFFBDFF84009017B4FF47A704143DFF8BD
:10351000300901800320DFF81C19087061E1DFF831
:1035200020090088002840F05C814FF4FA70DFF831
:10353000101908800420DFF8FC18087051E1DFF84A
:1035400000090088002840F04C810120BC49496EE8
:103550008847DFF8F008C07802F0B2FB40F6B830D8
:10356000DFF8DC1808800520DFF8C818087038E19B
:10357000DFF8CC080088002840F033810120B049F2
:10358000096D8847DFF8BC08817A4FF47A704143AF
:10359000DFF8AC0801800620DFF89818087020E1F9
:1035A000DFF89C080088002840F01B810120A44916
:1035B000C96C8847DFF88C08C17A4FF47A704143B0
:1035C000DFF87C0801800720DFF86818087008E140
:1035D000DFF86C080088002811D0DFF86C0840780C
:1035E000C0F34000C0B200280DD00820DFF8441816
:1035F00008704FF47A70DFF84818088003E009205B
:10360000DFF830180870ECE0DFF834080088002894
:103610000CD0DFF834084078C0F34000C0B2002876
:1036200008D10920DFF80C18087003E00B20DFF840
:1036300004180870D5E0DFF80008007800280BD0E7
:10364000DFF8F4070078401EDFF8EC1708700A2056
:10365000DFF8E01708700FE0DFF8F00700780028C7
:1036600006D1FB206F4908800220DFF8E4170870BC
:103670000F20DFF8C0170870B3E000207049096D13
:10368000884700206E49C96C884701206C49496E03
:103690008847DFF8B007807802F012FBDFF8A40754
:1036A000017B4FF47A704143DFF8940701800220D8
:1036B000DFF88017087094E0DFF88807007902F0DF
:1036C000FFFA4FF4FA60DFF8781708800C20DFF873
:1036D0006417087085E0DFF868070088002840F06C
:1036E000808000205649096D8847DFF85007007830
:1036F00050F00800DFF8441708700120DFF8541775
:1037000008700D20DFF82C1708706AE0DFF8380722
:103710004078C0F34000C0B2002817D1DFF82C0772
:10372000007800280AD1FE203E4908800220DFF8F8
:10373000201708700020DFF8FC1608700020DFF862
:10374000141708700F20DFF8EC16087049E048E005
:103750001020DFF8E016087043E030480078C0F32E
:10376000C000C0B2002803D0002008F0D7FC19E048
:1037700000203349096D884700203149C96C8847CA
:1037800001202F49496E8847DFF8B806807802F09B
:1037900097FADFF8B006017B4FF47A704143DFF807
:1037A000A00601801120DFF88C16087019E0DFF800
:1037B00090060088002814D100202149496E8847CE
:1037C000DFF87806007810F0F700DFF87016087060
:1037D0001220DFF86016087003E00020DFF85416AE
:1037E000087001BD6B1600201E1500205415002026
:1037F00056150020421500204415002046150020D3
:103800004E150020501500204116002071000020A8
:103810004416002045160020981400207015002042
:103820008C1500208A1500205D160020D41400207D
:103830007F1600207E1600207D160020B81500207F
:1038400080100020211600209A1500209C150020D1
:1038500080B5DFF8840A0078C0F34000C0B20028C9
:1038600000F0C681DFF8B80C0078002829D00228C3
:103870003DD027D3042872D061D3062800F0A2805F
:10388000C0F08780082800F0D280C0F0B4800A28F9
:1038900000F00781C0F0E2800C2800F03281C0F017
:1038A00022810E2800F06581C0F04481102800F0CC
:1038B0006681C0F05F81122800F09681C0F07F81A0
:1038C00096E195E10220DFF8141A08700020DFF875
:1038D000101A0880DFF86405007810F0EF00DFF8B8
:1038E0005C1508700220DFF8381C087080E1DFF8F2
:1038F000F0090088002840F07B810020DFF8E419FF
:10390000896D88470020DFF8DC19496D8847012060
:10391000DFF8D019896E8847DFF82805C07902F0F2
:10392000F3F9DFF82005017B4FF47A704143DFF8AB
:10393000B00901800320DFF8E81B087058E1DFF8C8
:10394000A0090088002840F053814FF4FA70DFF896
:10395000901908800420DFF8C81B087048E1DFF8E0
:1039600080090088002840F043810120DFF87419A5
:10397000896E8847DFF8CC04007A02F0C5F940F67A
:10398000B830DFF85C1908800520DFF8941B087058
:103990002EE1DFF84C090088002840F02981012041
:1039A000DFF84019896D8847DFF89804817A4FF471
:1039B0007A704143DFF8280901800620DFF8601B98
:1039C000087015E1DFF818090088002840F0108120
:1039D0000120DFF81019496D8847DFF86804C17AC3
:1039E0004FF47A704143DFF8F80801800720DFF8D0
:1039F000301B0870FCE0DFF8E8080088002811D0D0
:103A0000DFF844044078C0F38000C0B200280DD035
:103A10000820DFF80C1B08704FF47A70DFF8C0182C
:103A2000088003E00920DFF8F81A0870E0E0DFF80A
:103A3000B008008800280CD0DFF80C044078C0F3F0
:103A40008000C0B2002808D10920DFF8D41A08701D
:103A500003E00B20DFF8C81A0870C9E0DFF87C0823
:103A6000007800280BD0DFF874080078401EDFF8DB
:103A70006C1808700A20DFF8A81A087010E0DFF848
:103A8000CC030078002807D1FC20DFF85C18088000
:103A90000220DFF8BC1308700F20DFF8841A0870CA
:103AA000A6E00020DFF83C18896D88470020DFF889
:103AB0003418496D88470120DFF82818896E884737
:103AC000DFF88003C07902F01FF9DFF87803017B8B
:103AD0004FF47A704143DFF8080801800220DFF8D4
:103AE000401A087084E0D748407A02F00DF94FF48C
:103AF000FA60DFF8EC1708800C20DFF8241A087051
:103B000076E0DFF8DC070088002871D10020DFF8BC
:103B1000D417896D8847C948007850F01000C7490C
:103B200008700120DFF8FC1908700D20DFF8F0198B
:103B300008705DE0C4484078C0F38000C0B200283F
:103B400016D1C248007800280AD1FF20DFF8981764
:103B500008800220BE4908700020DFF8C4190870F0
:103B60000020DFF8C01908700F20DFF8B4190870C2
:103B70003EE03DE01020DFF8A819087038E0002092
:103B8000DFF86017896D88470020DFF85817496D06
:103B900088470120DFF84C17896E8847A948C0790B
:103BA00002F0B2F8A748017B4FF47A704143DFF886
:103BB000300701801120DFF86819087018E0DFF87D
:103BC00020070088002813D10020DFF81817896E1D
:103BD00088479A48007810F0EF0098490870122042
:103BE000DFF83C19087003E00020DFF83419087092
:103BF00001BD00007C160020701600201E1600205B
:103C00003716002033160020C0B2002802D0012849
:103C100009D022E00220DFF8041A08700420DFF83F
:103C2000001A087019E00320DFF8F0190870DFF8B7
:103C3000A8060078C0B2C009C0B200280DD101208A
:103C4000DFF8DC1908704FF4FA70DFF8D819088033
:103C500041F28830DFF8D01908800120DFF8CC1954
:103C600008700020DFF8C819088001204149087059
:103C70000120DFF8581C087070470000351600203E
:103C8000341600202A1600200F20DFF89019087043
:103C90000220384908700420DFF884190870704742
:103CA000DFF8901908700120DFF8801908700020F3
:103CB000DFF87C19088001202E4908700420DFF805
:103CC000601908700520DFF854190870704700204B
:103CD000DFF8601908700F20DFF840190870042021
:103CE000DFF83C1908700220224908707047000074
:103CF00040160020FE150020CA15002080B500F0F7
:103D000003F800F015F801BD46480078012805D1F8
:103D10000020444908700F204649087000204D4992
:103D200008707047C8140020171600201A160020CB
:103D30003D480078012806D100203B4908700F203B
:103D4000DFF8DC1708700020DFF8D817087070471C
:103D5000141600200E16002080B50120314908708D
:103D600001203449087031480078012801D100F061
:103D700021F801BD321600200C1600205816002034
:103D800080B50120284908700120DFF894170870D9
:103D900026480078012801D100F00CF801BD000090
:103DA0000B1600202916002080B5FFF7D5FFFFF77E
:103DB000E7FF01BDDFF820050078C0B2C009C0B23E
:103DC00000280ED11948007801280AD1002017498F
:103DD00008700F20DFF8F81A08700020DFF8F41AD6
:103DE00008700020DFF8F01A08707047D81400201F
:103DF000DFF8E4040078C0B2C009C0B200280ED1D8
:103E000001200A4908700120DFF8C01A087001205B
:103E1000DFF8BC1A08700120DFF8B81A0870704784
:103E2000591600201316002016160020191600201F
:103E30000D16002011160020151600202E1500204A
:103E400060150020681400202A150020601600204C
:103E50005B1600204D16002080B5DFF8740A00784C
:103E600000282BD0022864D029D3042800F09980A0
:103E7000C0F08780062800F0C580C0F0AB8008281D
:103E800000F0F480C0F0D6800A2800F02881C0F04D
:103E900004810C2800F05181C0F040810E2800F010
:103EA0008981C0F06581102800F08A81C0F083818B
:103EB000122800F0C581C0F0AD81C5E1C4E1022047
:103EC000DFF8181A0870DFF810040078C0F38000DB
:103ED000C0B2002810D00020DFF8041A0880DFF8F4
:103EE000040A007810F0DF00DFF8F81908700220EB
:103EF000DFF8DC1908701BE0DFF8DC030078C0F3A2
:103F00000010C0B200280FD0012008F022F9DFF81D
:103F1000D409007850F02000DFF8C81908700E208E
:103F2000DFF8AC19087003E00020DFF8A41908706E
:103F30008AE1DFF8AC090088002840F08581002084
:103F4000DFF8A013096E88470020DFF89813C96DC9
:103F500088470120DFF88C13C96E8847DFF888098D
:103F6000807801F0FDFEDFF88009C1794FF47A70A6
:103F70004143DFF86C0901800320DFF85419087011
:103F800062E1DFF85C090088002840F05D814FF4B1
:103F9000FA70DFF84C1908800420DFF83419087033
:103FA00052E1DFF83C090088002840F04D810120F3
:103FB000CC49C96E8847DFF83009C07801F0D0FEDF
:103FC00040F6B830DFF8181908800520DFF800192E
:103FD000087039E1DFF808090088002840F03481D2
:103FE0000120C049096E8847DFF8FC0841794FF489
:103FF0007A704143DFF8E80801800620DFF8D01826
:10400000087021E1DFF8D8080088002840F01C8102
:104010000120B449C96D8847DFF8CC0881794FF495
:104020007A704143DFF8B80801800720DFF8A01854
:10403000087009E1DFF8A8080088002811D0DFF82F
:10404000AC084078C0F3C000C0B200280DD00820F2
:10405000DFF87C1808704FF47A70DFF88418088055
:1040600003E00920DFF868180870EDE0DFF8700859
:10407000008800280CD0DFF874084078C0F3C00036
:10408000C0B2002808D10920DFF84418087003E006
:104090000B20DFF83C180870D6E0DFF84008007805
:1040A00000280BD0DFF834080078401EDFF82C1809
:1040B00008700A20DFF8181808700FE0DFF83008E1
:1040C0000078002806D1FD20874908800220DFF80B
:1040D000241808700F20DFF8F8170870B4E00020EB
:1040E0008049096E884700207E49C96D88470120B4
:1040F0007C49C96E8847DFF8F007807801F030FE10
:10410000DFF8E407C1794FF47A704143DFF8D00754
:1041100001800220DFF8B817087095E0DFF8C807C3
:10412000007901F01DFE4FF4FA60DFF8B417088043
:104130000C20DFF89C17087086E0DFF8A4070088E1
:10414000002840F0818000206649096E8847DFF82A
:104150009407007850F02000DFF8881708700120DD
:10416000DFF8741708700D20DFF8641708706BE033
:10417000DFF878074078C0F3C000C0B2002818D13B
:10418000DFF86C07007800280BD14FF48070564997
:1041900008800220DFF85C1708700020DFF8301775
:1041A00008700020DFF8301708700F20DFF82017A4
:1041B000087049E048E01020DFF81417087043E069
:1041C00045480078C0F30010C0B2002803D000209A
:1041D00007F0BFFF19E000204249096E8847002020
:1041E0004049C96D884701203E49C96E8847DFF8BC
:1041F000F806807801F0B4FDDFF8EC06C1794FF4E1
:104200007A704143DFF8D80601801120DFF8C0162C
:10421000087019E0DFF8C8060088002814D10020D3
:104220003049C96E8847DFF8BC06007810F0DF001F
:10423000DFF8B01608701220DFF89416087003E05B
:104240000020DFF88C16087001BD80B5DFF8380A51
:10425000007800283ED02048007810F0140F04D1D8
:104260000120DFF8281A087034E0DFF8240A00780B
:1042700000282FD1DFF85406007800282AD0DFF874
:104280006C06007810F00100002811D000201549BC
:10429000096988474FF4FA60DFF8041B08800120A1
:1042A000DFF84C1D08700120DFF8E019087011E0FC
:1042B00001200C4909698847DFF8340D007801288E
:1042C00008D1DFF8DC0A0088002803D10020DFF8DD
:1042D000201D087001BD0000701500201816002078
:1042E00062150020801000208A15002010B5FBF711
:1042F0004CFFFCF75DFF002406E00020DFF8EC1A1D
:1043000051F824108847641CDFF8E40A00788442DE
:10431000F3DB4FF40051DFF8DC0A09F0E1FE4FF463
:104320000041DFF8D00A09F0D8FE4FF48061DFF8D1
:10433000C40A09F0D5FE4FF48051DFF8B80A09F03D
:10434000CCFE8021DFF8AC0A09F0CAFE4FF4007100
:10435000DFF8A00A09F0C1FE1021DFF8980A09F081
:10436000BFFE4021DFF88C0A09F0B7FE41F2883029
:1043700001F074F80A2001F0A3FC142001F0C4FC41
:104380001E2001F0EDFC0120DFF8B81A08700120B2
:10439000DFF8B41A08700120DFF8B01A08700120A5
:1043A000DFF8AC1A08706420DFF8A81A08706420DF
:1043B000DFF8A41A08706420DFF8A01A08706420DF
:1043C000DFF89C1A08701B20DFF8981AC870342098
:1043D000DFF8901A08713420DFF8881A88702620D8
:1043E000DFF8801A08724A20DFF8781A48724A20EB
:1043F000DFF8701AC8710320DFF8681A887203208A
:10440000DFF8601AC8720520DFF8581A08732720F1
:10441000DFF8D414C8704820DFF8CC1408714820A5
:10442000DFF8C41488700320DFF8BC14487103203F
:10443000DFF8B41488710520DFF8AC14C8710120CE
:10444000DFF8241A08700120DFF8201A0870012014
:10445000DFF81C1A08700120DFF8181A0870012014
:10446000DFF8141A08700120DFF8201B0870012003
:10447000DFF81C1B08700120DFF8181B08700120F2
:10448000DFF82C1B08700120DFF8381B08700120B2
:10449000DFF8341B08700120DFF8401B0870002093
:1044A000DFF828140870002008F0DEFAB0F1AA3F07
:1044B0001ED1012008F0D8FADFF8381B086002206E
:1044C00008F0D2FADFF8301B0860032008F0CCFABD
:1044D000DFF8281B0860042008F0C6FADFF8201B6C
:1044E0000860052008F0C0FADFF80C1D086015E030
:1044F00008F0C6FA0020DFF8FC1A08600020DFF898
:10450000F81A08600020DFF8F41A08600020DFF8CD
:10451000F01A08600020DFF8E01C086010BD000001
:10452000121600204E16002080B50AF06BFC5FF4D6
:1045300080300AF097FC0AF0BFFCDFF8C01C08705E
:10454000DFF8B80C0078012824D100200AF0EFFC35
:1045500000200AF000FD4FF480600AF0F2FC102009
:104560000AF0E4FD02200AF0D5FD5FF4E0115FF4EB
:1045700080300AF0BDFC01200AF0C6FC39200AF0A8
:104580008BFD0028FAD002200AF0C2FC0AF0CAFC17
:104590000828FBD1012104200AF05EFD012108203A
:1045A0000AF05AFD012110200AF056FD01212020B9
:1045B0000AF052FD012140200AF04EFD0121802029
:1045C0000AF04AFD01214FF480700AF045FD0121F7
:1045D0004FF480400AF040FD01215FF400300AF002
:1045E0004BFD01215FF480200AF046FD01215FF4BC
:1045F00000200AF041FD012101200AF01DFD0121EA
:104600004FF400500AF028FD00F016F80AF0E2FA24
:1046100000F080F900F070F901BD000023160020C1
:104620003F1600208015002082150020241600204F
:104630002C1500202216002080B54FF4E070ADF854
:10464000000018208DF8030003208DF80200694651
:10465000DFF8100B09F0D4FC4BF2D060ADF800008D
:1046600010208DF8030003208DF802006946DFF862
:10467000840709F0C5FC44F62010ADF8000048207E
:104680008DF8030003208DF802006946DFF8640707
:1046900009F0B6FC4FF40070ADF8000018208DF85A
:1046A000030003208DF802006946DFF8F00A09F0E4
:1046B000A7FC4FF48060ADF8000004208DF80300E3
:1046C0006946DFF8D80A09F09BFC0420ADF8000029
:1046D00018208DF8030003208DF802006946DFF8EA
:1046E000BC0A09F08DFC0820ADF8000004208DF80C
:1046F00003006946DFF8A40A09F082FC4FF48060E9
:10470000ADF8000018208DF8030003208DF802009A
:104710006946DFF8080C09F073FC4FF40060ADF84F
:10472000000004208DF803006946DFF8F00B09F063
:1047300067FC4FF48060ADF8000018208DF803008E
:1047400003208DF802006946DFF8180A09F058FCCA
:104750004FF40060ADF8000004208DF803006946B6
:10476000DFF8000A09F04CFC4FF6FF70ADF80000CE
:1047700010208DF8030003208DF802006946DFF851
:10478000800A09F03DFC4FF20C00ADF8000010204B
:104790008DF8030003208DF802006946DFF8640AF3
:1047A00009F02EFC4FF47F60ADF8000048208DF832
:1047B000030003208DF802006946DFF8480A09F07B
:1047C0001FFC43F20300ADF8000010208DF8030039
:1047D00003208DF802006946DFF8400B09F010FC59
:1047E0004FF44340ADF8000048208DF8030003204B
:1047F0008DF802006946DFF8240B09F001FC4FF444
:104800004050ADF8000010208DF8030003208DF813
:1048100002006946DFF84C0909F0F2FB4FF46040F2
:10482000ADF8000010208DF8030003208DF8020081
:104830006946DFF8D40909F0E3FB0320ADF8000076
:1048400048208DF8030003208DF802006946DFF848
:10485000A40509F0D5FB1820ADF8000010208DF854
:10486000030003208DF802006946DFF8F80809F01C
:10487000C7FB4FF4F050ADF8000010208DF8030096
:1048800003208DF802006946DFF87C0909F0B8FBC7
:104890000420ADF8000010208DF8030003208DF8EF
:1048A00002006946DFF8740A09F0AAFB4FF4407071
:1048B000ADF8000048208DF8030003208DF80200B9
:1048C0006946DFF8580A09F09BFB01BD2616002057
:1048D0001B160020461600204F1600201C16002034
:1048E000681500202E1500208C1400202A150020A9
:1048F000601600205B16002080B548F6A040FBF74C
:104900002AFC002800D0FEE700215FF0FF30FBF713
:104910000FFC01BD80B54FF4E0600AF0D3FC0B2022
:104920008DF8000000208DF8010000208DF80200B5
:1049300001208DF8030068460AF0C9FC25208DF897
:10494000000000208DF8010001208DF802000120F8
:104950008DF8030068460AF0BAFC26208DF80000A6
:1049600000208DF8010002208DF8020001208DF852
:10497000030068460AF0ABFC27208DF800000020F9
:104980008DF8010003208DF8020001208DF803004E
:1049900068460AF09CFC34208DF8000000208DF859
:1049A000010004208DF8020001208DF80300684604
:1049B0000AF08DFC01BD80B5DFF8700B008800287F
:1049C00040F01581DFF8840A0088002806D0DFF85F
:1049D0007C0A0088401EDFF8741A0880DFF8700A2D
:1049E0000088002806D0DFF8680A0088401EDFF83B
:1049F000601A0880DFF85C0A0088002806D0DFF81B
:104A0000540A0088401EDFF84C1A0880DFF8480A74
:104A10000088002806D0DFF8400A0088401EDFF832
:104A2000381A0880DFF8080B0088002806D0DFF865
:104A3000000B0088401EDFF8F81A0880DFF8F40A3F
:104A40000088002806D0DFF8EC0A0088401EDFF856
:104A5000E41A0880DFF8E00A0078002806D0DFF8C2
:104A6000D80A0078401EDFF8D01A0870DFF8CC0AA8
:104A70000078002806D0DFF8C40A0078401EDFF86E
:104A8000BC1A0870DFF8B80A0078002823D0DFF8D5
:104A9000B40A0068401CDFF8AC1A0860DFF8A40A0A
:104AA000006848F6A041B0FBF1F080B2402808DB76
:104AB000DFF8940A007850F0FC00DFF88C1A0870D8
:104AC00009E0DFF8841A097811F0030151EA800146
:104AD000DFF8740A01706C480078002806D04FF4A3
:104AE0000041DFF8240709F0FBFA05E04FF400412C
:104AF000DFF8140709F0F1FADFF8500A006890F4C3
:104B00008040DFF8481A0860DFF8400A006890F437
:104B10000050DFF8381A0860DFF8340A00880028EF
:104B200040D1DFF8300A0078002806D0DFF8C4044E
:104B30000068401CDFF8BC140860DFF81C0A00782D
:104B4000002806D0DFF8B0040068401CDFF8A81485
:104B500008603A480078002806D0DFF8A004006812
:104B6000401CDFF898140860DFF8F009007800288E
:104B700006D0DFF88C040068401CDFF8841408605D
:104B8000DFF8DC090078002806D0DFF86C06006842
:104B9000401CDFF8641608604FF41670DFF8B01997
:104BA000088006E0DFF8A8090088401EDFF8A01999
:104BB0000880DFF8B0090078002814D0DFF8A409D5
:104BC0000078401EDFF89C190870DFF8980900781B
:104BD000002804D001208549896C884703E0002023
:104BE0008249896C88476420DFF84019088001BD3C
:104BF00080B51F20DFF8701908704FF40041DFF80E
:104C00006C0909F06DFA01BD80B54FF40041DFF881
:104C10005C0909F062FA01BD80B54FF40051DFF87C
:104C20004C0909F05DFA01BD80B54FF40051DFF881
:104C30003C0909F052FA01BD000000004F160020A7
:104C400080B54FF480416B4809F03CFA00280DD044
:104C5000DFF81C0901680122DFF80C0990F9000057
:104C600082401143DFF8080901600CE0DFF8000919
:104C700001680122DFF8F00890F9000082409143BA
:104C8000DFF8EC08016001BD1E1600202016002090
:104C90003716002080B56F480078002840F07F80EC
:104CA000DFF8D0080078002802D1FFF7A1FF1CE050
:104CB000DFF8C0080178032291FBF2F002FB10102C
:104CC000C0B2002808D0022803D00ED2FFF7ACFFF4
:104CD0000BE0FFF7B5FF08E0FFF79EFFDFF888085D
:104CE0000078401EDFF880180870DFF87C0890F923
:104CF000000000284CD5FFF787FF0020DFF874186C
:104D00000870DFF86C080068DFF86C180860DFF8DE
:104D100068080068800CDFF864180880DFF85C0819
:104D2000B0F90000042190FBF1F0DFF85018088082
:104D3000DFF848080088DFF84818DFF848281278BC
:104D400021F81200DFF83C080078401CDFF8341826
:104D50000870DFF8300800780A2803DB0020DFF84D
:104D6000241808700021002205E0DFF8140830F84C
:104D700012004118521C0A2AF7DB89B20A2091FB63
:104D8000F0F0DFF80418088064203249087006E06B
:104D9000DFF8E0070078401CDFF8D817087001BD85
:104DA0007815002080B51F20DFF8E01708704FF459
:104DB0008051DFF8B80709F093F901BD80B54FF4D1
:104DC0008051DFF8A80709F088F901BD80B54FF4DC
:104DD0008061DFF8980709F083F901BD80B54FF4D1
:104DE0008061DFF8880709F078F901BD80100020A4
:104DF000CA1500200020014080B54FF40061DFF8A3
:104E00006C0709F05FF900280DD0DFF8840701680E
:104E10000122DFF8780790F9000082401143DFF8A3
:104E2000700701600CE0DFF8680701680122DFF815
:104E30005C0790F9000082409143DFF8540701605D
:104E400001BD0000841600208B1600209216002061
:104E500099160020EE150020F2150020F61500200E
:104E6000FA15002068140020CC150020CF15002072
:104E7000D2150020D5150020D815002080B5DFF808
:104E800014070078002840F08080DFF83C0D00789F
:104E9000002802D1FFF786FF1CE0DFF82C0D017817
:104EA000032291FBF2F002FB1010C0B2002808D0E0
:104EB000022803D00ED2FFF791FF0BE0FFF79CFF13
:104EC00008E0FFF783FFDFF8C4060078401EDFF834
:104ED000BC160870DFF8B40690F9000000284DD524
:104EE000FFF76CFF0020DFF8E01C0870DFF8A00679
:104EF0000068DFF8A4160860DFF89C060068800CE4
:104F0000DFF898160880DFF89406B0F90000042155
:104F100090FBF1F0DFF884160880DFF88006008847
:104F2000DFF87C16DFF87C26127821F81200DFF813
:104F300074060078401CDFF86C160870DFF8640611
:104F400000780A2803DB0020DFF8581608700021DB
:104F5000002205E0DFF8480630F812004118521C24
:104F60000A2AF7DB89B20A2091FBF0F0DFF8381645
:104F700008806420DFF81C16087006E0DFF8480C93
:104F80000078401CDFF8401C087001BDDB150020D4
:104F9000DE150020E115002080B51F20DFF80C167B
:104FA00008704FF40071DFF8C40509F099F801BDED
:104FB000E315002080B54FF40071DFF8B00509F06B
:104FC0008CF801BDE5150020E715002080B5802193
:104FD000DFF8980509F084F801BD0000EA1500200B
:104FE00080B58021DFF8840509F077F801BD000065
:104FF00027160020001500200415002008150020A9
:105000000C15002080B54FF48071DFF8600509F0C1
:1050100059F800280DD0DFF8B40B01680122DFF841
:105020008C0590F9000082401143DFF8A00B01606D
:105030000CE0DFF8980B01680122DFF8700590F9A9
:10504000000082409143DFF8840B016001BD80B510
:10505000DFF85C050078002840F08280DFF8480D1A
:105060000078002802D1FFF797FF1CE0DFF8380D29
:105070000178032291FBF2F002FB1010C0B200286D
:1050800008D0022803D00ED2FFF7AAFF0BE0FFF7EB
:10509000B9FF08E0FFF79AFFDFF810050078401E1F
:1050A000DFF808150870DFF8040590F90000002803
:1050B0004FD5FFF77FFF0020DFF8EC1C0870DFF80A
:1050C0000C0B0068DFF8081B0860DFF8040B0068B1
:1050D000800CDFF8001B0880DFF8F80AB0F9000048
:1050E000042190FBF1F0DFF8EC1A0880DFF8E40A05
:1050F000B0F90000401DDFF8E01ADFF8E02A12786E
:1051000021F81200DFF8D40A0078401CDFF8CC1A2E
:105110000870DFF8C80A00780A2803DB0020DFF8EF
:10512000BC1A08700021002205E0DFF8AC0A30F854
:1051300012004118521C0A2AF7DB89B20A2091FB9F
:10514000F0F0DFF89C1A08806420DFF8641408701F
:1051500006E0DFF8540C0078401CDFF84C1C0870A7
:1051600001BD00000010014080B51F20DFF8741A57
:1051700008704021DFF8F40308F0B2FF01BD80B5EC
:105180004021DFF8E80308F0A8FF01BD80B5102139
:10519000DFF8D80308F0A4FF01BD000000080140BB
:1051A00080B51021DFF8C40308F097FF01BD80B57A
:1051B0002021DFF8B80308F085FF00280DD0DFF8C4
:1051C0008C0B01680122DFF81C0A90F90000824074
:1051D0001143DFF8780B01600CE0DFF8700B016819
:1051E0000122DFF8000A90F9000082409143DFF8C5
:1051F0005C0B016001BD0000101500206E00002056
:105200000018014000140140001C014080B5DFF887
:10521000F40A0078002840F08080DFF8F00C007875
:10522000002802D1FFF7A0FF1CE0DFF8E00C0178B6
:10523000032291FBF2F002FB1010C0B2002808D04C
:10524000022803D00ED2FFF7ABFF0BE0FFF7AFFF52
:1052500008E0FFF79BFFDFF88C090078401EDFF8BD
:1052600084190870DFF87C0990F9000000284DD5FA
:10527000FFF785FF0020DFF8941C0870DFF8CC0AE8
:105280000068DFF8CC1A0860DFF8C40A0068800CF8
:10529000DFF8C01A0880DFF8BC0AB0F9000004216A
:1052A00090FBF1F0DFF8AC1A0880DFF8A80A00885C
:1052B000DFF8A41ADFF8A42A127821F81200DFF828
:1052C0009C0A0078401CDFF8941A0870DFF88C0AFA
:1052D00000780A2803DB0020DFF8801A087000211C
:1052E000002205E0DFF8700A30F812004118521C65
:1052F0000A2AF7DB89B20A2091FBF0F0DFF8A41A42
:1053000008806420DFF8FC19087006E0DFF8FC0B69
:105310000078401CDFF8F41B087001BD000C014050
:10532000704700B591B02320ADF8000003208DF840
:10533000020000208DF803006946DFF8700A08F0CB
:105340005FFE0121012009F077FE4FF4004009F0D3
:105350000CFE01214FF4007009F07EFEDFF8500AC8
:1053600009F0F2FFDFF84C0A0690DFF84C0A0790CC
:10537000002008900320099000200A9080200B90C4
:105380004FF400700C904FF400600D9020200E90B0
:105390004FF400500F900020109006A9DFF8100A7B
:1053A0000AF056F80121DFF8080A0AF06FF8002029
:1053B000019001208DF8080001208DF809005FF4AC
:1053C000602003900020049003208DF8140001A9B0
:1053D000DFF8180C0AF0A2F8052301220A21DFF8F1
:1053E0000C0C0AF005F9052302220B21DFF8FC0B57
:1053F0000AF0FEF8052303220F21DFF8F00B0AF074
:10540000F7F80121DFF8E40B0AF0BAF80121DFF820
:10541000DC0B0AF0A8F8DFF8D40B0AF0BEF8DFF8CE
:10542000CC0B0AF0BFF80028F9D1DFF8C00B0AF066
:10543000C3F8DFF8B80B0AF0C4F80028F9D101214D
:10544000DFF8A80B0AF0C7F811B000BD98150020CE
:105450009A1500209C1500208415002000B587B007
:10546000DFF8FC19B1FBF0F0DFF8F8190860002054
:10547000ADF816000020ADF81200DFF8E80900686A
:10548000401EADF814000020ADF8100000208DF88B
:10549000180004A9DFF8400C0AF014F96020ADF8F8
:1054A00000000020ADF80C000020ADF8080000203E
:1054B000ADF80E000020ADF80A000120ADF80200A2
:1054C0000020ADF804000020ADF806006946DFF8C2
:1054D000080C0AF012F96946DFF8FC0B0AF046F9ED
:1054E0006946DFF8F40B0AF081F90021DFF8E80BD8
:1054F0000AF0EDF90021DFF8E00B0AF0F1F90021E4
:10550000DFF8D40B0AF0F5F90021DFF8CC0B0AF034
:10551000D0F90121DFF8C00B0AF0ACF90121DFF866
:10552000B80B0AF0B5F907B000BD00002015002047
:1055300086150020881500205416002057160020DC
:1055400046160020F8140020451600200C1C0140CF
:10555000221500204D1600204E1600205016002067
:105560005116002070160020EC150020002001408C
:10557000A8140020ED150020A414002030150020F0
:1055800018140020EF15002032150020F01500201F
:10559000B0140020F2150020AC14002034150020B7
:1055A0002C140020F315002036150020F4150020DF
:1055B000F615002080B5DFF8100C0088002840F0B8
:1055C00001831021DFF8280A08F07CFD002822D191
:1055D000DFF83C09007800282DD0DFF83809007882
:1055E000152810DB0120DFF830190870DFF8040AF5
:1055F000007850F00100DFF8FC1908700020DFF897
:105600001019087017E0DFF80C090078401CDFF86B
:10561000041908700FE0DFF8DC09007810F0FE00D4
:10562000DFF8D01908700020DFF8E81808700120B2
:10563000DFF8DC1808702021DFF8B40908F042FD1B
:10564000002822D1DFF8B009007800282DD0DFF83B
:10565000AC090078152810DB0120DFF8A4190870C8
:10566000DFF89009007850F00200DFF88819087020
:105670000020DFF88419087017E0DFF8800900784F
:10568000401CDFF8781908700FE0DFF8680900782F
:1056900010F0FD00DFF85C1908700020DFF85C19DD
:1056A00008700120DFF8501908704021DFF8400928
:1056B00008F008FD002822D1DFF84809007800280A
:1056C0002DD0DFF844090078152810DB0120DFF821
:1056D0003C190870DFF81C09007850F00400DFF86E
:1056E000141908700020DFF81C19087017E0DFF8A3
:1056F00018090078401CDFF8101908700FE0DFF877
:10570000F408007810F0FB00DFF8E81808700020BB
:10571000DFF8F41808700120DFF8E818087080211D
:10572000DFF8CC0808F0CEFC002822D1DFF8AC0965
:10573000007800282DD0DFF8A8090078152810DBA4
:105740000120DFF8A0190870DFF8A808007850F0F1
:105750000800DFF8A01808700020DFF88019087032
:1057600017E0DFF87C090078401CDFF87419087036
:105770000FE0DFF88008007810F0F700DFF8741809
:1057800008700020DFF8581908700120DFF84C1964
:1057900008704FF48071DFF8580808F093FC002877
:1057A0001BD1DFF84409008840F22131884208DB30
:1057B000DFF84008007850F01000DFF83818087063
:1057C00006E0DFF824090088401CDFF81C19088077
:1057D0000020DFF8181908801AE0DFF810090088A7
:1057E00040F22131884208DBDFF80808007810F029
:1057F000EF00DFF80018087006E0DFF8F008008816
:10580000401CDFF8E81808800020DFF8DC1808806A
:105810004FF40071DFF8D80708F054FC002822D1BB
:10582000DFF8A809007800282DD0DFF8A409007857
:10583000152810DB0120DFF89C190870DFF8B40789
:10584000007850F02000DFF8AC1708700020DFF877
:105850007C19087017E0DFF878090078401CDFF841
:10586000701908700FE0DFF88C07007810F0DF0087
:10587000DFF8801708700020DFF854190870012045
:10588000DFF8481908704FF48061DFF8640708F00A
:1058900019FC002822D1DFF84009007800282DD01B
:1058A000DFF838090078152810DB0120DFF83019FF
:1058B0000870DFF84007007850F04000DFF8341738
:1058C00008700020DFF81019087017E0DFF80C09E5
:1058D0000078401CDFF8041908700FE0DFF81407A7
:1058E000007810F0BF00DFF80C1708700020DFF818
:1058F000EC1808700120DFF8E01808704FF4007110
:10590000DFF8880908F0DEFB002822D1DFF88009E3
:10591000007800282DD0DFF87C090078152810DBEE
:105920000120DFF874190870DFF8C806007850F01D
:105930008000DFF8C01608700020DFF854190870E6
:1059400017E0DFF850090078401CDFF848190870AC
:105950000FE0DFF8A006007810F07F00DFF8941663
:1059600008700020DFF82C1908700120DFF82019DA
:1059700008704FF48071DFF8140908F0A3FB0028C9
:1059800022D1DFF81809007800282DD0DFF810099F
:105990000078152810DB0120DFF808190870DFF8FF
:1059A0005406407850F00100DFF848164870002097
:1059B000DFF8E818087017E0DFF8E4080078401C0A
:1059C000DFF8DC1808700FE0DFF82806407810F0E8
:1059D000FE00DFF8201648700020DFF8C4180870B9
:1059E0000120DFF8B81808700221DFF8040608F07B
:1059F00069FB002822D1DFF8B008007800282DD0FC
:105A0000DFF8A8080078152810DB0120DFF8A018BF
:105A10000870DFF8E005407850F00200DFF8D41598
:105A200048700020DFF88018087017E0DFF87C0865
:105A30000078401CDFF8741808700FE0DFF8B40538
:105A4000407810F0FD00DFF8AC1548700020DFF85A
:105A50005C1808700120DFF8501808704FF480417E
:105A6000D24808F02FFB002822D1DFF84808007840
:105A700000282DD0DFF840080078152810DB012021
:105A8000DFF838180870DFF86C05407850F0040033
:105A9000DFF8601548700020DFF81818087017E06C
:105AA000DFF814080078401CDFF80C1808700FE0CD
:105AB000DFF84005407810F0FB00DFF8381548703B
:105AC0000020DFF8F41708700120DFF8E8170870ED
:105AD0004FF48041DFF8B40708F0F4FA002822D12F
