:020000040800F2
:10000000000400200D8B0008B9830008BB830008A2
:10001000BD830008BF830008C18300080000000002
:10002000000000000000000000000000C383000882
:10003000C583000800000000C7830008C9830008CA
:10004000CF620008CF620008CF620008D1830008A9
:10005000CF620008CF620008D3830008CF62000897
:10006000CF620008E7830008CF620008DD8800083F
:10007000CF620008CF620008CF620008CF6200089C
:10008000CF620008CF620008CF620008E983000851
:10009000EB830008CF620008CF620008ED83000800
:1000A000CF620008EF830008CF620008CF6200082B
:1000B000FD8300080B84000819840008CF62000843
:1000C000CF620008CF620008CF620008CF6200084C
:1000D000298400082B84000885850008758600089F
:1000E000C1880008D9880008CF620008CF620008E4
:1000F0001B840008CF620008CF620008CF620008AE
:10010000CF620008DB880008CF620008CF620008D9
:1001100063870008CF620008CF620008CF62000842
:10012000CF620008CF620008CF620008CF620008EB
:1001300040B2002805D40901DFF86C2A40B21154FE
:1001400008E00901DFF8E82C40B210F00F0010447D
:1001500000F8041C704780B5411EB1F1807F01D3C7
:10016000012011E0401EDFF8441A08600F215FF003
:10017000FF30FFF7DDFF0020DFF8341A08600720AA
:10018000DFF8B01C0860002002BD0020DFF8A81CCA
:100190000870DFF8200ADFF8F01BDFF89C2C1278DB
:1001A00041F82200DFF8900C0078401CDFF8881C32
:1001B0000870DFF8040ADFF8D01BDFF87C2C127817
:1001C00041F82200DFF8700C0078401CDFF8681C52
:1001D0000870DFF8E809DFF8B01BDFF85C2C127854
:1001E00041F82200DFF8500C0078401CDFF8481C72
:1001F0000870DFF8480BDFF8901BDFF83C2C127812
:1002000041F82200DFF8300C0078401CDFF8281C91
:100210000870DFF82C0BDFF8701BDFF81C2C12784D
:1002200041F82200DFF8100C0078401CDFF8081CB1
:100230000870DFF8380BDFF8501BDFF8FC2B127862
:1002400041F82200DFF8F00B0078401CDFF8E81BD3
:100250000870DFF8380BDFF8301BDFF8DC2B127882
:1002600041F82200DFF8D00B0078401CDFF8C81BF3
:100270000870DFF81C0BDFF8101BDFF8BC2B1278BE
:1002800041F82200DFF8B00B0078401CDFF8A81B13
:100290000870DFF81C0BDFF8F01ADFF89C2B1278DF
:1002A00041F82200DFF8900B0078401CDFF8881B33
:1002B0000870DFF8200BDFF8D01ADFF87C2B1278FB
:1002C00041F82200DFF8700B0078401CDFF8681B53
:1002D0000870DFF8180BDFF8B01ADFF85C2B127823
:1002E00041F82200DFF8500B0078401CDFF8481B73
:1002F0000870DFF8FC0ADFF8901ADFF83C2B127860
:1003000041F82200DFF8300B0078401CDFF8281B92
:100310000870DFF8040BDFF8701ADFF81C2B127876
:1003200041F82200DFF8100B0078401CDFF8081BB2
:100330000870DFF8080BDFF8501ADFF8FC2A127893
:1003400041F82200DFF8F00A0078401CDFF8E81AD4
:100350000870DFF8EC0ADFF8301ADFF8DC2A1278D0
:1003600041F82200DFF8D00A0078401CDFF8C81AF4
:100370000870DFF8D00ADFF8101ADFF8BC2A12780C
:1003800041F82200DFF8B00A0078401CDFF8A81A14
:100390000870DFF8B40ADFF8F019DFF89C2A127849
:1003A00041F82200DFF8900A0078401CDFF8881A34
:1003B0000870DFF8080BDFF8D019DFF87C2A127814
:1003C00041F82200DFF8700A0078401CDFF8681A54
:1003D0000870DFF8EC0ADFF8B019DFF85C2A127851
:1003E00041F82200DFF8500A0078401CDFF8481A74
:1003F0000870DFF8D00ADFF89019DFF83C2A12788D
:1004000041F82200DFF8300A0078401CDFF8281A93
:100410000870DFF8B40ADFF87019DFF81C2A1278C8
:1004200041F82200DFF8100A0078401CDFF8081AB3
:100430000870DFF8980ADFF85019DFF8FC29127805
:1004400041F82200DFF8F0090078401CDFF8E819D5
:100450000870DFF87C0ADFF83019DFF8DC29127841
:1004600041F82200DFF8D0090078401CDFF8C819F5
:100470000870DFF8600ADFF81019DFF8BC2912787D
:1004800041F82200DFF8B0090078401CDFF8A81915
:100490000870DFF8440ADFF8F018DFF89C291278BA
:1004A00041F82200DFF890090078401CDFF8881935
:1004B0000870DFF8280ADFF8D018DFF87C291278F6
:1004C00041F82200DFF870090078401CDFF8681955
:1004D0000870DFF80C0ADFF8B018DFF85C29127832
:1004E00041F82200DFF850090078401CDFF8481975
:1004F0000870DFF8F009DFF89018DFF83C2912786F
:1005000041F82200DFF830090078401CDFF8281994
:100510000870DFF8D409DFF87018DFF81C291278AA
:1005200041F82200DFF810090078401CDFF80819B4
:1005300008707047704780B5DFF8E00A007800283F
:100540000FD1DFF8DC0A007800280AD10121DFF89A
:10055000D40A05F0B6FE0221DFF8C80A05F0B1FEA4
:100560003DE0DFF8B80A007801280FD1DFF8B00AC3
:10057000007800280AD10121DFF8A80A05F0A4FEBE
:100580000221DFF8A00A05F09CFE28E0DFF88C0AC3
:10059000007800280FD1DFF8880A007801280AD1F6
:1005A0000121DFF8800A05F08CFE0221DFF8740AD1
:1005B00005F08AFE13E0DFF8640A007801280ED106
:1005C000DFF85C0A0078012809D10121DFF8540A1C
:1005D00005F077FE0221DFF84C0A05F072FE01BD3E
:1005E00080B5DFF8381A0870FFF7A5FF01BD80B5A8
:1005F000DFF82C1A0870FFF79EFF01BD80B50028B8
:1006000005D10421DFF81C0A05F05BFE04E004219B
:10061000DFF8100A05F058FE01BD80B5002805D1AD
:100620000821DFF8000A05F04CFE04E00821DFF89D
:10063000F40905F049FE01BD80B5002805D110215F
:10064000DFF8E00905F03DFE04E01021DFF8D409F1
:1006500005F03AFE01BD80B5DFF8CC09007800282E
:100660000FD1DFF8C809007800280AD12021DFF86F
:10067000B40905F026FE4021DFF8A80905F021FEA7
:100680003DE0DFF8A409007801280FD1DFF89C09CC
:10069000007800280AD12021DFF8880905F014FE2F
:1006A0004021DFF8800905F00CFE28E0DFF878092A
:1006B000007800280FD1DFF87409007801280AD1EA
:1006C0002021DFF8600905F0FCFD4021DFF8540926
:1006D00005F0FAFD13E0DFF85009007801280ED18B
:1006E000DFF848090078012809D12021DFF8340912
:1006F00005F0E7FD4021DFF82C0905F0E2FD01BD22
:1007000080B5DFF824190870FFF7A5FF01BD80B59B
:10071000DFF818190870FFF79EFF01BD80B5DFF8FC
:1007200010090078002810D1DFF8080900780028A7
:100730000BD14FF48071DFF8EC0805F0C2FD802189
:10074000DFF8E00805F0BDFD40E0DFF8E4080078E0
:10075000012810D1DFF8DC08007800280BD14FF415
:100760008071DFF8C00805F0AFFD8021DFF8B40824
:1007700005F0A7FD2AE0DFF8B8080078002810D1BE
:10078000DFF8B008007801280BD14FF48071DFF852
:10079000940805F096FD8021DFF8880805F094FDA7
:1007A00014E0DFF88C08007801280FD1DFF8840806
:1007B000007801280AD14FF48071DFF8680805F04D
:1007C00080FD8021DFF85C0805F07BFD01BD80B570
:1007D000DFF860180870FFF7A1FF01BD80B5DFF8F2
:1007E00050180870FFF79AFF01BD80B5002806D1A8
:1007F0004FF40071DFF82C0805F063FD05E04FF4BD
:100800000071DFF8200805F05FFD01BD80B500280C
:1008100006D14FF48061DFF80C0805F052FD05E0C9
:100820004FF48061DFF8FC0705F04EFD01BD80B597
:10083000002806D14FF40061DFF8E80705F041FD1C
:1008400005E04FF40061DFF8DC0705F03DFD01BD78
:1008500080B5002806D14FF48051DFF8C80705F0B5
:1008600030FD05E04FF48051DFF8B80705F02CFDAE
:1008700001BD80B5002806D14FF40051DFF8A40770
:1008800005F01FFD05E04FF40051DFF8980705F073
:100890001BFD01BD80B5002806D14FF48041DFF873
:1008A000840705F00EFD05E04FF48041DFF8740782
:1008B00005F00AFD01BD80B5002806D14FF40041C6
:1008C000DFF8600705F0FDFC05E04FF40041DFF8BC
:1008D000540705F0F9FC01BD80B5002806D14FF49E
:1008E0000041DFF8540705F0ECFC05E04FF400414F
:1008F000DFF8440705F0E8FC01BD80B5002805D10C
:100900000121DFF8380705F0DCFC04E00121DFF805
:100910002C0705F0D9FC01BD80B5002805D10221C6
:10092000DFF8180705F0CDFC04E00221DFF80C0722
:1009300005F0CAFC01BD80B500280DD10821DFF803
:10094000F80605F0BEFCDFF8B40C007810F0FE00ED
:10095000DFF8A81C08700CE00821DFF8DC0605F0C1
:10096000B3FCDFF8980C007850F00100DFF88C1C25
:10097000087001BD80B5002805D10421DFF8B80654
:1009800005F09FFC04E00421DFF8AC0605F09CFCB8
:1009900001BD80B500280ED14FF48051DFF8A006CC
:1009A00005F08FFCDFF8540C007810F0FD00DFF844
:1009B0004C1C08700DE04FF48051DFF8840605F000
:1009C00083FCDFF8380C007850F00200DFF82C1CB4
:1009D000087001BD80B5002806D14FF40051DFF842
:1009E000600605F06EFC05E04FF40051DFF850069C
:1009F00005F06AFC01BD80B500280ED14FF480518E
:100A0000DFF8380605F05DFCDFF8F00B007810F039
:100A1000FB00DFF8E81B08700DE04FF48051DFF8B1
:100A20001C0605F051FCDFF8D40B007850F00400F0
:100A3000DFF8C81B087001BD80B5002806D14FF44F
:100A40000051DFF8F80505F03CFC05E04FF40051DB
:100A5000DFF8E80505F038FC01BD80B5002806D1B7
:100A60004FF48041DFF8D00505F02BFC05E04FF492
:100A70008041DFF8C40505F027FC01BD80B50028E2
:100A800006D14FF40051DFF8B00505F01AFC05E07F
:100A90004FF40051DFF8A00505F016FC01BD80B54C
:100AA000002806D14FF48051DFF88C0505F009FCD1
:100AB00005E04FF48051DFF8800505F005FC01BD2D
:100AC00080B501F0DDF801F07EFE00F0FBFFDFF8FD
:100AD000143B002247F60101062002F0C3FB082167
:100AE000DFF8000B05F0CCFCDFF8143B002247F6E2
:100AF0000101062002F0B6FB0821DFF8040B05F027
:100B0000D6FC3021DFF80C0B05F07EFC0A2005F046
:100B1000B1FF3021A5A005F077FC082003F0F2FE1C
:100B200001F08DFA01F080FF02F096FA01F04AFE22
:100B300001F002FB01F0E4FB01F0C2FC01F0AEFDAC
:100B400002F062FC02F038FD03F0DCFC03F0DEFC96
:100B500003F0EEFC03F0C4FD03F008FE00F072FAAF
:100B600000F0C4F900F072F900F07AFD00F016FF11
:100B700000F0FDFC00F024F800F076FF03F03CFEEE
:100B800004F048F904F0AFFB04F0D4FB04F04AFC95
:100B900004F0B3FDDFF8800A007804F004FE04F0EE
:100BA0009BFE04F003FFBBE700E400E014E000E07C
:100BB00018E000E035050008E1050008EF05000831
:100BC00080B5DFF8580A0078002800F0B680DFF81A
:100BD000500A0078002833D1DFF8480A008800283E
:100BE0002BD1DFF8440A0088DFF8401A09888842D0
:100BF0000CD3DFF83C0A0078012840F09E8000F01A
:100C0000F3FC0020DFF8281A087096E0DFF81C0AD1
:100C10000088801EDFF8101A09888842C0F28D8093
:100C2000DFF80C0A0078002840F0878000F0EAFC2A
:100C30000120DFF8FC1908707FE000F0D5FC7CE0B3
:100C4000DFF8DC090078012877D1DFF8D8090088BF
:100C500000286ED1DFF8DC090078002805D00228D2
:100C600030D04FD303283FD067E0DFF8CC090068CD
:100C7000002813D1DFF8B0090088462804DA0320E1
:100C8000DFF8B01908701CE0DFF8B0090078002820
:100C900017D10220DFF89C19087012E0DFF88809EC
:100CA0000088DFF88819098888420AD3DFF88009AC
:100CB0000078012805D100F097FC0020DFF87019BA
:100CC00008703AE0DFF878090078002801D000F0D9
:100CD00083F800F097FC0120DFF854190870002019
:100CE000DFF85019087028E0DFF850090078002874
:100CF00001D000F079FC00F07DF80120DFF8341914
:100D000008701AE0DFF820090088462810DB00F0A0
:100D100063F800F077FC0120DFF814190870DFF8A1
:100D20002409DFF8141908600020DFF8081908709A
:100D300003E000F059FC00F04FF801BDFD0500088C
:100D40001B060008DFF8D81808700120DFF8CC185F
:100D500008700020DFF8CC1808800020DFF8D418D5
:100D600008700020DFF8D0180860704739060008C6
:100D700080B50020DFF8A41808700020DFF8101CF0
:100D80004969884701BD00002010002001070008C4
:100D90000F070008DFF8B01808700020DFF8AC1863
:100DA00008700120DFF8A81808707047456E6400CD
:100DB000CF07000880B50020DFF88C1808700020ED
:100DC000DFF88C1808700020DFF8C41B0969884719
:100DD00001BD0000DD0700080120DFF87818087069
:100DE0000020DFF8B01B087070470000EB07000818
:100DF0000D08000880B50120DFF8441808700020B5
:100E0000DFF854180870DFF834080078002801D0A3
:100E100000F0EAFB01BD00002F0800080120DFF808
:100E20003C1808700020DFF87C1C08707047000038
:100E300018ED00E010E000E0B413002051080008B5
:100E40007308000895080008B708000880B5DFF8A7
:100E50000C08007800282FD0DFF8C8070088002889
:100E600028D1DFF8C4070088DFF8C0170988884256
:100E70000BD3DFF8300C007801281DD1FFF7ACFF51
:100E80000020DFF8201C087016E0DFF8A0070088BB
:100E9000801EDFF89417098888420DDBDFF8040C08
:100EA0000078002808D1FFF7A5FF0120DFF8F41B28
:100EB000087001E0FFF790FF01BD0000D9080008AD
:100EC000FB0800081909000837090008750900081F
:100ED00093090008D5090008F7090008390A000835
:100EE0005B0A00087D0A00089F0A000880B5DFF849
:100EF00064070078002800F08F80DFF8980A0078F7
:100F0000002802D001286BD086E00020DFF83017DF
:100F10000870DFF8840A0078C0F3C000C0B200286F
:100F200005D00020DFF8681A096C884730E00020FF
:100F3000DFF85C1A496D88470020DFF8541A096D04
:100F400088470120DFF8481A896E88470020DFF8BB
:100F5000401AC96D88470020DFF8341A896D884728
:100F60000120DFF82C1AC96E8847DFF8F40A807870
:100F700002F0EBF8DFF8E80A407902F0FCF8DFF85D
:100F8000E00A017A4FF47A704143DFF8D80A018011
:100F9000DFF8B406007800281DD0DFF8B40600782A
:100FA00000280AD000F02EFB0020DFF8A016087001
:100FB0000020DFF89C1608700DE0DFF88C06007842
:100FC000DFF888160978884205D300F01BFB002063
:100FD000DFF8781608700120DFF8B81908701BE0F8
:100FE000DFF8800A0088002816D10020DFF8A01959
:100FF000896E88470020DFF89819C96E884730212C
:10100000DFF8A40A05F000FA0020DFF8881908705C
:101010000020DFF84016087001BD0000AE1300206C
:10102000AF13002000180140B0130020B1130020BE
:10103000B2130020B313002000140140000C014043
:101040000010014080B5DFF8F8050078002800F0B6
:101050008D82DFF80406007800281CD0022847D0D3
:1010600038D3042800F00581C0F07F80062800F006
:101070005E81C0F02181082800F08781C0F0D28114
:101080000A2800F04C82C0F037820C2800F06B82F6
:10109000C0F068826AE2DFF800090078C0F3C0009F
:1010A000C0B2002809D00120DFF8E418096C884795
:1010B0000A20DFF8A41508700BE0DFF8400500787F
:1010C00010F0F700DFF8341508700120DFF88815FC
:1010D00008704BE24FF4FA70DFF8D0190880022054
:1010E000DFF8741508700220DFF8C41908703DE2BB
:1010F000DFF8B8090088002840F038820020DFF8C7
:101100009018496D88470020DFF88418096D8847DA
:101110000020DFF87C18C96D88470020DFF87018C0
:10112000896D88470120DFF86818896E884701209B
:10113000DFF85C18C96E88473021DFF8780905F0C0
:1011400063F9DFF81C09007801F0FFFFDFF81009F0
:10115000C07802F010F840F6B830DFF85019088077
:101160000320DFF8F414087000E2DFF8400900887B
:10117000002840F0FB813021DFF83C0905F044F9FC
:10118000DFF81408007810F00300012827D1DFF8F9
:101190002C094078C0F34000C0B200280CD0DFF822
:1011A0008404007850F04000DFF8781408700C20B8
:1011B000DFF8A41408705BE00120DFF8D417496D54
:1011C0008847DFF89C0881794FF47A704143DFF853
:1011D000DC0801800420DFF88014087048E0DFF8A4
:1011E000B807007810F00300032841D1DFF8CC08DD
:1011F000407810F0060F24D0DFF8C0084078C0F324
:101200004000C0B2002807D0DFF81804007850F082
:101210004000DFF810140870DFF8A0084078C0F331
:101220008000C0B2002807D0DFF8F803007850F043
:101230008000DFF8F01308700C20DFF81C14087031
:1012400016E00120DFF84817496D88470120DFF8D4
:101250004017C96D8847DFF8080881794FF47A7024
:101260004143DFF8480801800420DFF8EC130870E0
:101270007CE1DFF838080088002840F07781012001
:10128000DFF80C17096D88470120DFF80417896D16
:1012900088473021DFF8E40905F0B6F8DFF8C00729
:1012A000C1794FF47A704143DFF8000801800520CE
:1012B000DFF8A413087059E1DFF8F0070088002870
:1012C00030D0DFF8D406007810F00300012811D1E7
:1012D000DFF8E8074078C0F34000C0B2002825D00E
:1012E0000620DFF8741308704FF47A70DFF8BC172B
:1012F00008801BE0DFF8A006007810F00300032848
:1013000014D1DFF8B807407810F0060006280DD198
:101310000620DFF8441308704FF47A70DFF88C175A
:10132000088003E00820DFF8301308701EE1DFF8C2
:101330007C070088002824D0DFF85C06007810F0D5
:10134000030001280BD1DFF874074078C0F3400098
:10135000C0B2002818D10820BF49087014E0DFF897
:101360003806007810F0030003280DD1DFF84C0791
:10137000407810F00600062806D00820B64908700C
:1013800002E00920B4490870F0E0DFF82407007893
:1013900000280AD0DFF818070078401EDFF8101781
:1013A00008700220AC4908703BE0DFF8EC050078DB
:1013B00010F0030001280ED1DFF800074078C0F3D9
:1013C0004000C0B2002829D19648407850F0020071
:1013D0009449487022E0DFF8C005007810F003005F
:1013E00003281BD1DFF8D4064078C0F34000C0B218
:1013F000002805D18B48407850F002008949487098
:10140000DFF8B8064078C0F38000C0B2002805D1EC
:101410008448407850F004008249487007208E4983
:101420000870A3E00020DFF86815496D88470020A8
:10143000DFF85C15096D88470020DFF85415C96D89
:1014400088470020DFF84815896D88473021DFF88C
:10145000240904F0D9FFFFF7BFFCDFF83C05007852
:1014600010F00300012814D164480078C0F3C000D4
:10147000C0B2002806D06B48007850F008006949D7
:10148000087035E06748007850F001006549087041
:101490002EE0DFF80405007810F00300032827D1C0
:1014A00056480078C0F3C000C0B2002806D05D489E
:1014B000007850F008005B49087005E05948007852
:1014C00050F00100574908704C480078C0F30010F4
:1014D000C0B2002806D05348007850F0100051499F
:1014E000087005E04F48007850F002004D49087040
:1014F0000C205949087039E0DFF86405407801F0A4
:1015000024FEDFF85C05007901F035FE4FF4FA6047
:10151000DFF8981508800A204F49087026E0DFF8A8
:101520008C050088002821D10020DFF86414496D63
:1015300088470020DFF85814C96D88473021DFF84C
:101540003C0A04F061FF2D48007850F008002B4958
:1015500008700B20404908703C480078401C3B490B
:10156000087003E002E000203549087001BD80B535
:10157000DFF8140B0078002832D02A4800880028B1
:101580002CD1DFF8300BB0F90000DFF82C1BB1F9DB
:10159000001088420BDBDFF8040D007801281FD112
:1015A00000F022F80020DFF8F41C087018E0DFF8E3
:1015B000080BB0F90000801EDFF8F81AB1F900102E
:1015C00088420DDBDFF8D40C0078002808D100F049
:1015D00019F80120DFF8C41C087001E000F004F8DD
:1015E00001BD0000681100200120DFF8F01A08702A
:1015F0000020DFF8001D0870704700005A1300201B
:10160000D011002001200D4908700020DFF81C1BBC
:1016100008707047188B000819140020121400205D
:10162000131400205813002066130020821300209A
:10163000141400201514002044130020021400206C
:10164000FD130020E093040010140020111400206A
:101650001714002000140020FE130020071400209F
:1016600080B5DFF8CC0A0078002800F08F81DFF821
:10167000BC0A007800281BD0022858D049D304287F
:1016800000F0AC8079D3062800F0E080C0F0C38081
:10169000082800F0F180C0F005810A2800F042819E
:1016A000C0F031810C2800F06D81C0F059816DE1EE
:1016B000B9480078C0F38000C0B200280CD0DFF831
:1016C0000004007810F0DF00DFF8F4130870012048
:1016D000DFF8581A08701BE0AF480078C0F300101C
:1016E000C0B2002814D00120A949496C8847DFF80E
:1016F000D003007850F02000DFF8C41308704EF6D5
:101700006020DFF8841B08800B20DFF8201A0870A7
:101710003CE14FF4FA70DFF8301B08800220DFF85C
:101720000C1A08700220DFF80C1A08702EE1DFF89E
:10173000180B0088002840F0298100209449496E48
:10174000884700209249096E884701209049096F17
:1017500088473021DFF80C0B04F056FEDFF8400B11
:10176000007801F021FD40F6B830DFF8DC1A08807F
:101770000320DFF8B819087008E1DFF8CC0A008808
:10178000002840F0038101208149496E88473021BB
:10179000DFF8100B04F038FEDFF8040BC1784FF4CB
:1017A0007A704143DFF8A00A0180C4484078C0F352
:1017B000C000C0B200280CD0DFF8EC0A407850F02E
:1017C0000100DFF8E41A48700C20DFF86019087097
:1017D00003E00420DFF854190870D7E0DFF8680A46
:1017E0000088002840F0D28001206949096E8847AE
:1017F0003021DFF8040B04F007FEDFF8A40A0179BA
:101800004FF47A704143DFF8400A01800520DFF889
:101810001C190870BAE0DFF8300A0088002810D0E0
:10182000A6484078C0F3C000C0B200280DD0062002
:10183000DFF8F81808704FF47A70DFF80C1A088097
:1018400003E00820DFF8E41808709FE0DFF8F809EB
:10185000008800280BD099484078C0F3C000C0B27F
:10186000002808D10820DFF8C418087003E0092018
:10187000DFF8B818087089E0DFF8B80800780028A9
:101880000BD0DFF8B0080078401EDFF8A818087009
:101890000220DFF89818087003E00720DFF88C18A2
:1018A000087073E000203A49496E884700203849A3
:1018B000096E88473021DFF8440A04F0A5FDDFF8FF
:1018C0001C080078002801D1FFF78EFE7C480078C4
:1018D000C0F34010C0B2002808D0DFF8CC0900786F
:1018E00050F02000DFF8C019087007E0DFF8B809F1
:1018F000007850F00400DFF8B01908700C20DFF811
:101900002C18087042E0DFF89809407801F04CFC90
:101910004FF4FA60DFF8301908800A20DFF80C185D
:10192000087033E0DFF82009008800282ED100205D
:101930001749496E88473021DFF8080B04F064FD31
:101940005F48007850F020005D4908700B20DFF8F8
:10195000DC1708704EF66020DFF82C19088015E0BF
:10196000DFF8F40A007800280BD0DFF81C090088A3
:10197000002806D1FFF738FE3021DFF8280B04F0ED
:1019800043FD03E00020DFF8A817087001BD000048
:1019900020100020011400209213002080B5DFF8F1
:1019A0003C07007800285AD0DFF848090078002862
:1019B00002D001283CD052E00020DFF874170870F4
:1019C000DFF8E40A0078C0F38000C0B200281DD020
:1019D0000020DFF8D81A496E88470020DFF8CC1ABB
:1019E000096E88470120DFF8C41A096F8847DFF8BD
:1019F000B008807801F0D8FBDFF8A40841794FF4F3
:101A00007A704143DFF8A80A01800CE0DFF8980AF9
:101A10000078C0F30010C0B2002804D00020DFF826
:101A20008C1A496C88470120DFF8C818087016E046
:101A3000DFF87C0A0088002811D10020DFF86C1A3A
:101A4000096F88473021DFF86C0A04F0DDFC0020C4
:101A5000DFF8A01808700020DFF88016087001BDBC
:101A6000F01200208413002080B5DFF84C0A0078C3
:101A7000002815D0DFF8440A0078002810D00F485D
:101A8000007810F00100002805D10120DFF81C1AB1
:101A90004969884704E00020DFF8101A496988473F
:101AA00001BD000008140020D08A00088013002027
:101AB000FF130020DC8A0008808A000856130020EB
:101AC0005A13002010B5FEF760FB002406E000204A
:101AD000DFF8D81951F824108847641CDFF8300B60
:101AE00000788442F3DB4FF40051DFF8280B04F058
:101AF000EBFB4FF40041DFF81C0B04F0E2FB4FF46A
:101B00008061DFF8100B04F0DFFB4FF48051DFF849
:101B1000040B04F0D6FB8021DFF8F80A04F0D4FBB4
:101B20004FF40071DFF8EC0A04F0CBFB1021DFF872
:101B3000E40A04F0C9FB4021DFF8D80A04F0C1FB35
:101B400041F2883000F0DCFE0A2001F0FEFA142099
:101B500001F011FB1E2001F027FB0120DFF8001B24
:101B600008700120DFF8FC1A08700120DFF8F81A6D
:101B700008700120DFF8F41A08706420DFF8F01A0A
:101B800008706420DFF8EC1A08706420DFF8E81AA7
:101B900008706420DFF8E41A08701B20DFF8E01AF0
:101BA00008703420DFF8D81A48703420DFF8D01AD3
:101BB00088702620DFF8C81AC8704A20DFF8C01ADB
:101BC00008714A20DFF8B81A48710320DFF8B01A0C
:101BD00088710320DFF8A81AC8710520DFF8A01A61
:101BE00008722720DFF8B81608704820DFF8B01612
:101BF00048704820DFF8A81688700320DFF8A01688
:101C0000C8700320DFF8981608710520DFF89016D9
:101C100048710120DFF86C1A08700120DFF8681A9B
:101C200008700120DFF8641A08700120DFF8601ADC
:101C300008700120DFF85C1A08700120DFF8581ADC
:101C400008700120DFF8641B08700120DFF8601BBA
:101C500008700120DFF85C1B08700120DFF8581BBA
:101C600008700120DFF8541B08700120DFF8501BBA
:101C700008700120DFF8781C087010BD448A000845
:101C800080B504F083FF5FF4803004F0AFFF04F010
:101C9000D7FFDFF8601C0870DFF8580C00780128C7
:101CA00024D1002005F007F8002005F018F84FF4C3
:101CB000806005F00AF8102005F0FCF8022005F01D
:101CC000EDF85FF4E0115FF4803004F0D5FF0120FF
:101CD00004F0DEFF392005F0A3F80028FAD0022036
:101CE00004F0DAFF04F0E2FF0828FBD10121042010
:101CF00005F076F80121082005F072F80121102086
:101D000005F06EF80121202005F06AF8012140203D
:101D100005F066F80121802005F062F801214FF4FA
:101D2000807005F05DF801214FF4804005F058F80F
:101D300001215FF4003005F063F801215FF4802099
:101D400005F05EF801215FF4002005F059F801214B
:101D5000012005F035F801214FF4005005F040F85E
:101D600000F00AF804F0B4FA00F018F900F008F9ED
:101D700001BD0000E88A000880B54FF4E070ADF8BE
:101D8000000018208DF8030003208DF8020069463A
:101D9000DFF8640B04F028FA4BF2D060ADF80000D5
:101DA00010208DF8030003208DF802006946DFF84B
:101DB000640804F019FA44F62010ADF80000482039
:101DC0008DF8030003208DF802006946DFF844080F
:101DD00004F00AFA4FF40070ADF8000018208DF8F6
:101DE000030003208DF802006946DFF8100B04F0B1
:101DF000FBF94FF48060ADF8000004208DF803007B
:101E00006946DFF8F80A04F0EFF90420ADF80000A5
:101E100018208DF8030003208DF802006946DFF8D2
:101E2000DC0A04F0E1F90820ADF8000004208DF888
:101E300003006946DFF8C40A04F0D6F94FF4806065
:101E4000ADF8000018208DF8030003208DF8020083
:101E50006946DFF87C0B04F0C7F94FF40060ADF879
:101E6000000004208DF803006946DFF8640B04F0DD
:101E7000BBF94FF48060ADF8000018208DF8030026
:101E800003208DF802006946DFF86C0A04F0ACF913
:101E90004FF40060ADF8000004208DF8030069469F
:101EA000DFF8540A04F0A0F94FF6FF70ADF8000017
:101EB00010208DF8030003208DF802006946DFF83A
:101EC000140B04F091F94FF20C00ADF80000102053
:101ED0008DF8030003208DF802006946DFF8F80A48
:101EE00004F082F94FF47F60ADF8000048208DF8CF
:101EF000030003208DF802006946DFF8DC0A04F0D5
:101F000073F943F20300ADF8000010208DF80300D0
:101F100003208DF802006946DFF8B40A04F064F982
:101F20004FF44340ADF8000048208DF80300032033
:101F30008DF802006946DFF8980A04F055F94FF46D
:101F40004050ADF8000010208DF8030003208DF8FC
:101F500002006946DFF8A00904F046F94FF460403A
:101F6000ADF8000010208DF8030003208DF802006A
:101F70006946DFF8680A04F037F901BDF48A000801
:101F800080B548F6A040FEF7E6F8002800D0FEE74E
:101F900000215FF0FF30FEF7CBF801BD80B54FF4B4
:101FA000E06004F099FF0B208DF8000000208DF810
:101FB000010000208DF8020001208DF80300684622
:101FC00004F08FFF25208DF8000000208DF801001F
:101FD00001208DF8020001208DF80300684604F00E
:101FE00080FF26208DF8000000208DF801000220DF
:101FF0008DF8020001208DF80300684604F071FF9F
:1020000027208DF8000000208DF8010003208DF8B6
:10201000020001208DF80300684604F062FF3420BE
:102020008DF8000000208DF8010004208DF80200DA
:1020300001208DF80300684604F053FF01BDDFF86E
:10204000A009008800281CD1DFF89809006890F4E6
:102050000040DFF890190860DFF88809006890F404
:102060008040DFF880190860DFF87809006890F494
:102070000050DFF8701908604FF4FA70DFF860194B
:1020800008807047000000001D14002080B51F204C
:10209000DFF8541908704FF40041DFF8780504F0B8
:1020A00013F901BD80B54FF40041DFF8680504F075
:1020B00008F901BD721300209E13002080B54FF473
:1020C0000051DFF8500504F0FFF801BD80B54FF472
:1020D0000051DFF8400504F0F4F801BD05140020BC
:1020E00080B54FF48041DFF82C0504F0DFF80028BC
:1020F0000DD0DFF8F80801680122DFF8EC0890F94C
:10210000000082401143DFF8E40801600CE0DFF8D2
:10211000DC0801680122DFF8D00890F90000824055
:102120009143DFF8C808016001BD000003140020DE
:10213000021400200414002080B5DFF83405007874
:10214000002840F08080DFF8A8080078002802D13D
:10215000FFF79CFF1CE0DFF898080178032291FB51
:10216000F2F002FB1010C0B2002808D0022803D001
:102170000ED2FFF7ABFF0BE0FFF7B2FF08E0FFF76F
:102180009DFFDFF864080078401EDFF85C180870D7
:10219000DFF8540890F9000000284DD5FFF782FFC2
:1021A0000020DFF84C180870DFF840080068DFF8FE
:1021B00044180860DFF83C080068800CDFF8381825
:1021C0000880DFF83408B0F90000042190FBF1F03A
:1021D000DFF824180880DFF820080088DFF81C18D2
:1021E000DFF81C28127821F81200DFF814080078B4
:1021F000401CDFF80C180870DFF8040800780A2883
:1022000003DB0020DFF8F81708700021002205E04A
:10221000DFF8E80730F812004118521C0A2AF7DBF1
:1022200089B20A2091FBF0F0DFF8D817088064200B
:10223000DFF83C14087006E0DFF8B4070078401CB3
:10224000DFF8AC17087001BD8613002080B51F2091
:10225000DFF8B41708704FF48051DFF8B80304F0CA
:1022600033F801BD588A000880B54FF48051DFF87B
:10227000A40304F026F801BD80B54FF48061DFF8B7
:10228000940304F021F801BD9013002080B54FF4B1
:102290008061DFF8800304F014F801BD1E140020F3
:1022A00004130020908A00085813002080B54FF4D2
:1022B0000061D84803F0FAFF00280DD0DFF84C0782
:1022C00001680122DFF8400790F9000082401143C5
:1022D000DFF8380701600CE0DFF830070168012201
:1022E000DFF8240790F9000082409143DFF81C07D3
:1022F000016001BD06140020A08A0008B08A000811
:1023000080B5DC480078002840F07F80DFF8240D9D
:102310000078002802D1FFF799FF1CE0DFF8140DC8
:102320000178032291FBF2F002FB1010C0B20028EA
:1023300008D0022803D00ED2FFF7A8FF0BE0FFF76A
:10234000B5FF08E0FFF798FFDFF8BC060078401EF5
:10235000DFF8B4160870DFF8B00690F90000002826
:102360004CD5FFF781FF0020DFF8C81C0870DFF8AC
:102370009C060068DFF898160860DFF8940600688D
:10238000800CDFF890160880DFF88806B0F90000AE
:10239000042190FBF1F0DFF87C160880DFF874066A
:1023A0000088DFF87416DFF87426127821F812001E
:1023B000DFF868060078401CDFF860160870DFF868
:1023C0005C0600780A2803DB0020DFF8501608704E
:1023D0000021002205E0DFF8400630F81200411825
:1023E000521C0A2AF7DB89B20A2091FBF0F0DFF8D1
:1023F0003016088064209F49087006E0DFF8340C2E
:102400000078401CDFF82C1C087001BD80B51F202F
:10241000DFF8101608704FF40071DFF81C0C03F0A1
:1024200053FF01BD80B54FF40071DFF80C0C03F0D1
:1024300048FF01BD80B58021DFF8FC0B03F044FFAD
:1024400001BD00006C8A000880B58021DFF8E80B30
:1024500003F037FF01BD00001014002080B54FF4D9
:1024600080716C4803F022FF00280DD0DFF8CC0B00
:1024700001680122DFF8AC0590F9000082401143A9
:10248000DFF8B80B01600CE0DFF8B00B0168012247
:10249000DFF8900590F9000082409143DFF89C0B33
:1024A000016001BD008B0008921300202010002065
:1024B00088130020C08A00080B1400201814002084
:1024C00080B56D480078002840F08180DFF80C0D61
:1024D0000078002802D1FFF799FF1CE0DFF8FC0C20
:1024E0000178032291FBF2F002FB1010C0B2002829
:1024F00008D0022803D00ED2FFF7A6FF0BE0FFF7AB
:10250000ADFF08E0FFF796FFDFF818050078401EE2
:10251000DFF810150870DFF80C0590F900000028AE
:102520004ED5FFF77FFF0020DFF8B01C0870DFF802
:102530000C0B0068DFF8081B0860DFF8040B00686C
:10254000800CDFF8001B0880DFF8F80AB0F9000003
:10255000042190FBF1F0DFF8EC1A0880DFF8E40AC0
:10256000B0F90000401DDFF8E01ADFF8E02A127829
:1025700021F81200DFF8D40A0078401CDFF8CC1AEA
:102580000870DFF8C80A00780A2803DB0020DFF8AB
:10259000BC1A08700021002205E0DFF8AC0A30F810
:1025A00012004118521C0A2AF7DB89B20A2091FB5B
:1025B000F0F0DFF89C1A088064202F49087006E0CC
:1025C000DFF8180C0078401CDFF8101C087001BD03
:1025D00080B51F20DFF87C1A08704021DFF8580A08
:1025E00003F072FE01BD80B54021DFF84C0A03F014
:1025F00068FE01BD80B51021DFF83C0A03F064FEDF
:1026000001BD80B51021DFF8300A03F05AFE01BD8C
:10261000B41300200020014080B52021DFF8180A03
:1026200003F044FE00280DD0DFF8A80B016801225A
:10263000DFF8200A90F9000082401143DFF8940B84
:1026400001600CE0DFF88C0B01680122DFF8040A5E
:1026500090F9000082409143DFF8780B016001BDE2
:10266000261400202D140020341400203B140020D8
:10267000E1130020E5130020E9130020ED130020F2
:10268000F0120020B9130020BC130020BF1300205B
:10269000C5130020C2130020C813002080B5DFF846
:1026A000040B0078002840F08080DFF86C0C007884
:1026B000002802D1FFF78CFF1CE0DFF85C0C0178EA
:1026C000032291FBF2F002FB1010C0B2002808D0E8
:1026D000022803D00ED2FFF794FF0BE0FFF79CFF18
:1026E00008E0FFF787FFDFF86C090078401EDFF88D
:1026F00064190870DFF85C0990F9000000284DD5D6
:10270000FFF771FF0020DFF8101C0870DFF8C40A23
:102710000068DFF8C41A0860DFF8BC0A0068800CA3
:10272000DFF8BC1A0880DFF8B80AB0F9000004210D
:1027300090FBF1F0DFF8A81A0880DFF8A40A0088FF
:10274000DFF8A01ADFF8A02A127821F81200DFF8CB
:10275000980A0078401CDFF8901A0870DFF8880AA1
:1027600000780A2803DB0020DFF87C1A08700021BB
:10277000002205E0DFF86C0A30F812004118521C04
:102780000A2AF7DB89B20A2091FBF0F0DFF8901AF1
:1027900008806420DFF80C1A087006E0DFF8780B78
:1027A0000078401CDFF8701B087001BDCB130020BF
:1027B000CE130020D1130020D4130020D713002003
:1027C000DA130020704700B591B00720ADF8000083
:1027D00003208DF8020000208DF80300694646486A
:1027E00003F002FD0121012004F0EAFA4FF4004059
:1027F00004F07FFA01214FF4007004F0F1FADFF8E1
:10280000580A04F0ABFBDFF8540A0690DFF8500AD0
:102810000790002008900320099000200A90802053
:102820000B904FF400700C904FF400600D9020203E
:102830000E904FF400500F900020109006A9DFF882
:10284000180A04F00FFC0121DFF80C0A04F028FC40
:102850000020019001208DF8080001208DF809006A
:102860005FF4602003900020049003208DF8140092
:1028700001A9DFF8780B04F05BFC052301220A2193
:10288000DFF8680B04F0BEFC052302220B21DFF801
:102890005C0B04F0B7FC052303220C21DFF84C0B82
:1028A00004F0B0FC0121DFF8440B04F073FC0121BB
:1028B000DFF8380B04F061FCDFF8300B04F077FC34
:1028C000DFF8280B04F078FC0028F9D1DFF81C0BA6
:1028D00004F07CFCDFF8140B04F07DFC0028F9D137
:1028E0000121DFF8080B04F080FC11B000BD0000EE
:1028F000DD1300201A0000200010014000080140F4
:1029000000B587B0DFF8141AB1FBF0F0DFF8101A49
:1029100008600020ADF816000020ADF81200DFF8C6
:10292000000A0068401EADF814000020ADF8100049
:1029300000208DF8180004A9DFF86C0B04F0CCFC23
:102940006020ADF800000020ADF80C000020ADF8CC
:1029500008000020ADF80E000020ADF80A000120AC
:10296000ADF802000020ADF804000020ADF806002C
:102970006946DFF8340B04F0CAFC6946DFF8280B1F
:1029800004F0FEFC6946DFF8200B04F039FD00215D
:10299000DFF8140B04F0A5FD0021DFF80C0B04F0A8
:1029A000A9FD0021DFF8000B04F0ADFD0021DFF8E8
:1029B000F80A04F088FD0121DFF8EC0A04F064FD58
:1029C0000121DFF8E40A04F06DFD07B000BD00004E
:1029D000000C01400018014000140140001C01409F
:1029E000541300200C1C0140DF130020181300209A
:1029F000E0130020141300205C1300209412002028
:102A0000E21300205E130020E313002020130020B7
:102A10001C13002060130020A8120020E6130020E1
:102A200062130020E713002080B5DFF8800A0078E9
:102A3000002840F0FE821021DFF8740A03F036FC13
:102A4000002822D1DFF8A809007800282DD0DFF86F
:102A5000A4090078152810DB0120DFF89C19087004
:102A6000DFF8500A007850F00100DFF8481A0870CB
:102A70000020DFF87C19087017E0DFF8780900788B
:102A8000401CDFF8701908700FE0DFF8280A0078A2
:102A900010F0FE00DFF81C1A08700020DFF854194F
:102AA00008700120DFF8481908702021DFF8000ABB
:102AB00003F0FCFB002822D1DFF840090078002851
:102AC0002DD0DFF83C090078152810DB0120DFF855
:102AD00034190870DFF8DC09007850F00200DFF8E4
:102AE000D41908700020DFF81419087017E0DFF817
:102AF00010090078401CDFF8081908700FE0DFF8B3
:102B0000B409007810F0FD00DFF8A8190870002063
:102B1000DFF8EC1808700120DFF8E0180870402199
:102B2000DFF88C0903F0C2FB002822D1DFF8880906
:102B3000007800282DD0DFF884090078152810DBF4
:102B40000120DFF87C190870DFF86809007850F080
:102B50000400DFF8601908700020DFF85C190870C5
:102B600017E0DFF858090078401CDFF850190870AA
:102B70000FE0DFF84009007810F0FB00DFF83419AF
:102B800008700020DFF8341908700120DFF82819D8
:102B900008708021DFF8180903F088FB002822D193
:102BA000DFF82009007800282DD0DFF81C09007814
:102BB000152810DB0120DFF814190870DFF8F4087D
:102BC000007850F00800DFF8EC1808700020DFF8FB
:102BD000F418087017E0DFF8F0080078401CDFF800
:102BE000E81808700FE0DFF8CC08007810F0F70064
:102BF000DFF8C01808700020DFF8CC18087001203A
:102C0000DFF8C01808704FF48071DFF8A40803F0F3
:102C10004DFB002822D1DFF8B808007800282DD01D
:102C2000DFF8B0080078152810DB0120DFF8A818BD
:102C30000870DFF88008007850F01000DFF8741892
:102C400008700020DFF88818087017E0DFF88408A3
:102C50000078401CDFF87C1808700FE0DFF854089B
:102C6000007810F0EF00DFF84C1808700020DFF853
:102C7000641808700120DFF8581808704FF40071CC
:102C8000DFF82C0803F012FB002822D1DFF84C08F3
:102C9000007800282DD0DFF848080078152810DBD0
:102CA0000120DFF840180870DFF80808007850F0BD
:102CB0002000DFF8001808700020DFF820180870E6
:102CC00017E0DFF81C080078401CDFF814180870C3
:102CD0000FE0DFF8E007007810F0DF00DFF8D4172E
:102CE00008700020DFF8F81708700120DFF8EC17F3
:102CF00008704FF48061DFF8B80703F0D7FA0028B6
:102D000022D1DFF8E407007800282DD0DFF8DC07B7
:102D10000078152810DB0120DFF8D4170870DFF8E1
:102D20009407007850F04000DFF888170870002002
:102D3000DFF8B417087017E0DFF8B0070078401C20
:102D4000DFF8A81708700FE0DFF86807007810F0C8
:102D5000BF00DFF8601708700020DFF890170870D8
:102D60000120DFF8841708704FF40071DFF8840742
:102D700003F09CFA002822D1DFF87C0700780028B5
:102D80002DD0DFF878070078152810DB0120DFF858
:102D900070170870DFF81C07007850F08000DFF82B
:102DA000141708700020DFF85017087017E0DFF8DC
:102DB0004C070078401CDFF8441708700FE0DFF87C
:102DC000F406007810F07F00DFF8E81608700020A5
:102DD000DFF8281708700120DFF81C1708704FF47F
:102DE0008071DFF8100703F061FA002822D1DFF8C4
:102DF0001407007800282DD0DFF80C07007815287C
:102E000010DB0120DFF804170870DFF8A80640780F
:102E100050F00100DFF89C1648700020DFF8E4163F
:102E2000087017E0DFF8E0060078401CDFF8D816DD
:102E300008700FE0DFF87C06407810F0FE00DFF845
:102E4000741648700020DFF8C01608700120DFF803
:102E5000B41608700221DFF8580603F027FA00289C
:102E600022D1DFF8AC06007800282DD0DFF8A406C8
:102E70000078152810DB0120DFF89C160870DFF8B9
:102E80003406407850F00200DFF828164870002021
:102E9000DFF87C16087017E0DFF878060078401C31
:102EA000DFF8701608700FE0DFF80806407810F0C1
:102EB000FD00DFF8001648700020DFF85816087093
:102EC0000120DFF84C1608704FF48041DFF84C0603
:102ED00003F0ECF9002822D1DFF84406007800283E
:102EE0002DD0DFF840060078152810DB0120DFF830
:102EF00038160870DFF8BC05407850F00400DFF8A1
:102F0000B41548700020DFF81816087017E0DFF8D5
:102F100014060078401CDFF80C1608700FE0DFF88C
:102F20009405407810F0FB00DFF888154870002009
:102F3000DFF8F01508700120DFF8E41508704FF491
:102F40008041DFF8B00503F0B1F9002822D1DFF8A5
:102F5000DC05007800282DD0DFF8D405007815288E
:102F600010DB0120DFF8CC150870DFF84805407849
:102F700050F00800DFF83C1548700020DFF8AC1571
:102F8000087017E0DFF8A8050078401CDFF8A015EE
:102F900008700FE0DFF81C05407810F0F700DFF84C
:102FA000141548700020DFF8881508700120DFF83C
:102FB0007C1508704FF40061DFF8F40403F076F933
:102FC000002822D1DFF87005007800282DD0DFF826
:102FD0006C050078152810DB0120DFF864150870F7
:102FE000DFF8D004407850F08000DFF8C814487053
:102FF0000020DFF84415087017E0DFF8400500787E
:10300000401CDFF8381508700FE0DFF8A80440789E
:1030100010F07F00DFF89C1448700020DFF81C15CA
:1030200008700120DFF8101508700120DFF87C140B
:10303000087001BDE4130020002001402813002087
:103040002413002064130020BC120020EA13002087
:1030500066130020EB13002080B5DFF89C03007896
:10306000002803D00020DFF890130870DFF89403E5
:103070000078002803D00020DFF888130870DFF8FC
:1030800040040078002803D00020DFF834140870D2
:10309000DFF838040078002803D00020DFF82C1473
:1030A0000870DFF834040078002803D00020DFF82F
:1030B00028140870DFF82C040078002803D00020C2
:1030C000DFF820140870DFF828040078002803D007
:1030D0000020DFF81C140870DFF8240400780028B2
:1030E00003D00020DFF818140870DFF820040078FF
:1030F000002803D00020DFF814140870DFF818044B
:103100000078002803D00020DFF80C140870DFF8E6
:1031100018040078002803D00020DFF80C14087091
:10312000DFF810040078002803D00020DFF8041432
:103130000870DFF80C040078002805D002F0EFFFDB
:103140000020DFF8FC13087001BD80B5C0B2642810
:1031500000DB6420D0F1640071490968C0B200FB53
:1031600001F06421B0FBF1F0411E89B2DFF83803B1
:1031700004F0D2F901BD80B5C0B2642800DB642040
:10318000D0F1640066490968C0B200FB01F0642117
:10319000B0FBF1F0411E89B2DFF80C0304F0BEF978
:1031A00001BD0000ED13002080B5C0B2642800DB33
:1031B0006420D0F164005A490968C0B200FB01F0F4
:1031C0006421B0FBF1F0411E89B2B74804F0A8F9C0
:1031D00001BD0000301300202C130020E813002054
:1031E00068130020D0120020EE13002080B5DFF815
:1031F00054030078002812D0DFF848030178DFF884
:10320000480303F026F90020DFF838130870002087
:10321000DFF8381308700120DFF83413087001BD9F
:103220006A13002080B5DFF82C030078002812D044
:10323000DFF820030178DFF8200303F00AF900200B
:10324000DFF8101308700020DFF810130870012059
:10325000DFF80C13087001BD080002404C24014047
:103260006C12002030B4FF24BE4D2C70BD4C607039
:10327000C0B2002809D0022814D00CD3042820D0D2
:1032800019D3062828D01DD32EE0B648418000204F
:10329000B449888028E00020B24948800020B14924
:1032A000888021E00020AF4948800020AD490871A6
:1032B000AC48427118E00020AA494880A9488280A1
:1032C00012E011E00120A74988707820A549C87054
:1032D0000020A449888007E00120A2498870782056
:1032E000A049C8709F4882809E4801889D484088B8
:1032F00041189C48808841184FF6FF704143994817
:10330000C180002003E09749095C1954401C08283B
:10331000F9DB30BC70470000EC13002000A24A0427
:103320000C130020F8B580B204F000F900228E4B97
:1033300004F00AF900228D4B04F0D8F904000D00C6
:103340008B48006804F0F6FA8A4A8B4B04F0FCF8CC
:1033500022002B0004F0CAF904000D008448006824
:1033600004F0E8FA02000B002000290004F006FB3C
:103370000022824B04F0BAF904F02EFD04000D0087
:103380007F4AD2E9000122002B0004F0DDF87D4ED7
:10339000D6E9002304F022FD06000F0022002B00D6
:1033A0002000290004F0D0F822002B0004F0CCF813
:1033B000754CD4E9002304F0C7F832003B0004F058
:1033C0000DFD02000B000020704904F08FF902008F
:1033D0000B005FF066306E4904F000FD00226D4B7B
:1033E00004F0FCFC04F0B6FDF4BD00000024014034
:1033F000B9130020B8130020BA130020BC1300201A
:10340000BB130020BD13002080B5634800686349EA
:10341000086061484068614948605F4880685F496A
:1034200088605E48006880B2FFF77CFF04F0BEFD54
:103430005B4908805948406880B2FFF773FF04F089
:10344000B5FD584908805548806880B2FFF76AFF8B
:1034500004F0ACFD544908805148B0F900001E301A
:10346000B52803D200205149087002E001204F49DD
:1034700008704C48B0F900001E30B52803D2002077
:103480004B49087002E00120494908704648B0F9EC
:1034900000001E30B52803D200204649087002E023
:1034A00001204449087001BD00340140B7130020D9
:1034B0000014014056130020BF130020BE1300204B
:1034C000C0130020C2130020C1130020C31300202A
:1034D000C5130020C4130020C6130020C813002009
:1034E000C7130020C9130020CB130020CA130020EB
:1034F000CC130020000C0140CE130020CD1300207F
:10350000CF130020D1130020D0130020D2130020AD
:10351000D4130020D3130020D51300200010014045
:10352000D7130020D6130020D8130020DA13002070
:10353000D9130020DB130020DD130020DC13002052
:10354000DE1300202E140020341100202B14002044
:103550002D140020351400209C110020321400206E
:1035600034140020FC1200200000044000FEAF4094
:10357000000000207B14AE47E17A024000408F40FB
:10358000288B0008308B0008208B00080000F03FDB
:10359000661271C00000E03F6C120020E4120020AF
:1035A000721300207413002076130020EF13002004
:1035B000F0130020F113002038B5DFF8FC0C007880
:1035C000002800F04486DFF8F00C0078411EC9B2F4
:1035D000DFF8E80C00F09EFFDFF8E01CDFF8D82CE5
:1035E0001278114411F8011CC0B2814240F02486C7
:1035F000DFF8C80C4178DFF8C40C8078C9B2002924
:1036000024D0022900F0E380C0F08980042900F072
:10361000BC82C0F0A181062900F0AD84C0F01A84FC
:10362000082900F02285C0F0F3840A2900F04B85B8
:10363000C0F032850C2900F0D785C0F048850E29EE
:1036400000F0EA85C0F0DA8500F0F6BDDFF86C1C0A
:10365000C978DFF8FC2B1170DFF8601C0979DFF8FE
:10366000F02B5170DFF8541C4979DFF8E42B91708E
:10367000DFF8481C8979DFF8D82BD170C0B2002858
:1036800014D100240CE0DFF8C80B0068E04010F013
:103690000100DFF8C01B01EB840149688847641C06
:1036A000DFF8B40B0078401E8442ECDBDFF80C0C32
:1036B0000078DFF80C1C0870DFF8000C4078DFF8A9
:1036C000001C4870DFF8F40B8078DFF8F41B88707A
:1036D000DFF8E80BC078DFF8E81BC870DFF8DC0B18
:1036E0000079DFF8DC1B0871DFF8D00B4079DFF8D8
:1036F000D01B4871DFF8C40B8079DFF8C41B8871D8
:103700000721DFF8BC0B00F005FFDFF8B41BC87120
:103710000821DFF8AC0B02F09CFE00F08DBDDFF855
:103720009C1B0978DFF8982B1170DFF8901B497803
:10373000DFF88C2B5170DFF8841B8978DFF8802B41
:103740009170C0B2002840D1DFF8780B0068DFF834
:10375000001B0860DFF8700B00884FF4807190FB4D
:10376000F1F201FB1200DFF8581BC870DFF8580BAC
:1037700000884FF4807190FBF1F0DFF8441B087172
:10378000DFF8CC0A0078DFF8381B4871DFF8C00A90
:103790004078DFF82C1B8871DFF8B40A8078DFF8F6
:1037A000201BC871DFF8A80AC078DFF8141B087264
:1037B0000921DFF80C0B00F0ADFEDFF8041B4872A6
:1037C0000A21DFF8FC0A02F044FE00F035BDDFF804
:1037D000EC1A0978DFF8E82A1170DFF8E01A497866
:1037E000DFF8DC2A5170DFF8D41A8978DFF8D02AA4
:1037F0009170C0B2002840F0AD80DFF8900B0088D7
:103800004FF4807190FBF1F201FB1200DFF8B01A67
:10381000C870DFF8780B00884FF4807190FBF1F0EE
:10382000DFF89C1A0871DFF8680B00884FF480718C
:1038300090FBF1F201FB1200DFF8841A4871DFF807
:10384000500B00884FF4807190FBF1F0DFF8701A94
:103850008871DFF8400B00884FF4807190FBF1F223
:1038600001FB1200DFF8581AC871DFF8280B008836
:103870004FF4807190FBF1F0DFF8441A0872DFF822
:10388000180B00884FF4807190FBF1F201FB1200DD
:10389000DFF82C1A4872DFF8000B00884FF48071B3
:1038A00090FBF1F0DFF8181A8872DFF8F00AB0F92F
:1038B00000004FF4807190FBF1F201FB1200DFF881
:1038C000001AC872DFF8D40AB0F900004FF4807112
:1038D00090FBF1F0DFF8E8190873DFF8C40AB0F9DB
:1038E00000004FF4807190FBF1F201FB1200DFF851
:1038F000D0194873DFF8A80AB0F900004FF48071BE
:1039000090FBF1F0DFF8B8198873DFF87C0BB0F9A1
:1039100000004FF4807190FBF1F201FB1200DFF820
:10392000A019C873DFF8600BB0F900004FF4807184
:1039300090FBF1F0DFF8881908741121DFF8800995
:1039400000F0E8FDDFF8781948741221DFF87009FB
:1039500002F07FFD00F070BCDFF860190A79DFF833
:103960005C194C794FF4807101FB0424DFF84C1989
:103970008A79DFF84819CD794FF4807101FB05256C
:10398000C0B2002849D1DFF83409C07807280CD12B
:10399000DFF828090079DFF83C1B0870DFF81C0904
:1039A0000079DFF8341B0870EBE0DFF81009C0780D
:1039B000032806D1DFF8240B0580DFF8240B0580EF
:1039C0000AE0DFF8F808C078062805D1DFF8140B04
:1039D0000570DFF8140B0570DFF8103B2A0092B277
:1039E000210089B2DFF8D408C078FFF73BFC08213A
:1039F000DFF8F80A02F044FDDFF8F43A2A0092B248
:103A0000210089B2DFF8B408C078FFF72BFC082149
:103A1000DFF8DC0A02F04BFDB3E0C0B201283BD175
:103A2000DFF89808C078072806D1DFF890080079F9
:103A3000DFF8A01A0870A4E0DFF8B03A2A0092B2CA
:103A4000210089B2DFF87408C078FFF70BFC082169
:103A5000DFF8980A02F014FDDFF86008C078032848
:103A600003D1DFF8780A05808BE0DFF85008C078D2
:103A7000062840F08680DFF86C0A0570DFF8540AEB
:103A800001784FF47A704143DFF8680A0160002042
:103A9000DFF8641A087074E0C0B202283AD1DFF887
:103AA0001C08C078072806D1DFF810080079DFF875
:103AB000281A087065E0DFF8383A2A0092B221002F
:103AC00089B2DFF8F807C078FFF7CCFB0821DFF8F0
:103AD000200A02F0ECFCDFF8E407C078032803D1E9
:103AE000DFF8FC0905804CE0DFF8D007C078062835
:103AF00047D1DFF8F4090570DFF8DC0901784FF4ED
:103B00007A704143DFF8F40901600020DFF8F01912
:103B1000087036E0C0B203281BD1DFF8A007C078D8
:103B2000DFF83C1C0870DFF894070179DFF88C0798
:103B300042794FF4807000FB0211DFF8280C0180FD
:103B40000020DFF8A81C08700120DFF8A41C087012
:103B500017E0C0B2042804D10120DFF8781B0870F8
:103B60000FE0C0B205280CD1DFF85007C178DFF8AC
:103B70004C0702794FF4807000FB0211DFF8580BFC
:103B80000180062000F082FC56E3C0B201283AD141
:103B9000DFF82807C078FFF7D8FADFF820070078A9
:103BA000DFF81C170870DFF814074078DFF81017EB
:103BB0004870DFF808078078DFF804178870DFF8AE
:103BC0001C0B00884FF4807190FBF1F201FB120096
:103BD000DFF8EC16C870DFF8040B00884FF4807132
:103BE00090FBF1F0DFF8D81608710521DFF8D00658
:103BF00000F090FCDFF8C81648710621DFF8C00617
:103C000002F027FC25E1C0B202283AD1DFF8AC0669
:103C1000C078FFF7B0FADFF8A4060078DFF8A01646
:103C20000870DFF898064078DFF894164870DFF8DF
:103C30008C068078DFF888168870DFF82C0B0088F7
:103C40004FF4807190FBF1F201FB1200DFF8701667
:103C5000C870DFF8140B00884FF4807190FBF1F00E
:103C6000DFF85C1608710521DFF8540600F052FCFD
:103C7000DFF84C1648710621DFF8440602F0E9FB34
:103C8000E7E0C0B203283AD1DFF83006C078FFF78A
:103C90008BFADFF828060078DFF824160870DFF8C2
:103CA0001C064078DFF818164870DFF81006807898
:103CB000DFF80C168870DFF83C0B00884FF4807139
:103CC00090FBF1F201FB1200DFF8F415C870DFF889
:103CD000240B00884FF4807190FBF1F0DFF8E015C1
:103CE00008710521DFF8D80500F014FCDFF8D015C5
:103CF00048710621DFF8C80502F0ABFBA9E0C0B2AD
:103D0000042835D1DFF8B4050078DFF8B415087061
:103D1000DFF8A8054078DFF8A8154870DFF89C05A3
:103D20008078DFF89C158870DFF8B00900884FF4C0
:103D3000807190FBF1F201FB1200DFF88415C8706E
:103D4000DFF8980900884FF4807190FBF1F0DFF8FC
:103D5000701508710521DFF8680500F0DBFBDFF85E
:103D6000601548710621DFF8580502F072FB70E01B
:103D7000C0B2052835D1DFF844050078DFF84015DA
:103D80000870DFF838054078DFF834154870DFF840
:103D90002C058078DFF828158870DFF8CC090088BA
:103DA0004FF4807190FBF1F201FB1200DFF8101567
:103DB000C870DFF8B40900884FF4807190FBF1F00F
:103DC000DFF8FC1408710521DFF8F40400F0A2FB11
:103DD000DFF8EC1448710621DFF8E40402F039FB47
:103DE00037E0C0B2062834D1DFF8D0040078DFF81D
:103DF000D0140870DFF8C4044078DFF8C4144870A9
:103E0000DFF8B8048078DFF8B8148870DFF8E409C8
:103E100000884FF4807190FBF1F201FB1200DFF893
:103E2000A014C870DFF8CC0900884FF4807190FBB3
:103E3000F1F0DFF88C1408710521DFF8840400F03C
:103E400069FBDFF87C1448710621DFF8740402F086
:103E500000FBF1E1C0B2002815D1DFF86004C078A2
:103E6000DFF86C1A0870DFF854040079DFF8601A84
:103E70004870DFF848044079DFF8541A887006204B
:103E800000F004FB76E0C0B2012815D1DFF82C0465
:103E9000C078DFF83C1AC870DFF820040079DFF83A
:103EA000301A0871DFF814044079DFF8241A4871D9
:103EB000062000F0EBFA5DE0C0B2022815D1DFF871
:103EC000FC03C078DFF8081A8871DFF8F003007986
:103ED000DFF8FC19C871DFF8E4034079DFF8F01966
:103EE0000872062000F0D2FA44E0C0B203280CD1D8
:103EF000DFF8E009007800283CD1FCF75BFFFCF715
:103F000079FF062000F0C2FA34E0C0B2042813D1D1
:103F1000FCF762FFFDF768FBFCF74CFFFCF728FF9E
:103F20000020DFF8B41908800020DFF8B01908700D
:103F3000062000F0ABFA1DE0C0B2052810D1DFF872
:103F40007C03C178DFF8740304794FF4807000FBC0
:103F50000414DFF88C090480062000F097FA09E0C9
:103F6000C0B2062806D1FCF759FFFCF723FF062054
:103F700000F08CFA60E1C0B2002813D1DFF83C03F6
:103F8000C078DFF860190870CC480079DFF8541960
:103F90004870CA484079DFF84C198870062000F054
:103FA00075FA34E0C0B2012812D1C448C078DFF8F5
:103FB0003419C870C1480079DFF828190871BF4862
:103FC0004079DFF820194871062000F05FFA1EE002
:103FD000C0B202280CD1DFF810090078002816D1F1
:103FE000FDF710FBFCF7E6FE062000F04FFA0EE0AE
:103FF000C0B203280BD1DFF8F4080078002806D1FE
:10400000FDF7F2FAFCF7D6FE062000F03FFA13E1C6
:10401000C0B2002805D10520FCF7BCFEFCF7FEFE6F
:1040200022E0C0B2012805D10420FCF7B3FEFCF762
:10403000F5FE19E0C0B2022805D10320FCF7AAFE64
:10404000FCF7ECFE10E0C0B2032805D10220FCF71B
:10405000A1FEFCF7E3FE07E0C0B2042804D1012072
:10406000FCF798FEFCF7DAFEE6E0C0B2002803D1C8
:104070000020FCF767FE0EE0C0B2012803D101204A
:10408000FCF760FE07E0C0B2022804D10120FCF773
:1040900081FEFCF7C3FECFE08848C17887480279EB
:1040A0004FF4807000FB0211DFF844080180834860
:1040B0004179824882794FF4807000FB0211DFF869
:1040C00034080180B8E0C0B200F01CFCB4E0C0B21B
:1040D000002820D1FCF780FEFDF786FAFCF76AFE87
:1040E000FCF746FE0020DFF8F01708800020DFF81C
:1040F000EC1708700120DFF8DC1508700020554926
:10410000C96C884700205349096B88470020DFF8B5
:10411000E817087067E000204E49096C88470020C6
:104120004C49496D884700204A49096D884700205D
:104130004849896E884700204649C96D8847002054
:104140004449896D884700204249C96E884700204C
:104150004049496E884700203E49096E8847002043
:104160003C49096F884700203A49496C884701203B
:104170003849C96C88474FF4FA7002F07BFC012083
:104180003449096B88474FF4FA7002F073FC4B48CE
:10419000407ADFF8641708700020DFF860170870B5
:1041A0000020DFF85C1708604448C1794348027A70
:1041B0004FF4807000FB02110A0092B23F4841792F
:1041C0003E4883794FF4807000FB031189B23B486D
:1041D000C3783A4804794FF4807000FB0433180028
:1041E00080B200F0DFF827E034488078012802D15F
:1041F00000F034F801E000F069F81DE02F48807805
:10420000012804D10120DFF8F416087003E0002033
:10421000DFF8E81608700FE02848807801280BD1F5
:104220000120DFF8A01B08700020DFF89C1B08703D
:104230000020DFF8981B087000201F49087000203C
:10424000DFF88C1B08700120DFF8881B087031BD77
:104250001013002020100020B41300200120DFF8EC
:10426000781B08700020DFF8741B08800020DFF83E
:10427000701B08700020DFF86C1B08700020DFF84E
:10428000681B08700020DFF8641B08804620DFF8F8
:10429000601B08700120DFF8641608700020DFF84A
:1042A000541B08700120DFF8201B08700020DFF885
:1042B0003C1508707047000027140020CC10002027
:1042C00098100020341300205613002080B50020E1
:1042D000DFF8041B0870FCF77FFDFDF785F9FCF79C
:1042E00069FDFCF745FD0020DFF8DC1A087063204B
:1042F000DFF8041B08700020DFF8EC1A08700A20B1
:10430000DFF8E01A08700020DFF8F01508700020D0
:10431000DFF8D41A08700020DFF8A81A087000200F
:10432000DFF8D81A096988470020DFF8D01A4969F0
:1043300088470020DFF8C41A896A88470020DFF820
:10434000BC1AC96A88470020DFF8B01A896C884710
:104350000020DFF8A81AC96C88470020DFF89C1AF3
:10436000C96888470020DFF8941A49688847002008
:10437000DFF8881A896888470120DFF85813087029
:104380000020DFF86C14087001BD00005E130020EF
:1043900062130020661300206A13002072130020AD
:1043A0007413002080B580B2002807D1DFF83005F3
:1043B0000180FCF7FFFCFCF731FD54E0DFF820251D
:1043C000118080B2002808D080B2152805DA0520B7
:1043D000FCF7E0FCFCF722FD45E080B2B0F11502ED
:1043E000142A05D20420FCF7D5FCFCF717FD3AE0AF
:1043F00080B2B0F12902142A05D20420FCF7CAFCCD
:10440000FCF70CFD2FE080B2B0F13D02142A05D27A
:104410000420FCF7BFFCFCF701FD24E080B251381A
:10442000132805D20420FCF7B5FCFCF7F7FC1AE0D2
:1044300089B2B1F11E00292803D20020FCF782FCCA
:1044400011E089B2B1F14700222803D20120FCF724
:1044500079FC08E089B269391A2904D20120FCF7F5
:1044600099FCFCF7DBFCB420BD4908709A48008831
:10447000BC4908800020DFF8741308700120DFF8C1
:104480007013087001BD00007613002080B5DFF8BE
:1044900070190978DFF86C291170DFF86419497810
:1044A000DFF860295170DFF858198978DFF854294E
:1044B0009170DFF85019C8700421DFF8480900F046
:1044C00029F8DFF8401908710521DFF8380901F0F3
:1044D000C0FF01BDF2130020F31300207A13002067
:1044E0007C130020F4130020F51300206811002035
:1044F000D011002038130020F61300203C130020B8
:10450000F713002080B5FEF771FE01BD80B5FEF700
:1045100089FE01BD10B402000020002402E0135DFA
:104520001818641CC9B28C42F9DBC0B210BC7047C9
:1045300010B568480078012820D1DFF8CC38002277
:1045400047F601010620FEF78DFE0821DFF8B808C6
:1045500001F096FFDFF8B438002247F6010106208B
:10456000FEF780FE0821DFF8A40801F0A0FF00207C
:104570005849087000209E490870A9E09C480078BE
:10458000002800F0A58099480078002802D0012872
:1045900026D09DE0DFF87038012247F601010620A1
:1045A000FEF760FE0821DFF8600801F069FFDFF820
:1045B0005C38012247F601010620FEF753FE082170
:1045C000DFF8480801F073FF1420DFF8601D086071
:1045D0000020DFF83C18087001208449087077E05B
:1045E000DFF8480D0068002872D1DFF8D80700789E
:1045F000002809D05B48B0F900105FF0FF3041435C
:104600005848B0F9004041E0DFF80408007800287D
:1046100005D002281FD010D303282AD036E05148F5
:10462000B0F900104F48B0F900405FF0FF3044434C
:104630000120DFF8DC27107028E04A48B0F90010AC
:104640005FF0FF3041434748B0F900400220DFF8F7
:10465000C02710701AE04348B0F900104148B0F983
:1046600000405FF0FF3044430320DFF8A4271070C0
:104670000CE03C48B0F900105FF0FF30414339488E
:10468000B0F900400020DFF888271070DFF8783795
:104690000A0092B200210320FEF7E4FD0821DFF8B2
:1046A000680701F0EDFEDFF86437220092B20021C6
:1046B0000320FEF7D7FD0821DFF8500701F0F7FED1
:1046C000274801784FF47A704143DFF8600C0160AD
:1046D00010BD0000FA130020180000206C13002009
:1046E00080B5DFF84C0C0078002838D0DFF8F80CE3
:1046F0000078002833D0DFF8F40C006800282ED1B1
:10470000DFF8EC0C007800280BD1DFF8E80CB0F9EA
:1047100000105FF0FF3041430120DFF8D42C10700F
:1047200007E0DFF8D00CB0F900100020DFF8C02C53
:104730001070DFF8D4360A0092B200210320FEF791
:1047400091FD0821DFF8C00601F09AFEDFF8980C11
:1047500001784FF47A704143DFF8900C016001BD9D
:10476000F81300207E1300206E13002080B5DFF8C0
:10477000880C0078002838D0DFF8800C00780028FA
:1047800033D0DFF87C0C006800282ED1DFF8740CE1
:10479000007800280BD1DFF8700CB0F900105FF042
:1047A000FF3041430120DFF85C2C107007E0DFF898
:1047B000580CB0F900100020DFF8482C1070DFF81A
:1047C0004C360A0092B200210320FEF74BFD08216F
:1047D000DFF8380601F06BFEDFF8200C01784FF4AB
:1047E0007A704143DFF8180C016001BDFB13002013
:1047F000F91300207013002080B5DFF8100C00784A
:10480000C0B2C009C0B2002860D0DFF8CC05007883
:1048100000285BD0DFF8F80B0078002805D00228CC
:104820002CD021D3032848D050E031480088DFF84D
:10483000E41B0880DFF8E00B0078002805D0012099
:10484000DFF8B8154969884709E0DFF8D00B007830
:10485000002804D00120DFF8A41509698847012049
:10486000DFF8AC1B087031E0DFF8A80B00880028E7
:104870002CD10220DFF8981B087027E01D48008823
:10488000DFF89C1B0880DFF8900B0078002805D02B
:104890000020DFF868154969884709E0DFF87C0BDC
:1048A0000078002804D00020DFF8501509698847F7
:1048B0000320DFF85C1B087008E0DFF8640B008859
:1048C000002803D10020DFF8481B087001BD00005C
:1048D000F0120020FD1300205813002007140020C0
:1048E000821300200413002002140020051400206D
:1048F0009413002096130020191400201A1400208D
:1049000048130020C0B2002813D0022800F0938082
:1049100050D3042800F01181C0F0CE80062800F0AA
:104920008E81C0F04B81082800F00B82C0F0C88156
:1049300047E2DFF8D80A007810F0FE00DFF8CC1A62
:104940000870DFF8C80A007810F0FD00DFF8BC1A24
:104950000870DFF8B80A007810F0FB00DFF8AC1A36
:104960000870DFF8A80A007850F00800DFF89C1AF9
:104970000870DFF8980A007810F0EF00DFF88C1A62
:104980000870DFF8880A007850F02000DFF87C1A01
:104990000870DFF8780A007810F0BF00DFF86C1AB2
:1049A0000870DFF8680A007850F08000DFF85C1AC1
:1049B000087006E2DFF8540A007850F00100DFF8D2
:1049C0004C1A0870DFF8440A007810F0FD00DFF898
:1049D0003C1A0870DFF8340A007810F0FB00DFF8AA
:1049E0002C1A0870DFF8240A007810F0F700DFF8BE
:1049F0001C1A0870DFF8140A007810F0EF00DFF8D6
:104A00000C1A0870DFF8040A007850F02000DFF874
:104A1000FC190870DFF8F409007810F0BF00DFF827
:104A2000EC190870DFF8E409007850F08000DFF836
:104A3000DC190870C5E1DFF8D409007810F0FE0039
:104A4000DFF8C8190870DFF8C409007810F0FD001D
:104A5000DFF8B8190870DFF8B409007810F0FB002F
:104A6000DFF8A8190870DFF8A409007850F00800F2
:104A7000DFF898190870DFF89409007810F0EF005B
:104A8000DFF888190870DFF88409007850F02000FA
:104A9000DFF878190870DFF87409007810F0BF00AB
:104AA000DFF868190870DFF86409007850F08000BA
:104AB000DFF85819087084E1DFF85009007850F0E9
:104AC0000100DFF848190870DFF84009007810F09D
:104AD000FD00DFF838190870DFF83009007810F0B1
:104AE000FB00DFF828190870DFF82009007810F0C3
:104AF000F700DFF818190870DFF81009007810F0D7
:104B0000EF00DFF808190870DFF80009007850F0AE
:104B10002000DFF8F8180870DFF8F008007810F0CF
:104B2000BF00DFF8E8180870DFF8E008007850F000
:104B30008000DFF8D818087043E1DFF8D00800786B
:104B400010F0FE00DFF8C4180870DFF8C008007825
:104B500010F0FD00DFF8B4180870DFF8B008007836
:104B600010F0FB00DFF8A4180870DFF8A008007848
:104B700050F00800DFF894180870DFF8900800780B
:104B800050F01000DFF884180870DFF88008007813
:104B900050F02000DFF874180870DFF87008007813
:104BA00050F04000DFF864180870DFF86008007803
:104BB00010F07F00DFF85418087002E1DFF84C08AD
:104BC000007810F0FE00DFF844180870DFF83C08A9
:104BD000007810F0FD00DFF834180870DFF82C08BA
:104BE000007810F0FB00DFF824180870DFF81C08CC
:104BF000007850F00800DFF814180870DFF80C088F
:104C0000007850F01000DFF804180870DFF8FC0797
:104C1000007850F02000DFF8F4170870DFF8EC0798
:104C2000007850F04000DFF8E4170870DFF8DC0788
:104C3000007810F07F00DFF8D4170870C1E0DFF8CB
:104C4000CC07007850F00100DFF8C0170870DFF8DB
:104C5000BC07007810F0FD00DFF8B0170870DFF82F
:104C6000AC07007850F00400DFF8A0170870DFF8F8
:104C70009C07007810F0F700DFF890170870DFF855
:104C80008C07007810F0EF00DFF880170870DFF86D
:104C90007C07007850F02000DFF870170870DFF80C
:104CA0006C07007810F0BF00DFF860170870DFF8BD
:104CB0005C07007810F07F00DFF85017087080E084
:104CC000DFF84807007810F0FE00DFF840170870A2
:104CD000DFF83807007810F0FD00DFF830170870B3
:104CE000DFF82807007810F0FB00DFF820170870C5
:104CF000DFF81807007850F00800DFF81017087088
:104D0000DFF80807007850F01000DFF8001708708F
:104D1000DFF8F806007850F02000DFF8F016087091
:104D2000DFF8E806007850F04000DFF8E016087081
:104D3000DFF8D806007810F07F00DFF8D016087092
:104D40003FE0DFF8C806007850F00100DFF8BC163D
:104D50000870DFF8B806007850F00200DFF8AC16F3
:104D60000870DFF8A806007850F00400DFF89C1601
:104D70000870DFF89806007810F0F700DFF88C165E
:104D80000870DFF88806007810F0EF00DFF87C1676
:104D90000870DFF87806007850F02000DFF86C1615
:104DA0000870DFF86806007850F04000DFF85C1605
:104DB0000870DFF85806007810F07F00DFF84C1616
:104DC000087070471F1400201814002020140020C1
:104DD00024140020261400200B1400208A13002025
:104DE000091400200C140020221400208C13002031
:104DF0001B1400201C1400200F1400202010002081
:104E0000CC1000209810002068110020D011002044
:104E1000FC130020DFF8500B0068C00708D5DFF84E
:104E20004C0B006830F00200DFF8401B086007E020
:104E3000DFF8380B006850F00200DFF8301B086024
:104E4000DFF8240B0068800708D5DFF8200B006826
:104E500030F00400DFF8141B086007E0DFF80C0BEB
:104E6000006850F00400DFF8041B0860DFF8F80A5F
:104E70000068400708D5DFF8F40A006830F0080041
:104E8000DFF8E81A086007E0DFF8E00A006850F091
:104E90000800DFF8D81A0860DFF8CC0A00680007BD
:104EA00008D5DFF8C80A006830F01000DFF8BC1A37
:104EB000086007E0DFF8B40A006850F01000DFF87F
:104EC000AC1A0860DFF8A00A0068C00608D5DFF851
:104ED0009C0A006830F02000DFF8901A086007E0B4
:104EE000DFF8880A006850F02000DFF8801A0860B8
:104EF000DFF8740A0068800608D5DFF8700A0068D9
:104F000030F04000DFF8641A086007E0DFF85C0A60
:104F1000006850F04000DFF8541A0860DFF8480AD3
:104F20000068400608D5DFF8440A006830F08000C9
:104F3000DFF8381A086007E0DFF8300A006850F040
:104F40008000DFF8281A0860DFF81C0A00680006F5
:104F500008D5DFF8180A006830F48070DFF80C1A02
:104F6000086007E0DFF8040A006850F48070DFF89A
:104F7000FC190860DFF8F0090068C00508D5DFF803
:104F8000EC09006830F40070DFF8E019086007E011
:104F9000DFF8D809006850F40070DFF8D019086015
:104FA000DFF8C4090068800508D5DFF8C00900688B
:104FB00030F48060DFF8B419086007E0DFF8AC096E
:104FC000006850F48060DFF8A4190860DFF89809E1
:104FD0000068400508D5DFF89409006830F40060E7
:104FE000DFF88819086007E0DFF88009006850F4EE
:104FF0000060DFF878190860DFF86C0900680005C8
:1050000008D5DFF86809006830F48050DFF85C19D3
:10501000086007E0DFF85409006850F48050DFF8BA
:105020004C190860DFF840090068C00408D5DFF8B3
:105030003C09006830F40050DFF83019086007E0E0
:10504000DFF82809006850F40050DFF820190860E4
:10505000DFF814090068800408D5DFF8100900683B
:1050600030F48040DFF80419086007E0DFF8FC083E
:10507000006850F48040DFF8F4180860DFF8E808B2
:105080000068400408D5DFF8E408006830F4004008
:10509000DFF8D818086007E0DFF8D008006850F49F
:1050A0000040DFF8C8180860DFF8BC08006800049A
:1050B00008D5DFF8B808006830F48030DFF8AC18A5
:1050C000086007E0DFF8A408006850F48030DFF8DB
:1050D0009C180860DFF898080068000408D5DFF81D
:1050E0008C08006830F40030DFF88018086007E0B2
:1050F000DFF87808006850F40030DFF870180860B6
:10510000DFF870080068C00708D5DFF8600800689D
:1051100030F48020DFF85418086007E0DFF84C080E
:10512000006850F48020DFF844180860DFF8440875
:105130000068800708D5DFF83408006830F40020E4
:10514000DFF82818086007E0DFF82008006850F44E
:105150000020DFF818180860DFF81408006800075E
:1051600008D5DFF80808006830F48010DFF8FC1775
:10517000086007E0DFF8F407006850F48010DFF8FB
:10518000EC170860DFF8E8070068400708D5DFF88B
:10519000DC07006830F40010DFF8D017086007E083
:1051A000DFF8C807006850F40010DFF8C017086087
:1051B000DFF8C4070068C00408D5DFF8B00700684E
:1051C00030F48000DFF8A417086007E0DFF89C07E0
:1051D000006850F48000DFF894170860DFF8980743
:1051E0000068800408D5DFF88407006830F4000008
:1051F000DFF87817086007E0DFF87007006850F400
:105200000000DFF868170860DFF868070068C0046E
:1052100008D5DFF85807006830F08070DFF84C17C9
:10522000086007E0DFF84407006850F08070DFF89E
:105230003C170860DFF83C070068800408D5DFF8F9
:105240002C07006830F00070DFF82017086007E0D6
:10525000DFF81807006850F00070DFF810170860DA
:10526000DFF80C070068400408D5DFF80007006885
:1052700030F08060DFF8F416086007E0DFF8EC0635
:10528000006850F08060DFF8E4160860DFF8E006A0
:105290000068800408D5DFF8D406006830F00060AC
:1052A000DFF8C816086007E0DFF8C006006850F0B5
:1052B0000060DFF8B8160860DFF8B4060068C004C4
:1052C00008D5DFF8A806006830F08050DFF89C169B
:1052D000086007E0DFF89406006850F08050DFF8BF
:1052E0008C160860704780B5DFF8900600780028BB
:1052F00015D1DFF88C0600782D2805DA0020DFF8BC
:105300008416096B88470FE0DFF8740600783328AD
:105310000ADB0120DFF86C16096B884704E00120E6
:10532000DFF86016096B884701BD000040130020BC
:10533000F413002080B5DFF844060078002852D02E
:10534000DFF84406008800284DD1DFF840060078D9
:10535000002803D0022833D019D344E00120DFF81D
:105360002416896988470020DFF81816C96988471C
:105370000120DFF81016096A884743F69820DFF805
:10538000081608800120DFF8041608702BE00020C2
:10539000DFF8F015896988470120DFF8E815C96949
:1053A00088470020DFF8DC15096A884742F2107050
:1053B000DFF8D41508800220DFF8D015087012E05D
:1053C0000020DFF8C015896988470020DFF8B41590
:1053D000C969884740F2DC50DFF8AC15088003202B
:1053E000DFF8A815087001BDF21300203813002063
:1053F000F61300207A130020F5130020F313002089
:105400003C130020F71300207C130020921300208F
:1054100016140020981300201214002010140020ED
:105420009A13002080B5DFF86805007800281BD0AB
:1054300001282DD0022859D0032871D0042800F06B
:105440009D800A2800F0B7800B2800F0C8800C2847
:1054500000F0F3800D2800F0FF800E2800F0158189
:105460000F2800F0398147E10120DFF8181549685D
:1054700088470020DFF80C15896888474EF66020C1
:10548000DFF8101508800120DFF80415087033E1FB
:10549000DFF80005008800281FD0DFF8FC04007842
:1054A000C0F34010C0B200281FD00020DFF8D41491
:1054B000496888470020DFF8CC14896888470020B5
:1054C000DFF8D814087041F28830DFF8C81408807B
:1054D0000220DFF8BC14087007E00120DFF8BC14DC
:1054E00008706320DFF8A814087005E1DFF8A40451
:1054F0000088002840F000810020DFF88814496807
:1055000088470120DFF87C14896888474EF66020C0
:10551000DFF8801408800320DFF874140870EBE0D3
:10552000DFF87004008800281FD0DFF86C040078D2
:10553000C0F38010C0B200281FD00020DFF8441450
:10554000496888470020DFF83C14896888470020B4
:10555000DFF84C14087041F28830DFF83814088006
:105560000420DFF82C14087007E00120DFF8301465
:1055700008706320DFF818140870BDE0DFF8140429
:105580000088002840F0B8800020DFF8F813496850
:1055900088470020DFF8EC13896888476320DFF82C
:1055A000F01308700120DFF8FC1308700020DFF80A
:1055B000F8130870A0E00120DFF8C8134968884795
:1055C0000020DFF8C013896888474EF66020DFF8B6
:1055D000C41308800B20DFF8B81308708CE0DFF8E4
:1055E000B403008800281FD0DFF8AC030078C0F3B4
:1055F0004010C0B200281FD00020DFF8881349688F
:1056000088470020DFF87C13896888470020DFF88E
:105610008C13087041F28830DFF8781308800C2072
:10562000DFF86C13087007E00120DFF870130870D2
:105630006320DFF85C1308705EE0DFF85803008831
:10564000002859D147F23050DFF8481308800D2068
:10565000DFF83C1308704FE0DFF8380300880028BB
:105660004AD10020DFF81C13496888470120DFF881
:105670001413896888474EF66020DFF818130880F5
:105680000E20DFF80C13087036E0DFF808030088FE
:1056900000281AD0DFF800030078C0F38010C0B2F1
:1056A000002818D00020B749496888470020B5492C
:1056B000896888470020BA49087041F28830B549A6
:1056C00008800F20B249087005E00120B449087035
:1056D0006320AF4908700FE0AE48008800280BD166
:1056E0000020A849496888470020A649896888475A
:1056F0006320A7490870FFE701BD80B59F48007887
:1057000000284FD0A748007800284BD0A248007846
:1057100010F00100002804D100209A49C968884788
:1057200040E0A1480078002806D0012811D00A28BE
:105730001CD00B2828D035E001209249C968884741
:105740004CF25030DFF8E8190880012096490870C3
:1057500028E0DFF8DC090088002823D100208949EF
:10576000C96888470A20904908701BE0DFF8C4091F
:10577000B0F90000332806DB01208249C968884758
:105780000B20894908700DE0DFF8A809B0F9000086
:10579000282806DA00207B49C96888470A20824900
:1057A0000870FFE701BD10B574490978002953D08E
:1057B000C0B2002808D100207249896B88470020B8
:1057C0007049C96B884747E0C0B2012802D14FF445
:1057D000967401E04FF4C874C0B2401E012802D98B
:1057E000801E35D038E0DFF850090068DFF84C192A
:1057F000884228D2DFF848090068002827D1200015
:1058000000B200F045F800280DD000205D49896BFA
:10581000884700205B49C96B88474EF66020DFF857
:105820002019086013E0B4F11E0000B200F042F845
:1058300000280CD001205349896B88470120514929
:10584000C96B884703E0200000B200F006F803E0CF
:10585000200000B200F001F810BD80B500B200F0E9
:1058600017F8002811D0DFF8D808006800280CD1FC
:1058700000204449896B884700204249C96B88470A
:10588000DFF8C008DFF8B81808603748006801BDC5
:1058900000B2DFF8B4180988884201DA012008E074
:1058A00000B2DFF8B4180988884201DA012000E06C
:1058B00000207047DFF89018098800B2814201DAB1
:1058C000012008E0DFF89018098800B2814201DA6F
:1058D000012000E00020704780B5284800780028AB
:1058E00041D0DFF86808007800283CD02A480078CA
:1058F00010F0010000282BD0DFF854080078DFF802
:105900005418B1F9001000B288420BDADFF84C08E5
:105910000078012827D0FBF767FE0120DFF83C184C
:10592000087020E0DFF82C08B0F90000DFF820183C
:105930000978891E884216DADFF8200800780228E4
:1059400011D0FBF75FFE0220DFF8101808700AE0A4
:10595000DFF808080078012805D0FBF745FE012094
:10596000DFF8F817087001BD0C180140341300204F
:105970000C1401400C0C01400C1001400B140020D1
:105980000A140020201000208A130020091400208F
:105990000C1400208C130020561300200D1400203E
:1059A0000E140020221400200F14002080B5DFF810
:1059B000B0070078002800F0B183DFF8A80700786E
:1059C00000283FD0022871D057D3042800F0B480BB
:1059D000C0F08580062800F00381C0F0CC80082844
:1059E00000F03181C0F01A810A2800F07681C0F001
:1059F00056810C2800F0C081C0F0A4810E2800F070
:105A00005482C0F0D681102800F06A82C0F057821C
:105A1000122800F0A282C0F08182142800F00483D2
:105A2000C0F0BF82162800F01A83C0F00783182840
:105A300000F02A83C0F01D831A2800F06B83C0F0A9
:105A400046836BE30120DFF81C170870B420DFF8F1
:105A500018170870DFF814070088DFF8141708809B
:105A60000020DFF8101708700120DFF80C1708700D
:105A70000020DFF80817087050E3DFF804070088FB
:105A800032280EDB0120DFF8FC16896988470020E8
:105A9000DFF8F016C969884742F21070DFF8E8169F
:105AA00008600220DFF8BC16087037E3DFF8D00684
:105AB0000088322812DA0020DFF8C8168969884782
:105AC0000120DFF8C016C969884742F21070DFF87C
:105AD000B81608600320DFF88C1608701EE3DFF8A4
