:020000040800F2
:10000000000400209DC80008A5C10008A7C1000881
:10001000A9C10008ABC10008ADC100080000000084
:10002000000000000000000000000000AFC1000858
:10003000B1C1000800000000B3C10008B5C100084C
:10004000B79D0008B79D0008B79D0008BDC1000816
:10005000B79D0008B79D0008BFC10008B79D000804
:10006000B79D0008D3C10008B79D0008C9C60008A5
:10007000B79D0008B79D0008B79D0008B79D000810
:10008000B79D0008B79D0008B79D0008D5C10008BE
:10009000D7C10008B79D0008B79D0008D9C1000866
:1000A000B79D0008DBC10008B79D0008B79D000898
:1000B000E9C10008F7C1000805C20008B79D0008A3
:1000C000B79D0008B79D0008B79D0008B79D0008C0
:1000D00015C2000817C2000871C3000861C40008F7
:1000E000ADC60008C5C60008B79D0008B79D00084A
:1000F00007C20008B79D0008B79D0008B79D00081B
:10010000B79D0008C7C60008B79D0008B79D000846
:100110004FC50008B79D0008B79D0008B79D0008AF
:10012000B79D0008B79D0008B79D0008B79D00085F
:1001300040B2002805D40901DFF8E82A40B2115482
:1001400008E00901DFF8B82C40B210F00F001044AD
:1001500000F8041C704780B5411EB1F1807F01D3C7
:10016000012011E0401EDFF8E01A08600F215FF067
:10017000FF30FFF7DDFF0020DFF8F01A08600720EE
:10018000DFF8A41C0860002002BD0020DFF89C1CE2
:100190000870DFF8DC0ADFF8AC1BDFF8902C12786F
:1001A00041F82200DFF8840C0078401CDFF87C1C4A
:1001B0000870DFF8E40ADFF88C1BDFF8702C127887
:1001C00041F82200DFF8640C0078401CDFF85C1C6A
:1001D0000870DFF8EC0ADFF86C1BDFF8502C12789F
:1001E00041F82200DFF8440C0078401CDFF83C1C8A
:1001F0000870DFF8D00ADFF84C1BDFF8302C1278DB
:1002000041F82200DFF8240C0078401CDFF81C1CA9
:100210000870DFF8B40ADFF82C1BDFF8102C127816
:1002200041F82200DFF8040C0078401CDFF8FC1BCA
:100230000870DFF8BC0ADFF80C1BDFF8F02B12782F
:1002400041F82200DFF8E40B0078401CDFF8DC1BEB
:100250000870DFF8A00ADFF8EC1ADFF8D02B12786C
:1002600041F82200DFF8C40B0078401CDFF8BC1B0B
:100270000870DFF8A80ADFF8CC1ADFF8B02B127884
:1002800041F82200DFF8A40B0078401CDFF89C1B2B
:100290000870DFF8B40ADFF8AC1ADFF8902B127898
:1002A00041F82200DFF8840B0078401CDFF87C1B4B
:1002B0000870DFF8B80ADFF88C1ADFF8702B1278B4
:1002C00041F82200DFF8640B0078401CDFF85C1B6B
:1002D0000870DFF8BC0ADFF86C1ADFF8502B1278D0
:1002E00041F82200DFF8440B0078401CDFF83C1B8B
:1002F0000870DFF8C00ADFF84C1ADFF8302B1278EC
:1003000041F82200DFF8240B0078401CDFF81C1BAA
:100310000870DFF8A40ADFF82C1ADFF8102B127827
:1003200041F82200DFF8040B0078401CDFF8FC1ACB
:100330000870DFF8880ADFF80C1ADFF8F02A127864
:1003400041F82200DFF8E40A0078401CDFF8DC1AEC
:100350000870DFF8B00ADFF8EC19DFF8D02A12785D
:1003600041F82200DFF8C40A0078401CDFF8BC1A0C
:100370000870DFF8BC0ADFF8CC19DFF8B02A127871
:1003800041F82200DFF8A40A0078401CDFF89C1A2C
:100390000870DFF8A00ADFF8AC19DFF8902A1278AD
:1003A00041F82200DFF8840A0078401CDFF87C1A4C
:1003B0000870DFF8C80ADFF88C19DFF8702A1278A5
:1003C00041F82200DFF8640A0078401CDFF85C1A6C
:1003D0000870DFF8D00ADFF86C19DFF8502A1278BD
:1003E00041F82200DFF8440A0078401CDFF83C1A8C
:1003F0000870DFF8B40ADFF84C19DFF8302A1278F9
:1004000041F82200DFF8240A0078401CDFF81C1AAB
:100410000870DFF8980ADFF82C19DFF8102A127834
:1004200041F82200DFF8040A0078401CDFF8FC19CC
:100430000870DFF8C00ADFF80C19DFF8F02912782D
:1004400041F82200DFF8E4090078401CDFF8DC19ED
:100450000870DFF8C80ADFF8EC18DFF8D029127846
:1004600041F82200DFF8C4090078401CDFF8BC190D
:100470000870DFF8D00ADFF8CC18DFF8B02912785E
:1004800041F82200DFF8A4090078401CDFF89C192D
:100490000870DFF8D80ADFF8AC18DFF89029127876
:1004A00041F82200DFF884090078401CDFF87C194D
:1004B0000870DFF8BC0ADFF88C18DFF870291278B2
:1004C00041F82200DFF864090078401CDFF85C196D
:1004D0000870DFF8C40ADFF86C18DFF850291278CA
:1004E00041F82200DFF844090078401CDFF83C198D
:1004F0000870DFF8C80ADFF84C18DFF830291278E6
:1005000041F82200DFF824090078401CDFF81C19AC
:100510000870DFF8AC0ADFF82C18DFF81029127821
:1005200041F82200DFF804090078401CDFF8FC18CD
:100530000870DFF8900ADFF80C18DFF8F02812785E
:1005400041F82200DFF8E4080078401CDFF8DC18EE
:100550000870DFF8740ADFF8EC17DFF8D02812789B
:1005600041F82200DFF8C4080078401CDFF8BC180E
:100570000870DFF8580ADFF8CC17DFF8B0281278D7
:1005800041F82200DFF8A4080078401CDFF89C182E
:100590000870DFF83C0ADFF8AC17DFF89028127813
:1005A00041F82200DFF884080078401CDFF87C184E
:1005B0000870DFF8200ADFF88C17DFF8702812784F
:1005C00041F82200DFF864080078401CDFF85C186E
:1005D0000870DFF8040ADFF86C17DFF8502812788B
:1005E00041F82200DFF844080078401CDFF83C188E
:1005F0000870704780B5DFF87C1A097800290DD0A3
:10060000012805D10121DFF8380B09F0D1FB29E0E1
:100610000121DFF82C0B09F0C8FB23E0012817D1DA
:100620000121DFF81C0B09F0C3FB0221DFF8100BDE
:1006300009F0BBFB0120DFF8401A08704EF660207D
:10064000DFF8381A08800120DFF8341A087009E052
:100650000121DFF8EC0A09F0A8FB0221DFF8E00A2B
:1006600009F0A3FB01BD80B5DFF8081A097800295D
:100670000DD0012805D10221DFF8C40A09F098FB4A
:1006800029E00221DFF8B80A09F08FFB23E00128F6
:1006900017D10121DFF8A80A09F087FB0221DFF852
:1006A000A00A09F085FB0020DFF8CC1908704EF68F
:1006B0006020DFF8C81908800120DFF8C41908702D
:1006C00009E00121DFF8780A09F06FFB0221DFF869
:1006D000700A09F06AFB01BD80B5DFF8A409007853
:1006E000002803D0022859D001D36AE069E0DFF87E
:1006F0008C09008800282DD0DFF87C0900780028BC
:1007000011D1DFF8400A0078C0F38010C0B2002891
:1007100043D04FF4FA60DFF8641908800220DFF854
:100720006019087039E0DFF850090078012834D1E9
:10073000DFF8100A0078C0F34010C0B200282CD0B7
:100740004FF4FA60DFF8341908800220DFF830191E
:10075000087022E0DFF82009007800280CD1DFF8CB
:10076000E809407850F04000DFF8DC1948700220BA
:10077000DFF80C19087010E0DFF8FC080078012899
:100780000BD1DFF8C409407850F02000DFF8B81929
:1007900048700220DFF8E818087012E0DFF8DC0883
:1007A000008800280DD10121DFF8940909F0FDFA35
:1007B0000221DFF88C0909F0F8FA0020DFF8C018F0
:1007C000087001BD80B5DFF8AC18097800290FD09A
:1007D000012806D14FF48071DFF8640909F0E8FAC6
:1007E00028E04FF48071DFF8580909F0DEFA21E0C3
:1007F000012814D14FF48071DFF8440909F0D8FAC8
:100800008021DFF83C0909F0D0FA42F21070DFF8DD
:100810003C1908800120DFF8381908700AE04FF40D
:100820008071DFF81C0909F0C0FA8021DFF8100997
:1008300009F0BBFA01BD80B5DFF838180978002946
:100840000DD0012805D18021DFF8F40809F0B0FAB5
:1008500027E08021DFF8E80809F0A7FA21E0012865
:1008600014D14FF48071DFF8D80809F09EFA802186
:10087000DFF8CC0809F09CFA42F21070DFF8CC18CF
:1008800008800120DFF8C81808700AE04FF4807172
:10089000DFF8AC0809F089FA8021DFF8A40809F034
:1008A00084FA01BD80B5DFF8A8080078002802D0DE
:1008B000012801D014E013E0DFF890080088002838
:1008C0000ED14FF48071DFF8780809F06EFA8021BC
:1008D000DFF86C0809F069FA0020DFF87418087076
:1008E00001BD80B5DFF88C17097800290DD00128EB
:1008F00005D14021DFF8480809F05AFA25E04021E7
:10090000DFF83C0809F051FA1FE0012813D140211B
:10091000DFF82C0809F04CFA2021DFF8240809F050
:1009200044FA0120DFF8C419087042F21070DFF8B1
:10093000C019088009E04021DFF8040809F035FA01
:100940002021DFF8FC0709F030FA01BD80B5DFF89F
:100950002417097800290DD0012805D12021DFF8BE
:10096000E00709F025FA25E02021DFF8D40709F097
:100970001CFA1FE0012813D12021DFF8C40709F079
:1009800017FA4021DFF8B80709F00FFA0120DFF865
:100990005C19087042F21070DFF85419088009E001
:1009A0004021DFF89C0709F000FA2021DFF89007CA
:1009B00009F0FBF901BD80B5DFF8300900780028A7
:1009C00002D0012801D013E012E0DFF824090088EA
:1009D00000280DD12021DFF8680709F0E6F9402151
:1009E000DFF85C0709F0E1F90020DFF80019087072
:1009F00001BD80B5DFF87C16097800290FD00128E9
:100A000006D14FF40061DFF8380709F0D1F92AE088
:100A10004FF40061DFF8280709F0C7F923E0012847
:100A200015D14FF40061DFF8180709F0C1F94FF450
:100A30008051DFF80C0709F0B8F90120DFF8B4188D
:100A4000087043F69820DFF8B01808800BE04FF4E8
:100A50000061DFF8EC0609F0A8F94FF48051DFF8E7
:100A6000E00609F0A2F901BD80B5DFF808160978A3
:100A700000290FD0012806D14FF48051DFF8C006BD
:100A800009F096F92AE04FF48051DFF8B40609F036
:100A90008CF923E0012815D14FF48051DFF8A0062E
:100AA00009F086F94FF40061DFF8940609F07DF94A
:100AB0000120DFF84018087042F21070DFF8381893
:100AC00008800BE04FF40061DFF8740609F06DF95F
:100AD0004FF48051DFF8680609F067F901BD80B571
:100AE000DFF810080078002802D0012801D015E0B6
:100AF00014E0DFF80408008800280FD14FF480517B
:100B0000DFF83C0609F051F94FF40061DFF83006D8
:100B100009F04BF90020DFF8DC17087001BD80B543
:100B2000002805D10421DFF8180609F03EF904E099
:100B30000421DFF80C0609F03BF901BD80B500285F
:100B400005D10821DFF8F80509F02FF904E00821A4
:100B5000DFF8EC0509F02CF901BD80B5002805D1BE
:100B60001021DFF8DC0509F020F904E01021DFF89E
:100B7000D00509F01DF901BD80B5002806D14FF45C
:100B80000071DFF8BC0509F010F905E04FF40071C1
:100B9000DFF8AC0509F00CF901BD80B5002806D1DD
:100BA0004FF48061DFF8980509F0FFF805E04FF495
:100BB0008061DFF88C0509F0FBF801BD80B50028E5
:100BC00006D14FF40051DFF8780509F0EEF805E0A2
:100BD0004FF40051DFF8680509F0EAF801BD80B56F
:100BE000002806D14FF48041DFF8540509F0DDF804
:100BF00005E04FF48041DFF8480509F0D9F801BD60
:100C000080B5002806D14FF40041DFF8340509F023
:100C1000CCF805E04FF40041DFF8240509F0C8F8EE
:100C200001BD000000E400E080B5002805D11021DE
:100C3000DFF89C0B09F0B9F804E01021DFF8900B05
:100C400009F0B6F801BD000014E000E080B500280E
:100C500005D10421DFF87C0B09F0A7F804E004219A
:100C6000DFF8700B09F0A4F801BD000018E000E007
:100C7000F505000880B5002806D14FF48051DFF853
:100C8000580B09F092F805E04FF48051DFF8480B5B
:100C900009F08EF801BD00006706000880B5002845
:100CA00006D14FF40061DFF8300B09F07EF805E063
:100CB0004FF40061DFF8200B09F07AF801BD000065
:100CC0001F0B00083D0B00085B0B000880B50028D7
:100CD00006D14FF40041DFF8040B09F066F805E097
:100CE0004FF40041DFF8F40A09F062F801BD00009A
:100CF0004D090008E308000880B5002806D14FF42C
:100D00008061DFF8D40A09F050F805E04FF4806103
:100D1000DFF8C40A09F04CF801BD000037080008EC
:100D200080B5002806D14FF40071DFF8AC0A09F055
:100D30003CF805E04FF40071DFF89C0A09F038F840
:100D400001BD000070100020C507000880B5002814
:100D500005D10821DFF8780A09F027F804E0082116
:100D6000DFF86C0A09F024F801BD0000790B0008D7
:100D700080B5002805D10121DFF8580A09F015F8DF
:100D800004E00121DFF84C0A09F012F801BD00006F
:100D90009B0B000880B5002805D10221DFF8340A3A
:100DA00009F003F804E00221DFF8280A09F000F84E
:100DB00001BD0000F3090008690A0008BD0B000826
:100DC00080B500280DD10821DFF8100A08F0EDFFEA
:100DD000DFF8600B007810F0FE00DFF8581B087099
:100DE0000CE00821DFF8F40908F0E2FFDFF8440B1B
:100DF000007850F00100DFF83C1B087001BD0000D6
:100E000018ED00E0DF0B000880B5002805D10421B3
:100E1000DFF8C80908F0C9FF04E00421DFF8BC09C5
:100E200008F0C6FF01BD000010E000E0DE14002065
:100E3000010C0008CD0C000880B500280ED14FF43D
:100E40008051DFF88C0908F0B0FFDFF8E80A00787D
:100E500010F0FD00DFF8DC1A08700DE04FF480514F
:100E6000DFF86C0908F0A4FFDFF8C80A007850F03A
:100E70000200DFF8C01A087001BD0000710D000803
:100E800080B5002806D14FF40051DFF8440908F07E
:100E90008CFF05E04FF40051DFF8340908F088FFBB
:100EA00001BD0000950D0008C10D0008090E0008E5
:100EB00080B500280ED14FF48051DFF8180908F0F2
:100EC00074FFDFF8700A007810F0FB00DFF8641A96
:100ED00008700DE04FF48051DFF8F80808F068FF63
:100EE000DFF8500A007850F00400DFF8481A087064
:100EF00001BD0000390E000880B5002806D14FF46E
:100F00000051DFF8D00808F050FF05E04FF4005121
:100F1000DFF8C00808F04CFF01BD0000810E00089A
:100F200080B5002806D14FF48041DFF8B00808F002
:100F30003CFF05E04FF48041DFF8A00808F038FFDF
:100F400001BD0000B10E000880B5002806D14FF4A5
:100F50000051DFF8880808F028FF05E04FF4005141
:100F6000DFF8780808F024FF01BD0000F90E000842
:100F7000210F000880B5002806D14FF48051DFF81A
:100F80005C0808F012FF05E04FF48051DFF84C08D0
:100F900008F00EFF01BD0000490F000880B5DFF822
:100FA00098090078012807D0DFF89009DFF8BC1A0B
:100FB000097850F82100804701BD0000750F000836
:100FC000290C00084D0C0008750C00089D0C000849
:100FD000F90C0008210D00084D0D0008DFF860092C
:100FE000DFF858190860DFF85C09DFF8501948602D
:100FF000DFF85409DFF844198860DFF85009DFF89A
:101000003C19C860DFF84809DFF830190861DFF8DB
:101010004409DFF828194861DFF83C09DFF81C199A
:101020008861DFF83809DFF81419C861DFF8300982
:10103000DFF808190862DFF82C09DFF800194862A8
:10104000DFF82C0ADFF8F4188862DFF8280ADFF8E6
:10105000EC18C862DFF8200ADFF8E0180863DFF850
:101060001C0ADFF8D8184863DFF8140ADFF8CC1838
:101070008863704763150020CE1400203C140020C4
:10108000CF140020704780B5DFF8C80B0078002827
:1010900006D0022817D004D3042840D02ED34EE027
:1010A0004DE0DFF8E0090088DFF8DC1909888842A4
:1010B00004D20320DFF89C1B087003E00420DFF853
:1010C000941B08703BE0DFF8C0090088801EDFF841
:1010D000B4190988884204DB0320DFF8781B087004
:1010E0000BE0DFF8A0090088DFF89C190988884226
:1010F00003D30420DFF85C1B087020E0DFF88C09C4
:101100000078002804D0DFF888090078002801D191
:1011100001F0F2FD0220DFF83C1B08700FE0DFF861
:101120006C090078012804D0DFF8640900780128F0
:1011300001D101F0D7FD0220DFF8181B087001BDB6
:10114000001801404A1400204C1400203E140020D6
:10115000D014002080B5DFF83C090088002840F05A
:10116000C380DFF8F00A0078DFF82C190870DFF888
:101170002C090078C0B2C009C0B200285DD0DFF8E9
:1011800018090078002808D0012807D0052817D0B2
:10119000062830D007283FD0A0E09FE0DFF8E40821
:1011A0000088DFF8E4180988884204D20620DFF8B6
:1011B000E818087003E00720DFF8DC1808708DE0FD
:1011C000DFF8C0080088DFF8C0180988884204D317
:1011D0000720DFF8C41808700CE0DFF8AC080088BE
:1011E000801EDFF8A0180988884203DB0620DFF89C
:1011F000A818087072E0DFF894080078002804D07E
:10120000DFF88C080078002801D101F075FD052079
:10121000DFF88418087061E0DFF8700800780128B2
:1012200004D0DFF86C080078012801D101F05AFDE4
:101230000520DFF86418087050E0DFF85C080078DB
:10124000002806D0022817D004D304283BD02ED380
:1012500044E043E0DFF82C080088DFF82C18098808
:10126000884204D20320DFF83018087003E004201D
:10127000DFF82418087031E0DFF808080088DFF88C
:1012800008180988884204D30420DFF80C18087075
:101290000CE0DFF8F4070088801EDFF8E817098803
:1012A000884203DB0320DFF8F017087016E0DFF850
:1012B000A8090078002801D101F0F5FD0220DFF82F
:1012C000D81708700AE0DFF890090078012801D1EA
:1012D00001F0DCFD0220DFF8C0170870DFF8B80766
:1012E0000078DFF87019087001BD0000D1140020EB
:1012F00040140020D21400204214002080B5DFF8F2
:1013000094070088002840F02D81DFF84809007814
:10131000DFF848190870DFF884070078C0B2C00908
:10132000C0B200285DD0DFF834090078002808D06A
:10133000012807D0032832D0042841D0052813D033
:101340000AE109E1DFF83C070088DFF83C1709886B
:10135000884204D20320DFF80419087003E0042057
:10136000DFF8F8180870F7E0DFF818070088DFF8F2
:1013700018170988884204D30420DFF8E0180870A1
:101380000CE0DFF804070088801EDFF8F8160988F3
:10139000884203DB0320DFF8C4180870DCE0DFF8C4
:1013A000EC060078002804D0DFF8E4060078002876
:1013B00001D101F0A1FC0520DFF8A0180870CBE0F6
:1013C000DFF8C8060078012804D0DFF8C4060078EA
:1013D000012801D101F086FC0520DFF88018087093
:1013E000BAE0DFF87808007800280DD001280CD08A
:1013F000022819D0032833D0052851D0062861D0FF
:10140000072800F0A080A7E0A6E0DFF878060088B3
:10141000462804DA0320DFF84418087003E00220AD
:10142000DFF83818087097E0DFF8600600780128C8
:1014300004D0DFF85C060078012801D101F052FCED
:1014400001F031FD0420DFF8141A0870DFF81008ED
:10145000DFF80C1A08600620DFF8001808707BE03F
:10146000DFF8F4070078012801D101F00FFD01F049
:1014700043FC0020DFF8EC1908804FF4FA70DFF825
:10148000E819088041F28830DFF8E019088001206F
:10149000DFF8C81908700520DFF8C01708705BE096
:1014A000DFF8E005008846280BDB01F01BFC01F0AB
:1014B000FAFC0420DFF8A41908700620DFF89C1756
:1014C000087049E0DFF8BC050088462804DA0320EC
:1014D000DFF88817087035E0DFF87C07007801280E
:1014E0001CD1DFF8A0050088DFF89C150988884228
:1014F00028D301F0CBFC0020DFF8681908804FF4F6
:10150000FA70DFF86419088041F28830DFF85C195E
:1015100008800120DFF84419087013E0DFF838076D
:10152000007800280ED1DFF860050088801EDFF803
:1015300054150988884205DB01F0B5FC0420DFF86A
:101540001C19087008E0DFF818090068002803D1AA
:101550000120DFF808170870DFF800070078DFF8CF
:10156000F416087001BD704780B5DFF8E806007812
:10157000DFF8FC180870DFF824050078C0B2C00955
:10158000C0B200285DD0DFF8E8080078002808D055
:10159000012807D0022817D0042830D005283FD0D2
:1015A0000EE10DE1DFF8DC040088DFF8DC140988C7
:1015B000884204D20420DFF8B818087003E0052040
:1015C000DFF8AC180870FBE0DFF8B8040088DFF83B
:1015D000B8140988884204D30520DFF894180870ED
:1015E0000CE0DFF8A4040088801EDFF89814098856
:1015F000884203DB0420DFF878180870E0E0DFF8A9
:101600008C040078002804D0DFF8840400780028D7
:1016100001D101F071FB0220DFF854180870CFE00F
:10162000DFF868040078012804D0DFF8640400784B
:10163000012801D101F056FB0220DFF834180870B0
:10164000BEE0DFF82C08007800280DD001280CD06F
:10165000022813D0032823D0042854D0062876D09B
:10166000072800F09180ABE0AAE00020DFF8DC1949
:1016700008700220DFF8F8170870A1E0DFF8040412
:101680000088DFF804140988884204D20420DFF8B7
:10169000E017087003E00620DFF8D41708708FE029
:1016A000DFF8E4030088801EDFF8D8130988884239
:1016B00004DB0420DFF8B817087023E0DFF8C40368
:1016C0000088DFF8C413098888421BD3DFF87C093F
:1016D000007800280AD1DFF878090078DFF86C1963
:1016E00008700620DFF8881708700BE0DFF89C030D
:1016F0000078012804D0DFF898030078012801D190
:1017000001F0F0FA5CE0DFF850050078012801D123
:1017100001F0BCFBDFF874030078002812D1DFF879
:101720007003007800280DD101F0E6FADFF81C09FB
:101730000078002806D0DFF814090078401EDFF892
:101740000C1908700320DFF82817087038E0DFF85C
:101750003C030078012804D0DFF834030078012826
:1017600001D101F0BFFADFF8F0040078002801D1C0
:1017700001F099FB4EF66020DFF8E41608600720C0
:10178000DFF8EC1608701BE0DFF8D40600680028CC
:101790000BD0BD480088801EBA49098888420FDBFB
:1017A0000420DFF8CC1608700AE0DFF8AC040078FB
:1017B000012801D101F06AFB0320DFF8B41608709C
:1017C000DFF8AC060078DFF88C14087001BD00006B
:1017D00000100140000C0140001C014000140140B9
:1017E00080B5DFF87004007800280AD0022820D0E5
:1017F00008D304285DD02DD3062800F08D806ED349
:1018000096E095E00020DFF8A8190870DFF8A40939
:10181000007810F0FD00DFF89C1908709A480088E5
:101820001E30DFF8941908800220DFF828140870B1
:101830007EE094480088DFF880190988884204D245
:101840000420DFF81014087003E00520DFF804140A
:1018500008706DE0DFF860090088801E89490988FA
:10186000884204DB0420DFF8EC1308700AE08548A6
:101870000088DFF844190988884203D30520DFF87F
:10188000D4130870DFF828090078012810D1DFF898
:1018900024090078C0F34000C0B2002808D1DFF866
:1018A000C0050068002803D10620DFF8A8130870DF
:1018B0003EE0DFF8A4030078012801D101F0E6FA48
:1018C00072480078002803D071480078002801D1C0
:1018D00001F012FA0320DFF87C13087028E06B484F
:1018E0000078012803D06A480078012801D101F06E
:1018F000F9F9DFF8BC080078002808D1DFF8BC0847
:10190000DFF85C1508600120DFF8A41808700320D8
:10191000DFF8401308700BE0DFF89808007850F00B
:101920000200DFF8901808700320DFF82813087011
:1019300001BD00004E1400205C1500201011002095
:10194000851000088710000855110008FD120008D6
:101950006715000869150008E117000869190008F3
:10196000A11A0008651C000880B5BA480078DFF8A5
:1019700050180870DFF848080078002806D00228C0
:1019800021D004D3042840D034D356E055E00020C1
:10199000DFF830180870DFF81C08007810F0FD0040
:1019A000DFF81018087037480088374909888842DE
:1019B00004D20320DFF80818087003E00420DFF8E1
:1019C0000018087039E02F4800882F49098888429C
:1019D00004D30420DFF8E81708700AE02A480088DA
:1019E000801E28490988884203DB0320DFF8D017CE
:1019F000087022E098480078002801D101F053FADD
:101A00000220DFF8BC17087017E09348007801281F
:101A100001D101F03BFADFF8AC070078002808D1CB
:101A2000DFF89807DFF8A01708600120DFF89417A7
:101A300008700220DFF888170870DFF88807007840
:101A400001280CD1DFF880070068002807D1DFF8F3
:101A50006407007850F00200DFF858170870DFF8CC
:101A6000600700787B49087001BD00004215002026
:101A7000671C0008751E0008552000087921000821
:101A8000432100085A140020841400202C15002043
:101A9000301500204C140020D31400209414002092
:101AA00080B56C480078DFF898180870DFF8900867
:101AB000007800280CD0022817D00AD304283ED082
:101AC00022D306285FD04AD3072800F0A380A9E0DC
:101AD000A8E00020DFF8EC160870DFF8D8060078E0
:101AE00010F0FD00DFF8CC160870DFF85808008809
:101AF000462804DA0420DFF84818087003E00320C1
:101B0000DFF83C1808708DE0DFF83C080078012809
:101B100004D0DFF838080078012801D101F0E2F89C
:101B200001F0C1F90420DFF8341308704C48DFF8E5
:101B3000301308600620DFF80818087072E0464885
:101B40000078012801D101F0A1F901F0D5F80420B5
:101B5000C24908700520DFF8E817087062E0DFF876
:101B6000E407008846280DDB01F0BCF801F09BF982
:101B70000420BA4908703A48B94908600620DFF8DD
:101B8000C01708704EE0B648006800283DD03248C3
:101B90000078012826D1DFF8AC070088DFF8A0180C
:101BA0000988884235D301F071F90020AD490880D9
:101BB0004FF4FA70AC49088041F28830AB49088094
:101BC0000120A6490870DFF8FC050078002820D124
:101BD000DFF8E805DFF8F01508600120DFF8E4150C
:101BE000087016E01C480078002812D1DFF8500871
:101BF0000088801EDFF84C170988884209DB01F055
:101C000052F904209549087003E00120DFF83017ED
:101C1000087007E092480068002803D10220DFF82E
:101C200020170870DFF89C05007801280CD1DFF838
:101C300098050068002807D1DFF87805007850F093
:101C40000200DFF870150870DFF8F406007801492B
:101C5000087001BD4315002036150020D414002063
:101C6000E0930400704780B5DFF8600A0078DFF881
:101C7000C4180870DFF8BC08007800280BD00228D0
:101C800026D009D3042868D034D3062800F0B080C9
:101C9000C0F08480C9E0C8E00020DFF8B01308700D
:101CA0000020DFF820150870DFF80805007810F034
:101CB000FD00DFF800150870DFF8840700881E308B
:101CC000DFF87C1708800220DFF868180870ACE0A5
:101CD000DFF870060088DFF868170988884204D2A8
:101CE0000420DFF85018087003E00520DFF84418DE
:101CF00008709AE0DFF848070088801EDFF8441675
:101D00000988884204DB0420DFF82818087023E0E3
:101D1000DFF830060088DFF82817098888421BD3CF
:101D2000DFF82803007800280AD1DFF824030078C0
:101D3000DFF8181308700520DFF8F81708700BE0BB
:101D4000DFF804060078012804D0DFF800060078E8
:101D5000012801D100F0C6FF67E0DFF8DC0700785A
:101D6000012801D101F092F8DFF8DC0500780028A5
:101D70000FD1DFF8D805007800280AD100F0BCFFA9
:101D8000B2480078002804D0B0480078401EAF491F
:101D900008700320DFF89C17087046E0DFF8A805FC
:101DA0000078012804D0DFF8A4050078012801D1CB
:101DB00000F098FFDFF880070078002801D101F0DB
:101DC00072F84EF6602026490860DFF8F8030078C4
:101DD000002808D1DFF8E403DFF8EC1308600120E5
:101DE000DFF8E01308700620DFF8481708701CE0E1
:101DF0001B48006800280DD0DFF844060088801ECC
:101E0000DFF84015098888420FDB0420DFF824172B
:101E100008700AE0DFF820070078012801D101F0FE
:101E200035F80320DFF80C170870DFF89803007806
:101E300001280CD1DFF890030068002807D1DFF8F3
:101E40007403007850F00200DFF868130870DFF8C0
:101E5000E4060078DFF87418087001BD5B150020F7
:101E6000D8130020A2140020A4140020A6140020DF
:101E7000D614002080B5DFF854080078DFF8501839
:101E80000870DFF84C08007800280FD0022813D023
:101E90000DD304285ED042D3062800F08F8071D382
:101EA000082800F0C080C0F0A680C7E0C6E002208D
:101EB000DFF81C180870C1E0DFF888040088DFF83C
:101EC00080150988884204D20420DFF804180870BD
:101ED00024E0DFF80008B0F9000000281AD0DFF88D
:101EE00064040088DFF85815098888420DD3DFF8AC
:101EF00054040088DFF8DC17B1F90010884204DAD6
:101F00000720DFF8CC17087008E00820DFF8C017BA
:101F1000087003E00520DFF8B81708708EE0DFF8DE
:101F200020050088801EDFF81C140988884204DB25
:101F30000420DFF89C1708700BE0DFF80804008825
:101F4000DFF8FC140988884203D30520DFF88017E6
:101F5000087073E0DFF8E0050078012801D100F097
:101F600095FFDFF8E4030078002804D0DFF8DC03F5
:101F70000078002801D100F0BFFE0320DFF85017E1
:101F800008705BE0DFF8C0030078012804D0DFF8B8
:101F9000BC030078012801D100F0A4FEDFF834076B
:101FA000B0F90000002804D10320DFF824170870DE
:101FB00003E00720DFF8181708703FE0DFF8140788
:101FC000B0F90000801EDFF87C130988884204DB2A
:101FD0000720DFF8FC1608700CE0DFF868030088C3
:101FE000DFF8F016B1F90010884203DB0820DFF8B3
:101FF000E016087022E0DFF850030078012804D0D2
:10200000DFF848030078012801D100F06BFEDFF80B
:1020100028050078002801D100F045FF0620DFF8F0
:10202000B01608700AE0DFF810050078012801D129
:1020300000F02CFF0620DFF898160870DFF89006F5
:102040000078DFF88816087001BD0000D514002064
:102050004115002080B5DFF874060078DFF87816A7
:102060000870DFF874060078002808D002280CD029
:1020700006D3042836D01AD305284BD05AE059E0AD
:102080000220DFF85416087054E0DFF8B802008828
:10209000DFF8AC130988884204D20420DFF8381630
:1020A000087003E00520DFF83016087042E0DFF822
:1020B00090030088801EDFF88C120988884204DBB8
:1020C0000420DFF8141608700BE0DFF878020088AF
:1020D000DFF86C130988884203D30520DFF8F81570
:1020E000087027E0DFF850040078012801D100F0E3
:1020F000CDFEDFF854020078002804D0DFF84C024F
:102100000078002801D100F0F7FD0320DFF8C815A2
:1021100008700FE0DFF830020078012804D0DFF803
:102120002C020078012801D100F0DCFD0320DFF84B
:10213000A8150870DFF8A0050078DFF89015087082
:1021400001BD80B580480078012803D07F48007821
:10215000012801D100F0C6FDDFF8DC03007801287A
:1021600001D100F093FE0020DFF824180870012050
:10217000DFF85815087001BD80B573480078012854
:1021800003D072480078012801D100F0ABFDDFF8E0
:10219000A8030078012801D100F078FE0020DFF8C4
:1021A000F01708700020DFF82415087001BD00004A
:1021B000D71400206115002044140020C027090016
:1021C000D9140020D8140020DC13002080B501F0C1
:1021D000B6F902F010F801F0D1F84FF47A7008F077
:1021E00027FADFF8A03A002247F60101062002F0A4
:1021F0006FFD0821DFF88C0A08F091FBDFF8883AC0
:10220000002247F60101062002F062FD0821DFF8F6
:10221000780A08F09BFB002004F0EAFD0120DFF8BB
:102220009C1A08700120DFF8981A0880DFF8380A35
:10223000007850F00400DFF8301A0870DFF8280A40
:10224000007850F00800DFF8201A087001F0A5FBB4
:1022500001F0D0FF01F094FC01F068FD01F04CFEAC
:1022600001F038FF02F008FE02F0FCF802F012FC68
:1022700002F0DAFE04F030FB04F032FB04F042FB23
:1022800004F050FC04F096FC00F028FA00F084FB07
:1022900000F06EFD00F046FE00F0B4FF05F032F9EC
:1022A00001F018F805F076FE04F0CEFC05F032FCE3
:1022B00005F060FC05F01CFDDFF8140C007805F05B
:1022C00072FD05F0DDFE06F0B7FA06F0EBFD07F053
:1022D000A5F807F081F900F031F907F041F907F0AE
:1022E00023FAFEF75BFE07F098FAFEF7F5F9FEF722
:1022F000D9FAFEF760FBFEF7F2FB00F009F807F0F1
:10230000B7FA07F0C7FB07F0FEFB07F03BFC9DE7C1
:1023100080B500F01DF800F095F800F0C2F800F06C
:10232000EFF801BDDFF8301A0870DFF8301A0870D6
:10233000DFF82C1A0870DFF89C1B0870704700004B
:10234000DA1400205A1400202C150020301500202B
:1023500080B5DFF8040A0078002808D0022816D0DB
:1023600006D3042842D02DD305285AD066E065E074
:102370000120DFF8F0190968884740F28A20DFF869
:10238000E81908800220DFF8D019087056E0DFF85D
:10239000D8090088002804D10520DFF8BC1908708E
:1023A0000FE0DFF8C4080078C0F34010C0B2002886
:1023B00007D03220DFF8B01908800320DFF8981921
:1023C00008703BE0DFF8A0090088002836D1012022
:1023D000DFF890194968884740F28A20DFF88819A9
:1023E00008800420DFF87019087027E0DFF878090A
:1023F0000088002804D10520DFF85C1908700FE080
:10240000DFF864080078C0F38010C0B2002807D05D
:102410003220DFF8541908800520DFF83C190870D5
:102420000CE0DFF844090088002807D10120DFF81C
:102430003C1908700020DFF82019087001BD000069
:102440008414002080B5DFF814090078002805D036
:10245000022812D003D303281ED021E020E001205F
:10246000DFF80019496988476E20DFF81C1A0880D8
:102470000220DFF8E818087012E0DFF80C0A008884
:1024800000280DD10120DFF8DC1889698847032076
:10249000DFF8C818087003E00020DFF8C0180870E3
:1024A00001BD80B5DFF8B8080078002805D0022803
:1024B00012D003D303281ED021E020E00120DFF852
:1024C000A418C96A88476E20DFF80C1A0880022019
:1024D000DFF88C18087012E0DFF8FC09008800288B
:1024E0000DD10120DFF87C18096B88470320DFF845
:1024F0007018087003E00020DFF86418087001BD50
:1025000080B5DFF8D0090078002803D002280CD06D
:1025100001D30EE00DE00120DFF84818C9698847B3
:102520000220DFF8B019087003E00020DFF8A419DA
:10253000087001BDDB1400203615002010B5DFF84F
:102540009C090078002817D1DFF89409007800284A
:1025500008D1DFF890090078022803D00220DFF8C4
:1025600088190870DFF884090078022803D0022057
:10257000DFF87C190870A7E0DFF8EC060078C0F3FC
:102580000010C0B200284ED0DFF85C0C00780128A3
:1025900040F09A8000241BE0DFF858090078210001
:1025A0002039084110F00100DFF8B81751F8241065
:1025B00088470CE0202CEFDADFF83C090068E040A7
:1025C00010F00100DFF89C1751F824108847641CB4
:1025D000DFF8280900788442ECDBDFF82409007872
:1025E000012804D0DFF81C090078012801D100F08F
:1025F00083FBDFF814090078012801D100F053FCB7
:10260000DFF808090078DFF8081908700020DFF803
:10261000041908700220DFF8D81808700020DFF8CD
:10262000C81B087050E0DFF8C00B007800284BD1C1
:10263000DFF8E8050068DFF8C0180860DFF8D808A0
:102640000078DFF8B0180870DFF8C4080078DFF809
:10265000BC180870DFF8C4080078DFF8A418087008
:10266000DFF8880B0078DFF89C180870DFF8800B23
:102670000078DFF894180870DFF8A00800780128C7
:1026800004D0DFF8680B0078012801D100F02AFBA4
:10269000DFF85C0B0078012801D100F0F7FBDFF8D0
:1026A00070080078012803D10120DFF87418087041
:1026B0000120DFF83C1808700220DFF82C180870A1
:1026C0000120DFF8241B087010BD00004315002016
:1026D000DC1400209E140020DD14002080B5DFF8FB
:1026E0003C080078002800F05181DFF87C0C00786D
:1026F00000281FD0022846D01DD3042875D050D3FF
:10270000062800F0A480C0F08980082800F0F0803E
:10271000C0F0B9800A2800F0FC80C0F0CB800C2803
:1027200000F01B81C0F004810E2800F02781C0F06A
:1027300024812BE12AE1DFF8BC0A0078C0F3C00055
:10274000C0B200280DD0012007F034F8914800787D
:1027500050F020008F4908700D20DFF80C1C087025
:1027600010E0DFF8900A007810F00100002809D08E
:102770008848007810F0F700864908700220DFF8DA
:10278000E81B087002E14FF4FA70DFF86C1A088059
:102790000320DFF8D41B08700220DFF8601A0870ED
:1027A000F4E0DFF8540A0088002840F0EF800020B1
:1027B000DFF8B015096D88470020DFF8A815C96C4F
:1027C00088470120DFF89C15496E8847DFF8300AFA
:1027D000C07802F0D4F940F6B830DFF81C1A08804F
:1027E0000420DFF8841B0870D0E0DFF80C0A0088B2
:1027F000002840F0CB800120DFF86815096D88477C
:10280000DFF8FC09817A4FF47A704143DFF8E80978
:1028100001800520DFF8501B0870B7E0DFF8D80909
:102820000088002840F0B2800120DFF83815C96C1C
:102830008847DFF8CC09C17A4FF47A704143DFF85A
:10284000B80901800620DFF8201B08709EE0DFF841
:10285000A8090088002811D0DFF80C044078C0F3E4
:102860004000C0B200280DD00720DFF8FC1A087025
:102870004FF47A70DFF88019088003E00920DFF850
:10288000E81A087082E0DFF87009008800280CD090
:10289000DFF8D4034078C0F34000C0B2002808D16C
:1028A0000920DFF8C41A087003E00A20DFF8B81A1C
:1028B00008706BE0DFF84409007800280BD0DFF8DF
:1028C0003C090078401EDFF8341908700320DFF857
:1028D000981A08700BE0DFF8F809007850F0010052
:1028E000DFF8EC1908700820DFF87C1A08704DE05A
:1028F0000020DFF87014096D88470020DFF86414A9
:10290000C96C884700F0EEF90E20DFF85C1A0870F9
:102910003CE0DFF8EC08007902F031F94FF4FA609E
:10292000DFF8D41808800B20DFF83C1A08702DE07F
:10293000DFF8C4080088002828D10020DFF824141C
:10294000096D88471348007850F008001149087055
:102950000C20DFF8141A087018E0C3484078C0F360
:102960004000C0B2002807D1DFF86409007850F0B9
:102970000800DFF85C19087008E007E00020DFF8C5
:102980009C1508700020DFF8E019087001BD0000F8
:10299000421500204E14002080B5DFF8580800785A
:1029A000C0F34000C0B2002800F03681DFF83C08D8
:1029B0000078002800F03081DFF8740C00780028DF
:1029C00022D0012821D002282CD0032838D0042876
:1029D00057D005286DD0062800F08380072800F026
:1029E0009B80082800F0CC80092800F0AB800A28E2
:1029F00000F0D5800B2800F0E1800C2800F0F48076
:102A00000E2800F0018107E106E1DFF86009007897
:102A100010F0EF00DFF8541908700220DFF8101CE6
:102A20000870F9E04FF4FA70DFF8441908800320C9
:102A3000DFF8FC1B08700220DFF838190870EBE0A3
:102A4000DFF82C090088002840F0E6800020C54906
:102A5000896D88470020C349496D88470120C149D5
:102A6000896E8847DFF89807007A02F0A7F840F6E9
:102A7000B830DFF8FC1808800420DFF8B41B0870B9
:102A8000CAE0DFF8EC080088002840F0C58001208B
:102A9000B449896D8847DFF86807817A4FF47A7006
:102AA0004143DFF8CC0801800520DFF8841B087063
:102AB000B2E0DFF8BC080088002840F0AD800120BB
:102AC000A849496D8847DFF83807C17A4FF47A7012
:102AD0004143DFF89C0801800620DFF8541B087092
:102AE0009AE0DFF88C080088002810D05E48407813
:102AF000C0F38000C0B200280DD00720DFF8301BE3
:102B000008704FF47A70DFF86818088003E0092035
:102B1000DFF81C1B08707FE0DFF8540800880028ED
:102B20000BD051484078C0F38000C0B2002808D1D3
:102B30000920DFF8FC1A087003E00A20DFF8F01A19
:102B4000087069E0DFF82C08007800280BD0DFF867
:102B500024080078401EDFF81C1808700320DFF8F6
:102B6000D01A08700BE0DFF86807007850F0020018
:102B7000DFF85C1708700820DFF8B41A08704BE023
:102B800000207849896D884700207649496D88473B
:102B900000F0A8F80E20DFF8981A08703CE0DFF883
:102BA0006006407A02F00AF84FF4FA60DFF8C017C6
:102BB00008800B20DFF8781A08702DE0DFF8B007E6
:102BC0000088002828D100206649896D8847DFF8F1
:102BD0009C07007850F01000DFF8901708700C2068
:102BE000DFF84C1A087017E01F484078C0F38000E7
:102BF000C0B2002807D1DFF8D806007850F01000E6
:102C0000DFF8CC16087007E00020DFF8E015087048
:102C10000020DFF81C1A087001BD00000814002015
:102C2000C0B2002802D0012805D008E00220DFF859
:102C3000041A087003E00320DFF8F8190870012077
:102C4000DFF8F41908700020DFF8841608800120EE
:102C5000A54908700420DFF8E41908700120DFF8A6
:102C6000601C0870704700004A1400200E20DFF836
:102C7000C419087002209C4908700420DFF8BC19B0
:102C8000087070473012002098120020DFF8B01949
:102C900008700120DFF8A01908700020DFF8301656
:102CA00008800120904908700420DFF8901908700E
:102CB0000520DFF8801908707047000068150020B3
:102CC000481400200020DFF8781908700E20DFF883
:102CD000641908700420DFF8641908700220824922
:102CE000087070470120DFF85C1908700020DFF8D9
:102CF000D41B08707047000080B501208749087018
:102D00000120DFF8641608700120DFF8E014087075
:102D10000120DFF81C190870DFF8D40400780128BE
:102D200001D100F0B3F80020DFF81819087001BDD8
:102D300080B50120794908700120DFF82C16087051
:102D4000DFF8AC040078012801D100F09FF80020E2
:102D5000DFF8F018087001BD6C1500206B1500201D
:102D60006A15002070100020AE14002040150020CD
:102D700080B5DFF8D0080078002800F08480DFF804
:102D8000440B0078002802D0012865D07BE00020A9
:102D9000624908700020DFF8E01508700020DFF8B5
:102DA000C81508700020DFF888180870DFF8BC0527
:102DB000007810F0F700DFF8B4150870DFF8AC0504
:102DC000007810F0EF00DFF8A4150870DFF8240495
:102DD0000078C0F3C000C0B2002807D0002006F081
:102DE000E9FC0020DFF85C1808704CE00020DFF8F8
:102DF000D81A096D88470020DFF8CC1AC96C8847BB
:102E00000120DFF8C41A496E88470020DFF8B81A9D
:102E1000896D88470020DFF8B01A496D8847012086
:102E2000DFF8A41A896E8847DFF8D403807801F0B0
:102E3000A6FEDFF8CC03C07901F0C0FEDFF8C003C6
:102E4000017B4FF47A704143DFF8800A0180012052
:102E5000DFF8701A087016E0DFF8700A00880028A2
:102E600011D10020DFF8601A496E88470020DFF892
:102E7000581A896E88470020DFF8481A0870002029
:102E8000DFF8C017087001BDB01400200120DFF882
:102E9000401A08700020DFF83C1A08700020DFF8A4
:102EA000D81C087070470120D14908700120DFF854
:102EB000101A08700120DFF8201A08700020DFF8CF
:102EC000101A08700120DFF8B01C0870704700006D
:102ED0004715002069150020B21400203D15002080
:102EE000531500204F1500204E15002051150020CD
:102EF00050150020181500200C140020DE140020AE
:102F00002D15002031150020371500202715002031
:102F10002615002029150020171500202C1500204B
:102F20002815002080B5B2480078002800F05A81AA
:102F3000DFF8A409007800281FD002284ED01DD346
:102F400004287DD058D3062800F0AC80C0F09180D2
:102F5000082800F0F680C0F0C1800A2800F0078140
:102F6000C0F0D3800C2800F02681C0F00F810E281D
:102F700000F03181C0F02E8134E133E19D480078CA
:102F8000C0F38000C0B200280CD0DFF8E003007866
:102F900010F0DF00DFF8D41308700220DFF83819D2
:102FA00008701AE093480078C0F30010C0B20028FF
:102FB0000FD0012006F019FCDFF8B003007850F0C4
:102FC0002000DFF8A81308700D20DFF80C19087036
:102FD00003E00020DFF80019087003E14FF4FA70F5
:102FE000DFF82C1B08800320DFF8EC1808700220A3
:102FF000DFF8301B0870F5E0DFF8140B00880028BC
:1030000040F0F0800020DFF8C018096E88470020EB
:10301000DFF8B418C96D88470120DFF8AC18C96E15
:103020008847DFF8040BC07801F0ECFD40F6B830BB
:10303000DFF8DC1A08800420DFF89C180870D1E063
:10304000DFF8CC0A0088002840F0CC800120DFF8AF
:103050007818096E8847DFF8D00A41794FF47A7002
:103060004143DFF8AC0A01800520DFF86C180870D6
:10307000B8E0DFF89C0A0088002840F0B380012007
:10308000DFF84418C96D8847DFF89C0A81794FF44E
:103090007A704143DFF8780A01800620DFF838189B
:1030A00008709FE0DFF8680A0088002811D0DFF878
:1030B000CC0A4078C0F3C000C0B200280DD0072071
:1030C000DFF8141808704FF47A70DFF8441A08809B
:1030D00003E00920DFF80018087083E0DFF8300A09
:1030E000008800280CD0DFF8940A4078C0F3C000B4
:1030F000C0B2002808D10920DFF8DC17087003E00F
:103100000A20DFF8D41708706CE0DFF8180A00789E
:1031100000280BD0DFF80C0A0078401EDFF8041AF4
:1031200008700320DFF8B017087009E068480078DD
:1031300050F00400664908700820DFF89C170870FA
:1031400050E00020DFF88017096E88470020DFF884
:103150007817C96D8847DFF878070078002801D113
:10316000FFF794FE0E20DFF8701708703AE0DFF8E2
:10317000B809007901F046FD4FF4FA60DFF89019C4
:1031800008800B20DFF8501708702BE0DFF880096B
:103190000088002826D10020DFF82C17096E884708
:1031A0007248007850F02000704908700C20DFF859
:1031B0002817087016E0DFF8C4094078C0F3C00093
:1031C000C0B2002805D14248007850F020004049A4
:1031D000087007E006E00020054908700020DFF8CD
:1031E000F816087001BD00005C15002030150020A5
:1031F0003615002094140020801400202F15002084
:10320000AC13002080B5DFF8C806007800285DD038
:10321000DFF8C0060078002802D0012844D055E02D
:103220000020DFF8F01A08700020DFF8AC160870F4
:103230004E48007810F0DF004C490870DFF8D80ADB
:103240000078C0F38000C0B200281DD00020DFF855
:103250007816096E88470020DFF86C16C96D88471C
:103260000120DFF86416C96E8847DFF8BC08807853
:1032700001F0C8FCDFF8B008C1794FF47A7041431F
:10328000DFF8980A01800AE0DFF88C0A0078C0F3C2
:103290000010C0B2002802D0002006F0A6FA0120DB
:1032A000DFF83016087011E0DFF8700A0088002897
:1032B0000CD10020DFF81016C96E88470020DFF817
:1032C000141608700020DFF80816087001BD000011
:1032D0004C14002080B5DFF8480A0078002841D05F
:1032E000DFF8340A007810F0140F04D10120DFF861
:1032F000341A087036E0DFF8300A0078002831D13F
:10330000DFF8BC05007800282CD0DFF870080078C2
:1033100010F00100002812D00020DFF8AC15096978
:1033200088474FF4FA60DFF8381B08800120DFF887
:10333000401D08700120DFF8EC19087012E0012030
:10334000DFF8841509698847DFF8240D0078012823
:1033500008D1DFF80C0B0088002803D10020DFF82B
:10336000101D087001BD00002E1500204E14002015
:1033700082140020331500203015002010B5FCF712
:1033800004FFFDF72BFE002406E00020DFF83815CF
:1033900051F824108847641CDFF82C0B0078844215
:1033A000F3DB4FF40051DFF8240B06F001FD4FF47E
:1033B0000041DFF8180B06F0F8FC4FF48061DFF8ED
:1033C0000C0B06F0F5FC4FF48051DFF8000B06F013
:1033D000ECFC8021DFF8F40A06F0EAFC4FF40071FF
:1033E000DFF8E80A06F0E1FC1021DFF8E00A06F059
:1033F000DFFC4021DFF8D40A06F0D7FC41F2883028
:1034000000F090FF0A2001F0BAFB142001F0D6FB77
:103410001E2001F0F7FB0120DFF8B41A087001202C
:10342000DFF8B01A08700120DFF8AC1A087001202C
:10343000DFF8A81A08706420DFF8A41A0870642066
:10344000DFF8A01A08706420DFF89C1A0870642066
:10345000DFF8981A08701B20DFF8941AC87034201F
:10346000DFF88C1A08713420DFF8841A887026205F
:10347000DFF87C1A08724A20DFF8741A48724A2072
:10348000DFF86C1AC8710320DFF8641A8872032011
:10349000DFF85C1AC8720520DFF8541A0873272079
:1034A000DFF88416C8704820DFF87C1608714820C1
:1034B000DFF8741688700320DFF86C16487103205B
:1034C000DFF8641688710520DFF85C16C8710120EA
:1034D000DFF8201A08700120DFF8301B0870012087
:1034E000DFF82C1B08700120DFF8401B087001205A
:1034F000DFF83C1B08700120DFF8481B0870012032
:10350000DFF8541B08700120DFF8501B0870012001
:10351000DFF8601B08700120DFF85C1B08700120D9
:10352000DFF8581B08700120DFF8541B08700120D9
:10353000DFF8501B08700020E149087010BD80B50D
:1035400007F036FA5FF4803007F062FA07F08AFA83
:10355000DFF8901C0870DFF88C0C0078012824D16B
:10356000002007F0BAFA002007F0CBFA4FF4806091
:1035700007F0BDFA102007F0AFFB022007F0A0FB18
:103580005FF4E0115FF4803007F088FA012007F063
:1035900091FA392007F056FB0028FAD0022007F0F4
:1035A0008DFA07F095FA0828FBD10121042007F0D5
:1035B00029FB0121082007F025FB0121102007F03D
:1035C00021FB0121202007F01DFB0121402007F0F5
:1035D00019FB0121802007F015FB01214FF48070B9
:1035E00007F010FB01214FF4804007F00BFB012195
:1035F0005FF4003007F016FB01215FF4802007F034
:1036000011FB01215FF4002007F00CFB01210120D8
:1036100007F0E8FA01214FF4005007F0F3FA00F048
:1036200013F807F0C9F800F067F900F057F901BD89
:103630003215002042150020431500205B150020A4
:10364000411500203415002080B54FF4E070ADF82E
:10365000000018208DF8030003208DF80200694651
:10366000DFF86C0A06F034FB4BF2D060ADF80000D6
:1036700010208DF8030003208DF802006946DFF862
:103680004C0806F025FB44F62010ADF80000482059
:103690008DF8030003208DF802006946DFF82C083E
:1036A00006F016FB4FF40070ADF8000018208DF8FE
:1036B000030003208DF802006946DFF82C0B06F0AA
:1036C00007FB4FF48060ADF8000004208DF8030084
:1036D0006946DFF8140B06F0FBFA0420ADF8000091
:1036E00018208DF8030003208DF802006946DFF8EA
:1036F000F80A06F0EDFA0820ADF8000004208DF875
:1037000003006946DFF8E00A06F0E2FA4FF4806051
:10371000ADF8000018208DF8030003208DF802009A
:103720006946DFF8D00C06F0D3FA4FF40060ADF82C
:10373000000004208DF803006946DFF8B80C06F09D
:10374000C7FA4FF48060ADF8000018208DF8030030
:1037500003208DF802006946DFF8740906F0B8FA14
:103760004FF40060ADF8000004208DF803006946B6
:10377000DFF85C0906F0ACFA4FF6FF70ADF8000018
:1037800010208DF8030003208DF802006946DFF851
:103790005C0A06F09DFA4FF20C00ADF80000102014
:1037A0008DF8030003208DF802006946DFF8400A17
:1037B00006F08EFA4FF47F60ADF8000048208DF8D7
:1037C000030003208DF802006946DFF8240A06F0A2
:1037D0007FFA43F20300ADF8000010208DF80300DB
:1037E00003208DF802006946DFF8080C06F070FA35
:1037F0004FF44340ADF8000048208DF8030003204B
:103800008DF802006946DFF8EC0B06F061FA4FF420
:103810004050ADF8000010208DF8030003208DF813
:1038200002006946DFF8A80806F052FA4FF460403B
:10383000ADF8000010208DF8030003208DF8020081
:103840006946DFF8DC0A06F043FA0320ADF8000011
:1038500048208DF8030003208DF802006946DFF848
:103860006C0606F035FA1820ADF8000010208DF82F
:10387000030003208DF802006946DFF8540806F0C3
:1038800027FA4FF4F050ADF8000010208DF8030037
:1038900003208DF802006946DFF8840A06F018FA62
:1038A0000420ADF8000010208DF8030003208DF8EF
:1038B00002006946DFF83C0B06F00AFA01BD000081
:1038C00045150020351500207010002088140020B8
:1038D0003A1500203B1500203815002080B548F629
:1038E000A040FCF738FC002800D0FEE700215FF084
:1038F000FF30FCF71DFC01BD80B54FF4E06007F020
:10390000FDF90B208DF8000000208DF8010000204B
:103910008DF8020001208DF80300684607F0F3F9E6
:1039200025208DF8000000208DF8010001208DF881
:10393000020001208DF80300684607F0E4F9262014
:103940008DF8000000208DF8010002208DF80200A3
:1039500001208DF80300684607F0D5F927208DF87F
:10396000000000208DF8010003208DF802000120E6
:103970008DF80300684607F0C6F934208DF8000082
:1039800000208DF8010004208DF8020001208DF840
:103990000300684607F0B7F901BD80B5DFF8580AA3
:1039A0000088002840F09580DFF8500A0088002841
:1039B00006D0DFF8480A0088401EDFF8401A088069
:1039C000DFF83C0A0088002806D0DFF8340A0088B7
:1039D000401EDFF82C1A0880DFF8280A008800282B
:1039E00006D0DFF8200A0088401EDFF8181A088089
:1039F000DFF8140A0088002806D0DFF80C0A0088D7
:103A0000401EDFF8041A0880DFF8000A008800284A
:103A100006D0DFF8F8090088401EDFF8F0190880AA
:103A2000DFF8EC090088002806D0DFF8E4090088F8
:103A3000401EDFF8DC1908804F480078002823D0AA
:103A4000DFF8D0090068401CDFF8C8190860DFF80B
:103A5000C409006848F6A041B0FBF1F080B24028EC
:103A600008DBDFF8B409007850F0FC00DFF8A81993
:103A7000087009E0DFF8A019097811F0030151EA94
:103A80008001DFF894090170A5480078002806D06D
:103A90004FF40041DFF8880806F08AF905E04FF49A
:103AA0000041DFF87C0806F080F9DFF87009006853
:103AB00090F48040DFF864190860DFF8600900685E
:103AC00090F40050DFF8541908606420DFF82819DA
:103AD000088001BD80B51F20DFF8441908704FF43D
:103AE0000041DFF8E80306F063F901BD80B54FF44B
:103AF0000041DFF8D80306F058F901BD80B54FF456
:103B00000051DFF8C80306F053F901BD00000000C2
:103B10008A14002080B54FF40051DFF8B00306F09E
:103B200044F901BD39150020D013002080B54FF4B1
:103B30008041DFF8980306F02DF900280DD0DFF85A
:103B4000E40801680122DFF8D80890F900008240FB
:103B50001143DFF8D00801600CE0DFF8C808016805
:103B60000122DFF8BC0890F9000082409143DFF8A1
:103B7000B408016001BD0000621500204A14002055
:103B800080B5D7480078002840F07F80DFF898089B
:103B90000078002802D1FFF79DFF1CE0DFF88808BD
:103BA0000178032291FBF2F002FB1010C0B2002852
:103BB00008D0022803D00ED2FFF7ACFF0BE0FFF7CE
:103BC000B5FF08E0FFF79AFFDFF854080078401EC1
:103BD000DFF84C180870DFF8480890F9000000285A
:103BE0004CD5FFF783FF0020DFF83C180870DFF8A2
:103BF00034080068DFF834180860DFF8300800681F
:103C0000800CDFF82C180880DFF82408B0F90000D9
:103C1000042190FBF1F0DFF818180880DFF8100895
:103C20000088DFF81018DFF81028127821F8120049
:103C3000DFF804080078401CDFF8FC170870DFF894
:103C4000F80700780A2803DB0020DFF8EC1708707B
:103C50000021002205E0DFF8DC0730F812004118EF
:103C6000521C0A2AF7DB89B20A2091FBF0F0DFF838
:103C7000CC17088064209A49087006E0DFF8A8078E
:103C80000078401CDFF8A017087001BD80B51F2028
:103C9000DFF8AC1708704FF480518C4806F088F8B4
:103CA00001BD80B54FF48051884806F07EF801BD13
:103CB00080B54FF48061854806F07AF801BD80B583
:103CC0004FF48061814806F070F801BD80B54FF473
:103CD00000617E4806F05EF800280DD0DFF864072A
:103CE00001680122DFF8580790F900008240114373
:103CF000DFF8500701600CE0DFF848070168012297
:103D0000DFF83C0790F9000082409143DFF8340768
:103D1000016001BD36150020941400208C14002091
:103D20003D1500203F1500205315002080B56D483B
:103D30000078002840F07F80DFF8340D00780028FC
:103D400002D1FFF7A3FF1CE0DFF8240D0178032266
:103D500091FBF2F002FB1010C0B2002808D002283C
:103D600003D00ED2FFF7ABFF0BE0FFF7AFFF08E089
:103D7000FFF79EFFDFF8C8060078401EDFF8C01688
:103D80000870DFF8BC0690F9000000284CD5FFF75A
:103D900088FF0020DFF8D81C0870DFF8A80600684C
:103DA000DFF8A4160860DFF8A0060068800CDFF8D2
:103DB0009C160880DFF89406B0F90000042190FBFF
:103DC000F1F0DFF888160880DFF880060088DFF859
:103DD0008016DFF88026127821F81200DFF87406CA
:103DE0000078401CDFF86C160870DFF86806007871
:103DF0000A2803DB0020DFF85C160870002100228F
:103E000005E0DFF84C0630F812004118521C0A2A6F
:103E1000F7DB89B20A2091FBF0F0DFF83C1608804E
:103E200064203049087006E0DFF8440C0078401C3C
:103E3000DFF83C1C087001BD80B51F20DFF81C16A0
:103E400008704FF40071DFF82C0C05F0B1FF01BDD4
:103E500080B54FF40071DFF81C0C05F0A6FF01BD22
:103E60009C14002080B58021DFF8080C05F0A0FF2D
:103E700001BD80B58021DFF8FC0B05F096FF01BD88
:103E800080B54FF48071114805F084FF00280DD0F3
:103E9000DFF8E40B01680122DFF8C00590F90000AB
:103EA00082401143DFF8D00B01600CE0DFF8C80B53
:103EB00001680122DFF8A40590F9000082409143D7
:103EC000DFF8B40B016001BDDE14002000200140CA
:103ED00071150020781500207F1500208615002020
:103EE000081500200C1500201015002014150020C6
:103EF000AC130020E014002080B5DFF864050078E2
:103F0000002840F08280DFF8400D0078002802D1C0
:103F1000FFF792FF1CE0DFF8300D0178032291FBE0
:103F2000F2F002FB1010C0B2002808D0022803D023
:103F30000ED2FFF79EFF0BE0FFF7A2FF08E0FFF7AE
:103F400091FFDFF818050078401EDFF810150870A3
:103F5000DFF8080590F9000000284FD5FFF778FF3B
:103F60000020DFF8E41C0870DFF80C0B0068DFF8B5
:103F70000C1B0860DFF8040B0068800CDFF8001BE6
:103F80000880DFF8FC0AB0F90000042190FBF1F092
:103F9000DFF8EC1A0880DFF8E80AB0F90000401DED
:103FA000DFF8E01ADFF8E02A127821F81200DFF8D3
:103FB000D80A0078401CDFF8D01A0870DFF8C80A69
:103FC00000780A2803DB0020DFF8BC1A0870002103
:103FD000002205E0DFF8AC0A30F812004118521C4C
:103FE0000A2AF7DB89B20A2091FBF0F0DFF89C1A6D
:103FF00008806420DFF86814087006E0DFF8480CD9
:104000000078401CDFF8401C087001BDE31400205C
:10401000E614002080B51F20DFF8741A08704021D4
:10402000DFF8500A05F0C4FE01BD0000EC140020CA
:10403000E914002080B54021DFF8380A05F0B5FE0C
:1040400001BD0000EF14002080B51021DFF8240A24
:1040500005F0AEFE01BD0000F2140020F5140020B2
:1040600080B51021DFF80C0A05F09FFE01BD0000AD
:1040700046150020F8140020FB140020FE14002038
:10408000011500200415002080B52021DFF8E40987
:1040900005F080FE00280DD0DFF85C0B01680122DE
:1040A000DFF8EC0990F9000082401143DFF8480B7B
:1040B00001600CE0DFF8400B01680122DFF8D00955
:1040C00090F9000082409143DFF82C0B016001BDA4
:1040D0000010014080B5DFF8E00A0078002840F0C9
:1040E0008080DFF8A00C0078002802D1FFF792FF53
:1040F0001CE0DFF8900C0178032291FBF2F002FB48
:104100001010C0B2002808D0022803D00ED2FFF74A
:10411000A7FF0BE0FFF7B8FF08E0FFF795FFDFF818
:1041200070090078401EDFF868190870DFF8600930
:1041300090F9000000284DD5FFF77CFF0020DFF844
:10414000441C0870DFF8B00A0068DFF8B01A086095
:10415000DFF8A80A0068800CDFF8A41A0880DFF8EE
:10416000A00AB0F90000042190FBF1F0DFF8901AEA
:104170000880DFF88C0A0088DFF8C41ADFF8C42A48
:10418000127821F81200DFF8BC0A0078401CDFF832
:10419000B41A0870DFF8AC0A00780A2803DB0020A4
:1041A000DFF8A01A08700021002205E0DFF8900A6D
:1041B00030F812004118521C0A2AF7DB89B20A2093
:1041C00091FBF0F0DFF8841A08806420DFF8E8192A
:1041D000087006E0DFF8AC0B0078401CDFF8A41B89
:1041E000087001BD6A00002000080140001801406D
:1041F00000140140704700B591B00720ADF80000F1
:1042000003208DF8020000208DF803006946DFF8D6
:10421000740A05F05DFD0121012006F0E3FC4FF476
:10422000004006F078FC01214FF4007006F0EAFC33
:10423000DFF8540A06F0A4FDDFF8500A0690DFF814
:10424000840A0790002008900320099000200A901B
:1042500080200B904FF400700C904FF400600D9094
:1042600020200E904FF400500F900020109006A9CF
:10427000DFF8140A06F008FE0121DFF80C0A06F048
:1042800021FE0020019001208DF8080001208DF80A
:1042900009005FF4602003900020049003208DF853
:1042A000140001A9DFF8B40B06F054FE0523012227
:1042B0000A21DFF8A80B06F0B7FE052302220B2126
:1042C000DFF8980B06F0B0FE052303220C21DFF87F
:1042D0008C0B06F0A9FE0121DFF8800B06F06CFEC6
:1042E0000121DFF8780B06F05AFEDFF8700B06F0BC
:1042F00070FEDFF8680B06F071FE0028F9D1DFF8D8
:104300005C0B06F075FEDFF8540B06F076FE002815
:10431000F9D10121DFF8440B06F079FE11B000BDA0
:10432000001C014000B587B0DFF89C19B1FBF0F02C
:10433000DFF8981908600020ADF816000020ADF8ED
:104340001200DFF888090068401EADF81400002054
:10435000ADF8100000208DF8180004A9DFF8B80BA4
:1043600006F0CCFE6020ADF800000020ADF80C0097
:104370000020ADF808000020ADF80E000020ADF8D8
:104380000A000120ADF802000020ADF80400002072
:10439000ADF806006946DFF8800B06F0CAFE6946F4
:1043A000DFF8740B06F0FEFE6946DFF86C0B06F0D2
:1043B00039FF0021DFF8600B06F0A5FF0021DFF8D0
:1043C000580B06F0A9FF0021DFF84C0B06F0ADFFFB
:1043D0000021DFF8440B06F088FF0121DFF8380BDD
:1043E00006F064FF0121DFF8300B06F06DFF07B027
:1043F00000BD0000000C014046140020AE14002057
:10440000B0140020B2140020A8140020AA14002028
:10441000AC14002034140020611500200C1C014055
:1044200006150020EC13002007150020E8130020DB
:10443000501400205C1300200915002052140020A5
:104440000A150020F4130020F0130020541400205B
:10445000701300200D150020561400200E150020AA
:104460001015002080B5DFF8B40A0088002840F05D
:10447000FE821021DFF8E80905F08CFC002822D12B
:10448000DFF80409007800282DD0DFF80009007853
:10449000152810DB0120DFF8F8180870DFF8800A13
:1044A000007850F00100DFF8781A08700020DFF87B
:1044B000D818087017E0DFF8D4080078401CDFF83F
:1044C000CC1808700FE0DFF8580A007810F0FE00F2
:1044D000DFF84C1A08700020DFF8B01808700120CF
:1044E000DFF8A41808702021DFF8740905F052FCE9
:1044F000002822D1DFF86C09007800282DD0DFF8E1
:1045000068090078152810DB0120DFF860190870B1
:10451000DFF80C0A007850F00200DFF8041A087087
:104520000020DFF84019087017E0DFF83C09007838
:10453000401CDFF8341908700FE0DFF8E409007858
:1045400010F0FD00DFF8D81908700020DFF8181906
:1045500008700120DFF80C1908704021DFF800090D
:1045600005F018FC002822D1DFF8040900780028A3
:104570002DD0DFF800090078152810DB0120DFF8C6
:10458000A4190870DFF89809007850F00400DFF8EB
:10459000901908700020DFF8D818087017E0DFF8CD
:1045A000D4080078401CDFF8CC1808700FE0DFF862
:1045B0007009007810F0FB00DFF864190870002023
:1045C000DFF8B01808700120DFF8A4180870802107
:1045D000DFF88C0805F0DEFB002822D1DFF848095F
:1045E000007800282DD0DFF844090078152810DB6A
:1045F0000120DFF83C190870DFF82409007850F03A
:104600000800DFF81C1908700020DFF81C1908707A
:1046100017E0DFF818090078401CDFF8101908705F
:104620000FE0DFF8FC08007810F0F700DFF8F01872
:1046300008700020DFF8F41808700120DFF8E8188F
:1046400008704FF48071DFF8180805F0A3FB00280C
:1046500022D1DFF8E008007800282DD0DFF8D80854
:104660000078152810DB0120DFF8D0180870DFF87B
:10467000B008007850F01000DFF8A418087000208F
:10468000DFF8B018087017E0DFF8AC080078401CBD
:10469000DFF8A41808700FE0DFF88408007810F045
:1046A000EF00DFF87C1808700020DFF88C18087025
:1046B0000120DFF8801808704FF40071DFF8A007C0
:1046C00005F068FB002822D1DFF874080078002884
:1046D0002DD0DFF870080078152810DB0120DFF8F6
:1046E00068180870DFF83808007850F02000DFF80C
:1046F000301808700020DFF84818087017E0DFF85D
:1047000044080078401CDFF83C1808700FE0DFF820
:104710001008007810F0DF00DFF80418087000209F
:10472000DFF8201808700120DFF8141808704FF423
:104730008061DFF82C0705F02DFB002822D1DFF87F
:104740000C08007800282DD0DFF804080078152820
:1047500010DB0120DFF8FC170870DFF8C4070078D1
:1047600050F04000DFF8B81708700020DFF8DC17C1
:10477000087017E0DFF8D8070078401CDFF8D01782
:1047800008700FE0DFF89807007810F0BF00DFF83E
:10479000901708700020DFF8B81708700120DFF8C4
:1047A000AC1708704FF40071DFF8AC0705F0F2FAAF
:1047B000002822D1DFF8A407007800282DD0DFF8E8
:1047C000A0070078152810DB0120DFF89817087083
:1047D000DFF84C07007850F08000DFF844170870CD
:1047E0000020DFF87817087017E0DFF8740700780A
:1047F000401CDFF86C1708700FE0DFF82407007822
:1048000010F07F00DFF8181708700020DFF850174D
:1048100008700120DFF8441708704FF48071DFF84A
:10482000380705F0B7FA002822D1DFF83C070078F6
:1048300000282DD0DFF834070078152810DB012080
:10484000DFF82C170870DFF8D806407850F0010028
:10485000DFF8CC1648700020DFF80C17087017E05E
:10486000DFF808070078401CDFF8001708700FE039
:10487000DFF8AC06407810F0FE00DFF8A4164870B0
:104880000020DFF8E81608700120DFF8DC16087059
:104890000221DFF8CC0505F07DFA002822D1DFF8EF
:1048A000D406007800282DD0DFF8CC060078152833
:1048B00010DB0120DFF8C4160870DFF864064078CA
:1048C00050F00200DFF8581648700020DFF8A416F8
:1048D000087017E0DFF8A0060078401CDFF8981693
:1048E00008700FE0DFF83806407810F0FD00DFF8C0
:1048F000301648700020DFF8801608700120DFF8BD
:10490000741608704FF48041DFF8780305F042FA1E
:10491000002822D1DFF86806007800282DD0DFF8C3
:1049200064060078152810DB0120DFF85C1608709B
:10493000DFF8EC05407850F00400DFF8E41548702B
:104940000020DFF83C16087017E0DFF83806007822
:10495000401CDFF8301608700FE0DFF8C40540781F
:1049600010F0FB00DFF8B81548700020DFF81416CF
:1049700008700120DFF8081608704FF48041DFF856
:10498000D80505F007FA002822D1DFF800060078E4
:1049900000282DD0DFF8F8050078152810DB01205D
:1049A000DFF8F0150870DFF87805407850F008005F
:1049B000DFF86C1548700020DFF8D015087017E09C
:1049C000DFF8CC050078401CDFF8C41508700FE054
:1049D000DFF84C05407810F0F700DFF84415487018
:1049E0000020DFF8AC1508700120DFF8A015087072
:1049F0004FF40061DFF8680405F0CCF9002822D1FB
:104A0000DFF89405007800282DD0DFF890050078B5
:104A1000152810DB0120DFF888150870DFF8000585
:104A2000407850F08000DFF8F81448700020DFF87C
:104A30006815087017E0DFF864050078401CDFF89F
:104A40005C1508700FE0DFF8D804407810F07F00A4
:104A5000DFF8CC1448700020DFF840150870012002
:104A6000DFF8341508700120DFF8B014088001BDAC
:104A70000B15002000200140FC130020F81300203B
:104A80005814002084130020111500205A1400200F
:104A900012150020DFF8F8020078002802D000206C
:104AA000BB490870DFF8C4030078002803D0002059
:104AB000DFF8B8130870DFF86C040078002803D022
:104AC0000020DFF860140870DFF864040078002824
:104AD00003D00020DFF858140870DFF86004007875
:104AE000002803D00020DFF854140870DFF85804C1
:104AF0000078002803D00020DFF84C140870DFF89D
:104B000054040078002803D00020DFF8481408700F
:104B1000DFF850040078002803D00020DFF84414A8
:104B20000870DFF84C040078002803D00020DFF87C
:104B300040140870DFF844040078002803D00020F7
:104B4000DFF838140870DFF840040078002803D03C
:104B50000020DFF834140870DFF8380400780028EB
:104B600003D00020DFF82C140870DFF8340400783C
:104B7000002803D00020DFF828140870704710B513
:104B80000400E4B2642C00DB6424D4F164044F48D4
:104B90000068E4B260436421B0FBF1F0411E89B2C9
:104BA000DFF8740306F0CAFBDFF8F8030470002096
:104BB000DFF8F413088010BD1415002010B50400B0
:104BC000E4B2642C00DB6424D4F164043F48006840
:104BD000E4B260436421B0FBF1F0411E89B2DFF81A
:104BE000380306F0ADFBDFF8C40304700020DFF8E3
:104BF000C013088010BD0000041400200014002021
:104C00005C14002010B50400E4B2642C00DB6424C2
:104C1000D4F164042D480068E4B260436421B0FB21
:104C2000F1F0411E89B2DFF8F00206F08BFBDFF8ED
:104C3000840304700020DFF88013088010BD00009A
:104C400098130020151500200F1500205E14002079
:104C500080B5DFF868030078002812D0DFF85C0325
:104C60000178DFF85C0305F043FE0020DFF84C1309
:104C700008700020DFF84C1308700120DFF848139B
:104C8000087001BD00100140080002404C240140A2
:104C900080B5DFF838030078002812D0DFF82C0345
:104CA0000178DFF82C0305F023FE0020DFF81C1349
:104CB00008700020DFF81C1308700120DFF81813BB
:104CC000087001BD3413002000A24A04E013002044
:104CD00030B4FF24C14D2C70C04C6070C0B20028AD
:104CE00009D0022814D00CD3042820D019D30628C8
:104CF00028D01DD32EE0B94841800020B7498880D4
:104D000028E00020B54948800020B449888021E08F
:104D10000020B24948800020B0490871AF48427174
:104D200018E00020AD494880AC48828012E011E0D4
:104D30000120AA4988707820A849C8700020A74996
:104D4000888007E00120A54988707820A349C870B1
:104D5000A2488280A1480188A048408841189F4805
:104D6000808841184FF6FF7041439C48C180002065
:104D700003E09A49095C1954401C0828F9DB30BC4F
:104D80007047000013150020E0140020DF140020FD
:104D9000E1140020F8B580B206F0DAFA0022904B58
:104DA00006F0E4FA00228F4B06F0B2FB04000D007F
:104DB0008D48006806F0D0FC0022894B06F0D6FA38
:104DC00022002B0006F0A4FB04000D0086480068BA
:104DD00006F0C2FC02000B002000290006F0E0FCF7
:104DE0000022824B06F094FB06F008FF04000D0041
:104DF0007F4AD2E9000122002B0006F0B7FA7D4E6F
:104E0000D6E9002306F0FCFE06000F0022002B006E
:104E10002000290006F0AAFA22002B0006F0A6FACC
:104E2000754CD4E9002306F0A1FA32003B0006F0ED
:104E3000E7FE02000B000020704906F069FB02004B
:104E40000B005FF066306E4906F0DAFE00226D4B13
:104E500006F0D6FE06F090FFF4BD000000240140ED
:104E600000140140E3140020E2140020E4140020A8
:104E7000E6140020E514002080B56348006863490B
:104E8000086061484068614948605F4880685F49E0
:104E900088605E48006880B2FFF77CFF06F098FFEC
:104EA0005B4908805948406880B2FFF773FF06F0FD
:104EB0008FFF584908805548806880B2FFF76AFF25
:104EC00006F086FF544908805148B0F900001E30B2
:104ED000B52803D200205149087002E001204F4953
:104EE00008704C48B0F900001E30B52803D20020ED
:104EF0004B49087002E00120494908704648B0F962
:104F000000001E30B52803D200204649087002E098
:104F100001204449087001BD0034014048140020BC
:104F20004A140020E7140020E9140020E8140020AF
:104F3000EA140020EC140020EB140020ED140020F3
:104F4000EF140020EE140020F0140020F2140020D2
:104F5000F1140020F3140020000C0140F51400208F
:104F6000F4140020F6140020F8140020F714002098
:104F7000F9140020FB140020FA140020FC14002077
:104F8000FE140020FD140020FF1400200115002055
:104F90000015002002150020041500200315002034
:104FA0000515002019150020681400201A1500208E
:104FB0006A1400201B1500206C14002079150020B5
:104FC000FC110020761500207815002080150020A7
:104FD000641200207D1500207F150020C8130020DA
:104FE0000000044000FEAF405000002000408F4011
:104FF000B0C80008B8C80008A8C800080000F03F02
:10500000661271C00000E03F34130020BC13002082
:105010007214002074140020761400201C15002047
:105020001D1500201E15002030B585B0DFF8280DB5
:105030000078002801F05C80DFF81C0D0078411E2C
:10504000C9B2DFF8B80D01F04FFCDFF8B01DDFF892
:10505000082D1278114411F8011CC0B2814241F0B0
:105060003B80DFF8980D4078DFF8901D8978C0B25A
:1050700000282CD0022800F0EA81C0F0B980042872
:1050800000F04984C0F0AE82062800F01986C0F016
:105090009285082800F08586C0F060860A2800F016
:1050A000BB86C0F093860C2800F05087C0F0B9860C
:1050B0000E2800F0AC87C0F08D87102800F0CE8756
:1050C000C0F0AB87112800F0D68701F005B8DFF8F3
:1050D0002C0DC078DFF8282D1070DFF8200D007936
:1050E000DFF81C2D5070DFF8140D4079DFF8102D1B
:1050F0009070DFF8080D8079DFF8042DD070DFF8AC
:10510000FC0CC079DFF8FC2C1070C9B200292BD13F
:105110000120DFF8F41C087000241BE0DFF8E40C29
:10512000007821002039084110F00100DFF8DC1C74
:1051300051F8241088470CE0202CEFDADFF8C00C7F
:105140000068E04010F00100DFF8C01C51F82410A6
:105150008847641CDFF8B80C00788442ECDB002040
:10516000DFF8A41C08700AE0DFF8900CC078DFF8C4
:105170009C2CC9B202EB810151F8041C8847DFF86E
:105180007C0C0078DFF88C1C0870DFF8700C40781D
:10519000DFF8801C4870DFF8640C8078DFF8741C3E
:1051A0008870DFF8580CC078DFF8681CC870DFF82A
:1051B0004C0C0079DFF85C1C0871DFF8400C40797A
:1051C000DFF8501C4871DFF8340C8079DFF8441C9C
:1051D00088710721DFF83C0C01F086FBDFF8341CF6
:1051E000C8710821DFF82C0C05F082FB00F074BFB9
:1051F000DFF8080C0078DFF81C2C1070DFF8FC0BCF
:105200004078DFF8102C5070DFF8F00B8078DFF872
:10521000042C9070C9B2002940F01781DFF8AC0D62
:105220000068DFF8DC1B0860DFF8A40D00884FF48D
:10523000807190FBF1F201FB1200DFF8D81BC870FF
:10524000DFF88C0D00884FF4807190FBF1F0DFF8EF
:10525000C41B0871DFF8A80B0078DFF8B81B487191
:10526000DFF89C0B4078DFF8AC1B8871DFF8900BFF
:105270008078DFF8A01BC871DFF8840BC078DFF8F6
:10528000941B0872DFF87C0B0078DFF8881B4872EB
:10529000DFF8B80D00884FF4807190FBF1F201FB4C
:1052A0001200DFF8701B8872DFF8A00D00884FF441
:1052B000807190FBF1F0DFF85C1BC872DFF8900D95
:1052C00000884FF4807190FBF1F201FB1200DFF8CF
:1052D000441B0873DFF8780D00884FF4807190FB51
:1052E000F1F0DFF8301B4873DFF8680D00884FF4E9
:1052F000807190FBF1F201FB1200DFF8181B88733C
:10530000DFF8500D00884FF4807190FBF1F0DFF86A
:10531000041BC873DFF8400D00884FF4807190FBC8
:10532000F1F201FB1200DFF8EC1A0874DFF8280D27
:1053300000884FF4807190FBF1F0DFF8D81A4874C0
:10534000DFF8700DB0F9000080B24FF4807190FB6F
:10535000F1F201FB1200DFF8BC1A8874DFF8540D7B
:10536000B0F9000080B24FF4807190FBF1F0DFF8EB
:10537000A41AC874DFF87C0DB0F9000080B24FF4B5
:10538000807190FBF1F201FB1200DFF8881A0875BA
:10539000DFF8600DB0F9000080B24FF4807190FB2F
:1053A000F1F0DFF8701A4875DFF84C0DB0F9000025
:1053B00080B24FF4807190FBF1F201FB1200DFF834
:1053C000541A8875DFF8300DB0F9000080B24FF440
:1053D000807190FBF1F0DFF83C1AC875DFF81C0D06
:1053E0000088DFF81C1A0860DFF8140A0078DFF87C
:1053F000241A0876DFF8080A4078DFF8181A487689
:10540000DFF8FC098078DFF80C1A8876DFF8F009FD
:10541000C078DFF8001AC876DFF8E40C0078DFF80F
:10542000F4190877DFF8DC0C0078DFF8E819487722
:105430001E21DFF8E00901F057FADFF8D819887764
:105440001F21DFF8D00905F053FA00F045BEDFF860
:10545000AC090078DFF8BC291070DFF8A0094078AB
:10546000DFF8B0295070DFF894098078DFF8A429BC
:105470009070C9B2002940F0B380DFF8D00B0088EB
:105480004FF4807190FBF1F201FB1200DFF88419F8
:10549000C870DFF8B80B00884FF4807190FBF1F012
:1054A000DFF870190871DFF8A80B00884FF48071DD
:1054B00090FBF1F201FB1200DFF858194871DFF898
:1054C000900B00884FF4807190FBF1F0DFF84419E5
:1054D0008871DFF8800B00884FF4807190FBF1F247
:1054E00001FB1200DFF82C19C871DFF8680B008887
:1054F0004FF4807190FBF1F0DFF818190872DFF8B3
:10550000580B00884FF4807190FBF1F201FB120000
:10551000DFF800194872DFF8400B00884FF4807103
:1055200090FBF1F0DFF8EC188872DFF8880BB0F927
:10553000000080B24FF4807190FBF1F201FB120089
:10554000DFF8D018C872DFF86C0BB0F9000080B239
:105550004FF4807190FBF1F0DFF8B8180873DFF8B2
:10556000940BB0F9000080B24FF4807190FBF1F21F
:1055700001FB1200DFF89C184873DFF8780BB0F9D4
:10558000000080B24FF4807190FBF1F0DFF88418D6
:105590008873DFF8640BB0F9000080B24FF48071BB
:1055A00090FBF1F201FB1200DFF86818C873DFF816
:1055B000480BB0F9000080B24FF4807190FBF1F01D
:1055C000DFF8501808741121DFF8480801F08CF951
:1055D000DFF8401848741221DFF8380805F088F920
:1055E00000F07ABDDFF814080279DFF8100844797A
:1055F0004FF4807000FB0424DFF800088279DFF8A4
:10560000FC07C5794FF4807000FB0525C9B200295D
:105610004CD1DFF8E807C07807280CD1DFF8DC07A9
:105620000079DFF8E41A0870DFF8D0070079DFF8B6
:10563000DC1A087036E0DFF8C407C078032806D10A
:10564000DFF8CC0A0580DFF8CC0A05800AE0DFF835
:10565000AC07C078062805D1DFF8BC0A0570DFF872
:10566000BC0A0570DFF8B83A2A0092B2210089B26C
:10567000DFF88807C078FFF72BFB0821DFF8A00AC6
:1056800005F04DF9DFF89C3A2A0092B2210089B268
:10569000DFF86807C078FFF71BFB0821DFF8840AF2
:1056A00005F054F9062001F0E0F833E1C9B2012910
:1056B0003DD1DFF84807C078072806D1DFF83C075E
:1056C0000079DFF8441A08702DE0DFF8543A2A0018
:1056D00092B2210089B2DFF82407C078FFF7F8FA08
:1056E0000821DFF83C0A05F01AF9DFF81007C07846
:1056F000032803D1DFF8180A058014E0DFF8FC0660
:10570000C07806280FD1DFF8100A0570DFF8F80915
:1057100001784FF47A704143DFF8C00B016000203C
:10572000DFF8BC1B0870062001F09FF8F2E0C9B258
:1057300002293DD1DFF8C406C078072806D1DFF87A
:10574000BC060079DFF8C41908702DE0DFF8D43901
:105750002A0092B2210089B2DFF8A006C078FFF7D4
:10576000B7FA0821DFF8BC0905F0F0F8DFF88C067D
:10577000C078032803D1DFF89C09058014E0DFF826
:105780007C06C07806280FD1DFF890090570DFF895
:105790007C0901784FF47A704143DFF8480B0160CF
:1057A0000020DFF8441B0870062001F05EF8B1E02D
:1057B000C9B203291ED1DFF84406C078DFF82C1BDC
:1057C0000870DFF838060179DFF8300642794FF4C7
:1057D000807000FB0211DFF8180B01800020DFF859
:1057E000141B08700120DFF8101B0870062001F060
:1057F0003CF88FE0C9B2042907D10120DFF8FC1A78
:105800000870062001F031F884E0C9B2052910D1F2
:10581000DFF8E805C178DFF8E40502794FF480701D
:1058200000FB0211DFF8D80A0180062001F01DF804
:1058300070E0C9B2062935D1DFF8C0050078DFF87D
:10584000D4150870DFF8B4054078DFF8C815487043
:10585000DFF8A8058078DFF8BC158870DFF8A40AA7
:1058600000884FF4807190FBF1F201FB1200DFF829
:10587000A415C870DFF88C0A00884FF4807190FB83
:10588000F1F0DFF8901508710521DFF8880501F0C7
:105890002BF8DFF8801548710621DFF8780505F050
:1058A00027F837E0C9B2072934D1DFF8500500786E
:1058B000DFF860150870DFF844054078DFF854150C
:1058C0004870DFF838058078DFF848158870DFF811
:1058D0007C0B00884FF4807190FBF1F201FB120009
:1058E000DFF83015C870DFF8640B00884FF4807162
:1058F00090FBF1F0DFF81C1508710521DFF81405A5
:1059000000F0F2FFDFF80C1548710621DFF80405FE
:1059100004F0EEFFE0E3C9B201293AD1DFF8DC047C
:10592000C078FFF72CF9DFF8D4040078DFF8E4142E
:105930000870DFF8C8044078DFF8D8144870DFF842
:10594000BC048078DFF8CC148870DFF8340B008852
:105950004FF4807190FBF1F201FB1200DFF8B414F8
:10596000C870DFF81C0B00884FF4807190FBF1F0D9
:10597000DFF8A01408710521DFF8980400F0B4FFE7
:10598000DFF8901448710621DFF8880404F0B0FFB6
:1059900010E1C9B202293AD1DFF86004C078FFF7FC
:1059A0000DF9DFF858040078DFF868140870DFF8A4
:1059B0004C044078DFF85C144870DFF840048078CD
:1059C000DFF850148870DFF8040B00884FF4807102
:1059D00090FBF1F201FB1200DFF83814C870DFF819
:1059E000EC0A00884FF4807190FBF1F0DFF824148A
:1059F00008710521DFF81C0400F076FFDFF81414AD
:105A000048710621DFF80C0404F072FFD2E0C9B23D
:105A100003293AD1DFF8E403C078FFF7F3F8DFF8A1
:105A2000DC030078DFF8EC130870DFF8D00340786F
:105A3000DFF8E0134870DFF8C4038078DFF8D41390
:105A40008870DFF8080B00884FF4807190FBF1F24A
:105A500001FB1200DFF8BC13C870DFF8F00A008801
:105A60004FF4807190FBF1F0DFF8A8130871052165
:105A7000DFF8A00300F038FFDFF898134871062123
:105A8000DFF8900304F034FF94E0C9B2042935D163
:105A9000DFF868030078DFF87C130870DFF85C0338
:105AA0004078DFF870134870DFF850038078DFF833
:105AB00064138870DFF8C80900884FF4807190FB88
:105AC000F1F201FB1200DFF84C13C870DFF8B009E7
:105AD00000884FF4807190FBF1F0DFF83813087103
