:020000040800F2
:10000000000400201DB900083DB200083FB20008FE
:1000100041B2000843B2000845B2000800000000E9
:1000200000000000000000000000000047B20008CF
:1000300049B20008000000004BB200084DB20008B1
:100040006B8E00086B8E00086B8E000855B200089E
:100050006B8E00086B8E000857B200086B8E00088C
:100060006B8E00086BB200086B8E000861B7000849
:100070006B8E00086B8E00086B8E00086B8E00087C
:100080006B8E00086B8E00086B8E00086DB2000846
:100090006FB200086B8E00086B8E000871B200080A
:1000A0006B8E000873B200086B8E00086B8E000820
:1000B00081B200088FB200089DB200086B8E000864
:1000C0006B8E00086B8E00086B8E00086B8E00082C
:1000D000ADB20008AFB2000809B40008F9B40008D6
:1000E00045B700085DB700086B8E00086B8E0008EE
:1000F0009FB200086B8E00086B8E00086B8E0008A4
:100100006B8E00085FB700086B8E00086B8E0008CE
:10011000E7B500086B8E00086B8E00086B8E000838
:100120006B8E00086B8E00086B8E00086B8E0008CB
:1001300040B2002805D40901DFF8B02A40B21154BA
:1001400008E00901DFF8C02C40B210F00F001044A5
:1001500000F8041C704780B5411EB1F1807F01D3C7
:10016000012011E0401EDFF8C41A08600F215FF083
:10017000FF30FFF7DDFF0020DFF8B41A086007202A
:10018000DFF8AC1C0860002002BD0020DFF8A41CD2
:100190000870DFF8A00ADFF8C81BDFF8982C127887
:1001A00041F82200DFF88C0C0078401CDFF8841C3A
:1001B0000870DFF8C40ADFF8A81BDFF8782C127883
:1001C00041F82200DFF86C0C0078401CDFF8641C5A
:1001D0000870DFF8C80ADFF8881BDFF8582C12789F
:1001E00041F82200DFF84C0C0078401CDFF8441C7A
:1001F0000870DFF8AC0ADFF8681BDFF8382C1278DB
:1002000041F82200DFF82C0C0078401CDFF8241C99
:100210000870DFF8D40ADFF8481BDFF8182C1278D2
:1002200041F82200DFF80C0C0078401CDFF8041CB9
:100230000870DFF8DC0ADFF8281BDFF8F82B1278EB
:1002400041F82200DFF8EC0B0078401CDFF8E41BDB
:100250000870DFF8C00ADFF8081BDFF8D82B127827
:1002600041F82200DFF8CC0B0078401CDFF8C41BFB
:100270000870DFF8A40ADFF8E81ADFF8B82B127864
:1002800041F82200DFF8AC0B0078401CDFF8A41B1B
:100290000870DFF8D00ADFF8C81ADFF8982B127858
:1002A00041F82200DFF88C0B0078401CDFF8841B3B
:1002B0000870DFF8D80ADFF8A81ADFF8782B127870
:1002C00041F82200DFF86C0B0078401CDFF8641B5B
:1002D0000870DFF8E00ADFF8881ADFF8582B127888
:1002E00041F82200DFF84C0B0078401CDFF8441B7B
:1002F0000870DFF8E80ADFF8681ADFF8382B1278A0
:1003000041F82200DFF82C0B0078401CDFF8241B9A
:100310000870DFF8CC0ADFF8481ADFF8182B1278DB
:1003200041F82200DFF80C0B0078401CDFF8041BBA
:100330000870DFF8D80ADFF8281ADFF8F82A1278F0
:1003400041F82200DFF8EC0A0078401CDFF8E41ADC
:100350000870DFF8E40ADFF8081ADFF8D82A127804
:1003600041F82200DFF8CC0A0078401CDFF8C41AFC
:100370000870DFF8C80ADFF8E819DFF8B82A127841
:1003800041F82200DFF8AC0A0078401CDFF8A41A1C
:100390000870DFF8AC0ADFF8C819DFF8982A12787D
:1003A00041F82200DFF88C0A0078401CDFF8841A3C
:1003B0000870DFF8900ADFF8A819DFF8782A1278B9
:1003C00041F82200DFF86C0A0078401CDFF8641A5C
:1003D0000870DFF8740ADFF88819DFF8582A1278F5
:1003E00041F82200DFF84C0A0078401CDFF8441A7C
:1003F0000870DFF8580ADFF86819DFF8382A127831
:1004000041F82200DFF82C0A0078401CDFF8241A9B
:100410000870DFF83C0ADFF84819DFF8182A12786C
:1004200041F82200DFF80C0A0078401CDFF8041ABB
:100430000870DFF8200ADFF82819DFF8F8291278A9
:1004400041F82200DFF8EC090078401CDFF8E419DD
:100450000870DFF89C0ADFF80819DFF8D82912784D
:1004600041F82200DFF8CC090078401CDFF8C419FD
:100470000870DFF8800ADFF8E818DFF8B82912788A
:1004800041F82200DFF8AC090078401CDFF8A4191D
:100490000870DFF8640ADFF8C818DFF898291278C6
:1004A00041F82200DFF88C090078401CDFF884193D
:1004B0000870DFF8480ADFF8A818DFF87829127802
:1004C00041F82200DFF86C090078401CDFF864195D
:1004D0000870DFF82C0ADFF88818DFF8582912783E
:1004E00041F82200DFF84C090078401CDFF844197D
:1004F0000870DFF8100ADFF86818DFF8382912787A
:1005000041F82200DFF82C090078401CDFF824199C
:100510000870DFF8F409DFF84818DFF818291278B6
:1005200041F82200DFF80C090078401CDFF80419BC
:100530000870DFF8D809DFF82818DFF8F8281278F3
:1005400041F82200DFF8EC080078401CDFF8E418DE
:100550000870DFF8780ADFF80818DFF8D828127872
:1005600041F82200DFF8CC080078401CDFF8C418FE
:100570000870DFF85C0ADFF8E817DFF8B8281278AF
:1005800041F82200DFF8AC080078401CDFF8A4181E
:100590000870DFF8400ADFF8C817DFF898281278EB
:1005A00041F82200DFF88C080078401CDFF884183E
:1005B0000870DFF8240ADFF8A817DFF87828127827
:1005C00041F82200DFF86C080078401CDFF864185E
:1005D0000870DFF8080ADFF88817DFF85828127863
:1005E00041F82200DFF84C080078401CDFF844187E
:1005F0000870704780B5012817D10121DFF8840BFE
:1006000008F030FC0221DFF87C0B08F028FC012008
:10061000DFF8CC1908704EF66020DFF8C8190880A2
:100620000120DFF8C419087009E00121DFF8540B3C
:1006300008F015FC0221DFF84C0B08F010FC01BD9E
:1006400080B5012817D10121DFF8380B08F007FC2D
:100650000221DFF8300B08F005FC0020DFF88019DC
:1006600008704EF66020DFF87C1908800120DFF862
:100670007819087009E00121DFF8080B08F0EFFB9A
:100680000221DFF8000B08F0EAFB01BD80B5DFF8BE
:1006900058090078002803D0022859D001D36AE015
:1006A00069E0DFF84009008800282DD0DFF8300924
:1006B0000078002811D1DFF834090078C0F38010E9
:1006C000C0B2002843D04FF4FA60DFF81819088050
:1006D0000220DFF81419087039E0DFF80409007807
:1006E000012834D1DFF804090078C0F34010C0B20B
:1006F00000282CD04FF4FA60DFF8E81808800220B8
:10070000DFF8E418087022E0DFF8D4080078002849
:100710000CD1DFF8740A407850F04000DFF8681A16
:1007200048700220DFF8C018087010E0DFF8B00849
:10073000007801280BD1DFF8500A407850F02000F3
:10074000DFF8441A48700220DFF89C18087012E0A5
:10075000DFF89008008800280DD10121DFF8240A75
:1007600008F07DFB0221DFF81C0A08F078FB00206E
:10077000DFF87418087001BD80B5012814D14FF45A
:100780008071DFF8000A08F06DFB8021DFF8F409C2
:1007900008F065FB42F21070DFF8F01908800120C4
:1007A000DFF8EC1908700AE04FF48071DFF8D40923
:1007B00008F055FB8021DFF8CC0908F050FB01BDA3
:1007C00080B5012814D14FF48071DFF8B80908F022
:1007D00046FB8021DFF8AC0908F044FB42F21070C0
:1007E000DFF8A81908800120DFF8A41908700AE0D2
:1007F0004FF48071DFF88C0908F031FB8021DFF8BD
:10080000840908F02CFB01BD80B5DFF8840900786D
:10081000002802D0012801D014E013E0DFF86C09B1
:10082000008800280ED14FF48071DFF8580908F0D5
:1008300016FB8021DFF84C0908F011FB0020DFF8DF
:100840005019087001BD80B5012813D14021DFF88F
:10085000340908F007FB2021DFF8280908F0FFFA27
:100860000120DFF83019087042F21070DFF8281903
:10087000088009E04021DFF80C0908F0F0FA202197
:10088000DFF8000908F0EBFA01BD80B5012813D1AB
:100890002021DFF8F00808F0E5FA4021DFF8E4084D
:1008A00008F0DDFA0120DFF8EC18087042F2107051
:1008B000DFF8E418088009E04021DFF8C80808F0F4
:1008C000CEFA2021DFF8BC0808F0C9FA01BD80B5D6
:1008D000DFF8C0080078002802D0012801D013E01A
:1008E00012E0DFF8B408008800280DD12021DFF8DD
:1008F000940808F0B4FA4021DFF8880808F0AFFA4D
:100900000020DFF89018087001BD80B5012815D1CE
:100910004FF40061DFF86C0808F0A4FA4FF480513E
:10092000DFF8600808F09BFA0120DFF87018087003
:1009300042F21070DFF8681808800BE04FF4006195
:10094000DFF8400808F08BFA4FF48051DFF83408E4
:1009500008F085FA01BD80B5012815D14FF480510A
:10096000DFF8200808F07EFA4FF40061DFF8140881
:1009700008F075FA0120DFF82418087042F21070B0
:10098000DFF81C1808800BE04FF40061DFF8F40773
:1009900008F065FA4FF48051DFF8E80708F05FFAD5
:1009A00001BD80B5DFF8F4070078002802D00128E7
:1009B00001D015E014E0DFF8E807008800280FD127
:1009C0004FF48051DFF8BC0708F049FA4FF400619A
:1009D000DFF8B00708F043FA0020DFF8C01708700E
:1009E00001BD80B5002805D10421DFF8980708F083
:1009F00036FA04E00421DFF88C0708F033FA01BD71
:100A000080B5002805D10821DFF8780708F027FA1B
:100A100004E00821DFF86C0708F024FA01BD80B576
:100A2000002805D11021DFF85C0708F018FA04E06F
:100A30001021DFF8500708F015FA01BD80B5002835
:100A400006D14FF40071DFF83C0708F008FA05E022
:100A50004FF40071DFF82C0708F004FA01BD80B5EF
:100A6000002806D14FF48061DFF8180708F0F7F985
:100A700005E04FF48061DFF80C0708F0F3F901BDE1
:100A800080B5002806D14FF40051DFF8F80608F0D1
:100A9000E6F905E04FF40051DFF8E80608F0E2F966
:100AA00001BD80B5002806D14FF48041DFF8D4069F
:100AB00008F0D5F905E04FF48041DFF8C80608F0EA
:100AC000D1F901BD80B5002806D14FF40041DFF80F
:100AD000B40608F0C4F905E04FF40041DFF8A406BD
:100AE00008F0C0F901BD80B5002805D11021DFF85C
:100AF000880B08F0B4F904E01021DFF87C0B08F053
:100B0000B1F901BD80B5002805D10421DFF86C0BD7
:100B100008F0A5F904E00421DFF8600B08F0A2F961
:100B200001BD80B5002806D14FF48051DFF8500B8D
:100B300008F095F905E04FF48051DFF8440B08F018
:100B400091F901BD80B5002806D14FF40061DFF8AE
:100B5000300B08F084F905E04FF40061DFF8200B5A
:100B600008F080F901BD80B5002806D14FF400419E
:100B7000DFF8100B08F073F905E04FF40041DFF8DF
:100B8000040B08F06FF901BD80B5002806D14FF4C1
:100B90008061DFF8EC0A08F062F905E04FF480614B
:100BA000DFF8DC0A08F05EF901BD80B5002806D147
:100BB0004FF40071DFF8C80A08F051F905E04FF46E
:100BC0000071DFF8BC0A08F04DF901BD80B50028BE
:100BD00005D10821DFF8A00A08F041F904E0082156
:100BE000DFF8940A08F03EF901BD000000E400E0DF
:100BF00080B5002805D10121DFF8800A08F02FF91F
:100C000004E00121DFF8740A08F02CF901BD80B579
:100C1000002805D10221DFF8640A08F020F904E079
:100C20000221DFF8580A08F01DF901BD14E000E0C8
:100C300018E000E0F505000880B500280DD1082176
:100C4000DFF8400A08F00BF9DFF8900B007810F09D
:100C5000FE00DFF8881B08700CE00821DFF8240A8A
:100C600008F000F9DFF8740B007850F00100DFF8AD
:100C70006C1B087001BD00004106000880B500280B
:100C800005D10421DFF8FC0908F0E9F804E00421AB
:100C9000DFF8F00908F0E6F801BD0000E3090008FC
:100CA000010A000880B500280ED14FF48051DFF80A
:100CB000C80908F0D4F8DFF8240B007810F0FD0024
:100CC000DFF8181B08700DE04FF48051DFF8A80919
:100CD00008F0C8F8DFF8040B007850F00200DFF8E5
:100CE000FC1A087001BD00001F0A000880B500282A
:100CF00006D14FF40051DFF8800908F0B0F805E0A4
:100D00004FF40051DFF8700908F0ACF801BD0000A5
:100D10008B08000847080008C107000880B50028B4
:100D20000ED14FF48051DFF8540908F098F8DFF83D
:100D3000AC0A007810F0FB00DFF8A01A08700DE094
:100D40004FF48051DFF8340908F08CF8DFF88C0A92
:100D5000007850F00400DFF8841A087001BD00002C
:100D6000701000207907000880B5002806D14FF4E4
:100D70000051DFF8080908F072F805E04FF400515F
:100D8000DFF8F80808F06EF801BD00003D0A000821
:100D900080B5002806D14FF48041DFF8E80808F05C
:100DA0005EF805E04FF48041DFF8D80808F05AF803
:100DB00001BD00005F0A000880B5002806D14FF48D
:100DC0000051DFF8C00808F04AF805E04FF4005180
:100DD000DFF8B00808F046F801BD00000B09000874
:100DE0005709000880B5002806D14FF48051DFF87C
:100DF000940808F034F805E04FF48051DFF88408D7
:100E000008F030F801BD000018ED00E0810A00088C
:100E100080B5DFF8CC090078012807D0DFF8C409D5
:100E2000DFF8FC1A097850F82100804701BD000066
:100E300010E000E0C2140020A30A0008C50A000860
:100E4000670B0008F10B00080F0C0008390C0008B4
:100E50007D0C0008A50C0008DFF88C09DFF8841968
:100E60000860DFF88809DFF87C194860DFF880093E
:100E7000DFF870198860DFF87C09DFF86819C8604E
:100E8000DFF87409DFF85C190861DFF87009DFF832
:100E900054194861DFF86809DFF848198861DFF8FC
:100EA0006409DFF84019C861DFF85C09DFF834191C
:100EB0000862DFF85809DFF82C194862DFF850099A
:100EC000DFF820198862DFF84C09DFF81819C862CA
:100ED000DFF84409DFF80C190863DFF8480ADFF887
:100EE00004194863DFF8400ADFF8F8188863704790
:100EF000ED0C00081D0D0008690D0008910D00089B
:100F0000B90D0008E50D0008E70A0008050B000808
:100F1000704780B5DFF8E00B0078002806D0022883
:100F200017D004D3042840D02ED34EE04DE0DFF894
:100F3000FC090088DFF8F8190988884204D20320E8
:100F4000DFF8B41B087003E00420DFF8AC1B087066
:100F50003BE0DFF8DC090088801EDFF8D019098843
:100F6000884204DB0320DFF8901B08700BE0DFF8F9
:100F7000BC090088DFF8B8190988884203D3042027
:100F8000DFF8741B087020E0DFF8A809007800285B
:100F900004D0DFF8A4090078002801D101F064FD35
:100FA0000220DFF8541B08700FE0DFF88809007892
:100FB000012804D0DFF880090078012801D101F070
:100FC00045FD0220DFF8301B087001BD230B00082F
:100FD000450B0008890B0008AB0B0008CD0B00087F
:100FE000B214002028140020B3140020361400206E
:100FF00080B565480088002840F0C380DFF8F80A13
:101000000078DFF838190870DFF834090078C0B2CA
:10101000C009C0B200285DD0DFF8200900780028A0
:1010200008D0012807D0052817D0062830D0072877
:101030003FD0A0E09FE0DFF8F4080088DFF8F01868
:101040000988884204D20620DFF8F018087003E00F
:101050000720DFF8E81808708DE0DFF8D008008876
:10106000DFF8CC180988884204D30720DFF8CC18B1
:1010700008700CE0DFF8B8080088801EDFF8AC18B4
:101080000988884203DB0620DFF8B018087072E098
:10109000DFF8A0080078002804D0DFF89C0800786A
:1010A000002801D101F0E0FC0520DFF8901808705D
:1010B00061E0DFF880080078012804D0DFF87808C4
:1010C0000078012801D101F0C1FC0520DFF86C187F
:1010D000087050E0DFF864080078002806D0022885
:1010E00017D004D304283BD02ED344E043E0DFF8EC
:1010F0003C080088DFF838180988884204D20320A9
:10110000DFF83818087003E00420DFF830180870A2
:1011100031E0DFF818080088DFF8141809888842E1
:1011200004D30420DFF8141808700CE0DFF800087E
:101130000088801EDFF8F4170988884203DB03204B
:10114000DFF8F817087016E0DFF8B009007800281B
:1011500001D101F057FD0220DFF8E01708700AE026
:10116000DFF898090078012801D101F040FD022044
:10117000DFF8C8170870DFF8C4070078DFF87819BF
:10118000087001BD00180140381400202A14002006
:10119000B4140020B51400202C140020B614002034
:1011A0002E14002080B5DFF858090088002840F090
:1011B0002D81DFF844090078DFF848190870DFF85E
:1011C00080070078C0B2C009C0B200285DD0DFF847
:1011D00034090078002808D0012807D0032832D02D
:1011E000042841D0052813D00AE109E1DFF83C07C3
:1011F0000088DFF83C170988884204D20320DFF812
:101200000419087003E00420DFF8F8180870F7E00C
:10121000DFF818070088DFF818170988884204D318
:101220000420DFF8E01808700CE0DFF804070088FD
:10123000801EDFF8F8160988884203DB0320DFF8F8
:10124000C4180870DCE0DFF8EC060078002804D051
:10125000DFF8E4060078002801D101F005FC052044
:10126000DFF8A0180870CBE0DFF8C8060078012886
:1012700004D0DFF8C4060078012801D101F0E6FBB4
:101280000520DFF880180870BAE0DFF878080078E9
:1012900000280DD001280CD0022819D0032833D003
:1012A000052851D0062861D0072800F0A080A7E0CB
:1012B000A6E0DFF878060088462804DA0320DFF885
:1012C0004418087003E00220DFF83818087097E02F
:1012D000DFF860060078012804D0DFF85C060078AB
:1012E000012801D101F0B2FB01F08CFC0420DFF8F1
:1012F000141A0870DFF81008DFF80C1A08600620CE
:10130000DFF8001808707BE0DFF8F00700780128AC
:1013100001D101F06CFC01F0A7FB0020DFF8EC1913
:1013200008804FF4FA70DFF8E819088041F288303D
:10133000DFF8E01908800120DFF8C81908700520DF
:10134000DFF8C01708705BE0DFF8E005008846288A
:101350000BDB01F07BFB01F055FC0420DFF8A41946
:1013600008700620DFF89C17087049E0DFF8BC051C
:101370000088462804DA0320DFF88817087035E073
:10138000DFF87807007801281CD1DFF8A005008875
:10139000DFF89C150988884228D301F028FC00203A
:1013A000DFF8681908804FF4FA70DFF864190880D4
:1013B00041F28830DFF85C1908800120DFF8441919
:1013C000087013E0DFF83407007800280ED1DFF84A
:1013D00060050088801EDFF854150988884205DB07
:1013E00001F010FC0420DFF81C19087008E0DFF899
:1013F00018090068002803D10120DFF808170870D9
:10140000DFF800070078DFF8F016087001BD7047BC
:1014100080B5DFF8E4060078DFF8FC180870DFF824
:1014200020050078C0B2C009C0B200285DD0DFF846
:10143000E8080078002808D0012807D0022817D033
:10144000042830D005283FD00EE10DE1DFF8DC04A0
:101450000088DFF8DC140988884204D20420DFF811
:10146000B818087003E00520DFF8AC180870FBE03E
:10147000DFF8B8040088DFF8B8140988884204D37C
:101480000520DFF8941808700CE0DFF8A404008849
:10149000801EDFF898140988884203DB0420DFF8F7
:1014A00078180870E0E0DFF88C040078002804D099
:1014B000DFF884040078002801D101F0D5FA022079
:1014C000DFF854180870CFE0DFF8680400780128CE
:1014D00004D0DFF864040078012801D101F0B6FAE5
:1014E0000220DFF834180870BEE0DFF82C0800781E
:1014F00000280DD001280CD0022813D0032823D0B7
:10150000042854D0062876D0072800F09180ABE05C
:10151000AAE00020DFF8DC1908700220DFF8F817D5
:101520000870A1E0DFF804040088DFF804140988DB
:10153000884204D20420DFF8E017087003E0062098
:10154000DFF8D41708708FE0DFF8E4030088801E0E
:10155000DFF8D8130988884204DB0420DFF8B817C5
:10156000087023E0DFF8C4030088DFF8C41309889B
:1015700088421BD3DFF87C09007800280AD1DFF805
:1015800078090078DFF86C1908700620DFF88817F2
:1015900008700BE0DFF89C030078012804D0DFF826
:1015A00098030078012801D101F050FA5CE0DFF8DF
:1015B0004C050078012801D101F019FBDFF8740314
:1015C0000078002812D1DFF87003007800280DD1D0
:1015D00001F04AFADFF81C090078002806D0DFF88D
:1015E00014090078401EDFF80C1908700320DFF89A
:1015F0002817087038E0DFF83C030078012804D091
:10160000DFF834030078012801D101F01FFADFF878
:10161000EC040078002801D101F0F4FA4EF66020C5
:10162000DFF8E41608600720DFF8EC1608701BE00E
:10163000DFF8D406006800280BD0BD480088801E63
:10164000BA49098888420FDB0420DFF8CC160870FD
:101650000AE0DFF8A8040078012801D101F0C7FAF8
:101660000320DFF8B4160870DFF8AC060078DFF866
:101670008814087001BD000000100140000C0140FA
:10168000001C01400014014080B5DFF86C040078B4
:1016900000280AD0022820D008D304285DD02DD3FA
:1016A000062800F08D806ED396E095E00020DFF8EC
:1016B000A4190870DFF8A009007810F0FD00DFF829
:1016C000981908709A4800881E30DFF89019088031
:1016D0000220DFF8241408707EE094480088DFF8C8
:1016E0007C190988884204D20420DFF80C140870A1
:1016F00003E00520DFF8001408706DE0DFF85C09F6
:101700000088801E89490988884204DB0420DFF8AC
:10171000E81308700AE085480088DFF84019098856
:10172000884203D30520DFF8D0130870DFF82409BE
:101730000078012810D1DFF820090078C0F34000BC
:10174000C0B2002808D1DFF8C0050068002803D126
:101750000620DFF8A41308703EE0DFF8A00300784D
:10176000012801D101F043FA72480078002803D023
:1017700071480078002801D101F076F90320DFF8E4
:101780007813087028E06B480078012803D06A4875
:101790000078012801D101F059F9DFF8B808007884
:1017A000002808D1DFF8B808DFF85C1508600120D0
:1017B000DFF8A01808700320DFF83C1308700BE076
:1017C000DFF89408007850F00200DFF88C180870F9
:1017D0000320DFF82413087001BD00003A14002034
:1017E0003F15002010110020110F0008130F0008F2
:1017F000F10F0008A51100080F14000811140008CB
:10180000891600081D180008451900080D1B00085E
:101810000F1B00081D1D0008FD1E000880B5B648FE
:101820000078DFF840180870DFF8380800780028E2
:1018300006D0022821D004D3042840D034D356E067
:1018400055E00020DFF820180870DFF80C08007859
:1018500010F0FD00DFF800180870344800883449A3
:101860000988884204D20320DFF8F817087003E0E3
:101870000420DFF8F017087039E02C4800882C4964
:101880000988884204D30420DFF8D81708700AE0DA
:1018900027480088801E25490988884203DB0320E9
:1018A000DFF8C017087022E094480078002801D1C2
:1018B00001F0A8F90220DFF8AC17087017E08F4894
:1018C0000078012801D101F092F9DFF89C07007837
:1018D000002808D1DFF88807DFF8BC18086001206D
:1018E000DFF8841708700220DFF878170870DFF837
:1018F0007807007801280CD1DFF89C0800680028E0
:1019000007D1DFF85407007850F00200DFF84817DD
:101910000870DFF8500700787749087001BD0000B3
:10192000271500201D200008E71F0008461400208E
:10193000701400200F15002013150020B71400208C
:101940008014002080B56C480078DFF850180870CB
:10195000DFF84808007800280CD0022817D00AD3F6
:1019600004283ED022D306285FD04AD3072800F0AF
:10197000A380A9E0A8E00020DFF8EC160870DFF8EB
:10198000D806007810F0FD00DFF8CC160870DFF8FC
:1019900028080088462804DA0420DFF800180870B8
:1019A00003E00320DFF8F41708708DE0DFF8F0079C
:1019B0000078012804D0DFF8EC070078012801D175
:1019C00001F044F801F01EF90420DFF83813087024
:1019D0004D48DFF8341308600620DFF8C0170870A0
:1019E00072E046480078012801D101F000F901F0C9
:1019F0003BF80420C34908700520DFF8A0170870E1
:101A000062E0DFF8B407008846280DDB01F01EF81D
:101A100001F0F8F80420BB4908703B48BA49086057
:101A20000620DFF8781708704EE0B74800680028F5
:101A30003DD032480078012826D1DFF87C070088A5
:101A4000DFF8D8170988884235D301F0D0F8002094
:101A5000AE4908804FF4FA70AD49088041F28830F1
:101A6000AC4908800120A7490870DFF8FC05007820
:101A7000002820D1DFF8E805DFF81C1708600120F6
:101A8000DFF8E415087016E01C480078002812D131
:101A9000DFF888070088801EDFF81C170988884255
:101AA00009DB01F0AFF804209649087003E001203B
:101AB000DFF8E816087007E093480068002803D1B3
:101AC0000220DFF8D8160870DFF89C05007801289E
:101AD0000CD1DFF8C4060068002807D1DFF87805CC
:101AE000007850F00200DFF870150870DFF8AC06DF
:101AF00000780149087001BD281500201915002043
:101B000038140020B8140020E0930400704780B51A
:101B1000DFF82C090078DFF89C170870DFF89407CD
:101B2000007800280BD0022826D009D3042868D0DA
:101B300034D3062800F0B080C0F08480C9E0C8E04B
:101B40000020DFF8B01308700020DFF81C150870C3
:101B5000DFF80405007810F0FD00DFF8FC140870D1
:101B6000DFF8B80600881E30DFF8B01608800220C3
:101B7000DFF840170870ACE0DFF83C060088DFF8BB
:101B80009C160988884204D20420DFF828170870C0
:101B900003E00520DFF81C1708709AE0DFF87C06E8
:101BA0000088801EDFF810160988884204DB0420B4
:101BB000DFF80017087023E0DFF8FC050088DFF885
:101BC0005C16098888421BD3DFF8280300780028B8
:101BD0000AD1DFF824030078DFF818130870052015
:101BE000DFF8D01608700BE0DFF8B40500780128A4
:101BF00004D0DFF8B0050078012801D100F026FFFD
:101C000067E0DFF8B4060078012801D100F0EFFFAB
:101C1000DFF88C05007800280FD1DFF88805007800
:101C200000280AD100F020FFB2480078002804D034
:101C3000B0480078401EAF4908700320DFF87416E2
:101C4000087046E0DFF858050078012804D0DFF876
:101C500054050078012801D100F0F8FEDFF858069D
:101C60000078002801D100F0CDFF4EF66020264913
:101C70000860DFF8F4030078002808D1DFF8E003FB
:101C8000DFF8141508600120DFF8DC130870062067
:101C9000DFF8201608701CE01B48006800280DD0F3
:101CA000DFF878050088801EDFF80C150988884267
:101CB0000FDB0420DFF8FC1508700AE0DFF8F805F8
:101CC0000078012801D100F092FF0320DFF8E4152D
:101CD0000870DFF89403007801280CD1DFF8B8040D
:101CE0000068002807D1DFF87003007850F0020088
:101CF000DFF864130870DFF8BC050078DFF84017E0
:101D0000087001BD3E150020D41300208E14002061
:101D10009014002092140020BA14002080B5DFF83F
:101D200020070078DFF81C170870DFF81807007824
:101D300000280FD0022813D00DD304285ED042D340
:101D4000062800F08F8071D3082800F0C080C0F012
:101D5000A680C7E0C6E00220DFF8E8160870C1E000
:101D6000DFF854040088DFF8B4140988884204D2EC
:101D70000420DFF8D016087024E0DFF8CC06B0F9B4
:101D8000000000281AD0DFF830040088DFF88C1437
:101D9000098888420DD3DFF820040088DFF8A816F0
:101DA000B1F90010884204DA0720DFF898160870AD
:101DB00008E00820DFF88C16087003E00520DFF843
:101DC000841608708EE0DFF854040088801EDFF867
:101DD000E8130988884204DB0420DFF868160870DD
:101DE0000BE0DFF8D4030088DFF83014098888425C
:101DF00003D30520DFF84C16087073E0DFF8B80451
:101E00000078012801D100F0F2FEDFF89403007899
:101E1000002804D0DFF88C030078002801D100F0FE
:101E200023FE0320DFF81C1608705BE0DFF8700368
:101E30000078012804D0DFF86C030078012801D174
:101E400000F004FEDFF80006B0F90000002804D11D
:101E50000320DFF8F015087003E00720DFF8E41531
:101E600008703FE0DFF8E005B0F90000801EDFF801
:101E700048130988884204DB0720DFF8C81508707A
:101E80000CE0DFF834030088DFF8BC15B1F900106E
:101E9000884203DB0820DFF8AC15087022E0DFF889
:101EA00000030078012804D0DFF8F8020078012848
:101EB00001D100F0CBFDDFF800040078002801D14B
:101EC00000F0A0FE0620DFF87C1508700AE0DFF8BD
:101ED000E8030078012801D100F089FE0620DFF830
:101EE00064150870DFF85C050078DFF85415087099
:101EF00001BD0000B91400202615002080B5DFF8D0
:101F000040050078DFF8F8170870DFF8F40700786C
:101F1000002808D002280CD006D3042836D01AD3C3
:101F200005284BD058E057E00220DFF8D41708709E
:101F300052E0DFF884020088DFF8E0120988884266
:101F400004D20420DFF8B817087003E00520DFF89A
:101F5000B017087040E0DFF8C4020088801EDFF888
:101F600058120988884204DB0420DFF894170870AF
:101F70000BE0DFF844020088DFF8A01209888842ED
:101F800003D30520DFF87817087025E0DFF8280371
:101F90000078012801D100F02AFEDFF80402007861
:101FA000002804D0DFF8FC010078002801D100F0FF
:101FB0005BFD0320DFF8481708700DE078480078D3
:101FC000012803D077480078012801D100F03EFDB8
:101FD0000320DFF82C170870DFF824070078DFF8FB
:101FE0006014087001BD80B56D480078012803D0E9
:101FF0006C480078012801D100F028FDDFF8B80214
:102000000078012801D100F0F2FD0020DFF8F4167D
:1020100008700120DFF82814087001BD80B5604801
:102020000078012803D05F480078012801D100F032
:102030000DFDDFF884020078012801D100F0D7FD02
:102040000020DFF8C01608700020DFF8F4130870D5
:1020500001BD0000BB1400204415002030140020F6
:10206000C0270900BD140020BC14002080B501F079
:102070000CF901F012FF01F027F84FF47A7007F025
:1020800025FBDFF8C439002247F60101062002F0E3
:102090006BFC0821DFF8B00907F08DFCDFF8C039D0
:1020A000002247F60101062002F05EFC0821DFF85D
:1020B000B00907F097FC002004F0F2FB0120DFF8E4
:1020C000A4190880DFF82C09007850F00400DFF82C
:1020D00024190870DFF81C09007850F00800DFF8B8
:1020E0001419087001F0FDFA01F0D6FE01F09AFB18
:1020F00001F06EFC01F048FD01F042FE02F008FD27
:1021000001F0FCFF02F012FB02F0DAFD04F05CF9D2
:1021100004F05EF904F06EF904F052FA04F098FA53
:1021200000F094F900F0F2FA00F0D4FC00F0A2FD07
:1021300000F014FF04F0CEFD00F075FF05F08AFBFF
:1021400004F0DCFA05F0D2F805F0FAF805F070F9C1
:1021500005F02CFADFF8CC0A007805F082FA05F0D9
:10216000F5FB06F047F806F0DFFB00F0A7F806F0F5
:1021700097FB06F079FCFEF74BFE06F0DDFC06F05F
:10218000F3FCFEF783FAFEF73FFBFEF7A0FBFEF73A
:1021900008FC00F009F8A5E7D8130020BE140020C1
:1021A0000F1500201315002080B500F007F800F08F
:1021B00037F800F064F801BD4614002080B5DFF860
:1021C000680A0078002805D0022812D003D303281B
:1021D0001ED021E020E00120DFF8F418496988478B
:1021E0006E20DFF81C1A08800220DFF83C1A087005
:1021F00012E0DFF80C0A008800280DD10120DFF87A
:10220000D018896988470320DFF81C1A087003E09A
:102210000020DFF8141A087001BD000070140020BF
:1022200080B5DFF8080A0078002805D0022812D00F
:1022300003D303281ED021E020E00120DFF890180E
:10224000C96A88476E20DFF8E81908800220DFF8A5
:10225000DC19087012E0DFF8D809008800280DD1D9
:102260000120DFF86C18096B88470320DFF8BC19E0
:10227000087003E00020DFF8B419087001BD80B5D4
:10228000DFF8B40C0078002803D002280CD001D36A
:102290000EE00DE00120DFF83818C96988470220F8
:1022A000DFF8941C087003E00020DFF88C1C087035
:1022B00001BD0000BF1400201915002010B5DFF883
:1022C00074090078002812D1DFF86C090078022820
:1022D00003D00220DFF864190870DFF86409007881
:1022E000022803D00220DFF85C190870A7E0DFF8AD
:1022F00004070078C0F30010C0B200284ED0DFF809
:102300003C0C0078012840F09A8000241BE0DFF8A4
:102310003809007821002039084110F00100DFF869
:10232000B01751F8241088470CE0202CEFDADFF8C2
:102330001C090068E04010F00100DFF8941751F824
:1023400024108847641CDFF8080900788442ECDB1D
:10235000DFF800090078012804D0DFF8FC080078D5
:10236000012801D100F080FBDFF8F0080078012897
:1023700001D100F047FCDFF8E8080078DFF8E41846
:1023800008700020DFF8E01808700220DFF8B418A9
:1023900008700020DFF8A41B087050E0DFF89C0BE9
:1023A000007800284BD1DFF830060068DFF89C1871
:1023B0000860DFF8B8080078DFF88C180870DFF8DC
:1023C000A4080078DFF898180870DFF8740B00781C
:1023D000DFF880180870DFF86C0B0078DFF87818E9
:1023E0000870DFF8640B0078DFF870180870DFF809
:1023F000500B0078012804D0DFF8480B0078012842
:1024000001D100F023FBDFF8400B0078012801D157
:1024100000F0EDFBDFF84C080078012803D1012023
:10242000DFF84C1808700120DFF818180870022037
:10243000DFF8081808700120DFF8001B087010BDD5
:1024400028150020C01400208A14002080B5DFF871
:10245000F00A0078002800F05181DFF8540C007871
:1024600000281FD0022846D01DD3042875D050D391
:10247000062800F0A480C0F08980082800F0F080D1
:10248000C0F0B9800A2800F0FC80C0F0CB800C2896
:1024900000F01B81C0F004810E2800F02781C0F0FD
:1024A00024812BE12AE1DFF8A40A0078C0F3C00000
:1024B000C0B200280DD0012006F00EFB9248007833
:1024C00050F02000904908700D20DFF8E41B0870E0
:1024D00010E0DFF8780A007810F00100002809D039
:1024E0008948007810F0F700874908700220DFF86B
:1024F000C01B087002E14FF4FA70DFF8541A08802C
:102500000320DFF8AC1B08700220DFF8481A0870BF
:10251000F4E0DFF83C0A0088002840F0EF8000205B
:10252000DFF8AC15096D88470020DFF8A415C96CE9
:1025300088470120DFF89815496E8847DFF8180AA8
:10254000007802F068F940F6B830DFF8041A088025
:102550000420DFF85C1B0870D0E0DFF8F409008885
:10256000002840F0CB800120DFF86415096D884712
:10257000DFF8E40981794FF47A704143DFF8D0093C
:1025800001800520DFF8281B0870B7E0DFF8C009DC
:102590000088002840F0B2800120DFF83415C96CB3
:1025A0008847DFF8B409C1794FF47A704143DFF806
:1025B000A00901800620DFF8F81A08709EE0DFF815
:1025C00090090088002811D0DFF828044078C0F373
:1025D0004000C0B200280DD00720DFF8D41A0870E0
:1025E0004FF47A70DFF86819088003E00920DFF8FB
:1025F000C01A087082E0DFF85809008800280CD063
:10260000DFF8F0034078C0F34000C0B2002808D1E2
:102610000920DFF89C1A087003E00A20DFF8901AFE
:1026200008706BE0DFF82C09007800280BD0DFF889
:1026300024090078401EDFF81C1908700320DFF819
:10264000701A08700BE0DFF86C0A007850F0010097
:10265000DFF8601A08700820DFF8541A08704DE09F
:102660000020DFF86C14096D88470020DFF8601443
:10267000C96C884700F0EAF90E20DFF8341A0870B8
:102680003CE0DFF8D408407802F0C5F84FF4FA6077
:10269000DFF8BC1808800B20DFF8141A08702DE052
:1026A000DFF8AC080088002828D10020DFF82014CB
:1026B000096D88471448007850F0080012490870E6
:1026C0000C20DFF8EC19087018E0CA484078C0F315
:1026D0004000C0B2002807D1DFF8D809007850F0D8
:1026E0000800DFF8D019087008E007E00020DFF8E4
:1026F000501808700020DFF8B819087001BD0000FC
:10270000C1140020271500203A14002080B5DFF8FE
:102710003C080078C0F34000C0B2002800F03681C9
:10272000DFF820080078002800F03081DFF84C0C3A
:102730000078002822D0012821D002282CD003289C
:1027400038D0042857D005286DD0062800F08380A3
:10275000072800F09B80082800F0CC80092800F0B2
:10276000AB800A2800F0D5800B2800F0E1800C280F
:1027700000F0F4800E2800F0018107E106E1DFF8A7
:102780003809007810F0EF00DFF82C1908700220EB
:10279000DFF8E81B0870F9E04FF4FA70DFF81C1955
:1027A00008800320DFF8D41B08700220DFF810191E
:1027B0000870EBE0DFF804090088002840F0E680AC
:1027C0000020C349896D88470020C149496D884769
:1027D0000120BF49896E8847DFF87C07C07802F086
:1027E00039F840F6B830DFF8D41808800420DFF854
:1027F0008C1B0870CAE0DFF8C4080088002840F08D
:10280000C5800120B249896D8847DFF84C0781797E
:102810004FF47A704143DFF8A40801800520DFF807
:102820005C1B0870B2E0DFF894080088002840F0D4
:10283000AD800120A649496D8847DFF81C07C179A2
:102840004FF47A704143DFF8740801800620DFF806
:102850002C1B08709AE0DFF864080088002810D06C
:1028600064484078C0F38000C0B200280DD0072033
:10287000DFF8081B08704FF47A70DFF84018088002
:1028800003E00920DFF8F41A08707FE0DFF82C0875
:10289000008800280BD057484078C0F38000C0B2B1
:1028A000002808D10920DFF8D41A087003E00A20B4
:1028B000DFF8C81A087069E0DFF80408007800281B
:1028C0000BD0DFF8FC070078401EDFF8F417087023
:1028D0000320DFF8A81A08700BE0DFF8D8070078AB
:1028E00050F00200DFF8CC1708700820DFF88C1ACF
:1028F00008704BE000207649896D884700207449B4
:10290000496D884700F0A2F80E20DFF8701A0870B1
:102910003CE0DFF84406007901F09CFF4FF4FA60D8
:10292000DFF8981708800B20DFF8501A08702DE0A8
:10293000DFF888070088002828D100206449896DC5
:102940008847DFF87407007850F01000DFF8681748
:1029500008700C20DFF8241A087017E0254840782A
:10296000C0F38000C0B2002807D1DFF84807007824
:1029700050F01000DFF83C17087007E00020DFF887
:10298000C41508700020DFF8F419087001BD0000BC
:10299000C0B2002802D0012805D008E00220DFF8EC
:1029A000E019087003E00320DFF8D4190870012053
:1029B000DFF8D01908700020DFF8F8160880012031
:1029C0009E4908700420DFF8C01908700120DFF864
:1029D0003C1C087070470000041400200E20DFF833
:1029E000A01908700220954908700420DFF8981992
:1029F0000870704736140020DFF890190870012025
:102A0000DFF8801908700020DFF8A8160880012080
:102A10008A4908700420DFF8701908700520DFF873
:102A20006019087070470020DFF8601908700E20E8
:102A3000DFF84C1908700420DFF84C1908700220E8
:102A40007E49087070470000301200200120DFF836
:102A5000401908700020DFF8B81B087070470000AC
:102A6000981200203414002080B50120DFF8D01423
:102A700008700120DFF8381608700120DFF8C41450
:102A800008700120DFF8F4180870DFF8BC04007843
:102A9000012801D100F0ABF80020DFF8F41808702D
:102AA00001BD000080B50120DFF8941408700120FA
:102AB000DFF8FC150870DFF890040078012801D1D8
:102AC00000F095F80020DFF8C818087001BD00007C
:102AD0007010002080B5DFF8B8080078002800F0FA
:102AE0008580DFF82C0B0078002802D0012866D002
:102AF0007CE00020DFF8481408700020DFF8C415DF
:102B000008700020DFF8A81508700020DFF86C18A6
:102B10000870DFF8A405007810F0F700DFF89815CA
:102B20000870DFF89405007810F0EF00DFF88815E2
:102B30000870DFF818040078C0F3C000C0B20028A5
:102B400007D0002005F0C8FF0020DFF84418087007
:102B50004CE00020DFF8BC1A096D88470020DFF840
:102B6000B41AC96C88470120DFF8A81A496E884753
:102B70000020DFF8A01A896D88470020DFF8941A3A
:102B8000496D88470120DFF88C1A896E8847DFF885
:102B9000C803807801F03FFEDFF8BC03407901F004
:102BA00059FEDFF8B403017A4FF47A704143DFF83D
:102BB000680A01800120DFF8581A087016E0DFF873
:102BC000580A0088002811D10020DFF8481A496E01
:102BD00088470020DFF83C1A896E88470020DFF81C
:102BE000301A08700020DFF8A817087001BD012016
:102BF000DFF8281A08700020DFF8541D08707047AD
:102C0000981400200120D04908700120DFF8FC1939
:102C100008700120DFF8081A08700020DFF8FC199E
:102C2000087070472C15002047150020461500201D
:102C30009A1400202215002034150020331500209E
:102C40003615002035150020FC1400200814002043
:102C5000C214002010150020141500201A150020A1
:102C60000B1500200A1500200D150020FB14002074
:102C70000C15002080B5B4480078002800F05A8177
:102C8000DFF89C09007800281FD002284ED01DD301
:102C900004287DD058D3062800F0AC80C0F0918085
:102CA000082800F0F680C0F0C1800A2800F00781F3
:102CB000C0F0D3800C2800F02681C0F00F810E28D0
:102CC00000F03181C0F02E8134E133E19F4800787B
:102CD000C0F38000C0B200280CD0DFF8DC0300781D
:102CE00010F0DF00DFF8D01308700220DFF8301991
:102CF00008701AE095480078C0F30010C0B20028B0
:102D00000FD0012005F0FFFEDFF8AC03007850F093
:102D10002000DFF8A41308700D20DFF804190870F4
:102D200003E00020DFF8F818087003E14FF4FA70B0
:102D3000DFF8E41A08800320DFF8E41808700220A6
:102D4000DFF8D81A0870F5E0DFF8CC0A0088002810
:102D500040F0F0800020DFF8BC18096E88470020A2
:102D6000DFF8B018C96D88470120DFF8A818C96ED0
:102D70008847DFF8AC0A007801F08EFD40F6B830E5
:102D8000DFF8941A08800420DFF894180870D1E066
:102D9000DFF8840A0088002840F0CC800120DFF8AA
:102DA0007418096E8847DFF8780AC1784FF47A7092
:102DB0004143DFF8640A01800520DFF864180870D9
:102DC000B8E0DFF8540A0088002840F0B380012002
:102DD000DFF84018C96D8847DFF8440A01794FF4DD
:102DE0007A704143DFF8300A01800620DFF830189E
:102DF00008709FE0DFF8200A0088002811D0DFF873
:102E0000340B4078C0F3C000C0B200280DD00720BA
:102E1000DFF80C1808704FF47A70DFF8FC1908809E
:102E200003E00920DFF8F817087083E0DFF8E8090D
:102E3000008800280CD0DFF8FC0A4078C0F3C000FE
:102E4000C0B2002808D10920DFF8D417087003E0C9
:102E50000A20DFF8CC1708706CE0DFF8C0090078B2
:102E600000280BD0DFF8B4090078401EDFF8AC1959
:102E700008700320DFF8A817087009E08D48007873
:102E800050F004008B4908700820DFF89417087090
:102E900050E00020DFF87C17096E88470020DFF83B
:102EA0007417C96D8847DFF874070078002801D1CE
:102EB000FFF79DFE0E20DFF8681708703AE0DFF894
:102EC0006009407801F0E8FC4FF4FA60DFF8481937
:102ED00008800B20DFF8481708702BE0DFF838096E
:102EE0000088002826D10020DFF82817096E8847BF
:102EF0007148007850F020006F4908700C20DFF80E
:102F00002017087016E0DFF82C0A4078C0F3C000E4
:102F1000C0B2002805D16748007850F0200065490C
:102F2000087007E006E00020074908700020DFF87D
:102F3000F016087001BD0000451500203F15002067
:102F40000F150020131500201915002080140020F3
:102F50006C14002012150020B813002080B5DFF893
:102F6000BC06007800285DD0DFF8E409007800286E
:102F700002D0012844D055E00020DFF84C1A087038
:102F80000020DFF89C1608704B48007810F0DF0036
:102F900049490870DFF8340A0078C0F38000C0B2F5
:102FA00000281DD00020DFF86C16096E884700202D
:102FB000DFF86016C96D88470120DFF85816C96E22
:102FC0008847DFF85C08807801F066FCDFF850087D
:102FD00041794FF47A704143DFF8000B01800AE039
:102FE000DFF8E8090078C0F30010C0B2002802D072
:102FF000002005F088FD0120DFF85419087011E069
:10300000DFF8D80A008800280CD10020DFF8041669
:10301000C96E88470020DFF8381908700020DFF8F3
:10302000FC15087001BD80B5DFF8F80A00780028AB
:103030003CD0DFF89809007810F0140F36D0DFF894
:10304000300B0078002831D1DFF8C0050078002867
:103050002CD0DFF8E008007810F00100002812D032
:103060000020DFF8B015096988474FF4FA60DFF8EF
:10307000041B08800120DFF8D01C08700120DFF855
:10308000F81A087012E00120DFF8881509698847EE
:10309000DFF8B40C0078012808D1DFF8D80A0088DE
:1030A000002803D10020DFF8A01C087001BD00003B
:1030B00011150020381400203A1400206E1400204E
:1030C000161500201315002010B5FDF75EF8FDF76A
:1030D000C3FE002406E00020DFF8381551F8241064
:1030E0008847641CDFF8940A00788442F3DB4FF4CD
:1030F0000051DFF88C0A05F0B5FE4FF40041DFF80F
:10310000800A05F0ACFE4FF48061DFF8740A05F028
:10311000A9FE4FF48051DFF8680A05F0A0FE802177
:10312000DFF85C0A05F09EFE4FF40071DFF8500AEC
:1031300005F095FE1021DFF8480A05F093FE4021C6
:10314000DFF83C0A05F08BFE41F2883000F040FFCA
:103150000A2001F060FB142001F07CFB1E2001F02E
:103160009BFB0120DFF81C1A08700120DFF8281BE8
:1031700008700120DFF8241B08700120DFF8201BF5
:1031800008706420DFF8341B08706420DFF8401BEF
:1031900008706420DFF83C1B08706420DFF8481BCF
:1031A00008701B20DFF8541B08703420DFF84C1B1C
:1031B00048703420DFF8441B88702620DFF83C1B61
:1031C000C8704A20DFF8341B08714A20DFF82C1B36
:1031D00048710320DFF8241B88710320DFF81C1BD3
:1031E000C8710520DFF8141B08722720DFF830169D
:1031F00008704820DFF8281648704820DFF82016AD
:1032000088700320DFF81816C8700320DFF8101646
:1032100008710520DFF8081648710120DFF82C1B23
:1032200008700120DFF8281B08700120DFF8241B3C
:1032300008700120DFF8201B08700120DFF81C1B3C
:1032400008700120DFF8181B08700120DFF8141B3C
:1032500008700120DFF8101B08700120DFF80C1B3C
:1032600008700120DFF8081B08700120DFF8041B3C
:1032700008700120DFF8001B08700120DFF8FC1A3D
:1032800008700020E149087010BD80B506F0DCFB35
:103290005FF4803006F008FC06F030FCDFF8241DF7
:1032A0000870DFF8200D0078012824D1002006F0F6
:1032B00060FC002006F071FC4FF4806006F063FCB7
:1032C000102006F055FD022006F046FD5FF4E011E7
:1032D0005FF4803006F02EFC012006F037FC392028
:1032E00006F0FCFC0028FAD0022006F033FC06F0C1
:1032F0003BFC0828FBD10121042006F0CFFC012172
:10330000082006F0CBFC0121102006F0C7FC0121AB
:10331000202006F0C3FC0121402006F0BFFC012163
:10332000802006F0BBFC01214FF4807006F0B6FC53
:1033300001214FF4804006F0B1FC01215FF4003020
:1033400006F0BCFC01215FF4802006F0B7FC0121EF
:103350005FF4002006F0B2FC0121012006F08EFC93
:1033600001214FF4005006F099FC00F013F806F02C
:103370006FFA00F065F900F055F901BD1515002050
:1033800027150020281500203E15002026150020B6
:103390001715002080B54FF4E070ADF8000018203C
:1033A0008DF8030003208DF802006946DFF8E00A7B
:1033B00005F0E8FC4BF2D060ADF8000010208DF86D
:1033C000030003208DF802006946DFF8B40705F01A
:1033D000D9FC44F62010ADF8000048208DF8030019
:1033E00003208DF802006946DFF8940705F0CAFC57
:1033F0004FF40070ADF8000018208DF80300032092
:103400008DF802006946DFF88C0A05F0BBFC4FF42A
:103410008060ADF8000004208DF803006946DFF8F5
:10342000740A05F0AFFC0420ADF8000018208DF8F8
:10343000030003208DF802006946DFF8580A05F002
:10344000A1FC0820ADF8000004208DF803006946B7
:10345000DFF8400A05F096FC4FF48060ADF80000FC
:1034600018208DF8030003208DF802006946DFF86C
:10347000300C05F087FC4FF40060ADF8000004202C
:103480008DF803006946DFF8180C05F07BFC4FF45B
:103490008060ADF8000018208DF8030003208DF83F
:1034A00002006946DFF8E80905F06CFC4FF40060A3
:1034B000ADF8000004208DF803006946DFF8D0095C
:1034C00005F060FC4FF6FF70ADF8000010208DF89D
:1034D000030003208DF802006946DFF8EC0A05F0CE
:1034E00051FC4FF20C00ADF8000010208DF80300E5
:1034F00003208DF802006946DFF8D00A05F042FC8F
:103500004FF47F60ADF8000048208DF803000320E1
:103510008DF802006946DFF8B40A05F033FC43F287
:103520000300ADF8000010208DF8030003208DF893
:1035300002006946DFF8680B05F024FC4FF44340B5
:10354000ADF8000048208DF8030003208DF802003C
:103550006946DFF84C0B05F015FC4FF44050ADF810
:10356000000010208DF8030003208DF8020069464A
:10357000DFF81C0905F006FC4FF46040ADF80000D0
:1035800010208DF8030003208DF802006946DFF853
:10359000140B05F0F7FB0320ADF8000048208DF870
:1035A000030003208DF802006946DFF8D40505F01A
:1035B000E9FB1820ADF8000010208DF8030003206F
:1035C0008DF802006946DFF8C80805F0DBFB4FF410
:1035D000F050ADF8000010208DF8030003208DF8A6
:1035E00002006946DFF8BC0A05F0CCFB0420ADF808
:1035F000000010208DF8030003208DF802006946BA
:10360000DFF89C0A05F0BEFB01BD00002A15002072
:103610001815002070100020741400201D150020C3
:103620001B15002080B548F6A040FCF794FD00284B
:1036300000D0FEE700215FF0FF30FCF779FD01BD0F
:1036400080B54FF4E06006F0A5FB0B208DF800007C
:1036500000208DF8010000208DF8020001208DF877
:103660000300684606F09BFB25208DF80000002033
:103670008DF8010001208DF8020001208DF8030073
:10368000684606F08CFB26208DF8000000208DF89F
:10369000010002208DF8020001208DF80300684629
:1036A00006F07DFB27208DF8000000208DF801003A
:1036B00003208DF8020001208DF80300684606F013
:1036C0006EFB34208DF8000000208DF801000420EE
:1036D0008DF8020001208DF80300684606F05FFBBC
:1036E00001BD80B5DFF8C0090088002849D1DFF8A6
:1036F000BC090088002806D0DFF8B0090088401E09
:10370000DFF8A8190880DFF8A8090088002806D08B
:10371000DFF89C090088401EDFF894190880DFF864
:1037200094090088002806D0DFF888090088401E28
:10373000DFF880190880DFF8EC030078002806D055
:103740004FF40041DFF85C0905F08CFB05E04FF415
:103750000041DFF8500905F082FBDFF85C090068E2
:1037600090F48040DFF850190860DFF84C090068D9
:1037700090F40050DFF8401908606420DFF8281941
:10378000088001BD80B51F20DFF8301908704FF4A4
:103790000041DFF8EC0305F065FB01BD80B54FF497
:1037A0000041DFF8DC0305F05AFB01BD80B54FF4A2
:1037B0000051DFF8CC0305F055FB01BD80B54FF497
:1037C0000051DFF8BC0305F04AFB01BD80B54FF4A2
:1037D0008041DFF8AC0305F037FB00280DD0DFF89F
:1037E000E00801680122DFF8D40890F90000824067
:1037F0001143DFF8CC0801600CE0DFF8C408016871
:103800000122DFF8B80890F9000082409143DFF808
:10381000B008016001BD0000761400201C150020D6
:10382000CC13002080B5DFF894040078002840F025
:103830008080DFF890080078002802D1FFF7A2FF0F
:103840001CE0DFF880080178032291FBF2F002FB14
:103850001010C0B2002808D0022803D00ED2FFF703
:10386000ADFF0BE0FFF7B2FF08E0FFF79FFFDFF8C7
:103870004C080078401EDFF844180870DFF83C0858
:1038800090F9000000284DD5FFF788FF0020DFF8F1
:1038900034180870DFF828080068DFF82C18086072
:1038A000DFF824080068800CDFF820180880DFF8B3
:1038B0001C08B0F90000042190FBF1F0DFF80C18AF
:1038C0000880DFF808080088DFF80418DFF804280B
:1038D000127821F81200DFF8FC070078401CDFF8AE
:1038E000F4170870DFF8EC0700780A2803DB0020E3
:1038F000DFF8E01708700021002205E0DFF8D007AC
:1039000030F812004118521C0A2AF7DB89B20A204B
:1039100091FBF0F0DFF8C01708806420DFF89C13FB
:10392000087006E0DFF89C070078401CDFF8941769
:10393000087001BD3614002080B51F20DFF89C17E9
:1039400008704FF480518E4805F08CFA01BD0000DC
:103950001E15002080B54FF48051894805F07FFA8C
:1039600001BD80B54FF48061854805F07BFA01BD4B
:1039700080B54FF48061824805F071FA01BD80B5D1
:103980004FF400617E4805F05FFA00280DD0DFF8A3
:10399000500701680122DFF8440790F900008240D7
:1039A0001143DFF83C0701600CE0DFF834070168E1
:1039B0000122DFF8280790F9000082409143DFF8E8
:1039C0002007016001BD00001915002080140020AF
:1039D00080B5BF480078002840F07F80DFF8280DD0
:1039E0000078002802D1FFF7A7FF1CE0DFF8180DD0
:1039F0000178032291FBF2F002FB1010C0B2002804
:103A000008D0022803D00ED2FFF7B2FF0BE0FFF779
:103A1000B6FF08E0FFF7A5FFDFF8C0060078401EFC
:103A2000DFF8B8160870DFF8B40690F90000002837
:103A30004CD5FFF78FFF0020DFF8CC1C0870DFF8B3
:103A4000A0060068DFF89C160860DFF8980600689A
:103A5000800CDFF894160880DFF88C06B0F90000BF
:103A6000042190FBF1F0DFF880160880DFF878067B
:103A70000088DFF87816DFF87826127821F812002F
:103A8000DFF86C060078401CDFF864160870DFF879
:103A9000600600780A2803DB0020DFF8541608705F
:103AA0000021002205E0DFF8440630F8120041183A
:103AB000521C0A2AF7DB89B20A2091FBF0F0DFF8EA
:103AC0003416088064208249087006E0DFF8380C5C
:103AD0000078401CDFF8301C087001BD781400200D
:103AE00080B51F20DFF8101608704FF40071DFF862
:103AF0001C0C05F0B7F901BD80B54FF40071DFF87B
:103B00000C0C05F0ACF901BD80B58021DFF8FC0B91
:103B100005F0A8F901BD80B58021DFF8F00B05F0B4
:103B20009EF901BD2215002080B54FF48071144824
:103B300005F08AF900280DD0DFF8D40B01680122C6
:103B4000DFF8B40590F9000082401143DFF8C00BA4
:103B500001600CE0DFF8B80B01680122DFF898057E
:103B600090F9000082409143DFF8A40B016001BD91
:103B7000381500208814002024150020C2140020CD
:103B8000002001404C15002080B5524800780028E4
:103B900040F08180DFF8480D0078002802D1FFF75F
:103BA0009FFF1CE0DFF8380D0178032291FBF2F053
:103BB00002FB1010C0B2002808D0022803D00ED299
:103BC000FFF7A9FF0BE0FFF7AFFF08E0FFF79CFF4F
:103BD000DFF824050078401EDFF81C150870DFF8B8
:103BE000180590F9000000284ED5FFF785FF00204A
:103BF000DFF8EC1C0870DFF8180B0068DFF8141B06
:103C00000860DFF8100B0068800CDFF80C1B0880E0
:103C1000DFF8040BB0F90000042190FBF1F0DFF8AD
:103C2000F81A0880DFF8F00AB0F90000401DDFF84C
:103C3000EC1ADFF8EC2A127821F81200DFF8E00A1B
:103C40000078401CDFF8D81A0870DFF8D40A007832
:103C50000A2803DB0020DFF8C81A087000210022C0
:103C600005E0DFF8B80A30F812004118521C0A2AA1
:103C7000F7DB89B20A2091FBF0F0DFF8A81A088080
:103C800064201449087006E0DFF8540C0078401CEA
:103C9000DFF84C1C087001BD531500205A15002098
:103CA0006115002080B51F20DFF87C1A08704021C4
:103CB000DFF8580A05F0D6F801BD0000EC1400202A
:103CC00080B54021DFF8440A05F0C9F801BD0000C5
:103CD000F0140020F414002080B51021DFF82C0A25
:103CE00005F0C0F801BD0000F814002080B51021D7
:103CF000DFF8180A05F0B3F801BD0000B813002082
:103D000080B52021DFF8040A05F09EF800280DD0C8
:103D1000DFF87C0B01680122DFF80C0A90F9000043
:103D200082401143DFF8680B01600CE0DFF8600BA4
:103D300001680122DFF8F00990F900008240914308
:103D4000DFF84C0B016001BD2B150020C4140020CE
:103D5000C7140020CA140020D0140020CD14002065
:103D6000D3140020D6140020D9140020DC14002025
:103D7000DF140020E2140020E5140020E8140020E5
:103D800080B5DFF8CC0A0078002840F08080DFF8AA
:103D90008C0C0078002802D1FFF784FF1CE0DFF8CC
:103DA0007C0C0178032291FBF2F002FB1010C0B2F0
:103DB000002808D0022803D00ED2FFF797FF0BE0AF
:103DC000FFF79EFF08E0FFF787FFDFF85C09007848
:103DD000401EDFF854190870DFF84C0990F9000014
:103DE00000284DD5FFF76CFF0020DFF8301C08706D
:103DF000DFF89C0A0068DFF89C1A0860DFF8940A74
:103E00000068800CDFF8CC1A0880DFF8C80AB0F927
:103E10000000042190FBF1F0DFF8B81A0880DFF809
:103E2000B40A0088DFF8B01ADFF8B02A127821F857
:103E30001200DFF8A80A0078401CDFF8A01A08700A
:103E4000DFF8980A00780A2803DB0020DFF88C1AD4
:103E500008700021002205E0DFF87C0A30F812002B
:103E60004118521C0A2AF7DB89B20A2091FBF0F0B4
:103E7000DFF8701A08806420DFF8D419087006E0B3
:103E8000DFF8980B0078401CDFF8901B087001BD2C
:103E90000010014000080140704700B591B00720B4
:103EA000ADF8000003208DF8020000208DF803001B
:103EB0006946DFF8680A04F065FF0121012005F07A
:103EC000DDFE4FF4004005F072FE01214FF400705A
:103ED00005F0E4FEDFF87C0A05F09EFFDFF8780AC3
:103EE0000690DFF8780A07900020089003200990D8
:103EF00000200A9080200B904FF400700C904FF43B
:103F000000600D9020200E904FF400500F90002084
:103F1000109006A9DFF83C0A06F002F80121DFF84C
:103F2000340A06F01BF80020019001208DF80800EB
:103F300001208DF809005FF46020039000200490B8
:103F400003208DF8140001A9DFF8A80B06F04EF845
:103F5000052301220A21DFF89C0B06F0B1F80523A6
:103F600002220B21DFF88C0B06F0AAF805230322AE
:103F70000C21DFF8800B06F0A3F80121DFF8740BA9
:103F800006F066F80121DFF86C0B06F054F8DFF854
:103F9000640B06F06AF8DFF85C0B06F06BF800289B
:103FA000F9D1DFF8500B06F06FF8DFF8480B06F098
:103FB00070F80028F9D10121DFF8380B06F073F80A
:103FC00011B000BD6A00002000180140001401403B
:103FD00000B587B0DFF88819B1FBF0F0DFF884197D
:103FE00008600020ADF816000020ADF81200DFF8E0
:103FF00074090068401EADF814000020ADF81000F0
:1040000000208DF8180004A9DFF8A40B06F0C2F810
:104010006020ADF800000020ADF80C000020ADF8E5
:1040200008000020ADF80E000020ADF80A000120C5
:10403000ADF802000020ADF804000020ADF8060045
:104040006946DFF86C0B06F0C0F86946DFF8600BD4
:1040500006F0F4F86946DFF8580B06F02FF9002156
:10406000DFF84C0B06F09BF90021DFF8440B06F05B
:104070009FF90021DFF8380B06F0A3F90021DFF8E3
:10408000300B06F07EF90121DFF8240B06F05AF917
:104090000121DFF81C0B06F063F907B000BD00003A
:1040A000000C0140001C0140321400209614002036
:1040B000981400209A1400200C1C0140EA140020DF
:1040C000E8130020EB140020E41300203C1400202F
:1040D0005C130020ED1400203E140020EE1400209C
:1040E000F0130020EC130020401400207013002077
:1040F000F114002042140020F214002080B5DFF8F3
:10410000B40A0088002840F0FE821021DFF8E80998
:1041100004F09AFE002822D1DFF804090078002874
:104120002DD0DFF800090078152810DB0120DFF81A
:10413000F8180870DFF8800A007850F00100DFF806
:10414000781A08700020DFF8D818087017E0DFF838
:10415000D4080078401CDFF8CC1808700FE0DFF8B6
:10416000580A007810F0FE00DFF84C1A08700020A2
:10417000DFF8B01808700120DFF8A41808702021BB
:10418000DFF8740904F060FE002822D1DFF86C0922
:10419000007800282DD0DFF868090078152810DB9A
:1041A0000120DFF860190870DFF80C0A007850F081
:1041B0000200DFF8041A08700020DFF840190870C8
:1041C00017E0DFF83C090078401CDFF8341908706C
:1041D0000FE0DFF8E409007810F0FD00DFF8D819EF
:1041E00008700020DFF8181908700120DFF80C199A
:1041F00008704021DFF8000904F026FE002822D1D3
:10420000DFF80409007800282DD0DFF800090078D5
:10421000152810DB0120DFF8A4190870DFF89809D1
:10422000007850F00400DFF8901908700020DFF8E3
:10423000D818087017E0DFF8D4080078401CDFF8C1
:10424000CC1808700FE0DFF87009007810F0FB0060
:10425000DFF8641908700020DFF8B018087001203A
:10426000DFF8A41808708021DFF88C0804F0ECFD5A
:10427000002822D1DFF84809007800282DD0DFF887
:1042800044090078152810DB0120DFF83C1908707C
:10429000DFF82409007850F00800DFF81C190870D6
:1042A0000020DFF81C19087017E0DFF81809007803
:1042B000401CDFF8101908700FE0DFF8FC080078E8
:1042C00010F0F700DFF8F01808700020DFF8F4189D
:1042D00008700120DFF8E81808704FF48071DFF8EB
:1042E000180804F0B1FD002822D1DFF8E0080078BA
:1042F00000282DD0DFF8D8080078152810DB012021
:10430000DFF8D0180870DFF8B008007850F010001F
:10431000DFF8A41808700020DFF8B018087017E064
:10432000DFF8AC080078401CDFF8A41808700FE034
:10433000DFF88408007810F0EF00DFF87C180870D0
:104340000020DFF88C1808700120DFF88018087052
:104350004FF40071DFF8A00704F076FD002822D1A9
:10436000DFF87408007800282DD0DFF87008007896
:10437000152810DB0120DFF868180870DFF838080E
:10438000007850F02000DFF8301808700020DFF8C7
:104390004818087017E0DFF844080078401CDFF880
:1043A0003C1808700FE0DFF81008007810F0DF000C
:1043B000DFF8041808700020DFF8201808700120CA
:1043C000DFF8141808704FF48061DFF82C0704F050
:1043D0003BFD002822D1DFF80C08007800282DD002
:1043E000DFF804080078152810DB0120DFF8FC173F
:1043F0000870DFF8C407007850F04000DFF8B81705
:1044000008700020DFF8DC17087017E0DFF8D80725
:104410000078401CDFF8D01708700FE0DFF898072D
:10442000007810F0BF00DFF8901708700020DFF868
:10443000B81708700120DFF8AC1708704FF400714E
:10444000DFF8AC0704F000FD002822D1DFF8A40754
:10445000007800282DD0DFF8A0070078152810DBA1
:104460000120DFF898170870DFF84C07007850F04B
:104470008000DFF8441708700020DFF87817087014
:1044800017E0DFF874070078401CDFF86C1708703D
:104490000FE0DFF82407007810F07F00DFF818172E
:1044A00008700020DFF8501708700120DFF844176B
:1044B00008704FF48071DFF8380704F0C5FC00285D
:1044C00022D1DFF83C07007800282DD0DFF8340730
:1044D0000078152810DB0120DFF82C170870DFF8B2
:1044E000D806407850F00100DFF8CC164870002064
:1044F000DFF80C17087017E0DFF808070078401C99
:10450000DFF8001708700FE0DFF8AC06407810F015
:10451000FE00DFF8A41648700020DFF8E8160870E7
:104520000120DFF8DC1608700221DFF8CC0504F06A
:104530008BFC002822D1DFF8D406007800282DD08B
:10454000DFF8CC060078152810DB0120DFF8C41650
:104550000870DFF86406407850F00200DFF8581663
:1045600048700020DFF8A416087017E0DFF8A006F6
:104570000078401CDFF8981608700FE0DFF8380666
:10458000407810F0FD00DFF8301648700020DFF8AA
:10459000801608700120DFF8741608704FF480410F
:1045A000DFF8780304F050FC002822D1DFF8680619
:1045B000007800282DD0DFF864060078152810DB7D
:1045C0000120DFF85C160870DFF8EC05407850F049
:1045D0000400DFF8E41548700020DFF83C1608708E
:1045E00017E0DFF838060078401CDFF83016087056
:1045F0000FE0DFF8C405407810F0FB00DFF8B815D5
:1046000048700020DFF8141608700120DFF8081643
:1046100008704FF48041DFF8D80504F015FC00283D
:1046200022D1DFF80006007800282DD0DFF8F80549
:104630000078152810DB0120DFF8F0150870DFF88E
:104640007805407850F00800DFF86C1548700020BD
:10465000DFF8D015087017E0DFF8CC050078401CB3
:10466000DFF8C41508700FE0DFF84C05407810F053
:10467000F700DFF8441548700020DFF8AC1508702B
:104680000120DFF8A01508704FF40061DFF868041E
:1046900004F0DAFB002822D1DFF894050078002826
:1046A0002DD0DFF890050078152810DB0120DFF809
:1046B00088150870DFF80005407850F08000DFF8BA
:1046C000F81448700020DFF86815087017E0DFF86C
:1046D00064050078401CDFF85C1508700FE0DFF817
:1046E000D804407810F07F00DFF8CC144870002028
:1046F000DFF8401508700120DFF83415087001203C
:10470000DFF8B014088001BDEF1400200020014044
:10471000F8130020F4130020441400208413002018
:10472000F514002046140020F6140020DFF8F802EB
:104730000078002802D00020BB490870DFF8C403CD
:104740000078002803D00020DFF8B8130870DFF8E5
:104750006C040078002803D00020DFF86014087093
:10476000DFF864040078002803D00020DFF8581434
:104770000870DFF860040078002803D00020DFF81C
:1047800054140870DFF858040078002803D0002083
:10479000DFF84C140870DFF854040078002803D0C8
:1047A0000020DFF848140870DFF850040078002873
:1047B00003D00020DFF844140870DFF84C040078C0
:1047C000002803D00020DFF840140870DFF844040C
:1047D0000078002803D00020DFF838140870DFF8D4
:1047E00040040078002803D00020DFF8341408705B
:1047F000DFF838040078002803D00020DFF82C14FC
:104800000870DFF834040078002803D00020DFF8B7
:1048100028140870704710B50400E4B2642C00DB63
:104820006424D4F164044F480068E4B26043642116
:10483000B0FBF1F0411E89B2DFF8740305F0CAFD48
:10484000DFF8F80304700020DFF8F413088010BDCF
:10485000F814002010B50400E4B2642C00DB6424DA
:10486000D4F164043F480068E4B260436421B0FBC3
:10487000F1F0411E89B2DFF8380305F0ADFDDFF835
:10488000C40304700020DFF8C013088010BD0000CE
:1048900000140020FC13002010B50400E4B2642CC6
:1048A00000DB6424D4F164042E480068E4B2604361
:1048B0006421B0FBF1F0411E89B2DFF8F40205F08B
:1048C0008DFDDFF8880304700020DFF88413088072
:1048D00010BD00004814002098130020F914002097
:1048E000F31400204A14002080B5DFF86803007834
:1048F000002812D0DFF85C030178DFF85C0305F0D4
:1049000043F80020DFF84C1308700020DFF84C1348
:1049100008700120DFF84813087001BD0010014045
:1049200080B5DFF840030078002812D0DFF83403A8
:104930000178DFF8340305F027F80020DFF82413AE
:1049400008700020DFF8241308700120DFF820131E
:10495000087001BD080002404C24014034130020BF
:1049600000A24A04DC13002030B4FF24C14D2C7097
:10497000C04C6070C0B2002809D0022814D00CD3FB
:10498000042820D019D3062828D01DD32EE0B948FA
:1049900041800020B749888028E00020B549488040
:1049A0000020B449888021E00020B24948800020DE
:1049B000B0490871AF48427118E00020AD49488005
:1049C000AC48828012E011E00120AA49887078206A
:1049D000A849C8700020A749888007E00120A549A0
:1049E00088707820A349C870A2488280A1480188B5
:1049F000A048408841189F48808841184FF6FF70B2
:104A000041439C48C180002003E09A49095C195445
:104A1000401C0828F9DB30BC70470000F714002068
:104A2000C4140020C3140020C5140020F8B580B2BF
:104A300005F0DAFC0022904B05F0E4FC00228F4BDD
:104A400005F0B2FD04000D008D48006805F0D0FEB1
:104A50000022894B05F0D6FC22002B0005F0A4FDB6
:104A600004000D008648006805F0C2FE02000B003D
:104A70002000290005F0E0FE0022824B05F094FDA5
:104A800006F008F904000D007F4AD2E90001220077
:104A90002B0005F0B7FC7D4ED6E9002306F0FCF8AC
:104AA00006000F0022002B002000290005F0AAFCC0
:104AB00022002B0005F0A6FC754CD4E9002305F07C
:104AC000A1FC32003B0006F0E7F802000B000020DA
:104AD000704905F069FD02000B005FF066306E4919
:104AE00006F0DAF800226D4B06F0D6F806F090F9E1
:104AF000F4BD00000024014000140140C714002050
:104B0000C6140020C8140020CA140020C9140020B4
:104B100080B563480068634908606148406861493E
:104B200048605F4880685F4988605E48006880B27E
:104B3000FFF77CFF06F098F95B4908805948406808
:104B400080B2FFF773FF06F08FF958490880554887
:104B5000806880B2FFF76AFF06F086F95449088042
:104B60005148B0F900001E30B52803D20020514949
:104B7000087002E001204F4908704C48B0F900006D
:104B80001E30B52803D200204B49087002E00120F6
:104B9000494908704648B0F900001E30B52803D2D4
:104BA00000204649087002E001204449087001BD18
:104BB000003401403414002036140020CB140020AF
:104BC000CD140020CC140020CE140020D0140020DE
:104BD000CF140020D1140020D3140020D2140020C0
:104BE000D4140020D6140020D5140020D71400209F
:104BF000000C0140D9140020D8140020DA14002041
:104C0000DC140020DB140020DD140020DF14002061
:104C1000DE140020E0140020E2140020E114002043
:104C2000E3140020E5140020E4140020E614002022
:104C3000E8140020E7140020E9140020FD140020EF
:104C400054140020FE14002056140020FF140020ED
:104C50005814002054150020FC110020511500208C
:104C6000531500205B150020641200205815002009
:104C70005A150020C41300200000044000FEAF407D
:104C80005000002000408F4030B9000838B90008BB
:104C900028B900080000F03F661271C00000E03F34
:104CA00034130020AC1300205E1400206014002098
:104CB00062140020001500200115002002150020BC
:104CC00030B585B0DFF8980D0078002801F0088035
:104CD000DFF88C0D0078411EC9B2DFF8880D01F0B5
:104CE0007BFBDFF8801DDFF8782D1278114411F876
:104CF000011CC0B2814240F0E787DFF8680D4178BF
:104D0000DFF8600D8078C9B2002929D0022900F0AF
:104D1000D381C0F0A280042900F03284C0F09782D1
:104D2000062900F00186C0F07A85082900F06B861C
:104D3000C0F046860A2900F0A186C0F079860C29C9
:104D400000F03587C0F09E860E2900F06187C0F024
:104D50004287102900F08287C0F0608700F0B4BF5E
:104D6000DFF8001DC978DFF8002D1170DFF8F41CA2
:104D70000979DFF8F42C5170DFF8E81C4979DFF885
:104D8000E82C9170DFF8DC1C8979DFF8DC2CD1701D
:104D9000DFF8D01CC979DFF8D42C1170C0B200281C
:104DA00022D100241BE0DFF8C40C00782100203958
:104DB000084110F00100DFF8B81C51F824108847B2
:104DC0000CE0202CEFDADFF8A00C0068E04010F0D7
:104DD0000100DFF89C1C51F824108847641CDFF8A0
:104DE000940C00788442ECDBDFF8780C0078DFF874
:104DF000881C0870DFF86C0C4078DFF87C1C487069
:104E0000DFF8600C8078DFF8701C8870DFF8540CD5
:104E1000C078DFF8641CC870DFF8480C0079DFF850
:104E2000581C0871DFF83C0C4079DFF84C1C4871C5
:104E3000DFF8300C8079DFF8401C88710721DFF83B
:104E4000380C01F0C9FADFF8301CC8710821DFF80E
:104E5000280C04F099FD00F037BFDFF8081C097832
:104E6000DFF8142C1170DFF8FC1B4978DFF8082CF0
:104E70005170DFF8F01B8978DFF8FC2B9170C0B21D
:104E8000002840F01781DFF8CC0D0068DFF8D81B50
:104E90000860DFF8C40D00884FF4807190FBF1F2D8
:104EA00001FB1200DFF8D01BC870DFF8AC0D0088E2
:104EB0004FF4807190FBF1F0DFF8BC1B0871DFF854
:104EC000A80B0078DFF8B01B4871DFF89C0B407826
:104ED000DFF8A41B8871DFF8900B8078DFF8981B4F
:104EE000C871DFF8840BC078DFF88C1B0872DFF81C
:104EF0007C0B0078DFF8801B4872DFF8C40D008857
:104F00004FF4807190FBF1F201FB1200DFF8681B97
:104F10008872DFF8AC0D00884FF4807190FBF1F0DF
:104F2000DFF8541BC872DFF8BC0D00884FF48071A5
:104F300090FBF1F201FB1200DFF83C1B0873DFF875
:104F4000A40D00884FF4807190FBF1F0DFF8281B6E
:104F50004873DFF8940D00884FF4807190FBF1F2F4
:104F600001FB1200DFF8101B8873DFF87C0D00884E
:104F70004FF4807190FBF1F0DFF8FC1AC873DFF892
:104F80006C0D00884FF4807190FBF1F201FB120070
:104F9000DFF8E41A0874DFF8540D00884FF48071CC
:104FA00090FBF1F0DFF8D01A4874DFF8440DB0F947
:104FB000000080B24FF4807190FBF1F201FB12000F
:104FC000DFF8B41A8874DFF8280DB0F9000080B259
:104FD0004FF4807190FBF1F0DFF89C1AC874DFF891
:104FE000140DB0F9000080B24FF4807190FBF1F223
:104FF00001FB1200DFF8801A0875DFF8F80CB0F931
:10500000000080B24FF4807190FBF1F0DFF8681A75
:105010004875DFF8E40CB0F9000080B24FF48071FD
:1050200090FBF1F201FB1200DFF84C1A8875DFF8F3
:10503000C80CB0F9000080B24FF4807190FBF1F021
:10504000DFF8341AC875DFF8B40C0088DFF8181AD6
:105050000860DFF8140A0078DFF81C1A0876DFF819
:10506000080A4078DFF8101A4876DFF8FC098078E3
:10507000DFF8041A8876DFF8F009C078DFF8F8194D
:10508000C876DFF87C0C0078DFF8EC190877DFF8D9
:10509000740C0078DFF8E01948771E21DFF8D80992
:1050A00001F09AF9DFF8D01988771F21DFF8C809D5
:1050B00004F06AFC00F008BEDFF8A8190978DFF8F0
:1050C000B8291170DFF89C194978DFF8AC295170C4
:1050D000DFF890198978DFF8A0299170C0B2002814
:1050E00040F0B380DFF8D80B00884FF4807190FB5C
:1050F000F1F201FB1200DFF88019C870DFF8C00B75
:1051000000884FF4807190FBF1F0DFF86C190871A2
:10511000DFF8D00B00884FF4807190FBF1F201FBB7
:105120001200DFF854194871DFF8B80B00884FF40B
:10513000807190FBF1F0DFF840198871DFF8A80B5F
:1051400000884FF4807190FBF1F201FB1200DFF850
:105150002819C871DFF8900B00884FF4807190FB1C
:10516000F1F0DFF814190872DFF8800B00884FF4B3
:10517000807190FBF1F201FB1200DFF8FC1848721D
:10518000DFF8680B00884FF4807190FBF1F0DFF8D6
:10519000E8188872DFF8580BB0F9000080B24FF4BD
:1051A000807190FBF1F201FB1200DFF8CC18C8729D
:1051B000DFF83C0BB0F9000080B24FF4807190FB37
:1051C000F1F0DFF8B4180873DFF8280BB0F900002D
:1051D00080B24FF4807190FBF1F201FB1200DFF816
:1051E00098184873DFF80C0BB0F9000080B24FF448
:1051F000807190FBF1F0DFF880188873DFF8F80A0F
:10520000B0F9000080B24FF4807190FBF1F201FB25
:105210001200DFF86418C873DFF8DC0AB0F9000088
:1052200080B24FF4807190FBF1F0DFF84C180874F5
:105230001121DFF8440801F0CFF8DFF83C1848747A
:105240001221DFF8340804F09FFB00F03DBDDFF8C9
:1052500014180A79DFF80C184C794FF4807101FBAF
:105260000424DFF800188A79DFF8F817CD794FF4B5
:10527000807101FB0525C0B200284CD1DFF8E4079E
:10528000C07807280CD1DFF8DC070079DFF8941B21
:105290000870DFF8D0070079DFF88C1B087036E063
:1052A000DFF8C007C078032806D1DFF8800B05803F
:1052B000DFF87C0B05800AE0DFF8A807C078062835
:1052C00005D1DFF8700B0570DFF86C0B0570DFF8A7
:1052D0006C3B2A0092B2210089B2DFF88807C078BF
:1052E000FFF742FB0821DFF8540B04F064FBDFF802
:1052F000503B2A0092B2210089B2DFF86807C078DB
:10530000FFF732FB0821DFF8380B04F06BFB0620B7
:1053100001F02AF833E1C0B201283DD1DFF844079B
:10532000C078072806D1DFF83C070079DFF8F41AC7
:1053300008702DE0DFF8043B2A0092B2210089B208
:10534000DFF82007C078FFF70FFB0821DFF8EC0A31
:1053500004F031FBDFF80C07C078032803D1DFF835
:10536000CC0A058014E0DFF8FC06C07806280FD1CF
:10537000DFF8C00A0570DFF8AC0A01784FF47A70E4
:105380004143DFF8C00A01600020DFF8BC1A087052
:10539000062000F0E9FFF2E0C0B202283DD1DFF8BC
:1053A000C406C078072806D1DFF8B8060079DFF810
:1053B000781A08702DE0DFF8883A2A0092B22100AE
:1053C00089B2DFF8A006C078FFF7CEFA0821DFF82F
:1053D000700A04F007FBDFF88C06C078032803D1BD
:1053E000DFF84C0A058014E0DFF87806C07806285C
:1053F0000FD1DFF8440A0570DFF82C0A01784FF46A
:105400007A704143DFF8940B01600020DFF8901BB5
:105410000870062000F0A8FFB1E0C0B203281ED13A
:10542000DFF84006C078DFF8501C0870DFF834065B
:105430000179DFF8300642794FF4807000FB0211E9
:10544000DFF8380C01800020DFF8341C08700120E0
:10545000DFF8EC1C0870062000F086FF8FE0C0B279
:10546000042807D10120DFF8841B0870062000F013
:105470007BFF84E0C0B2052810D1DFF8E805C178D1
:10548000DFF8E00502794FF4807000FB0211DFF8CD
:10549000600B0180062000F067FF70E0C0B20628B4
:1054A00035D1DFF8C0050078DFF8CC150870DFF8DB
:1054B000B4054078DFF8C0154870DFF8A80580789B
:1054C000DFF8B4158870DFF82C0B00884FF480717A
:1054D00090FBF1F201FB1200DFF89C15C870DFF8B9
:1054E000140B00884FF4807190FBF1F0DFF8881501
:1054F00008710521DFF8800500F06EFFDFF87815F0
:1055000048710621DFF8700504F03EFA37E0C0B2BA
:10551000072834D1DFF84C050078DFF85C150870F7
:10552000DFF840054078DFF850154870DFF83405A3
:105530008078DFF844158870DFF8480B00884FF456
:10554000807190FBF1F201FB1200DFF82C15C8709E
:10555000DFF8300B00884FF4807190FBF1F0DFF83A
:10556000181508710521DFF8100500F035FFDFF888
:10557000081548710621DFF8000504F005FAA3E3D9
:10558000C0B201283AD1DFF8DC04C078FFF743F954
:10559000DFF8D0040078DFF8E0140870DFF8C40406
:1055A0004078DFF8D4144870DFF8B8048078DFF86A
:1055B000C8148870DFF8D00A00884FF4807190FB1F
:1055C000F1F201FB1200DFF8B014C870DFF8B80A7E
:1055D00000884FF4807190FBF1F0DFF89C140871A3
:1055E0000521DFF8940400F0F7FEDFF88C14487111
:1055F0000621DFF8840404F0C7F90FE1C0B20228E5
:105600003AD1DFF86004C078FFF724F9DFF85404DA
:105610000078DFF864140870DFF848044078DFF899
:1056200058144870DFF83C048078DFF84C14887018
:10563000DFF8100B00884FF4807190FBF1F201FB52
:105640001200DFF83414C870DFF8F80A00884FF44D
:10565000807190FBF1F0DFF8201408710521DFF86C
:10566000180400F0B9FEDFF8101448710621DFF8C5
:10567000080404F089F9D1E0C0B203283AD1DFF878
:10568000E403C078FFF708F9DFF8D8030078DFF803
:10569000E8130870DFF8CC034078DFF8DC134870BB
:1056A000DFF8C0038078DFF8D0138870DFF8980A3D
:1056B00000884FF4807190FBF1F201FB1200DFF8DB
:1056C000B813C870DFF8800A00884FF4807190FB2F
:1056D000F1F0DFF8A41308710521DFF89C0300F056
:1056E0007BFEDFF8941348710621DFF88C0304F089
:1056F0004BF993E0C0B2042835D1DFF86803007895
:10570000DFF874130870DFF85C034078DFF8681383
:105710004870DFF850038078DFF85C138870DFF89A
:10572000680900884FF4807190FBF1F201FB1200D0
:10573000DFF84413C870DFF8500900884FF4807117
:1057400090FBF1F0DFF8301308710521DFF8280332
:1057500000F042FEDFF8201348710621DFF818033D
:1057600004F012F95AE0C0B205282AD1BD480078E9
:10577000C1490870BB484078BF494870B948807833
:10578000BD498870DFF8BC0900884FF4807190FB38
:10579000F1F201FB1200B849C870DFF8A8090088CF
:1057A0004FF4807190FBF1F0B34908710521B248C4
:1057B00000F012FEB04948710621AF4804F0E4F849
:1057C0002CE0C0B2062829D1A6480078AA49087062
:1057D000A4484078A8494870A2488078A6498870B3
:1057E000DFF8640900884FF4807190FBF1F201FB4F
:1057F0001200A149C870DFF8500900884FF4807189
:1058000090FBF1F09C49087105219B4800F0E4FDF4
:10581000994948710621984804F0B6F854E2C0B29C
:10582000002812D18F48C078DFF8941908708D488D
:105830000079DFF88C1948708A484079DFF88019C0
:105840008870062000F090FD6DE0C0B2012812D1F2
:105850008448C078DFF86819C87082480079DFF89A
:10586000601908717F484079DFF8541948710620A3
:1058700000F07AFD57E0C0B2022812D17948C07812
:10588000DFF83C19887177480079DFF83419C8715E
:1058900074484079DFF828190872062000F064FD8A
:1058A00041E0C0B2032811D1DFF8180900780028C0
:1058B00039D1DFF814090078002834D1FDF7B3F8A6
:1058C000FDF7D2F8062000F04FFD2CE0C0B204280E
:1058D0000FD1FDF7BBF8FDF78AF9FDF7A4F8FDF746
:1058E0007DF80020DFF814140880062000F03CFD4D
:1058F00019E0C0B205280ED15A48C1785948047938
:105900004FF4807000FB0414DFF8A00A0480062026
:1059100000F02AFD07E0C0B2062804D1FDF783F8A5
:10592000062000F021FDCFE1C0B2002812D14D4881
:10593000C078DFF8301A08704A480079DFF8241A76
:10594000487048484079DFF81C1A8870062000F03B
:105950000BFD34E0C0B2012812D14248C078DFF814
:10596000041AC8703F480079DFF8F81908713D48FB
:105970004079DFF8F0194871062000F0F5FC1EE0D0
:10598000C0B202280CD1DFF8280A0078002816D10E
:10599000FDF738F9FDF747F8062000F0E5FC0EE0CA
:1059A000C0B203280BD1DFF80C0A0078002806D11A
:1059B000FDF71DF9FDF737F8062000F0D5FC83E16F
:1059C000C0B2002803D10520FDF716F81AE0C0B2D6
:1059D000012803D10420FDF70FF813E0C0B202281C
:1059E00003D10320FDF708F80CE0C0B2032803D16F
:1059F0000220FDF701F805E0C0B2042802D1012021
:105A0000FCF7FAFF60E1C0B2002803D10020FCF7E8
:105A1000BFFF0CE0C0B2012803D10120FCF7B8FFA2
:105A200005E0C0B2022802D10120FCF7E5FF4BE1FE
:105A30000C48C1780B4802794FF4807000FB0211CA
:105A4000DFF87409018007484179064882794FF4EC
:105A5000807000FB0211DFF86409018034E100BFAF
:105A60004D15002094110020E0130020FB140020AD
:105A700070100020C214002060110020C0B200F09D
:105A80000FFF21E1C0B2002805D1DFF83409C0784A
:105A900000F05CFB8AE0002003F01EF8002003F019
:105AA00032F80020DFF8981B096D88470020DFF8E6
:105AB000901BC96C88470020DFF8841B496E88471B
:105AC0000020DFF87C1B896D88470020DFF8701B01
:105AD000496D88470020DFF8681B896E88470020E1
