:020000040800F2
:1000000000040020ED0F0108DD080108DF080108E9
:10001000E1080108E3080108E50801080000000004
:10002000000000000000000000000000E7080108D8
:10003000E908010800000000EB080108ED080108CC
:100040004BE200084BE200084BE20008F50801080B
:100050004BE200084BE20008F70801084BE20008F9
:100060004BE200080B0901084BE20008010E0108F1
:100070004BE200084BE200084BE200084BE20008AC
:100080004BE200084BE200084BE200080D090108B2
:100090000F0901084BE200084BE2000811090108B2
:1000A0004BE20008130901084BE200084BE200088C
:1000B000210901082F0901083D0901084BE2000848
:1000C0004BE200084BE200084BE200084BE200085C
:1000D0004D0901084F090108A90A0108990B0108F7
:1000E000E50D0108FD0D01084BE200084BE2000898
:1000F0003F0901084BE200084BE200084BE2000810
:100100004BE20008FF0D01084BE200084BE200083B
:10011000870C01084BE200084BE200084BE20008A4
:100120004BE200084BE200084BE200084BE20008FB
:1001300040B2002805D40901DFF8782A40B21154F2
:1001400008E00901DFF83C2D40B210F00F00104428
:1001500000F8041C704780B5411EB1F1807F01D3C7
:10016000012011E0401EDFF8501A08600F215FF0F7
:10017000FF30FFF7DDFF0020DFF8081B08600720D5
:10018000DFF80C1D0860002002BD0020DFF8081D0C
:100190000870DFF8F40ADFF8E81BDFF8FC2C1278AF
:1001A00041F82200DFF8F00C0078401CDFF8E81C72
:1001B0000870DFF8F80ADFF8C81BDFF8DC2C1278CB
:1001C00041F82200DFF8D00C0078401CDFF8C81C92
:1001D0000870DFF8FC0ADFF8A81BDFF8BC2C1278E7
:1001E00041F82200DFF8B00C0078401CDFF8A81CB2
:1001F0000870DFF8000BDFF8881BDFF89C2C127802
:1002000041F82200DFF8900C0078401CDFF8881CD1
:100210000870DFF8080BDFF8681BDFF87C2C127819
:1002200041F82200DFF8700C0078401CDFF8681CF1
:100230000870DFF8100BDFF8481BDFF85C2C127831
:1002400041F82200DFF8500C0078401CDFF8481C11
:100250000870DFF8F40ADFF8281BDFF83C2C12786E
:1002600041F82200DFF8300C0078401CDFF8281C31
:100270000870DFF8100BDFF8081BDFF81C2C127871
:1002800041F82200DFF8100C0078401CDFF8081C51
:100290000870DFF8F40ADFF8E81ADFF8FC2B1278B0
:1002A00041F82200DFF8F00B0078401CDFF8E81B73
:1002B0000870DFF80C0BDFF8C81ADFF8DC2B1278B7
:1002C00041F82200DFF8D00B0078401CDFF8C81B93
:1002D0000870DFF8F00ADFF8A81ADFF8BC2B1278F4
:1002E00041F82200DFF8B00B0078401CDFF8A81BB3
:1002F0000870DFF8F80ADFF8881ADFF89C2B12780C
:1003000041F82200DFF8900B0078401CDFF8881BD2
:100310000870DFF8FC0ADFF8681ADFF87C2B127827
:1003200041F82200DFF8700B0078401CDFF8681BF2
:100330000870DFF8000BDFF8481ADFF85C2B127842
:1003400041F82200DFF8500B0078401CDFF8481B12
:100350000870DFF8080BDFF8281ADFF83C2B12785A
:1003600041F82200DFF8300B0078401CDFF8281B32
:100370000870DFF8140BDFF8081ADFF81C2B12786E
:1003800041F82200DFF8100B0078401CDFF8081B52
:100390000870DFF8F80ADFF8E819DFF8FC2A1278AD
:1003A00041F82200DFF8F00A0078401CDFF8E81A74
:1003B0000870DFF8E00ADFF8C819DFF8DC2A1278E5
:1003C00041F82200DFF8D00A0078401CDFF8C81A94
:1003D0000870DFF8C80ADFF8A819DFF8BC2A12781D
:1003E00041F82200DFF8B00A0078401CDFF8A81AB4
:1003F0000870DFF8D00ADFF88819DFF89C2A127835
:1004000041F82200DFF8900A0078401CDFF8881AD3
:100410000870DFF8D80ADFF86819DFF87C2A12784C
:1004200041F82200DFF8700A0078401CDFF8681AF3
:100430000870DFF8E00ADFF84819DFF85C2A127864
:1004400041F82200DFF8500A0078401CDFF8481A13
:100450000870DFF8C40ADFF82819DFF83C2A1278A0
:1004600041F82200DFF8300A0078401CDFF8281A33
:100470000870DFF8C80ADFF80819DFF81C2A1278BC
:1004800041F82200DFF8100A0078401CDFF8081A53
:100490000870DFF8CC0ADFF8E818DFF8FC291278DA
:1004A00041F82200DFF8F0090078401CDFF8E81975
:1004B0000870DFF8B00ADFF8C818DFF8DC29127816
:1004C00041F82200DFF8D0090078401CDFF8C81995
:1004D0000870DFF8940ADFF8A818DFF8BC29127852
:1004E00041F82200DFF8B0090078401CDFF8A819B5
:1004F0000870DFF8BC0ADFF88818DFF89C2912784A
:1005000041F82200DFF890090078401CDFF88819D4
:100510000870DFF8A00ADFF86818DFF87C29127885
:1005200041F82200DFF870090078401CDFF86819F4
:100530000870DFF8C40ADFF84818DFF85C29127881
:1005400041F82200DFF850090078401CDFF8481914
:100550000870DFF8C80ADFF82818DFF83C2912789D
:1005600041F82200DFF830090078401CDFF8281934
:100570000870DFF8AC0ADFF80818DFF81C291278D9
:1005800041F82200DFF810090078401CDFF8081954
:100590000870DFF8D40ADFF8E817DFF8FC281278D3
:1005A00041F82200DFF8F0080078401CDFF8E81876
:1005B0000870DFF8B80ADFF8C817DFF8DC2812780F
:1005C00041F82200DFF8D0080078401CDFF8C81896
:1005D0000870DFF8C00ADFF8A817DFF8BC28127827
:1005E00041F82200DFF8B0080078401CDFF8A818B6
:1005F0000870704780B5DFF8E41A097800290DD03B
:10060000012805D10121DFF84C0C0DF01BFE29E07B
:100610000121DFF8400C0DF012FE23E0012817D174
:100620000121DFF8300C0DF00DFE0221DFF8240C63
:100630000DF005FE0120DFF8CC1A08704EF66020A0
:10064000DFF8E81A08800120DFF8E41A087009E0F2
:100650000121DFF8000C0DF0F2FD0221DFF8F40BB0
:100660000DF0EDFD01BD80B5DFF8701A09780029A5
:100670000DD0012805D10221DFF8D80B0DF0E2FDE5
:1006800029E00221DFF8CC0B0DF0D9FD23E0012891
:1006900017D10121DFF8BC0B0DF0D1FD0221DFF8ED
:1006A000B40B0DF0CFFD0220DFF8581A08704EF69B
:1006B0006020DFF8781A08800120DFF8741A0870CB
:1006C00009E00121DFF88C0B0DF0B9FD0221DFF804
:1006D000840B0DF0B4FD01BD80B5DFF8280A007869
:1006E000012859D1DFF8480A0078002805D00228EF
:1006F00035D003D3032843D0ACE0ABE0DFF82C0ABD
:100700000088002811D0DFF8900A0078C0F340106C
:10071000C0B2002822D041F28830DFF8101A0880D9
:100720000220DFF80C1A087018E0DFF8700A007871
:1007300000280FD1E120DFF8681A08800220DFF8D6
:10074000641A08707D20DFF8601A08800220DFF844
:100750005C1A08700320DFF8D81908707AE0DFF817
:10076000CC090088002875D10020FFF743FF002046
:10077000DFF8BC1908700020DFF88819087069E0FC
:100780000020FFF737FF0020DFF8A41908700520CC
:10079000DFF8701908705DE0DFF86809007802285A
:1007A00058D1DFF88C090078002805D0022835D010
:1007B00003D3032843D04DE04CE0DFF870090088F4
:1007C000002811D0DFF8D0090078C0F38010C0B243
:1007D000002822D041F28830DFF85019088002202A
:1007E000DFF84C19087018E0DFF8B009007800282D
:1007F0000FD1E120DFF8A81908800220DFF8A41942
:1008000008707D20DFF8A01908800220DFF89C190D
:1008100008700320DFF8181908701BE0DFF80C09D6
:100820000088002816D10020FFF71DFF0020DFF808
:10083000001908700020DFF8CC1808700AE00020CA
:10084000FFF711FF0020DFF8E81808700520DFF837
:10085000B418087001BD80B5DFF880180978002948
:100860000FD0012806D14FF48071DFF8A80A0DF0EF
:10087000E9FC2EE04FF48071DFF8980A0DF0DFFC00
:1008800027E001281AD14FF48071DFF8880A0DF0B3
:10089000D6FC8021DFF87C0A0DF0D1FC4FF480718A
:1008A000DFF8700A0DF0CEFC42F21070DFF8681A23
:1008B00008800120DFF8641A08700AE04FF48071A4
:1008C000DFF8500A0DF0BBFC8021DFF8480A0DF07C
:1008D000B6FC01BD80B5DFF80418097800290DD0F9
:1008E000012805D18021DFF82C0A0DF0ABFC2CE0AB
:1008F0008021DFF8200A0DF0A2FC26E0012819D1A2
:100900008021DFF8100A0DF09AFC4FF48071DFF8B7
:10091000040A0DF094FC8021DFF8F8090DF092FC38
:1009200042F21070DFF8F01908800120DFF8EC19AE
:1009300008700AE04FF48071DFF8D8090DF07FFCF1
:100940008021DFF8D0090DF07AFC01BD80B5DFF819
:10095000CC090078002802D0012801D014E013E06F
:10096000DFF8B409008800280ED14FF48071DFF859
:10097000E4080DF064FC8021DFF8D8080DF05FFC7E
:100980000020DFF89819087001BD80B5DFF84C171A
:10099000097800290DD0012805D14021DFF874091C
:1009A0000DF050FC2AE04021DFF868090DF047FC0B
:1009B00024E0012818D14021DFF858090DF03FFC50
:1009C0002021DFF850090DF03AFC4021DFF84409FE
:1009D0000DF038FC0120DFF84819087042F2107061
:1009E000DFF84019088009E04021DFF828090DF000
:1009F00026FC2021DFF81C090DF021FC01BD80B58B
:100A0000DFF8D816097800290DD0012805D120215A
:100A1000DFF800090DF016FC2AE02021DFF8F408C9
:100A20000DF00DFC24E0012818D12021DFF8E408A6
:100A30000DF005FC4021DFF8DC080DF000FC202162
:100A4000DFF8D0080DF0FEFB0120DFF8D4180870A5
:100A500042F21070DFF8CC18088009E04021DFF87E
:100A6000B4080DF0ECFB2021DFF8A8080DF0E7FB3F
:100A700001BD80B5DFF8A8080078002802D0012861
:100A800001D013E012E0DFF89C08008800280DD1A7
:100A90002021DFF8C0070DF0D2FB4021DFF8B407BA
:100AA0000DF0CDFB0020DFF87818087001BD80B58F
:100AB000DFF82816097800290FD0012806D14FF455
:100AC0000061DFF850080DF0BDFB30E04FF400612D
:100AD000DFF840080DF0B3FB29E001281BD14FF4EB
:100AE0000061DFF830080DF0AAFB4FF48051DFF809
:100AF00024080DF0A4FB4FF40061DFF818080DF096
:100B0000A1FB0120DFF8B819087046F2A810DFF841
:100B1000B41908800BE04FF40061DFF8F8070DF01E
:100B20008EFB4FF48051DFF8EC070DF088FB01BD20
:100B300080B5DFF8A815097800290FD0012806D163
:100B40004FF48051DFF8CC070DF07CFB30E04FF420
:100B50008051DFF8C0070DF072FB29E001281BD19E
:100B60004FF48051DFF8AC070DF069FB4FF40061E2
:100B7000DFF8A0070DF063FB4FF48051DFF8940716
:100B80000DF060FB0120DFF83819087046F2A8105C
:100B9000DFF8301908800BE04FF40061DFF87407CC
:100BA0000DF04DFB4FF48051DFF868070DF047FB67
:100BB00001BD000000E400E014E000E080B5DFF8D3
:100BC00000090078002805D0022829D003D3032883
:100BD00041D055E054E0DFF8EC08008800281ED131
:100BE000DFF8E4080068C00409D44FF4FA70DFF8B5
:100BF000D41808800220DFF8C818087003E000202D
:100C0000DFF8BC1808704FF48051DFF848060DF08B
:100C100016FB4FF40061DFF83C060DF010FB2FE0EF
:100C2000DFF8A0080088002814D14FF48051DFF8C5
:100C300024060DF004FB4FF40061DFF818060DF0F8
:100C400001FB41F27070DFF87C1808800320DFF8A8
:100C50007018087014E0DFF86C08008800280FD1C5
:100C60004FF48051DFF8EC050DF0E9FA4FF4006124
:100C7000DFF8E0050DF0E3FA0020DFF84418087013
:100C800001BD000018E000E0F505000880B500286F
:100C900005D10421DFF87C060DF0D1FA04E004212F
:100CA000DFF870060DF0CEFA01BD000067060008FF
:100CB00080B5002805D10821DFF858060DF0BFFAED
:100CC00004E00821DFF84C060DF0BCFA01BD00007D
:100CD0008D0C000880B5002805D11021DFF83406FE
:100CE0000DF0ADFA04E01021DFF828060DF0AAFAA5
:100CF00001BD0000B10C000880B5002806D14FF4FA
:100D00000071DFF810060DF09AFA05E04FF400715B
:100D1000DFF800060DF096FA01BD0000D50C0008C2
:100D200080B5002806D14FF48061DFF8E8050DF0AA
:100D300086FA05E04FF48061DFF8D8050DF082FAFD
:100D400001BD0000FF0900088B09000880B50028DC
:100D50000AD14FF40051DFF8FC040DF070FA0020C6
:100D6000DFF8D419087009E04FF40051DFF8E4040B
:100D70000DF068FA0120DFF8C019087001BD00000D
:100D800080100020D50800085708000880B500280A
:100D90000AD14FF48041DFF8BC040DF050FA002076
:100DA000DFF89819087009E04FF48041DFF8A404D7
:100DB0000DF048FA0120DFF88419087001BD000029
:100DC000F90C0008210D000880B5002806D14FF469
:100DD0000041DFF840050DF032FA05E04FF4004124
:100DE000DFF830050DF02EFA01BD0000AF0A000853
:100DF00080B5002805D11021DFF8980B0DF01FFAFF
:100E000004E01021DFF88C0B0DF01CFA01BD00008E
:100E1000310B000880B5002805D10421DFF8780BDC
:100E20000DF00DFA04E00421DFF86C0B0DF00AFA66
:100E300001BD00004D0D000880B5002806D14FF41B
:100E40008051DFF8580B0DF0FAF905E04FF48051AE
:100E5000DFF8480B0DF0F6F901BD00008D0D00081C
:100E600080B5002806D14FF40061DFF8300B0DF09B
:100E7000E6F905E04FF40061DFF8200B0DF0E2F930
:100E800001BD000018ED00E0C90D0008A10E00082A
:100E900010E000E0410F0008CA1500206D0F0008A7
:100EA00080B5002806D14FF40041DFF8F40A0DF0B8
:100EB000C6F905E04FF40041DFF8E40A0DF0C2F98D
:100EC00001BD0000B90F000880B5002806D14FF41D
:100ED0008061DFF8C80A0DF0B2F905E04FF48061D7
:100EE000DFF8B80A0DF0AEF901BD0000FD0F0008F3
:100EF00080B5002806D14FF40071DFF8A00A0DF08C
:100F00009EF905E04FF40071DFF8900A0DF09AF9B0
:100F100001BD0000251000087110000880B50028F0
:100F200005D10821DFF86C0A0DF089F904E00821E9
:100F3000DFF8600A0DF086F901BD00009910000885
:100F400080B5002805D10121DFF84C0A0DF077F9B2
:100F500004E00121DFF8400A0DF074F901BD000042
:100F6000E11000080911000835110008002808D117
:100F70000020DFF8301A08700020DFF8A41B08708A
:100F800014E0DFF8240ADFF8241A097810F81100B9
:100F9000DFF8101A0870DFF8100ADFF8101A097865
:100FA00000EB41004078DFF8781B087070470000C4
:100FB00057110008F10D000880B500280DD1082157
:100FC000DFF8DC090DF03BF9DFF8580B007810F082
:100FD000FE00DFF8501B08700CE00821DFF8C009A4
:100FE0000DF030F9DFF83C0B007850F00100DFF82D
:100FF000341B087001BD0000150E000880B50028E4
:1010000005D10421DFF898090DF019F904E0042155
:10101000DFF88C090DF016F901BD0000390E00084B
:10102000610E000880B500280ED14FF48051DFF822
:1010300064090DF004F9DFF8EC0A007810F0FD0007
:10104000DFF8E01A08700DE04FF48051DFF8440932
:101050000DF0F8F8DFF8CC0A007850F00200DFF865
:10106000C41A087001BD0000C90E0008F10E000886
:1010700080B5002806D14FF40051DFF818090DF0B3
:10108000DEF805E04FF40051DFF808090DF0DAF85A
:1010900001BD00001D0F000880B500280ED14FF4DF
:1010A0008051DFF8F4080DF0CAF8DFF8780A00780C
:1010B00010F0FB00DFF86C1A08700DE04FF480515F
:1010C000DFF8D4080DF0BEF8DFF8580A007850F0C9
:1010D0000400DFF8501A087001BD00004616002019
:1010E00080B5002806D14FF40051DFF8AC080DF0B0
:1010F000A6F805E04FF40051DFF89C080DF0A2F8C7
:1011000001BD0000B815002080B5002806D14FF4BD
:101110008041DFF88C080DF092F805E04FF4804133
:10112000DFF87C080DF08EF801BD000014150020DA
:10113000B915002080B5002806D14FF40051DFF822
:1011400060080DF07CF805E04FF40051DFF850081E
:101150000DF078F801BD80B5002806D14FF480511C
:10116000DFF83C080DF06BF805E04FF48051DFF834
:1011700030080DF067F801BD80B5DFF8AC090078E4
:10118000012807D0DFF8A409DFF8A419097850F87E
:101190002100804701BD00002A1500205F160020B5
:1011A0008A1500205A1600208C1500205B1600209E
:1011B000DFF88009DFF874190860DFF87C09DFF8D0
:1011C0006C194860DFF87409DFF860198860DFF88F
:1011D0007009DFF85819C860DFF86809DFF84C19A2
:1011E0000861DFF86409DFF844194861DFF85C0939
:1011F000DFF838198861DFF85809DFF83019C8615D
:10120000DFF85009DFF824190862DFF84C09DFF82D
:101210001C194862DFF84409DFF810198862DFF80A
:101220004009DFF80819C862DFF83809DFF8FC1850
:101230000863DFF83409DFF8F4184863DFF82C0995
:10124000DFF8E8188863DFF82809DFF8E018C863DA
:101250007047000000180140704780B5DFF8A00B10
:101260000078002806D0022817D004D3042840D0E4
:101270002ED34EE04DE0DFF8FC080088DFF8F818C8
:101280000988884204D20320DFF8741B087003E049
:101290000420DFF86C1B08703BE0DFF8DC080088F6
:1012A000801EDFF8D0180988884204DB0320DFF8AD
:1012B000501B08700BE0DFF8BC080088DFF8B81896
:1012C0000988884203D30420DFF8341B087020E02B
:1012D000DFF8A8080078002804D0DFF8A408007818
:1012E000002801D102F038FD0220DFF8141B08703D
:1012F0000FE0DFF888080078012804D0DFF88008C4
:101300000078012801D102F0D1FC0220DFF8F01AA8
:10131000087001BD0018014016150020BA15002004
:10132000BB1500201815002080B5DFF8580800888C
:10133000002840F0C380DFF8C80A0078DFF84818BA
:101340000870DFF848080078C0B2C009C0B20028B1
:101350005DD0DFF834080078002808D0012807D0D5
:10136000052817D0062830D007283FD0A0E09FE0FE
:10137000DFF800080088DFF800180988884204D2E6
:101380000620DFF80418087003E00720DFF8F817DC
:1013900008708DE0DFF8DC070088DFF8DC170988CB
:1013A000884204D30720DFF8E01708700CE0DFF86C
:1013B000C8070088801EDFF8BC170988884203DB55
:1013C0000620DFF8C417087072E0DFF8B007007875
:1013D000002804D0DFF8A8070078002801D102F027
:1013E000BBFC0520DFF8A017087061E0DFF88C0770
:1013F0000078012804D0DFF888070078012801D19F
:1014000002F054FC0520DFF88017087050E0DFF888
:1014100078070078002806D0022817D004D30428C3
:101420003BD02ED344E043E0DFF848070088DFF8E4
:1014300048170988884204D20320DFF84C17087047
:1014400003E00420DFF84017087031E0DFF82407DC
:101450000088DFF824170988884204D30420DFF8C5
:10146000281708700CE0DFF810070088801EDFF8EE
:1014700004170988884203DB0320DFF80C17087083
:1014800016E0DFF880090078002801D102F088FC1E
:101490000220DFF8F41608700AE0DFF86809007827
:1014A000012801D102F05EFC0220DFF8DC16087092
:1014B000DFF8D4060078DFF84819087001BD000095
:1014C000BC1500201A1500200C18014080B5DFF86B
:1014D000B4060088002840F02D81DFF82409007848
:1014E000DFF824190870DFF8A4060078C0B2C0093C
:1014F000C0B200285DD0DFF810090078002808D0BD
:10150000012807D0032832D0042841D0052813D061
:101510000AE109E1DFF85C060088DFF85C1609885B
:10152000884204D20320DFF8E018087003E00420AA
:10153000DFF8D4180870F7E0DFF838060088DFF825
:1015400038160988884204D30420DFF8BC180870D4
:101550000CE0DFF824060088801EDFF818160988E2
:10156000884203DB0320DFF8A0180870DCE0DFF816
:101570000C060078002804D0DFF804060078002864
:1015800001D102F0E9FB0520DFF87C180870CBE000
:10159000DFF8E8050078012804D0DFF8E4050078DA
:1015A000012801D102F082FB0520DFF85C180870E9
:1015B000BAE0DFF85408007800280DD001280CD0DC
:1015C000022819D0032833D0052851D0062861D02D
:1015D000072800F0A080A7E0A6E0DFF898050088C3
:1015E000462804DA0320DFF82018087003E0022000
:1015F000DFF81418087097E0DFF8800500780128FC
:1016000004D0DFF87C050078012801D102F04EFB00
:1016100002F0C6FB0420DFF8F4170870DFF8F007CB
:10162000DFF8F01708600620DFF8DC1708707BE0B1
:10163000DFF8D0070078012801D102F093FB02F017
:101640008BFB0020DFF8D01708804FF4FA70DFF82A
:10165000CC17088041F28830DFF8C41708800120D9
:10166000DFF8A81708700520DFF89C1708705BE00A
:10167000DFF80005008846280BDB02F017FB02F0BC
:101680008FFB0420DFF8841708700620DFF8781736
:10169000087049E0DFF8DC040088462804DA0320FB
:1016A000DFF86417087035E0DFF858070078012884
:1016B0001CD1DFF8C0040088DFF8BC140988884218
:1016C00028D302F04FFB0020DFF84C1708804FF4BE
:1016D000FA70DFF84817088041F28830DFF84017C9
:1016E00008800120DFF82417087013E0DFF81407E2
:1016F000007800280ED1DFF880040088801EDFF813
:1017000074140988884205DB02F04AFB0420DFF8E4
:10171000FC16087008E0DFF8FC060068002803D11A
:101720000120DFF8E4160870DFF8DC060078DFF847
:10173000D016087001BD00004F1600205016002082
:10174000704780B5DFF8B8060078DFF8101A087027
:10175000DFF838040078C0B2C009C0B200285DD0FC
:10176000DFF8F8090078002808D0012807D00228FF
:1017700017D0042830D005283FD004E103E1DFF87A
:10178000F4030088DFF8F0130988884204D20420AB
:10179000DFF8C819087003E00520DFF8C0190870E9
:1017A000F1E0DFF8D0030088DFF8CC130988884225
:1017B00004D30520DFF8A41908700CE0DFF8B803A3
:1017C0000088801EDFF8AC130988884203DB042000
:1017D000DFF888190870D6E0DFF8A0030078002849
:1017E00004D0DFF89C030078002801D102F0B4FA9D
:1017F0000220DFF868190870C5E0DFF88003007880
:10180000012804D0DFF878030078012801D102F024
:101810004DFA0220DFF844190870B4E0DFF83C0903
:10182000007800280DD001280CD0022813D00328FE
:1018300023D004284ED006286ED0072800F08780D9
:10184000A1E0A0E00020DFF8181908700220DFF8FE
:101850000C19087097E0DFF81C030088DFF81813F4
:101860000988884204D20420DFF8F018087003E0E9
:101870000620DFF8E818087085E0BF480088801E61
:10188000BC490988884204DB0420DFF8D0180870BE
:101890001FE0B8480088B8490988884219D3DFF8A2
:1018A000C008007800280AD1DFF8B8080078DFF80F
:1018B000B01808700620DFF8A418087009E0AF48D7
:1018C0000078012803D0AE480078012801D102F049
:1018D000EDF958E0DFF82C050078012801D102F07D
:1018E00041FAA6480078002811D1A54800780028C0
:1018F0000DD102F031FADFF868080078002806D030
:10190000DFF85C080078401EDFF8541808700320E8
:10191000DFF84818087036E098480078012803D0AE
:1019200097480078012801D102F0C0F9DFF8D4040B
:101930000078002801D102F033FA4EF66020DFF87B
:10194000D41408600720DFF8141808701BE0DFF8D3
:10195000C404006800280BD087480088801E854991
:10196000098888420FDB0420DFF8F01708700AE0CE
:10197000DFF890040078012801D102F0F3F9032088
:10198000DFF8D8170870DFF8D4070078DFF8701494
:10199000087001BD00100140000C0140001C014016
:1019A000001401406B160020E00F01086D160020A6
:1019B00080B5DFF84C04007800280AD0022823D034
:1019C00008D3042865D030D3062800F0948076D35D
:1019D000A5E0A4E00020DFF8C81A08700020DFF8B6
:1019E000C41A0870DFF8C00A007810F0FD00DFF8B4
:1019F000B81A087060480088DFF86C170880022069
:101A0000DFF8FC1308708AE05A480088DFF858179E
:101A10000988884204D20420DFF8E413087003E048
:101A20000520DFF8DC13087079E0DFF83C07008858
:101A3000801E50490988884204DB0420DFF8C01367
:101A400008700AE04B480088DFF81C1709888842B4
:101A500003D30520DFF8A8130870DFF8440A0078E4
:101A6000002815D1DFF83C0A0078012810D1DFF8F2
:101A7000380A0078C0F34000C0B2002808D1DFF86F
:101A80002C0A0068002803D10620DFF874130870C0
:101A900045E0DFF870030078012801D102F062F917
:101AA00036480078002803D035480078002801D156
:101AB00002F052F90320DFF8481308702FE02F4896
:101AC0000078012803D02E480078012801D102F0C7
:101AD000EDF8DFF8D0090078002808D1DFF8D00948
:101AE000DFF8C81908600120DFF8B8190870032072
:101AF000C349087013E0DFF8A809007800280BD16B
:101B0000DFF8A409007850F00200DFF89C19087093
:101B10000120DFF88C1908700320B949087001BD55
:101B20006C1600202E1500203F160020E811002022
:101B300023160020591200085B1200082913000820
:101B4000CD1400084117000843170008B119000818
:101B5000911B0008251E00086D2100086F21000858
:101B600085260008BD2400085928000877290008A8
:101B7000412900083A1500206415002013160020A2
:101B8000161600202C150020BF150020701500200F
:101B900080B59B480078DFF81C190870DFF8180939
:101BA0000078C0B2C009C0B2002800F09A80DFF807
:101BB00004090078002808D0012807D0052850D053
:101BC00006285FD0072823D06CE06BE00020DFF808
:101BD000D01808700020DFF8981A0870DFF8C808DD
:101BE000007810F0FD00DFF8C0180870DFF8840AF4
:101BF0000088DFF8841A0988884204D20520DFF8BB
:101C0000B418087003E00620DFF8A818087049E04F
:101C1000DFF8600A0088DFF8601A0988884212D36A
:101C2000DFF84C0A0078002808D1DFF88408DFF8D4
:101C30007C1808600120DFF8381A08700620DFF8E9
:101C4000741808700CE0DFF8300A0088801EDFF896
:101C5000241A0988884203DB0520DFF85818087029
:101C600020E0DFF8180A0078002804D0DFF8100A16
:101C70000078002801D102F06FF80720DFF834184F
:101C800008700FE0DFF8F4090078012804D0DFF8CD
:101C9000F0090078012801D102F008F80720DFF8E8
:101CA00014180870DFF8C8090078012840F0A180F6
:101CB000DFF8F8070068002840F09B80DFF8E007B5
:101CC0000078002840F09580DFF8DC07007850F0BD
:101CD0000200DFF8D41708700120DFF8C41708707D
:101CE00087E0DFF8D0070078002806D0022827D048
:101CF00004D304284AD03ED360E05FE00020DFF840
:101D0000A01708700020DFF868190870DFF898073E
:101D1000007810F0FD00DFF890170870DFF8540924
:101D20000088DFF854190988884204D20320DFF8BC
:101D30008417087003E00420DFF8781708703DE08E
:101D4000DFF830090088DFF830190988884204D3A9
:101D50000420DFF8601708700CE0DFF81C09008829
:101D6000801EDFF810190988884203DB0320DFF8A2
:101D70004417087022E023480078002801D102F0BF
:101D80000FF80220DFF82C17087017E01D480078C4
:101D9000012801D101F0E6FFDFF8D408007800281F
:101DA00008D1DFF80C07DFF8041708600120DFF81E
:101DB000C01808700220DFF8FC160870DFF8B008C1
:101DC0000078012815D1DFF8E4060068002810D15A
:101DD000DFF8CC06007800280BD1DFF8CC060078BD
:101DE00050F00200DFF8C01608700120DFF8B016CE
:101DF0000870DFF8C00600780149087001BD0000D6
:101E00002416002019160020C01500203E160020C0
:101E1000E0930400941400207E150020801500201B
:101E20008215002080B5DFF8840B0078DFF8241AD3
:101E30000870DFF884060078C0B2C009C0B200287C
:101E400000F09A80DFF80C0A0078002808D00128FA
:101E500007D0042850D0052825D007285DD06CE095
:101E60006BE00020DFF8381608700020DFF800185B
:101E70000870DFF83406007810F0FD00DFF828164F
:101E80000870DFF8F0070088DFF8EC17098888424F
:101E900004D20420DFF8BC19087003E00720DFF843
:101EA000B419087049E0DFF8CC070088DFF8C817DC
:101EB0000988884212D3DFF8B8070078002808D1D3
:101EC000DFF8EC05DFF8E41508600120DFF8A01763
:101ED00008700720DFF87C1908700CE0DFF898071D
:101EE0000088801EDFF88C170988884203DB0420F5
:101EF000DFF86019087020E0DFF88007007800281C
:101F000004D0DFF87C070078002801D101F024FF1D
:101F10000520DFF8401908700FE0DFF8600700784F
:101F2000012804D0DFF858070078012801D101F01A
:101F3000BDFE0520DFF81C190870DFF834070078B3
:101F4000012840F00481DFF864050068002840F0B3
:101F5000FE80DFF84C050078002840F0F880DFF8BC
:101F60004805007850F00200DFF83C1508700120A9
:101F7000DFF82C150870EAE0DFF8D80800780028B0
:101F800009D0022818D007D3042840D023D306282C
:101F900074D05CD3C0E0BFE00020DFF80415087007
:101FA0000020DFF8CC160870DFF8FC04007810F091
:101FB000FD00DFF8F4140870DFF8B8060088462842
:101FC00004DA0420DFF88C18087003E00320DFF83F
:101FD00084180870A0E0DFF8A4060078012804D077
:101FE000DFF89C060078012801D101F05FFE01F0C6
:101FF000D7FE0420DFF8B8190870DFF8B809DFF859
:10200000B81908600620DFF84C18087084E0DFF883
:10201000AC090078012801D101F0A4FE01F09CFE7A
:102020000020DFF89C1908804FF4FA70DFF894194B
:10203000088041F28830DFF8901908800120DFF82D
:10204000701908700520DFF80C18087064E0DFF8DC
:1020500024060088462810DB01F028FE01F0A0FECF
:102060000420DFF84C190870DFF84809DFF8481938
:1020700008600620DFF8DC1708704DE0DFF83C0947
:10208000007801282AD1DFF8EC050088DFF8E81590
:102090000988884240D301F065FE0020DFF820194E
:1020A00008804FF4FA70DFF81C19088041F288307C
:1020B000DFF8141908800120DFF8F4180870DFF841
:1020C000B0050078002827D1DFF8E403DFF8DC133F
:1020D00008600120DFF8981508701DE0DFF8DC08C3
:1020E0000078002818D1DFF890050088801EDFF8FE
:1020F0008415098888420FDBDFF8780500884628B8
:1021000004DA0220DFF84C17087005E001F048FE01
:102110000420DFF89C180870DFF8540500780128C7
:1021200015D1DFF888030068002810D1DFF87003AC
:10213000007800280BD1DFF87003007850F002001F
:10214000DFF8641308700120DFF854130870DFF81B
:1021500004070078DFF85418087001BDC21500208C
:10216000C1150020221600201C150020704780B5E4
:10217000DFF838080078DFF8BC190870DFF838039A
:102180000078C0B2C009C0B2002800F09980DFF822
:10219000A4090078002808D002281DD006D30428FE
:1021A00053D02BD3052861D070E06FE00020DFF81A
:1021B000881908700020BA4908700020DFF8B014B0
:1021C0000870B948007810F0FD00B7490870022087
:1021D000DFF86019087059E0DFF898040088DFF82C
:1021E00098140988884204D20420DFF8481908703E
:1021F00003E00520DFF83C19087047E0DFF87404BD
:102200000088DFF874140988884210D3DFF860046E
:102210000078002806D1A648A44908600120DFF80C
:10222000501408700520DFF80C1908700CE0DFF876
:1022300048040088801EDFF83C140988884203DBCC
:102240000420DFF8F018087020E0DFF83004007890
:10225000002804D0DFF828040078002801D101F01C
:102260007BFD0320DFF8CC1808700FE0DFF80C04CA
:102270000078012804D0DFF808040078012801D193
:1022800001F014FD0320DFF8AC180870DFF8E0035C
:102290000078012840F0FC8084480068002840F065
:1022A000F7807F480078002840F0F2807E48007870
:1022B00050F002007C490870012079490870E7E07D
:1022C000DFF87008007800280ED001280DD0022811
:1022D00021D0032831D0042862D0062800F0828063
:1022E000072800F0A480BEE0BDE00020DFF8481819
:1022F000087000206A4908700020DFF87413087025
:102300006948007810F0FD00674908700220DFF886
:1023100024180870A7E0DFF85C030088DFF8581382
:102320000988884204D20420DFF80818087003E006
:102330000620DFF80018087095E0DFF83C030088FD
:10234000801EDFF830130988884204DB0420DFF8A0
:10235000E417087023E0DFF81C030088DFF8181387
:10236000098888421BD3DFF8D007007800280AD1FB
:10237000DFF8C8070078DFF8C01708700620DFF81C
:10238000B41708700BE0DFF8F4020078012804D0DD
:10239000DFF8EC020078012801D101F087FC62E04F
:1023A000DFF818060078012801D101F0DBFCB34802
:1023B0000078002811D1B248007800280DD101F032
:1023C000CBFCDFF874070078002806D0DFF8680738
:1023D0000078401EDFF8601708700320DFF85417FC
:1023E000087040E0A5480078012803D0A448007890
:1023F000012801D101F05AFCDFF8C005007800285F
:1024000001D101F0CDFC4EF66020DFF8AC1508607C
:1024100097480078002805D1254824490860012004
:10242000934908700720DFF80C1708701BE0DFF8ED
:102430008805006800280BD08F480088801E8D49D1
:10244000098888420FDB0420DFF8E81608700AE0EC
:10245000DFF868050078012801D101F083FC032032
:10246000DFF8D016087082480078012810D10F4894
:10247000006800280CD10A480078002808D10A48D2
:10248000007850F0020008490870012004490870E3
:10249000DFF8A0060078DFF81415087001BD000011
:1024A000BD150020C31500204416002098140020FC
:1024B000C0270900C41500207015002080B5DFF882
:1024C000EC040078DFF8EC1A0870DFF8E80A00780E
:1024D00000280FD0022813D00DD3042855D03DD3A7
:1024E000062800F0828066D3082800F0AF80C0F094
:1024F0009780B6E0B5E00220DFF8B81A0870B0E0C7
:102500005C4800885C490988884204D20420DFF8CE
:10251000A41A087021E0DFF8A00AB0F90000002832
:1025200017D0544800885449098888420CD3514830
:102530000088DFF8841AB1F90010884204DA072015
:10254000DFF8701A087008E00820DFF8681A0870D1
:1025500003E00520DFF85C1A087082E04648008836
:10256000801E44490988884204DB0420DFF8441AAD
:10257000087009E03F4800883F490988884203D332
:102580000520DFF8301A08706BE0DFF830040078BF
:10259000012801D101F0E6FB38480078002803D07B
:1025A00037480078002801D101F0D6FB0320DFF87E
:1025B000041A087055E031480078012803D03048EB
:1025C0000078012801D101F071FBDFF8EC09B0F9C6
:1025D0000000002804D10320DFF8D819087003E0B8
:1025E0000720DFF8D01908703BE0DFF8CC09B0F91C
:1025F0000000801E1F490988884204DB0720DFF89D
:10260000B41908700BE01B480088DFF8AC19B1F969
:102610000010884203DB0820DFF89819087020E0DA
:1026200016480078012803D015480078012801D108
:1026300001F03CFBDFF884030078002801D101F0B1
:10264000AFFB0620DFF86C1908700AE0DFF86C03B6
:102650000078012801D101F085FB0620DFF854192C
:102660000870DFF850090078DFF84013087001BDEA
:10267000BE1500203A150020641500201316002016
:102680001616002080B5DFF824030078DFF8C01AA2
:102690000870DFF8BC0A007800280FD0022813D099
:1026A0000DD304285ED042D3062800F08E8070D36C
:1026B000082800F0BE80C0F0A580C4E0C3E002207E
:1026C000DFF88C1A0870BEE0DFF8880A0088DFF8AF
:1026D000881A0988884204D20420DFF8741A087026
:1026E00024E0DFF8D408B0F9000000281AD0DFF8A1
:1026F000640A0088DFF8601A098888420DD3DFF881
:10270000540A0088DFF8B018B1F90010884204DAE2
:102710000720DFF83C1A087008E00820DFF8301ABC
:10272000087003E00520DFF8281A08708BE0DFF856
:10273000280A0088801EDFF81C1A0988884204DBFA
:102740000420DFF80C1A08700BE0DFF8080A008894
:10275000DFF8041A0988884203D30520DFF8F0194E
:10276000087070E095480078012801D101F0FAFA6C
:10277000DFF8E8090078002804D0DFF8E4090078E1
:10278000002801D101F0E8FA0320DFF8C41908702D
:1027900059E0DFF8C8090078012804D0DFF8C00943
:1027A0000078012801D101F081FADFF80C08B0F9B6
:1027B0000000002804D10320DFF89419087003E01A
:1027C0000720DFF88C1908703DE0DFF8EC07B0F95E
:1027D0000000801EDFF87C190988884204DB07208E
:1027E000DFF86C1908700CE0DFF868090088DFF882
:1027F000C817B1F90010884203DB0820DFF8501930
:10280000087020E0DFF854090078012804D0DFF8D0
:1028100050090078012801D101F048FA6748007892
:10282000002801D101F0BCFA0620DFF82419087055
:1028300009E062480078012801D101F093FA0620EE
:10284000DFF80C190870DFF808090078574908709C
:1028500001BD0000C515002080B554480078DFF8A0
:1028600004190870DFF8FC080078002808D0022856
:102870000CD006D3042836D01AD305284AD059E004
:1028800058E00220DFF8DC18087053E0DFF8C408D5
:102890000088DFF8C4180988884204D20420DFF8D1
:1028A000C418087003E00520DFF8B818087041E08C
:1028B000DFF8A4080088801EDFF89818098888428D
:1028C00004DB0420DFF89C1808700BE0DFF88408B4
:1028D0000088DFF884180988884203D30520DFF8D0
:1028E0008418087026E035480078012801D101F0ED
:1028F00039FADFF868080078002804D0DFF86008AB
:102900000078002801D101F027FA0320DFF85418DD
:1029100008700FE0DFF844080078012804D0DFF8E1
:1029200040080078012801D101F0C0F90320DFF848
:1029300034180870DFF82C0800781C49087001BDB5
:1029400080B5DFF818080078012804D0DFF81008F7
:102950000078012801D101F0A9F918480078012870
:1029600001D101F0FFF90020DFF80C1A08700120F6
:102970000E49087001BD80B5DFF8E0070078012836
:1029800004D0DFF8DC070078012801D101F08EF9CE
:102990000A480078012801D101F0E4F90020DFF8AD
:1029A000D819087000200149087001BD24160020C4
:1029B0003E160020E0930400941400201916002015
:1029C0007E150020801500208215002080B501F0C2
:1029D00083FD02F07EFC01F061FC4FF47A700CF094
:1029E000E3F8DFF89839002247F60101062003F0EA
:1029F0006DFA0821DFF884090CF051FADFF880390C
:102A0000002247F60101062003F060FA0821DFF8F2
:102A100070090CF05EFA002006F094FD0120DFF84A
:102A2000641908700120DFF860190880DFF85C097C
:102A3000007850F00400DFF854190870DFF84C09F2
:102A4000007850F00800DFF84419087001F08BFF9F
:102A500003F076FC00F074F807F0B0F806F08AFA9C
:102A600002F0F0F802F0E2F902F0C9FA02F0A6FB77
:102A700003F090FBDFF8180900780028E6D102F097
:102A800027FC02F06FFD03F087F806F05DFA06F010
:102A90005FFA06F0D7FB06F01BFC01F0AEFB07F077
:102AA00063FD06F069FC07F091FB07F0B9FB07F046
:102AB000E8FBDFF8E008007807F05DFC07F0D4FDE4
:102AC00008F064FA08F022FD09F04AF80AF0EEFD79
:102AD00009F03CF9DFF8C40C0078002801D100F0BF
:102AE000E5FA09F0E3F809F0E5F9FEF745FB09F02E
:102AF0006FFBFDF7F1FDFDF729FFFDF7BAFFFEF7CC
:102B00005DF800F006FA09F089FB09F0E4FD09F030
:102B10004DFE09F0BBFE09F0A7FA09F00FFB09F022
:102B200082FD00F04DFC00F06BFE01F06DF909F044
:102B3000BFFF8BE7C6150020C1150020221600201C
:102B400080B5DFF85C0C0088002840F0E181AA2005
:102B5000DFF8441808703C20DFF83C184870DFF8B4
:102B60003C080068DFF838180860DFF820080088A3
:102B70004FF4807190FBF1F201FB1200DFF818189E
:102B8000C870DFF8080800884FF4807190FBF1F0FE
:102B9000DFF804180871DFF808080078DFF8F81784
:102BA0004871DFF8FC074078DFF8EC178871DFF830
:102BB000F0078078DFF8E017C871DFF8E407C07825
:102BC000DFF8D4170872DFF8DC070078DFF8C817E1
:102BD0004872DFF8D40700884FF4807190FBF1F25F
:102BE00001FB1200DFF8B0178872DFF8BC0700881D
:102BF0004FF4807190FBF1F0DFF89C17C872DFF89A
:102C0000AC0700884FF4807190FBF1F201FB1200D9
:102C1000DFF884170873DFF8940700884FF4807199
:102C200090FBF1F0DFF870174873DFF82805008893
:102C30004FF4807190FBF1F201FB1200DFF858179E
:102C40008873DFF8100500884FF4807190FBF1F075
:102C5000DFF84417C873DFF8580700884FF4807115
:102C600090FBF1F201FB1200DFF82C170874DFF87B
:102C7000400700884FF4807190FBF1F0DFF81817DF
:102C80004874DFF83007B0F9000080B24FF480716B
:102C900090FBF1F201FB1200DFF8FC168874DFF8FC
:102CA0001407B0F9000080B24FF4807190FBF1F08E
:102CB000DFF8E416C874DFF80007B0F9000080B24E
:102CC0004FF4807190FBF1F201FB1200DFF8C8169F
:102CD0000875DFF8E406B0F9000080B24FF48071A7
:102CE00090FBF1F0DFF8B0164875DFF8D006B0F9C8
:102CF000000080B24FF4807190FBF1F201FB1200F2
:102D0000DFF894168875DFF8B406B0F9000080B2D9
:102D10004FF4807190FBF1F0DFF87C16C875DFF896
:102D2000840A0088DFF870160876DFF87C0A0088CD
:102D3000DFF864164876DFF8740A0088DFF8581662
:102D40008876DFF86C0A00884FF4807190FBF1F20E
:102D500001FB1200DFF84016C876DFF8540A00883D
:102D60004FF4807190FBF1F0DFF82C160877DFF854
:102D7000440A00884FF4807190FBF1F201FB1200CD
:102D8000DFF814164877DFF82C0A00884FF48071BA
:102D900090FBF1F0DFF800168877DFF81C0A007866
:102DA000DFF8F415C877DFF8DC050078DFF8E81500
:102DB00081F82000DFF8040A0078DFF8DC1581F8DC
:102DC0002100DFF8D0050078DFF8CC1581F822006B
:102DD000DFF8EC090078DFF8C01581F82300DFF890
:102DE000E4090078DFF8B01581F82400DFF8D8098D
:102DF00000684FF47A71B0FBF1F03C21B0FBF1F0C8
:102E0000DFF8941581F82500DFF8BC0900684FF45D
:102E10007A71B0FBF1F03C21B0FBF1F201FB120042
:102E2000DFF8741581F82600CB4800884FF48071D4
:102E300090FBF1F201FB1200DFF85C1581F827002E
:102E4000C54800884FF4807190FBF1F0DFF8481519
:102E500081F82800DFF874090078C0F3C000C0B220
:102E6000002818D0DFF8680900884FF4807190FBC3
:102E7000F1F201FB1200DFF8201581F83200DFF8D3
:102E8000500900884FF4807190FBF1F0DFF80815CD
:102E900081F8330017E0DFF83C0900884FF48071B7
:102EA00090FBF1F201FB1200DFF8EC1481F8320024
:102EB000DFF8200900884FF4807190FBF1F0DFF813
:102EC000D81481F83300DFF810090078DFF8C8144F
:102ED00081F83400DFF8040900684FF47A71B0FB20
:102EE000F1F0DFF8B41481F835003621DFF8A804DA
:102EF00006F032F8DFF8A01481F836003721DFF849
:102F000098040CF000F84FF4FA70DFF89418088079
:102F100001BD80B500F014F800F050F800F07DF825
:102F200000F0AAF801BDDFF8B8180870DFF8B4188F
:102F30000870DFF8B4180870DFF8681C0870704774
:102F400080B5DFF89C080078002805D0022813D04F
:102F500003D303281FD02BE02AE0DFF89008007885
:102F6000002825D10120DFF8881809688847022049
:102F7000DFF86C1808701BE0DFF870080078002894
:102F800016D10120DFF86818496888470320DFF868
:102F9000501808700CE0DFF854080078002807D1BA
:102FA0000120DFF8501808700020DFF8341808708E
:102FB00001BD0000C71500207A15002080B5DFF89C
:102FC00024080078002805D0022812D003D3032853
:102FD0001ED021E020E00120DFF81418496988475D
:102FE0006E20DFF8141808800220DFF8F817087048
:102FF00012E0DFF80408008800280DD10120DFF876
:10300000F017896988470320DFF8D817087003E0B4
:103010000020DFF8D017087001BD80B5DFF8C807C1
:103020000078002805D0022812D003D303281ED030
:1030300021E020E00120DFF8B817C96A8847FA20AC
:10304000DFF8B81708800220DFF89C17087012E03C
:10305000DFF8A807008800280DD10120DFF89017BD
:10306000096B88470320DFF88017087003E0002011
:10307000DFF87417087001BD80B5DFF8280B007801
:10308000002803D002280CD001D30EE00DE001206F
:10309000DFF85C17C96988470220DFF8081B087051
:1030A00003E00020DFF8FC1A087001BD80B5DFF8EE
:1030B000F80A0078002849D1DFF8F00A00780028E3
:1030C0001AD1DFF8EC0A0078012802D100F04CF8A0
:1030D00008E0DFF8E00A0078022803D00220DFF8D9
:1030E000441C0870DFF8D00A0078022803D00220C0
:1030F000DFF83C1B087029E0DFF8380B0078002867
:1031000022D0A2480078C0F30010C0B200280DD031
:103110000220DFF81C1B0870DFF8080C0078032879
:1031200011DA0220DFF8FC1B08700CE00120DFF848
:10313000001B0870DFF8EC0B0078032803DA02208C
:10314000DFF8E01B087001E000F00EF801BD0000A0
:10315000C81500203A150020641500201316002021
:1031600016160020C915002010B588480078C0F355
:103170000010C0B2002800F08580DFF8240B007832
:10318000012866D100241BE0DFF8180B007821002D
:103190002039084110F00100DFF8541651F82410CE
:1031A00088470CE0202CEFDADFF8280B0068E040BD
:1031B00010F00100DFF8381651F824108847641C1D
:1031C000DFF8E40A00788442ECDBDFF8340B0078A7
:1031D000012804D0DFF8000B0078012802D100F0AC
:1031E000BBFD09E00020DFF80816496E8847002083
:1031F000DFF8FC15896E8847DFF8E00A00780128BF
:1032000002D100F0CDFD04E00020DFF8E415C96E26
:103210008847DFF8140B0078DFF8341B0870DFF8FC
:10322000340B00785B4908700020DFF8D81A08706A
:103230000220DFF8FC1908700120DFF8E81A087096
:103240000120DFF8E81A08700020DFF8541A08702F
:1032500091E0DFF87C0B0078002840F08C80DFF8EC
:10326000F00A0078012804D10120DFF8B81A0870AC
:1032700003E00220DFF8AC1A08700120DFF8501BD1
:10328000087078E0DFF8180A007800286FD143480A
:103290000068DFF8401A086042480078DFF8041A36
:1032A0000870DFF8AC0A0078DFF87C1A0870DFF8E5
:1032B0002C050068DFF8E41A0860DFF8180B0078C6
:1032C000DFF83C1A0870DFF8100B0078DFF8081AF6
:1032D0000870DFF8080B0078DFF8001A08702D4836
:1032E0000078DFF8701A087001202A490870DFF8AA
:1032F000E40A0078012804D0DFF8DC0A007801280D
:1033000001D100F0D3FCDFF8D40A0078012801D104
:1033100000F028FDDFF8380A0078012803D10120E9
:10332000DFF8BC1A08700020DFF8241A08700120AA
:10333000DFF8FC1808700220DFF8E8190870002098
:10334000DFF8AC14C96888470020DFF8A4140969C5
:1033500088470020DFF89814496A88470020DFF882
:103360009014896888470120DFF83419087000201C
:10337000DFF85C1A087010BD231600200813002027
:10338000701300204B160020241500202A15002061
:10339000591600202816002020110020C4140020F7
:1033A000A0140020FD150020321500203615002045
:1033B0003E150020521500205415002056150020FF
:1033C00080B5DFF8200A007800282AD002285DD0D6
:1033D00028D3042800F08F807DD3062800F0BC801D
:1033E000C0F0A280082800F0EB80C0F0CD800A2851
:1033F00000F01F81C0F0FB800C2800F04881C0F075
:1034000037810E2800F07F81C0F05C81102800F029
:103410008081C0F07981122800F0BB81C0F0A381C7
:10342000BBE1BAE10220DFF8C0190870DFF89C03A5
:103430000078C0F3C000C0B200280FD0012008F00F
:10344000D1FDDFF8A809007850F00800DFF89C19DA
:1034500008700E20DFF88C19087016E0DFF86C0396
:10346000007810F0010000280FD00020DFF880194C
:103470000880DFF87809007810F0F700DFF86C19A1
:1034800008700220DFF85C19087086E1DFF8600937
:103490000088002840F081810020D549096D8847C7
:1034A0000020D349C96C88470120D149496E88471B
:1034B000DFF84009807802F0DBFBDFF83809017B98
:1034C0004FF47A704143DFF8280901800320DFF8C8
:1034D0001419087061E1DFF818090088002840F02D
:1034E0005C814FF4FA70DFF8081908800420DFF8D7
:1034F000F418087051E1DFF8F8080088002840F05F
:103500004C810120BA49496E8847DFF8E808C07845
:1035100002F0AEFB40F6B830DFF8D4180880052082
:10352000DFF8C018087038E1DFF8C4080088002808
:1035300040F033810120AE49096D8847DFF8B408B7
:10354000817A4FF47A704143DFF8A40801800620A5
:10355000DFF89018087020E1DFF894080088002850
:1035600040F01B810120A249C96C8847DFF884081C
:10357000C17A4FF47A704143DFF874080180072064
:10358000DFF86018087008E1DFF864080088002898
:1035900011D0DFF864084078C0F34000C0B20028C2
:1035A0000DD00820DFF83C1808704FF47A70DFF86F
:1035B0004018088003E00920DFF828180870ECE0C4
:1035C000DFF82C08008800280CD0DFF82C084078A1
:1035D000C0F34000C0B2002808D10920DFF8041869
:1035E000087003E00B20DFF8FC170870D5E0DFF867
:1035F000F807007800280BD0DFF8EC070078401EB1
:10360000DFF8E41708700A20DFF8D81708700FE019
:10361000DFF8E8070078002806D1FB206D49088014
:103620000220DFF8DC1708700F20DFF8B8170870E9
:10363000B3E000206E49096D884700206C49C96CD1
:10364000884701206A49496E8847DFF8A8078078D3
:1036500002F00EFBDFF89C07017B4FF47A704143C8
:10366000DFF88C0701800220DFF87817087094E0FB
:10367000DFF88007007902F0FBFA4FF4FA60DFF818
:10368000701708800C20DFF85C17087085E0DFF801
:1036900060070088002840F0808000205449096DB0
:1036A0008847DFF84807007850F00800DFF83C173B
:1036B00008700120DFF84C1708700D20DFF8241780
:1036C00008706AE0DFF830074078C0F34000C0B20D
:1036D000002817D1DFF82407007800280AD1FE203F
:1036E0003C4908800220DFF8181708700020DFF836
:1036F000F41608700020DFF80C1708700F20DFF8B0
:10370000E416087049E048E01020DFF8D816087089
:1037100043E02E480078C0F3C000C0B2002803D0B8
:10372000002008F05FFC19E000203149096D88474E
:1037300000202F49C96C884701202D49496E8847D0
:10374000DFF8B006807802F093FADFF8A806017B74
:103750004FF47A704143DFF8980601801120DFF8BA
:103760008416087019E0DFF888060088002814D154
:1037700000201F49496E8847DFF87006007810F076
:10378000F700DFF8681608701220DFF85816087086
:1037900003E00020DFF84C16087001BD6A16002017
:1037A0001E1500204215002044150020461500205B
:1037B0004E150020501500204016002071000020FA
:1037C0004316002044160020981400207015002095
:1037D0008C1500208A1500205C160020D4140020CF
:1037E0007E1600207D1600207C160020B8150020D3
:1037F00080100020211600209A1500209C15002022
:1038000080B5DFF8840A0078C0F34000C0B2002819
:1038100000F0C681DFF8B80C0078002829D0022813
:103820003DD027D3042872D061D3062800F0A280AF
:10383000C0F08780082800F0D280C0F0B4800A2849
:1038400000F00781C0F0E2800C2800F03281C0F067
:1038500022810E2800F06581C0F04481102800F01C
:103860006681C0F05F81122800F09681C0F07F81F0
:1038700096E195E10220DFF8141A08700020DFF8C5
:10388000101A0880DFF86405007810F0EF00DFF808
:103890005C1508700220DFF8381C087080E1DFF842
:1038A000F0090088002840F07B810020DFF8E4194F
:1038B000896D88470020DFF8DC19496D88470120B1
:1038C000DFF8D019896E8847DFF82805C07902F043
:1038D000F3F9DFF82005017B4FF47A704143DFF8FC
:1038E000B00901800320DFF8E81B087058E1DFF819
:1038F000A0090088002840F053814FF4FA70DFF8E7
:10390000901908800420DFF8C81B087048E1DFF830
:1039100080090088002840F043810120DFF87419F5
:10392000896E8847DFF8CC04007A02F0C5F940F6CA
:10393000B830DFF85C1908800520DFF8941B0870A8
:103940002EE1DFF84C090088002840F02981012091
:10395000DFF84019896D8847DFF89804817A4FF4C1
:103960007A704143DFF8280901800620DFF8601BE8
:10397000087015E1DFF818090088002840F0108170
:103980000120DFF81019496D8847DFF86804C17A13
:103990004FF47A704143DFF8F80801800720DFF820
:1039A000301B0870FCE0DFF8E8080088002811D020
:1039B000DFF844044078C0F38000C0B200280DD086
:1039C0000820DFF80C1B08704FF47A70DFF8C0187D
:1039D000088003E00920DFF8F81A0870E0E0DFF85B
:1039E000B008008800280CD0DFF80C044078C0F341
:1039F0008000C0B2002808D10920DFF8D41A08706E
:103A000003E00B20DFF8C81A0870C9E0DFF87C0873
:103A1000007800280BD0DFF874080078401EDFF82B
:103A20006C1808700A20DFF8A81A087010E0DFF898
:103A3000CC030078002807D1FC20DFF85C18088050
:103A40000220DFF8BC1308700F20DFF8841A08701A
:103A5000A6E00020DFF83C18896D88470020DFF8D9
:103A60003418496D88470120DFF82818896E884787
:103A7000DFF88003C07902F01FF9DFF87803017BDB
:103A80004FF47A704143DFF8080801800220DFF824
:103A9000401A087084E0D748407A02F00DF94FF4DC
:103AA000FA60DFF8EC1708800C20DFF8241A0870A1
:103AB00076E0DFF8DC070088002871D10020DFF80D
:103AC000D417896D8847C948007850F01000C7495D
:103AD00008700120DFF8FC1908700D20DFF8F019DC
:103AE00008705DE0C4484078C0F38000C0B2002890
:103AF00016D1C248007800280AD1FF20DFF89817B5
:103B000008800220BE4908700020DFF8C419087040
:103B10000020DFF8C01908700F20DFF8B419087012
:103B20003EE03DE01020DFF8A819087038E00020E2
:103B3000DFF86017896D88470020DFF85817496D56
:103B400088470120DFF84C17896E8847A948C0795B
:103B500002F0B2F8A748017B4FF47A704143DFF8D6
:103B6000300701801120DFF86819087018E0DFF8CD
:103B700020070088002813D10020DFF81817896E6D
:103B800088479A48007810F0EF0098490870122092
:103B9000DFF83C19087003E00020DFF834190870E2
:103BA00001BD00007B1600206F1600201E160020AD
:103BB000371600203316002035160020C0B200282A
:103BC00002D0012809D022E00220DFF8001A087094
:103BD0000420DFF8FC19087019E00320DFF8EC1965
:103BE0000870DFF8A4060078C0B2C009C0B200288F
:103BF0000DD10120DFF8D81908704FF4FA70DFF802
:103C0000D419088041F28830DFF8CC1908800120EF
:103C1000DFF8C81908700020DFF8C41908800120F7
:103C2000404908700120DFF8541C087070470000FC
:103C3000341600202A1600200F20DFF89019087093
:103C40000220384908700420DFF884190870704792
:103C5000DFF8901908700120DFF880190870002043
:103C6000DFF87C19088001202E4908700420DFF855
:103C7000601908700520DFF854190870704700209B
:103C8000DFF8601908700F20DFF840190870042071
:103C9000DFF83C19087002202249087070470000C4
:103CA0003F160020FE150020CA15002080B500F048
:103CB00003F800F015F801BD46480078012805D149
:103CC0000020444908700F204649087000204D49E3
:103CD00008707047C8140020171600201A1600201C
:103CE0003D480078012806D100203B4908700F208C
:103CF000DFF8DC1708700020DFF8D817087070476D
:103D0000141600200E16002080B5012031490870DD
:103D100001203449087031480078012801D100F0B1
:103D200021F801BD321600200C1600205716002085
:103D300080B50120284908700120DFF89417087029
:103D400026480078012801D100F00CF801BD0000E0
:103D50000B1600202916002080B5FFF7D5FFFFF7CE
:103D6000E7FF01BDDFF820050078C0B2C009C0B28E
:103D700000280ED11948007801280AD100201749DF
:103D800008700F20DFF8F81A08700020DFF8F41A26
:103D900008700020DFF8F01A08707047D81400206F
:103DA000DFF8E4040078C0B2C009C0B200280ED128
:103DB00001200A4908700120DFF8C01A08700120AC
:103DC000DFF8BC1A08700120DFF8B81A08707047D5
:103DD0005816002013160020161600201916002071
:103DE0000D16002011160020151600202E1500209B
:103DF00060150020681400202A1500205F1600209E
:103E00005A1600204C16002080B5DFF8740A00789E
:103E100000282BD0022864D029D3042800F09980F0
:103E2000C0F08780062800F0C580C0F0AB8008286D
:103E300000F0F480C0F0D6800A2800F02881C0F09D
:103E400004810C2800F05181C0F040810E2800F060
:103E50008981C0F06581102800F08A81C0F08381DB
:103E6000122800F0C581C0F0AD81C5E1C4E1022097
:103E7000DFF8181A0870DFF810040078C0F380002B
:103E8000C0B2002810D00020DFF8041A0880DFF844
:103E9000040A007810F0DF00DFF8F819087002203B
:103EA000DFF8DC1908701BE0DFF8DC030078C0F3F2
:103EB0000010C0B200280FD0012008F0B2F8DFF8DF
:103EC000D409007850F02000DFF8C81908700E20DF
:103ED000DFF8AC19087003E00020DFF8A4190870BF
:103EE0008AE1DFF8AC090088002840F085810020D5
:103EF000DFF8A013096E88470020DFF89813C96D1A
:103F000088470120DFF88C13C96E8847DFF88809DD
:103F1000807801F0FDFEDFF88009C1794FF47A70F6
:103F20004143DFF86C0901800320DFF85419087061
:103F300062E1DFF85C090088002840F05D814FF401
:103F4000FA70DFF84C1908800420DFF83419087083
:103F500052E1DFF83C090088002840F04D81012043
:103F6000CC49C96E8847DFF83009C07801F0D0FE2F
:103F700040F6B830DFF8181908800520DFF800197E
:103F8000087039E1DFF808090088002840F0348122
:103F90000120C049096E8847DFF8FC0841794FF4D9
:103FA0007A704143DFF8E80801800620DFF8D01876
:103FB000087021E1DFF8D8080088002840F01C8153
:103FC0000120B449C96D8847DFF8CC0881794FF4E6
:103FD0007A704143DFF8B80801800720DFF8A018A5
:103FE000087009E1DFF8A8080088002811D0DFF880
:103FF000AC084078C0F3C000C0B200280DD0082043
:10400000DFF87C1808704FF47A70DFF884180880A5
:1040100003E00920DFF868180870EDE0DFF87008A9
:10402000008800280CD0DFF874084078C0F3C00086
:10403000C0B2002808D10920DFF84418087003E056
:104040000B20DFF83C180870D6E0DFF84008007855
:1040500000280BD0DFF834080078401EDFF82C1859
:1040600008700A20DFF8181808700FE0DFF8300831
:104070000078002806D1FD20874908800220DFF85B
:10408000241808700F20DFF8F8170870B4E000203B
:104090008049096E884700207E49C96D8847012004
:1040A0007C49C96E8847DFF8F007807801F030FE60
:1040B000DFF8E407C1794FF47A704143DFF8D007A5
:1040C00001800220DFF8B817087095E0DFF8C80714
:1040D000007901F01DFE4FF4FA60DFF8B417088094
:1040E0000C20DFF89C17087086E0DFF8A407008832
:1040F000002840F0818000206649096E8847DFF87B
:104100009407007850F02000DFF88817087001202D
:10411000DFF8741708700D20DFF8641708706BE083
:10412000DFF878074078C0F3C000C0B2002818D18B
:10413000DFF86C07007800280BD14FF480705649E7
:1041400008800220DFF85C1708700020DFF83017C5
:1041500008700020DFF8301708700F20DFF82017F4
:10416000087049E048E01020DFF81417087043E0B9
:1041700045480078C0F30010C0B2002803D00020EA
:1041800007F04FFF19E000204249096E88470020E0
:104190004049C96D884701203E49C96E8847DFF80C
:1041A000F806807801F0B4FDDFF8EC06C1794FF431
:1041B0007A704143DFF8D80601801120DFF8C0167D
:1041C000087019E0DFF8C8060088002814D1002024
:1041D0003049C96E8847DFF8BC06007810F0DF0070
:1041E000DFF8B01608701220DFF89416087003E0AC
:1041F0000020DFF88C16087001BD80B5DFF8380AA2
:10420000007800283ED02048007810F0140F04D128
:104210000120DFF8281A087034E0DFF8240A00785B
:1042200000282FD1DFF85406007800282AD0DFF8C4
:104230006C06007810F00100002811D0002015490C
:10424000096988474FF4FA60DFF8041B08800120F1
:10425000DFF84C1D08700120DFF8E019087011E04C
:1042600001200C4909698847DFF8340D00780128DE
:1042700008D1DFF8DC0A0088002803D10020DFF82D
:10428000201D087001BD00007015002018160020C8
:1042900062150020801000208A15002010B5FBF761
:1042A00074FFFCF785FF002406E00020DFF8EC1A1D
:1042B00051F824108847641CDFF8E40A007884422F
:1042C000F3DB4FF40051DFF8DC0A09F0BBFF4FF4D9
:1042D0000041DFF8D00A09F0B2FF4FF48061DFF847
:1042E000C40A09F0AFFF4FF48051DFF8B80A09F0B3
:1042F000A6FF8021DFF8AC0A09F0A4FF4FF400719B
:10430000DFF8A00A09F09BFF1021DFF8980A09F0F6
:1043100099FF4021DFF88C0A09F091FF41F28830C3
:1043200001F074F80A2001F0A3FC142001F0C4FC91
:104330001E2001F0EDFC0120DFF8B81A0870012002
:10434000DFF8B41A08700120DFF8B01A08700120F5
:10435000DFF8AC1A08706420DFF8A81A087064202F
:10436000DFF8A41A08706420DFF8A01A087064202F
:10437000DFF89C1A08701B20DFF8981AC8703420E8
:10438000DFF8901A08713420DFF8881A8870262028
:10439000DFF8801A08724A20DFF8781A48724A203B
:1043A000DFF8701AC8710320DFF8681A88720320DA
:1043B000DFF8601AC8720520DFF8581A0873272042
:1043C000DFF8D414C8704820DFF8CC1408714820F6
:1043D000DFF8C41488700320DFF8BC144871032090
:1043E000DFF8B41488710520DFF8AC14C87101201F
:1043F000DFF8241A08700120DFF8201A0870012065
:10440000DFF81C1A08700120DFF8181A0870012064
:10441000DFF8141A08700120DFF8201B0870012053
:10442000DFF81C1B08700120DFF8181B0870012042
:10443000DFF82C1B08700120DFF8381B0870012002
:10444000DFF8341B08700120DFF8401B08700020E3
:10445000DFF828140870002008F07AFAB0F1AA3FBB
:104460001ED1012008F074FADFF8381B0860022022
:1044700008F06EFADFF8301B0860032008F068FAD5
:10448000DFF8281B0860042008F062FADFF8201B20
:104490000860052008F05CFADFF80C1D086015E0E4
:1044A00008F062FA0020DFF8FC1A08600020DFF84C
:1044B000F81A08600020DFF8F41A08600020DFF81E
:1044C000F01A08600020DFF8E01C086010BD000052
:1044D000121600204D16002080B50AF04BFD5FF447
:1044E00080300AF077FD0AF09FFDDFF8C01C0870ED
:1044F000DFF8B80C0078012824D100200AF0CFFDA5
:1045000000200AF0E0FD4FF480600AF0D2FD102098
:104510000AF0C4FE02200AF0B5FE5FF4E0115FF479
:1045200080300AF09DFD01200AF0A6FD39200AF036
:104530006BFE0028FAD002200AF0A2FD0AF0AAFDC4
:104540000828FBD1012104200AF03EFE01210820A9
:104550000AF03AFE012110200AF036FE0121202047
:104560000AF032FE012140200AF02EFE01218020B7
:104570000AF02AFE01214FF480700AF025FE012185
:104580004FF480400AF020FE01215FF400300AF071
:104590002BFE01215FF480200AF026FE01215FF44A
:1045A00000200AF021FE012101200AF0FDFD012179
:1045B0004FF400500AF008FE00F016F80AF0BCFBB9
:1045C00000F080F900F070F901BD00002316002012
:1045D0003E160020801500208215002024160020A1
:1045E0002C1500202216002080B54FF4E070ADF8A5
:1045F000000018208DF8030003208DF802006946A2
:10460000DFF8100B09F0AEFD4BF2D060ADF8000002
:1046100010208DF8030003208DF802006946DFF8B2
:10462000840709F09FFD44F62010ADF800004820F3
:104630008DF8030003208DF802006946DFF8640757
:1046400009F090FD4FF40070ADF8000018208DF8CF
:10465000030003208DF802006946DFF8F00A09F034
:1046600081FD4FF48060ADF8000004208DF8030058
:104670006946DFF8D80A09F075FD0420ADF800009E
:1046800018208DF8030003208DF802006946DFF83A
:10469000BC0A09F067FD0820ADF8000004208DF881
:1046A00003006946DFF8A40A09F05CFD4FF480605E
:1046B000ADF8000018208DF8030003208DF80200EB
:1046C0006946DFF8080C09F04DFD4FF40060ADF8C5
:1046D000000004208DF803006946DFF8F00B09F0B4
:1046E00041FD4FF48060ADF8000018208DF8030004
:1046F00003208DF802006946DFF8180A09F032FD40
:104700004FF40060ADF8000004208DF80300694606
:10471000DFF8000A09F026FD4FF6FF70ADF8000043
:1047200010208DF8030003208DF802006946DFF8A1
:10473000800A09F017FD4FF20C00ADF800001020C0
:104740008DF8030003208DF802006946DFF8640A43
:1047500009F008FD4FF47F60ADF8000048208DF8A7
:10476000030003208DF802006946DFF8480A09F0CB
:10477000F9FC43F20300ADF8000010208DF80300AF
:1047800003208DF802006946DFF8400B09F0EAFCCF
:104790004FF44340ADF8000048208DF8030003209B
:1047A0008DF802006946DFF8240B09F0DBFC4FF4BA
:1047B0004050ADF8000010208DF8030003208DF864
:1047C00002006946DFF84C0909F0CCFC4FF4604068
:1047D000ADF8000010208DF8030003208DF80200D2
:1047E0006946DFF8D40909F0BDFC0320ADF80000EC
:1047F00048208DF8030003208DF802006946DFF899
:10480000A40509F0AFFC1820ADF8000010208DF8C9
:10481000030003208DF802006946DFF8F80809F06C
:10482000A1FC4FF4F050ADF8000010208DF803000B
:1048300003208DF802006946DFF87C0909F092FC3C
:104840000420ADF8000010208DF8030003208DF83F
:1048500002006946DFF8740A09F084FC4FF44070E6
:10486000ADF8000048208DF8030003208DF8020009
:104870006946DFF8580A09F075FC01BD26160020CC
:104880001B160020451600204E1600201C16002086
:10489000681500202E1500208C1400202A150020F9
:1048A0005F1600205A16002080B548F6A040FBF79E
:1048B00052FC002800D0FEE700215FF0FF30FBF73C
:1048C00037FC01BD80B54FF4E0600AF0B3FD0B206A
:1048D0008DF8000000208DF8010000208DF8020006
:1048E00001208DF8030068460AF0A9FD25208DF807
:1048F000000000208DF8010001208DF80200012049
:104900008DF8030068460AF09AFD26208DF8000015
:1049100000208DF8010002208DF8020001208DF8A2
:10492000030068460AF08BFD27208DF80000002068
:104930008DF8010003208DF8020001208DF803009E
:1049400068460AF07CFD34208DF8000000208DF8C8
:10495000010004208DF8020001208DF80300684654
:104960000AF06DFD01BD80B5DFF8700B00880028EE
:1049700040F01581DFF8840A0088002806D0DFF8AF
:104980007C0A0088401EDFF8741A0880DFF8700A7D
:104990000088002806D0DFF8680A0088401EDFF88B
:1049A000601A0880DFF85C0A0088002806D0DFF86B
:1049B000540A0088401EDFF84C1A0880DFF8480AC5
:1049C0000088002806D0DFF8400A0088401EDFF883
:1049D000381A0880DFF8080B0088002806D0DFF8B6
:1049E000000B0088401EDFF8F81A0880DFF8F40A90
:1049F0000088002806D0DFF8EC0A0088401EDFF8A7
:104A0000E41A0880DFF8E00A0078002806D0DFF812
:104A1000D80A0078401EDFF8D01A0870DFF8CC0AF8
:104A20000078002806D0DFF8C40A0078401EDFF8BE
:104A3000BC1A0870DFF8B80A0078002823D0DFF825
:104A4000B40A0068401CDFF8AC1A0860DFF8A40A5A
:104A5000006848F6A041B0FBF1F080B2402808DBC6
:104A6000DFF8940A007850F0FC00DFF88C1A087028
:104A700009E0DFF8841A097811F0030151EA800196
:104A8000DFF8740A01706C480078002806D04FF4F3
:104A90000041DFF8240709F0D5FB05E04FF40041A1
:104AA000DFF8140709F0CBFBDFF8500A006890F438
:104AB0008040DFF8481A0860DFF8400A006890F488
:104AC0000050DFF8381A0860DFF8340A0088002840
:104AD00040D1DFF8300A0078002806D0DFF8C4049F
:104AE0000068401CDFF8BC140860DFF81C0A00787E
:104AF000002806D0DFF8B0040068401CDFF8A814D6
:104B000008603A480078002806D0DFF8A004006862
:104B1000401CDFF898140860DFF8F00900780028DE
:104B200006D0DFF88C040068401CDFF884140860AD
:104B3000DFF8DC090078002806D0DFF86C06006892
:104B4000401CDFF8641608604FF41670DFF8B019E7
:104B5000088006E0DFF8A8090088401EDFF8A019E9
:104B60000880DFF8B0090078002814D0DFF8A40925
:104B70000078401EDFF89C190870DFF8980900786B
:104B8000002804D001208549896C884703E0002073
:104B90008249896C88476420DFF84019088001BD8C
:104BA00080B51F20DFF8701908704FF40041DFF85E
:104BB0006C0909F047FB01BD80B54FF40041DFF8F7
:104BC0005C0909F03CFB01BD80B54FF40051DFF8F2
:104BD0004C0909F037FB01BD80B54FF40051DFF8F7
:104BE0003C0909F02CFB01BD000000004E1600201E
:104BF00080B54FF480416B4809F016FB00280DD0BA
:104C0000DFF81C0901680122DFF80C0990F90000A7
:104C100082401143DFF8080901600CE0DFF8000969
:104C200001680122DFF8F00890F90000824091430A
:104C3000DFF8EC08016001BD1E16002020160020E0
:104C40003716002080B56F480078002840F07F803C
:104C5000DFF8D0080078002802D1FFF7A1FF1CE0A0
:104C6000DFF8C0080178032291FBF2F002FB10107C
:104C7000C0B2002808D0022803D00ED2FFF7ACFF44
:104C80000BE0FFF7B5FF08E0FFF79EFFDFF88808AD
:104C90000078401EDFF880180870DFF87C0890F973
:104CA000000000284CD5FFF787FF0020DFF87418BC
:104CB0000870DFF86C080068DFF86C180860DFF82F
:104CC00068080068800CDFF864180880DFF85C086A
:104CD000B0F90000042190FBF1F0DFF850180880D3
:104CE000DFF848080088DFF84818DFF8482812780D
:104CF00021F81200DFF83C080078401CDFF8341877
:104D00000870DFF8300800780A2803DB0020DFF89D
:104D1000241808700021002205E0DFF8140830F89C
:104D200012004118521C0A2AF7DB89B20A2091FBB3
:104D3000F0F0DFF80418088064203249087006E0BB
:104D4000DFF8E0070078401CDFF8D817087001BDD5
:104D50007815002080B51F20DFF8E01708704FF4A9
:104D60008051DFF8B80709F06DFA01BD80B54FF446
:104D70008051DFF8A80709F062FA01BD80B54FF451
:104D80008061DFF8980709F05DFA01BD80B54FF446
:104D90008061DFF8880709F052FA01BD8010002019
:104DA000CA1500200020014080B54FF40061DFF8F3
:104DB0006C0709F039FA00280DD0DFF88407016884
:104DC0000122DFF8780790F9000082401143DFF8F4
:104DD000700701600CE0DFF8680701680122DFF866
:104DE0005C0790F9000082409143DFF854070160AE
:104DF00001BD0000831600208A16002091160020B5
:104E000098160020EE150020F2150020F61500205F
:104E1000FA15002068140020CC150020CF150020C2
:104E2000D2150020D5150020D815002080B5DFF858
:104E300014070078002840F08080DFF83C0D0078EF
:104E4000002802D1FFF786FF1CE0DFF82C0D017867
:104E5000032291FBF2F002FB1010C0B2002808D030
:104E6000022803D00ED2FFF791FF0BE0FFF79CFF63
:104E700008E0FFF783FFDFF8C4060078401EDFF884
:104E8000BC160870DFF8B40690F9000000284DD574
:104E9000FFF76CFF0020DFF8E01C0870DFF8A006C9
:104EA0000068DFF8A4160860DFF89C060068800C34
:104EB000DFF898160880DFF89406B0F900000421A6
:104EC00090FBF1F0DFF884160880DFF88006008898
:104ED000DFF87C16DFF87C26127821F81200DFF864
:104EE00074060078401CDFF86C160870DFF8640662
:104EF00000780A2803DB0020DFF85816087000212C
:104F0000002205E0DFF8480630F812004118521C74
:104F10000A2AF7DB89B20A2091FBF0F0DFF8381695
:104F200008806420DFF81C16087006E0DFF8480CE3
:104F30000078401CDFF8401C087001BDDB15002024
:104F4000DE150020E115002080B51F20DFF80C16CB
:104F500008704FF40071DFF8C40509F073F901BD62
:104F6000E315002080B54FF40071DFF8B00509F0BB
:104F700066F901BDE5150020E715002080B5802108
:104F8000DFF8980509F05EF901BD0000EA15002080
:104F900080B58021DFF8840509F051F901BD0000DA
:104FA00027160020001500200415002008150020F9
:104FB0000C15002080B54FF48071DFF8600509F012
:104FC00033F900280DD0DFF8B40B01680122DFF8B7
:104FD0008C0590F9000082401143DFF8A00B0160BE
:104FE0000CE0DFF8980B01680122DFF8700590F9FA
:104FF000000082409143DFF8840B016001BD80B561
:10500000DFF85C050078002840F08280DFF8480D6A
:105010000078002802D1FFF797FF1CE0DFF8380D79
:105020000178032291FBF2F002FB1010C0B20028BD
:1050300008D0022803D00ED2FFF7AAFF0BE0FFF73B
:10504000B9FF08E0FFF79AFFDFF810050078401E6F
:10505000DFF808150870DFF8040590F90000002853
:105060004FD5FFF77FFF0020DFF8EC1C0870DFF85A
:105070000C0B0068DFF8081B0860DFF8040B006801
:10508000800CDFF8001B0880DFF8F80AB0F9000098
:10509000042190FBF1F0DFF8EC1A0880DFF8E40A55
:1050A000B0F90000401DDFF8E01ADFF8E02A1278BE
:1050B00021F81200DFF8D40A0078401CDFF8CC1A7F
:1050C0000870DFF8C80A00780A2803DB0020DFF840
:1050D000BC1A08700021002205E0DFF8AC0A30F8A5
:1050E00012004118521C0A2AF7DB89B20A2091FBF0
:1050F000F0F0DFF89C1A08806420DFF86414087070
:1051000006E0DFF8540C0078401CDFF84C1C0870F7
:1051100001BD00000010014080B51F20DFF8741AA7
:1051200008704021DFF8F40309F08CF801BD80B568
:105130004021DFF8E80309F082F801BD80B51021B5
:10514000DFF8D80309F07EF801BD00000008014037
:1051500080B51021DFF8C40309F071F801BD80B5F6
:105160002021DFF8B80309F05FF800280DD0DFF840
:105170008C0B01680122DFF81C0A90F900008240C4
:105180001143DFF8780B01600CE0DFF8700B016869
:105190000122DFF8000A90F9000082409143DFF815
:1051A0005C0B016001BD0000101500206E000020A6
:1051B0000018014000140140001C014080B5DFF8D8
:1051C000F40A0078002840F08080DFF8F00C0078C6
:1051D000002802D1FFF7A0FF1CE0DFF8E00C017807
:1051E000032291FBF2F002FB1010C0B2002808D09D
:1051F000022803D00ED2FFF7ABFF0BE0FFF7AFFFA3
:1052000008E0FFF79BFFDFF88C090078401EDFF80D
:1052100084190870DFF87C0990F9000000284DD54A
:10522000FFF785FF0020DFF8941C0870DFF8CC0A38
:105230000068DFF8CC1A0860DFF8C40A0068800C48
:10524000DFF8C01A0880DFF8BC0AB0F900000421BA
:1052500090FBF1F0DFF8AC1A0880DFF8A80A0088AC
:10526000DFF8A41ADFF8A42A127821F81200DFF878
:105270009C0A0078401CDFF8941A0870DFF88C0A4A
:1052800000780A2803DB0020DFF8801A087000216C
:10529000002205E0DFF8700A30F812004118521CB5
:1052A0000A2AF7DB89B20A2091FBF0F0DFF8A41A92
:1052B00008806420DFF8FC19087006E0DFF8FC0BBA
:1052C0000078401CDFF8F41B087001BD000C0140A1
:1052D000704700B591B02320ADF8000003208DF891
:1052E000020000208DF803006946DFF8700A08F01C
:1052F00039FF0121012009F057FF4FF4004009F068
:10530000ECFE01214FF4007009F05EFFDFF8500A57
:105310000AF0D2F8DFF84C0A0690DFF84C0A079042
:10532000002008900320099000200A9080200B9014
:105330004FF400700C904FF400600D9020200E9000
:105340004FF400500F900020109006A9DFF8100ACB
:105350000AF036F90121DFF8080A0AF04FF90020B7
:10536000019001208DF8080001208DF809005FF4FC
:10537000602003900020049003208DF8140001A900
:10538000DFF8180C0AF082F9052301220A21DFF860
:105390000C0C0AF0E5F9052302220B21DFF8FC0BC7
:1053A0000AF0DEF9052303220F21DFF8F00B0AF0E3
:1053B000D7F90121DFF8E40B0AF09AF90121DFF8AF
:1053C000DC0B0AF088F9DFF8D40B0AF09EF9DFF85D
:1053D000CC0B0AF09FF90028F9D1DFF8C00B0AF0D6
:1053E000A3F9DFF8B80B0AF0A4F90028F9D10121DC
:1053F000DFF8A80B0AF0A7F911B000BD981500203E
:105400009A1500209C1500208415002000B587B057
:10541000DFF8FC19B1FBF0F0DFF8F81908600020A4
:10542000ADF816000020ADF81200DFF8E8090068BA
:10543000401EADF814000020ADF8100000208DF8DB
:10544000180004A9DFF8400C0AF0F4F96020ADF868
:1054500000000020ADF80C000020ADF8080000208E
:10546000ADF80E000020ADF80A000120ADF80200F2
:105470000020ADF804000020ADF806006946DFF812
:10548000080C0AF0F2F96946DFF8FC0B0AF026FA7C
:105490006946DFF8F40B0AF061FA0021DFF8E80B47
:1054A0000AF0CDFA0021DFF8E00B0AF0D1FA002172
:1054B000DFF8D40B0AF0D5FA0021DFF8CC0B0AF0A4
:1054C000B0FA0121DFF8C00B0AF08CFA0121DFF8F5
:1054D000B80B0AF095FA07B000BD000020150020B7
:1054E000861500208815002053160020561600202F
:1054F00045160020F8140020441600200C1C014022
:10550000221500204C1600204D1600204F160020BA
:10551000501600206F160020EC15002000200140DE
:10552000A8140020ED150020A41400203015002040
:1055300018140020EF15002032150020F01500206F
:10554000B0140020F2150020AC1400203415002007
:105550002C140020F315002036150020F41500202F
:10556000F615002080B5DFF8100C0088002840F008
:1055700001831021DFF8280A08F056FE002822D106
:10558000DFF83C09007800282DD0DFF838090078D2
:10559000152810DB0120DFF830190870DFF8040A45
:1055A000007850F00100DFF8FC1908700020DFF8E7
:1055B0001019087017E0DFF80C090078401CDFF8BC
:1055C000041908700FE0DFF8DC09007810F0FE0025
:1055D000DFF8D01908700020DFF8E8180870012003
:1055E000DFF8DC1808702021DFF8B40908F01CFE91
:1055F000002822D1DFF8B009007800282DD0DFF88C
:10560000AC090078152810DB0120DFF8A419087018
:10561000DFF89009007850F00200DFF88819087070
:105620000020DFF88419087017E0DFF8800900789F
:10563000401CDFF8781908700FE0DFF8680900787F
:1056400010F0FD00DFF85C1908700020DFF85C192D
:1056500008700120DFF8501908704021DFF8400978
:1056600008F0E2FD002822D1DFF848090078002880
:105670002DD0DFF844090078152810DB0120DFF871
:105680003C190870DFF81C09007850F00400DFF8BE
:10569000141908700020DFF81C19087017E0DFF8F3
:1056A00018090078401CDFF8101908700FE0DFF8C7
:1056B000F408007810F0FB00DFF8E818087000200C
:1056C000DFF8F41808700120DFF8E818087080216E
:1056D000DFF8CC0808F0A8FD002822D1DFF8AC09DB
:1056E000007800282DD0DFF8A8090078152810DBF5
:1056F0000120DFF8A0190870DFF8A808007850F042
:105700000800DFF8A01808700020DFF88019087082
:1057100017E0DFF87C090078401CDFF87419087086
:105720000FE0DFF88008007810F0F700DFF8741859
:1057300008700020DFF8581908700120DFF84C19B4
:1057400008704FF48071DFF8580808F06DFD0028EC
:105750001BD1DFF84409008840F22131884208DB80
:10576000DFF84008007850F01000DFF838180870B3
:1057700006E0DFF824090088401CDFF81C190880C7
:105780000020DFF8181908801AE0DFF810090088F7
:1057900040F22131884208DBDFF80808007810F079
:1057A000EF00DFF80018087006E0DFF8F008008866
:1057B000401CDFF8E81808800020DFF8DC180880BB
:1057C0004FF40071DFF8D80708F02EFD002822D131
:1057D000DFF8A809007800282DD0DFF8A4090078A8
:1057E000152810DB0120DFF89C190870DFF8B407DA
:1057F000007850F02000DFF8AC1708700020DFF8C8
:105800007C19087017E0DFF878090078401CDFF891
:10581000701908700FE0DFF88C07007810F0DF00D7
:10582000DFF8801708700020DFF854190870012095
:10583000DFF8481908704FF48061DFF8640708F05A
:10584000F3FC002822D1DFF84009007800282DD091
:10585000DFF838090078152810DB0120DFF830194F
:105860000870DFF84007007850F04000DFF8341788
:1058700008700020DFF81019087017E0DFF80C0935
:105880000078401CDFF8041908700FE0DFF81407F7
:10589000007810F0BF00DFF80C1708700020DFF868
:1058A000EC1808700120DFF8E01808704FF4007160
:1058B000DFF8880908F0B8FC002822D1DFF8800959
:1058C000007800282DD0DFF87C090078152810DB3F
:1058D0000120DFF874190870DFF8C806007850F06E
:1058E0008000DFF8C01608700020DFF85419087037
:1058F00017E0DFF850090078401CDFF848190870FD
:105900000FE0DFF8A006007810F07F00DFF89416B3
:1059100008700020DFF82C1908700120DFF820192A
:1059200008704FF48071DFF8140908F07DFC00283E
:1059300022D1DFF81809007800282DD0DFF81009EF
:105940000078152810DB0120DFF808190870DFF84F
:105950005406407850F00100DFF8481648700020E7
:10596000DFF8E818087017E0DFF8E4080078401C5A
:10597000DFF8DC1808700FE0DFF82806407810F038
:10598000FE00DFF8201648700020DFF8C418087009
:105990000120DFF8B81808700221DFF8040608F0CB
:1059A00043FC002822D1DFF8B008007800282DD071
:1059B000DFF8A8080078152810DB0120DFF8A01810
:1059C0000870DFF8E005407850F00200DFF8D415E9
:1059D00048700020DFF88018087017E0DFF87C08B6
:1059E0000078401CDFF8741808700FE0DFF8B40589
:1059F000407810F0FD00DFF8AC1548700020DFF8AB
:105A00005C1808700120DFF8501808704FF48041CE
:105A1000D24808F009FC002822D1DFF848080078B5
:105A200000282DD0DFF840080078152810DB012071
:105A3000DFF838180870DFF86C05407850F0040083
:105A4000DFF8601548700020DFF81818087017E0BC
:105A5000DFF814080078401CDFF80C1808700FE01D
:105A6000DFF84005407810F0FB00DFF8381548708B
:105A70000020DFF8F41708700120DFF8E81708703D
:105A80004FF48041DFF8B40708F0CEFB002822D1A4
:105A9000DFF8DC07007800282DD0DFF8D807007881
:105AA000152810DB0120DFF8D0170870DFF8F404A8
:105AB000407850F00800DFF8EC1448700020DFF860
:105AC000B017087017E0DFF8AC070078401CDFF86B
:105AD000A41708700FE0DFF8CC04407810F0F7004E
