:020000040800F2
:1000000000040020D59600087D8F00087F8F00082F
:10001000818F0008838F0008858F00080000000092
:10002000000000000000000000000000878F0008B2
:10003000898F0008000000008B8F00088D8F00085A
:100040002B6E00082B6E00082B6E0008958F0008A1
:100050002B6E00082B6E0008978F00082B6E00088F
:100060002B6E0008AB8F00082B6E0008A1940008CF
:100070002B6E00082B6E00082B6E00082B6E0008FC
:100080002B6E00082B6E00082B6E0008AD8F000849
:10009000AF8F00082B6E00082B6E0008B18F000890
:1000A0002B6E0008B38F00082B6E00082B6E000823
:1000B000C18F0008CF8F0008DD8F00082B6E00086D
:1000C0002B6E00082B6E00082B6E00082B6E0008AC
:1000D000ED8F0008EF8F0008499100083992000861
:1000E000859400089D9400082B6E00082B6E000874
:1000F000DF8F00082B6E00082B6E00082B6E0008A7
:100100002B6E00089F9400082B6E00082B6E0008D1
:10011000279300082B6E00082B6E00082B6E00083A
:100120002B6E00082B6E00082B6E00082B6E00084B
:1001300040B2002805D40901DFF82C2B40B211543D
:1001400008E00901DFF8BC2C40B210F00F001044A9
:1001500000F8041C704780B5411EB1F1807F01D3C7
:10016000012011E0401EDFF8041B08600F215FF042
:10017000FF30FFF7DDFF0020DFF8F41A08600720EA
:10018000DFF8841C0860002002BD0020DFF87C1C22
:100190000870DFF8E00ADFF8D81BDFF8702C12785F
:1001A00041F82200DFF8640C0078401CDFF85C1C8A
:1001B0000870DFF8C40ADFF8B81BDFF8502C12789B
:1001C00041F82200DFF8440C0078401CDFF83C1CAA
:1001D0000870DFF8A80ADFF8981BDFF8302C1278D7
:1001E00041F82200DFF8240C0078401CDFF81C1CCA
:1001F0000870DFF8800BDFF8781BDFF8102C12781E
:1002000041F82200DFF8040C0078401CDFF8FC1BEA
:100210000870DFF8640BDFF8581BDFF8F02B12785A
:1002200041F82200DFF8E40B0078401CDFF8DC1B0B
:100230000870DFF8480BDFF8381BDFF8D02B127896
:1002400041F82200DFF8C40B0078401CDFF8BC1B2B
:100250000870DFF82C0BDFF8181BDFF8B02B1278D2
:1002600041F82200DFF8A40B0078401CDFF89C1B4B
:100270000870DFF8100BDFF8F81ADFF8902B12780F
:1002800041F82200DFF8840B0078401CDFF87C1B6B
:100290000870DFF87C0BDFF8D81ADFF8702B1278C3
:1002A00041F82200DFF8640B0078401CDFF85C1B8B
:1002B0000870DFF8600BDFF8B81ADFF8502B1278FF
:1002C00041F82200DFF8440B0078401CDFF83C1BAB
:1002D0000870DFF8440BDFF8981ADFF8302B12783B
:1002E00041F82200DFF8240B0078401CDFF81C1BCB
:1002F0000870DFF8280BDFF8781ADFF8102B127877
:1003000041F82200DFF8040B0078401CDFF8FC1AEB
:100310000870DFF80C0BDFF8581ADFF8F02A1278B3
:1003200041F82200DFF8E40A0078401CDFF8DC1A0C
:100330000870DFF8F00ADFF8381ADFF8D02A1278F0
:1003400041F82200DFF8C40A0078401CDFF8BC1A2C
:100350000870DFF8D40ADFF8181ADFF8B02A12782C
:1003600041F82200DFF8A40A0078401CDFF89C1A4C
:100370000870DFF8B80ADFF8F819DFF8902A127869
:1003800041F82200DFF8840A0078401CDFF87C1A6C
:100390000870DFF89C0ADFF8D819DFF8702A1278A5
:1003A00041F82200DFF8640A0078401CDFF85C1A8C
:1003B0000870DFF8800ADFF8B819DFF8502A1278E1
:1003C00041F82200DFF8440A0078401CDFF83C1AAC
:1003D0000870DFF8640ADFF89819DFF8302A12781D
:1003E00041F82200DFF8240A0078401CDFF81C1ACC
:1003F0000870DFF8480ADFF87819DFF8102A127859
:1004000041F82200DFF8040A0078401CDFF8FC19EC
:100410000870DFF82C0ADFF85819DFF8F029127895
:1004200041F82200DFF8E4090078401CDFF8DC190D
:100430000870DFF8100ADFF83819DFF8D0291278D1
:1004400041F82200DFF8C4090078401CDFF8BC192D
:100450000870DFF8F409DFF81819DFF8B02912780E
:1004600041F82200DFF8A4090078401CDFF89C194D
:100470000870DFF8540BDFF8F818DFF890291278CD
:1004800041F82200DFF884090078401CDFF87C196D
:100490000870DFF8380BDFF8D818DFF87029127809
:1004A00041F82200DFF864090078401CDFF85C198D
:1004B0000870DFF81C0BDFF8B818DFF85029127845
:1004C00041F82200DFF844090078401CDFF83C19AD
:1004D0000870DFF8340BDFF89818DFF8302912784D
:1004E00041F82200DFF824090078401CDFF81C19CD
:1004F0000870DFF8300BDFF87818DFF81029127871
:1005000041F82200DFF804090078401CDFF8FC18ED
:100510000870DFF8140BDFF85818DFF8F0281278AD
:1005200041F82200DFF8E4080078401CDFF8DC180E
:100530000870DFF8180BDFF83818DFF8D0281278C9
:1005400041F82200DFF8C4080078401CDFF8BC182E
:100550000870DFF8100BDFF81818DFF8B0281278F1
:1005600041F82200DFF8A4080078401CDFF89C184E
:100570000870DFF8F40ADFF8F817DFF8902812782F
:1005800041F82200DFF884080078401CDFF87C186E
:100590000870DFF8FC0ADFF8D817DFF87028127847
:1005A00041F82200DFF864080078401CDFF85C188E
:1005B0000870DFF8F40ADFF8B817DFF8502812786F
:1005C00041F82200DFF844080078401CDFF83C18AE
:1005D0000870DFF8D80ADFF89817DFF830281278AB
:1005E00041F82200DFF824080078401CDFF81C18CE
:1005F0000870704780B5DFF8B80A007800280FD17E
:10060000DFF8B00A007800280AD10121DFF8340BA6
:1006100006F005FC0221DFF82C0B06F000FC3DE0A3
:10062000DFF88C0A007801280FD1DFF8880A0078FB
:1006300000280AD10121DFF80C0B06F0F3FB0221A0
:10064000DFF8000B06F0EBFB28E0DFF8640A007827
:1006500000280FD1DFF85C0A007801280AD10121B7
:10066000DFF8E00A06F0DBFB0221DFF8D80A06F02B
:10067000D9FB13E0DFF8380A007801280ED1DFF843
:10068000340A0078012809D10121DFF8B80A06F000
:10069000C6FB0221DFF8AC0A06F0C1FB01BD80B544
:1006A000DFF80C1A0870FFF7A5FF01BD80B5DFF871
:1006B000041A0870FFF79EFF01BD80B5002805D120
:1006C0000421DFF8800A06F0AAFB04E00421DFF829
:1006D000740A06F0A7FB01BD80B5002805D10821EA
:1006E000DFF8600A06F09BFB04E00821DFF8540AFB
:1006F00006F098FB01BD80B5002805D11021DFF878
:10070000440A06F08CFB04E01021DFF8380A06F0FA
:1007100089FB01BD80B5DFF8300A0078002811D1CF
:10072000DFF8280A007800280CD14FF40061DFF8C8
:10073000140A06F074FB4FF48051DFF8080A06F043
:100740006EFB43E0DFF8000A0078012811D1DFF8E2
:10075000FC09007800280CD14FF40061DFF8E409AF
:1007600006F060FB4FF48051DFF8D80906F057FB24
:100770002CE0DFF8D4090078002811D1DFF8CC098B
:10078000007801280CD14FF40061DFF8B80906F0B9
:1007900046FB4FF48051DFF8AC0906F043FB15E04F
:1007A000DFF8A4090078012810D1DFF8A00900784B
:1007B00001280BD14FF40061DFF8880906F02FFB08
:1007C0004FF48051DFF87C0906F029FB01BD80B5AC
:1007D000DFF874190870FFF79DFF01BD80B5DFF8E1
:1007E0006C190870FFF796FF01BD80B5DFF8940A19
:1007F0000078002810D1DFF8900A007800280BD18B
:100800004FF48071DFF83C0906F009FB8021DFF826
:10081000340906F004FB40E0DFF8680A007801289C
:1008200010D1DFF8640A007800280BD14FF48071F2
:10083000DFF8100906F0F6FA8021DFF8080906F063
:10084000EEFA2AE0DFF83C0A0078002810D1DFF841
:10085000380A007801280BD14FF48071DFF8E408E2
:1008600006F0DDFA8021DFF8DC0806F0DBFA14E0A0
:10087000DFF8100A007801280FD1DFF80C0A0078A1
:1008800001280AD14FF48071DFF8B80806F0C7FAE2
:100890008021DFF8B00806F0C2FA01BD80B5DFF8AC
:1008A000E8190870FFF7A1FF01BD80B5DFF8D41982
:1008B0000870FFF79AFF01BD80B5002806D14FF4FC
:1008C0000071DFF8800806F0AAFA05E04FF4007125
:1008D000DFF8700806F0A6FA01BD80B5002806D141
:1008E0004FF48061DFF85C0806F099FA05E04FF4F8
:1008F0008061DFF8500806F095FA01BD80B5002848
:1009000006D14FF40051DFF83C0806F088FA05E004
:100910004FF40051DFF82C0806F084FA01BD80B5D1
:10092000002806D14FF48041DFF8180806F077FA66
:1009300005E04FF48041DFF80C0806F073FA01BDC2
:1009400080B5002806D14FF40041DFF8F80706F023
:1009500066FA05E04FF40041DFF8E80706F062FAB6
:1009600001BD80B5002805D11021DFF8200906F06F
:1009700056FA04E01021DFF8140906F053FA01BD1D
:1009800080B5002805D10421DFF8040906F047FAF4
:1009900004E00421DFF8F80806F044FA01BD80B550
:1009A000002806D14FF48051DFF8E80806F037FA46
:1009B00005E04FF48051DFF8DC0806F033FA01BDA2
:1009C00080B5002806D14FF40061DFF8C80806F0B2
:1009D00026FA05E04FF40061DFF8B80806F022FAC5
:1009E00001BD80B5002805D14021DFF8580706F089
:1009F00016FA04E04021DFF84C0706F013FA01BDB7
:100A000080B5002805D12021DFF8380706F007FA65
:100A100004E02021DFF82C0706F004FA01BD80B5C0
:100A2000002806D14FF40041DFF86C0806F0F7F912
:100A300005E04FF40041DFF8600806F0F3F901BD6E
:100A400080B5002806D14FF48061DFF8480806F031
:100A5000E6F905E04FF48061DFF8380806F0E2F9C6
:100A600001BD80B5002806D14FF40071DFF82408DD
:100A700006F0D5F905E04FF40071DFF8180806F02C
:100A8000D1F901BD80B5002805D10821DFF8FC07A8
:100A900006F0C5F904E00821DFF8F00706F0C2F916
:100AA00001BD80B5002805D10121DFF8E40706F07B
:100AB000B6F904E00121DFF8D80706F0B3F901BD6B
:100AC00080B5002805D10221DFF8C40706F0A7F998
:100AD00004E00221DFF8B80706F0A4F901BD80B5F3
:100AE00000280DD10821DFF8B00706F098F9DFF8EB
:100AF000AC0C007810F0FE00DFF8A01C08700CE0D1
:100B00000821DFF8940706F08DF9DFF8900C0078E3
:100B100050F00100DFF8841C087001BD80B500288A
:100B200005D10421DFF8700706F079F904E004210B
:100B3000DFF8640706F076F901BD80B500280ED114
:100B40004FF48051DFF8440706F069F9DFF84C0CE8
:100B5000007810F0FD00DFF8441C08700DE04FF441
:100B60008051DFF8280706F05DF9DFF8300C0078D7
:100B700050F00200DFF8241C087001BD80B5002889
:100B800006D14FF40051DFF8040706F048F905E0FC
:100B90004FF40051DFF8F40606F044F901BD80B5CA
:100BA00000280ED14FF48051DFF8E40606F037F943
:100BB000DFF8E80B007810F0FB00DFF8E01B0870AE
:100BC0000DE04FF48051DFF8C80606F02BF9DFF88E
:100BD000CC0B007850F00400DFF8C01B087001BD9A
:100BE00080B5002806D14FF40051DFF8A40606F0C6
:100BF00016F905E04FF40051DFF8940606F012F9FB
:100C000001BD80B5002806D14FF48041DFF8880689
:100C100006F005F905E04FF48041DFF87C0606F0A8
:100C200001F901BD80B5002806D14FF40051DFF86D
:100C3000680606F0F4F805E04FF40051DFF85806B6
:100C400006F0F0F801BD80B5002806D14FF48051C0
:100C5000DFF8440606F0E3F805E04FF48051DFF8D2
:100C6000380606F0DFF801BD00E400E014E000E023
:100C700018E000E09F060008AD060008BB0600086B
:100C800080B501F003F901F0CCFE01F023F8DFF8A4
:100C9000103B002247F60101062002F00DFC08215E
:100CA000DFF8FC0A06F09AF9DFF8F83A002247F676
:100CB0000101062002F000FC0821DFF8E80A06F036
:100CC000A4F93021DFF8E00A06F04CF9082004F01E
:100CD000E3F801F0EEFA01F0D3FF02F0E9FA01F0D7
:100CE0009FFE01F067FB01F03FFC01F011FD01F0F8
:100CF0000BFE02F0B3FC02F083FD03F0AFFE03F045
:100D0000B1FE03F0C1FE03F0A5FF03F0E5FF00F024
:100D1000C5FA00F01DFA00F0CFF900F0BDFD00F0BB
:100D200043FF00F043FD04F047FB00F08FF800F0B4
:100D300093FF04F01DF804F042FE04F071FE04F08D
:100D4000D3FE05F047F8DFF8000B007805F0AEF8A9
:100D500005F09FF905F0C0FA05F0E2FE00F014F886
:100D600005F0E6F905F0A8FE05F05CFFB1E700002C
:100D700020100020D9060008F7060008010A000824
:100D8000E30900089D080008DFF8C00A0078002881
:100D900008D10220DFF8B81A08700220DFF8B41A70
:100DA00008702DE0DFF8B00A0078C0F30010C0B280
:100DB000002821D0DFF8A40A0078012804D10120FE
:100DC000DFF88C1A08701BE0DFF8940A007801281D
:100DD00004D10120DFF8781A087011E0DFF8700AFA
:100DE000007800280CD10220DFF8681A0870022071
:100DF000DFF85C1A087003E00120DFF8581A087069
:100E00007047000018ED00E010E000E0E41300205F
:100E1000AB080008B9080008DB080008CF07000885
:100E2000DD070008FD0800081F0900084109000847
:100E30001F0A0008A30A0008C10A0008DF0A000808
:100E40001D0B00083B0B00087D0B000880B5DFF888
:100E5000140A0078002800F0B680DFF80C0A007849
:100E6000002833D1DFF8040A008800282BD1DFF8EE
:100E7000000A0088DFF8FC19098888420CD3DFF8E3
:100E8000F8090078012840F09E8000F0C6FC0020A0
:100E9000DFF8E419087096E0DFF8D8090088801EB2
:100EA000DFF8CC1909888842C0F28D80DFF8C809C4
:100EB0000078002840F0878000F0B8FC0120DFF8BF
:100EC000B81908707FE000F0A8FC7CE0DFF8980912
:100ED0000078012877D1DFF89409008800286ED1C6
:100EE000DFF898090078002805D0022830D04FD3C9
:100EF00003283FD067E0DFF888090068002813D195
:100F0000DFF86C090088462804DA0320DFF86C1942
:100F100008701CE0DFF87C0C0078002817D1022054
:100F2000DFF85819087012E0DFF844090088DFF88C
:100F30004419098888420AD3DFF83C09007801285F
:100F400005D100F06AFC0020DFF82C1908703AE0A7
:100F5000DFF830090078002801D000F079F800F0BF
:100F600065FC0120DFF8101908700020DFF80C196B
:100F7000087028E0DFF81C0C0078002801D000F091
:100F80004CFC00F073F80120DFF8F01808701AE04C
:100F9000DFF8DC080088462810DB00F059F800F084
:100FA00045FC0120DFF8D0180870DFF8DC08DFF816
:100FB000D01808600020DFF8C418087003E000F0C3
:100FC0002CFC00F045F801BD9F0B0008E10B000868
:100FD000030C0008DFF8901808700120DFF884186F
:100FE00008700020DFF8841808800020DFF88C18D3
:100FF00008700020DFF88818086070470020DFF8CC
:101000006418087070470000250C0008DFF87C1891
:1010100008700020DFF8781808700120DFF87418D5
:1010200008707047470C00086309000880B500206D
:10103000DFF8581808700020DFF8581808700020F2
:10104000DFF8641CC968884701BD000081090008F9
:101050000120DFF8441B08700020DFF8501C0870E6
:10106000704700009F090008C109000880B50120F1
:10107000DFF8101808700020DFF8201B0870DFF878
:10108000140B0078002801D000F0C7FB01BD000060
:10109000410A00080120DFF8C81708700020DFF8B7
:1010A000001B087070470000630A0008850A0008EA
:1010B000DE130020DF13002080B5DFF8A4070078DE
:1010C00000283ED0DFF8A4070088002832D1DFF8DE
:1010D000A0070088DFF89C170988884210D3DFF842
:1010E000C00A007801282CD1FFF7B2FF3021DFF8C9
:1010F000B40A05F037FF0020DFF8A41A087020E0DA
:10110000DFF870070088801EDFF8641709888842BE
:1011100017DBDFF88C0A0078002812D1FFF7A6FF52
:101120003021DFF8300B05F01DFF0120DFF8701AC9
:10113000087006E0FFF78CFF3021DFF8740B05F034
:1011400011FF01BD00180140E0130020E113002051
:1011500080B5DFF8440A0078002800F09180DFF8BD
:101160004C0B0078002802D0012872D088E00020C3
:10117000DFF810170870DFF83C0B0078C0F3C000F0
:10118000C0B200280CD0002005F086FD3021DFF829
:10119000280B05F0E7FE0020DFF8FC1908706FE06F
:1011A0000020DFF8041B096D88470020DFF8F81ADB
:1011B000C96C88470120DFF8F01A496E8847002083
:1011C000DFF8E41A896D88470020DFF8DC1A496DE2
:1011D00088470120DFF8D01A896E8847DFF8DC0ADB
:1011E000807802F0DBF8DFF8D40A407902F0ECF8FE
:1011F000DFF8C80A017A4FF47A704143DFF8C00A79
:101200000180DFF88806007800281DD0DFF884060A
:10121000007800280AD000F009FB0020DFF87016E3
:1012200008700020DFF86C1608700DE0DFF85C062F
:101230000078DFF85C160978884205D300F0F6FAEA
:101240000020DFF84C1608700120DFF8601A0870E3
:1012500016E0DFF86C0A0088002811D10020DFF8C2
:10126000481A496E88470020DFF83C1A896E884783
:101270000020DFF8381A08700020DFF81C19087009
:1012800001BD0000E2130020E31300200010014024
:10129000000C0140001C01400014014080B5DFF843
:1012A000E4050078002800F07882DFF8F008007884
:1012B00000281BD0022849D03AD3042800F0FD8032
:1012C0007CD3062800F05181C0F01581082800F079
:1012D0007B81C0F0C5810A2800F03C82C0F02682E4
:1012E0000C2800F05782C0F0548256E2DFF8C4099F
:1012F0000078C0F3C000C0B200280CD0012005F077
:10130000CBFC3021DFF8BC0905F02CFE0A20DFF809
:101310008C1808700BE0DFF88404007810F0F700F8
:10132000DFF8781408700120DFF87018087034E2D4
:101330004FF4FA70DFF8901908800220DFF85C188B
:1013400008700220DFF88419087026E2DFF87809B7
:101350000088002840F021820020DFF84C19096D38
:1013600088470020DFF84019C96C88470020DFF863
:101370003819896D88470020DFF82C19496D884796
:101380000120DFF82419496E88470120DFF8181979
:10139000896E8847DFF82409007801F0FFFFDFF845
:1013A0001C09C07802F010F840F6B830DFF81819C0
:1013B00008800320DFF8E4170870EEE1DFF8080981
:1013C0000088002840F0E981DFF8E808007810F094
:1013D0000300012827D1DFF880044078C0F34000E3
:1013E000C0B200280CD0DFF88404007850F0400030
:1013F000DFF8781408700C20DFF8A01708705BE0A5
:101400000120DFF8A418096D8847DFF8B00881795A
:101410004FF47A704143DFF8B00801800420DFF810
:101420007C17087048E0DFF88C08007810F00300A3
:10143000032841D1DFF82004407810F0060F24D0B3
:10144000DFF814044078C0F34000C0B2002807D091
:10145000DFF81804007850F04000DFF8101408702E
:10146000DFF8F4034078C0F38000C0B2002807D052
:10147000DFF8F803007850F08000DFF8F013087010
:101480000C20DFF81817087016E00120DFF8181894
:10149000096D88470120DFF81018896D8847DFF84B
:1014A0001C0881794FF47A704143DFF81C080180F1
:1014B0000420DFF8E81608706FE1DFF80C080088F8
:1014C000002840F06A810120DFF8DC17C96C8847EA
:1014D0000120DFF8D417496D8847DFF8E007C179AC
:1014E0004FF47A704143DFF8E00701800520DFF810
:1014F000AC16087051E1DFF8D007008800282FD023
:10150000DFF8B007007810F00300012811D1DFF8F0
:1015100048034078C0F34000C0B2002824D0062021
:10152000DFF8781608704FF47A70DFF89C1708809F
:101530001AE0DFF88007007810F00300032813D1C9
:10154000C548407810F0060006280DD10620DFF8C7
:101550004C1608704FF47A70DFF86C17088003E0BF
:101560000820DFF83816087017E1DFF85C070088FC
:10157000002824D0DFF83C07007810F00300012891
:101580000BD1B5484078C0F34000C0B200281AD152
:101590000820DFF80816087015E0DFF81807007853
:1015A00010F0030003280ED1AB48407810F006007D
:1015B000062808D00820DFF8E415087003E00920A9
:1015C000DFF8D8150870E8E0DFF800070078002899
:1015D0000BD0DFF8F8060078401EDFF8F016087030
:1015E0000220DFF8B815087039E0DFF8C806007887
:1015F00010F0030001280DD197484078C0F3400057
:10160000C0B2002827D19948407850F0020097498D
:10161000487020E0DFF89C06007810F003000328F3
:1016200019D18D484078C0F34000C0B2002805D1E0
:101630008E48407850F002008C49487086484078C7
:10164000C0F38000C0B2002805D18848407850F02F
:101650000400864948700720DFF8401508709CE0B8
:101660000020DFF84416096D88470020DFF838169F
:10167000C96C88470020DFF83016896D8847002044
:10168000DFF82416496D8847FFF7E2FCDFF82406EF
:10169000007810F00300012814D140480078C0F30E
:1016A000C000C0B2002806D07048007850F0080092
:1016B0006E49087035E06D48007850F001006B49C4
:1016C00008702EE0DFF8EC05007810F00300032826
:1016D00027D132480078C0F3C000C0B2002806D03D
:1016E0006248007850F008006049087005E05F48E3
:1016F000007850F001005D49087028480078C0F378
:101700000010C0B2002806D05848007850F01000F1
:101710005649087005E05548007850F002005349DA
:1017200008700C20DFF87414087036E0DFF88C05C0
:10173000407801F033FEDFF88405007901F044FEC3
:101740004FF4FA60DFF8801508800A20DFF84C14A7
:10175000087022E0DFF87005008800281DD1002005
:10176000DFF84415096D88470020DFF83C15896DC6
:1017700088470A48007850F00800084908700B2094
:10178000DFF81814087042480078401C404908707F
:1017900003E002E000203B49087001BD86130020F1
:1017A00090110020F8110020E096000880B5DFF8C5
:1017B0004C0B007800282FD02C48008800282BD113
:1017C000DFF8640BB0F90000DFF8601BB1F900101E
:1017D00088420BDBDFF8380D007801281CD100F0BF
:1017E0001CF80020DFF8281D087015E0DFF83C0B1E
:1017F000B0F90000801EDFF8301BB1F900108842FC
:101800000ADBDFF80C0D0078002805D100F00EF897
:101810000120DFF8FC1C087001BD0120DFF8301B3F
:1018200008700020DFF83C1D087070470120DFF8C9
:10183000641308700120DFF8681B08700020DFF8CF
:10184000641B087070470000481400203A14002000
:101850005214002053140020821300204E14002044
:10186000361400204114002042140020841300206C
:1018700092130020AE1300204314002044140020D3
:101880006C1300202C140020E09304003F1400206F
:10189000401400204614002080B5DFF80C0B0078BF
:1018A000002800F07581DFF8FC0A007800281BD0C2
:1018B000022859D04AD3042800F0A48075D3062802
:1018C00000F0D480C0F0B680082800F0E680C0F0B8
:1018D000FA800A2800F03281C0F021810C2800F043
:1018E0005381C0F0448153E1DFF8C8030078C0F3AE
:1018F0008000C0B200280CD0DFF8D403007810F0CC
:10190000DF00DFF8CC1308700120DFF8981A0870A8
:101910001BE0DFF8A0030078C0F30010C0B200287D
:1019200013D0012005F0CFF9DFF8A403007850F0C0
:101930002000DFF89C1308704EF66020DFF89C1B37
:1019400008800B20DFF85C1A087021E14FF4FA7070
:10195000DFF8581A08800220DFF8481A08700220C1
:10196000DFF84C1A087013E1DFF8400A00880028FD
:1019700040F00E810020CC49096E88470020CA49FA
:10198000C96D88470120C849C96E8847DFF8600BD8
:10199000007801F031FD40F6B830DFF8101A088009
:1019A0000320DFF8001A0870F2E0DFF8000A008870
:1019B000002840F0ED800120BB49096E8847DFF820
:1019C000300BC1784FF47A704143DFF8E0090180B1
:1019D000DFF8400B4078C0F3C000C0B200280CD044
:1019E000DFF8340B407850F00100DFF82C1B487012
:1019F0000C20DFF8B019087003E00420DFF8A41908
:101A00000870C5E0DFF8A4090088002840F0C08015
:101A10000120A549C96D8847DFF8D40A01794FF440
:101A20007A704143DFF8840901800520DFF87419DA
:101A30000870ADE0DFF874090088002811D0DFF8E5
:101A4000D40A4078C0F3C000C0B200280DD00620F0
:101A5000DFF8501908704FF47A70DFF850190880D9
:101A600003E00820DFF83C19087091E0DFF83C093A
:101A7000008800280CD0DFF89C0A4078C0F3C00032
:101A8000C0B2002808D10820DFF81819087003E058
:101A90000920DFF8101908707AE0DFF814090078DF
:101AA00000280BD0DFF808090078401EDFF8001985
:101AB00008700220DFF8EC18087003E00720DFF858
:101AC000E418087064E000207749096E8847002018
:101AD0007549C96D8847DFF878080078002801D17A
:101AE000FFF79BFE7A480078C0F34010C0B2002890
:101AF00008D0DFF8240A007850F02000DFF8181A28
:101B0000087007E0DFF8100A007850F00400DFF8F2
:101B1000081A08700C20DFF88C18087038E0DFF81D
:101B2000D009407801F068FC4FF4FA60DFF87C18C7
:101B300008800A20DFF86C18087029E0DFF86C08CC
:101B40000088002824D100205749096E8847604842
:101B5000007850F020005E4908700B20DFF8441830
:101B600008704EF66020DFF87419088010E0DFF886
:101B70002C0B0078002806D0DFF8600900880028C8
:101B800001D1FFF74AFE03E00020DFF81C180870BF
:101B900001BD0000311400202F1400202D1400205E
:101BA000371400209496000880B5DFF8A407007869
:101BB00000284DD0DFF8AC090078002802D00128B9
:101BC00035D045E00020DFF8E0170870394800788C
:101BD000C0F38000C0B200281AD000203249096E3C
:101BE000884700203049C96D884701202E49C96EB9
:101BF0008847DFF8FC08807801F0FEFBDFF8F0088A
:101C000041794FF47A704143DFF8F80A018009E026
:101C100028480078C0F30010C0B2002802D000208D
:101C200005F051F80120DFF83C19087010E0DFF8EA
:101C3000D40A008800280BD100201B49C96E8847B0
:101C40000020DFF8201908700020DFF80417087062
:101C500001BD0000A496000880B5DFF8AC0A00784A
:101C6000002820D0DFF83807007800281BD0DFF8E4
:101C7000A408007810F0010000280AD10120DFF844
:101C8000A01B096988474FF4FA60DFF8801A0880C2
:101C900009E0DFF8780A0088002804D10020DFF886
:101CA000801B0969884701BD2010002030140020E6
:101CB0006C960008BE1300208096000818130020C0
:101CC000B0130020B4960008AC1300202E1400209E
:101CD0008613002010B5FEF758FA002406E0002015
:101CE000DFF83C1B51F824108847641CDFF84C0BCC
:101CF00000788442F3DB4FF40051DFF8540B05F019
:101D000091F84FF40041DFF8480B05F088F84FF4E4
:101D10008061DFF83C0B05F085F84FF48051DFF867
:101D2000300B05F07CF88021DFF8240B05F07AF801
:101D30004FF40071DFF8180B05F071F81021DFF88F
:101D4000100B05F06FF84021DFF8040B05F067F881
:101D500041F2883000F000FF0A2001F01FFB142040
:101D600001F032FB1E2001F047FB0120DFF8001BD1
:101D700008700120DFF8441B08700120DFF8401BC9
:101D800008700120DFF83C1B08706420DFF8381B66
:101D900008706420DFF8341B08706420DFF8301B03
:101DA00008706420DFF82C1B08701B20DFF8281B4C
:101DB00008703420DFF8201B48703420DFF8181B2F
:101DC00088702620DFF8101BC8704A20DFF8081B37
:101DD00008714A20DFF8001B48710320DFF8F81A69
:101DE00088710320DFF8F01AC8710520DFF8E81ABF
:101DF00008722720DFF8F81608704820DFF8F01680
:101E000048704820DFF8E81688700320DFF8E016F5
:101E1000C8700320DFF8D81608710520DFF8D01647
:101E200048710120DFF8B41A08700120DFF8B01AF9
:101E300008700120DFF8AC1A08700120DFF8A81A3A
:101E400008700120DFF8A41A08700120DFF8A01A3A
:101E500008700120DFF89C1A08700120DFF8981A3A
:101E600008700120DFF8941A08700120DFF8901A3A
:101E700008700120DFF88C1A08700120DFF8981B29
:101E800008700120DFF8C41C087010BD80B505F093
:101E9000EDF85FF4803005F019F905F041F9DFF84D
:101EA000B01C0870DFF8A80C0078012824D10020AD
:101EB00005F071F9002005F082F94FF4806005F01B
:101EC00074F9102005F066FA022005F057FA5FF465
:101ED000E0115FF4803005F03FF9012005F048F98A
:101EE000392005F00DFA0028FAD0022005F044F957
:101EF00005F04CF90828FBD10121042005F0E0F998
:101F00000121082005F0DCF90121102005F0D8F9A5
:101F10000121202005F0D4F90121402005F0D0F95D
:101F20000121802005F0CCF901214FF4807005F0EB
:101F3000C7F901214FF4804005F0C2F901215FF497
:101F4000003005F0CDF901215FF4802005F0C8F9DB
:101F500001215FF4002005F0C3F90121012005F003
:101F60009FF901214FF4005005F0AAF900F007F89D
:101F700004F05CFF00F04CF900F03CF901BD80B5C5
:101F80004FF4E070ADF8000018208DF80300032036
:101F90008DF802006946DFF8840A04F0D3FE4BF2A4
:101FA000D060ADF8000010208DF8030003208DF8FC
:101FB00002006946DFF8980804F0C4FE44F62010D9
:101FC000ADF8000048208DF8030003208DF80200D2
:101FD0006946DFF87C0804F0B5FE4FF40070ADF8F8
:101FE000000018208DF8030003208DF802006946D8
:101FF000DFF8600B04F0A6FE4FF48060ADF800003F
:1020000004208DF803006946DFF8480B04F09AFEBF
:102010000420ADF8000018208DF8030003208DF88F
:1020200002006946DFF82C0B04F08CFE0820ADF8A6
:10203000000004208DF803006946DFF8180B04F057
:1020400081FE4FF48060ADF8000018208DF8030089
:1020500003208DF802006946DFF8CC0B04F072FE15
:102060004FF40060ADF8000004208DF803006946CD
:10207000DFF8B40B04F066FE4FF48060ADF80000AA
:1020800018208DF8030003208DF802006946DFF860
:102090008C0904F057FE4FF40060ADF800000420F6
:1020A0008DF803006946DFF8740904F04BFE4FF623
:1020B000FF70ADF8000010208DF8030003208DF8AC
:1020C00002006946DFF8640B04F03CFE4FF20C009E
:1020D000ADF8000010208DF8030003208DF80200F9
:1020E0006946DFF84C0B04F02DFE4FF47F60ADF82D
:1020F000000048208DF8030003208DF80200694697
:10210000DFF82C0B04F01EFE43F20300ADF80000D4
:1021100010208DF8030003208DF802006946DFF8D7
:10212000080B04F00FFE4FF44340ADF800004820C8
:102130008DF8030003208DF802006946DFF8E80AF5
:1021400004F000FE4FF44050ADF8000010208DF870
:10215000030003208DF802006946DFF8C00804F090
:10216000F1FD4FF46040ADF8000010208DF8030041
:1021700003208DF802006946DFF8B80A04F0E2FD9A
:102180000320ADF8000048208DF8030003208DF8EF
:1021900002006946DFF8B80604F0D4FD1820ADF857
:1021A000000010208DF8030003208DF8020069461E
:1021B000DFF8680804F0C6FD4FF4F050ADF80000F9
:1021C00010208DF8030003208DF802006946DFF827
:1021D000640A04F0B7FD0420ADF8000010208DF86B
:1021E000030003208DF802006946DFF83C0A04F082
:1021F000A9FD01BD80B548F6A040FDF7ACFF002861
:1022000000D0FEE700215FF0FF30FDF791FF01BD38
:1022100080B54FF4E06005F0CFF80B208DF800009A
:1022200000208DF8010000208DF8020001208DF8BB
:102230000300684605F0C5F825208DF80000002051
:102240008DF8010001208DF8020001208DF80300B7
:10225000684605F0B6F826208DF8000000208DF8BD
:10226000010002208DF8020001208DF8030068466D
:1022700005F0A7F827208DF8000000208DF8010058
:1022800003208DF8020001208DF80300684605F058
:1022900098F834208DF8000000208DF8010004200B
:1022A0008DF8020001208DF80300684605F089F8DA
:1022B00001BDDFF88409008800281CD1DFF87C0903
:1022C000006890F40040DFF874190860DFF86C09CA
:1022D000006890F48040DFF864190860DFF85C095A
:1022E000006890F40050DFF8541908604CF2503048
:1022F000DFF8441908807047000000004C140020EB
:1023000080B51F20DFF8381908704FF40041DFF85E
:10231000400504F087FD01BD80B54FF40041DFF8B2
:10232000300504F07CFD01BD9E130020CA1300207F
:1023300080B54FF40051DFF8180504F073FD01BDBE
:1023400080B54FF40051DFF8080504F068FD01BDC9
:102350003414002080B54FF48041DFF8F40404F019
:1023600053FD00280DD0DFF8DC0801680122DFF8FA
:10237000D00890F9000082401143DFF8C8080160DE
:102380000CE0DFF8C00801680122DFF8B40890F91A
:10239000000082409143DFF8AC08016001BD0000FD
:1023A000471400203214002031140020B213002002
:1023B0003314002080B5DFF810050078002840F0C5
:1023C0008080DFF884080078002802D1FFF798FFAA
:1023D0001CE0DFF874080178032291FBF2F002FBA5
:1023E0001010C0B2002808D0022803D00ED2FFF788
:1023F000A7FF0BE0FFF7AEFF08E0FFF799FFDFF85C
:1024000040080078401EDFF838180870DFF8300800
:1024100090F9000000284DD5FFF77EFF0020DFF87F
:1024200028180870DFF81C080068DFF8201808601A
:10243000DFF818080068800CDFF814180880DFF84F
:102440001008B0F90000042190FBF1F0DFF800184B
:102450000880DFF8FC070088DFF8F817DFF8F827B6
:10246000127821F81200DFF8F0070078401CDFF83E
:10247000E8170870DFF8E00700780A2803DB00207F
:10248000DFF8D41708700021002205E0DFF8C40748
:1024900030F812004118521C0A2AF7DB89B20A20D0
:1024A00091FBF0F0DFF8B41708806420DFF818140F
:1024B000087006E0DFF890070078401CDFF8881706
:1024C000087001BD80B51F20DFF8941708704FF425
:1024D0008051DFF87C0304F0A5FC01BDBC13002093
:1024E00080B54FF48051DA4804F099FC01BD00003A
:1024F0002C13002080B54FF48061D54804F092FC85
:1025000001BD80B54FF48061D14804F088FC01BD65
:102510004D140020821300208413002080B54FF456
:102520000061CB4804F070FC00280DD0DFF83407C0
:1025300001680122DFF8280790F90000824011436A
:10254000DFF8200701600CE0DFF8180701680122BE
:10255000DFF80C0790F9000082409143DFF8040790
:10256000016001BD3514002080B5D84800780028EE
:1025700040F07F80DFF8140D0078002802D1FFF7CB
:10258000A1FF1CE0DFF8040D0178032291FBF2F0BB
:1025900002FB1010C0B2002808D0022803D00ED2CF
:1025A000FFF7AFFF0BE0FFF7B9FF08E0FFF7A2FF6F
:1025B000DFF8AC060078401EDFF8A4160870DFF8DC
:1025C000A00690F9000000284CD5FFF789FF0020F5
:1025D000DFF8B81C0870DFF88C060068DFF8881692
:1025E0000860DFF884060068800CDFF88016088039
:1025F000DFF87806B0F90000042190FBF1F0DFF875
:102600006C160880DFF864060088DFF86416DFF8CF
:102610006426127821F81200DFF858060078401C72
:10262000DFF850160870DFF84C0600780A2803DB44
:102630000020DFF8401608700021002205E0DFF8D6
:10264000300630F812004118521C0A2AF7DB89B212
:102650000A2091FBF0F0DFF82016088064209B49E7
:10266000087006E0DFF8240C0078401CDFF81C1C22
:10267000087001BD80B51F20DFF8001608704FF408
:102680000071DFF80C0C04F0CDFB01BD80B54FF4F8
:102690000071DFF8FC0B04F0C2FB01BD3F14002009
:1026A00080B58021DFF8E80B04F0BCFB01BD80B5EC
:1026B0008021DFF8DC0B04F0B2FB01BD80B54FF4E4
:1026C0008071634804F0A0FB00280DD0DFF8C40B34
:1026D00001680122DFF8A40590F90000824011434F
:1026E000DFF8B00B01600CE0DFF8A80B01680122F5
:1026F000DFF8880590F9000082409143DFF8940BE1
:10270000016001BDB41300203A140020C81300205A
:1027100080B56F480078002840F08180DFF8040D14
:102720000078002802D1FFF7A5FF1CE0DFF8F40CC9
:102730000178032291FBF2F002FB1010C0B20028D6
:1027400008D0022803D00ED2FFF7B1FF0BE0FFF74D
:10275000B5FF08E0FFF7A4FFDFF820050078401E72
:10276000DFF818150870DFF8140590F9000000284C
:102770004ED5FFF78BFF0020DFF8A81C0870DFF8AC
:10278000140B0068DFF8101B0860DFF80C0B006802
:10279000800CDFF8081B0880DFF8000BB0F90000A0
:1027A000042190FBF1F0DFF8F41A0880DFF8EC0A5E
:1027B000B0F90000401DDFF8E81ADFF8E82A1278C7
:1027C00021F81200DFF8DC0A0078401CDFF8D41A88
:1027D0000870DFF8D00A00780A2803DB0020DFF851
:1027E000C41A08700021002205E0DFF8B40A30F8AE
:1027F00012004118521C0A2AF7DB89B20A2091FB09
:10280000F0F0DFF8A41A088064203149087006E06F
:10281000DFF8100C0078401CDFF8081C087001BDC0
:102820002010002080B51F20DFF8801A087040219A
:10283000DFF85C0A04F0F6FA01BD0000E4130020A2
:1028400080B54021DFF8480A04F0E9FA01BD000034
:102850000020014080B51021DFF8340A04F0E2FACC
:1028600001BD80B51021DFF8280A04F0D8FA01BDB7
:102870006214002080B52021DFF8140A04F0C4FAA5
:1028800000280DD0DFF8A00B01680122DFF81C0A38
:1028900090F9000082401143DFF88C0B01600CE0DE
:1028A000DFF8840B01680122DFF8000A90F90000CC
:1028B00082409143DFF8700B016001BD6914002074
:1028C00070140020771400200F140020131400202F
:1028D000171400201B14002018130020E7130020F9
:1028E000EA130020ED130020F3130020F013002062
:1028F000F6130020F9130020FC130020FF13002022
:10290000021400200514002080B5DFF8E80A0078E2
:10291000002840F08080DFF8540C0078002802D1B5
:10292000FFF780FF1CE0DFF8440C0178032291FBE5
:10293000F2F002FB1010C0B2002808D0022803D029
:102940000ED2FFF78EFF0BE0FFF794FF08E0FFF7D2
:1029500081FFDFF858090078401EDFF85019087031
:10296000DFF8480990F9000000284DD5FFF768FF0F
:102970000020DFF8F81B0870DFF8AC0A0068DFF809
:10298000AC1A0860DFF8A40A0068800CDFF8A01A0F
:102990000880DFF89C0AB0F90000042190FBF1F0F8
:1029A000DFF88C1A0880DFF8880A0088DFF8841ABC
:1029B000DFF8842A127821F81200DFF87C0A007808
:1029C000401CDFF8741A0870DFF86C0A00780A28D7
:1029D00003DB0020DFF8601A08700021002205E008
:1029E000DFF8500A30F812004118521C0A2AF7DBAF
:1029F00089B20A2091FBF0F0DFF8741A0880642095
:102A0000DFF8F019087006E0DFF8600B0078401C72
:102A1000DFF8581B087001BD0814002000100140A9
:102A2000704700B591B00720ADF8000003208DF885
:102A3000020000208DF803006946DFF86C0A04F0FC
:102A400081F90121012004F02BFC4FF4004004F037
:102A5000C0FB01214FF4007004F032FCDFF84C0A97
:102A600004F0ECFCDFF8480A0690DFF8480A07900B
:102A7000002008900320099000200A9080200B90ED
:102A80004FF400700C904FF400600D9020200E90D9
:102A90004FF400500F900020109006A9DFF80C0AA8
:102AA00004F050FD0121DFF8040A04F069FD002064
:102AB000019001208DF8080001208DF809005FF4D5
:102AC000602003900020049003208DF8140001A9D9
:102AD000DFF86C0B04F09CFD052301220A21DFF8CE
:102AE000600B04F0FFFD052302220B21DFF8500BE1
:102AF00004F0F8FD052303220C21DFF8440B04F059
:102B0000F1FD0121DFF8380B04F0B4FD0121DFF8FD
:102B1000300B04F0A2FDDFF8280B04F0B8FDDFF85D
:102B2000200B04F0B9FD0028F9D1DFF8140B04F0F4
:102B3000BDFDDFF80C0B04F0BEFD0028F9D101212A
:102B4000DFF8FC0A04F0C1FD11B000BD0B14002039
:102B50001A0000200008014000B587B0DFF8101A05
:102B6000B1FBF0F0DFF80C1A08600020ADF8160099
:102B70000020ADF81200DFF8FC090068401EADF837
:102B800014000020ADF8100000208DF8180004A9F2
:102B9000DFF8680B04F010FE6020ADF800000020A4
:102BA000ADF80C000020ADF808000020ADF80E00D4
:102BB0000020ADF80A000120ADF802000020ADF8B9
:102BC00004000020ADF806006946DFF8300B04F081
:102BD0000EFE6946DFF8240B04F042FE6946DFF87A
:102BE0001C0B04F07DFE0021DFF8100B04F0E9FE61
:102BF0000021DFF8080B04F0EDFE0021DFF8FC0AED
:102C000004F0F1FE0021DFF8F40A04F0CCFE01210B
:102C1000DFF8E80A04F0A8FE0121DFF8E00A04F07A
:102C2000B1FE07B000BD0000000C014000180140DB
:102C300000140140001C0140801300200C1C0140C6
:102C40000D140020401300200E1400203C1300201F
:102C500088130020BC120020101400208A130020CA
:102C60001114002048130020441300208C1300206E
:102C7000D0120020141400208E1300201514002000
:102C800080B5DFF87C0A0078002840F0FE82102131
:102C9000DFF8700A04F0B8F8002822D1DFF8A409A0
:102CA000007800282DD0DFF8A0090078152810DB67
:102CB0000120DFF898190870DFF84C0A007850F00E
:102CC0000100DFF8441A08700020DFF87819087056
:102CD00017E0DFF874090078401CDFF86C19087001
:102CE0000FE0DFF8240A007810F0FE00DFF8181A71
:102CF00008700020DFF8501908700120DFF844192F
:102D000008702021DFF8FC0904F07EF8002822D1A9
:102D1000DFF83C09007800282DD0DFF8380900786A
:102D2000152810DB0120DFF830190870DFF8D8090A
:102D3000007850F00200DFF8D01908700020DFF8AA
:102D40001019087017E0DFF80C090078401CDFF854
:102D5000041908700FE0DFF8B009007810F0FD00EA
:102D6000DFF8A41908700020DFF8E81808700120C7
:102D7000DFF8DC1808704021DFF8880904F044F817
:102D8000002822D1DFF88409007800282DD0DFF850
:102D900080090078152810DB0120DFF87819087009
:102DA000DFF86409007850F00400DFF85C1908705F
:102DB0000020DFF85819087017E0DFF85409007890
:102DC000401CDFF84C1908700FE0DFF83C09007870
:102DD00010F0FB00DFF8301908700020DFF8301920
:102DE00008700120DFF8241908708021DFF8140929
:102DF00004F00AF8002822D1DFF81C090078002826
:102E00002DD0DFF818090078152810DB0120DFF835
:102E100010190870DFF8F008007850F00800DFF8AB
:102E2000E81808700020DFF8F018087017E0DFF8E5
:102E3000EC080078401CDFF8E41808700FE0DFF8B9
:102E4000C808007810F0F700DFF8BC180870002000
:102E5000DFF8C81808700120DFF8BC1808704FF4BC
:102E60008071DFF8A00803F0CFFF002822D1DFF83F
:102E7000B408007800282DD0DFF8AC0800781528B9
:102E800010DB0120DFF8A4180870DFF87C08007858
:102E900050F01000DFF8701808700020DFF8841878
:102EA000087017E0DFF880080078401CDFF8781819
:102EB00008700FE0DFF85008007810F0EF00DFF83E
:102EC000481808700020DFF8601808700120DFF84B
:102ED000541808704FF40071DFF8280803F094FFCD
:102EE000002822D1DFF84808007800282DD0DFF82C
:102EF00044080078152810DB0120DFF83C18087022
:102F0000DFF80408007850F02000DFF8FC170870A4
:102F10000020DFF81C18087017E0DFF818080078A8
:102F2000401CDFF8101808700FE0DFF8DC070078AD
:102F300010F0DF00DFF8D01708700020DFF8F4177A
:102F400008700120DFF8E81708704FF48061DFF89F
:102F5000B40703F059FF002822D1DFF8E00700781A
:102F600000282DD0DFF8D8070078152810DB0120C5
:102F7000DFF8D0170870DFF89007007850F04000B5
:102F8000DFF8841708700020DFF8B017087017E02A
:102F9000DFF8AC070078401CDFF8A41708700FE0DA
:102FA000DFF86407007810F0BF00DFF85C170870E6
:102FB0000020DFF88C1708700120DFF880170870F8
:102FC0004FF40071DFF8800703F01EFF002822D1C4
:102FD000DFF87807007800282DD0DFF87407007834
:102FE000152810DB0120DFF86C170870DFF81807D0
:102FF000007850F08000DFF8101708700020DFF82C
:103000004C17087017E0DFF848070078401CDFF81D
:10301000401708700FE0DFF8F006007810F07F002E
:10302000DFF8E41608700020DFF82417087001208C
:10303000DFF8181708704FF48071DFF80C0703F001
:10304000E3FE002822D1DFF81007007800282DD0F9
:10305000DFF808070078152810DB0120DFF80017DB
:103060000870DFF8A406407850F00100DFF89816E9
:1030700048700020DFF8E016087017E0DFF8DC0683
:103080000078401CDFF8D41608700FE0DFF87806EF
:10309000407810F0FE00DFF8701648700020DFF86E
:1030A000BC1608700120DFF8B01608700221DFF8A6
:1030B000540603F0A9FE002822D1DFF8A806007804
:1030C00000282DD0DFF8A0060078152810DB01209D
:1030D000DFF898160870DFF83006407850F00200EC
:1030E000DFF8241648700020DFF87816087017E023
:1030F000DFF874060078401CDFF86C1608700FE0EB
:10310000DFF80406407810F0FD00DFF8FC15487089
:103110000020DFF8541608700120DFF84816087008
:103120004FF48041DFF8800303F06EFE002822D1C7
:10313000DFF83C06007800282DD0DFF8380600784C
:10314000152810DB0120DFF830160870DFF8B8050D
:10315000407850F00400DFF8B01548700020DFF828
:103160001016087017E0DFF80C060078401CDFF836
:10317000041608700FE0DFF89005407810F0FB00AF
:10318000DFF8841548700020DFF8E815087001208A
:10319000DFF8DC1508704FF48041DFF8AC0503F070
:1031A00033FE002822D1DFF8D405007800282DD086
:1031B000DFF8CC050078152810DB0120DFF8C415F6
:1031C0000870DFF84405407850F00800DFF8381543
:1031D00048700020DFF8A415087017E0DFF8A0059C
:1031E0000078401CDFF8981508700FE0DFF818052C
:1031F000407810F0F700DFF8101548700020DFF875
:10320000801508700120DFF8741508704FF4006114
:10321000DFF8F00403F0F8FD002822D1DFF868059C
:10322000007800282DD0DFF864050078152810DB21
:103230000120DFF85C150870DFF8CC04407850F00E
:103240008000DFF8C41448700020DFF83C150870D7
:1032500017E0DFF838050078401CDFF830150870FB
:103260000FE0DFF8A404407810F07F00DFF8981436
:1032700048700020DFF8141508700120DFF80815E9
:1032800008700120DFF87814087001BD12140020C6
:1032900000200140501300204C1300209013002008
:1032A000E4120020181400209213002019140020AA
:1032B000DFF898030078002803D00020DFF88C1393
:1032C0000870DFF894030078002803D00020DFF8AE
:1032D00088130870DFF83C040078002803D0002031
:1032E000DFF830140870DFF838040078002803D0C5
:1032F0000020DFF82C140870DFF830040078002874
:1033000003D00020DFF824140870DFF82C040078C4
:10331000002803D00020DFF820140870DFF8240410
:103320000078002803D00020DFF818140870DFF8B8
:1033300024040078002803D00020DFF81814087057
:10334000DFF81C040078002803D00020DFF81014F8
:103350000870DFF818040078002803D00020DFF898
:103360000C140870DFF810040078002803D0002047
:10337000DFF804140870DFF80C040078002803D08C
:103380000020DFF800140870DFF80404007800283B
:1033900003D00020DFF8F8130870704780B5C0B282
:1033A000642800DB6420D0F1640072490968C0B26F
:1033B00000FB01F06421B0FBF1F0411E89B2DFF89F
:1033C0003C0304F019FB01BD80B5C0B2642800DBEA
:1033D0006420D0F1640067490968C0B200FB01F0C5
:1033E0006421B0FBF1F0411E89B2DFF8100304F054
:1033F00005FB01BD1B14002080B5C0B2642800DBB2
:103400006420D0F164005B490968C0B200FB01F0A0
:103410006421B0FBF1F0411E89B2B84804F0F0FA23
:1034200001BD000016140020581300205413002082
:1034300094130020F81200201C14002080B5DFF83F
:1034400054030078002812D0DFF848030178DFF831
:10345000480303F0ACFD0020DFF8381308700020AB
:10346000DFF8381308700120DFF83413087001BD4D
:103470009613002080B5DFF82C030078002812D0C6
:10348000DFF820030178DFF8200303F090FD00202F
:10349000DFF8101308700020DFF810130870012007
:1034A000DFF80C13087001BD001001400800024055
:1034B0004C2401409412002030B4FF24BD4D2C70E8
:1034C000BC4C6070C0B2002809D0022814D00CD3C4
:1034D000042820D019D3062828D01DD32EE0B548C3
:1034E00041800020B349888028E00020B14948800D
:1034F0000020B049888021E00020AE4948800020AB
:10350000AC490871AB48427118E00020A9494880D5
:10351000A848828012E011E00120A6498870782036
:10352000A449C8700020A349888007E00120A14970
:10353000887078209F49C8709E4882809D48018885
:103540009C48408841189B48808841184FF6FF707E
:1035500041439848C180002003E09649095C195412
:10356000401C0828F9DB30BC704700001A1400200A
:1035700000A24A0434130020F8B580B204F046FAE1
:1035800000228D4B04F050FA00228C4B04F01EFBFD
:1035900004000D008A48006804F03CFC0022864BC1
:1035A00004F042FA22002B0004F010FB04000D008E
:1035B0008348006804F02EFC02000B002000290064
:1035C00004F04CFC00227F4B04F000FB04F074FE7E
:1035D00004000D007C4AD2E9000122002B0004F017
:1035E00023FA7A4ED6E9002304F068FE06000F00A5
:1035F00022002B002000290004F016FA22002B00E4
:1036000004F012FA724CD4E9002304F00DFA3200EF
:103610003B0004F053FE02000B0000206D4904F053
:10362000D5FA02000B005FF066306B4904F046FEED
:1036300000226A4B04F042FE04F0FCFEF4BD0000E0
:1036400000240140E7130020E6130020E8130020C7
:10365000EA130020E9130020EB13002080B5604836
:103660000068604908605E4840685E4948605C48A0
:1036700080685C4988605B48006880B2FFF77CFF27
:1036800004F004FF584908805648406880B2FFF7AC
:1036900073FF04F0FBFE554908805248806880B2F1
:1036A000FFF76AFF04F0F2FE514908804E48B0F976
:1036B00000001E30B52803D200204E49087002E0F9
:1036C00001204C4908704948B0F900001E30B52867
:1036D00003D200204849087002E0012046490870E2
:1036E0004348B0F900001E30B52803D200204349FA
:1036F000087002E001204149087001BD003401401A
:10370000E51300200014014082130020ED13002077
:10371000EC130020EE130020F0130020EF13002024
:10372000F1130020F3130020F2130020F413002003
:10373000F6130020F5130020F7130020F9130020E2
:10374000F8130020FA130020000C0140FC130020A5
:10375000FB130020FD130020FF130020FE130020A8
:103760000014002002140020011400200314002083
:103770000514002004140020061400200814002062
:1037800007140020091400200B1400200A14002044
:103790000C1400206A1400205C1100206714002023
:1037A0006914002071140020C41100206E14002040
:1037B00070140020241300200000044000FEAF40DD
:1037C0000000002000408F40F0960008F8960008A6
:1037D000E89600080000F03F661271C00000E03F6C
:1037E000941200200C1300209E130020A013002030
:1037F000A21300201E1400201F14002020140020FB
:1038000038B5DFF8B80C0078002800F02D87DFF815
:10381000AC0C0078411EC9B2DFF8A40C01F026F907
:10382000DFF89C1CDFF8942C1278114411F8011C6D
:10383000C0B2814240F00C87DFF8840C4178DFF899
:10384000800C8078C9B2002927D0022900F0A1811C
:10385000C0F0A080042900F07A83C0F05F820629BE
:1038600000F05D85C0F0D584082900F0D185C0F056
:10387000A2850A2900F0FA85C0F0E1850C2900F044
:103880009486C0F0F7850E2900F0C286C0F09886B5
:103890000F2900F0C38600F0DBBEDFF8241CC978D6
:1038A000DFF8C82D1170DFF8181C0979DFF8BC2D7E
:1038B0005170DFF80C1C4979DFF8B02D9170DFF8FA
:1038C000001C8979DFF8A42DD170DFF8F41BC979C9
:1038D000DFF89C2D1170C0B2002822D100241BE01B
:1038E000DFF88C0D007821002039084110F001002C
:1038F000DFF8801D51F8241088470CE0202CEFDA07
:10390000DFF8680D0068E04010F00100DFF8641D8A
:1039100051F824108847641CDFF85C0D007884425D
:10392000ECDBDFF89C0B0078DFF8501D0870DFF847
:10393000900B4078DFF8441D4870DFF8840B8078E6
:10394000DFF8381D8870DFF8780BC078DFF82C1DA1
:10395000C870DFF86C0B0079DFF8201D0871DFF804
:10396000600B4079DFF8141D4871DFF8540B807943
:10397000DFF8081D88710721DFF8000D01F076F8E7
:10398000DFF8F81CC8710821DFF8F00C03F00FFB1A
:1039900000F05EBEDFF8281B0978DFF8E02C11701C
:1039A000DFF81C1B4978DFF8D42C5170DFF8101BAE
:1039B0008978DFF8C82C9170C0B2002840F0E78009
:1039C000DFF8BC0C0068DFF8A41C0860DFF8B40C5A
:1039D00000884FF4807190FBF1F201FB1200DFF8D8
:1039E0009C1CC870DFF89C0C00884FF4807190FB21
:1039F000F1F0DFF8881C0871DFF8700C0078DFF850
:103A00007C1C4871DFF8640C4078DFF8701C88710A
:103A1000DFF8580C8078DFF8641CC871DFF84C0CB4
:103A2000C078DFF8581C0872DFF8440C0078DFF823
:103A30004C1C4872DFF8500C00884FF4807190FBEA
:103A4000F1F201FB1200DFF8341C8872DFF8380C49
:103A500000884FF4807190FBF1F0DFF8201CC872F1
:103A6000DFF8280C00884FF4807190FBF1F201FB25
:103A70001200DFF8081C0873DFF8100C00884FF400
:103A8000807190FBF1F0DFF8F41B4873DFF8000C55
:103A900000884FF4807190FBF1F201FB1200DFF817
:103AA000DC1B8873DFF8E80B00884FF4807190FB13
:103AB000F1F0DFF8C81BC873DFF8D80B00884FF4AB
:103AC000807190FBF1F201FB1200DFF8B01B08746B
:103AD000DFF8C00B00884FF4807190FBF1F0DFF845
:103AE0009C1B4874DFF8B00BB0F900004FF48071F4
:103AF00090FBF1F201FB1200DFF8801B8874DFF805
:103B0000980BB0F900004FF4807190FBF1F0DFF8F2
:103B10006C1BC874DFF8840BB0F900004FF480719F
:103B200090FBF1F201FB1200DFF8501B0875DFF883
:103B30006C0BB0F900004FF4807190FBF1F0DFF8EE
:103B40003C1B4875DFF8580BB0F900004FF480714A
:103B500090FBF1F201FB1200DFF8201B8875DFF803
:103B6000400BB0F900004FF4807190FBF1F0DFF8EA
:103B70000C1BC8751821DFF8040B00F077FFDFF885
:103B8000FC1A08761921DFF8F40A03F010FA00F0A5
:103B90005FBDDFF82C190978DFF8E02A1170DFF833
:103BA00020194978DFF8D42A5170DFF81419897880
:103BB000DFF8C82A9170C0B2002840F0AD80DFF86D
:103BC000C80A00884FF4807190FBF1F201FB1200EB
:103BD000DFF8A81AC870DFF8B00A00884FF48071C7
:103BE00090FBF1F0DFF8941A0871DFF8A00A008862
:103BF0004FF4807190FBF1F201FB1200DFF87C1AA8
:103C00004871DFF8880A00884FF4807190FBF1F06A
:103C1000DFF8681A8871DFF8780A00884FF480713D
:103C200090FBF1F201FB1200DFF8501AC871DFF8C7
:103C3000600A00884FF4807190FBF1F0DFF83C1AC5
:103C40000872DFF8500A00884FF4807190FBF1F29F
:103C500001FB1200DFF8241A4872DFF8380A0088E6
:103C60004FF4807190FBF1F0DFF8101A8872DFF8E2
:103C7000280AB0F900004FF4807190FBF1F201FBCB
:103C80001200DFF8F819C872DFF80C0AB0F900006A
:103C90004FF4807190FBF1F0DFF8E0190873DFF862
:103CA000FC09B0F900004FF4807190FBF1F201FBC8
:103CB0001200DFF8C8194873DFF8E009B0F9000016
:103CC0004FF4807190FBF1F0DFF8B0198873DFF8E2
:103CD000D009B0F900004FF4807190FBF1F201FBC4
:103CE0001200DFF89819C873DFF8B409B0F90000C2
:103CF0004FF4807190FBF1F0DFF880190874112106
:103D0000DFF8780900F0B2FEDFF87019487412216C
:103D1000DFF8680903F04BF900F09ABCDFF8A01750
:103D20000A79DFF89C174C794FF4807101FB042469
:103D3000DFF88C178A79DFF88817CD794FF4807116
:103D400001FB0525C0B2002849D1DFF87407C0780F
:103D500007280CD1DFF868070079DFF8501B0870DE
:103D6000DFF85C070079DFF8481B0870EBE0DFF84C
:103D70005007C078032806D1DFF8380B0580DFF83C
:103D8000380B05800AE0DFF83807C078062805D12F
:103D9000DFF8280B0570DFF8280B0570DFF8243BEF
:103DA0002A0092B2210089B2DFF81407C078FFF729
:103DB00083FB0821DFF80C0B03F010F9DFF8083B58
:103DC0002A0092B2210089B2DFF8F406C078FFF72A
:103DD00073FB0821DFF8F00A03F017F9B3E0C0B273
:103DE00001283BD1DFF8D806C078072806D1DFF8D4
:103DF000D0060079DFF8B41A0870A4E0DFF8C43AFE
:103E00002A0092B2210089B2DFF8B406C078FFF729
:103E100053FB0821DFF8AC0A03F0E0F8DFF8A00656
:103E2000C078032803D1DFF88C0A05808BE0DFF827
:103E30009006C078062840F08680DFF8800A05707A
:103E4000DFF8680A01784FF47A704143DFF87C0AA2
:103E500001600020DFF8781A087074E0C0B2022810
:103E60003AD1DFF85C06C078072806D1DFF85006A3
:103E70000079DFF83C1A087065E0DFF84C3A2A0058
:103E800092B2210089B2DFF83806C078FFF714FB40
:103E90000821DFF8340A03F0B8F8DFF82406C07808
:103EA000032803D1DFF8100A05804CE0DFF8100684
:103EB000C078062847D1DFF8080A0570DFF8F00956
:103EC00001784FF47A704143DFF8240B0160002041
:103ED000DFF8201B087036E0C0B203281BD1DFF8E2
:103EE000E005C078DFF8581B0870DFF8D4050179C9
:103EF000DFF8CC0542794FF4807000FB0211DFF847
:103F0000440B01800020DFF8441D08700120DFF819
:103F1000401D087017E0C0B2042804D10120DFF86A
:103F2000281B08700FE0C0B205280CD1DFF89005FF
:103F3000C178DFF88C0502794FF4807000FB021124
:103F4000DFF8080B0180062000F056FD80E3C0B2C8
:103F500001283AD1DFF86805C078FFF71FFADFF8CB
:103F600060050078DFF814170870DFF85405407812
:103F7000DFF808174870DFF848058078DFF8FC168E
:103F80008870DFF8CC0A00884FF4807190FBF1F262
:103F900001FB1200DFF8E416C870DFF8B40A0088ED
:103FA0004FF4807190FBF1F0DFF8D0160871052115
:103FB000DFF8C80600F05AFDDFF8C0164871062188
:103FC000DFF8B80602F0F3FF22E1C0B202283AD1CE
:103FD000DFF8EC04C078FFF7F7F9DFF8E4040078C5
:103FE000DFF898160870DFF8D8044078DFF88C16F0
:103FF0004870DFF8CC048078DFF880168870DFF82E
:10400000540A00884FF4807190FBF1F201FB12001A
:10401000DFF86816C870DFF83C0A00884FF480713A
:1040200090FBF1F0DFF8541608710521DFF84C061B
:1040300000F01CFDDFF8441648710621DFF83C064D
:1040400002F0B5FFE4E0C0B203283AD1DFF8700413
:10405000C078FFF7D1F9DFF868040078DFF81C16A4
:104060000870DFF85C044078DFF810164870DFF85D
:1040700050048078DFF804168870DFF8DC090088C7
:104080004FF4807190FBF1F201FB1200DFF8EC15A8
:10409000C870DFF8C40900884FF4807190FBF1F01C
:1040A000DFF8D81508710521DFF8D00500F0DEFC37
:1040B000DFF8C81548710621DFF8C00502F077FF68
:1040C000A6E0C0B2042835D1DFF8F4030078DFF8A9
:1040D000AC150870DFF8E8034078DFF8A0154870E9
:1040E000DFF8DC038078DFF894158870DFF860096A
:1040F00000884FF4807190FBF1F201FB1200DFF8B1
:104100007C15C870DFF8480900884FF4807190FB77
:10411000F1F0DFF8681508710521DFF8600500F09F
:10412000A5FCDFF8581548710621DFF8500502F0AC
:104130003EFF6DE0C0B2052835D1DFF8840300787A
:10414000DFF838150870DFF878034078DFF82C15B1
:104150004870DFF86C038078DFF820158870DFF88E
:10416000F40800884FF4807190FBF1F201FB12001B
:10417000DFF80815C870DFF8DC0800884FF480719C
:1041800090FBF1F0DFF8F41408710521DFF8EC047E
:1041900000F06CFCDFF8E41448710621DFF8DC0461
:1041A00002F005FF34E0C0B2062831D1C4480078DF
:1041B000DFF8C8140870C2484078DFF8C0144870AF
:1041C000BF488078DFF8B4148870DFF88C08008866
:1041D0004FF4807190FBF1F201FB1200DFF89C14A8
:1041E000C870DFF8740800884FF4807190FBF1F01C
:1041F000DFF8881408710521DFF8800400F036FC30
:10420000DFF8781448710621DFF8700402F0CFFE61
:104210001EE2C0B2002812D1A948C078DFF8B41A53
:104220000870A7480079DFF8AC1A4870A4484079B4
:10423000DFF8A01A8870062000F0DEFB6EE0C0B246
:10424000012812D19E48C078DFF8881AC8709C48AF
:104250000079DFF8801A087199484079DFF8741AFC
:104260004871062000F0C8FB58E0C0B2022812D105
:104270009348C078DFF85C1A887191480079DFF8BC
:10428000541AC8718E484079DFF8481A087206201F
:1042900000F0B2FB42E0C0B203280CD1DFF8B80A4C
:1042A000007800283AD1FCF7C1FEFCF7DFFE0620BB
:1042B00000F0A2FB32E0C0B2042813D1FCF7C8FE24
:1042C000FDF7ABFAFCF7B2FEFCF798FE0020DFF832
:1042D0008C1A08800020DFF8881A0870062000F089
:1042E0008BFB1BE0C0B205280ED17548C17874481D
:1042F00004794FF4807000FB0414DFF8440B048051
:10430000062000F079FB09E0C0B2062806D1FCF7D0
:10431000C1FEFCF78BFE062000F06EFB98E1C0B2F8
:10432000002812D16648C078DFF8381A087064484F
:104330000079DFF8301A487061484079DFF8241AB4
:104340008870062000F058FB34E0C0B2012812D17A
:104350005B48C078DFF80C1AC87059480079DFF85C
:10436000041A087156484079DFF8F8194871062098
:1043700000F042FB1EE0C0B202280CD1DFF8E809D1
:104380000078002816D1FDF751FAFCF74FFE062001
:1043900000F032FB0EE0C0B203280BD1DFF8CC09ED
:1043A0000078002806D1FDF738FAFCF73FFE06201A
:1043B00000F022FB4CE1C0B2002805D10520FCF73B
:1043C00025FEFCF767FE22E0C0B2012805D10420DB
:1043D000FCF71CFEFCF75EFE19E0C0B2022805D116
:1043E0000320FCF713FEFCF755FE10E0C0B20328D3
:1043F00005D10220FCF70AFEFCF74CFE07E0C0B234
:10440000042804D10120FCF701FEFCF743FE1FE164
:10441000C0B2002803D10020FCF7DCFD0EE0C0B2E2
:10442000012803D10120FCF7D5FD07E0C0B2022826
:1044300004D10120FCF7EAFDFCF72CFE08E120483E
:10444000C1781F4802794FF4807000FB0211DFF839
:10445000F40901801A484179194882794FF4807033
:1044600000FB0211DFF8E0090180F1E0C0B200F0CA
:1044700013FDEDE0C0B2002824D1FCF7E9FDFDF703
:10448000CCF9FCF7D3FDFCF7B9FD0020DFF8CC1820
:1044900008800020DFF8C81808700120DFF8A81590
:1044A000087000207349896C884700207149896A27
:1044B00088470120DFF89419087075E06314002024
:1044C000F4100020002002F0E7FB3021DFF8800923
:1044D00002F048FD002002F0F6FB00206549096D5E
:1044E000884700206349C96C884700206149496EAC
:1044F000884700205F49896D884700205D49496DE4
:10450000884700205B49896E884700205949096E19
:10451000884700205749C96D884700205549C96E12
:10452000884701205349896C88474FF4FA7004F09A
:10453000A8FA01204F49896A88474FF4FA7004F0BD
:10454000A0FADFF81009407ADFF80019087000209F
:10455000DFF8041908700020DFF800190860DFF8A0
:10456000F408C179DFF8EC08027A4FF4807000FBA0
:1045700002110A0092B2DFF8DC084179DFF8D408B2
:1045800083794FF4807000FB031189B2DFF8C4080F
:10459000C378DFF8C00804794FF4807000FB04335F
:1045A000180080B200F096F952E0DFF8A808807891
:1045B000012802D100F0EAF801E000F014F947E028
:1045C000DFF89008807801281DD1DFF8880841794C
:1045D000DFF8800882794FF4807000FB021189B205
:1045E000DFF87008C278DFF86C0803794FF4807048
:1045F00000FB0322100080B200F0DBF90120DFF89D
:104600005818087003E00020DFF84C1808701FE00D
:10461000DFF84008807800F045F819E0DFF834084A
:104620008078012808D10120DFF8341808700020B4
:10463000DFF8301808700BE00020DFF8141608705F
:104640000120DFF8041408700020DFF81418087047
:104650000020DFF8141808700020DFF81018087028
:104660000120DFF8F41C087031BD00BF38130020B2
:104670001D14002020100020E4130020C010002092
:104680005C130020821300208A1300208E13002068
:1046900092130020961300209E130020A0130020E8
:1046A000A213002080B5C0B200282CD10020DFF872
:1046B000C0170870FCF7CCFC3021DFF8B80702F017
:1046C00051FCFDF7AAF80120DFF87C1308700220E6
:1046D000DFF8A41708700020DFF8A017087000208A
:1046E000DFF89C17496A88470020DFF89417C968EB
:1046F00088470020DFF88817896888470020DFF89E
:104700008417087041E0C0B2012814D13220DFF8CC
:10471000781708700420DFF8741708700120DFF89C
:104720005C1708700020DFF8681708700020DFF8B9
:104730006417087029E0C0B2022814D16420DFF8A1
:10474000481708700620DFF8441708700120DFF8CA
:104750002C1708700020DFF8381708700020DFF8E9
:104760003417087011E0C0B203280ED0C0B204287C
:104770000BD0C0B2052808D10120DFF80817087057
:104780000020DFF8D81B0870FFE701BD0120DFF82B
:10479000D01B08700020DFF8CC1B08800020DFF859
:1047A000C81B08700020DFF8C41B08700020DFF869
:1047B000C01B08700020DFF8BC1B08804620DFF813
:1047C000B81B08700120DFF8901608700020DFF891
:1047D000AC1B08700120DFF8B81608700020DFF865
:1047E0006C140870704780B50020DFF8741B0870E7
:1047F000FCF72EFCFDF711F8FCF718FCFCF7FEFBAC
:104800000020DFF88C1608706320DFF8741B087036
:104810000020DFF85C1B08700A20DFF8501B0870CE
:104820000020DFF8341608700020DFF8441B087001
:104830000020DFF8481608700020DFF84416C96829
:1048400088470020DFF83816096988470020DFF81C
:104850003016496A88470020DFF8241649698847DE
:104860000020DFF81C16896988470020DFF8101641
:10487000496C88470020DFF80816896C88470020BB
:10488000DFF8FC15896888470020DFF8F41509680F
:1048900088470020DFF8E8154968884701206A4901
:1048A00008700020DFF8A813087001BD2114002053
:1048B00022140020A6130020A81300202314002097
:1048C0002414002090110020F81100206013002013
:1048D0002514002080B580B2002807D1DFF86005DC
:1048E0000180FCF7A3FBFCF7D5FB54E0DFF8502573
:1048F000118080B2002808D080B2152805DA052082
:10490000FCF784FBFCF7C6FB45E080B2B0F1150272
:10491000142A05D20420FCF779FBFCF7BBFB3AE034
:1049200080B2B0F12902142A05D20420FCF76EFBF4
:10493000FCF7B0FB2FE080B2B0F13D02142A05D2A3
:104940000420FCF763FBFCF7A5FB24E080B25138A0
:10495000132805D20420FCF759FBFCF79BFB1AE057
:1049600089B2B1F11E00292803D20020FCF732FBE6
:1049700011E089B2B1F14700222803D20120FCF7EF
:1049800029FB08E089B269391A2904D20120FCF711
:104990003DFBFCF77FFBB420294908702B480088B9
:1049A000284908800020A94908700120A8490870FA
:1049B00001BD80B2002807D1DFF884040180012006
:1049C000DFF8C019087011E0DFF87424118080B29C
:1049D000002807D080B2642804DA0320DFF8A41985
:1049E000087003E00320DFF89C190870704700008E
:1049F000641300202614002080B5DFF858140978CD
:104A0000DFF884291170DFF84C144978DFF8782931
:104A10005170DFF840148978DFF86C299170DFF865
:104A20006819C8700421DFF8600900F01FF8DFF88A
:104A3000581908710521DFF8500902F0B8FA01BDD4
:104A400027140020AA130020291400201800002099
:104A5000981300209A1300209C13002080B5FEF7C5
:104A6000EDFC01BD80B5FEF705FD01BD10B40200EF
:104A70000020002402E0135D1818641CC9B28C42A7
:104A8000F9DBC0B210BC704710B5DFF80009007840
:104A9000012821D1DFF8F838002247F6010106206D
:104AA000FEF70AFD0821DFF8E80802F097FADFF8C0
:104AB000E438002247F601010620FEF7FDFC08213C
:104AC000DFF8D00802F0A1FA0020DFF8C018087063
:104AD00000205F490870B8E05D480078002800F0C9
:104AE000B4805A480078002802D0012826D0ACE0D3
:104AF000DFF89C38012247F601010620FEF7DCFCB6
:104B00000821DFF88C0802F069FADFF88838012202
:104B100047F601010620FEF7CFFC0821DFF87408F4
:104B200002F073FA1420DFF8701808600020DFF834
:104B30006C18087001204549087086E0DFF85808B5
:104B40000068002840F08180CC480078002803D11C
:104B5000CC48007800280BD0DFF84408B0F90010EA
:104B6000DFF83C08B0F900405FF0FF30444349E013
:104B7000DFF828080078002805D0022823D012D3B7
:104B8000032830D03EE0DFF81808B0F900105FF0DD
:104B9000FF304143DFF80808B0F900400120DFF89A
:104BA000FC2710702EE0DFF8F807B0F90010DFF8EE
:104BB000F007B0F900405FF0FF3044430220DFF817
:104BC000DC2710701EE0DFF8D807B0F900105FF0A6
:104BD000FF304143DFF8C807B0F900400320DFF899
:104BE000BC2710700EE0DFF8B807B0F90010DFF84E
:104BF000B007B0F900405FF0FF3044430020DFF819
:104C00009C271070DFF888370A0092B20021032039
:104C1000FEF752FC0821DFF8780702F0DFF9DFF831
:104C20007437220092B200210320FEF745FC0821D0
:104C3000DFF8600702F0E9F9DFF8680701784FF460
:104C40007A704143DFF85007016010BD2A1400203C
:104C50002814002080B5DFF850070078002838D0ED
:104C6000DFF848070078002833D0DFF8980D006897
:104C700000282ED1DFF83807007800280BD1DFF8A4
:104C80003407B0F900105FF0FF3041430120DFF836
:104C90002027107007E0DFF81C07B0F90010002093
:104CA000DFF80C271070DFF8E8360A0092B2002116
:104CB0000320FEF701FC0821DFF8D40602F08EF98C
:104CC000DFF8E80601784FF47A704143DFF8340DDD
:104CD000016001BD1813002080B5DFF82C0D0078AD
:104CE000002838D0DFF8240D0078002833D0DFF812
:104CF000200D006800282ED1DFF8180D007800285C
:104D00000BD1DFF8140DB0F900105FF0FF30414314
:104D10000120DFF8002D107007E0DFF8FC0CB0F97F
:104D200000100020DFF8EC2C1070DFF868360A0065
:104D300092B200210320FEF7BFFB0821DFF85406E2
:104D400002F063F9DFF8C40C01784FF47A70414344
:104D5000DFF8BC0C016001BD2C140020841300207E
:104D6000361400202C1300203114002034140020AD
:104D700080B5DFF8A80C0078C0B2C009C0B2002826
:104D80005CD0DFF8DC050078002857D0DFF8440D50
:104D90000078002805D002282AD01FD3032844D049
:104DA0004CE028480088DFF8301D0880DFF82C0D23
:104DB0000078002804D0012031490969884708E0BB
:104DC000DFF81C0D0078002803D001202C49C968A9
:104DD00088470120DFF8FC1C08702FE0DFF8F80C92
:104DE000008800282AD10220DFF8E81C087025E09E
:104DF00015480088DFF8EC1C0880DFF8E00C00782C
:104E0000002804D000201E490969884708E0DFF81F
:104E1000D00C0078002803D000201949C9688847C1
:104E20000320DFF8B01C087008E0DFF8B80C008839
:104E3000002803D10020DFF89C1C087001BD000091
:104E4000AE130020C0130020C2130020481400201D
:104E500054960008F410002049140020701300201C
:104E60005A1400205B1400206314002060140020FA
:104E700055140020C4960008521400204E1400203F
:104E800020100020581400201B0000201C000020CF
:104E9000471400204F140020C0B2002813D002286D
:104EA00000F0938050D3042800F01181C0F0CE8030
:104EB000062800F08E81C0F04B81082800F00B829C
:104EC000C0F0C88147E2DFF8540B007810F0FE0014
:104ED000DFF8481B0870DFF8440B007810F0FD0085
:104EE000DFF8381B0870DFF8340B007810F0FB0097
:104EF000DFF8281B0870DFF8240B007850F008005A
:104F0000DFF8181B0870DFF8140B007810F0EF00C2
:104F1000DFF8081B0870DFF8040B007850F0200061
:104F2000DFF8F81A0870DFF8F40A007810F0BF0014
:104F3000DFF8E81A0870DFF8E40A007850F0800023
:104F4000DFF8D81A087006E2DFF8D00A007850F0CF
:104F50000100DFF8C81A0870DFF8C00A007810F006
:104F6000FD00DFF8B81A0870DFF8B00A007810F01A
:104F7000FB00DFF8A81A0870DFF8A00A007810F02C
:104F8000F700DFF8981A0870DFF8900A007810F040
:104F9000EF00DFF8881A0870DFF8800A007850F018
:104FA0002000DFF8781A0870DFF8700A007810F037
:104FB000BF00DFF8681A0870DFF8600A007850F068
:104FC0008000DFF8581A0870C5E1DFF8500A007851
:104FD00010F0FE00DFF8441A0870DFF8400A00788D
:104FE00010F0FD00DFF8341A0870DFF8300A00789E
:104FF00010F0FB00DFF8241A0870DFF8200A0078B0
:1050000050F00800DFF8141A0870DFF8100A007872
:1050100010F0EF00DFF8041A0870DFF8000A0078DB
:1050200050F02000DFF8F4190870DFF8F00900787C
:1050300010F0BF00DFF8E4190870DFF8E00900782D
:1050400050F08000DFF8D419087084E1DFF8CC0953
:10505000007850F00100DFF8C4190870DFF8BC09CF
:10506000007810F0FD00DFF8B4190870DFF8AC0923
:10507000007810F0FB00DFF8A4190870DFF89C0935
:10508000007810F0F700DFF894190870DFF88C0949
:10509000007810F0EF00DFF884190870DFF87C0961
:1050A000007850F02000DFF874190870DFF86C0900
:1050B000007810F0BF00DFF864190870DFF85C09B1
:1050C000007850F08000DFF85419087043E1DFF8F1
:1050D0004C09007810F0FE00DFF840190870DFF886
:1050E0003C09007810F0FD00DFF830190870DFF897
:1050F0002C09007810F0FB00DFF820190870DFF8A9
:105100001C09007850F00800DFF810190870DFF86B
:105110000C09007850F01000DFF800190870DFF873
:10512000FC08007850F02000DFF8F0180870DFF875
:10513000EC08007850F04000DFF8E0180870DFF865
:10514000DC08007810F07F00DFF8D018087002E16A
:10515000DFF8C808007810F0FE00DFF8C01808700B
:10516000DFF8B808007810F0FD00DFF8B01808701C
:10517000DFF8A808007810F0FB00DFF8A01808702E
:10518000DFF89808007850F00800DFF890180870F1
:10519000DFF88808007850F01000DFF880180870F9
:1051A000DFF87808007850F02000DFF870180870F9
:1051B000DFF86808007850F04000DFF860180870E9
:1051C000DFF85808007810F07F00DFF850180870FA
:1051D000C1E0DFF84808007850F00100DFF83C1823
:1051E0000870DFF83808007810F0FD00DFF82C18A0
:1051F0000870DFF82808007850F00400DFF81C1869
:105200000870DFF81808007810F0F700DFF80C18C5
:105210000870DFF80808007810F0EF00DFF8FC17DE
:105220000870DFF8F807007850F02000DFF8EC177E
:105230000870DFF8E807007810F0BF00DFF8DC172F
:105240000870DFF8D807007810F07F00DFF8CC177F
:10525000087080E0DFF8C407007810F0FE00DFF887
:10526000BC170870DFF8B407007810F0FD00DFF815
:10527000AC170870DFF8A407007810F0FB00DFF827
:105280009C170870DFF89407007850F00800DFF8EA
:105290008C170870DFF88407007850F01000DFF8F2
:1052A0007C170870DFF87407007850F02000DFF8F2
:1052B0006C170870DFF86407007850F04000DFF8E2
:1052C0005C170870DFF85407007810F07F00DFF8F3
:1052D0004C1708703FE0DFF84407007850F00100F9
:1052E000DFF838170870DFF83407007850F0020054
:1052F000DFF828170870DFF82407007850F0040062
:10530000DFF818170870DFF81407007810F0F700BE
:10531000DFF808170870DFF80407007810F0EF00D6
:10532000DFF8F8160870DFF8F406007850F0200077
:10533000DFF8E8160870DFF8E406007850F0400067
:10534000DFF8D8160870DFF8D406007810F07F0078
:10535000DFF8C81608707047621400205914002046
:105360003A140020B6130020381400203B1400200B
:1053700051140020B81300204A1400204B140020C0
:105380003E1400205C140020C010002029140020CE
:1053900090110020F8110020681300202B14002029
:1053A000AA13002027140020231400202114002019
:1053B00025140020A6130020DFF8E80A0068C007C3
:1053C00008D5DFF8E40A006840084000DFF8D81A82
:1053D000086007E0DFF8D00A006850F00100DFF84D
:1053E000C81A0860DFF8BC0A0068800708D5DFF833
:1053F000B80A006830F00200DFF8AC1A086007E075
:10540000DFF8A40A006850F00200DFF89C1A086078
:10541000DFF8900A0068400708D5DFF88C0A0068BA
:1054200030F00400DFF8801A086007E0DFF8780A3F
:10543000006850F00400DFF8701A0860DFF8640AB2
:105440000068000708D5DFF8600A006830F008003F
:10545000DFF8541A086007E0DFF84C0A006850F0E3
:105460000800DFF8441A0860DFF8380A0068C00650
:1054700008D5DFF8340A006830F01000DFF8281A89
:10548000086007E0DFF8200A006850F01000DFF83D
:10549000181A0860DFF80C0A0068800608D5DFF8E3
:1054A000080A006830F02000DFF8FC19086007E007
:1054B000DFF8F409006850F02000DFF8EC1908600C
:1054C000DFF8E0090068400608D5DFF8DC0900686D
:1054D00030F04000DFF8D019086007E0DFF8C809B5
:1054E000006850F04000DFF8C0190860DFF8B40928
:1054F0000068000608D5DFF8B009006830F08000C9
:10550000DFF8A419086007E0DFF89C09006850F094
:105510008000DFF894190860DFF888090068C0058A
:1055200008D5DFF88409006830F48070DFF8781956
:10553000086007E0DFF87009006850F48070DFF859
:1055400068190860DFF85C090068800508D5DFF895
:105550005809006830F40070DFF84C19086007E063
:10556000DFF84409006850F40070DFF83C19086067
:10557000DFF830090068400508D5DFF82C0900681D
:1055800030F48060DFF82019086007E0DFF81809C0
:10559000006850F48060DFF810190860DFF8040933
:1055A0000068000508D5DFF80009006830F40060E5
:1055B000DFF8F418086007E0DFF8EC08006850F442
:1055C0000060DFF8E4180860DFF8D8080068C0045D
:1055D00008D5DFF8D408006830F48050DFF8C81828
:1055E000086007E0DFF8C008006850F48050DFF87A
:1055F000B8180860DFF8AC080068800408D5DFF848
:10560000A808006830F40050DFF89C18086007E034
:10561000DFF89408006850F40050DFF88C18086038
:10562000DFF880080068400408D5DFF87C080068CF
:1056300030F48040DFF87018086007E0DFF8680891
:10564000006850F48040DFF860180860DFF8540804
:105650000068000408D5DFF85008006830F4004006
:10566000DFF84418086007E0DFF83C08006850F4F1
:105670000040DFF834180860DFF8A80A006800046A
:1056800008D5DFF82408006830F48030DFF81818F7
:10569000086007E0DFF81008006850F48030DFF899
:1056A00008180860DFF8800A0068C00708D5DFF82E
:1056B000F807006830F40030DFF8EC17086007E006
:1056C000DFF8E407006850F40030DFF8DC1708600A
:1056D000DFF8540A0068800708D5DFF8CC070068B7
:1056E00030F48020DFF8C017086007E0DFF8B80763
:1056F000006850F48020DFF8B0170860DFF8240A53
:105700000068000708D5DFF8A007006830F4002023
:10571000DFF89417086007E0DFF88C07006850F4A2
:105720000020DFF884170860DFF8F80900684007F8
:1057300008D5DFF87407006830F48010DFF86817C8
:10574000086007E0DFF86007006850F48010DFF8B9
:1057500058170860DFF8D4090068C00408D5DFF8DE
:105760004807006830F40010DFF83C17086007E0D5
:10577000DFF83407006850F40010DFF82C170860D9
:10578000DFF8A8090068800408D5DFF81C07006866
:1057900030F48000DFF81017086007E0DFF8080732
:1057A000006850F48000DFF800170860DFF878091F
:1057B0000068C00408D5DFF8F006006830F4000087
:1057C000DFF8E416086007E0DFF8DC06006850F454
:1057D0000000DFF8D4160860DFF84C090068800488
:1057E00008D5DFF8C406006830F08070DFF8B8161E
:1057F000086007E0DFF8B006006850F08070DFF85E
:10580000A8160860DFF81C090068400408D5DFF816
:105810009806006830F00070DFF88C16086007E02A
:10582000DFF88406006850F00070DFF87C1608602E
:10583000DFF8F0080068800408D5DFF86C0600681F
:1058400030F08060DFF86016086007E0DFF8580687
:10585000006850F08060DFF850160860DFF8C40878
:105860000068C00408D5DFF84006006830F000602A
:10587000DFF83416086007E0DFF82C06006850F007
:105880000060DFF824160860DFF8A0080068C00692
:1058900008D5DFF81406006830F08050DFF80816ED
:1058A000086007E0DFF80006006850F08050DFF87D
:1058B000F8150860DFF870080068400708D5DFF8C1
:1058C000E805006830F00050DFF8DC15086007E0FC
:1058D000DFF8D405006850F00050DFF8CC15086000
:1058E000DFF898090068C00408D5DFF8BC05006837
:1058F00030F08040DFF8B015086007E0DFF8A80559
:10590000006850F08040DFF8A0150860DFF86C09EF
:105910000068000508D5DFF89005006820F0004019
:10592000DFF88415086007E0DFF87C05006850F0B8
:105930000040DFF874150860DFF840090068400592
:1059400008D5DFF83C09007810F0FE00DFF83019C8
:10595000087007E0DFF82809007850F00100DFF850
:1059600020190870DFF814090068800508D5DFF8F1
:105970001009007810F0FD00DFF80419087007E046
:10598000DFF8FC08007850F00200DFF8F418087027
:10599000DFF898070068000708D5DFF8E40800780A
:1059A00010F0FB00DFF8D818087007E0DFF8D00827
:1059B000007850F00400DFF8C8180870704780B510
:1059C000DFF8C0080078002815D1DFF8BC0800789F
:1059D0002D2805DA0020DFF8B418896A88470FE01F
:1059E000DFF8A408007833280ADB0120DFF89C18D0
:1059F000896A884704E00120DFF89018896A88479F
:105A000001BD000060130020241400202214002097
:105A10006413002026140020A8130020BE130020C9
:105A200080B5DFF860080078002852D0DFF8600801
:105A3000008800284DD1DFF85C080078002803D0EA
:105A4000022833D019D344E00120DFF84018C96A96
:105A500088470020DFF83418096B88470120DFF8F9
:105A60002C18C969884743F69820DFF82418088065
:105A70000120DFF8201808702BE00020DFF80C1858
:105A8000C96A88470120DFF80418096B884700209D
:105A9000DFF8F817C969884742F21070DFF8F0178D
:105AA00008800220DFF8EC17087012E00020DFF811
:105AB000DC17C96A88470020DFF8D017096B8847D0
:105AC00040F2DC50DFF8C81708800320DFF8C41765
:105AD000087001BD45140020C413002041140020AB
