:020000040800F2
:100000000004002019C3000821BC000823BC00081C
:1000100025BC000827BC000829BC0008000000001F
:100020000000000000000000000000002BBC0008E1
:100030002DBC0008000000002FBC000831BC0008E7
:1000400033980008339800083398000839BC00083A
:1000500033980008339800083BBC00083398000828
:10006000339800084FBC00083398000845C10008C9
:100070003398000833980008339800083398000834
:1000800033980008339800083398000851BC0008E2
:1000900053BC0008339800083398000855BC00088A
:1000A0003398000857BC00083398000833980008BC
:1000B00065BC000873BC000881BC000833980008C8
:1000C00033980008339800083398000833980008E4
:1000D00091BC000893BC0008EDBD0008DDBE00081F
:1000E00029C1000841C1000833980008339800086E
:1000F00083BC000833980008339800083398000840
:100100003398000843C1000833980008339800086A
:10011000CBBF0008339800083398000833980008D4
:100120003398000833980008339800083398000883
:1001300040B2002805D40901DFF8E82A40B2115482
:1001400008E00901DFF8B82C40B210F00F001044AD
:1001500000F8041C704780B5411EB1F1807F01D3C7
:10016000012011E0401EDFF8E01A08600F215FF067
:10017000FF30FFF7DDFF0020DFF8F01A08600720EE
:10018000DFF8A41C0860002002BD0020DFF89C1CE2
:100190000870DFF8DC0ADFF8AC1BDFF8902C12786F
:1001A00041F82200DFF8840C0078401CDFF87C1C4A
:1001B0000870DFF8E40ADFF88C1BDFF8702C127887
:1001C00041F82200DFF8640C0078401CDFF85C1C6A
:1001D0000870DFF8EC0ADFF86C1BDFF8502C12789F
:1001E00041F82200DFF8440C0078401CDFF83C1C8A
:1001F0000870DFF8D00ADFF84C1BDFF8302C1278DB
:1002000041F82200DFF8240C0078401CDFF81C1CA9
:100210000870DFF8B40ADFF82C1BDFF8102C127816
:1002200041F82200DFF8040C0078401CDFF8FC1BCA
:100230000870DFF8BC0ADFF80C1BDFF8F02B12782F
:1002400041F82200DFF8E40B0078401CDFF8DC1BEB
:100250000870DFF8A00ADFF8EC1ADFF8D02B12786C
:1002600041F82200DFF8C40B0078401CDFF8BC1B0B
:100270000870DFF8A80ADFF8CC1ADFF8B02B127884
:1002800041F82200DFF8A40B0078401CDFF89C1B2B
:100290000870DFF8B40ADFF8AC1ADFF8902B127898
:1002A00041F82200DFF8840B0078401CDFF87C1B4B
:1002B0000870DFF8B80ADFF88C1ADFF8702B1278B4
:1002C00041F82200DFF8640B0078401CDFF85C1B6B
:1002D0000870DFF8BC0ADFF86C1ADFF8502B1278D0
:1002E00041F82200DFF8440B0078401CDFF83C1B8B
:1002F0000870DFF8C00ADFF84C1ADFF8302B1278EC
:1003000041F82200DFF8240B0078401CDFF81C1BAA
:100310000870DFF8A40ADFF82C1ADFF8102B127827
:1003200041F82200DFF8040B0078401CDFF8FC1ACB
:100330000870DFF8880ADFF80C1ADFF8F02A127864
:1003400041F82200DFF8E40A0078401CDFF8DC1AEC
:100350000870DFF8B00ADFF8EC19DFF8D02A12785D
:1003600041F82200DFF8C40A0078401CDFF8BC1A0C
:100370000870DFF8BC0ADFF8CC19DFF8B02A127871
:1003800041F82200DFF8A40A0078401CDFF89C1A2C
:100390000870DFF8A00ADFF8AC19DFF8902A1278AD
:1003A00041F82200DFF8840A0078401CDFF87C1A4C
:1003B0000870DFF8C80ADFF88C19DFF8702A1278A5
:1003C00041F82200DFF8640A0078401CDFF85C1A6C
:1003D0000870DFF8D00ADFF86C19DFF8502A1278BD
:1003E00041F82200DFF8440A0078401CDFF83C1A8C
:1003F0000870DFF8B40ADFF84C19DFF8302A1278F9
:1004000041F82200DFF8240A0078401CDFF81C1AAB
:100410000870DFF8980ADFF82C19DFF8102A127834
:1004200041F82200DFF8040A0078401CDFF8FC19CC
:100430000870DFF8C00ADFF80C19DFF8F02912782D
:1004400041F82200DFF8E4090078401CDFF8DC19ED
:100450000870DFF8C80ADFF8EC18DFF8D029127846
:1004600041F82200DFF8C4090078401CDFF8BC190D
:100470000870DFF8D00ADFF8CC18DFF8B02912785E
:1004800041F82200DFF8A4090078401CDFF89C192D
:100490000870DFF8D80ADFF8AC18DFF89029127876
:1004A00041F82200DFF884090078401CDFF87C194D
:1004B0000870DFF8BC0ADFF88C18DFF870291278B2
:1004C00041F82200DFF864090078401CDFF85C196D
:1004D0000870DFF8C40ADFF86C18DFF850291278CA
:1004E00041F82200DFF844090078401CDFF83C198D
:1004F0000870DFF8C80ADFF84C18DFF830291278E6
:1005000041F82200DFF824090078401CDFF81C19AC
:100510000870DFF8AC0ADFF82C18DFF81029127821
:1005200041F82200DFF804090078401CDFF8FC18CD
:100530000870DFF8900ADFF80C18DFF8F02812785E
:1005400041F82200DFF8E4080078401CDFF8DC18EE
:100550000870DFF8740ADFF8EC17DFF8D02812789B
:1005600041F82200DFF8C4080078401CDFF8BC180E
:100570000870DFF8580ADFF8CC17DFF8B0281278D7
:1005800041F82200DFF8A4080078401CDFF89C182E
:100590000870DFF83C0ADFF8AC17DFF89028127813
:1005A00041F82200DFF884080078401CDFF87C184E
:1005B0000870DFF8200ADFF88C17DFF8702812784F
:1005C00041F82200DFF864080078401CDFF85C186E
:1005D0000870DFF8040ADFF86C17DFF8502812788B
:1005E00041F82200DFF844080078401CDFF83C188E
:1005F0000870704780B5DFF87C1A097800290DD0A3
:10060000012805D10121DFF8380B09F00FF929E0A5
:100610000121DFF82C0B09F006F923E0012817D19E
:100620000121DFF81C0B09F001F90221DFF8100BA2
:1006300009F0F9F80120DFF8401A08704EF6602042
:10064000DFF8381A08800120DFF8341A087009E052
:100650000121DFF8EC0A09F0E6F80221DFF8E00AF0
:1006600009F0E1F801BD80B5DFF8081A0978002922
:100670000DD0012805D10221DFF8C40A09F0D6F80F
:1006800029E00221DFF8B80A09F0CDF823E00128BB
:1006900017D10121DFF8A80A09F0C5F80221DFF817
:1006A000A00A09F0C3F80020DFF8CC1908704EF654
:1006B0006020DFF8C81908800120DFF8C41908702D
:1006C00009E00121DFF8780A09F0ADF80221DFF82E
:1006D000700A09F0A8F801BD80B5DFF8A409007818
:1006E000002803D0022859D001D36AE069E0DFF87E
:1006F0008C09008800282DD0DFF87C0900780028BC
:1007000011D1DFF8400A0078C0F38010C0B2002891
:1007100043D04FF4FA60DFF8641908800220DFF854
:100720006019087039E0DFF850090078012834D1E9
:10073000DFF8100A0078C0F34010C0B200282CD0B7
:100740004FF4FA60DFF8341908800220DFF830191E
:10075000087022E0DFF82009007800280CD1DFF8CB
:10076000E809407850F04000DFF8DC1948700220BA
:10077000DFF80C19087010E0DFF8FC080078012899
:100780000BD1DFF8C409407850F02000DFF8B81929
:1007900048700220DFF8E818087012E0DFF8DC0883
:1007A000008800280DD10121DFF8940909F03BF8F9
:1007B0000221DFF88C0909F036F80020DFF8C018B4
:1007C000087001BD80B5DFF8AC18097800290FD09A
:1007D000012806D14FF48071DFF8640909F026F88A
:1007E00028E04FF48071DFF8580909F01CF821E087
:1007F000012814D14FF48071DFF8440909F016F88C
:100800008021DFF83C0909F00EF842F21070DFF8A1
:100810003C1908800120DFF8381908700AE04FF40D
:100820008071DFF81C0908F0FEFF8021DFF8100955
:1008300008F0F9FF01BD80B5DFF838180978002904
:100840000DD0012805D18021DFF8F40808F0EEFF73
:1008500027E08021DFF8E80808F0E5FF21E0012823
:1008600014D14FF48071DFF8D80808F0DCFF802144
:10087000DFF8CC0808F0DAFF42F21070DFF8CC188D
:1008800008800120DFF8C81808700AE04FF4807172
:10089000DFF8AC0808F0C7FF8021DFF8A40808F0F3
:1008A000C2FF01BD80B5DFF8A8080078002802D09B
:1008B000012801D014E013E0DFF890080088002838
:1008C0000ED14FF48071DFF8780808F0ACFF80217A
:1008D000DFF86C0808F0A7FF0020DFF87418087034
:1008E00001BD80B5DFF88C17097800290DD00128EB
:1008F00005D14021DFF8480808F098FF25E04021A5
:10090000DFF83C0808F08FFF1FE0012813D14021D9
:10091000DFF82C0808F08AFF2021DFF8240808F00F
:1009200082FF0120DFF8C419087042F21070DFF86E
:10093000C019088009E04021DFF8040808F073FFBF
:100940002021DFF8FC0708F06EFF01BD80B5DFF85D
:100950002417097800290DD0012805D12021DFF8BE
:10096000E00708F063FF25E02021DFF8D40708F056
:100970005AFF1FE0012813D12021DFF8C40708F037
:1009800055FF4021DFF8B80708F04DFF0120DFF8E0
:100990005C19087042F21070DFF85419088009E001
:1009A0004021DFF89C0708F03EFF2021DFF8900788
:1009B00008F039FF01BD80B5DFF830090078002864
:1009C00002D0012801D013E012E0DFF824090088EA
:1009D00000280DD12021DFF8680708F024FF40210E
:1009E000DFF85C0708F01FFF0020DFF8001908702F
:1009F00001BD80B5DFF87C16097800290FD00128E9
:100A000006D14FF40061DFF8380708F00FFF2AE045
:100A10004FF40061DFF8280708F005FF23E0012804
:100A200015D14FF40061DFF8180708F0FFFE4FF40E
:100A30008051DFF80C0708F0F6FE0120DFF8B4184B
:100A4000087043F69820DFF8B01808800BE04FF4E8
:100A50000061DFF8EC0608F0E6FE4FF48051DFF8A5
:100A6000E00608F0E0FE01BD80B5DFF80816097861
:100A700000290FD0012806D14FF48051DFF8C006BD
:100A800008F0D4FE2AE04FF48051DFF8B40608F0F5
:100A9000CAFE23E0012815D14FF48051DFF8A006EB
:100AA00008F0C4FE4FF40061DFF8940608F0BBFEC6
:100AB0000120DFF84018087042F21070DFF8381893
:100AC00008800BE04FF40061DFF8740608F0ABFE1D
:100AD0004FF48051DFF8680608F0A5FE01BD80B52F
:100AE000DFF810080078002802D0012801D015E0B6
:100AF00014E0DFF80408008800280FD14FF480517B
:100B0000DFF83C0608F08FFE4FF40061DFF8300696
:100B100008F089FE0020DFF8DC17087001BD80B501
:100B2000002805D10421DFF8180608F07CFE04E057
:100B30000421DFF80C0608F079FE01BD80B500281D
:100B400005D10821DFF8F80508F06DFE04E0082162
:100B5000DFF8EC0508F06AFE01BD80B5002805D17C
:100B60001021DFF8DC0508F05EFE04E01021DFF85C
:100B7000D00508F05BFE01BD80B5002806D14FF41A
:100B80000071DFF8BC0508F04EFE05E04FF400717F
:100B9000DFF8AC0508F04AFE01BD80B5002806D19B
:100BA0004FF48061DFF8980508F03DFE05E04FF452
:100BB0008061DFF88C0508F039FE01BD80B50028A2
:100BC00006D14FF40051DFF8780508F02CFE05E05F
:100BD0004FF40051DFF8680508F028FE01BD80B52C
:100BE000002806D14FF48041DFF8540508F01BFEC1
:100BF00005E04FF48041DFF8480508F017FE01BD1D
:100C000080B5002806D14FF40041DFF8340508F024
:100C10000AFE05E04FF40041DFF8240508F006FE67
:100C200001BD000000E400E080B5002805D11021DE
:100C3000DFF89C0B08F0F7FD04E01021DFF8900BC3
:100C400008F0F4FD01BD000014E000E080B50028CC
:100C500005D10421DFF87C0B08F0E5FD04E0042158
:100C6000DFF8700B08F0E2FD01BD000018E000E0C5
:100C7000F505000880B5002806D14FF48051DFF853
:100C8000580B08F0D0FD05E04FF48051DFF8480B19
:100C900008F0CCFD01BD00006706000880B5002803
:100CA00006D14FF40061DFF8300B08F0BCFD05E021
:100CB0004FF40061DFF8200B08F0B8FD01BD000023
:100CC0001F0B00083D0B00085B0B000880B50028D7
:100CD00006D14FF40041DFF8040B08F0A4FD05E055
:100CE0004FF40041DFF8F40A08F0A0FD01BD000058
:100CF0004D090008E308000880B5002806D14FF42C
:100D00008061DFF8D40A08F08EFD05E04FF48061C1
:100D1000DFF8C40A08F08AFD01BD000037080008AA
:100D200080B5002806D14FF40071DFF8AC0A08F056
:100D30007AFD05E04FF40071DFF89C0A08F076FDBB
:100D400001BD000070100020C507000880B5002814
:100D500005D10821DFF8780A08F065FD04E00821D4
:100D6000DFF86C0A08F062FD01BD0000790B000895
:100D700080B5002805D10121DFF8580A08F053FD9D
:100D800004E00121DFF84C0A08F050FD01BD00002D
:100D90009B0B000880B5002805D10221DFF8340A3A
:100DA00008F041FD04E00221DFF8280A08F03EFDCA
:100DB00001BD0000F3090008690A0008BD0B000826
:100DC00080B500280DD10821DFF8100A08F02BFDAE
:100DD000DFF8600B007810F0FE00DFF8581B087099
:100DE0000CE00821DFF8F40908F020FDDFF8440BDF
:100DF000007850F00100DFF83C1B087001BD0000D6
:100E000018ED00E0DF0B000880B5002805D10421B3
:100E1000DFF8C80908F007FD04E00421DFF8BC0989
:100E200008F004FD01BD000010E000E0D014002037
:100E3000010C0008CD0C000880B500280ED14FF43D
:100E40008051DFF88C0908F0EEFCDFF8E80A007842
:100E500010F0FD00DFF8DC1A08700DE04FF480514F
:100E6000DFF86C0908F0E2FCDFF8C80A007850F0FF
:100E70000200DFF8C01A087001BD0000710D000803
:100E800080B5002806D14FF40051DFF8440908F07E
:100E9000CAFC05E04FF40051DFF8340908F0C6FC45
:100EA00001BD0000950D0008C10D0008090E0008E5
:100EB00080B500280ED14FF48051DFF8180908F0F2
:100EC000B2FCDFF8700A007810F0FB00DFF8641A5B
:100ED00008700DE04FF48051DFF8F80808F0A6FC28
:100EE000DFF8500A007850F00400DFF8481A087064
:100EF00001BD0000390E000880B5002806D14FF46E
:100F00000051DFF8D00808F08EFC05E04FF40051E6
:100F1000DFF8C00808F08AFC01BD0000810E00085F
:100F200080B5002806D14FF48041DFF8B00808F002
:100F30007AFC05E04FF48041DFF8A00808F076FC69
:100F400001BD0000B10E000880B5002806D14FF4A5
:100F50000051DFF8880808F066FC05E04FF4005106
:100F6000DFF8780808F062FC01BD0000F90E000807
:100F7000210F000880B5002806D14FF48051DFF81A
:100F80005C0808F050FC05E04FF48051DFF84C0895
:100F900008F04CFC01BD0000490F000880B5DFF8E7
:100FA00098090078012807D0DFF89009DFF8BC1A0B
:100FB000097850F82100804701BD0000750F000836
:100FC000290C00084D0C0008750C00089D0C000849
:100FD000F90C0008210D00084D0D0008DFF860092C
:100FE000DFF858190860DFF85C09DFF8501948602D
:100FF000DFF85409DFF844198860DFF85009DFF89A
:101000003C19C860DFF84809DFF830190861DFF8DB
:101010004409DFF828194861DFF83C09DFF81C199A
:101020008861DFF83809DFF81419C861DFF8300982
:10103000DFF808190862DFF82C09DFF800194862A8
:10104000DFF82C0ADFF8F4188862DFF8280ADFF8E6
:10105000EC18C862DFF8200ADFF8E0180863DFF850
:101060001C0ADFF8D8184863DFF8140ADFF8CC1838
:101070008863704755150020C014002038140020E4
:10108000C1140020704780B5DFF8C80B0078002835
:1010900006D0022817D004D3042840D02ED34EE027
:1010A0004DE0DFF8E0090088DFF8DC1909888842A4
:1010B00004D20320DFF89C1B087003E00420DFF853
:1010C000941B08703BE0DFF8C0090088801EDFF841
:1010D000B4190988884204DB0320DFF8781B087004
:1010E0000BE0DFF8A0090088DFF89C190988884226
:1010F00003D30420DFF85C1B087020E0DFF88C09C4
:101100000078002804D0DFF888090078002801D191
:1011100001F0E6FD0220DFF83C1B08700FE0DFF86D
:101120006C090078012804D0DFF8640900780128F0
:1011300001D101F0CBFD0220DFF8181B087001BDC2
:101140000018014046140020481400203A140020E2
:10115000C214002080B5DFF83C090088002840F068
:10116000C380DFF8F00A0078DFF82C190870DFF888
:101170002C090078C0B2C009C0B200285DD0DFF8E9
:1011800018090078002808D0012807D0052817D0B2
:10119000062830D007283FD0A0E09FE0DFF8E40821
:1011A0000088DFF8E4180988884204D20620DFF8B6
:1011B000E818087003E00720DFF8DC1808708DE0FD
:1011C000DFF8C0080088DFF8C0180988884204D317
:1011D0000720DFF8C41808700CE0DFF8AC080088BE
:1011E000801EDFF8A0180988884203DB0620DFF89C
:1011F000A818087072E0DFF894080078002804D07E
:10120000DFF88C080078002801D101F069FD052085
:10121000DFF88418087061E0DFF8700800780128B2
:1012200004D0DFF86C080078012801D101F04EFDF0
:101230000520DFF86418087050E0DFF85C080078DB
:10124000002806D0022817D004D304283BD02ED380
:1012500044E043E0DFF82C080088DFF82C18098808
:10126000884204D20320DFF83018087003E004201D
:10127000DFF82418087031E0DFF808080088DFF88C
:1012800008180988884204D30420DFF80C18087075
:101290000CE0DFF8F4070088801EDFF8E817098803
:1012A000884203DB0320DFF8F017087016E0DFF850
:1012B000A8090078002801D101F0E9FD0220DFF83B
:1012C000D81708700AE0DFF890090078012801D1EA
:1012D00001F0D0FD0220DFF8C0170870DFF8B80772
:1012E0000078DFF87019087001BD0000C3140020F9
:1012F0003C140020C41400203E14002080B5DFF808
:1013000094070088002840F02D81DFF84809007814
:10131000DFF848190870DFF884070078C0B2C00908
:10132000C0B200285DD0DFF834090078002808D06A
:10133000012807D0032832D0042841D0052813D033
:101340000AE109E1DFF83C070088DFF83C1709886B
:10135000884204D20320DFF80419087003E0042057
:10136000DFF8F8180870F7E0DFF818070088DFF8F2
:1013700018170988884204D30420DFF8E0180870A1
:101380000CE0DFF804070088801EDFF8F8160988F3
:10139000884203DB0320DFF8C4180870DCE0DFF8C4
:1013A000EC060078002804D0DFF8E4060078002876
:1013B00001D101F095FC0520DFF8A0180870CBE002
:1013C000DFF8C8060078012804D0DFF8C4060078EA
:1013D000012801D101F07AFC0520DFF8801808709F
:1013E000BAE0DFF87808007800280DD001280CD08A
:1013F000022819D0032833D0052851D0062861D0FF
:10140000072800F0A080A7E0A6E0DFF878060088B3
:10141000462804DA0320DFF84418087003E00220AD
:10142000DFF83818087097E0DFF8600600780128C8
:1014300004D0DFF85C060078012801D101F046FCF9
:1014400001F025FD0420DFF8141A0870DFF81008F9
:10145000DFF80C1A08600620DFF8001808707BE03F
:10146000DFF8F4070078012801D101F003FD01F055
:1014700037FC0020DFF8EC1908804FF4FA70DFF831
:10148000E819088041F28830DFF8E019088001206F
:10149000DFF8C81908700520DFF8C01708705BE096
:1014A000DFF8E005008846280BDB01F00FFC01F0B7
:1014B000EEFC0420DFF8A41908700620DFF89C1762
:1014C000087049E0DFF8BC050088462804DA0320EC
:1014D000DFF88817087035E0DFF87C07007801280E
:1014E0001CD1DFF8A0050088DFF89C150988884228
:1014F00028D301F0BFFC0020DFF8681908804FF402
:10150000FA70DFF86419088041F28830DFF85C195E
:1015100008800120DFF84419087013E0DFF838076D
:10152000007800280ED1DFF860050088801EDFF803
:1015300054150988884205DB01F0A9FC0420DFF876
:101540001C19087008E0DFF818090068002803D1AA
:101550000120DFF808170870DFF800070078DFF8CF
:10156000F416087001BD704780B5DFF8E806007812
:10157000DFF8FC180870DFF824050078C0B2C00955
:10158000C0B200285DD0DFF8E8080078002808D055
:10159000012807D0022817D0042830D005283FD0D2
:1015A0000EE10DE1DFF8DC040088DFF8DC140988C7
:1015B000884204D20420DFF8B818087003E0052040
:1015C000DFF8AC180870FBE0DFF8B8040088DFF83B
:1015D000B8140988884204D30520DFF894180870ED
:1015E0000CE0DFF8A4040088801EDFF89814098856
:1015F000884203DB0420DFF878180870E0E0DFF8A9
:101600008C040078002804D0DFF8840400780028D7
:1016100001D101F065FB0220DFF854180870CFE01B
:10162000DFF868040078012804D0DFF8640400784B
:10163000012801D101F04AFB0220DFF834180870BC
:10164000BEE0DFF82C08007800280DD001280CD06F
:10165000022813D0032823D0042854D0062876D09B
:10166000072800F09180ABE0AAE00020DFF8DC1949
:1016700008700220DFF8F8170870A1E0DFF8040412
:101680000088DFF804140988884204D20420DFF8B7
:10169000E017087003E00620DFF8D41708708FE029
:1016A000DFF8E4030088801EDFF8D8130988884239
:1016B00004DB0420DFF8B817087023E0DFF8C40368
:1016C0000088DFF8C413098888421BD3DFF87C093F
:1016D000007800280AD1DFF878090078DFF86C1963
:1016E00008700620DFF8881708700BE0DFF89C030D
:1016F0000078012804D0DFF898030078012801D190
:1017000001F0E4FA5CE0DFF850050078012801D12F
:1017100001F0B0FBDFF874030078002812D1DFF885
:101720007003007800280DD101F0DAFADFF81C0907
:101730000078002806D0DFF814090078401EDFF892
:101740000C1908700320DFF82817087038E0DFF85C
:101750003C030078012804D0DFF834030078012826
:1017600001D101F0B3FADFF8F0040078002801D1CC
:1017700001F08DFB4EF66020DFF8E41608600720CC
:10178000DFF8EC1608701BE0DFF8D40600680028CC
:101790000BD0BD480088801EBA49098888420FDBFB
:1017A0000420DFF8CC1608700AE0DFF8AC040078FB
:1017B000012801D101F05EFB0320DFF8B4160870A8
:1017C000DFF8AC060078DFF88C14087001BD00006B
:1017D00000100140000C0140001C014000140140B9
:1017E00080B5DFF87004007800280AD0022820D0E5
:1017F00008D304285DD02DD3062800F08D806ED349
:1018000096E095E00020DFF8A8190870DFF8A40939
:10181000007810F0FD00DFF89C1908709A480088E5
:101820001E30DFF8941908800220DFF828140870B1
:101830007EE094480088DFF880190988884204D245
:101840000420DFF81014087003E00520DFF804140A
:1018500008706DE0DFF860090088801E89490988FA
:10186000884204DB0420DFF8EC1308700AE08548A6
:101870000088DFF844190988884203D30520DFF87F
:10188000D4130870DFF828090078012810D1DFF898
:1018900024090078C0F34000C0B2002808D1DFF866
:1018A000C0050068002803D10620DFF8A8130870DF
:1018B0003EE0DFF8A4030078012801D101F0DAFA54
:1018C00072480078002803D071480078002801D1C0
:1018D00001F006FA0320DFF87C13087028E06B485B
:1018E0000078012803D06A480078012801D101F06E
:1018F000EDF9DFF8BC080078002808D1DFF8BC0853
:10190000DFF85C1508600120DFF8A41808700320D8
:10191000DFF8401308700BE0DFF89808007850F00B
:101920000200DFF8901808700320DFF82813087011
:1019300001BD00004A1400204E15002010110020A7
:10194000851000088710000855110008FD120008D6
:101950006715000869150008E117000869190008F3
:10196000A11A0008651C000880B5BA480078DFF8A5
:1019700050180870DFF848080078002806D00228C0
:1019800021D004D3042840D034D356E055E00020C1
:10199000DFF830180870DFF81C08007810F0FD0040
:1019A000DFF81018087037480088374909888842DE
:1019B00004D20320DFF80818087003E00420DFF8E1
:1019C0000018087039E02F4800882F49098888429C
:1019D00004D30420DFF8E81708700AE02A480088DA
:1019E000801E28490988884203DB0320DFF8D017CE
:1019F000087022E098480078002801D101F047FAE9
:101A00000220DFF8BC17087017E09348007801281F
:101A100001D101F02FFADFF8AC070078002808D1D7
:101A2000DFF89807DFF8D01808600120DFF8941776
:101A300008700220DFF888170870DFF88807007840
:101A400001280CD1DFF8B0080068002807D1DFF8C2
:101A50006407007850F00200DFF858170870DFF8CC
:101A6000600700787B49087001BD00003415002034
:101A7000671C0008751E0008552000087921000821
:101A80004321000856140020801400201E15002059
:101A90002215002048140020C514002090140020B6
:101AA00080B56C480078DFF884180870DFF87C088F
:101AB000007800280CD0022817D00AD304283ED082
:101AC00022D306285FD04AD3072800F0A380A9E0DC
:101AD000A8E00020DFF8EC160870DFF8D8060078E0
:101AE00010F0FD00DFF8CC160870DFF8440800881D
:101AF000462804DA0420DFF83418087003E00320D5
:101B0000DFF8281808708DE0DFF828080078012831
:101B100004D0DFF824080078012801D101F0D6F8BC
:101B200001F0B5F90420DFF8341308704C48DFF8F1
:101B3000301308600620DFF8F417087072E046489A
:101B40000078012801D101F095F901F0C9F80420CD
:101B5000C24908700520DFF8D417087062E0DFF88A
:101B6000D007008846280DDB01F0B0F801F08FF9AE
:101B70000420BA4908703A48B94908600620DFF8DD
:101B8000AC1708704EE0B648006800283DD03248D7
:101B90000078012826D1DFF898070088DFF8E818D8
:101BA0000988884235D301F065F90020AD490880E5
:101BB0004FF4FA70AC49088041F28830AB49088094
:101BC0000120A6490870DFF8FC050078002820D124
:101BD000DFF8E805DFF8201708600120DFF8E415DA
:101BE000087016E01C480078002812D1DFF8980829
:101BF0000088801EDFF838170988884209DB01F069
:101C000046F904209549087003E00120DFF81C170D
:101C1000087007E092480068002803D10220DFF82E
:101C20000C170870DFF89C05007801280CD1DFF84C
:101C3000C8060068002807D1DFF87805007850F062
:101C40000200DFF870150870DFF8E006007801493F
:101C5000087001BD3515002028150020C61400208D
:101C6000E0930400704780B5DFF84C0A0078DFF895
:101C7000B0180870DFF8A808007800280BD00228F8
:101C800026D009D3042868D034D3062800F0B080C9
:101C9000C0F08480C9E0C8E00020DFF8B01308700D
:101CA0000020DFF820150870DFF80805007810F034
:101CB000FD00DFF800150870DFF8CC0700881E3043
:101CC000DFF8C41708800220DFF854180870ACE071
:101CD000DFF85C060088DFF8B0170988884204D274
:101CE0000420DFF83C18087003E00520DFF8301806
:101CF00008709AE0DFF890070088801EDFF8301641
:101D00000988884204DB0420DFF81418087023E0F7
:101D1000DFF81C060088DFF87017098888421BD39B
:101D2000DFF82803007800280AD1DFF824030078C0
:101D3000DFF8181308700520DFF8E41708700BE0CF
:101D4000DFF8F0050078012804D0DFF8EC05007812
:101D5000012801D100F0BAFF67E0DFF8C80700787A
:101D6000012801D101F086F8DFF8C80500780028C5
:101D70000FD1DFF8C405007800280AD100F0B0FFC9
:101D8000B2480078002804D0B0480078401EAF491F
:101D900008700320DFF88817087046E0DFF8940524
:101DA0000078012804D0DFF890050078012801D1DF
:101DB00000F08CFFDFF86C070078002801D101F0FB
:101DC00066F84EF6602026490860DFF8F8030078D0
:101DD000002808D1DFF8E403DFF81C1508600120B3
:101DE000DFF8E01308700620DFF8341708701CE0F5
:101DF0001B48006800280DD0DFF88C060088801E84
:101E0000DFF82C15098888420FDB0420DFF8101753
:101E100008700AE0DFF80C070078012801D101F012
:101E200029F80320DFF8F8160870DFF89803007827
:101E300001280CD1DFF8C0040068002807D1DFF8C2
:101E40007403007850F00200DFF868130870DFF8C0
:101E5000D0060078DFF86018087001BD4D1500202D
:101E6000D41300209E140020A0140020A2140020EF
:101E7000C814002080B5DFF840080078DFF83C186F
:101E80000870DFF83808007800280FD0022813D037
:101E90000DD304285ED042D3062800F08F8071D382
:101EA000082800F0C080C0F0A680C7E0C6E002208D
:101EB000DFF808180870C1E0DFF874040088DFF864
:101EC000C8150988884204D20420DFF8F01708708A
:101ED00024E0DFF8EC07B0F9000000281AD0DFF8A2
:101EE00050040088DFF8A015098888420DD3DFF878
:101EF00040040088DFF8C817B1F90010884204DAFE
:101F00000720DFF8B817087008E00820DFF8AC17E2
:101F1000087003E00520DFF8A41708708EE0DFF8F2
:101F200068050088801EDFF808140988884204DBF1
:101F30000420DFF8881708700BE0DFF8F40300884E
:101F4000DFF844150988884203D30520DFF86C17B1
:101F5000087073E0DFF8CC050078012801D100F0AB
:101F600089FFDFF8D0030078002804D0DFF8C80329
:101F70000078002801D100F0B3FE0320DFF83C1701
:101F800008705BE0DFF8AC030078012804D0DFF8CC
:101F9000A8030078012801D100F098FEDFF820079F
:101FA000B0F90000002804D10320DFF810170870F2
:101FB00003E00720DFF8041708703FE0DFF80007B0
:101FC000B0F90000801EDFF868130988884204DB3E
:101FD0000720DFF8E81608700CE0DFF854030088EB
:101FE000DFF8DC16B1F90010884203DB0820DFF8C7
:101FF000CC16087022E0DFF83C030078012804D0FA
:10200000DFF834030078012801D100F05FFEDFF82B
:1020100014050078002801D100F039FF0620DFF810
:102020009C1608700AE0DFF8FC040078012801D152
:1020300000F020FF0620DFF884160870DFF87C0629
:102040000078DFF87416087001BD0000C714002086
:102050003315002080B5DFF860060078DFF86416DD
:102060000870DFF860060078002808D002280CD03D
:1020700006D3042836D01AD305284BD05AE059E0AD
:102080000220DFF84016087054E0DFF8A402008850
:10209000DFF8F4130988884204D20420DFF82416FC
:1020A000087003E00520DFF81C16087042E0DFF836
:1020B000D8030088801EDFF878120988884204DB84
:1020C0000420DFF8001608700BE0DFF864020088D7
:1020D000DFF8B4130988884203D30520DFF8E4153C
:1020E000087027E0DFF83C040078012801D100F0F7
:1020F000C1FEDFF840020078002804D0DFF8380283
:102100000078002801D100F0EBFD0320DFF8B415C2
:1021100008700FE0DFF81C020078012804D0DFF817
:1021200018020078012801D100F0D0FD0320DFF86B
:1021300094150870DFF88C050078DFF87C150870BE
:1021400001BD80B57B480078012803D07A4800782B
:10215000012801D100F0BAFDDFF8C803007801289A
:1021600001D100F087FE0020DFF810180870012070
:10217000DFF84415087001BD80B56E48007801286D
:1021800003D06D480078012801D100F09FFDDFF8F1
:1021900094030078012801D100F06CFE0020DFF8E4
:1021A000DC1708700020DFF81015087001BD000072
:1021B000C91400205315002040140020C027090036
:1021C000CB140020CA14002080B501F0ACF901F056
:1021D000DEFF01F0C7F84FF47A7007F067FFDFF811
:1021E000903A002247F60101062002F039FD08214D
:1021F000DFF87C0A08F0D1F8DFF8A83A002247F6A9
:102200000101062002F02CFD0821DFF8980A08F0F1
:10221000DBF8002004F096FD0120DFF88C1A08801E
:10222000DFF8300A007850F00400DFF8281A087050
:10223000DFF8200A007850F00800DFF8181A08705C
:1022400001F09FFB01F0A2FF01F06AFC01F038FDF4
:1022500001F022FE01F00AFF02F0D6FD02F0CAF8FA
:1022600002F0E0FB02F0A8FE04F0E0FA04F0E2FA6B
:1022700004F0F2FA04F004FC04F04AFC00F024FA42
:1022800000F080FB00F068FD00F040FE00F0AEFFC3
:1022900004F06AFF01F012F805F0B8FC04F080FCCD
:1022A00005F06EFA05F0A2FA05F060FBDFF8080C05
:1022B000007805F0B6FB05F01FFD06F0F9F806F012
:1022C0002DFC06F0E7FE06F0C3FF00F02DF906F046
:1022D00083FF07F065F8FEF761FE07F0DAF8FEF716
:1022E000FBF9FEF7DFFAFEF766FBFEF7F8FB00F0FE
:1022F00005F807F0F9F8A3E7D813002080B500F03F
:102300001DF800F092F800F0C1F800F0EEF801BD01
:10231000DFF82C1A0870DFF82C1A0870DFF8281A7A
:102320000870DFF8981B087070470000CC1400207C
:10233000561400201E1500202215002080B5DFF85D
:10234000000A0078002808D0022816D006D30428F6
:1023500042D02DD305285AD066E065E00120DFF891
:10236000EC190968884740F28A20DFF8E4190880F0
:102370000220DFF8CC19087056E0DFF8D409008895
:10238000002804D10520DFF8B81908700FE0DFF845
:10239000C4080078C0F34010C0B2002807D0322033
:1023A000DFF8AC1908800320DFF8941908703BE0CF
:1023B000DFF89C090088002836D10120DFF88C194D
:1023C0004968884740F28A20DFF884190880042091
:1023D000DFF86C19087027E0DFF87409008800281E
:1023E00004D10520DFF8581908700FE0DFF8640801
:1023F0000078C0F38010C0B2002807D03220DFF888
:10240000501908800520DFF8381908700CE0DFF853
:1024100040090088002807D10120DFF8381908702A
:102420000020DFF81C19087001BD80B5DFF8140921
:102430000078002805D0022812D003D303281ED02C
:1024400021E020E00120DFF80419496988476E2067
:10245000DFF81C1A08800220DFF8E818087012E084
:10246000DFF80C0A008800280DD10120DFF8DC1805
:10247000896988470320DFF8CC18087003E0002042
:10248000DFF8C018087001BD8014002080B5DFF8A7
:10249000B8080078002805D0022812D003D30328FA
:1024A0001ED021E020E00120DFF8A018C96A88478B
:1024B0006E20DFF80C1A08800220DFF88C180870F4
:1024C00012E0DFF8FC09008800280DD10120DFF8B8
:1024D0007C18096B88470320DFF86C18087003E04C
:1024E0000020DFF86418087001BD80B5DFF8CC0962
:1024F0000078002803D002280CD001D30EE00DE0B4
:102500000120DFF84818C96988470220DFF8AC19B4
:10251000087003E00020DFF8A419087001BD000076
:10252000CD1400202815002010B5DFF89809007898
:10253000002817D1DFF890090078002808D1DFF8CB
:102540008C090078022803D00220DFF88419087073
:10255000DFF880090078022803D00220DFF878191C
:102560000870A7E0DFF8EC060078C0F30010C0B2F6
:1025700000284ED0DFF8580C0078012840F09A80EF
:1025800000241BE0DFF854090078210020390841BD
:1025900010F00100DFF8B41751F8241088470CE060
:1025A000202CEFDADFF838090068E04010F0010075
:1025B000DFF8981751F824108847641CDFF82409C5
:1025C00000788442ECDBDFF820090078012804D091
:1025D000DFF818090078012801D100F081FBDFF84D
:1025E00010090078012801D100F051FCDFF804093E
:1025F0000078DFF8041908700020DFF8001908706F
:102600000220DFF8D41808700020DFF8C41B08701F
:1026100050E0DFF8BC0B007800284BD1DFF8E8056C
:102620000068DFF8BC180860DFF8D4080078DFF82D
:10263000AC180870DFF8C0080078DFF8B818087028
:10264000DFF8C0080078DFF8A0180870DFF8840B06
:102650000078DFF898180870DFF87C0B0078DFF856
:1026600090180870DFF89C080078012804D0DFF883
:10267000640B0078012801D100F028FBDFF8580B2B
:102680000078012801D100F0F5FBDFF86C08007834
:10269000012803D10120DFF8701808700120DFF84D
:1026A000381808700220DFF8281808700120DFF8B9
:1026B000201B087010BD000035150020CE1400202E
:1026C0009A140020CF14002080B5DFF83808007875
:1026D000002800F05181DFF8780C007800281FD026
:1026E000022846D01DD3042875D050D3062800F008
:1026F000A480C0F08980082800F0F080C0F0B98084
:102700000A2800F0FC80C0F0CB800C2800F01B8170
:10271000C0F004810E2800F02781C0F024812BE155
:102720002AE1DFF8B80A0078C0F3C000C0B2002880
:102730000DD0012006F07AFE9148007850F020007C
:102740008F4908700D20DFF8081C087010E0DFF8D2
:102750008C0A007810F00100002809D08848007821
:1027600010F0F700864908700220DFF8E41B0870BB
:1027700002E14FF4FA70DFF8681A08800320DFF8EE
:10278000D01B08700220DFF85C1A0870F4E0DFF854
:10279000500A0088002840F0EF800020DFF8AC15D8
:1027A000096D88470020DFF8A415C96C884701200F
:1027B000DFF89815496E8847DFF82C0A007802F098
:1027C000A6F940F6B830DFF8181A08800420DFF8C0
:1027D000801B0870D0E0DFF8080A0088002840F06D
:1027E000CB800120DFF86415096D8847DFF8F80910
:1027F00081794FF47A704143DFF8E40901800520C4
:10280000DFF84C1B0870B7E0DFF8D4090088002817
:1028100040F0B2800120DFF83415C96C8847DFF83A
:10282000C809C1794FF47A704143DFF8B4090180D7
:102830000620DFF81C1B08709EE0DFF8A409008862
:10284000002811D0DFF80C044078C0F34000C0B27B
:1028500000280DD00720DFF8F81A08704FF47A70BE
:10286000DFF87C19088003E00920DFF8E41A08701B
:1028700082E0DFF86C09008800280CD0DFF8D40370
:102880004078C0F34000C0B2002808D10920DFF82A
:10289000C01A087003E00A20DFF8B41A08706BE071
:1028A000DFF84009007800280BD0DFF838090078FD
:1028B000401EDFF8301908700320DFF8941A087002
:1028C0000BE0DFF8F409007850F00100DFF8E819B8
:1028D00008700820DFF8781A08704DE00020DFF853
:1028E0006C14096D88470020DFF86014C96C8847B4
:1028F00000F0ECF90E20DFF8581A08703CE0DFF821
:10290000E808407802F003F94FF4FA60DFF8D018D5
:1029100008800B20DFF8381A08702DE0DFF8C008B7
:102920000088002828D10020DFF82014096D88478E
:102930001348007850F00800114908700C20DFF8A7
:10294000101A087018E0C3484078C0F34000C0B2C5
:10295000002807D1DFF86009007850F00800DFF8A0
:102960005819087008E007E00020DFF89815087093
:102970000020DFF8DC19087001BD000034150020CC
:102980004A14002080B5DFF854080078C0F34000F6
:10299000C0B2002800F03681DFF83808007800283F
:1029A00000F03081DFF8700C0078002822D0012878
:1029B00021D002282CD0032838D0042857D005284D
:1029C0006DD0062800F08380072800F09B8008283F
:1029D00000F0CC80092800F0AB800A2800F0D580F8
:1029E0000B2800F0E1800C2800F0F4800E2800F0A5
:1029F000018107E106E1DFF85C09007810F0EF00E3
:102A0000DFF8501908700220DFF80C1C0870F9E09C
:102A10004FF4FA70DFF8401908800320DFF8F81B44
:102A200008700220DFF834190870EBE0DFF828099D
:102A30000088002840F0E6800020C449896D88475E
:102A40000020C249496D88470120C049896E8847E6
:102A5000DFF89407C07802F079F840F6B830DFF874
:102A6000F81808800420DFF8B01B0870CAE0DFF80F
:102A7000E8080088002840F0C5800120B349896D2E
:102A80008847DFF8640781794FF47A704143DFF8B3
:102A9000C80801800520DFF8801B0870B2E0DFF86D
:102AA000B8080088002840F0AD800120A749496D92
:102AB0008847DFF83407C1794FF47A704143DFF873
:102AC000980801800620DFF8501B08709AE0DFF8B4
:102AD00088080088002810D05E484078C0F3800045
:102AE000C0B200280DD00720DFF82C1B08704FF46F
:102AF0007A70DFF86418088003E00920DFF8181BFB
:102B000008707FE0DFF85008008800280BD051489B
:102B10004078C0F38000C0B2002808D10920DFF857
:102B2000F81A087003E00A20DFF8EC1A087069E070
:102B3000DFF82808007800280BD0DFF8200800789C
:102B4000401EDFF8181808700320DFF8CC1A087050
:102B50000BE0DFF86407007850F00200DFF8581748
:102B600008700820DFF8B01A08704BE000207749A1
:102B7000896D884700207549496D884700F0A6F89F
:102B80000E20DFF8941A08703CE0DFF85C0600794C
:102B900001F0DCFF4FF4FA60DFF8BC1708800B206F
:102BA000DFF8741A08702DE0DFF8AC070088002801
:102BB00028D100206549896D8847DFF8980700789B
:102BC00050F01000DFF88C1708700C20DFF8481A5E
:102BD000087017E01F484078C0F38000C0B200289A
:102BE00007D1DFF8D406007850F01000DFF8C816DF
:102BF000087007E00020DFF8DC1508700020DFF81F
:102C0000181A087001BD000004140020C0B200288A
:102C100002D0012805D008E00220DFF8001A087071
:102C200003E00320DFF8F41908700120DFF8F01941
:102C300008700020DFF8801608800120A449087081
:102C40000420DFF8E01908700120DFF85C1C087030
:102C500070470000461400200E20DFF8C0190870ED
:102C600002209B4908700420DFF8B81908707047EB
:102C700030120020DFF8B01908700120DFF8A01929
:102C800008700020DFF83016088001209049087095
:102C90000420DFF8901908700520DFF8801908700B
:102CA0007047000098120020441400200020DFF834
:102CB000781908700E20DFF8641908700420DFF816
:102CC0006419087002208249087070470120DFF8FB
:102CD0005C1908700020DFF8D41B087070470000F2
:102CE00080B50120874908700120DFF8641608705C
:102CF0000120DFF8E01408700120DFF81C190870CB
:102D0000DFF8D4040078012801D100F0B3F80020E6
:102D1000DFF81819087001BD80B5012079490870E5
:102D20000120DFF82C160870DFF8AC0400780128C9
:102D300001D100F09FF80020DFF8F018087001BD05
:102D40005D1500205C1500205B1500207010002030
:102D5000A41400203215002080B5DFF8D0080078D8
:102D6000002800F08480DFF8440B0078002802D0AF
:102D7000012865D07BE00020624908700020DFF860
:102D8000E01508700020DFF8C81508700020DFF893
:102D900088180870DFF8BC05007810F0F700DFF83D
:102DA000B4150870DFF8AC05007810F0EF00DFF81C
:102DB000A4150870DFF824040078C0F3C000C0B286
:102DC000002807D0002006F031FB0020DFF85C1857
:102DD00008704CE00020DFF8D81A096D8847002001
:102DE000DFF8CC1AC96C88470120DFF8C41A496E95
:102DF00088470020DFF8B81A896D88470020DFF87F
:102E0000B01A496D88470120DFF8A41A896E8847F7
:102E1000DFF8D403807801F07AFEDFF8CC03407944
:102E200001F094FEDFF8C003017A4FF47A70414359
:102E3000DFF8800A01800120DFF8701A087016E0C0
:102E4000DFF8700A0088002811D10020DFF8601A2E
:102E5000496E88470020DFF8581A896E884700209D
:102E6000DFF8481A08700020DFF8C017087001BDAD
:102E7000A61400200120DFF8401A08700020DFF8B7
:102E80003C1A08700020DFF8881C08707047012089
:102E9000D14908700120DFF8101A08700120DFF80E
:102EA000201A08700020DFF8101A08700120DFF8DF
:102EB000601C087070470000391500205A1500206A
:102EC000A81400202F1500204515002041150020D2
:102ED0004015002043150020421500200A1500204F
:102EE00008140020D01400201F15002023150020F6
:102EF0002915002019150020181500201B15002089
:102F0000091500201E1500201A15002080B5B248B2
:102F10000078002800F05A81DFF8A4090078002822
:102F20001FD002284ED01DD304287DD058D30628A8
:102F300000F0AC80C0F09180082800F0F680C0F06E
:102F4000C1800A2800F00781C0F0D3800C2800F06F
:102F50002681C0F00F810E2800F03181C0F02E8153
:102F600034E133E19D480078C0F38000C0B200280E
:102F70000CD0DFF8E003007810F0DF00DFF8D413A6
:102F800008700220DFF8381908701AE093480078BA
:102F9000C0F30010C0B200280FD0012006F061FA83
:102FA000DFF8B003007850F02000DFF8A8130870B5
:102FB0000D20DFF80C19087003E00020DFF800197D
:102FC000087003E14FF4FA70DFF8F41A0880032068
:102FD000DFF8EC1808700220DFF8381B0870F5E005
:102FE000DFF8DC0A0088002840F0F0800020DFF8DD
:102FF000C018096E88470020DFF8B418C96D8847EB
:103000000120DFF8AC18C96E8847DFF80C0B007898
:1030100001F0C0FD40F6B830DFF8A41A08800420A3
:10302000DFF89C180870D1E0DFF8940A00880028C7
:1030300040F0CC800120DFF87818096E8847DFF86F
:10304000D80AC1784FF47A704143DFF8740A0180DE
:103050000520DFF86C180870B8E0DFF8640A008813
:10306000002840F0B3800120DFF84418C96D88477C
:10307000DFF8A40A01794FF47A704143DFF8400A7F
:1030800001800620DFF8381808709FE0DFF8300A6A
:103090000088002811D0DFF8840A4078C0F3C0000F
:1030A000C0B200280DD00720DFF8141808704FF4C4
:1030B0007A70DFF80C1A088003E00920DFF80018A6
:1030C000087083E0DFF8F809008800280CD0DFF8EA
:1030D0004C0A4078C0F3C000C0B2002808D10920D3
:1030E000DFF8DC17087003E00A20DFF8D417087057
:1030F0006CE0DFF8200A007800280BD0DFF8140A13
:103100000078401EDFF80C1A08700320DFF8B017B3
:10311000087009E06848007850F0040066490870BB
:103120000820DFF89C17087050E00020DFF88017B7
:10313000096E88470020DFF87817C96D8847DFF8E7
:1031400078070078002801D1FFF794FE0E20DFF801
:10315000701708703AE0DFF8C009407801F01AFDF6
:103160004FF4FA60DFF8581908800B20DFF8501789
:1031700008702BE0DFF848090088002826D10020DD
:10318000DFF82C17096E88477248007850F020004D
:10319000704908700C20DFF82817087016E0DFF877
:1031A0007C094078C0F3C000C0B2002805D1424875
:1031B000007850F020004049087007E006E0002049
:1031C000054908700020DFF8F816087001BD0000FE
:1031D0004E150020221500202815002090140020F4
:1031E0007C14002021150020B813002080B5DFF8E2
:1031F000C806007800285DD0DFF8C00600780028F7
:1032000002D0012844D055E00020DFF8A81A087049
:103210000020DFF8AC1608704E48007810F0DF0090
:103220004C490870DFF8900A0078C0F38000C0B203
:1032300000281DD00020DFF87816096E884700208E
:10324000DFF86C16C96D88470120DFF86416C96E77
:103250008847DFF8C408807801F09CFCDFF8B808E4
:1032600041794FF47A704143DFF8500A01800AE057
:10327000DFF8440A0078C0F30010C0B2002802D082
:10328000002006F0EEF80120DFF83016087011E09B
:10329000DFF8280A008800280CD10020DFF810167B
:1032A000C96E88470020DFF8141608700020DFF888
:1032B0000816087001BD00004814002080B5DFF832
:1032C0000C0B0078002841D0DFF8EC09007810F0F2
:1032D000140F04D10120DFF8441B087036E0DFF83A
:1032E000280B0078002831D1DFF8BC0500780028D1
:1032F0002CD0DFF82808007810F00100002812D048
:103300000020DFF8AC15096988474FF4FA60DFF850
:10331000101B08800120DFF8381D08700120DFF83D
:10332000FC1A087012E00120DFF88415096988474B
:10333000DFF81C0D0078012808D1DFF8E40A0088C6
:10334000002803D10020DFF8081D087001BD00002F
:10335000201500204A1400207E140020251500208E
:103360002215002010B5FCF710FFFDF737FE0024F2
:1033700006E00020DFF8381551F824108847641C57
:10338000DFF8E80A00788442F3DB4FF40051DFF8FD
:10339000E00A06F04BFA4FF40041DFF8D40A06F0D9
:1033A00042FA4FF48061DFF8C80A06F03FFA4FF4A2
:1033B0008051DFF8BC0A06F036FA8021DFF8B00A47
:1033C00006F034FA4FF40071DFF8A40A06F02BFA85
:1033D0001021DFF89C0A06F029FA4021DFF8900A54
:1033E00006F021FA41F2883000F06AFF0A2001F06D
:1033F0008EFB142001F0AAFB1E2001F0CBFB012064
:10340000DFF8701A08700120DFF86C1A08700120CC
:10341000DFF8681A08700120DFF8641A0870642069
:10342000DFF8601A08706420DFF85C1A0870642006
:10343000DFF8581A08706420DFF8541A08701B204F
:10344000DFF8501A08703420DFF8481A487034202A
:10345000DFF8401A88702620DFF8381AC8704A2032
:10346000DFF8301A08714A20DFF8281A4871032063
:10347000DFF8201A88710320DFF8181AC8710520B8
:10348000DFF8101A08722720DFF88C160870482021
:10349000DFF8841648704820DFF87C168870032017
:1034A000DFF87416C8700320DFF86C160871052069
:1034B000DFF8641648710120DFF8301B0870012026
:1034C000DFF82C1B08700120DFF8281B0870012092
:1034D000DFF8241B08700120DFF8201B0870012092
:1034E000DFF81C1B08700120DFF8181B0870012092
:1034F000DFF8601B08700120DFF85C1B08700120FA
:10350000DFF8581B08700120DFF8541B08700120F9
:10351000DFF8501B08700120DFF84C1B08700020FA
:10352000E149087010BD80B506F080FF5FF480307F
:1035300006F0ACFF06F0D4FFDFF8401C0870DFF89F
:103540003C0C0078012824D1002007F004F800206A
:1035500007F015F84FF4806007F007F8102007F027
:10356000F9F8022007F0EAF85FF4E0115FF4803028
:1035700006F0D2FF012006F0DBFF392007F0A0F8AB
:103580000028FAD0022006F0D7FF06F0DFFF082857
:10359000FBD10121042007F073F80121082007F076
:1035A0006FF80121102007F06BF80121202007F0AF
:1035B00067F80121402007F063F80121802007F01F
:1035C0005FF801214FF4807007F05AF801214FF4A1
:1035D000804007F055F801215FF4003007F060F8F3
:1035E00001215FF4802007F05BF801215FF40020E7
:1035F00007F056F80121012007F032F801214FF4BD
:10360000005007F03DF800F013F806F013FE00F04C
:1036100067F900F057F901BD24150020341500208A
:10362000351500204D1500203315002026150020EB
:1036300080B54FF4E070ADF8000018208DF803005D
:1036400003208DF802006946DFF8340B06F07EF89F
:103650004BF2D060ADF8000010208DF8030003207D
:103660008DF802006946DFF8080806F06FF844F6A6
:103670002010ADF8000048208DF8030003208DF8DD
:1036800002006946DFF8E80706F060F84FF40070C2
:10369000ADF8000018208DF8030003208DF802001B
:1036A0006946DFF8E00A06F051F84FF48060ADF8A3
:1036B000000004208DF803006946DFF8C80A06F010
:1036C00045F80420ADF8000018208DF80300032011
:1036D0008DF802006946DFF8AC0A06F037F80820DA
:1036E000ADF8000004208DF803006946DFF8940A65
:1036F00006F02CF84FF48060ADF8000018208DF82B
:10370000030003208DF802006946DFF8840C06F000
:103710001DF84FF40060ADF8000004208DF80300A0
:103720006946DFF86C0C06F011F84FF48060ADF8D4
:10373000000018208DF8030003208DF80200694670
:10374000DFF83C0A06F002F84FF40060ADF8000024
:1037500004208DF803006946DFF8240A05F0F6FF1F
:103760004FF6FF70ADF8000010208DF80300032025
:103770008DF802006946DFF8100A05F0E7FF4FF206
:103780000C00ADF8000010208DF8030003208DF828
:1037900002006946DFF8200B05F0D8FF4FF47F6088
:1037A000ADF8000048208DF8030003208DF80200DA
:1037B0006946DFF8040B05F0C9FF43F20300ADF8DA
:1037C000000010208DF8030003208DF802006946E8
:1037D000DFF8BC0B05F0BAFF4FF44340ADF8000032
:1037E00048208DF8030003208DF802006946DFF8B9
:1037F000A00B05F0ABFF4FF44050ADF800001020D7
:103800008DF8030003208DF802006946DFF8700987
:1038100005F09CFF4FF46040ADF8000010208DF8DB
:10382000030003208DF802006946DFF8900A05F0D6
:103830008DFF0320ADF8000048208DF80300032021
:103840008DF802006946DFF8280605F07FFF182092
:10385000ADF8000010208DF8030003208DF8020061
:103860006946DFF81C0905F071FF4FF4F050ADF820
:10387000000010208DF8030003208DF80200694637
:10388000DFF8380A05F062FF0420ADF800001020D0
:103890008DF8030003208DF802006946DFF8F00A76
:1038A00005F054FF01BD000037150020271500204A
:1038B00070100020841400202C1500202D150020ED
:1038C0002A15002080B548F6A040FCF744FC0028EB
:1038D00000D0FEE700215FF0FF30FCF729FC01BDBE
:1038E00080B54FF4E06006F047FF0B208DF8000034
:1038F00000208DF8010000208DF8020001208DF8D5
:103900000300684606F03DFF25208DF800000020EA
:103910008DF8010001208DF8020001208DF80300D0
:10392000684606F02EFF26208DF8000000208DF856
:10393000010002208DF8020001208DF80300684686
:1039400006F01FFF27208DF8000000208DF80100F1
:1039500003208DF8020001208DF80300684606F070
:1039600010FF34208DF8000000208DF801000420A5
:103970008DF8020001208DF80300684606F001FF73
:1039800001BD80B5DFF80C0A0088002871D1DFF88E
:10399000080A0088002806D0DFF8FC090088401ECD
:1039A000DFF8F4190880DFF8F4090088002806D051
:1039B000DFF8E8090088401EDFF8E0190880DFF82A
:1039C000E0090088002806D0DFF8D4090088401EEE
:1039D000DFF8CC1908804E480078002823D0DFF8A3
:1039E000C4090068401CDFF8BC190860DFF8B4099E
:1039F000006848F6A041B0FBF1F080B2402808DB37
:103A0000DFF8A409007850F0FC00DFF89C1908707A
:103A100009E0DFF89419097811F0030151EA8001F7
:103A2000DFF884090170DFF8A4030078002806D0CD
:103A30004FF40041DFF8840805F0F8FE05E04FF48C
:103A40000041DFF8780805F0EEFEDFF86009006855
:103A500090F48040DFF854190860DFF850090068DE
:103A600090F40050DFF8441908606420DFF824194E
:103A7000088001BD80B51F20DFF8341908704FF4AD
:103A80000041DFF8EC0305F0D1FE01BD80B54FF435
:103A90000041DFF8DC0305F0C6FE01BD80B54FF440
:103AA0000051DFF8CC0305F0C1FE01BD80B54FF435
:103AB0000051DFF8BC0305F0B6FE01BD00000000B8
:103AC0008614002080B54FF48041DFF8A40305F090
:103AD0009FFE00280DD0DFF8DC0801680122DFF826
:103AE000D00890F9000082401143DFF8C808016057
:103AF0000CE0DFF8C00801680122DFF8B40890F993
:103B0000000082409143DFF8AC08016001BD000075
:103B1000541500202B150020CC1300204614002043
:103B200080B5D8480078002840F07F80DFF888080A
:103B30000078002802D1FFF79DFF1CE0DFF878082D
:103B40000178032291FBF2F002FB1010C0B20028B2
:103B500008D0022803D00ED2FFF7A8FF0BE0FFF732
:103B6000B1FF08E0FFF79AFFDFF844080078401E35
:103B7000DFF83C180870DFF8380890F900000028DA
:103B80004CD5FFF783FF0020DFF82C180870DFF812
:103B900024080068DFF824180860DFF820080068AF
:103BA000800CDFF81C180880DFF81408B0F900005A
:103BB000042190FBF1F0DFF808180880DFF8000816
:103BC0000088DFF80018DFF80028127821F81200CA
:103BD000DFF8F4070078401CDFF8EC170870DFF816
:103BE000E80700780A2803DB0020DFF8DC170870FC
:103BF0000021002205E0DFF8CC0730F81200411860
:103C0000521C0A2AF7DB89B20A2091FBF0F0DFF898
:103C1000BC17088064209B49087006E0DFF898070D
:103C20000078401CDFF89017087001BD80B51F2098
:103C3000DFF89C1708704FF480518D4805F0F6FDB1
:103C400001BD80B54FF48051894805F0ECFD01BD00
:103C500080B54FF48061864805F0E8FD01BD80B570
:103C60004FF48061824805F0DEFD01BD80B54FF460
:103C700000617F4805F0CCFD00280DD0DFF8540727
:103C800001680122DFF8480790F9000082401143E3
:103C9000DFF8400701600CE0DFF838070168012217
:103CA000DFF82C0790F9000082409143DFF82407E9
:103CB000016001BD28150020901400208814002008
:103CC00080B571480078002840F07F80DFF8300D23
:103CD0000078002802D1FFF7A9FF1CE0DFF8200DD3
:103CE0000178032291FBF2F002FB1010C0B2002811
:103CF00008D0022803D00ED2FFF7B1FF0BE0FFF788
:103D0000B5FF08E0FFF7A4FFDFF8C4060078401E07
:103D1000DFF8BC160870DFF8B80690F9000000283C
:103D20004CD5FFF78EFF0020DFF8D41C0870DFF8B9
:103D3000A4060068DFF8A0160860DFF89C0600689B
:103D4000800CDFF898160880DFF89006B0F90000C4
:103D5000042190FBF1F0DFF884160880DFF87C0680
:103D60000088DFF87C16DFF87C26127821F8120034
:103D7000DFF870060078401CDFF868160870DFF87E
:103D8000640600780A2803DB0020DFF85816087064
:103D90000021002205E0DFF8480630F81200411843
:103DA000521C0A2AF7DB89B20A2091FBF0F0DFF8F7
:103DB0003816088064203449087006E0DFF8400CAB
:103DC0000078401CDFF8381C087001BD2F1500205A
:103DD00080B51F20DFF8141608704FF40071DFF86B
:103DE000240C05F023FD01BD80B54FF40071DFF810
:103DF000140C05F018FD01BD80B58021DFF8040C1E
:103E000005F014FD01BD00004515002080B580219E
:103E1000DFF8F00B05F007FD01BD000031150020B3
:103E20009814002080B54FF48071114805F0F0FC23
:103E300000280DD0DFF8D00B01680122DFF8AC05B7
:103E400090F9000082401143DFF8BC0B01600CE0E8
:103E5000DFF8B40B01680122DFF8900590F900004B
:103E600082409143DFF8A00B016001BDD014002017
:103E70000020014062150020691500207015002007
:103E800077150020FA140020FE14002002150020EF
:103E900006150020B813002080B5DFF8540500781F
:103EA000002840F08280DFF8300D0078002802D131
:103EB000FFF78EFF1CE0DFF8200D0178032291FB55
:103EC000F2F002FB1010C0B2002808D0022803D084
:103ED0000ED2FFF79BFF0BE0FFF7A4FF08E0FFF710
:103EE0008BFFDFF808050078401EDFF8001508702A
:103EF000DFF8F80490F9000000284FD5FFF774FFB1
:103F00000020DFF8D41C0870DFF8FC0A0068DFF836
:103F1000FC1A0860DFF8F40A0068800CDFF8F01A79
:103F20000880DFF8EC0AB0F90000042190FBF1F002
:103F3000DFF8DC1A0880DFF8D80AB0F90000401D6D
:103F4000DFF8D01ADFF8D02A127821F81200DFF853
:103F5000C80A0078401CDFF8C01A0870DFF8B80AF9
:103F600000780A2803DB0020DFF8AC1A0870002173
:103F7000002205E0DFF89C0A30F812004118521CBC
:103F80000A2AF7DB89B20A2091FBF0F0DFF88C1ADD
:103F900008806420DFF85814087006E0DFF8380C59
:103FA0000078401CDFF8301C087001BD80B51F2070
:103FB000DFF86C1A08704021DFF8480A05F036FC7B
:103FC00001BD80B54021DFF83C0A05F02CFC01BDA5
:103FD00080B51021DFF82C0A05F028FC01BD80B562
:103FE0001021DFF8200A05F01EFC01BDD2140020CC
:103FF000D5140020D8140020DE140020DB1400208B
:10400000E1140020E414002080B52021DFF8F40939
:1040100005F0FEFB00280DD0DFF86C0B01680122D3
:10402000DFF8FC0990F9000082401143DFF8580BDB
:1040300001600CE0DFF8500B01680122DFF8E009B5
:1040400090F9000082409143DFF83C0B016001BD14
:1040500038150020E7140020EA140020ED14002099
:10406000F0140020F3140020F614002080B5DFF8CF
:10407000D80A0078002840F08080DFF8980C00789B
:10408000002802D1FFF792FF1CE0DFF8880C0178CE
:10409000032291FBF2F002FB1010C0B2002808D0FE
:1040A000022803D00ED2FFF79AFF0BE0FFF7ACFF18
:1040B00008E0FFF78DFFDFF868090078401EDFF8A1
:1040C00060190870DFF8580990F9000000284DD5F4
:1040D000FFF777FF0020DFF83C1C0870DFF8A80A24
:1040E0000068DFF8A81A0860DFF8A00A0068800CF2
:1040F000DFF89C1A0880DFF8980AB0F90000042164
:1041000090FBF1F0DFF8881A0880DFF8840A008855
:10411000DFF8BC1ADFF8BC2A127821F81200DFF8A9
:10412000B40A0078401CDFF8AC1A0870DFF8A40A63
:1041300000780A2803DB0020DFF8981A08700021B5
:10414000002205E0DFF8880A30F812004118521CFE
:104150000A2AF7DB89B20A2091FBF0F0DFF87C1A1B
:1041600008806420DFF8E019087006E0DFF8A40B8F
:104170000078401CDFF89C1B087001BD6A0000201D
:10418000001001400008014000180140704700B5D0
:1041900091B00720ADF8000003208DF80200002048
:1041A0008DF803006946DFF86C0A05F0CFFA0121AB
:1041B000012006F055FA4FF4004006F0EAF901211B
:1041C0004FF4007006F05CFADFF8800A06F016FB88
:1041D000DFF87C0A0690DFF87C0A07900020089040
:1041E0000320099000200A9080200B904FF400706B
:1041F0000C904FF400600D9020200E904FF4005072
:104200000F900020109006A9DFF8400A06F07AFB14
:104210000121DFF8380A06F093FB0020019001200D
:104220008DF8080001208DF809005FF460200390EC
:104230000020049003208DF8140001A9DFF8AC0BD6
:1042400006F0C6FB052301220A21DFF8A00B06F0C9
:1042500029FC052302220B21DFF8900B06F022FC3B
:10426000052303220C21DFF8840B06F01BFC01213F
:10427000DFF8780B06F0DEFB0121DFF8700B06F0AB
:10428000CCFBDFF8680B06F0E2FBDFF8600B06F012
:10429000E3FB0028F9D1DFF8540B06F0E7FBDFF869
:1042A0004C0B06F0E8FB0028F9D10121DFF83C0BAC
:1042B00006F0EBFB11B000BD00140140001C0140F2
:1042C00000B587B0DFF89019B1FBF0F0DFF88C197A
:1042D00008600020ADF816000020ADF81200DFF8ED
:1042E0007C090068401EADF814000020ADF81000F5
:1042F00000208DF8180004A9DFF8AC0B06F03CFC98
:104300006020ADF800000020ADF80C000020ADF8F2
:1043100008000020ADF80E000020ADF80A000120D2
:10432000ADF802000020ADF804000020ADF8060052
:104330006946DFF8740B06F03AFC6946DFF8680B53
:1043400006F06EFC6946DFF8600B06F0A9FC002160
:10435000DFF8540B06F015FD0021DFF84C0B06F0DA
:1043600019FD0021DFF8400B06F01DFD0021DFF8EC
:10437000380B06F0F8FC0121DFF82C0B06F0D4FC1A
:104380000121DFF8240B06F0DDFC07B000BD0000C2
:10439000000C014042140020A4140020A6140020A8
:1043A000A814002030140020531500200C1C0140DC
:1043B000F8140020E8130020F9140020E413002072
:1043C0004C1400205C130020FB1400204E1400202D
:1043D000FC140020F0130020EC13002050140020E7
:1043E00070130020FF14002052140020001500203C
:1043F0000215002080B5DFF8B40A0088002840F0DC
:10440000FE821021DFF8E80905F002FA002822D127
:10441000DFF80409007800282DD0DFF800090078C3
:10442000152810DB0120DFF8F8180870DFF8800A83
:10443000007850F00100DFF8781A08700020DFF8EB
:10444000D818087017E0DFF8D4080078401CDFF8AF
:10445000CC1808700FE0DFF8580A007810F0FE0062
:10446000DFF84C1A08700020DFF8B018087001203F
:10447000DFF8A41808702021DFF8740905F0C8F9E6
:10448000002822D1DFF86C09007800282DD0DFF851
:1044900068090078152810DB0120DFF86019087022
:1044A000DFF80C0A007850F00200DFF8041A0870F8
:1044B0000020DFF84019087017E0DFF83C090078A9
:1044C000401CDFF8341908700FE0DFF8E4090078C9
:1044D00010F0FD00DFF8D81908700020DFF8181977
:1044E00008700120DFF80C1908704021DFF800097E
:1044F00005F08EF9002822D1DFF8040900780028A1
:104500002DD0DFF800090078152810DB0120DFF836
:10451000A4190870DFF89809007850F00400DFF85B
:10452000901908700020DFF8D818087017E0DFF83D
:10453000D4080078401CDFF8CC1808700FE0DFF8D2
:104540007009007810F0FB00DFF864190870002093
:10455000DFF8B01808700120DFF8A4180870802177
:10456000DFF88C0805F054F9002822D1DFF848095B
:10457000007800282DD0DFF844090078152810DBDA
:104580000120DFF83C190870DFF82409007850F0AA
:104590000800DFF81C1908700020DFF81C190870EB
:1045A00017E0DFF818090078401CDFF810190870D0
:1045B0000FE0DFF8FC08007810F0F700DFF8F018E3
:1045C00008700020DFF8F41808700120DFF8E81800
:1045D00008704FF48071DFF8180805F019F9002809
:1045E00022D1DFF8E008007800282DD0DFF8D808C5
:1045F0000078152810DB0120DFF8D0180870DFF8EC
:10460000B008007850F01000DFF8A41808700020FF
:10461000DFF8B018087017E0DFF8AC080078401C2D
:10462000DFF8A41808700FE0DFF88408007810F0B5
:10463000EF00DFF87C1808700020DFF88C18087095
:104640000120DFF8801808704FF40071DFF8A00730
:1046500005F0DEF8002822D1DFF874080078002881
:104660002DD0DFF870080078152810DB0120DFF866
:1046700068180870DFF83808007850F02000DFF87C
:10468000301808700020DFF84818087017E0DFF8CD
:1046900044080078401CDFF83C1808700FE0DFF891
:1046A0001008007810F0DF00DFF804180870002010
:1046B000DFF8201808700120DFF8141808704FF494
:1046C0008061DFF82C0705F0A3F8002822D1DFF87D
:1046D0000C08007800282DD0DFF804080078152891
:1046E00010DB0120DFF8FC170870DFF8C407007842
:1046F00050F04000DFF8B81708700020DFF8DC1732
:10470000087017E0DFF8D8070078401CDFF8D017F2
:1047100008700FE0DFF89807007810F0BF00DFF8AE
:10472000901708700020DFF8B81708700120DFF834
:10473000AC1708704FF40071DFF8AC0705F068F8AB
:10474000002822D1DFF8A407007800282DD0DFF858
:10475000A0070078152810DB0120DFF898170870F3
:10476000DFF84C07007850F08000DFF8441708703D
:104770000020DFF87817087017E0DFF8740700787A
:10478000401CDFF86C1708700FE0DFF82407007892
:1047900010F07F00DFF8181708700020DFF85017BE
:1047A00008700120DFF8441708704FF48071DFF8BB
:1047B000380705F02DF8002822D1DFF83C070078F3
:1047C00000282DD0DFF834070078152810DB0120F1
:1047D000DFF82C170870DFF8D806407850F0010099
:1047E000DFF8CC1648700020DFF80C17087017E0CF
:1047F000DFF808070078401CDFF8001708700FE0AA
:10480000DFF8AC06407810F0FE00DFF8A416487020
:104810000020DFF8E81608700120DFF8DC160870C9
:104820000221DFF8CC0504F0F3FF002822D1DFF8E5
:10483000D406007800282DD0DFF8CC0600781528A3
:1048400010DB0120DFF8C4160870DFF8640640783A
:1048500050F00200DFF8581648700020DFF8A41668
:10486000087017E0DFF8A0060078401CDFF8981603
:1048700008700FE0DFF83806407810F0FD00DFF830
:10488000301648700020DFF8801608700120DFF82D
:10489000741608704FF48041DFF8780304F0B8FF15
:1048A000002822D1DFF86806007800282DD0DFF834
:1048B00064060078152810DB0120DFF85C1608700C
:1048C000DFF8EC05407850F00400DFF8E41548709C
:1048D0000020DFF83C16087017E0DFF83806007893
:1048E000401CDFF8301608700FE0DFF8C405407890
:1048F00010F0FB00DFF8B81548700020DFF8141640
:1049000008700120DFF8081608704FF48041DFF8C6
:10491000D80504F07DFF002822D1DFF800060078DA
:1049200000282DD0DFF8F8050078152810DB0120CD
:10493000DFF8F0150870DFF87805407850F00800CF
:10494000DFF86C1548700020DFF8D015087017E00C
:10495000DFF8CC050078401CDFF8C41508700FE0C4
:10496000DFF84C05407810F0F700DFF84415487088
:104970000020DFF8AC1508700120DFF8A0150870E2
:104980004FF40061DFF8680404F042FF002822D1F0
:10499000DFF89405007800282DD0DFF89005007826
:1049A000152810DB0120DFF888150870DFF80005F6
:1049B000407850F08000DFF8F81448700020DFF8ED
:1049C0006815087017E0DFF864050078401CDFF810
:1049D0005C1508700FE0DFF8D804407810F07F0015
:1049E000DFF8CC1448700020DFF840150870012073
:1049F000DFF8341508700120DFF8B014088001BD1D
:104A0000FD14002000200140F8130020F4130020C2
:104A10005414002084130020031500205614002095
:104A200004150020DFF8F8020078002802D00020EA
:104A3000BB490870DFF8C4030078002803D00020C9
:104A4000DFF8B8130870DFF86C040078002803D092
:104A50000020DFF860140870DFF864040078002894
:104A600003D00020DFF858140870DFF860040078E5
:104A7000002803D00020DFF854140870DFF8580431
:104A80000078002803D00020DFF84C140870DFF80D
:104A900054040078002803D00020DFF84814087080
:104AA000DFF850040078002803D00020DFF8441419
:104AB0000870DFF84C040078002803D00020DFF8ED
:104AC00040140870DFF844040078002803D0002068
:104AD000DFF838140870DFF840040078002803D0AD
:104AE0000020DFF834140870DFF83804007800285C
:104AF00003D00020DFF82C140870DFF834040078AD
:104B0000002803D00020DFF828140870704710B583
:104B10000400E4B2642C00DB6424D4F164044F4844
:104B20000068E4B260436421B0FBF1F0411E89B239
:104B3000DFF8740306F040F9DFF8F8030470002092
:104B4000DFF8F413088010BD0615002010B504002E
:104B5000E4B2642C00DB6424D4F164043F480068B0
:104B6000E4B260436421B0FBF1F0411E89B2DFF88A
:104B7000380306F023F9DFF8C40304700020DFF8DF
:104B8000C013088010BD000000140020FC1300209A
:104B90005814002010B50400E4B2642C00DB642437
:104BA000D4F164042D480068E4B260436421B0FB92
:104BB000F1F0411E89B2DFF8F00206F001F9DFF8EA
:104BC000840304700020DFF88013088010BD00000B
:104BD0009813002007150020011500205A1400200A
:104BE00080B5DFF868030078002812D0DFF85C0396
:104BF0000178DFF85C0305F0B9FB0020DFF84C1307
:104C000008700020DFF84C1308700120DFF848130B
:104C1000087001BD0010014080B5DFF84003007846
:104C2000002812D0DFF834030178DFF8340305F0F0
:104C30009DFB0020DFF8241308700020DFF8241308
:104C400008700120DFF82013087001BD0800024041
:104C50004C2401403413002000A24A04DC1300203D
:104C600030B4FF24C14D2C70C04C6070C0B200281D
:104C700009D0022814D00CD3042820D019D3062838
:104C800028D01DD32EE0B94841800020B749888044
:104C900028E00020B54948800020B449888021E000
:104CA0000020B24948800020B0490871AF484271E5
:104CB00018E00020AD494880AC48828012E011E045
:104CC0000120AA4988707820A849C8700020A74907
:104CD000888007E00120A54988707820A349C87022
:104CE000A2488280A1480188A048408841189F4876
:104CF000808841184FF6FF7041439C48C1800020D6
:104D000003E09A49095C1954401C0828F9DB30BCBF
:104D10007047000005150020D2140020D114002097
:104D2000D3140020F8B580B206F050F80022904B62
:104D300006F05AF800228F4B06F028F904000D0007
:104D40008D48006806F046FA0022894B06F04CF8C0
:104D500022002B0006F01AF904000D0086480068B6
:104D600006F038FA02000B002000290006F056FA7F
:104D70000022824B06F00AF906F07EFC04000D00CA
:104D80007F4AD2E9000122002B0006F02DF87D4E6B
:104D9000D6E9002306F072FC06000F0022002B006B
:104DA0002000290006F020F822002B0006F01CF855
:104DB000754CD4E9002306F017F832003B0006F0EA
:104DC0005DFC02000B000020704906F0DFF80200D5
:104DD0000B005FF066306E4906F050FC00226D4B10
:104DE00006F04CFC06F006FDF4BD00000024014076
:104DF00000140140D5140020D4140020D614002043
:104E0000D8140020D714002080B563480068634997
:104E1000086061484068614948605F4880685F4950
:104E200088605E48006880B2FFF77CFF06F00EFDE8
:104E30005B4908805948406880B2FFF773FF06F06D
:104E400005FD584908805548806880B2FFF76AFF21
:104E500006F0FCFC544908805148B0F900001E30AF
:104E6000B52803D200205149087002E001204F49C3
:104E700008704C48B0F900001E30B52803D200205D
:104E80004B49087002E00120494908704648B0F9D2
:104E900000001E30B52803D200204649087002E009
:104EA00001204449087001BD003401404414002031
:104EB00046140020D9140020DB140020DA1400204E
:104EC000DC140020DE140020DD140020DF1400209C
:104ED000E1140020E0140020E2140020E41400207B
:104EE000E3140020E5140020000C0140E71400202A
:104EF000E6140020E8140020EA140020E914002041
:104F0000EB140020ED140020EC140020EE1400201F
:104F1000F0140020EF140020F1140020F3140020FE
:104F2000F2140020F4140020F6140020F5140020E0
:104F3000F71400200B150020641400200C1500202D
:104F4000661400200D150020681400206A1500204A
:104F5000FC11002067150020691500207115002044
:104F6000641200206E15002070150020C41300206C
:104F70000000044000FEAF405000002000408F4081
:104F800030C3000838C3000828C300080000F03F01
:104F9000661271C00000E03F34130020AC13002003
:104FA0006E14002070140020721400200E150020D2
:104FB0000F1500201015002030B585B0DFF8A80DC2
:104FC0000078002801F04280DFF89C0D0078411E37
:104FD000C9B2DFF8980D01F031FCDFF8901DDFF861
:104FE000882D1278114411F8011CC0B2814241F0A1
:104FF0002180DFF8780D4178DFF8700D8078C9B234
:10500000002929D0022900F0DB81C0F0AA80042900
:1050100000F03A84C0F09F82062900F00A86C0F0B2
:105020008385082900F07486C0F04F860A2900F0B5
:10503000AB86C0F082860C2900F03F87C0F0A886BE
:105040000E2900F09C87C0F07D87102900F0BE87F4
:10505000C0F09B8700F0EEBFDFF8101DC978DFF8C5
:10506000102D1170DFF8041D0979DFF8042D51703F
:10507000DFF8F81C4979DFF8F82C9170DFF8EC1CA8
:105080008979DFF8EC2CD170DFF8E01CC979DFF802
:10509000E42C1170C0B200282AD10120DFF8D81CFE
:1050A000087000241BE0DFF8CC0C007821002039C8
:1050B000084110F00100DFF8C41C51F824108847A3
:1050C0000CE0202CEFDADFF8A80C0068E04010F0CC
:1050D0000100DFF8A81C51F824108847641CDFF891
:1050E000A00C00788442ECDB0020DFF88C1C0870F8
:1050F000DFF8780C0078DFF88C1C0870DFF86C0C97
:105100004078DFF8801C4870DFF8600C8078DFF8AA
:10511000741C8870DFF8540CC078DFF8681CC87005
:10512000DFF8480C0079DFF85C1C0871DFF83C0CF4
:105130004079DFF8501C4871DFF8300C8079DFF8D7
:10514000441C88710721DFF83C0C01F077FBDFF885
:10515000341CC8710821DFF82C0C05F007F900F0A9
:1051600069BFDFF8081C0978DFF8182C1170DFF828
:10517000FC1B4978DFF80C2C5170DFF8F01B8978A4
:10518000DFF8002C9170C0B2002840F01781DFF8E2
:10519000AC0D0068DFF8D81B0860DFF8A40D0088AC
:1051A0004FF4807190FBF1F201FB1200DFF8D41B89
:1051B000C870DFF88C0D00884FF4807190FBF1F01F
:1051C000DFF8C01B0871DFF8A80B0078DFF8B41B0C
:1051D0004871DFF89C0B4078DFF8A81B8871DFF876
:1051E000900B8078DFF89C1BC871DFF8840BC078C7
:1051F000DFF8901B0872DFF87C0B0078DFF8841B67
:105200004872DFF8A40D00884FF4807190FBF1F232
:1052100001FB1200DFF86C1B8872DFF88C0D008830
:105220004FF4807190FBF1F0DFF8581BC872DFF883
:105230007C0D00884FF4807190FBF1F201FB1200AD
:10524000DFF8401B0873DFF8640D00884FF48071AD
:1052500090FBF1F0DFF82C1B4873DFF8540D008849
:105260004FF4807190FBF1F201FB1200DFF8141B88
:105270008873DFF83C0D00884FF4807190FBF1F0EB
:10528000DFF8001BC873DFF8840D00884FF48071CD
:1052900090FBF1F201FB1200DFF8E81A0874DFF866
:1052A0006C0D00884FF4807190FBF1F0DFF8D41A98
:1052B0004874DFF85C0DB0F9000080B24FF48071E3
:1052C00090FBF1F201FB1200DFF8B81A8874DFF8E6
:1052D000400DB0F9000080B24FF4807190FBF1F006
:1052E000DFF8A01AC874DFF8680DB0F9000080B2CA
:1052F0004FF4807190FBF1F201FB1200DFF8841A89
:105300000875DFF84C0DB0F9000080B24FF48071E1
:1053100090FBF1F0DFF86C1A4875DFF8380DB0F942
:10532000000080B24FF4807190FBF1F201FB12009B
:10533000DFF8501A8875DFF81C0DB0F9000080B254
:105340004FF4807190FBF1F0DFF8381AC875DFF880
:10535000080D0088DFF8181A0860DFF8140A0078D2
:10536000DFF8201A0876DFF8080A4078DFF8141A08
:105370004876DFF8FC098078DFF8081A8876DFF8CD
:10538000F009C078DFF8FC19C876DFF8D00C007897
:10539000DFF8F0190877DFF8C80C0078DFF8E419B7
:1053A00048771E21DFF8DC0901F048FADFF8D4194C
:1053B00088771F21DFF8CC0904F0D8FF00F03ABE4F
:1053C000DFF8A8190978DFF8BC291170DFF89C19FB
:1053D0004978DFF8B0295170DFF890198978DFF843
:1053E000A4299170C0B2002840F0B380DFF8B80B58
:1053F00000884FF4807190FBF1F201FB1200DFF89E
:105400008419C870DFF8A00B00884FF4807190FBFE
:10541000F1F0DFF870190871DFF8900B00884FF495
:10542000807190FBF1F201FB1200DFF8581948710E
:10543000DFF8780B00884FF4807190FBF1F0DFF813
:1054400044198871DFF8680B00884FF4807190FB75
:10545000F1F201FB1200DFF82C19C871DFF8500BD4
:1054600000884FF4807190FBF1F0DFF81819087292
:10547000DFF8980B00884FF4807190FBF1F201FB8C
:105480001200DFF800194872DFF8800B00884FF433
:10549000807190FBF1F0DFF8EC188872DFF8700B88
:1054A000B0F9000080B24FF4807190FBF1F201FB83
:1054B0001200DFF8D018C872DFF8540BB0F9000002
:1054C00080B24FF4807190FBF1F0DFF8B8180873E8
:1054D000DFF87C0BB0F9000080B24FF4807190FBD4
:1054E000F1F201FB1200DFF89C184873DFF8600B43
:1054F000B0F9000080B24FF4807190FBF1F0DFF85A
:1055000084188873DFF84C0BB0F9000080B24FF4B8
:10551000807190FBF1F201FB1200DFF86818C8738C
:10552000DFF8300BB0F9000080B24FF4807190FBCF
:10553000F1F0DFF8501808741121DFF8480801F085
:105540007DF9DFF8401848741221DFF8380804F0BC
:105550000DFF00F06FBDDFF814180A79DFF80C18A2
:105560004C794FF4807101FB0424DFF800188A792C
:10557000DFF8F817CD794FF4807101FB0525C0B233
:1055800000284CD1DFF8E407C07807280CD1DFF8F9
:10559000DC070079DFF8CC1A0870DFF8D007007953
:1055A000DFF8C41A087036E0DFF8C007C0780328B7
:1055B00006D1DFF8B80A0580DFF8B40A05800AE0F2
:1055C000DFF8A807C078062805D1DFF8A80A05701B
:1055D000DFF8A40A0570DFF8A43A2A0092B221008D
:1055E00089B2DFF88807C078FFF73AFB0821DFF8B7
:1055F0008C0A04F0D2FEDFF8883A2A0092B2210029
:1056000089B2DFF86807C078FFF72AFB0821DFF8C6
:10561000700A04F0D9FE062001F0D5F833E1C0B2DB
:1056200001283DD1DFF84407C078072806D1DFF80C
:105630003C070079DFF82C1A08702DE0DFF83C3ABF
:105640002A0092B2210089B2DFF82007C078FFF764
:1056500007FB0821DFF8240A04F09FFEDFF80C079F
:10566000C078032803D1DFF8040A058014E0DFF8CE
:10567000FC06C07806280FD1DFF8F8090570DFF8BE
:10568000E40901784FF47A704143DFF8AC0B016014
:105690000020DFF8A81B0870062001F094F8F2E063
:1056A000C0B202283DD1DFF8C406C078072806D171
:1056B000DFF8B8060079DFF8B01908702DE0DFF8E0
:1056C000C0392A0092B2210089B2DFF8A006C07862
:1056D000FFF7C6FA0821DFF8A80904F075FEDFF825
:1056E0008C06C078032803D1DFF88409058014E014
:1056F000DFF87806C07806280FD1DFF87C0905703E
:10570000DFF8640901784FF47A704143DFF8300B19
:1057100001600020DFF82C1B0870062001F053F810
:10572000B1E0C0B203281ED1DFF84006C078DFF830
:10573000181B0870DFF834060179DFF8300642796B
:105740004FF4807000FB0211DFF8000B0180002095
:10575000DFF8FC1A08700120DFF8F81A087006203C
:1057600001F031F88FE0C0B2042807D10120DFF842
:105770002C1C0870062001F026F884E0C0B2052831
:1057800010D1DFF8E805C178DFF8E00502794FF4C1
:10579000807000FB0211DFF8C00A0180062001F0D2
:1057A00012F870E0C0B2062835D1DFF8C0050078E5
:1057B000DFF8D0150870DFF8B4054078DFF8C415BD
:1057C0004870DFF8A8058078DFF8B8158870DFF832
:1057D000D00B00884FF4807190FBF1F201FB1200B6
:1057E000DFF8A015C870DFF8B80B00884FF480719F
:1057F00090FBF1F0DFF88C1508710521DFF88405C6
:1058000001F01CF8DFF87C1548710621DFF87405FB
:1058100004F0ACFD37E0C0B2072834D1DFF84C0506
:105820000078DFF860150870DFF840054078DFF891
:1058300054154870DFF834058078DFF84815887013
:10584000DFF8900B00884FF4807190FBF1F201FBC0
:105850001200DFF83015C870DFF8780B00884FF4BD
:10586000807190FBF1F0DFF81C1508710521DFF85D
:10587000140500F0E3FFDFF80C1548710621DFF88E
:10588000040504F073FDD5E3C0B201283AD1DFF876
:10589000DC04C078FFF73BF9DFF8D0040078DFF8CC
:1058A000E4140870DFF8C4044078DFF8D8144870B6
:1058B000DFF8B8048078DFF8CC148870DFF8600B6C
:1058C00000884FF4807190FBF1F201FB1200DFF8C9
:1058D000B414C870DFF8480B00884FF4807190FB57
:1058E000F1F0DFF8A01408710521DFF8980400F04A
:1058F000A5FFDFF8901448710621DFF8880404F052
:1059000035FD10E1C0B202283AD1DFF86004C0785A
:10591000FFF71CF9DFF854040078DFF8681408700A
:10592000DFF848044078DFF85C144870DFF83C0486
:105930008078DFF850148870DFF8E80A00884FF4A8
:10594000807190FBF1F201FB1200DFF83814C8708F
:10595000DFF8D00A00884FF4807190FBF1F0DFF897
:10596000241408710521DFF81C0400F067FFDFF83C
:10597000141448710621DFF80C0404F0F7FCD2E09F
:10598000C0B203283AD1DFF8E403C078FFF702F988
:10599000DFF8D8030078DFF8EC130870DFF8CC03E9
:1059A0004078DFF8E0134870DFF8C0038078DFF854
:1059B000D4138870DFF8EC0A00884FF4807190FBF4
:1059C000F1F201FB1200DFF8BC13C870DFF8D40A53
:1059D00000884FF4807190FBF1F0DFF8A813087194
:1059E0000521DFF8A00300F029FFDFF898134871C4
:1059F0000621DFF8900304F0B9FC94E0C0B204285B
:105A000035D1DFF868030078DFF878130870DFF825
:105A10005C034078DFF86C134870DFF8500380783F
:105A2000DFF860138870DFF8F80900884FF48071A0
:105A300090FBF1F201FB1200DFF84813C870DFF8A9
:105A4000E00900884FF4807190FBF1F0DFF8341327
:105A500008710521DFF82C0300F0F0FEDFF82413B5
:105A600048710621DFF81C0304F080FC5BE0C0B243
:105A700005282BD1BD480078DFF808130870BB4813
:105A80004078C0494870B9488078BE498870DFF8CE
:105A9000940900884FF4807190FBF1F201FB120031
:105AA000B849C870DFF87C0900884FF4807190FB1A
:105AB000F1F0B44908710521B24800F0BFFEB149C8
:105AC00048710621AF4804F051FC2CE0C0B2062812
:105AD00029D1A6480078AB490870A4484078A94964
