:020000040800F2
:1000000000040020BDA800082DA200082FA20008AF
:1000100031A2000833A2000835A200080000000049
:1000200000000000000000000000000037A20008EF
:1000300039A20008000000003BA200083DA2000811
:100040005B8100085B8100085B81000845A2000815
:100050005B8100085B81000847A200085B81000803
:100060005B8100085BA200085B81000851A70008C3
:100070005B8100085B8100085B8100085B810008F0
:100080005B8100085B8100085B8100085DA20008BD
:100090005FA200085B8100085B81000861A2000884
:1000A0005B81000863A200085B8100085B81000897
:1000B00071A200087FA200088DA200085B810008E1
:1000C0005B8100085B8100085B8100085B810008A0
:1000D0009DA200089FA20008F9A30008E9A4000857
:1000E00035A700084DA700085B8100085B81000868
:1000F0008FA200085B8100085B8100085B8100081B
:100100005B8100084FA700085B8100085B81000845
:10011000D7A500085B8100085B8100085B810008AF
:100120005B8100085B8100085B8100085B8100083F
:1001300040B2002805D40901DFF82C2B40B211543D
:1001400008E00901DFF8C02C40B210F00F001044A5
:1001500000F8041C704780B5411EB1F1807F01D3C7
:10016000012011E0401EDFF8241B08600F215FF022
:10017000FF30FFF7DDFF0020DFF8141B08600720C9
:10018000DFF8881C0860002002BD0020DFF8801C1A
:100190000870DFF8000BDFF8A81BDFF8742C12786A
:1001A00041F82200DFF8680C0078401CDFF8601C82
:1001B0000870DFF8E40ADFF8881BDFF8542C1278A7
:1001C00041F82200DFF8480C0078401CDFF8401CA2
:1001D0000870DFF8C80ADFF8681BDFF8342C1278E3
:1001E00041F82200DFF8280C0078401CDFF8201CC2
:1001F0000870DFF8AC0ADFF8481BDFF8142C12781F
:1002000041F82200DFF8080C0078401CDFF8001CE1
:100210000870DFF8900ADFF8281BDFF8F42B12785B
:1002200041F82200DFF8E80B0078401CDFF8E01B03
:100230000870DFF8100BDFF8081BDFF8D42B1278FA
:1002400041F82200DFF8C80B0078401CDFF8C01B23
:100250000870DFF8F40ADFF8E81ADFF8B42B127838
:1002600041F82200DFF8A80B0078401CDFF8A01B43
:100270000870DFF8D80ADFF8C81ADFF8942B127874
:1002800041F82200DFF8880B0078401CDFF8801B63
:100290000870DFF8BC0ADFF8A81ADFF8742B1278B0
:1002A00041F82200DFF8680B0078401CDFF8601B83
:1002B0000870DFF8A00ADFF8881ADFF8542B1278EC
:1002C00041F82200DFF8480B0078401CDFF8401BA3
:1002D0000870DFF8840ADFF8681ADFF8342B127828
:1002E00041F82200DFF8280B0078401CDFF8201BC3
:1002F0000870DFF8680ADFF8481ADFF8142B127864
:1003000041F82200DFF8080B0078401CDFF8001BE2
:100310000870DFF8000BDFF8281ADFF8F42A1278EB
:1003200041F82200DFF8E80A0078401CDFF8E01A04
:100330000870DFF8E40ADFF8081ADFF8D42A127828
:1003400041F82200DFF8C80A0078401CDFF8C01A24
:100350000870DFF8C80ADFF8E819DFF8B42A127865
:1003600041F82200DFF8A80A0078401CDFF8A01A44
:100370000870DFF8AC0ADFF8C819DFF8942A1278A1
:1003800041F82200DFF8880A0078401CDFF8801A64
:100390000870DFF8900ADFF8A819DFF8742A1278DD
:1003A00041F82200DFF8680A0078401CDFF8601A84
:1003B0000870DFF8740ADFF88819DFF8542A127819
:1003C00041F82200DFF8480A0078401CDFF8401AA4
:1003D0000870DFF8580ADFF86819DFF8342A127855
:1003E00041F82200DFF8280A0078401CDFF8201AC4
:1003F0000870DFF83C0ADFF84819DFF8142A127891
:1004000041F82200DFF8080A0078401CDFF8001AE3
:100410000870DFF8D00ADFF82819DFF8F42912781D
:1004200041F82200DFF8E8090078401CDFF8E01905
:100430000870DFF8B40ADFF80819DFF8D429127859
:1004400041F82200DFF8C8090078401CDFF8C01925
:100450000870DFF8980ADFF8E818DFF8B429127896
:1004600041F82200DFF8A8090078401CDFF8A01945
:100470000870DFF87C0ADFF8C818DFF894291278D2
:1004800041F82200DFF888090078401CDFF8801965
:100490000870DFF8600ADFF8A818DFF8742912780E
:1004A00041F82200DFF868090078401CDFF8601985
:1004B0000870DFF8440ADFF88818DFF8542912784A
:1004C00041F82200DFF848090078401CDFF84019A5
:1004D0000870DFF8280ADFF86818DFF83429127886
:1004E00041F82200DFF828090078401CDFF82019C5
:1004F0000870DFF80C0ADFF84818DFF814291278C2
:1005000041F82200DFF808090078401CDFF80019E4
:100510000870DFF8F009DFF82818DFF8F4281278FF
:1005200041F82200DFF8E8080078401CDFF8E01806
:100530000870DFF8D409DFF80818DFF8D42812783B
:1005400041F82200DFF8C8080078401CDFF8C01826
:100550000870DFF8B809DFF8E817DFF8B428127878
:1005600041F82200DFF8A8080078401CDFF8A01846
:100570000870DFF89C09DFF8C817DFF894281278B4
:1005800041F82200DFF888080078401CDFF8801866
:100590000870DFF88009DFF8A817DFF874281278F0
:1005A00041F82200DFF868080078401CDFF8601886
:1005B0000870DFF86409DFF88817DFF8542812782C
:1005C00041F82200DFF848080078401CDFF84018A6
:1005D0000870DFF84809DFF86817DFF83428127868
:1005E00041F82200DFF828080078401CDFF82018C6
:1005F0000870704780B5DFF82809007800280FD10F
:10060000DFF82009007800280AD10121DFF8C00AAC
:1006100007F09DFD0221DFF8B80A07F098FD3DE0E4
:10062000DFF8FC08007801280FD1DFF8F80800781F
:1006300000280AD10121DFF8980A07F08BFD02217A
:10064000DFF88C0A07F083FD28E0DFF8D408007893
:1006500000280FD1DFF8CC08007801280AD1012149
:10066000DFF86C0A07F073FD0221DFF8640A07F077
:1006700071FD13E0DFF8A808007801280ED1DFF83B
:10068000A4080078012809D10121DFF8440A07F005
:100690005EFD0221DFF8380A07F059FD01BD80B583
:1006A000DFF87C180870FFF7A5FF01BD80B5DFF803
:1006B00074180870FFF79EFF01BD80B5002805D1B2
:1006C0000421DFF80C0A07F042FD04E00421DFF802
:1006D000000A07F03FFD01BD80B5002805D10821C3
:1006E000DFF8EC0907F033FD04E00821DFF8E0094A
:1006F00007F030FD01BD80B5002805D11021DFF8DD
:10070000D00907F024FD04E01021DFF8C40907F048
:1007100021FD01BD80B5DFF8BC090078002811D1AA
:10072000DFF8B409007800280CD14FF40061DFF83D
:10073000A00907F00CFD4FF48051DFF8940907F091
:1007400006FD43E0DFF88C090078012811D1DFF8BD
:100750008809007800280CD14FF40061DFF8700997
:1007600007F0F8FC4FF48051DFF8640907F0EFFC64
:100770002CE0DFF860090078002811D1DFF8580973
:10078000007801280CD14FF40061DFF8440907F02C
:10079000DEFC4FF48051DFF8380907F0DBFC15E090
:1007A000DFF830090078012810D1DFF82C09007833
:1007B00001280BD14FF40061DFF8140907F0C7FCE2
:1007C0004FF48051DFF8080907F0C1FC01BD80B586
:1007D000DFF800190870FFF79DFF01BD80B5DFF855
:1007E000F8180870FFF796FF01BD80B5DFF85C0AC6
:1007F0000078002810D1DFF8580A007800280BD1C3
:100800004FF48071DFF8C80807F0A1FC8021DFF801
:10081000C00807F09CFC40E0DFF8300A00780128AF
:1008200010D1DFF82C0A007800280BD14FF480712A
:10083000DFF89C0807F08EFC8021DFF8940807F0B1
:1008400086FC2AE0DFF8040A0078002810D1DFF8DF
:10085000000A007801280BD14FF48071DFF870088E
:1008600007F075FC8021DFF8680807F073FC14E0DE
:10087000DFF8D809007801280FD1DFF8D409007813
:1008800001280AD14FF48071DFF8440807F05FFCBB
:100890008021DFF83C0807F05AFC01BD80B5DFF885
:1008A000B0190870FFF7A1FF01BD80B5DFF89C19F2
:1008B0000870FFF79AFF01BD80B5002806D14FF4FC
:1008C0000071DFF80C0807F042FC05E04FF40071FE
:1008D000DFF8FC0707F03EFC01BD80B5002806D11B
:1008E0004FF48061DFF8E80707F031FC05E04FF4D2
:1008F0008061DFF8DC0707F02DFC01BD80B5002822
:1009000006D14FF40051DFF8C80707F020FC05E0DE
:100910004FF40051DFF8B80707F01CFC01BD80B5AB
:10092000002806D14FF48041DFF8A40707F00FFC40
:1009300005E04FF48041DFF8980707F00BFC01BD9C
:1009400080B5002806D14FF40041DFF8840707F096
:10095000FEFB05E04FF40041DFF8740707F0FAFBF7
:1009600001BD80B5002805D11021DFF81C0B07F070
:10097000EEFB04E01021DFF8100B07F0EBFB01BDEC
:1009800080B5002805D10421DFF8000B07F0DFFB5C
:1009900004E00421DFF8F40A07F0DCFB01BD80B5B8
:1009A000002806D14FF48051DFF8E40A07F0CFFBAE
:1009B00005E04FF48051DFF8D80A07F0CBFB01BD0A
:1009C00080B5002806D14FF40061DFF8C40A07F0B3
:1009D000BEFB05E04FF40061DFF8B40A07F0BAFB94
:1009E00001BD80B5002805D14021DFF8E40607F0FD
:1009F000AEFB04E04021DFF8D80607F0ABFB01BDF9
:100A000080B5002805D12021DFF8C40607F09FFB40
:100A100004E02021DFF8B80607F09CFB01BD80B59B
:100A2000002806D14FF40041DFF8680A07F08FFB79
:100A300005E04FF40041DFF85C0A07F08BFB01BDD5
:100A400080B5002806D14FF48061DFF8440A07F032
:100A50007EFB05E04FF48061DFF8340A07F07AFB93
:100A600001BD80B5002806D14FF40071DFF8200ADF
:100A700007F06DFB05E04FF40071DFF8140A07F092
:100A800069FB01BD80B5002805D10821DFF8F80910
:100A900007F05DFB04E00821DFF8EC0907F05AFBE2
:100AA00001BD80B5002805D10121DFF8E00907F07C
:100AB0004EFB04E00121DFF8D40907F04BFB01BD38
:100AC00080B5002805D10221DFF8C00907F03FFBFF
:100AD00004E00221DFF8B40907F03CFB01BD80B55A
:100AE00000280DD10821DFF8AC0907F030FBDFF852
:100AF000780B007810F0FE00DFF86C1B08700CE03B
:100B00000821DFF8900907F025FBDFF85C0B00787F
:100B100050F00100DFF8501B087001BD80B50028BF
:100B200005D10421DFF86C0907F011FB04E0042172
:100B3000DFF8600907F00EFB01BD80B500280ED17B
:100B40004FF48051DFF8400907F001FBDFF8180B84
:100B5000007810F0FD00DFF8101B08700DE04FF476
:100B60008051DFF8240907F0F5FADFF8FC0A007875
:100B700050F00200DFF8F01A087001BD80B50028BF
:100B800006D14FF40051DFF8000907F0E0FA05E064
:100B90004FF40051DFF8F00807F0DCFA01BD80B532
:100BA00000280ED14FF48051DFF8E00807F0CFFAAB
:100BB000DFF8B40A007810F0FB00DFF8AC1A087018
:100BC0000DE04FF48051DFF8C40807F0C3FADFF8F6
:100BD000980A007850F00400DFF88C1A087001BD04
:100BE00080B5002806D14FF40051DFF8A00807F0C7
:100BF000AEFA05E04FF40051DFF8900807F0AAFACA
:100C000001BD80B5002806D14FF48041DFF884088B
:100C100007F09DFA05E04FF48041DFF8780807F00F
:100C200099FA01BD80B5002806D14FF40051DFF8D4
:100C3000640807F08CFA05E04FF40051DFF854081F
:100C400007F088FA01BD80B5002806D14FF4805125
:100C5000DFF8400807F07BFA05E04FF48051DFF839
:100C6000340807F077FA01BD00E400E080B5DFF852
:100C700028080078012807D0DFF8F009DFF8F41B16
:100C8000097850F82100804701BD000014E000E021
:100C900018E000E09F060008AD060008BB0600084B
:100CA000D9060008F7060008DFF8C409DFF8BC1908
:100CB0000860DFF8C009DFF8B4194860DFF8B80948
:100CC000DFF8A8198860DFF8B409DFF8A019C86058
:100CD000DFF8AC09DFF894190861DFF8A809DFF83C
:100CE0008C194861DFF8A009DFF880198861DFF806
:100CF0009C09DFF87819C861DFF89409DFF86C19EE
:100D00000862DFF89009DFF864194862DFF88809A3
:100D1000DFF858198862DFF88409DFF85019C862D3
:100D2000DFF87C09DFF844190863DFF87809DFF899
:100D30003C194863DFF87009DFF8301988637047A1
:100D400020100020010A0008E30900089D0800089F
:100D5000AB080008B9080008DB080008CF07000846
:100D6000704780B5DFF8100B0078002806D0022805
:100D700017D004D304283BD02ED344E043E0DFF85F
:100D80002C090088DFF828190988884204D203203A
:100D9000DFF8E41A087003E00420DFF8DC1A0870BA
:100DA00031E0DFF80C090088801EDFF8001909889F
:100DB000884204DB0320DFF8C01A08700BE0DFF87C
:100DC000EC080088DFF8E8180988884203D304207B
:100DD000DFF8A41A087016E0DFF8D80800780028B9
:100DE00001D101F04CF80220DFF88C1A08700AE0FB
:100DF000DFF8C0080078012801D101F037F802209F
:100E0000DFF8741A087001BD18ED00E010E000E092
:100E100049140020DD070008FD0800081F0900082C
:100E2000410900081F0A0008A30A0008C10A0008B7
:100E3000DF0A000880B5DFF880080088002850D15C
:100E4000DFF8340A0078002806D0022817D004D32F
:100E500004283BD02ED344E043E0DFF8500800885C
:100E6000DFF84C180988884204D20320DFF8081AFA
:100E7000087003E00420DFF8001A087031E0DFF8A2
:100E80002C080088DFF828180988884204D3042039
:100E9000DFF8E41908700CE0DFF814080088801E01
:100EA000DFF808180988884203DB0320DFF8C81937
:100EB000087016E0DFF8C4090078002801D101F0BD
:100EC00008FB0220DFF8B01908700AE0DFF8AC096F
:100ED0000078012801D101F0F3FA0220DFF8981917
:100EE000087001BD1D0B00083B0B00087D0B0008BE
:100EF0009F0B0008E10B0008030C0008250C0008FC
:100F0000470C000863090008810900089F090008D0
:100F1000C1090008410A0008630A0008850A0008A0
:100F20003A1400203B14002080B5DFF88C070088BD
:100F3000002840F0CB80DFF840090078DFF8401946
:100F40000870DFF834090078002809D0022817D08B
:100F500007D3042838D025D306286DD046D3B5E072
:100F6000B4E0DFF848070088462804DA0320DFF8F9
:100F70000819087003E00220DFF8FC180870A5E0EB
:100F8000DFF830070078012801D100F06FFF01F091
:100F9000A0FA0320DFF8EC1808700520DFF8D81855
:100FA000087093E0DFF8D4080078012801D101F03F
:100FB00087FA00F064FF0320DFF8C81808700420E7
:100FC000DFF8B418087081E0DFF8E00600884628F2
:100FD0000BDB00F04BFF01F07CFA0320DFF8A418D4
:100FE00008700520DFF8901808706FE0DFF8BC0685
:100FF0000088DFF8BC16098888421CD301F060FA2B
:101000000120DFF8801808700020DFF8141A08802B
:101010004FF4FA70DFF80C1A088041F28830DFF8DC
:10102000081A0880DFF8040ADFF8041A08600620AE
:10103000DFF84418087049E0DFF8F4090068002878
:1010400040D0DFF86C060088801EDFF86016098843
:10105000884215DBDFF824080078002801D101F070
:1010600038FADFF820080078012804D0DFF81408E7
:10107000007802282AD10320DFF80818087025E03C
:10108000DFF828060088DFF82816098888421DD373
:10109000DFF8E8070078012801D101F011FADFF844
:1010A000E4070078032804D0DFF8D8070078002888
:1010B0000CD10120DFF8CC1708700020DFF8601990
:1010C000088003E00120DFF8B017087001BD0000C0
:1010D000001801403C1400203D140020704780B5EA
:1010E000DFF894070078DFF8181A0870DFF888072F
:1010F000007800280AD0022812D008D304284FD044
:1011000020D3062800F0838069D39EE09DE0002074
:10111000DFF8201A08700220DFF85C17087094E0EE
:10112000DFF888050088DFF888150988884204D22E
:101130000420DFF84417087003E00520DFF83817B3
:10114000087082E0DFF868050088801EDFF85C1513
:101150000988884204DB0420DFF81C1708701EE0B1
:10116000DFF848050088DFF848150988884216D35B
:10117000DFF8C009007800280AD1DFF8EC09007810
:10118000DFF8B01908700520DFF8EC16087006E0EB
:10119000DFF820050078012801D100F067FE54E057
:1011A000DFF8D8060078012801D101F089F9DFF8CD
:1011B0000405007800280DD100F061FEDFF8740905
:1011C0000078002806D0DFF86C090078401EDFF8B0
:1011D000641908700320DFF8A016087035E0DFF806
:1011E000D4040078012801D100F040FEDFF88C061D
:1011F0000078002801D101F06CF94EF66020DFF88C
:10120000301808600620DFF8701608701DE0DFF85F
:101210002008006800280DD0DFF894040088801EA4
:10122000DFF88814098888420FDB0420DFF84816AD
:1012300008700AE0DFF844060078012801D101F0C7
:101240003FF90320DFF83016087001BD3E1400207E
:101250003F14002080B5DFF82006007800280AD06F
:1012600002281DD008D304285AD02BD3062800F01A
:10127000848068D389E088E00020DFF8F0180870E7
:101280000020DFF8EC180870DFF8240400881E3016
:10129000DFF8E01808800220DFF8DC15087074E041
:1012A000DFF808040088DFF8CC180988884204D2E7
:1012B0000420DFF8C415087003E00520DFF8B81536
:1012C000087062E0DFF8AC080088801EDFF8DC13ED
:1012D0000988884204DB0420DFF89C1508700BE0C5
:1012E000DFF8C8030088DFF88C180988884203D328
:1012F0000520DFF884150870DFF8700800780128F1
:101300000DD1DFF86C080078002808D1DFF820073D
:101310000068002803D10620DFF85C15087034E06F
:10132000DFF858050078012801D101F0C9F8DFF88D
:1013300084030078002801D100F0A1FD0320DFF82C
:101340003815087021E0DFF86C030078012801D11E
:1013500000F08CFDDFF814080078002808D1DFF8D1
:10136000FC08DFF8CC1608600120DFF800180870D0
:101370000320DFF80415087007E00120DFF8F017FC
:1013800008700320DFF8F014087001BD80B5DFF8A5
:10139000E8040078DFF8C8180870DFF8C40800789F
:1013A000002806D002281DD004D304283DD030D315
:1013B00054E053E00020DFF8AC1808700020DFF89C
:1013C000B0170870B9480088B9490988884204D222
:1013D0000320DFF88C18087003E00420DFF8801881
:1013E00008703BE0B1480088B1490988884204D3BD
:1013F0000420DFF86C1808700AE0AD480088801EF1
:10140000AA490988884203DB0320DFF854180870D2
:1014100024E0DFF868040078002801D101F059F8D1
:101420000220DFF83C18087018E0DFF8500400785C
:10143000012801D101F044F8DFF8280800780028DD
:1014400008D1DFF81808DFF8201808600120DFF85D
:10145000141808700220DFF808180870DFF8040874
:101460000078012808D1DFF800080068002803D1BF
:101470000120DFF8FC160870DFF8E4070078DFF8D9
:10148000F813087001BD000000100140000C01407D
:10149000001C014000140140BE14002080B5DFF89C
:1014A000D8030078DFF824190870DFF820090078E5
:1014B00000280BD0022812D009D304282ED01CD328
:1014C00006284ED03CD307287CD0B9E0B8E00020F5
:1014D000DFF8901708700020DFF894160870734842
:1014E0000088462804DA0420DFF8E018087003E0DA
:1014F0000320DFF8D8180870A2E06E4800780128B1
:1015000001D100F0B3FC00F0E4FF0320DFF8741316
:1015100008700620DFF8B418087091E0DFF85C036B
:101520000078012801D100F0CBFF00F0A8FC0320D7
:10153000DFF8501308700520DFF8901808707FE07E
:101540005A48008846280BDB00F090FC00F0C1FFF1
:101550000320DFF8301308700620DFF870180870D9
:101560006EE05248008852490988884229D300F029
:10157000A7FF0120C34908700020DFF8A4140880E9
:101580004FF4FA70DFF89C14088041F28830DFF8DD
:1015900098140880DFF89404DFF894140860DFF8EA
:1015A000C4060078002808D1DFF8B006DFF8B816C6
:1015B00008600120DFF8AC1608700720DFF80C186F
:1015C00008703DE0DFF868040068002834D038482F
:1015D0000088801E35490988884211DBA7480078B9
:1015E000002801D100F075FFA6480078012803D03B
:1015F000A4480078022823D10320A24908701FE0E4
:101600002A4800882A490988884219D39B480078CB
:10161000012801D100F054FF9A480078032803D034
:101620009848007800280BD10120964908700020C6
:10163000DFF8EC13088003E00220DFF89017087051
:10164000DFF820060078012808D1DFF81C060068C2
:10165000002803D10120DFF818150870DFF86C07A7
:1016600000788549087001BDE0130020C0100020FB
:10167000610D0008630D0008350E0008290F0008F1
:10168000DD100008DF100008551200088D13000857
:101690009D140008BD160008BF1600088918000830
:1016A000351A0008391B0008051B0008EC13002040
:1016B0000814002093140020DE130020704780B52A
:1016C0006D480078DFF8C8180870DFF8C4080078A3
:1016D00000280AD002281AD008D3042857D028D3CB
:1016E000062800F0968070D3AFE0AEE00020DFF86F
:1016F000441408700020DFF86C1508700020DFF833
:10170000701408700220DFF8881808709DE0DFF878
:1017100084080088DFF880180988884204D20420F1
:10172000DFF86C18087003E00520DFF86418087013
:101730008BE0DFF864080088801EDFF858180988FD
:10174000884204DB0420DFF8481808701EE0DFF848
:1017500044080088DFF840180988884216D3DFF86B
:10176000D403007800280AD1DFF8FC030078DFF802
:10177000C41308700520DFF81818087006E0DFF8B9
:101780001C080078012801D100F070FB5DE03B48A7
:101790000078012801D100F093FEDFF800080078FE
:1017A00000280DD100F06BFBDFF8880300780028DB
:1017B00006D0DFF880030078401EDFF87813087049
:1017C0000320DFF8CC1708703FE0DFF8D00700787F
:1017D000012801D100F04AFB28480078002801D1F7
:1017E00000F077FE4EF6602091490860DFF874043F
:1017F0000078002808D1DFF86404DFF86C14086072
:101800000120DFF8601408700620DFF884170870E4
:101810001BE08748006800280DD0DFF87C070088AF
:10182000801EDFF87017098888420EDB0420DFF87D
:101830006017087009E011480078012801D100F014
:101840003FFE0320DFF848170870DFF8180400781F
:10185000012808D1DFF810040068002803D1012016
:10186000DFF80C130870DFF82807007802490870C9
:1018700001BD0000A7140020A81400209914002026
:1018800040140020BD14002080B5DFF81407008844
:10189000002840F0C480DFF80C07007800280FD043
:1018A000022813D00DD304285ED042D3062800F0BE
:1018B00085806CD3082800F0AC80C0F09C80AEE03E
:1018C000ADE00220DFF8DC160870A8E0DFF8C406FF
:1018D0000088DFF8C4160988884204D20420DFF8A3
:1018E000C416087024E0DFF8C006B0F90000002834
:1018F0001AD0DFF8A0060088DFF89C160988884215
:101900000DD3DFF890060088DFF89C16B1F90010BF
:10191000884204DA0720DFF88C16087008E00820F7
:10192000DFF88016087003E00520DFF878160870ED
:1019300075E0DFF864060088801EDFF85816098815
:10194000884204DB0420DFF85C1608700BE0DFF847
:1019500044060088DFF840160988884203D3052032
:10196000DFF8401608705AE0DFF84C0B00780128C9
:1019700001D100F0A5FDDFF824060078002801D190
:1019800000F07DFA0320DFF81C16087047E0DFF84E
:101990000C060078012801D100F068FADFF808068B
:1019A000B0F90000002804D10320DFF8F815087012
:1019B00003E00720DFF8EC15087030E0DFF8E805F9
:1019C000B0F90000801EDFF8CC150988884204DBDE
:1019D0000720DFF8D01508700CE0DFF8B8050088A4
:1019E000DFF8C415B1F90010884203DB0820DFF8E6
:1019F000B415087013E0DFF8A4050078012801D1C0
:101A000000F034FA00F065FD0620DFF89815087044
:101A100005E000F055FD0620DFF88815087001BDCF
:101A200026140020281400202A140020E09304002B
:101A30008413002080B5DFF86805008800285ED197
:101A4000DFF860050078002808D002280CD006D303
:101A5000042836D01AD3052846D050E04FE00220A3
:101A6000DFF8401508704AE0DFF828050088DFF845
:101A700028150988884204D20420DFF82815087048
:101A800003E00520DFF81C15087038E0DFF80805D2
:101A90000088801EDFF8FC140988884204DB0420DB
:101AA000DFF8001508700BE0DFF8E8040088DFF8C5
:101AB000E8140988884203D30520DFF8E814087089
:101AC0001DE0DFF8F4090078012801D100F0F8FCEE
:101AD000DFF8C8040078002801D100F0D0F9032015
:101AE000DFF8C01408700AE0DFF8B00400780128BD
:101AF00001D100F0BBF90320DFF8A814087001BD84
:101B00004214002080B5DFF894040078012801D148
:101B100000F0ACF9DFF8A0090078012801D100F04D
:101B2000CFFC0020DFF8941908700120DFF874144E
:101B3000087001BD4114002080B5DFF86004007812
:101B4000012801D100F092F9DFF86C090078012832
:101B500001D100F0B5FC0020DFF86019087000200A
:101B6000DFF84014087001BDA614002043140020C3
:101B700044140020D813002080B500F0DFFF01F0EE
:101B80009CFD00F0EFFEDFF86C39002247F6010102
:101B9000062002F0DBFA0821DFF8580906F091FB75
:101BA000DFF85439002247F60101062002F0CEFA90
:101BB0000821DFF8440906F09BFB082004F024F814
:101BC000072004F021F801F0D1F901F075FD01F0D2
:101BD00045FA01F017FB01F0E7FB01F0E1FC02F030
:101BE00087FB01F099FE02F0AFF902F055FC03F01B
:101BF0004DFE03F04FFE03F05FFE03F049FF03F0DC
:101C000089FF00F0D3F900F053F900F085FC00F0F3
:101C100003FE04F089FA00F05DFE05F015F903F00B
:101C2000BFFF04F087FD04F0AFFD04F015FE04F0E3
:101C3000B0FFDFF8980C007805F014F805F06EF9A5
:101C400005F082FD06F0DAF800F010F806F09CF8D6
:101C500006F05AF9FFF70AF8B5E70000C0270900B7
:101C600046140020451400208813002010B5DFF82A
:101C70008C080078002812D1DFF884080078022848
:101C800003D00220DFF87C180870DFF87C080078A9
:101C9000022803D00220DFF87418087095E0DFF8FE
:101CA00050080078C0F30010C0B2002849D0DFF817
:101CB0008C0C0078012840F0888000241BE0DFF8BD
:101CC0005008007821002039084110F00100DFF8A9
:101CD000441851F8241088470CE0202CEFDADFF884
:101CE000180B0068E04010F00100DFF8281851F8E8
:101CF00024108847641CDFF8040B00788442ECDB76
:101D0000DFF8FC0A0078012801D100F0B8F8DFF80C
:101D1000F40A0078012801D100F0DBFBDFF8E80AC3
:101D20000078DFF8E81A08700020DFF8E41A08707D
:101D30000220DFF8D81708700020DFF8001C0870B8
:101D400043E0DFF8F80B007800283ED1DFF89C076D
:101D50000068DFF8A41A0860DFF8B80A0078DFF836
:101D6000B0170870DFF8A40A0078DFF89C1A087032
:101D70008A480078DFF8881A0870DFF83C07007896
:101D8000DFF8801A087085480078012801D100F03A
:101D90006DF8DFF824070078012801D100F090FBEE
:101DA000DFF8680A0078012803D10120DFF8201B42
:101DB00008700120DFF8541708700220DFF844177C
:101DC00008700120DFF8741B087010BD4714002054
:101DD000C0B2002802D0012805D008E00220DFF8B8
:101DE000DC16087003E00320DFF8D016087001202D
:101DF0006C49087000206A4908800120DFF8041748
:101E000008700120DFF8201D087070470E20DFF8F1
:101E1000AC1608700220DFF8EC1608700320DFF81B
:101E2000201B08707047DFF81C1B087001205D49FB
:101E3000087000205A4908800120DFF8C816087091
:101E40000520DFF87816087070470020DFF8F41AD4
:101E500008700E20DFF8641608700320DFF8E01A1F
:101E600008700220DFF89C16087070470120DFF828
:101E7000D81A08700020DFF8D41A0870704780B5AF
:101E80000120464908700020DFF8C41A0870DFF806
:101E900028060078012801D100F012FB01BD0120C5
:101EA000DFF8B01A08700020DFF8801C0870704757
:101EB00080B5DFF8940A0078002867D0DFF88C0A34
:101EC0000078002802D0012849D05FE00020334983
:101ED0000870DFF8840A0078C0F3C000C0B20028A0
:101EE00007D0002006F047F80020DFF85C1A0870E1
:101EF0004CE00020DFF81C16096D88470020DFF851
:101F00001416C96C88470120DFF80816496E884707
:101F10000020DFF80016896D88470020DFF8F415EF
:101F2000496D88470120DFF8EC15896E8847DFF896
:101F30002C0A807802F07EF8DFF8200A407902F05F
:101F40008FF8DFF8180A017A4FF47A704143DFF80E
:101F5000100A01800120DFF8F419087016E0DFF89C
:101F6000000A0088002811D10020DFF8A815496E6A
:101F700088470020DFF89C15896E88470020DFF82D
:101F8000CC1908700020DFF8C019087001BD0000EE
:101F900048140020EC1300200814002093140020A3
:101FA000DE130020A81400202214002080B5DFF8E2
:101FB000800C0078002800F07E82DFF89409007819
:101FC00000281BD0022844D035D3042800F0F88024
:101FD00077D3062800F04A81C0F00F81082800F06E
:101FE0007481C0F0C4810A2800F04682C0F03082BB
:101FF0000C2800F05C82C0F059825CE2DFF85809DE
:102000000078C0F3C000C0B2002807D0012005F05E
:10201000B2FF0A20DFF8381908700BE0DFF8100B68
:10202000007810F0F700DFF8081B08700120DFF8D7
:10203000201908703FE24FF4FA70DFF8F81A0880B0
:102040000220DFF80C1908700220DFF8EC1A087083
:1020500031E2DFF8E00A0088002840F02C820020FE
:10206000DFF8B014096D88470020DFF8A814C96CA8
:1020700088470020DFF89C14896D88470020DFF82E
:102080009414496D88470120DFF88814496E884709
:102090000120DFF88014896E8847DFF8C0080078D7
:1020A00001F0C8FFDFF8B408C07801F0D9FF40F6AE
:1020B000B830DFF8801A08800320DFF89418087021
:1020C000F9E1DFF8700A0088002840F0F481DFF8B9
:1020D0008808007810F00300012827D1DFF81004E9
:1020E0004078C0F34000C0B200280CD0DFF8440BA9
:1020F000007850F04000DFF83C1B08700C20DFF83F
:10210000501808705BE00120DFF80814096D88475B
:10211000DFF8480881794FF47A704143DFF8140AF8
:1021200001800420DFF82818087048E0DFF828084C
:10213000007810F00300032841D1DFF8B4034078A1
:1021400010F0060F24D0DFF8A8034078C0F3400059
:10215000C0B2002807D0DFF8DC0A007850F0400059
:10216000DFF8D01A0870DFF888034078C0F38000E9
:10217000C0B2002807D0DFF8BC0A007850F0800019
:10218000DFF8B01A08700C20DFF8C417087016E0EA
:102190000120DFF88013096D88470120DFF87413F0
:1021A000896D8847DFF8B40781794FF47A7041432D
:1021B000DFF8800901800420DFF8941708707AE1C5
:1021C000DFF870090088002840F075810120DFF8F1
:1021D0004413C96C88470120CE49496D8847DFF810
:1021E0007C07C1794FF47A704143DFF848090180D8
:1021F0000520DFF85C1708705DE1DFF8380900881A
:1022000000282ED0DFF85007007810F003000128D6
:1022100010D1B7484078C0F34000C0B2002824D0A5
:102220000620DFF82C1708704FF47A70DFF80419D5
:1022300008801AE0DFF82007007810F00300032878
:1022400013D1AB48407810F0060006280DD10620C7
:10225000DFF8FC1608704FF47A70DFF8D8180880A1
:1022600003E00820DFF8E816087024E1DFF8C4086E
:102270000088002824D0DFF8E006007810F0030082
:1022800001280BD19A484078C0F34000C0B2002822
:102290001AD10820DFF8B816087015E0DFF8B80684
:1022A000007810F0030003280ED19148407810F018
:1022B0000600062808D00820DFF89416087003E00E
:1022C0000920DFF88C160870F5E0DFF86C0800785C
:1022D00000280BD0DFF860080078401EDFF858189F
:1022E00008700220DFF8681608703FE0DFF8680623
:1022F000007810F0030001280FD17D484078C0F32A
:102300004000C0B200282DD1DFF82809407850F0F5
:102310000200DFF82019487024E0DFF83C0600785E
:1023200010F0030003281DD171484078C0F340002D
:10233000C0B2002807D1DFF8FC08407850F0020056
:10234000DFF8F01848706A484078C0F38000C0B2E7
:10235000002807D1DFF8DC08407850F00400DFF8EF
:10236000D41848700720DFF8E8150870A3E00020B3
:102370006849096D884700206649C96C8847002074
:102380006449896D884700206249496D8847FFF795
:102390006DFDDFF8C405007810F00300012819D1A5
:1023A000DFF88C070078C0F3C000C0B2002808D066
:1023B000DFF88008007850F00800DFF8781808701F
:1023C00041E0DFF87008007850F00100DFF8641891
:1023D000087038E0DFF88005007810F0030003286B
:1023E00031D1DFF84C070078C0F3C000C0B200283C
:1023F00008D0DFF84008007850F00800DFF8341803
:10240000087007E0DFF82C08007850F00100DFF8D2
:1024100024180870DFF818070078C0F30010C0B265
:10242000002808D0DFF80C08007850F01000DFF822
:102430000418087007E0DFF8FC07007850F002008D
:10244000DFF8F01708700C20DFF80415087032E090
:10245000DFF80805407801F0EDFDDFF800050079B0
:1024600001F0FEFD4FF4FA60DFF8C81608800A207C
:10247000DFF8DC1408701EE0DFF8B80600880028DA
:1024800019D100202349096D884700202149896D11
:102490008847DFF89C06007850F00800DFF89016B7
:1024A00008700B20DFF8A814087004E003E0002097
:1024B000DFF87C17087001BD99140020A7140020D4
:1024C0000120DFF8801B08700020DFF8341D087041
:1024D00070470120DFF8701B08700120DFF84816F4
:1024E00008700020DFF8641B08707047B4130020E8
:1024F000DC130020E011002048120020A31400206B
:10250000B3140020B2140020B5140020B41400202D
:10251000831400202010002080B5DFF82C0B0078F9
:10252000002800F06881DFF8240B007800281BD019
:10253000022854D045D3042800F0A38073D3062882
:1025400000F0D480C0F0B680082800F0E680C0F02B
:10255000FA800A2800F03581C0F024810C2800F0B0
:102560004681C0F0438146E1DFF8EC030078C0F318
:102570008000C0B200280CD0DFF8B405007810F05D
:10258000DF00DFF8AC1508700120DFF8C01A087012
:1025900016E0DFF8C4030078C0F30010C0B20028D2
:1025A0000ED0012005F002FDDFF88405007850F020
:1025B0002000DFF87C1508700B20DFF8901A0870F7
:1025C00019E14FF4FA70DFF8881A08800220DFF86A
:1025D0007C1A08700220DFF87C1A08700BE1DFF823
:1025E000700A0088002840F006810020DFF8A01B58
:1025F000096E88470020DFF8981BC96D88470120C5
:10260000DFF88C1BC96E8847DFF8880B007801F073
:102610003FFD40F6B830DFF8381A08800320DFF8B5
:102620002C1A0870E7E0DFF8280A0088002840F03C
:10263000E2800120DFF8581B096E8847DFF8540B51
:10264000C1784FF47A704143DFF8040A0180DFF863
:10265000640B4078C0F3C000C0B200280CD0DFF893
:10266000D405407850F00100DFF8C81548700C2000
:10267000DFF8D819087003E00420DFF8D0190870DB
:10268000B9E0DFF8CC090088002840F0B4800120D0
:10269000DFF8FC1AC96D8847DFF8F80A01794FF4B2
:1026A0007A704143DFF8A80901800520DFF89C1902
:1026B0000870A0E0DFF898090088002811D0DFF842
:1026C000F40A4078C0F3C000C0B200280DD0062044
:1026D000DFF8781908704FF47A70DFF87419088001
:1026E00003E00820DFF86419087084E0DFF860096F
:1026F000008800280CD0DFF8BC0A4078C0F3C00086
:10270000C0B2002808D10820DFF84019087003E0A3
:102710000920DFF8381908706DE0DFF83809007813
:1027200000280BD0DFF82C090078401EDFF82419B0
:1027300008700220DFF81419087003E00720DFF8A2
:102740000C19087057E00020DFF8441A096E88471A
:102750000020DFF83C1AC96D8847DFF8E8080078E8
:10276000002801D1FFF7ACFEDFF8C4030078C0F306
:102770004010C0B2002808D0DFF8B804007850F04C
:102780002000DFF8B014087007E0DFF8A804007834
:1027900050F00400DFF89C1408700C20DFF8AC182F
:1027A000087028E0DFF8EC09407801F071FC4FF484
:1027B000FA60DFF89C1808800A20DFF8901808708B
:1027C00019E0DFF88C080088002814D10020DFF819
:1027D000C019096E8847D648007850F02000D449C7
:1027E00008700B20DFF86418087004E003E0002094
:1027F000DFF85418087001BDB813002049140020F8
:10280000941400209A1400208F1400208E140020AD
:10281000911400208214002080B5DFF82808007889
:10282000002851D0DFF8D8090078002802D001280C
:1028300038D049E00020DFF81018087046480078CA
:10284000C0F38000C0B200281DD00020DFF840197E
:10285000096E88470020DFF83819C96D88470120C4
:10286000DFF82C19C96E8847DFF82809807801F055
:102870000FFCDFF8200941794FF47A704143DFF80B
:102880001C0B018009E034480078C0F30010C0B28E
:10289000002802D0002005F089FB0120DFF8601934
:1028A000087011E0DFF8F40A008800280CD100203D
:1028B000DFF8DC18C96E88470020DFF8441908707B
:1028C0000020DFF88017087001BD0000AB14002065
:1028D0009014002080B5DFF8C80A007800282CD0BA
:1028E00091480078002828D0DFF8C808007810F058
:1028F000010000280ED00020DFF8941809698847ED
:102900004FF4FA60DFF89C1A08800120DFF8401CC1
:10291000087012E00120DFF8781809698847DFF8AD
:10292000300C0078012808D1DFF8780A00880028E8
:1029300003D10020DFF8181C087001BDBE14002070
:10294000BD140020A6140020971400209814002025
:10295000951400209F1400201614002068130020F6
:102960000A14002010B5FDF710FCFEF79DF90024B5
:1029700006E00020DFF8181851F824108847641C7E
:10298000DFF84C0B00788442F3DB4FF40051DFF8A2
:10299000540B05F0DFFB4FF40041DFF8480B05F066
:1029A000D6FB4FF48061DFF83C0B05F0D3FB4FF40E
:1029B0008051DFF8300B05F0CAFB8021DFF8240BD3
:1029C00005F0C8FB4FF40071DFF8180B05F0BFFBF2
:1029D0001021DFF8100B05F0BDFB4021DFF8040BE0
:1029E00005F0B5FB41F2883000F002FF0A2001F04B
:1029F00021FB142001F034FB1E2001F049FB0120D3
:102A0000DFF8001B08700120DFF8481B0870012068
:102A1000DFF8441B08700120DFF8401B08706420B9
:102A2000DFF83C1B08706420DFF8381B0870642056
:102A3000DFF8341B08706420DFF8301B08701B209F
:102A4000DFF82C1B08703420DFF8241B487034207A
:102A5000DFF81C1B88702620DFF8141BC8704A2082
:102A6000DFF80C1B08714A20DFF8041B48710320B3
:102A7000DFF8FC1A88710320DFF8F41AC87105200A
:102A8000DFF8EC1A08722720DFF8081708704820D2
:102A9000DFF8001748704820DFF8F8168870032028
:102AA000DFF8F016C8700320DFF8E816087105207B
:102AB000DFF8E01648710120DFF8B81A087001202D
:102AC000DFF8B41A08700120DFF8B01A087001208E
:102AD000DFF8AC1A08700120DFF8A81A087001208E
:102AE000DFF8A41A08700120DFF8A01A087001208E
:102AF000DFF89C1A08700120DFF8981A087001208E
:102B0000DFF8941A08700120DFF8901A087001208D
:102B1000DFF89C1B08700120DFF8981B087000206C
:102B2000DFF83415087010BDA9140020A01400208F
:102B3000E0130020061400209614002080B505F054
:102B400009FC5FF4803005F035FC05F05DFCDFF832
:102B5000941C0870DFF88C0C0078012824D1002028
:102B600005F08DFC002005F09EFC4FF4806005F020
:102B700090FC102005F082FD022005F073FD5FF44B
:102B8000E0115FF4803005F05BFC012005F064FC8F
:102B9000392005F029FD0028FAD0022005F060FC5C
:102BA00005F068FC0828FBD10121042005F0FCFC9D
:102BB0000121082005F0F8FC0121102005F0F4FCAB
:102BC0000121202005F0F0FC0121402005F0ECFC63
:102BD0000121802005F0E8FC01214FF4807005F010
:102BE000E3FC01214FF4804005F0DEFC01215FF49D
:102BF000003005F0E9FC01215FF4802005F0E4FCE1
:102C000001215FF4002005F0DFFC0121012005F027
:102C1000BBFC01214FF4005005F0C6FC00F00CF89D
:102C200005F09CFA00F051F900F041F901BD0000F7
:102C300093140020DE13002080B54FF4E070ADF84F
:102C4000000018208DF8030003208DF8020069466B
:102C5000DFF8940B05F00EFA4BF2D060ADF80000EF
:102C600010208DF8030003208DF802006946DFF87C
:102C7000740805F0FFF944F62010ADF80000482074
:102C80008DF8030003208DF802006946DFF8540830
:102C900005F0F0F94FF40070ADF8000018208DF841
:102CA000030003208DF802006946DFF8400B05F0B1
:102CB000E1F94FF48060ADF8000004208DF80300C6
:102CC0006946DFF8280B05F0D5F90420ADF80000BF
:102CD00018208DF8030003208DF802006946DFF804
:102CE0000C0B05F0C7F90820ADF8000004208DF8A2
:102CF00003006946DFF8F40A05F0BCF94FF4806080
:102D0000ADF8000018208DF8030003208DF80200B4
:102D10006946DFF8AC0B05F0ADF94FF40060ADF893
:102D2000000004208DF803006946DFF8940B05F0DD
:102D3000A1F94FF48060ADF8000018208DF8030071
:102D400003208DF802006946DFF89C0A05F092F92D
:102D50004FF40060ADF8000004208DF803006946D0
:102D6000DFF8840A05F086F94FF6FF70ADF8000031
:102D700010208DF8030003208DF802006946DFF86B
:102D8000440B05F077F94FF20C00ADF8000010206D
:102D90008DF8030003208DF802006946DFF8280B48
:102DA00005F068F94FF47F60ADF8000048208DF819
:102DB000030003208DF802006946DFF80C0B05F0D4
:102DC00059F943F20300ADF8000010208DF803001C
:102DD00003208DF802006946DFF8E40A05F04AF99D
:102DE0004FF44340ADF8000048208DF80300032065
:102DF0008DF802006946DFF8C80A05F03BF94FF488
:102E00004050ADF8000010208DF8030003208DF82D
:102E100002006946DFF8D00905F02CF94FF4604054
:102E2000ADF8000010208DF8030003208DF802009B
:102E30006946DFF8980A05F01DF90320ADF8000097
:102E400048208DF8030003208DF802006946DFF862
:102E5000940605F00FF91820ADF8000010208DF849
:102E6000030003208DF802006946DFF87C0905F0B5
:102E700001F94FF4F050ADF8000010208DF8030078
:102E800003208DF802006946DFF8400A05F0F2F8E9
:102E90000420ADF8000010208DF8030003208DF809
:102EA00002006946DFF8180A05F0E4F801BD80B5B4
:102EB00048F6A040FDF74FF9002800D0FEE70021BA
:102EC0005FF0FF30FDF734F901BD80B54FF4E060ED
:102ED00005F0E6FB0B208DF8000000208DF80100C6
:102EE00000208DF8020001208DF80300684605F0EF
:102EF000DCFB25208DF8000000208DF8010001206A
:102F00008DF8020001208DF80300684605F0CDFB26
:102F100026208DF8000000208DF8010002208DF899
:102F2000020001208DF80300684605F0BEFB272053
:102F30008DF8000000208DF8010003208DF80200BC
:102F400001208DF80300684605F0AFFB34208DF8B2
:102F5000000000208DF8010004208DF802000120FF
:102F60008DF80300684605F0A0FB01BDDFF860099D
:102F7000008800281BD1DFF85C09006890F400404D
:102F8000DFF850190860DFF84C09006890F48040C1
:102F9000DFF840190860DFF83C09006890F4005041
:102FA000DFF8301908606420DFF8241908807047C2
:102FB00080B51F20DFF8201908704FF40041DFF8BA
:102FC000240505F0C7F801BD80B54FF40041DFF8D6
:102FD000140505F0BCF801BD80B54FF40051DFF8D1
:102FE000040505F0B7F801BD80B54FF40051DFF8D6
:102FF000F40405F0ACF801BD80B54FF48041DFF872
:10300000E40405F099F800280DD0DFF8D008016835
:103010000122DFF8C40890F9000082401143DFF874
:10302000BC0801600CE0DFF8B40801680122DFF899
:10303000A80890F9000082409143DFF8A0080160E1
:1030400001BD00009D140020991400209B14002055
:103050000C1400209C140020A914002080B5DFF877
:1030600000050078002840F08080DFF874080078C0
:10307000002802D1FFF79CFF1CE0DFF8640801780C
:10308000032291FBF2F002FB1010C0B2002808D01E
:10309000022803D00ED2FFF7A7FF0BE0FFF7ACFF2B
:1030A00008E0FFF799FFDFF830080078401EDFF8EE
:1030B00028180870DFF8200890F9000000284DD586
:1030C000FFF782FF0020DFF818180870DFF80C08FF
:1030D0000068DFF810180860DFF808080068800C46
:1030E000DFF804180880DFF80008B0F900000421B8
:1030F00090FBF1F0DFF8F0170880DFF8EC070088AC
:10310000DFF8E817DFF8E827127821F81200DFF877
:10311000E0070078401CDFF8D8170870DFF8D00708
:1031200000780A2803DB0020DFF8C41708700021AC
:10313000002205E0DFF8B40730F812004118521CF5
:103140000A2AF7DB89B20A2091FBF0F0DFF8A41716
:1031500008806420DFF80814087006E0DFF88007B4
:103160000078401CDFF87817087001BD80B51F207B
:10317000DFF8841708704FF48051DA4804F0EAFF52
:1031800001BD80B54FF48051D64804F0E0FF01BD89
:10319000201000207C13002080B54FF48061D148BE
:1031A00004F0D8FF01BD80B54FF48061CD4804F034
:1031B000CEFF01BDDC13002080B54FF40061C9488B
:1031C00004F0BAFF00280DD0DFF8300701680122B3
:1031D000DFF8240790F9000082401143DFF81C0754
:1031E00001600CE0DFF8140701680122DFF808072E
:1031F00090F9000082409143DFF80007016001BDB3
:103200009E14002080B5D7480078002840F07F80C9
:10321000DFF8100D0078002802D1FFF7A7FF1CE0AF
:10322000DFF8000D0178032291FBF2F002FB101091
:10323000C0B2002808D0022803D00ED2FFF7B3FF97
:103240000BE0FFF7B9FF08E0FFF7A6FFDFF8A806DD
:103250000078401EDFF8A0160870DFF89C0690F991
:10326000000000284CD5FFF78CFF0020DFF8B41CCD
:103270000870DFF888060068DFF884160860DFF859
:1032800080060068800CDFF87C160880DFF8740682
:10329000B0F90000042190FBF1F0DFF86816088017
:1032A000DFF860060088DFF86016DFF86026127825
:1032B00021F81200DFF854060078401CDFF84C16A5
:1032C0000870DFF8480600780A2803DB0020DFF8E2
:1032D0003C1608700021002205E0DFF82C0630F8CB
:1032E00012004118521C0A2AF7DB89B20A2091FB0E
:1032F000F0F0DFF81C16088064209A49087006E098
:10330000DFF8200C0078401CDFF8181C087001BDA5
:1033100080B51F20DFF8FC1508704FF40071DFF84E
:10332000080C04F017FF01BD80B54FF40071DFF801
:10333000F80B04F00CFF01BD80B58021DFF8E80B2D
:1033400004F008FF01BD80B58021DFF8DC0B04F03C
:10335000FEFE01BD80B54FF48071624804F0ECFEC2
:1033600000280DD0DFF8C40B01680122DFF8A405A6
:1033700090F9000082401143DFF8B00B01600CE0CF
:10338000DFF8A80B01680122DFF8880590F900003A
:1033900082409143DFF8940B016001BD0E140020C0
:1033A000A31400202014002080B56F480078002866
:1033B00040F08180DFF8040D0078002802D1FFF78B
:1033C000A7FF1CE0DFF8F40C0178032291FBF2F078
:1033D00002FB1010C0B2002808D0022803D00ED281
:1033E000FFF7B1FF0BE0FFF7B5FF08E0FFF7A4FF21
:1033F000DFF820050078401EDFF818150870DFF8A8
:10340000140590F9000000284ED5FFF78DFF00202D
:10341000DFF8A81C0870DFF8140B0068DFF8101B39
:103420000860DFF80C0B0068800CDFF8081B0880D0
:10343000DFF8000BB0F90000042190FBF1F0DFF899
:10344000F41A0880DFF8EC0AB0F90000401DDFF83C
:10345000E81ADFF8E82A127821F81200DFF8DC0A0F
:103460000078401CDFF8D41A0870DFF8D00A007822
:103470000A2803DB0020DFF8C41A087000210022AC
:1034800005E0DFF8B40A30F812004118521C0A2A8D
:10349000F7DB89B20A2091FBF0F0DFF8A41A08806C
:1034A00064203149087006E0DFF8100C0078401CF9
:1034B000DFF8081C087001BD80B51F20DFF8841AF2
:1034C00008704021DFF8600A04F044FE01BD0000EE
:1034D0004914002080B54021DFF84C0A04F037FE83
:1034E00001BD00000020014080B51021DFF8380A3E
:1034F00004F030FE01BD80B51021DFF82C0A04F085
:1035000026FE01BDC214002080B52021DFF8180A74
:1035100004F012FE00280DD0DFF8A40B0168012290
:10352000DFF8200A90F9000082401143DFF8900B89
:1035300001600CE0DFF8880B01680122DFF8040A63
:1035400090F9000082409143DFF8740B016001BDE7
:10355000AA140020C9140020D0140020D714002081
:1035600074140020781400207C14002080140020A3
:10357000681300204C1400204F1400205214002027
:1035800058140020551400205B1400205E14002005
:103590006114002064140020671400206A140020C5
:1035A00080B5DFF8E80A0078002840F08080DFF876
:1035B000500C0078002802D1FFF77EFF1CE0DFF8F6
:1035C000400C0178032291FBF2F002FB1010C0B214
:1035D000002808D0022803D00ED2FFF78CFF0BE0A2
:1035E000FFF792FF08E0FFF77FFFDFF85809007848
:1035F000401EDFF850190870DFF8480990F9000004
:1036000000284DD5FFF766FF0020DFF8F41B087097
:10361000DFF8AC0A0068DFF8AC1A0860DFF8A40A2B
:103620000068800CDFF8A01A0880DFF89C0AB0F967
:103630000000042190FBF1F0DFF88C1A0880DFF81D
:10364000880A0088DFF8841ADFF8842A127821F8C3
:103650001200DFF87C0A0078401CDFF8741A08704A
:10366000DFF86C0A00780A2803DB0020DFF8601A14
:1036700008700021002205E0DFF8500A30F812003F
:103680004118521C0A2AF7DB89B20A2091FBF0F09C
:10369000DFF8741A08806420DFF8F019087006E07B
:1036A000DFF85C0B0078401CDFF8541B087001BD8C
:1036B0006D14002070140020704700B591B00720F1
:1036C000ADF8000003208DF8020000208DF8030003
:1036D0006946454804F0CEFC0121012004F054FF66
:1036E0004FF4004004F0E9FE01214FF4007004F0B3
:1036F0005BFFDFF84C0A05F015F8DFF8480A069082
:10370000DFF8440A07900020089003200990002069
:103710000A9080200B904FF400700C904FF40060E2
:103720000D9020200E904FF400500F90002010902C
:1037300006A9DFF80C0A05F079F80121DFF8000A84
:1037400005F092F80020019001208DF8080001207A
:103750008DF809005FF4602003900020049003209E
:103760008DF8140001A9DFF86C0B05F0C5F80523EE
:1037700001220A21DFF85C0B05F028F9052302225B
:103780000B21DFF8500B05F021F9052303220C2152
:10379000DFF8400B05F01AF90121DFF8380B05F0CE
:1037A000DDF80121DFF82C0B05F0CBF8DFF8240B56
:1037B00005F0E1F8DFF81C0B05F0E2F80028F9D17C
:1037C000DFF8100B05F0E6F8DFF8080B05F0E7F876
:1037D0000028F9D10121DFF8FC0A05F0EAF811B060
:1037E00000BD00001A000020001001400008014048
:1037F00000B587B0DFF80C1AB1FBF0F0DFF8081A5B
:1038000008600020ADF816000020ADF81200DFF8C7
:10381000F8090068401EADF814000020ADF8100053
:1038200000208DF8180004A9DFF8640B05F038F9C2
:103830006020ADF800000020ADF80C000020ADF8CD
:1038400008000020ADF80E000020ADF80A000120AD
:10385000ADF802000020ADF804000020ADF806002D
:103860006946DFF82C0B05F036F96946DFF8200BC6
:1038700005F06AF96946DFF8180B05F0A5F9002193
:10388000DFF80C0B05F011FA0021DFF8040B05F04E
:1038900015FA0021DFF8F80A05F019FA0021DFF81F
:1038A000F00A05F0F4F90121DFF8E40A05F0D0F997
:1038B0000121DFF8DC0A05F0D9F907B000BD0000EE
:1038C000000C01400018014000140140001C0140A0
:1038D000DA1300200C1C0140721400209813002001
:1038E0007314002094130020E21300200C13002016
:1038F00075140020E413002076140020A01300208B
:103900009C130020E61300202013002079140020CF
:10391000E81300207A14002080B5DFF8780A0078D8
:10392000002840F0FE821021DFF86C0A04F004FC4D
:10393000002822D1DFF8A009007800282DD0DFF878
:103940009C090078152810DB0120DFF89419087015
:10395000DFF8480A007850F00100DFF8401A0870DC
:103960000020DFF87419087017E0DFF8700900789C
:10397000401CDFF8681908700FE0DFF8200A0078B3
:1039800010F0FE00DFF8141A08700020DFF84C1960
:1039900008700120DFF8401908702021DFF8F809CD
:1039A00004F0CAFB002822D1DFF83809007800288B
:1039B0002DD0DFF834090078152810DB0120DFF85E
:1039C0002C190870DFF8D409007850F00200DFF8F5
:1039D000CC1908700020DFF80C19087017E0DFF828
:1039E00008090078401CDFF8001908700FE0DFF8C4
:1039F000AC09007810F0FD00DFF8A0190870002075
:103A0000DFF8E41808700120DFF8D81808704021AA
:103A1000DFF8840904F090FB002822D1DFF8800948
:103A2000007800282DD0DFF87C090078152810DBFD
:103A30000120DFF874190870DFF86009007850F091
:103A40000400DFF8581908700020DFF854190870D6
:103A500017E0DFF850090078401CDFF848190870BB
:103A60000FE0DFF83809007810F0FB00DFF82C19C0
:103A700008700020DFF82C1908700120DFF82019E9
:103A800008708021DFF8100904F056FB002822D1CD
:103A9000DFF81809007800282DD0DFF81409007825
:103AA000152810DB0120DFF80C190870DFF8EC088E
:103AB000007850F00800DFF8E41808700020DFF804
:103AC000EC18087017E0DFF8E8080078401CDFF811
:103AD000E01808700FE0DFF8C408007810F0F70075
:103AE000DFF8B81808700020DFF8C418087001204B
:103AF000DFF8B81808704FF48071DFF89C0804F004
:103B00001BFB002822D1DFF8B008007800282DD058
:103B1000DFF8A8080078152810DB0120DFF8A018CE
:103B20000870DFF87808007850F01000DFF86C18A3
:103B300008700020DFF88018087017E0DFF87C08B4
:103B40000078401CDFF8741808700FE0DFF84C08AC
:103B5000007810F0EF00DFF8441808700020DFF85C
:103B60005C1808700120DFF8501808704FF40071DD
:103B7000DFF8240804F0E0FA002822D1DFF8440836
:103B8000007800282DD0DFF840080078152810DBD9
:103B90000120DFF838180870DFF80008007850F0CE
:103BA0002000DFF8F81708700020DFF818180870F8
:103BB00017E0DFF814080078401CDFF80C180870D4
:103BC0000FE0DFF8D807007810F0DF00DFF8CC173F
:103BD00008700020DFF8F01708700120DFF8E41704
:103BE00008704FF48061DFF8B00704F0A5FA0028F0
:103BF00022D1DFF8DC07007800282DD0DFF8D407C9
:103C00000078152810DB0120DFF8CC170870DFF8EA
:103C10008C07007850F04000DFF880170870002013
:103C2000DFF8AC17087017E0DFF8A8070078401C31
:103C3000DFF8A01708700FE0DFF86007007810F0D9
:103C4000BF00DFF8581708700020DFF888170870E9
:103C50000120DFF87C1708704FF40071DFF87C0753
:103C600004F06AFA002822D1DFF8740700780028EF
:103C70002DD0DFF870070078152810DB0120DFF861
:103C800068170870DFF81407007850F08000DFF83C
:103C90000C1708700020DFF84817087017E0DFF8ED
:103CA00044070078401CDFF83C1708700FE0DFF88D
:103CB000EC06007810F07F00DFF8E01608700020B6
:103CC000DFF8201708700120DFF8141708704FF490
:103CD0008071DFF8080704F02FFA002822D1DFF8FE
:103CE0000C07007800282DD0DFF80407007815288D
:103CF00010DB0120DFF8FC160870DFF8A006407822
:103D000050F00100DFF8941648700020DFF8DC1650
:103D1000087017E0DFF8D8060078401CDFF8D016EE
:103D200008700FE0DFF87406407810F0FE00DFF84E
:103D30006C1648700020DFF8B81608700120DFF814
:103D4000AC1608700221DFF8500604F0F5F90028DF
:103D500022D1DFF8A406007800282DD0DFF89C06D9
:103D60000078152810DB0120DFF894160870DFF8C2
:103D70002C06407850F00200DFF820164870002032
:103D8000DFF87416087017E0DFF870060078401C42
:103D9000DFF8681608700FE0DFF80006407810F0D2
:103DA000FD00DFF8F81548700020DFF850160870A5
:103DB0000120DFF8441608704FF48041DFF8440614
:103DC00004F0BAF9002822D1DFF83C060078002878
:103DD0002DD0DFF838060078152810DB0120DFF839
:103DE00030160870DFF8B405407850F00400DFF8B2
:103DF000AC1548700020DFF81016087017E0DFF8E7
:103E00000C060078401CDFF8041608700FE0DFF89D
:103E10008C05407810F0FB00DFF88015487000201A
:103E2000DFF8E81508700120DFF8DC1508704FF4A2
:103E30008041DFF8A80504F07FF9002822D1DFF8DF
:103E4000D405007800282DD0DFF8CC05007815289F
:103E500010DB0120DFF8C4150870DFF8400540785A
:103E600050F00800DFF8341548700020DFF8A41582
:103E7000087017E0DFF8A0050078401CDFF89815FF
:103E800008700FE0DFF81405407810F0F700DFF855
:103E90000C1548700020DFF8801508700120DFF84D
:103EA000741508704FF40061DFF8EC0404F044F975
:103EB000002822D1DFF86805007800282DD0DFF82F
:103EC00064050078152810DB0120DFF85C15087008
:103ED000DFF8C804407850F08000DFF8C014487064
:103EE0000020DFF83C15087017E0DFF8380500788F
:103EF000401CDFF8301508700FE0DFF8A0044078B0
:103F000010F07F00DFF8941448700020DFF81415DB
:103F100008700120DFF8081508700120DFF874141C
:103F2000087001BD7714002000200140A813002074
:103F3000A4130020EA130020341300207D14002075
:103F4000EC1300207E140020DFF894030078002892
:103F500003D00020DFF888130870DFF890030078A2
:103F6000002803D00020DFF884130870DFF838043D
:103F70000078002803D00020DFF82C140870DFF848
:103F800034040078002803D00020DFF828140870DB
:103F9000DFF82C040078002803D00020DFF820147C
:103FA0000870DFF828040078002803D00020DFF82C
:103FB0001C140870DFF820040078002803D00020CB
:103FC000DFF814140870DFF820040078002803D00C
:103FD0000020DFF814140870DFF8180400780028B7
:103FE00003D00020DFF80C140870DFF81404007808
:103FF000002803D00020DFF808140870DFF8100450
:104000000078002803D00020DFF804140870DFF8DF
:104010000C040078002803D00020DFF8001408709A
:10402000DFF804040078002803D00020DFF8F8133C
:104030000870704780B5C0B2642800DB6420D0F1FE
:10404000640071490968C0B200FB01F06421B0FB53
:10405000F1F0411E89B2DFF8380304F041FE01BDE2
:1040600080B5C0B2642800DB6420D0F164006649EA
:104070000968C0B200FB01F06421B0FBF1F0411E01
:1040800089B2DFF80C0304F02DFE01BD801400207E
:1040900080B5C0B2642800DB6420D0F164005A49C6
:1040A0000968C0B200FB01F06421B0FBF1F0411ED1
:1040B00089B2B74804F018FE01BD00007B1400204F
:1040C000B0130020AC130020EE1300204813002092
:1040D0008114002080B5DFF854030078002812D046
:1040E000DFF848030178DFF8480304F0D3F8002034
:1040F000DFF8381308700020DFF83813087001204B
:10410000DFF83413087001BDF013002080B5DFF82C
:104110002C030078002812D0DFF820030178DFF8A4
:10412000200304F0B7F80020DFF810130870002017
:10413000DFF8101308700120DFF80C13087001BDC0
:10414000080002404C240140E412002030B4FF2457
:10415000BE4D2C70BD4C6070C0B2002809D0022842
:1041600014D00CD3042820D019D3062828D01DD36E
:104170002EE0B64841800020B449888028E0002025
:10418000B24948800020B149888021E00020AF4931
:1041900048800020AD490871AC48427118E0002009
:1041A000AA494880A948828012E011E00120A7496D
:1041B00088707820A549C8700020A449888007E04D
:1041C0000120A24988707820A049C8709F48828049
:1041D0009E4801889D48408841189C488088411825
:1041E0004FF6FF7041439948C180002003E0974992
:1041F000095C1954401C0828F9DB30BC70470000EA
:104200007F14002000A24A048C130020F8B580B26D
:1042100004F070FD00228E4B04F07AFD00228D4BDD
:1042200004F048FE04000D008B48006804F066FFAF
:104230000022874B04F06CFD22002B0004F03AFEB4
:1042400004000D008448006804F058FF02000B00D1
:104250002000290004F076FF0022804B04F02AFEA3
:1042600005F09EF904000D007D4AD2E9000122000C
:104270002B0004F04DFD7B4ED6E9002305F092F9AA
:1042800006000F0022002B002000290004F040FD52
:1042900022002B0004F03CFD734CD4E9002304F011
:1042A00037FD32003B0005F07DF902000B000020D5
:1042B0006E4904F0FFFD02000B005FF066306C49B0
:1042C00005F070F900226B4B05F06CF905F026FA49
:1042D000F4BD0000002401404C1400204B140020C9
:1042E0004D1400204F1400204E14002050140020C4
:1042F00080B561480068614908605F4840685F496F
:1043000048605D4880685D4988605C48006880B2AC
:10431000FFF77CFF05F02EFA59490880574840689E
:1043200080B2FFF773FF05F025FA5649088053481D
:10433000806880B2FFF76AFF05F01CFA52490880D6
:104340004F48B0F900001E30B52803D200204F4975
:10435000087002E001204D4908704A48B0F9000099
:104360001E30B52803D200204949087002E0012020
:10437000474908704448B0F900001E30B52803D200
:1043800000204449087002E001204249087001BD44
:10439000003401404A14002000140140DC130020C6
:1043A00052140020511400205314002055140020F2
:1043B00054140020561400205814002057140020D4
:1043C000591400205B1400205A1400205C140020B3
:1043D0005E1400205D1400205F140020000C0140DA
:1043E0006114002060140020621400206414002076
:1043F0006314002065140020671400206614002058
:1044000068140020001001406A1400206914002084
:104410006B1400206D1400206C1400206E1400201A
:10442000701400206F14002071140020CA140020A2
:10443000AC110020C7140020C9140020D1140020A2
:1044400014120020CE140020D01400207413002079
:104450000000044000FEAF400000002000408F40FC
:10446000D0A80008D8A80008C8A800080000F03F9D
:10447000661271C00000E03FE41200205C130020CF
:10448000F8130020FA130020FC13002084140020ED
:10449000851400208614002038B5DFF8E00C007881
:1044A000002800F03487DFF8D40C0078411EC9B230
:1044B000DFF8CC0C01F0F2F9DFF8C41CDFF8BC2CFB
:1044C0001278114411F8011CC0B2814240F01387E8
:1044D000DFF8AC0C4178DFF8A80C8078C9B200296D
:1044E00027D0022900F0A781C0F0A080042900F0A5
:1044F0008683C0F06B82062900F06985C0F0E184F4
:10450000082900F0DD85C0F0AE850A2900F0068696
:10451000C0F0ED850C2900F0A686C0F003860E29B8
:1045200000F0C986C0F0AA860F2900F0CA8600F004
:10453000E2BEDFF84C1CC978DFF8D42D1170DFF82B
:10454000401C0979DFF8C82D5170DFF8341C497917
:10455000DFF8BC2D9170DFF8281C8979DFF8B02DC9
:10456000D170DFF81C1CC979DFF8A82D1170C0B21A
:10457000002822D100241BE0DFF8980D00782100EC
:104580002039084110F00100DFF88C1D51F824108B
:1045900088470CE0202CEFDADFF8740D0068E0406B
:1045A00010F00100DFF8701D51F824108847641CDA
:1045B000DFF8680D00788442ECDBDFF8C40B00788C
:1045C000DFF85C1D0870DFF8B80B4078DFF8501D8D
:1045D0004870DFF8AC0B8078DFF8441D8870DFF896
:1045E000A00BC078DFF8381DC870DFF8940B007995
:1045F000DFF82C1D0871DFF8880B4079DFF8201DEB
:104600004871DFF87C0B8079DFF8141D8871072171
:10461000DFF80C0D01F042F9DFF8041DC871082124
:10462000DFF8FC0C03F036FE00F065BEDFF8501B2F
:104630000978DFF8EC2C1170DFF8441B4978DFF8BB
:10464000E02C5170DFF8381B8978DFF8D42C91709A
:10465000C0B2002840F0ED80DFF8C80C0068DFF839
:10466000B01C0860DFF8C00C00884FF4807190FB2C
:10467000F1F201FB1200DFF8A81CC870DFF8A80CEB
:1046800000884FF4807190FBF1F0DFF8941C087102
:10469000DFF87C0C0078DFF8881C4871DFF8700CBC
:1046A0004078DFF87C1C8871DFF8640C8078DFF8D4
:1046B000701CC871DFF8580CC078DFF8641C0872F1
:1046C000DFF8500C0078DFF8581C4872DFF85C0CFB
:1046D00000884FF4807190FBF1F201FB1200DFF8CB
:1046E000401C8872DFF8440C00884FF4807190FB06
:1046F000F1F0DFF82C1CC872DFF8340C00884FF49E
:10470000807190FBF1F201FB1200DFF8141C0873BA
:10471000DFF81C0C00884FF4807190FBF1F0DFF89B
:10472000001C4873DFF80C0C00884FF4807190FB7C
:10473000F1F201FB1200DFF8E81B8873DFF8F40BDD
:1047400000884FF4807190FBF1F0DFF8D41BC87340
:10475000DFF8E40B00884FF4807190FBF1F201FB6D
:104760001200DFF8BC1B0874DFF8CC0B00884FF494
:10477000807190FBF1F0DFF8A81B4874DFF8BC0BE8
:10478000B0F9000080B24FF4807190FBF1F201FBB0
:104790001200DFF88C1B8874DFF8A00BB0F9000062
:1047A00080B24FF4807190FBF1F0DFF8741BC87495
:1047B000DFF88C0BB0F9000080B24FF4807190FBF1
:1047C000F1F201FB1200DFF8581B0875DFF8700BDF
:1047D000B0F9000080B24FF4807190FBF1F0DFF887
:1047E000401B4875DFF85C0BB0F9000080B24FF455
:1047F000807190FBF1F201FB1200DFF8241B887539
:10480000DFF8400BB0F9000080B24FF4807190FBEC
:10481000F1F0DFF80C1BC8751821DFF8040B01F06C
:104820003DF8DFF8FC1A08761921DFF8F40A03F0E6
:1048300031FD00F060BDDFF848190978DFF8E02AA3
:104840001170DFF83C194978DFF8D42A5170DFF88D
:1048500030198978DFF8C82A9170C0B2002840F07A
:10486000B380DFF8C80A00884FF4807190FBF1F242
:1048700001FB1200DFF8A81AC870DFF8B00A008840
:104880004FF4807190FBF1F0DFF8941A0871DFF8B3
:10489000A00A00884FF4807190FBF1F201FB120036
:1048A000DFF87C1A4871DFF8880A00884FF48071BD
:1048B00090FBF1F0DFF8681A8871DFF8780A008859
:1048C0004FF4807190FBF1F201FB1200DFF8501AF7
:1048D000C871DFF8600A00884FF4807190FBF1F036
:1048E000DFF83C1A0872DFF8500A00884FF4807134
:1048F00090FBF1F201FB1200DFF8241A4872DFF896
:10490000380A00884FF4807190FBF1F0DFF8101A3C
:104910008872DFF8280AB0F9000080B24FF4807185
:1049200090FBF1F201FB1200DFF8F419C872DFF816
:104930000C0AB0F9000080B24FF4807190FBF1F0E6
:10494000DFF8DC190873DFF8F809B0F9000080B26D
:104950004FF4807190FBF1F201FB1200DFF8C019F7
:104960004873DFF8DC09B0F9000080B24FF48071C1
:1049700090FBF1F0DFF8A8198873DFF8C809B0F9E7
:10498000000080B24FF4807190FBF1F201FB120045
:10499000DFF88C19C873DFF8AC09B0F9000080B2F9
:1049A0004FF4807190FBF1F0DFF874190874112155
:1049B000DFF86C0900F072FFDFF864194874122107
:1049C000DFF85C0903F066FC00F095BCDFF8B01777
:1049D0000A79DFF8AC174C794FF4807101FB04249D
:1049E000DFF89C178A79DFF89817CD794FF480713A
:1049F00001FB0525C0B2002849D1DFF88407C07843
:104A000007280CD1DFF878070079DFF8701B0870F1
:104A1000DFF86C070079DFF8681B0870EBE0DFF85F
:104A20006007C078032806D1DFF8580B0580DFF84F
:104A3000580B05800AE0DFF84807C078062805D142
:104A4000DFF8480B0570DFF8480B0570DFF8443BD2
:104A50002A0092B2210089B2DFF82407C078FFF75C
:104A600075FB0821DFF82C0B03F02BFCDFF8283B4B
:104A70002A0092B2210089B2DFF80407C078FFF75C
:104A800065FB0821DFF8100B03F032FCB3E0C0B285
:104A900001283BD1DFF8E806C078072806D1DFF807
:104AA000E0060079DFF8D41A0870A4E0DFF8E43AF1
:104AB0002A0092B2210089B2DFF8C406C078FFF75D
:104AC00045FB0821DFF8CC0A03F0FBFBDFF8B0065A
:104AD000C078032803D1DFF8AC0A05808BE0DFF84B
:104AE000A006C078062840F08680DFF8A00A05708E
:104AF000DFF8880A01784FF47A704143DFF8E40A5E
:104B000001600020DFF8E01A087074E0C0B20228EB
:104B10003AD1DFF86C06C078072806D1DFF86006C6
:104B20000079DFF85C1A087065E0DFF86C3A2A005B
:104B300092B2210089B2DFF84806C078FFF706FB81
:104B40000821DFF8540A03F0D3FBDFF83406C078FD
:104B5000032803D1DFF8300A05804CE0DFF8200697
:104B6000C078062847D1DFF8280A0570DFF8100A58
:104B700001784FF47A704143DFF8D80A01600020D1
:104B8000DFF8D41A087036E0C0B203281BD1DFF872
:104B9000F005C078DFF8901B0870DFF8E4050179B4
:104BA000DFF8DC0542794FF4807000FB0211DFF87A
:104BB0007C0B01800020DFF8781C08700120DFF8F2
:104BC000BC1C087017E0C0B2042804D10120DFF833
:104BD0008C1A08700FE0C0B205280CD1DFF8A005D0
:104BE000C178DFF89C0502794FF4807000FB021158
:104BF000DFF83C0B0180062000F01CFE7BE3C0B216
:104C000001283AD1DFF87805C078FFF713FADFF80A
:104C100070050078DFF808170870DFF86405407841
:104C2000DFF8FC164870DFF858058078DFF8F016DA
:104C30008870DFF8000B00884FF4807190FBF1F270
:104C400001FB1200DFF8D816C870DFF8E80A008808
:104C50004FF4807190FBF1F0DFF8C4160871052164
:104C6000DFF8BC0600F01AFEDFF8B4164871062122
:104C7000DFF8AC0603F00EFB22E1C0B202283AD105
:104C8000DFF8FC04C078FFF7EBF9DFF8F4040078F4
:104C9000DFF88C160870DFF8E8044078DFF880163B
:104CA0004870DFF8DC048078DFF874168870DFF86D
:104CB000880A00884FF4807190FBF1F201FB12002A
:104CC000DFF85C16C870DFF8700A00884FF4807156
:104CD00090FBF1F0DFF8481608710521DFF8400677
:104CE00000F0DCFDDFF8381648710621DFF83006E9
:104CF00003F0D0FAE4E0C0B203283AD1DFF8800430
:104D0000C078FFF7C5F9DFF878040078DFF81016EF
:104D10000870DFF86C044078DFF804164870DFF89C
:104D200060048078DFF8F8158870DFF8100A0088D2
:104D30004FF4807190FBF1F201FB1200DFF8E015F7
:104D4000C870DFF8F80900884FF4807190FBF1F02B
:104D5000DFF8CC1508710521DFF8C40500F09EFDD1
:104D6000DFF8BC1548710621DFF8B40503F092FAAC
:104D7000A6E0C0B2042835D1DFF804040078DFF8DB
:104D8000A0150870DFF8F8034078DFF89415487034
:104D9000DFF8EC038078DFF888158870DFF8940975
:104DA00000884FF4807190FBF1F201FB1200DFF8F4
:104DB0007015C870DFF87C0900884FF4807190FB93
:104DC000F1F0DFF85C1508710521DFF8540500F0FB
:104DD00065FDDFF84C1548710621DFF8440503F046
:104DE00059FA6DE0C0B2052835D1DFF89403007898
:104DF000DFF82C150870DFF888034078DFF82015FD
:104E00004870DFF87C038078DFF814158870DFF8CD
:104E1000280900884FF4807190FBF1F201FB120029
:104E2000DFF8FC14C870DFF8100900884FF48071B7
:104E300090FBF1F0DFF8E81408710521DFF8E004D9
:104E400000F02CFDDFF8D81448710621DFF8D004FB
:104E500003F020FA34E0C0B2062831D1C848007807
:104E6000DFF8BC140870C6484078DFF8B414487006
:104E7000C3488078DFF8A8148870DFF8C00800887D
:104E80004FF4807190FBF1F201FB1200DFF89014F7
:104E9000C870DFF8A80800884FF4807190FBF1F02B
:104EA000DFF87C1408710521DFF8740400F0F6FCCB
:104EB000DFF86C1448710621DFF8640403F0EAF9A6
:104EC00019E2C0B2002812D1AD48C078DFF8B0199D
:104ED0000870AB480079DFF8A8194870A8484079F5
:104EE000DFF89C198870062000F0A4FC6EE0C0B2C8
:104EF000012812D1A248C078DFF88419C870A048F0
:104F00000079DFF87C1908719D484079DFF8701945
:104F10004871062000F08EFC58E0C0B2022812D181
:104F20009748C078DFF85819887195480079DFF8FC
:104F30005019C87192484079DFF844190872062068
:104F400000F078FC42E0C0B203280CD1DFF834094D
:104F5000007800283AD1FCF778FFFCF790FF062094
:104F600000F068FC32E0C0B2042813D1FCF77EFFE9
:104F7000FDF7A6FAFCF769FFFCF748FF0020DFF811
:104F8000141C08800020DFF800190870062000F0CB
:104F900051FC1BE0C0B205280ED17948C178784891
:104FA00004794FF4807000FB0414DFF8EC0B0480EC
:104FB000062000F03FFC09E0C0B2062806D1FCF74D
:104FC0006EFFFCF742FF062000F034FC93E1C0B214
:104FD000002812D16A48C078DFF8A81A087068481B
:104FE0000079DFF8A01A487065484079DFF8941A14
:104FF0008870062000F01EFC34E0C0B2012812D1F7
:105000005F48C078DFF87C1AC8705D480079DFF827
:10501000741A08715A484079DFF8681A48710620F6
:1050200000F008FC1EE0C0B202280CD1DFF8580ADC
:105030000078002816D1FDF74CFAFCF706FF062091
:1050400000F0F8FB0EE0C0B203280BD1DFF83C0AF9
:105050000078002806D1FDF733FAFCF7F6FE0620AB
:1050600000F0E8FB47E1C0B2002805D10520FCF7BD
:10507000DAFEFCF714FF22E0C0B2012805D10420BB
:10508000FCF7D1FEFCF70BFF19E0C0B2022805D1F6
:105090000320FCF7C8FEFCF702FF10E0C0B20328B3
:1050A00005D10220FCF7BFFEFCF7F9FE07E0C0B215
:1050B000042804D10120FCF7B6FEFCF7F0FE1AE14B
:1050C000C0B2002803D10020FCF782FE0EE0C0B27F
:1050D000012803D10120FCF77BFE07E0C0B20228C3
:1050E00004D10120FCF79FFEFCF7D9FE03E1244820
:1050F000C178234802794FF4807000FB0211DFF879
:10510000100A01801E4841791D4882794FF4807051
:1051100000FB0211DFF8840A0180ECE0C0B200F06D
:1051200073FDE8E0C0B200282CD1FCF79FFEFDF72C
:10513000C7F9FCF78AFEFCF769FE0020DFF8541A75
:1051400008800020DFF8401708700120DFF80C15F8
:10515000087000207049896C884700206E49896A70
:1051600088470220DFF8541A08700E20DFF8501A22
:1051700008700120DFF84C1A087073E0C314002097
:1051800044110020002002F0F6FE002002F00EFF85
:1051900000206149096D884700205F49C96C884734
:1051A00000205D49496E884700205B49896D88472A
:1051B00000205949496D884700205749896E884722
:1051C00000205549096E884700205349C96D88471A
:1051D00000205149C96E884701204F49896C884792
:1051E0004FF4FA7004F0C1FD01204B49896A8847E9
:1051F0004FF4FA7004F0B9FDDFF8CC09407ADFF81B
:10520000C41908700020DFF8C41908700020DFF806
:10521000C0190860DFF8B009837ADFF8AC09C179FA
:10522000DFF8A409027A4FF4807000FB02110A0033
:1052300092B2DFF894094179DFF88C0984794FF450
:10524000807000FB041189B2DFF87C09C478DFF8B4
:10525000780905794FF4807000FB0544200080B286
:1052600000F06EFA47E0DFF860098078012802D18B
:1052700000F0BCF901E000F0F3F93CE0DFF8480988
:105280004179DFF8440982794FF4807000FB021104
:105290000A0092B2DFF83009C178DFF82C090379EF
:1052A0004FF4807000FB031189B2DFF81C0980788D
:1052B00000F0C0F81FE0DFF81009807800F044F833
:1052C00019E0DFF804098078012808D10120DFF80F
:1052D000041908700020DFF8001908700BE00020A6
:1052E000DFF8981508700120DFF8701308700020AF
:1052F000DFF8E01808700020DFF8E01808700020E0
:10530000DFF8DC1808700120DFF8D818087031BD0C
:105310009013002082140020201000204914002047
:1053200010110020B4130020DC130020E41300202F
:10533000E8130020EC130020F0130020F8130020E5
:10534000FA130020FC13002080B5C0B2002822D13F
:105350000E20DFF86C1808700020DFF88C18496AFE
:1053600088470020DFF88018C96888470020DFF8E8
:105370007818896888470120B84908700220DFF84A
:105380003C1808700020DFF8641808700020DFF86F
:10539000601808704DE0C0B2012818D13220DFF843
:1053A000541808700420DFF8501808700120DFF846
:1053B0000C1808700120DFF8341808700020DFF89E
:1053C0003C1808700120DFF83818087031E0C0B2CE
:1053D000022818D16420DFF81C1808700620DFF8B6
:1053E000181808700120DFF8D41708700120DFF8C2
:1053F000FC1708700020DFF8041808700120DFF89F
:105400000018087015E0C0B2032812D0C0B20428FA
:105410000FD0C0B205280CD10120DFF8D4170870D6
:105420000120DFF8981708700120DFF89C1C087035
:10543000FFE701BD80B5C0B2002818D10E20DFF80B
:10544000801708700220DFF8741708700120834964
:1054500008700020DFF89017896A88470120DFF87C
:10546000641708700120DFF8641708706CE089B2D7
:10547000002913D1DFF8200702800620DFF840174B
:1054800008700120DFF87C1708700120DFF82C1766
:1054900008700020DFF83417087048E0DFF8F806DD
:1054A000028089B2002906D089B2152903DA0520C5
:1054B00000F04BF83BE089B2B1F11500142803D29B
:1054C000042000F042F832E089B2B1F1290014283A
:1054D00003D2032000F039F829E089B2B1F13D0090
:1054E000142803D2022000F030F820E089B25139AC
:1054F000132903D2012000F028F818E092B2B2F18B
:105500001E00292803D2002000F048F80FE092B2D4
:10551000B2F14700222803D2012000F03FF806E054
:1055200092B2693A1A2A02D2012000F00EF8B42091
:105530007D4908707E4800887C4908800020BC496D
:1055400008700120CD49087001BDDFF8801B08708C
:105550000A20DFF86C1608700120DFF8A816087022
:105560000120DFF8581608700120DFF89016087047
:105570000020DFF8581608707047000087140020DC
:105580008814002000140020021400208914002038
:105590008A140020E011002048120020C0B2002828
:1055A00002D0012805D008E00720DFF814160870A3
:1055B00003E00820DFF8081608700120DFF8441621
:1055C00008700020DFF8CC1508800120DFF8EC150A
:1055D00008700120DFF8241608700020DFF8EC15B1
:1055E00008707047BC1300208B1400200120DFF8E6
:1055F000E01A08700020DFF8DC1A08800020DFF8CD
:10560000D81A08700120DFF8D41A08700020DFF8DB
:10561000D01A08700020DFF8CC1A08804620DFF886
:10562000C81A08700120DFF8A41508700020DFF800
:10563000BC1A08700120DFF8C415087000207C49EE
:1056400008700220DFF8A81A08700220DFF86C1535
:1056500008707047C01300208C14002090140020A4
:1056600080B50020DFF8681A0870FCF7FFFBFCF734
:1056700027FFFCF7EAFBFCF7C9FB0020DFF87C15ED
:1056800008700720DFF8541A08700020DFF83C1576
:1056900008700020DFF8481A08700020DFF84C1569
:1056A00008700020DFF84015C96888470020DFF83F
:1056B0003815096988470020DFF82C15496A8847A2
:1056C0000020DFF82415496988470020DFF8181505
:1056D000896988470020DFF81015496C8847002049
:1056E000DFF80415896C88470020DFF8FC1489680E
:1056F00088470020DFF8F014096888470020DFF8A9
:10570000E814496888470220DFF8E8190870022089
:10571000DFF8E41908700120DFF8E01908700020B4
:10572000DFF8DC19087001BD8D140020041400207E
:1057300018000020F2130020F4130020F6130020BC
:1057400010B51C0080B2002813D1DFF84C04018092
:105750000120DFF86C1408700120DFF8A819087028
:105760000120DFF8581408700020DFF828140880A2
:1057700048E0DFF82424118080B2002806D080B2EF
:10578000152803DA0520FCF74EFB3BE080B2B0F1B0
:105790001502142A03D20420FCF745FB32E080B244
:1057A000B0F12902142A03D20320FCF73CFB29E0C4
:1057B00080B2B0F13D02142A03D20220FCF733FB81
:1057C00020E080B25138132803D20120FCF72BFBD4
:1057D00018E089B2B1F11E00292803D20020FCF79D
:1057E000F7FA0FE089B2B1F14700222803D2012075
:1057F000FCF7EEFA06E089B269391A2902D20120D3
:10580000FCF711FBB420DFF800190870DFF8FC0882
:105810000088DFF8FC180880E4B2002C03D10020D7
:10582000DFF8F018087001201449087010BD00005E
:105830009114002080B5DFF890130978DFF8D8289C
:105840001170DFF884134978DFF8CC285170DFF845
:1058500078138978DFF8C0289170DFF8BC18C87019
:105860000421DFF8B40800F019F8DFF8AC1808716B
:105870000521DFF8A40802F00DFD01BD8E14002003
:1058800068130020931400209F14002080B5FEF7B9
:1058900021FC01BD80B5FEF739FC01BD10B402004A
:1058A0000020002402E0135D1818641CC9B28C4269
:1058B000F9DBC0B210BC704710B5DFF840080078C3
:1058C000012822D1DFF85438002247F601010620D2
:1058D000FEF73CFC0821DFF8440802F0F2FCDFF898
:1058E0004038002247F601010620FEF72FFC082170
:1058F000DFF82C0802F0FCFC0020DFF8001808702C
:105900000020DFF8FC170870BBE0DFF8F407007830
:10591000002800F0B680DFF8FC070078002802D0ED
:10592000012827D0ADE0DFF8F437012247F6010166
:105930000620FEF70BFC0821DFF8E00702F0C1FCAF
:10594000DFF8DC37012247F601010620FEF7FEFBF7
:105950000821DFF8CC0702F0CBFC1420DFF8D01DC3
:1059600008600020DFF8BC1708700120DFF8A417DA
:10597000087086E0DFF8B80D0068002840F08180EC
:105980009A480078002803D19948007800280BD065
:10599000DFF87C07B0F90010DFF87407B0F90040B9
:1059A0005FF0FF30444349E0DFF8780700780028D3
:1059B00005D0022823D012D3032830D03EE0DFF8F0
:1059C0005007B0F900105FF0FF304143DFF84007A7
:1059D000B0F900400120DFF84C2710702EE0DFF80E
:1059E0003007B0F90010DFF82807B0F900405FF089
:1059F000FF3044430220DFF82C2710701EE0DFF850
:105A00001007B0F900105FF0FF304143DFF80007E6
:105A1000B0F900400320DFF80C2710700EE0DFF82B
:105A2000F006B0F90010DFF8E806B0F900405FF0CA
:105A3000FF3044430020DFF8EC261070DFF8DC363E
:105A40000A0092B200210320FEF780FB0821DFF854
:105A5000CC0602F036FCDFF8C836220092B20021F4
:105A60000320FEF773FB0821DFF8B40602F040FCC8
:105A7000DFF8940601784FF47A704143DFF8B00CF8
:105A8000016010BD7C130020991400209D1400209B
:105A900080B5DFF8E40C0078002838D0DFF8DC0CA3
:105AA0000078002833D0DFF8940D006800282ED14C
:105AB000DFF8CC0C007800280BD1DFF8C80CB0F967
:105AC00000105FF0FF3041430120DFF8B42C10706C
:105AD00007E0DFF8B00CB0F900100020DFF8A02CD0
