:020000040800F2
:100000000004002001FE0008F1F60008F3F60008E5
:10001000F5F60008F7F60008F9F600080000000001
:10002000000000000000000000000000FBF60008D7
:10003000FDF6000800000000FFF6000801F70008C8
:1000400083D0000883D0000883D0000809F7000897
:1000500083D0000883D000080BF7000883D0000885
:1000600083D000081FF7000883D0000815FC0008A3
:1000700083D0000883D0000883D0000883D0000814
:1000800083D0000883D0000883D0000821F700083F
:1000900023F7000883D0000883D0000825F7000864
:1000A00083D0000827F7000883D0000883D0000819
:1000B00035F7000843F7000851F7000883D000081F
:1000C00083D0000883D0000883D0000883D00008C4
:1000D00061F7000863F70008BDF80008ADF90008F3
:1000E000F9FB000811FC000883D0000883D0000849
:1000F00053F7000883D0000883D0000883D000089D
:1001000083D0000813FC000883D0000883D00008C7
:100110009BFA000883D0000883D0000883D0000831
:1001200083D0000883D0000883D0000883D0000863
:1001300040B2002805D40901DFF8582A40B2115412
:1001400008E00901DFF81C2D40B210F00F00104448
:1001500000F8041C704780B5411EB1F1807F01D3C7
:10016000012011E0401EDFF8F81A08600F215FF04F
:10017000FF30FFF7DDFF0020DFF8081B08600720D5
:10018000DFF8E81C0860002002BD0020DFF8E01C5A
:100190000870DFF8140BDFF8001CDFF8D42C12789D
:1001A00041F82200DFF8C80C0078401CDFF8C01CC2
:1001B0000870DFF8F80ADFF8E01BDFF8B42C1278DB
:1001C00041F82200DFF8A80C0078401CDFF8A01CE2
:1001D0000870DFF8FC0ADFF8C01BDFF8942C1278F7
:1001E00041F82200DFF8880C0078401CDFF8801C02
:1001F0000870DFF8040BDFF8A01BDFF8742C12780E
:1002000041F82200DFF8680C0078401CDFF8601C21
:100210000870DFF80C0BDFF8801BDFF8542C127825
:1002200041F82200DFF8480C0078401CDFF8401C41
:100230000870DFF8F00ADFF8601BDFF8342C127862
:1002400041F82200DFF8280C0078401CDFF8201C61
:100250000870DFF8080BDFF8401BDFF8142C127869
:1002600041F82200DFF8080C0078401CDFF8001C81
:100270000870DFF8EC0ADFF8201BDFF8F42B1278A7
:1002800041F82200DFF8E80B0078401CDFF8E01BA3
:100290000870DFF8080BDFF8001BDFF8D42B1278AA
:1002A00041F82200DFF8C80B0078401CDFF8C01BC3
:1002B0000870DFF8100BDFF8E01ADFF8B42B1278C3
:1002C00041F82200DFF8A80B0078401CDFF8A01BE3
:1002D0000870DFF8140BDFF8C01ADFF8942B1278DF
:1002E00041F82200DFF8880B0078401CDFF8801B03
:1002F0000870DFF8180BDFF8A01ADFF8742B1278FB
:1003000041F82200DFF8680B0078401CDFF8601B22
:100310000870DFF8FC0ADFF8801ADFF8542B127837
:1003200041F82200DFF8480B0078401CDFF8401B42
:100330000870DFF8040BDFF8601ADFF8342B12784E
:1003400041F82200DFF8280B0078401CDFF8201B62
:100350000870DFF80C0BDFF8401ADFF8142B127866
:1003600041F82200DFF8080B0078401CDFF8001B82
:100370000870DFF8F40ADFF8201ADFF8F42A1278A0
:1003800041F82200DFF8E80A0078401CDFF8E01AA4
:100390000870DFF8E00ADFF8001ADFF8D42A1278D4
:1003A00041F82200DFF8C80A0078401CDFF8C01AC4
:1003B0000870DFF8C40ADFF8E019DFF8B42A127811
:1003C00041F82200DFF8A80A0078401CDFF8A01AE4
:1003D0000870DFF8CC0ADFF8C019DFF8942A127829
:1003E00041F82200DFF8880A0078401CDFF8801A04
:1003F0000870DFF8D40ADFF8A019DFF8742A127841
:1004000041F82200DFF8680A0078401CDFF8601A23
:100410000870DFF8DC0ADFF88019DFF8542A127858
:1004200041F82200DFF8480A0078401CDFF8401A43
:100430000870DFF8E00ADFF86019DFF8342A127874
:1004400041F82200DFF8280A0078401CDFF8201A63
:100450000870DFF8E40ADFF84019DFF8142A127890
:1004600041F82200DFF8080A0078401CDFF8001A83
:100470000870DFF8C80ADFF82019DFF8F4291278CD
:1004800041F82200DFF8E8090078401CDFF8E019A5
:100490000870DFF8AC0ADFF80019DFF8D429127809
:1004A00041F82200DFF8C8090078401CDFF8C019C5
:1004B0000870DFF8D40ADFF8E018DFF8B429127802
:1004C00041F82200DFF8A8090078401CDFF8A019E5
:1004D0000870DFF8B80ADFF8C018DFF8942912783E
:1004E00041F82200DFF888090078401CDFF8801905
:1004F0000870DFF8DC0ADFF8A018DFF8742912783A
:1005000041F82200DFF868090078401CDFF8601924
:100510000870DFF8C00ADFF88018DFF85429127875
:1005200041F82200DFF848090078401CDFF8401944
:100530000870DFF8C40ADFF86018DFF83429127891
:1005400041F82200DFF828090078401CDFF8201964
:100550000870DFF8A80ADFF84018DFF814291278CD
:1005600041F82200DFF808090078401CDFF8001984
:100570000870DFF8D00ADFF82018DFF8F4281278C6
:1005800041F82200DFF8E8080078401CDFF8E018A6
:100590000870DFF8D80ADFF80018DFF8D4281278DE
:1005A00041F82200DFF8C8080078401CDFF8C018C6
:1005B0000870DFF8BC0ADFF8E017DFF8B42812781B
:1005C00041F82200DFF8A8080078401CDFF8A018E6
:1005D0000870DFF8A00ADFF8C017DFF89428127857
:1005E00041F82200DFF888080078401CDFF8801806
:1005F0000870704780B5DFF8E41A097800290DD03B
:10060000012805D10121DFF8200C0CF037FD29E08D
:100610000121DFF8140C0CF02EFD23E0012817D186
:100620000121DFF8040C0CF029FD0221DFF8F80BA2
:100630000CF021FD0120DFF8CC1A08704EF6602086
:10064000DFF8E81A08800120DFF8E41A087009E0F2
:100650000121DFF8D40B0CF00EFD0221DFF8C80BEE
:100660000CF009FD01BD80B5DFF8701A097800298A
:100670000DD0012805D10221DFF8AC0B0CF0FEFCF7
:1006800029E00221DFF8A00B0CF0F5FC23E00128A3
:1006900017D10121DFF8900B0CF0EDFC0221DFF8FF
:1006A000880B0CF0EBFC0220DFF8581A08704EF6AD
:1006B0006020DFF8781A08800120DFF8741A0870CB
:1006C00009E00121DFF8600B0CF0D5FC0221DFF816
:1006D000580B0CF0D0FC01BD80B5DFF8280A00787B
:1006E000012851D1DFF8480A0078002805D00228F7
:1006F0002DD003D303283BD09CE09BE0DFF82C0AED
:100700000088002811D0DFF86C0A0078C0F3401090
:10071000C0B200281AD041F28830DFF8101A0880E1
:100720000220DFF80C1A087010E0DFF84C0A00789D
:10073000002807D1E120DFF8441A08807D20DFF887
:10074000401A08800320DFF8E819087072E0DFF82B
:10075000DC09008800286DD10020FFF74BFF002046
:10076000DFF8CC1908700020DFF89819087061E0F4
:100770000020FFF73FFF0020DFF8B41908700520C4
:10078000DFF88019087055E0DFF878090078022852
:1007900050D1DFF89C090078002805D002282DD020
:1007A00003D303283BD045E044E0DFF8800900880C
:1007B000002811D0DFF8BC090078C0F38010C0B267
:1007C00000281AD041F28830DFF860190880022032
:1007D000DFF85C19087010E0DFF89C090078002849
:1007E00007D1E120DFF8941908807D20DFF8901907
:1007F00008800320DFF8381908701BE0DFF82C09A7
:100800000088002816D10020FFF72DFF0020DFF818
:10081000201908700020DFF8EC1808700AE00020AA
:10082000FFF721FF0020DFF8081908700520DFF826
:10083000D418087001BD80B5DFF8A0180978002928
:100840000FD0012806D14FF48071DFF89C0A0CF01C
:1008500015FC2EE04FF48071DFF88C0A0CF00BFCD5
:1008600027E001281AD14FF48071DFF87C0A0CF0E0
:1008700002FC8021DFF8700A0CF0FDFB4FF4807160
:10088000DFF8640A0CF0FAFB42F21070DFF85C1A31
:1008900008800120DFF8581A08700AE04FF48071D0
:1008A000DFF8440A0CF0E7FB8021DFF83C0A0CF08B
:1008B000E2FB01BD80B5DFF82418097800290DD0CE
:1008C000012805D18021DFF8200A0CF0D7FB2CE0AD
:1008D0008021DFF8140A0CF0CEFB26E0012819D1A4
:1008E0008021DFF8040A0CF0C6FB4FF48071DFF8BA
:1008F000F8090CF0C0FB8021DFF8EC090CF0BEFB1E
:1009000042F21070DFF8E41908800120DFF8E019E6
:1009100008700AE04FF48071DFF8CC090CF0ABFBF3
:100920008021DFF8C4090CF0A6FB01BD80B5DFF81B
:10093000C0090078002802D0012801D014E013E09B
:10094000DFF8A809008800280ED14FF48071DFF885
:10095000D8080CF090FB8021DFF8CC080CF08BFB62
:100960000020DFF88C19087001BD80B5DFF86C1726
:10097000097800290DD0012805D14021DFF8680948
:100980000CF07CFB2AE04021DFF85C090CF073FBE3
:1009900024E0012818D14021DFF84C090CF06BFB52
:1009A0002021DFF844090CF066FB4021DFF838090C
:1009B0000CF064FB0120DFF83C19087042F2107063
:1009C000DFF83419088009E04021DFF81C090CF039
:1009D00052FB2021DFF810090CF04DFB01BD80B562
:1009E000DFF8F816097800290DD0012805D120215B
:1009F000DFF8F4080CF042FB2AE02021DFF8E808D9
:100A00000CF039FB24E0012818D12021DFF8D808A8
:100A10000CF031FB4021DFF8D0080CF02CFB20213A
:100A2000DFF8C4080CF02AFB0120DFF8C8180870B2
:100A300042F21070DFF8C018088009E04021DFF8AA
:100A4000A8080CF018FB2021DFF89C080CF013FB21
:100A500001BD80B5DFF89C080078002802D001288D
:100A600001D013E012E0DFF89008008800280DD1D3
:100A70002021DFF8B4070CF0FEFA4021DFF8A807C8
:100A80000CF0F9FA0020DFF86C18087001BD80B591
:100A9000DFF84816097800290FD0012806D14FF455
:100AA0000061DFF844080CF0E9FA30E04FF400612F
:100AB000DFF834080CF0DFFA29E001281BD14FF4ED
:100AC0000061DFF824080CF0D6FA4FF48051DFF80B
:100AD00018080CF0D0FA4FF40061DFF80C080CF0A5
:100AE000CDFA0120DFF8AC19087046F2A810DFF843
:100AF000A81908800BE04FF40061DFF8EC070CF058
:100B0000BAFA4FF48051DFF8E0070CF0B4FA01BDF7
:100B100080B5DFF8C815097800290FD0012806D163
:100B20004FF48051DFF8C0070CF0A8FA30E04FF422
:100B30008051DFF8B4070CF09EFA29E001281BD1A0
:100B40004FF48051DFF8A0070CF095FA4FF40061E4
:100B5000DFF894070CF08FFA4FF48051DFF8880724
:100B60000CF08CFA0120DFF82C19087046F2A8105E
:100B7000DFF8241908800BE04FF40061DFF8680704
:100B80000CF079FA4FF48051DFF85C070CF073FA3F
:100B900001BD000000E400E080B5DFF8F80800784F
:100BA000002805D0022829D003D3032841D055E0DE
:100BB00054E0DFF8E408008800281ED1DFF8DC08E4
:100BC0000068C00409D44FF4FA70DFF8CC1808802C
:100BD0000220DFF8C018087003E00020DFF8B41826
:100BE00008704FF48051DFF840060CF044FA4FF4DF
:100BF0000061DFF834060CF03EFA2FE0DFF89808C9
:100C00000088002814D14FF48051DFF81C060CF046
:100C100032FA4FF40061DFF810060CF02FFA41F2BF
:100C20007070DFF8741808800320DFF86818087007
:100C300014E0DFF86408008800280FD14FF48051D9
:100C4000DFF8E4050CF017FA4FF40061DFF8D8057F
:100C50000CF011FA0020DFF83C18087001BD00000C
:100C600014E000E080B5002805D10421DFF8780603
:100C70000CF001FA04E00421DFF86C060CF0FEF938
:100C800001BD000018E000E080B5002805D1082172
:100C9000DFF854060CF0EFF904E00821DFF848060D
:100CA0000CF0ECF901BD0000F5050008670600082E
:100CB00080B5002805D11021DFF82C060CF0DBF9F7
:100CC00004E01021DFF820060CF0D8F901BD000087
:100CD000650C000880B5002806D14FF40071DFF8DC
:100CE00008060CF0C8F905E04FF40071DFF8F805CC
:100CF0000CF0C4F901BD0000890C000880B5002883
:100D000006D14FF48061DFF8E0050CF0B4F905E09E
:100D10004FF48061DFF8D0050CF0B0F901BD0000A0
:100D2000B10C0008DF09000880B500280AD14FF493
:100D30000051DFF8F4040CF09EF90020DFF8CC1924
:100D4000087009E04FF40051DFF8DC040CF096F96C
:100D50000120DFF8B819087001BD00006B09000818
:100D6000B508000880B500280AD14FF48041DFF8AB
:100D7000B8040CF080F90020DFF89419087009E03D
:100D80004FF48041DFF8A0040CF078F90120DFF87F
:100D90008019087001BD000080100020370800088D
:100DA00080B5002806D14FF40041DFF83C050CF077
:100DB00062F905E04FF40041DFF82C050CF05EF914
:100DC00001BD0000D50C000880B5002805D1102118
:100DD000DFF8940B0CF04FF904E01021DFF8880BDA
:100DE0000CF04CF901BD0000FD0C000880B5002896
:100DF00005D10421DFF8740B0CF03DF904E0042167
:100E0000DFF8680B0CF03AF901BD00008F0A00080A
:100E1000110B000880B5002806D14FF48051DFF88F
:100E2000500B0CF028F905E04FF48051DFF8400B2F
:100E30000CF024F901BD0000290D000880B5002840
:100E400006D14FF40061DFF8280B0CF014F905E02F
:100E50004FF40061DFF8180B0CF010F901BD000031
:100E6000650D000818ED00E0A10D000810E000E09D
:100E7000CA1500207D0E0008190F000880B5002853
:100E800006D14FF40041DFF8EC0A0CF0F4F805E06D
:100E90004FF40041DFF8DC0A0CF0F0F801BD00006F
:100EA000450F000880B5002806D14FF48061DFF8B7
:100EB000C00A0CF0E0F805E04FF48061DFF8B00AFA
:100EC0000CF0DCF801BD0000910F000880B500288F
:100ED00006D14FF40071DFF8980A0CF0CCF805E069
:100EE0004FF40071DFF8880A0CF0C8F801BD00006B
:100EF000D90F000880B5002805D10821DFF8680A5D
:100F00000CF0B9F804E00821DFF85C0A0CF0B6F840
:100F100001BD00000110000880B5002805D10121A5
:100F2000DFF8480A0CF0A7F804E00121DFF83C0ADA
:100F30000CF0A4F801BD0000491000087910000869
:100F4000BB100008002808D10020DFF82C1A087018
:100F50000020DFF89C1B087014E0DFF8200ADFF89F
:100F6000201A097810F81100DFF80C1A0870DFF861
:100F70000C0ADFF80C1A097800EB41004078DFF822
:100F8000701B087070470000E1100008091100088C
:100F900080B500280DD10821DFF8D8090CF06BF8D6
:100FA000DFF8500B007810F0FE00DFF8481B0870E7
:100FB0000CE00821DFF8BC090CF060F8DFF8340B16
:100FC000007850F00100DFF82C1B087001BD000014
:100FD00035110008C90D000880B5002805D104218D
:100FE000DFF890090CF047F804E00421DFF88409E9
:100FF0000CF044F801BD0000ED0D0008150E0008CE
:1010000080B500280ED14FF48051DFF85C090CF058
:1010100032F8DFF8E00A007810F0FD00DFF8D41AAB
:1010200008700DE04FF48051DFF83C090CF026F811
:10103000DFF8C00A007850F00200DFF8B81A087034
:1010400001BD00003D0E000880B5002806D14FF418
:101050000051DFF814090CF00EF805E04FF40051D0
:10106000DFF804090CF00AF801BD0000A50E000825
:10107000CD0E0008F50E000880B500280ED14FF403
:101080008051DFF8E8080BF0F6FFDFF8680A007817
:1010900010F0FB00DFF85C1A08700DE04FF480518F
:1010A000DFF8C8080BF0EAFFDFF8480A007850F0D4
:1010B0000400DFF8401A087001BD80B5002806D191
:1010C0004FF40051DFF8A4080BF0D5FF05E04FF412
:1010D0000051DFF898080BF0D1FF01BD4716002042
:1010E00080B5002806D14FF48041DFF888080BF066
:1010F000C2FF05E04FF48041DFF878080BF0BEFF37
:1011000001BD0000B815002080B5002806D14FF4BD
:101110000051DFF860080BF0AEFF05E04FF400511E
:10112000DFF850080BF0AAFF01BD000014150020E5
:10113000B915002080B5002806D14FF48051DFF8A2
:1011400034080BF098FF05E04FF48051DFF82408D5
:101150000BF094FF01BD80B5DFF89C0900780128F1
:1011600007D0DFF89809DFF89819097850F82100BE
:10117000804701BD2A1500205C1600208A1500203A
:101180008C150020DFF87C09DFF870190860DFF8A3
:101190007809DFF868194860DFF87009DFF85C1932
:1011A0008860DFF86C09DFF85419C860DFF864095B
:1011B000DFF848190861DFF86009DFF84019486175
:1011C000DFF85809DFF834198861DFF85409DFF8CF
:1011D0002C19C861DFF84C09DFF820190862DFF824
:1011E0004809DFF818194862DFF84009DFF80C19E0
:1011F0008862DFF83C09DFF80419C862DFF83409B7
:10120000DFF8F8180863DFF83009DFF8F0184863F2
:10121000DFF82809DFF8E4188863DFF82409DFF82D
:10122000DC18C8637047000000180140704780B5A3
:10123000DFF89C0B0078002806D0022817D004D3D2
:10124000042840D02ED34EE04DE0DFF8F8080088A7
:10125000DFF8F4180988884204D20320DFF8701BF5
:10126000087003E00420DFF8681B08703BE0DFF83B
:10127000D8080088801EDFF8CC180988884204DB73
:101280000320DFF84C1B08700BE0DFF8B80800887B
:10129000DFF8B4180988884203D30420DFF8301B34
:1012A000087020E0DFF8A4080078002804D0DFF8F8
:1012B000A0080078002801D102F036FD0220DFF8F6
:1012C000101B08700FE0DFF884080078012804D0B4
:1012D000DFF87C080078012801D102F0CBFC022065
:1012E000DFF8EC1A087001BD001801401615002047
:1012F000BA150020BB1500201815002080B5DFF8B6
:1013000054080088002840F0C380DFF8C40A007841
:10131000DFF844180870DFF844080078C0B2C0094C
:10132000C0B200285DD0DFF830080078002808D06F
:10133000012807D0052817D0062830D007283FD02D
:10134000A0E09FE0DFF8FC070088DFF8FC170988C1
:10135000884204D20620DFF80018087003E0072056
:10136000DFF8F41708708DE0DFF8D8070088DFF8A1
:10137000D8170988884204D30720DFF8DC170870E3
:101380000CE0DFF8C4070088801EDFF8B817098872
:10139000884203DB0620DFF8C017087072E0DFF830
:1013A000AC070078002804D0DFF8A40700780028F4
:1013B00001D102F0B9FC0520DFF89C17087061E04C
:1013C000DFF888070078012804D0DFF88407007868
:1013D000012801D102F04EFC0520DFF87C170870CF
:1013E00050E0DFF874070078002806D0022817D0F4
:1013F00004D304283BD02ED344E043E0DFF8440775
:101400000088DFF844170988884204D20320DFF8F7
:101410004817087003E00420DFF83C17087031E03B
:10142000DFF820070088DFF820170988884204D3F6
:101430000420DFF8241708700CE0DFF80C070088A0
:10144000801EDFF800170988884203DB0320DFF8DD
:101450000817087016E0DFF87C090078002801D131
:1014600002F086FC0220DFF8F01608700AE0DFF8D0
:1014700064090078012801D102F05CFC0220DFF849
:10148000D8160870DFF8D0060078DFF84419087025
:1014900001BD0000BC1500201A1500200C180140E9
:1014A00080B5DFF8B0060088002840F02D81DFF815
:1014B00020090078DFF820190870DFF8A00600780E
:1014C000C0B2C009C0B200285DD0DFF80C090078B6
:1014D000002808D0012807D0032832D0042841D0A2
:1014E000052813D00AE109E1DFF858060088DFF883
:1014F00058160988884204D20320DFF8DC180870E7
:1015000003E00420DFF8D0180870F7E0DFF83406B5
:101510000088DFF834160988884204D30420DFF8F5
:10152000B81808700CE0DFF820060088801EDFF88D
:1015300014160988884203DB0320DFF89C18087022
:10154000DCE0DFF808060078002804D0DFF80006A9
:101550000078002801D102F0E7FB0520DFF87818B9
:101560000870CBE0DFF8E4050078012804D0DFF84C
:10157000E0050078012801D102F07CFB0520DFF8AE
:1015800058180870BAE0DFF85008007800280DD02D
:1015900001280CD0022819D0032833D0052851D0B7
:1015A000062861D0072800F0A080A7E0A6E0DFF8B9
:1015B00094050088462804DA0320DFF81C18087018
:1015C00003E00220DFF81018087097E0DFF87C05D0
:1015D0000078012804D0DFF878050078012801D1CF
:1015E00002F048FB02F0C4FB0420DFF8F01708709B
:1015F000DFF8EC07DFF8EC1708600620DFF8D817F3
:1016000008707BE0DFF8CC070078012801D102F0F8
:1016100091FB02F089FB0020DFF8CC1708804FF423
:10162000FA70DFF8C817088041F28830DFF8C01779
:1016300008800120DFF8A41708700520DFF898174C
:1016400008705BE0DFF8FC04008846280BDB02F042
:1016500011FB02F08DFB0420DFF8801708700620D4
:10166000DFF87417087049E0DFF8D80400884628CE
:1016700004DA0320DFF86017087035E0DFF854075C
:10168000007801281CD1DFF8BC040088DFF8B8140A
:101690000988884228D302F04DFB0020DFF8481764
:1016A00008804FF4FA70DFF84417088041F2883060
:1016B000DFF83C1708800120DFF82017087013E0DE
:1016C000DFF81007007800280ED1DFF87C040088CE
:1016D000801EDFF870140988884205DB02F048FBA1
:1016E0000420DFF8F816087008E0DFF8F806006854
:1016F000002803D10120DFF8E0160870DFF8D806D3
:101700000078DFF8CC16087001BD000050160020EC
:1017100051160020704780B5DFF8B4060078DFF876
:10172000F0190870DFF834040078C0B2C009C0B204
:1017300000285DD0DFF8D8090078002808D00128FB
:1017400007D0022817D0042830D005283FD004E164
:1017500003E1DFF8F0030088DFF8EC130988884222
:1017600004D20420DFF8A819087003E00520DFF890
:10177000A0190870F1E0DFF8CC030088DFF8C81387
:101780000988884204D30520DFF8841908700CE02A
:10179000DFF8B4030088801EDFF8A81309888842A8
:1017A00003DB0420DFF868190870D6E0DFF89C033B
:1017B0000078002804D0DFF898030078002801D1D1
:1017C00002F0B2FA0220DFF848190870C5E0DFF82D
:1017D0007C030078012804D0DFF874030078012826
:1017E00001D102F047FA0220DFF824190870B4E0B2
:1017F000DFF81C09007800280DD001280CD0022841
:1018000013D0032823D004284ED006286ED00728F2
:1018100000F08780A1E0A0E00020DFF8F818087051
:101820000220DFF8EC18087097E0DFF81803008852
:10183000DFF814130988884204D20420DFF8D01896
:10184000087003E00620DFF8C818087085E0BE487D
:101850000088801EBB490988884204DB0420DFF829
:10186000B01808701FE0B7480088B7490988884257
:1018700019D3DFF8A008007800280AD1DFF898080B
:101880000078DFF8901808700620DFF884180870D8
:1018900009E0AE480078012803D0AD48007801285F
:1018A00001D102F0E7F958E0DFF8280500780128B7
:1018B00001D102F03FFAA5480078002811D1A448D0
:1018C000007800280DD102F02FFADFF848080078E0
:1018D000002806D0DFF83C080078401EDFF83418F6
:1018E00008700320DFF82818087036E09748007861
:1018F000012803D096480078012801D102F0BAF9F6
:10190000DFF8D0040078002801D102F031FA4EF659
:101910006020DFF8D01408600720DFF8F4170870A3
:101920001BE0DFF8C004006800280BD08648008860
:10193000801E8449098888420FDB0420DFF8D01715
:1019400008700AE0DFF88C040078012801D102F069
:10195000F1F90320DFF8B8170870DFF8B407007852
:10196000DFF86C14087001BD00100140000C01404C
:10197000001C01400014014064160020F4FD000822
:101980006616002080B5DFF84804007800280AD0E9
:10199000022827D008D3042864D034D3062800F0C6
:1019A000928075D3A3E0A2E00020DFF870170870E2
:1019B0000020DFF86C170870DFF86807007810F077
:1019C000FD00DFF8601708705F480188DFF85807EE
:1019D00000784118DFF8540701800220DFF8F01387
:1019E000087084E057480088DFF84017098888426B
:1019F00004D20420DFF8D813087003E00520DFF8D4
:101A0000D013087073E0DFF824070088801E4D496A
:101A10000988884204DB0420DFF8B41308700AE068
:101A200048480088DFF804170988884203D3052056
:101A3000DFF89C130870DFF8E8060078012810D161
:101A4000DFF8E0060078C0F34000C0B2002808D1FB
:101A5000DFF890030068002803D10620DFF8701338
:101A6000087044E0DFF86C030078012801D102F02F
:101A700061F936480078002803D0354800780028FE
:101A800001D102F051F90320DFF8441308702EE071
:101A90002E480078012803D02D480078012801D174
:101AA00002F0E8F8DFF878060078002807D1DFF8C0
:101AB000F409CC4908600120DFF86416087003209F
:101AC000C349087013E0DFF85406007800280BD1F2
:101AD000DFF85006007850F00200DFF84816087072
:101AE0000120DFF8381608700320B949087001BDDD
:101AF000651600202E15002040160020E811002059
:101B0000231600202D1200082F120008FD120008D5
:101B1000A1140008151700081717000885190008F8
:101B2000611B0008F51D0008312100083321000861
:101B300095260008BD24000869280008912900089E
:101B4000512900083A1500206415002013160020C2
:101B5000161600202C150020BE1500207015002040
:101B600080B59B480078DFF840190870DFF83C0921
:101B70000078C0B2C009C0B2002800F09A80DFF837
:101B800028090078002808D0012807D0052850D05F
:101B900006285FD0072823D06CE06BE00020DFF838
:101BA0007C1508700020DFF808190870DFF874054C
:101BB000007810F0FD00DFF86C150870DFF8F4080D
:101BC0000088DFF8F4180988884204D20520DFF87D
:101BD000D818087003E00620DFF8CC18087049E038
:101BE000DFF8D0080088DFF8D0180988884212D3BF
:101BF000DFF8BC080078002808D1DFF8A808DFF873
:101C0000881A08600120DFF8A81808700620DFF89D
:101C1000981808700CE0DFF8A0080088801EDFF834
:101C200094180988884203DB0520DFF87C180870C7
:101C300020E0DFF8580A0078002804D0DFF8500AC6
:101C40000078002801D102F06FF80720DFF858185B
:101C500008700FE0DFF8340A0078012804D0DFF8BC
:101C6000300A0078012801D102F004F80720DFF8DB
:101C700038180870DFF838080078012840F0A18093
:101C8000DFF8040A0068002840F09B80DFF88C042D
:101C90000078002840F09580DFF88804007850F044
:101CA0000200DFF8801408700120DFF8701408705B
:101CB00087E0DFF8F4070078002806D0022827D054
:101CC00004D304284AD03ED360E05FE00020DFF870
:101CD0004C1408700020DFF8D8170870DFF84404AF
:101CE000007810F0FD00DFF83C140870DFF8C4073E
:101CF0000088DFF8C4170988884204D20320DFF87F
:101D0000A817087003E00420DFF89C1708703DE076
:101D1000DFF8A0070088DFF8A0170988884204D3FD
:101D20000420DFF8841708700CE0DFF88C070088C7
:101D3000801EDFF880170988884203DB0320DFF864
:101D40006817087022E023480078002801D102F0CB
:101D50000FF80220DFF85017087017E01D480078D0
:101D6000012801D101F0E6FFDFF8440700780028E0
:101D700008D1DFF83007DFF8101908600120DFF81C
:101D8000301708700220DFF820170870DFF82007EE
:101D90000078012815D1DFF8F0080068002810D17C
:101DA000DFF87803007800280BD1DFF8780300789B
:101DB00050F00200DFF86C1308700120DFF85C13AC
:101DC0000870DFF8E40600780149087001BD0000E2
:101DD0002416002019160020BF1500203F160020F1
:101DE000E0930400941400207E150020801500204C
:101DF0008215002080B5DFF8D00B0078DFF8641A78
:101E00000870DFF8A8060078C0B2C009C0B2002888
:101E100000F09380DFF84C0A0078002808D00128F1
:101E200007D004284DD0052822D007285AD069E0D1
:101E300068E00020B94908700020DFF874160870C7
:101E4000B848007810F0FD00B6490870DFF8640665
:101E50000088DFF864160988884204D20420DFF87D
:101E6000041A087003E00720DFF8F819087049E049
:101E7000DFF840060088DFF840160988884212D350
:101E8000DFF82C060078002808D1DFF81806DFF804
:101E9000F81708600120DFF8181608700720DFF82F
:101EA000C41908700CE0DFF810060088801EDFF807
:101EB00004160988884203DB0420DFF8A81908709B
:101EC00020E0DFF8C8070078002804D0DFF8C0075A
:101ED0000078002801D101F027FF0520DFF88419E0
:101EE00008700FE0DFF8A4070078012804D0DFF8BD
:101EF000A0070078012801D101F0BCFE0520DFF821
:101F000064190870DFF8A8050078012840F0F9800E
:101F1000DFF874070068002840F0F3807F480078FD
:101F2000002840F0EE807F48007850F002007D49A4
:101F30000870012079490870E3E0DFF8280900788B
:101F4000002809D0022815D007D304283DD020D37B
:101F5000062871D059D3BDE0BCE000206F4908705D
:101F60000020DFF84C1508706E48007810F0FD0076
:101F70006C490870DFF83C050088462804DA042024
:101F8000DFF8E018087003E00320DFF8D8180870C5
:101F9000A0E0DFF8F8060078012804D0DFF8F006AA
:101FA0000078012801D101F065FE01F0E1FE042076
:101FB000DFF8181A0870DFF8D009DFF8D0190860C8
:101FC0000620DFF8A018087084E0DFF8040A007823
:101FD000012801D101F0AEFE01F0A6FE0020DFF8DD
:101FE000F41908804FF4FA70DFF8EC19088041F218
:101FF0008830DFF8E81908800120DFF8D019087070
:102000000520DFF86018087064E0DFF8A804008895
:10201000462810DB01F02EFE01F0AAFE0420DFF8B6
:10202000AC190870DFF86009DFF860190860062055
:10203000DFF8301808704DE0DFF8940900780128C7
:102040002AD1DFF870040088DFF86C140988884210
:1020500040D301F06FFE0020DFF8781908804FF4BC
:10206000FA70DFF87419088041F28830DFF86C19D3
:1020700008800120DFF854190870DFF83404007874
:10208000002827D1DFF81C04DFF8FC1508600120C8
:10209000DFF81C1408701DE0DFF834090078002810
:1020A00018D1DFF814040088801EDFF808140988AE
:1020B00088420FDBDFF8FC030088462804DA0220A0
:1020C000DFF8A017087005E001F052FE0420DFF8E9
:1020D000FC180870DFF8D8030078012811D1DFF868
:1020E000A805006800280CD10C480078002808D109
:1020F0000C48007850F002000A4908700120074996
:102100000870DFF860070078DFF8BC18087001BDC0
:10211000C1150020C015002022160020BD1500208A
:10212000C215002045160020730000201C15002059
:10213000704780B5DFF890080078DFF8081A08705B
:10214000DFF868030078C0B2C009C0B2002800F010
:10215000B280DFF8F0090078002808D0022839D0D2
:1021600006D3042868D045D3052876D085E084E0DE
:102170000020DFF8D41908700020DFF8D0190870AB
:102180000020DFF82C130870DFF8C409007810F085
:10219000FD00DFF8BC190870DFF8B80900780228E4
:1021A0000AD1DFF814030188DFF8AC090078411880
:1021B000DFF80403018008E0DFF8FC020188DFF8A3
:1021C0009C0900784118BC4801800220DFF874198E
:1021D000087052E0B7480088B7490988884204D29D
:1021E0000420DFF86019087003E00520DFF85419B7
:1021F000087042E0AF480088AF49098888420FD391
:10220000AB480078002806D1A648DFF87C140860A7
:102210000120A74908700520DFF8281908700AE096
:10222000A5480088801EA3490988884203DB042052
:10223000DFF81019087020E0DFF85004007800285B
:1022400004D0DFF84C040078002801D101F06CFDC7
:102250000320DFF8F01808700FE0DFF83004007892
:10226000012804D0DFF828040078012801D101F00A
:1022700001FD0320DFF8CC1808708D480078012894
:1022800040F00981DFF800040068002840F0038175
:10229000DFF8B8080078002840F0FD80DFF8B008CB
:1022A000007850F00200DFF8A81808700120DFF86D
:1022B0009C180870EFE0DFF88C08007800280ED03A
:1022C00001280DD002282BD0032839D0042866D04D
:1022D000062800F08680072800F0A880C2E0C1E050
:1022E0000020DFF8641808700020DFF8601808701C
:1022F00000206F490870DFF85808007810F0FD00E2
:10230000DFF84C1808706C480188DFF84C0800783A
:102310004118694801800220DFF828180870A1E000
:102320006448008864490988884204D20420DFF8A0
:102330001418087003E00620DFF80818087091E010
:102340005D480088801E5B490988884204DB0420C0
:10235000DFF8F017087021E05648008856490988D0
:1023600088421BD3DFF8E007007800280AD1DFF8A5
:10237000F0070078DFF8D01708700620DFF8C417E0
:1023800008700BE0DFF804030078012804D0DFF8C0
:1023900000030078012801D101F06CFC62E0DFF855
:1023A00030060078012801D101F0C4FCB74800785C
:1023B000002811D1B648007800280DD101F0B4FCF6
:1023C000DFF884070078002806D0DFF87C07007863
:1023D000401EDFF8741708700320DFF868170870D4
:1023E00040E0AA480078012803D0A94800780128D5
:1023F00001D101F03FFCDFF8D8050078002801D1B9
:1024000001F0B6FC4EF66020DFF880150860284821
:102410000078002805D123489B4908600120244901
:1024200008700720DFF81C1708701BE0DFF85C0558
:10243000006800280BD020480088801E1D490988AC
:1024400088420FDB0420DFF8FC1608700AE0DFF892
:1024500080050078012801D101F06CFC0320DFF831
:10246000E416087012480078012814D186480068E4
:10247000002810D1DFF8D406007800280BD1DFF84F
:10248000D006007850F00200DFF8C4160870012072
:10249000DFF8B8160870DFF8AC060078DFF828150A
:1024A000087001BDC0270900C41500207015002068
:1024B000C31500203A1500206415002080B5DFF810
:1024C00008050078DFF8E01A0870DFF8DC0A007809
:1024D00000280FD0022813D00DD304285ED042D399
:1024E000062800F08B806FD3082800F0BA80C0F077
:1024F000A280C1E0C0E00220DFF8AC1A0870BBE0A7
:10250000DFF8A80A0088DFF8A81A0988884204D2F0
:102510000420DFF8941A087024E0DFF8F80AB0F914
:10252000000000281AD0DFF8840A0088DFF8801A3B
:10253000098888420DD3DFF8740A0088DFF8D41ABE
:10254000B1F90010884204DA0720DFF85C1A08703D
:1025500008E00820DFF8501A087003E00520DFF8D3
:10256000481A087088E0DFF8480A0088801EDFF803
:102570003C1A0988884204DB0420DFF82C1A087012
:102580000BE0DFF8280A0088DFF8241A098888425F
:1025900003D30520DFF8101A08706DE0DFF830046F
:1025A0000078012801D101F0C5FB384800780028E7
:1025B00003D037480078002801D101F0B5FB032093
:1025C000DFF8E419087057E030480078012803D09C
:1025D0002F480078012801D101F04CFBDFF8340AC4
:1025E000B0F90000002804D10320DFF8BC190870FE
:1025F00003E00720DFF8B01908703DE0DFF8140AA7
:10260000B0F90000801EDFF8A4190988884204DBB5
:102610000720DFF8941908700CE0DFF890090088B3
:10262000DFF8F019B1F90010884203DB0820DFF869
:102630007819087020E015480078012803D0144864
:102640000078012801D101F015FBDFF88403007840
:10265000002801D101F08CFB0620DFF84C1908702E
:102660000AE0DFF86C030078012801D101F062FB79
:102670000620DFF834190870DFF82C090078DFF83D
:102680004813087001BD00009814002013160020A4
:102690001616002080B5DFF830030078DFF80C1A3A
:1026A0000870DFF8080A007800280FD0022813D03D
:1026B0000DD304285ED042D3062800F08E8070D35C
:1026C000082800F0BE80C0F0A580C4E0C3E002206E
:1026D000DFF8D8190870BEE0DFF8D0080088DFF80E
:1026E000D0180988884204D20420DFF8C019087085
:1026F00024E0DFF82009B0F9000000281AD0DFF844
:10270000AC080088DFF8A818098888420DD3DFF8E4
:102710009C080088DFF8FC18B1F90010884204DA40
:102720000720DFF88819087008E00820DFF87C1916
:10273000087003E00520DFF8741908708BE0DFF8FB
:1027400070080088801EDFF864180988884204DB5E
:102750000420DFF8581908700BE0DFF850080088F3
:10276000DFF84C180988884203D30520DFF83C19AC
:10277000087070E096480078012801D101F0DAFA7B
:10278000DFF82C090078002804D0DFF82809007849
:10279000002801D101F0C8FA0320DFF810190870F1
:1027A00059E0DFF80C090078012804D0DFF80409AB
:1027B0000078012801D101F05DFADFF85808B0F97E
:1027C0000000002804D10320DFF8E018087003E0BF
:1027D0000720DFF8D81808703DE0DFF83808B0F9B6
:1027E0000000801EDFF8C4170988884204DB072038
:1027F000DFF8B81808700CE0DFF8B0070088DFF8E1
:102800001418B1F90010884203DB0820DFF89C1887
:10281000087020E0DFF898080078012804D0DFF87D
:1028200094080078012801D101F024FA6848007862
:10283000002801D101F09CFA0620DFF8701808701A
:1028400009E063480078012801D101F073FA0620FD
:10285000DFF858180870DFF8540800785A490870F3
:1028600001BD0000C515002080B557480078DFF88D
:1028700048180870DFF840080078002808D00228BF
:102880000CD006D3042836D01AD305284AD059E0F4
:1028900058E00220DFF82018087053E0DFF80C073A
:1028A0000088DFF80C170988884204D20420DFF87A
:1028B0000818087003E00520DFF8FC17087041E0F5
:1028C000DFF8EC060088801EDFF8E01609888842F1
:1028D00004DB0420DFF8E01708700BE0DFF8CC061B
:1028E0000088DFF8CC160988884203D30520DFF87A
:1028F000C817087026E036480078012801D101F099
:1029000019FADFF8AC070078002804D0DFF8A40734
:102910000078002801D101F007FA0320DFF89817AA
:1029200008700FE0DFF888070078012804D0DFF88E
:1029300084070078012801D101F09CF90320DFF819
:1029400078170870DFF8700700781F49087001BD1C
:1029500080B5DFF85C070078012804D0DFF8540761
:102960000078012801D101F085F919480078012883
:1029700001D101F0DFF90020DFF8E419087001202F
:102980001149087001BD0000E09304009414002078
:1029900080B5DFF81C070078012804D0DFF81407A1
:1029A0000078012801D101F065F909480078012873
:1029B00001D101F0BFF90020DFF8A4190870002050
:1029C0000149087001BD0000241600203F160020B8
:1029D000191600207E150020801500208215002089
:1029E00080B501F057FD02F052FC01F033FC4FF4CA
:1029F0007A700AF0EBFFDFF86C39002247F601012C
:102A0000062003F041FA0821DFF858090BF057F9C6
:102A1000DFF85439002247F60101062003F034FAAA
:102A20000821DFF844090BF061F9002006F0C2FB31
:102A30000120DFF8381908700120DFF83419088008
:102A4000DFF83009007850F00400DFF8281908702A
:102A5000DFF82009007850F00800DFF81819087036
:102A600001F05FFF03F04AFC00F07CF806F0DEFEA8
:102A700006F0E8F802F0C4F802F0B6F902F09DFAA8
:102A800002F07AFB03F064FBDFF8EC080078002822
:102A9000E6D102F0FBFB02F043FD03F05BF806F029
:102AA000BBF806F0BDF806F01DFA06F06DFA01F06D
:102AB00083FB07F093FB06F0A7FA07F0BFF907F0D6
:102AC000E7F907F016FADFF8A00C007807F08DFAA6
:102AD00007F014FC08F0A6F808F0DAFB08F01CFF79
:102AE00009F054FE09F002F8DFF8800C00780028A5
:102AF00001D100F0E3FA08F0A9FF09F0A7F8FEF70A
:102B00002AFB09F019FAFDF7E7FDFDF70FFFFDF7C6
:102B1000A0FFFEF741F800F0F6F909F02FFA09F0EE
:102B200060FC09F0B7FC09F00FFD09F055F909F058
:102B3000B7F909F000FC00F031FC00F04BFE01F0A9
:102B400047F98DE7C6150020C0150020BD150020EF
:102B50004516002069160020740000207500002032
:102B60002216002080B5DFF8080C0088002840F00D
:102B7000C981AA20DFF8041808703C20DFF8FC1790
:102B80004870DFF8FC070068DFF8F8170860DFF826
:102B9000E40700884FF4807190FBF1F201FB120012
:102BA000DFF8D817C870DFF8CC0700884FF48071C1
:102BB00090FBF1F0DFF8C4170871DFF8C807007860
:102BC000DFF8B8174871DFF8BC074078DFF8AC17BA
:102BD0008871DFF8B0078078DFF8A017C871DFF8D8
:102BE000A407C078DFF894170872DFF89C07007814
:102BF000DFF888174872DFF8940700884FF4807177
:102C000090FBF1F201FB1200DFF870178872DFF819
:102C10007C0700884FF4807190FBF1F0DFF85C17BF
:102C2000C872DFF86C0700884FF4807190FBF1F2F6
:102C300001FB1200DFF844170873DFF8540700881F
:102C40004FF4807190FBF1F0DFF830174873D748EC
:102C500000884FF4807190FBF1F201FB1200DFF865
:102C60001C178873D14800884FF4807190FBF1F0F5
:102C7000DFF80817C873DFF81C0700884FF480716D
:102C800090FBF1F201FB1200DFF8F0160874DFF898
:102C9000040700884FF4807190FBF1F0DFF8DC1638
:102CA0004874DFF8F406B0F9000080B24FF4807188
:102CB00090FBF1F201FB1200DFF8C0168874DFF818
:102CC000D806B0F9000080B24FF4807190FBF1F0AB
:102CD000DFF8A816C874DFF89C0AB0F9000080B2CB
:102CE0004FF4807190FBF1F201FB1200DFF88C16BB
:102CF0000875DFF8800AB0F9000080B24FF48071E7
:102D000090FBF1F0DFF874164875DFF86C0AB0F943
:102D1000000080B24FF4807190FBF1F201FB1200D1
:102D2000DFF858168875DFF8500AB0F9000080B255
:102D30004FF4807190FBF1F0DFF84016C875DFF8B2
:102D40003C0A0088DFF834160876DFF8340A008879
:102D5000DFF828164876DFF82C0A0088DFF81C1602
:102D60008876DFF8240A00884FF4807190FBF1F236
:102D700001FB1200DFF80416C876DFF80C0A0088A1
:102D80004FF4807190FBF1F0DFF8F0150877DFF871
:102D9000FC0900884FF4807190FBF1F201FB1200F6
:102DA000DFF8D8154877DFF8E40900884FF4807120
:102DB00090FBF1F0DFF8C4158877DFF8D4090078CC
:102DC000DFF8B815C877DFF8A4050078DFF8AC1590
:102DD00081F82000DFF8BC090078DFF8A01581F841
:102DE0002100DFF884090078DFF8901581F82200CF
:102DF000DFF8A4090078DFF8841581F82300DFF8F4
:102E00009C090078DFF8741581F82400DFF8900938
:102E100000684FF47A71B0FBF1F03C21B0FBF1F0A7
:102E2000DFF8581581F82500DFF8740900684FF4C1
:102E30007A71B0FBF1F03C21B0FBF1F201FB120022
:102E4000DFF8381581F82600DFF858090078C0F35C
:102E5000C000C0B2002818D0DFF84C0900884FF439
:102E6000807190FBF1F201FB1200DFF8101581F880
:102E70003200DFF8340900884FF4807190FBF1F0E4
:102E8000DFF8F81481F8330017E0DFF82009008834
:102E90004FF4807190FBF1F201FB1200DFF8DC14BB
:102EA00081F83200DFF8040900884FF4807190FB4C
:102EB000F1F0DFF8C81481F83300DFF8F408007887
:102EC000DFF8B81481F83400DFF8E80800684FF440
:102ED0007A71B0FBF1F0DFF8A41481F835003621E7
:102EE000DFF8980405F0A0FEDFF8901481F83600B2
:102EF0003721DFF888040AF010FF4FF4FA70DFF88A
:102F00007018088001BD80B500F014F800F052F888
:102F100000F082F800F0AFF801BDDFF89C180870EF
:102F2000DFF898180870DFF898180870DFF8D41CDC
:102F30000870704780B5DFF880080078002805D059
:102F4000022813D003D303281FD02BE02AE0DFF898
:102F500074080078002825D10120DFF86C18096872
:102F600088470220DFF8501808701BE0DFF854088B
:102F70000078002816D10120DFF84C1849688847EE
:102F80000320DFF8341808700CE0DFF83808007808
:102F9000002807D10120DFF8341808700020DFF87E
:102FA0001818087001BD0000C71500203A15002050
:102FB0006415002080B5DFF804080078002805D0EB
:102FC000022812D003D303281ED021E020E00120E4
:102FD000DFF8F417496988476E20DFF8F417088096
:102FE0000220DFF8D817087012E0DFF8E407008845
:102FF00000280DD10120DFF8D01789698847032008
:10300000DFF8B817087003E00020DFF8B017087089
:1030100001BD00007A15002080B5DFF8A407007814
:10302000002805D0022812D003D303281ED021E0A7
:1030300020E00120DFF89017C96A8847FA20DFF8FE
:10304000281B08800220DFF87817087012E0DFF8EC
:10305000180B008800280DD10120DFF86C17096BD0
:1030600088470320DFF85817087003E00020DFF8D6
:103070005017087001BD80B5DFF8880B0078002874
:1030800003D002280CD001D30EE00DE00120DFF8C0
:103090003817C96988470220DFF8681B087003E009
:1030A0000020DFF8601B087001BD0000C81500207B
:1030B0001316002016160020C915002010B5DFF8E1
:1030C000AC0A0078002840F04981DFF8180B00783E
:1030D000002817D1DFF8100B0078002808D1DFF89E
:1030E000280B0078022803D00220DFF85C1B087050
:1030F000DFF8180B0078022803D00220DFF8101B3D
:1031000008702BE1DFF80C0B0078002822D09948DA
:103110000078C0F30010C0B200280DD00220DFF804
:10312000F01A0870DFF8200B0078032811DA02206B
:10313000DFF8141B08700CE00120DFF8D41A0870C7
:10314000DFF8040B0078032803DA0220DFF8F81A0E
:10315000087003E187480078C0F30010C0B200286F
:1031600000F08680DFF8080B0078012867D1002482
:103170001BE0DFF82C0B007821002039084110F00B
:103180000100DFF8441651F8241088470CE0202C89
:10319000EFDADFF8100B0068E04010F00100DFF814
:1031A000281651F824108847641CDFF8FC0A0078C0
:1031B0008442ECDBDFF8380B0078012804D0DFF81C
:1031C0000C0B0078012802D100F0AEFD09E00020D0
:1031D000DFF8F415496E88470020DFF8EC15896E9A
:1031E0008847DFF8EC0A0078012802D100F0C0FD22
:1031F00004E00020DFF8D015C96E8847DFF8180B0F
:103200000078DFF8181B0870DFF8140B0078DFF87F
:10321000581508700020DFF8DC1A08700220DFF86B
:10322000F01908700120DFF8201A08700120DFF87B
:10323000F41A08700020DFF8381A08708EE0DFF802
:10324000600B0078002840F08980DFF8D00A007811
:10325000012804D10120DFF8F019087003E00220F2
:10326000DFF8E41908700120DFF8341B087075E0FE
:10327000DFF8FC09007800286CD141480068DFF8CD
:10328000241A086040480078DFF8141A0870DFF844
:103290008C0A0078DFF8801A0870DFF818050068DB
:1032A000DFF8C81A0860DFF8FC0A0078DFF8401A77
:1032B0000870DFF8F40A0078DFF8101A0870DFF8F9
:1032C000EC0A0078DFF8081A0870DFF89C04007830
:1032D000DFF84C1A08700120DFF88C140870DFF852
:1032E000C40A0078012804D0DFF8BC0A007801285D
:1032F00001D100F0BFFCDFF8B40A0078012801D149
:1033000000F018FDDFF8140A0078012803D101202D
:10331000DFF89C1A08700020DFF8001A08700120FE
:10332000DFF8EC1808700220DFF81C190870002084
:10333000DFF89414C96888470020DFF88C14096905
:1033400088470020DFF88014496A88470120DFF8A9
:10335000201908700020DFF8481A087010BD00001E
:103360002316002008130020701300204C160020A4
:10337000241500202A1500205A16002020110020B4
:10338000C4140020A0140020FD15002032150020D8
:10339000361500203E1500205215002080B5DFF8BC
:1033A000140A007800282AD002285DD028D30428E7
:1033B00000F08F807DD3062800F0BC80C0F0A28092
:1033C000082800F0EB80C0F0CD800A2800F01B81B7
:1033D000C0F0FB800C2800F04481C0F033810E283F
:1033E00000F07681C0F05781102800F07781C0F09E
:1033F0007081122800F0B281C0F09A81B2E1B1E18F
:103400000220DFF8B4190870DFF898030078C0F3E1
:10341000C000C0B200280FD0012008F0A5FCDFF8E2
:103420009C09007850F00800DFF8901908700E2011
:10343000DFF88019087016E0DFF86803007810F0F4
:10344000010000280FD00020DFF874190880DFF891
:103450006C09007810F0F700DFF86019087002209E
:10346000DFF8501908707DE1DFF854090088002862
:1034700040F078810020D449096D88470020D24966
:10348000C96C88470120D049496E8847DFF8340964
:10349000807802F0CBFBDFF82C09017B4FF47A70C7
:1034A0004143DFF81C0901800320DFF80819087088
:1034B00058E1DFF80C090088002840F053814FF4F0
:1034C000FA70DFF8FC1808800420DFF8E8180870AC
:1034D00048E1DFF8EC080088002840F04381012033
:1034E000B949496E8847DFF8DC08C07802F09EFBD6
:1034F00040F6B830DFF8C81808800520DFF8B418A7
:1035000008702FE1DFF8B8080088002840F02A8111
:103510000120AD49096D8847DFF8A808817A4FF48A
:103520007A704143DFF8980801800620DFF884189C
:10353000087017E1DFF888080088002840F0128141
:103540000120A149C96C8847DFF87808C17A4FF497
:103550007A704143DFF8680801800720DFF85418CB
:103560000870FFE0DFF858080088002811D0DFF865
:1035700058084078C0F34000C0B200280DD00820A1
:10358000DFF8301808704FF47A70DFF834180880CC
:1035900003E00920DFF81C180870E3E0DFF82008DA
:1035A000008800280CD0DFF820084078C0F34000E5
:1035B000C0B2002808D10920DFF8F817087003E02E
:1035C0000B20DFF8F0170870CCE0DFF8EC0700788C
:1035D00000280BD0DFF8E0070078401EDFF8D8178E
:1035E00008700A20DFF8CC1708700BE0DFF8DC0762
:1035F0000078002802D1FB206C4908800F20DFF8FA
:10360000B4170870AEE000206F49096D88470020AC
:103610006D49C96C884701206B49496E8847DFF8BE
:10362000A407807802F002FBDFF89807017B4FF4D3
:103630007A704143DFF8880701800220DFF87417B1
:1036400008708FE0DFF87C07007902F0EFFA4FF4A2
:10365000FA60DFF86C1708800C20DFF85817087044
:1036600080E0DFF85C07008800287BD10020564905
:10367000096D8847DFF84407007850F00800DFF84C
:103680003C1708700120DFF82C1B08700D20DFF8B4
:103690002417087066E0DFF830074078C0F3400078
:1036A000C0B2002813D1DFF824070078002806D123
:1036B000FE203E4908800020DFF8F8160870002040
:1036C000DFF8F01A08700F20DFF8E816087049E0FC
:1036D00048E01020DFF8DC16087043E0314800783D
:1036E000C0F3C000C0B2002803D0002008F03CFBAB
:1036F00019E000203449096D884700203249C96C1F
:10370000884701203049496E8847DFF8B80680783D
:1037100002F08CFADFF8AC06017B4FF47A7041437B
:10372000DFF89C0601801120DFF88816087019E088
:10373000DFF88C060088002814D100202249496E49
:103740008847DFF87806007810F0F700DFF86C168D
:1037500008701220DFF85C16087003E00020DFF824
:103760005416087001BD00002816002063160020C2
:103770001E1500205415002056150020421500206B
:1037800044150020461500204E150020501500203D
:10379000411600207100002044160020451600202C
:1037A00094140020701500208C1500208A1500202C
:1037B0005B160020D4140020761600207516002019
:1037C00074160020B815002080100020211600205B
:1037D0009A15002080B5DFF86C0A0078C0F340002D
:1037E000C0B2002800F0BF81DFF89C0C00780028F0
:1037F00029D002283DD027D3042872D061D30628CF
:1038000000F0A280C0F08780082800F0D280C0F0CD
:10381000B4800A2800F00381C0F0E2800C2800F098
:103820002E81C0F01E810E2800F05E81C0F0408124
:10383000102800F05F81C0F05881122800F08F81BD
:10384000C0F078818FE18EE10220DFF8FC1908706A
:103850000020DFF8F8190880DFF86005007810F024
:10386000EF00DFF8581508700220DFF81C1C087004
:1038700079E1DFF8D8090088002840F07481002041
:10388000DFF8CC19896D88470020DFF8C419496D2D
:1038900088470120DFF8B819896E8847DFF82405CA
:1038A000C07902F0E7F9DFF81C05017B4FF47A706C
:1038B0004143DFF8980901800320DFF8CC1B087032
:1038C00051E1DFF888090088002840F04C814FF46E
:1038D000FA70DFF8781908800420DFF8AC1B087054
:1038E00041E1DFF868090088002840F03C810120B0
:1038F000DFF85C19896E8847DFF8C804007A02F0A7
:10390000B9F940F6B830DFF8441908800520DFF82F
:10391000781B087027E1DFF834090088002840F0A0
:1039200022810120DFF82819896D8847DFF8940487
:10393000817A4FF47A704143DFF810090180062044
:10394000DFF8441B08700EE1DFF80009008800284A
:1039500040F009810120DFF8F818496D8847DFF849
:103960006404C17A4FF47A704143DFF8E0080180C3
:103970000720DFF8141B0870F5E0DFF8D008008896
:10398000002811D0DFF840044078C0F38000C0B2B6
:1039900000280DD00820DFF8F01A08704FF47A7074
:1039A000DFF8A818088003E00920DFF8DC1A0870A7
:1039B000D9E0DFF89808008800280CD0DFF8080468
:1039C0004078C0F38000C0B2002808D10920DFF899
:1039D000B81A087003E00B20DFF8AC1A0870C2E0D8
:1039E000DFF86408007800280BD0DFF85C08007866
:1039F000401EDFF8541808700A20DFF88C1A08708F
:103A00000CE0DFF8C8030078002803D1FC20DFF8C1
:103A10007C1A08800F20DFF8701A0870A3E00020DD
:103A2000DFF82C18896D88470020DFF82418496DCD
:103A300088470120DFF81818896E8847DFF884036B
:103A4000C07902F017F9DFF87C03017B4FF47A703C
:103A50004143DFF8F80701800220DFF82C1A0870D4
:103A600081E0D848407A02F005F94FF4FA60DFF8B7
:103A7000DC1708800C20DFF8101A087073E0DFF8FC
:103A8000CC07008800286ED10020DFF8C417896DAC
:103A90008847CA48007850F01000C84908700120D3
:103AA000DFF8EC1908700D20DFF8DC1908705AE017
:103AB000C5484078C0F38000C0B2002813D1C34885
:103AC0000078002807D1FF20DFF8C0190880002007
:103AD000DFF8B41908700020DFF8B41908700F205F
:103AE000DFF8A41908703EE03DE01020DFF89819D7
:103AF000087038E00020DFF85817896D88470020EB
:103B0000DFF84C17496D88470120DFF84417896EAC
:103B10008847AC48C07902F0ADF8AA48017B4FF461
:103B20007A704143DFF8240701801120DFF858192B
:103B3000087018E0DFF814070088002813D100206F
:103B4000DFF80C17896E88479C48007810F0EF006A
:103B50009A4908701220DFF83019087003E000203D
:103B6000DFF82419087001BD9C150020681600209C
:103B7000C0B2002802D0012809D022E00220DFF8DC
:103B8000081A08700420DFF8041A087019E00320EE
:103B9000DFF8F4190870DFF8AC060078C0B2C0098D
:103BA000C0B200280DD10120DFF8E01908704FF4F1
:103BB000FA70DFF8DC19088041F28830DFF8D41998
:103BC00008800120DFF8D01908700020DFF8CC1938
:103BD000088001201C4908700120DFF85C1C087077
:103BE000704700001E160020371600200F20DFF857
:103BF000981908700220144908700420DFF88C1905
:103C00000870704773160020331600203516002008
:103C1000341600202A160020DFF8841908700120CD
:103C2000DFF8741908700020DFF87019088001208F
:103C3000054908700420DFF8541908700520DFF8E2
:103C40004819087070470000321600200020DFF885
:103C5000501908700F20DFF8301908700420DFF8C1
:103C60002C1908700220DFF8D41B08707047000080
:103C70004016002080B500F003F800F017F801BDF1
:103C800048480078012805D10020464908700F20D7
:103C9000484908700020DFF81C15087070470000C4
:103CA000FE150020C8140020CA1500203E480078E8
:103CB000012806D100203C4908700F20DFF8C81702
:103CC00008700020DFF8C81708707047171600202A
:103CD0001A16002080B501203249087001203549AC
:103CE000087032480078012801D100F023F801BDA6
:103CF000141600200E16002080B501202A490870F5
:103D00000120DFF88417087028480078012801D1C5
:103D100000F010F801BD00000C1600200B1600206A
:103D2000291600205816002080B5FFF7D3FFFFF7B3
:103D3000E3FF01BDDFF80C050078C0B2C009C0B2D6
:103D400000280ED11948007801280AD1002017490F
:103D500008700F20DFF8E81A08700020DFF8E41A76
:103D600008700020DFF8E01A08707047D8140020AF
:103D7000DFF8D0040078C0B2C009C0B200280ED16C
:103D800001200A4908700120DFF8AC1A08700120F0
:103D9000DFF8AC1A08700120DFF8A81A0870704725
:103DA00059160020131600201616002019160020A0
:103DB0000D16002011160020151600202E150020CB
:103DC00060150020681400202A1500205C160020D1
:103DD00080B5DFF86C0A007800282BD0022864D068
:103DE00029D3042800F09980C0F08780062800F0CD
:103DF000C580C0F0AB80082800F0F480C0F0D68009
:103E00000A2800F02581C0F004810C2800F04E81C2
:103E1000C0F03D810E2800F08181C0F06181102842
:103E200000F08281C0F07B81122800F0BD81C0F0DB
:103E3000A581BDE1BCE10220DFF8101A0870DFF8AF
:103E400004040078C0F38000C0B2002810D0002025
:103E5000DFF8FC190880DFF8FC09007810F0DF00BB
:103E6000DFF8F01908700220DFF8D41908701BE0A1
:103E7000DFF8D0030078C0F30010C0B200280FD0E4
:103E8000012007F08CFFDFF8CC09007850F020000B
:103E9000DFF8C01908700E20DFF8A419087003E0DD
:103EA0000020DFF89C19087082E1DFF8A40900887F
:103EB000002840F07D810020DFF89413096E8847C8
:103EC0000020DFF88C13C96D88470120DFF88013CC
:103ED000C96E8847DFF88009807801F0F7FEDFF8C7
:103EE0007809C1794FF47A704143DFF864090180A1
:103EF0000320DFF84C1908705AE1DFF854090088F4
:103F0000002840F055814FF4FA70DFF8441908801A
:103F10000420DFF82C1908704AE1DFF83409008822
:103F2000002840F045810120C949C96E8847DFF863
:103F30002809C07801F0CAFE40F6B830DFF8101941
:103F400008800520DFF8F818087031E1DFF8000973
:103F50000088002840F02C810120BD49096E884767
:103F6000DFF8F40841794FF47A704143DFF8E00854
:103F700001800620DFF8C818087019E1DFF8D008C2
:103F80000088002840F014810120B149C96D88479C
:103F9000DFF8C40881794FF47A704143DFF8B00844
:103FA00001800720DFF89818087001E1DFF8A00809
:103FB0000088002811D0DFF8A4084078C0F3C000C2
:103FC000C0B200280DD00820DFF8741808704FF434
:103FD0007A70DFF87C18088003E00920DFF86018A9
:103FE0000870E5E0DFF86808008800280CD0DFF8EA
:103FF0006C084078C0F3C000C0B2002808D1092086
:10400000DFF83C18087003E00B20DFF83418087064
:10401000CEE0DFF83808007800280BD0DFF82C0855
:104020000078401EDFF8241808700A20DFF8101806
:1040300008700CE0DFF828080078002803D1FD2084
:10404000DFF8481408800F20DFF8F4170870AFE09D
:1040500000207F49096E884700207D49C96D884747
:1040600001207B49C96E8847DFF8EC07807801F0B2
:104070002DFEDFF8E407C1794FF47A704143DFF891
:10408000D00701800220DFF8B817087090E0DFF851
:10409000C807007901F01AFE4FF4FA60DFF8B01794
:1040A00008800C20DFF89817087081E0DFF8A0077F
:1040B000008800287CD100206549096E8847DFF818
:1040C0009407007850F02000DFF88817087001206E
:1040D000DFF8741708700D20DFF86417087067E0C8
:1040E000DFF878074078C0F3C000C0B2002814D1D0
:1040F000DFF86C070078002807D14FF48070E3499F
:1041000008800020DFF8381708700020DFF8381723
:1041100008700F20DFF82817087049E048E01020E9
:10412000DFF81C17087043E046480078C0F3001021
:10413000C0B2002803D0002007F031FE19E00020B3
:104140004349096E884700204149C96D88470120CD
:104150003F49C96E8847DFF80007807801F0B6FD57
:10416000DFF8F406C1794FF47A704143DFF8E006D6
:1041700001801120DFF8C816087019E0DFF8D006BA
:104180000088002814D100203149C96E8847DFF823
:10419000C406007810F0DF00DFF8B81608701220AF
:1041A000DFF89C16087003E00020DFF89416087012
:1041B00001BD00004D16002080B5DFF8380A0078F8
:1041C00000283ED01F48007810F0140F04D10120C1
:1041D000DFF8241A087034E0DFF8200A007800289D
:1041E0002FD1DFF85406007800282AD0DFF86C06BB
:1041F000007810F00100002811D00020144909694E
:1042000088474FF4FA60DFF8041B08800120DFF8CC
:104210004C1D08700120DFF8E019087011E0012042
:104220000B4909698847DFF8340D0078012808D167
:10423000DFF8D80A0088002803D10020DFF81C1D11
:10424000087001BD701500201816002062150020AE
:104250008010002010B5FBF798FFFCF793FF0024B7
:1042600006E00020DFF8F01A51F824108847641C9B
:10427000DFF8E80A00788442F3DB4FF40051DFF8FE
:10428000E00A08F0FBFE4FF40041DFF8D40A08F022
:10429000F2FE4FF48061DFF8C80A08F0EFFE4FF439
:1042A0008051DFF8BC0A08F0E6FE8021DFF8B00A92
:1042B00008F0E4FE4FF40071DFF8A40A08F0DBFE1A
:1042C0001021DFF89C0A08F0D9FE4021DFF8900A9F
:1042D00008F0D1FE41F2883001F076F80A2001F0B2
:1042E000A5FC142001F0C6FC1E2001F0EFFC01200B
:1042F000DFF8BC1A08700120DFF8B81A0870012036
:10430000DFF8B41A08700120DFF8B01A08706420D2
:10431000DFF8AC1A08706420DFF8A81A087064206F
:10432000DFF8A41A08706420DFF8A01A08701B20B8
:10433000DFF89C1AC8703420DFF8941A0871342012
:10434000DFF88C1A88702620DFF8841A08724A2059
:10435000DFF87C1A48724A20DFF8741AC87103200B
:10436000DFF86C1A88720320DFF8641AC87205201F
:10437000DFF85C1A08732720DFF8DC14C8704820C7
:10438000DFF8D41408714820DFF8CC1488700320BB
:10439000DFF8C41448710320DFF8BC1488710520CD
:1043A000DFF8B414C8710120DFF8281A0870012062
:1043B000DFF8241A08700120DFF8201A08700120A5
:1043C000DFF81C1A08700120DFF8181A08700120A5
:1043D000DFF8241B08700120DFF8201B0870012083
:1043E000DFF81C1B08700120DFF8301B087001206B
:1043F000DFF83C1B08700120DFF8381B0870012033
:10440000DFF8441B08700020DFF82C14087000202F
:1044100008F0F9F8B0F1AA3F1ED1012008F0F3F836
:10442000DFF83C1B0860022008F0EDF8DFF8341BD1
:104430000860032008F0E7F8DFF82C1B0860042070
:1044400008F0E1F8DFF8241B0860052008F0DBF82D
:10445000DFF8101D086015E008F0DBF80020DFF839
:10446000001B08600020DFF8FC1A08600020DFF85D
:10447000F81A08600020DFF8F41A08600020DFF85E
:10448000E41C086010BD0000121600208A150020F0
:104490004E16002080B509F077FC5FF4803009F0FB
:1044A000A3FC09F0CBFCDFF8C01C0870DFF8B80CE7
:1044B0000078012824D1002009F0FBFC002009F03D
:1044C0000CFD4FF4806009F0FEFC102009F0F0FDB7
:1044D000022009F0E1FD5FF4E0115FF4803009F0A3
:1044E000C9FC012009F0D2FC392009F097FD002811
:1044F000FAD0022009F0CEFC09F0D6FC0828FBD146
:104500000121042009F06AFD0121082009F066FD5F
:104510000121102009F062FD0121202009F05EFD3B
:104520000121402009F05AFD0121802009F056FDAB
:1045300001214FF4807009F051FD01214FF48040BA
:1045400009F04CFD01215FF4003009F057FD012115
:104550005FF4802009F052FD01215FF4002009F092
:104560004DFD0121012009F029FD01214FF40050EA
:1045700009F034FD00F016F809F0EEFA00F080F9C9
:1045800000F070F901BD0000231600203F16002046
:104590008015002082150020241600202C150020F4
:1045A0002216002080B54FF4E070ADF8000018200E
:1045B0008DF8030003208DF802006946DFF8100B28
:1045C00008F0ECFC4BF2D060ADF8000010208DF844
:1045D000030003208DF802006946DFF8840708F025
:1045E000DDFC44F62010ADF8000048208DF80300F3
:1045F00003208DF802006946DFF8640708F0CEFC5E
:104600004FF40070ADF8000018208DF8030003206F
:104610008DF802006946DFF8F00A08F0BFFC4FF49D
:104620008060ADF8000004208DF803006946DFF8D3
:10463000D80A08F0B3FC0420ADF8000018208DF86B
:10464000030003208DF802006946DFF8BC0A08F079
:10465000A5FC0820ADF8000004208DF80300694691
:10466000DFF8A40A08F09AFC4FF48060ADF800006F
:1046700018208DF8030003208DF802006946DFF84A
:10468000080C08F08BFC4FF40060ADF8000004202B
:104690008DF803006946DFF8F00B08F07FFC4FF45B
:1046A0008060ADF8000018208DF8030003208DF81D
:1046B00002006946DFF8180A08F070FC4FF4006049
:1046C000ADF8000004208DF803006946DFF8000A09
:1046D00008F064FC4FF6FF70ADF8000010208DF874
:1046E000030003208DF802006946DFF8800A08F015
:1046F00055FC4FF20C00ADF8000010208DF80300BF
:1047000003208DF802006946DFF8640A08F046FCD1
:104710004FF47F60ADF8000048208DF803000320BF
:104720008DF802006946DFF8480A08F037FC43F2CA
:104730000300ADF8000010208DF8030003208DF871
:1047400002006946DFF8400B08F028FC4FF44340B4
:10475000ADF8000048208DF8030003208DF802001A
:104760006946DFF8240B08F019FC4FF44050ADF80F
:10477000000010208DF8030003208DF80200694628
:10478000DFF84C0908F00AFC4FF46040ADF8000077
:1047900010208DF8030003208DF802006946DFF831
:1047A000D40908F0FBFB0320ADF8000048208DF889
:1047B000030003208DF802006946DFF8A40508F025
:1047C000EDFB1820ADF8000010208DF80300032049
:1047D0008DF802006946DFF8F80808F0DFFB4FF4B7
:1047E000F050ADF8000010208DF8030003208DF884
:1047F00002006946DFF87C0908F0D0FB0420ADF820
:10480000000010208DF8030003208DF80200694697
:10481000DFF8740A08F0C2FB4FF44070ADF80000F6
:1048200048208DF8030003208DF802006946DFF868
:10483000580A08F0B3FB01BD2616002032160020EE
:104840001B160020461600204F1600201C160020C4
:10485000681500202E1500208C1400202A15002039
:104860005C16002080B548F6A040FBF774FC0028D9
:1048700000D0FEE700215FF0FF30FBF759FC01BDDF
:1048800080B54FF4E06009F0DFFC0B208DF80000EC
:1048900000208DF8010000208DF8020001208DF825
:1048A0000300684609F0D5FC25208DF800000020A3
:1048B0008DF8010001208DF8020001208DF8030021
:1048C000684609F0C6FC26208DF8000000208DF80F
:1048D000010002208DF8020001208DF803006846D7
:1048E00009F0B7FC27208DF8000000208DF80100AA
:1048F00003208DF8020001208DF80300684609F0BE
:10490000A8FC34208DF8000000208DF80100042060
:104910008DF8020001208DF80300684609F099FC2B
:1049200001BD80B5DFF8700B0088002840F01581CC
:10493000DFF8840A0088002806D0DFF87C0A0088A7
:10494000401EDFF8741A0880DFF8700A008800281B
:1049500006D0DFF8680A0088401EDFF8601A088079
:10496000DFF85C0A0088002806D0DFF8540A0088C7
:10497000401EDFF84C1A0880DFF8480A008800283B
:1049800006D0DFF8400A0088401EDFF8381A088099
:10499000DFF8080B0088002806D0DFF8000B00883D
:1049A000401EDFF8F81A0880DFF8F40A00880028B3
:1049B00006D0DFF8EC0A0088401EDFF8E41A088011
:1049C000DFF8E00A0078002806D0DFF8D80A00787F
:1049D000401EDFF8D01A0870DFF8CC0A00780028F3
:1049E00006D0DFF8C40A0078401EDFF8BC1A087051
:1049F000DFF8B80A0078002823D0DFF8B40A00688E
:104A0000401CDFF8AC1A0860DFF8A40A006848F61A
:104A1000A041B0FBF1F080B2402808DBDFF8940A37
:104A2000007850F0FC00DFF88C1A087009E0DFF81D
:104A3000841A097811F0030151EA8001DFF8740A41
:104A400001706C480078002806D04FF40041DFF870
:104A5000240708F013FB05E04FF40041DFF81407CA
:104A600008F009FBDFF8500A006890F48040DFF896
:104A7000481A0860DFF8400A006890F40050DFF838
:104A8000381A0860DFF8340A0088002840D1DFF8BF
:104A9000300A0078002806D0DFF8C4040068401C03
:104AA000DFF8BC140860DFF81C0A0078002806D084
:104AB000DFF8B0040068401CDFF8A81408603A482A
:104AC0000078002806D0DFF8A0040068401CDFF85A
:104AD00098140860DFF8F0090078002806D0DFF8A5
:104AE0008C040068401CDFF884140860DFF8DC09DF
:104AF0000078002806D0DFF86C060068401CDFF85C
:104B0000641608604FF41670DFF8B019088006E0EC
:104B1000DFF8A8090088401EDFF8A0190880DFF838
:104B2000B0090078002814D0DFF8A4090078401EEE
:104B3000DFF89C190870DFF898090078002804D085
:104B400001208549896C884703E000208249896CEF
:104B500088476420DFF84019088001BD80B51F2018
:104B6000DFF8701908704FF40041DFF86C0908F0A5
:104B700085FA01BD80B54FF40041DFF85C0908F00B
:104B80007AFA01BD80B54FF40051DFF84C0908F006
:104B900075FA01BD80B54FF40051DFF83C0908F00B
:104BA0006AFA01BD000000004F16002080B54FF4E6
:104BB00080416B4808F054FA00280DD0DFF81C093A
:104BC00001680122DFF80C0990F9000082401143CE
:104BD000DFF8080901600CE0DFF800090168012234
:104BE000DFF8F00890F9000082409143DFF8EC080C
:104BF000016001BD1E16002020160020371600207F
:104C000080B56F480078002840F07F80DFF8D0083A
:104C10000078002802D1FFF7A1FF1CE0DFF8C008F0
:104C20000178032291FBF2F002FB1010C0B20028C1
:104C300008D0022803D00ED2FFF7ACFF0BE0FFF73D
:104C4000B5FF08E0FFF79EFFDFF888080078401EF8
:104C5000DFF880180870DFF87C0890F90000002861
:104C60004CD5FFF787FF0020DFF874180870DFF8D5
:104C70006C080068DFF86C180860DFF868080068E6
:104C8000800CDFF864180880DFF85C08B0F90000D9
:104C9000042190FBF1F0DFF850180880DFF8480895
:104CA0000088DFF84818DFF84828127821F8120049
:104CB000DFF83C080078401CDFF834180870DFF893
:104CC000300800780A2803DB0020DFF82418087079
:104CD0000021002205E0DFF8140830F81200411826
:104CE000521C0A2AF7DB89B20A2091FBF0F0DFF8A8
:104CF0000418088064203249087006E0DFF8E007F5
:104D00000078401CDFF8D817087001BD7815002026
:104D100080B51F20DFF8E01708704FF48051DFF8EE
:104D2000B80708F0ABF901BD80B54FF48051DFF84A
:104D3000A80708F0A0F901BD80B54FF48061DFF845
:104D4000980708F09BF901BD80B54FF48061DFF84A
:104D5000880708F090F901BD80100020CA150020D6
:104D60000020014080B54FF40061DFF86C0708F0C7
:104D700077F900280DD0DFF8840701680122DFF8F9
:104D8000780790F9000082401143DFF87007016056
:104D90000CE0DFF8680701680122DFF85C0790F992
:104DA000000082409143DFF85407016001BD00001C
:104DB0007B16002082160020891600209016002005
:104DC000EE150020F2150020F6150020FA1500203F
:104DD00068140020CC150020CF150020D21500202B
:104DE000D5150020D815002080B5DFF8140700780D
:104DF000002840F08080DFF83C0D0078002802D1C8
:104E0000FFF786FF1CE0DFF82C0D0178032291FBF1
:104E1000F2F002FB1010C0B2002808D0022803D024
:104E20000ED2FFF791FF0BE0FFF79CFF08E0FFF7C2
:104E300083FFDFF8C4060078401EDFF8BC16087058
:104E4000DFF8B40690F9000000284DD5FFF76CFF9D
:104E50000020DFF8E01C0870DFF8A0060068DFF82B
:104E6000A4160860DFF89C060068800CDFF898162E
:104E70000880DFF89406B0F90000042190FBF1F0FF
:104E8000DFF884160880DFF880060088DFF87C16DB
:104E9000DFF87C26127821F81200DFF8740600781B
:104EA000401CDFF86C160870DFF8640600780A28EA
:104EB00003DB0020DFF8581608700021002205E00F
:104EC000DFF8480630F812004118521C0A2AF7DBB6
:104ED00089B20A2091FBF0F0DFF8381608806420D0
:104EE000DFF81C16087006E0DFF8480C0078401C5C
:104EF000DFF8401C087001BDDB150020DE15002026
:104F0000E115002080B51F20DFF80C1608704FF463
:104F10000071DFF8C40508F0B1F801BDE315002009
:104F200080B54FF40071DFF8B00508F0A4F801BDBA
:104F3000E5150020E715002080B58021DFF89805F1
:104F400008F09CF801BD0000EA15002080B5802122
:104F5000DFF8840508F08FF801BD00002716002057
:104F60000015002004150020081500200C15002055
:104F700080B54FF48071DFF8600508F071F8002803
:104F80000DD0DFF8B40B01680122DFF88C0590F931
:104F9000000082401143DFF8A00B01600CE0DFF855
:104FA000980B01680122DFF8700590F9000082403B
:104FB0009143DFF8840B016001BD80B5DFF85C052B
:104FC0000078002840F08280DFF8480D0078002843
:104FD00002D1FFF797FF1CE0DFF8380D01780322BC
:104FE00091FBF2F002FB1010C0B2002808D002289A
:104FF00003D00ED2FFF7AAFF0BE0FFF7B9FF08E0DE
:10500000FFF79AFFDFF810050078401EDFF808155B
:105010000870DFF8040590F9000000284FD5FFF76D
:105020007FFF0020DFF8EC1C0870DFF80C0B006835
:10503000DFF8081B0860DFF8040B0068800CDFF85D
:10504000001B0880DFF8F80AB0F90000042190FB8B
:10505000F1F0DFF8EC1A0880DFF8E40AB0F900009C
:10506000401DDFF8E01ADFF8E02A127821F812007C
:10507000DFF8D40A0078401CDFF8CC1A0870DFF89B
:10508000C80A00780A2803DB0020DFF8BC1A087081
:105090000021002205E0DFF8AC0A30F812004118C8
:1050A000521C0A2AF7DB89B20A2091FBF0F0DFF8E4
:1050B0009C1A08806420DFF86414087006E0DFF8AA
:1050C000540C0078401CDFF84C1C087001BD000037
:1050D0000010014080B51F20DFF8741A08704021CD
:1050E000DFF8F40307F0CAFF01BD80B54021DFF807
:1050F000E80307F0C0FF01BD80B51021DFF8D80339
:1051000007F0BCFF01BD00000008014080B5102180
:10511000DFF8C40307F0AFFF01BD80B52021DFF841
:10512000B80307F09DFF00280DD0DFF88C0B016855
:105130000122DFF81C0A90F9000082401143DFF8D9
:10514000780B01600CE0DFF8700B01680122DFF8DA
:10515000000A90F9000082409143DFF85C0B016087
:1051600001BD0000101500206E0000200018014055
:1051700000140140001C014080B5DFF8F40A0078FB
:10518000002840F08080DFF8F00C0078002802D181
:10519000FFF7A0FF1CE0DFF8E00C0178032291FB91
:1051A000F2F002FB1010C0B2002808D0022803D091
:1051B0000ED2FFF7ABFF0BE0FFF7AFFF08E0FFF702
:1051C0009BFFDFF88C090078401EDFF88419087017
:1051D000DFF87C0990F9000000284DD5FFF785FF26
:1051E0000020DFF8941C0870DFF8CC0A0068DFF8B4
:1051F000CC1A0860DFF8C40A0068800CDFF8C01A17
:105200000880DFF8BC0AB0F90000042190FBF1F03F
:10521000DFF8AC1A0880DFF8A80A0088DFF8A41AC3
:10522000DFF8A42A127821F81200DFF89C0A00782F
:10523000401CDFF8941A0870DFF88C0A00780A28FE
:1052400003DB0020DFF8801A08700021002205E04F
:10525000DFF8700A30F812004118521C0A2AF7DBF6
:1052600089B20A2091FBF0F0DFF8A41A08806420CC
:10527000DFF8FC19087006E0DFF8FC0B0078401C32
:10528000DFF8F41B087001BD000C0140704700B549
:1052900091B02320ADF8000003208DF8020000201B
:1052A0008DF803006946DFF8700A07F077FE0121E8
:1052B000012008F083FE4FF4004008F018FE0121A1
:1052C0004FF4007008F08AFEDFF8500A08F0FEFF85
:1052D000DFF84C0A0690DFF84C0A0790002008908F
:1052E0000320099000200A9080200B904FF400705A
:1052F0000C904FF400600D9020200E904FF4005061
:105300000F900020109006A9DFF8100A09F062F84B
:105310000121DFF8080A09F07BF800200190012044
:105320008DF8080001208DF809005FF460200390DB
:105330000020049003208DF8140001A9DFF8180C58
:1053400009F0AEF8052301220A21DFF80C0C09F060
:1053500011F9052302220B21DFF8FC0B09F00AF9F1
:10536000052303220F21DFF8F00B09F003F90121D7
:10537000DFF8E40B09F0C6F80121DFF8DC0B09F0D7
:10538000B4F8DFF8D40B09F0CAF8DFF8CC0B09F059
:10539000CBF80028F9D1DFF8C00B09F0CFF8DFF81F
:1053A000B80B09F0D0F80028F9D10121DFF8A80BDB
:1053B00009F0D3F811B000BD981500209A1500200F
:1053C0009C1500208415002000B587B0DFF8FC197B
:1053D000B1FBF0F0DFF8F81908600020ADF8160016
:1053E0000020ADF81200DFF8E8090068401EADF8B3
:1053F00014000020ADF8100000208DF8180004A95A
:10540000DFF8400C09F020F96020ADF80000002022
:10541000ADF80C000020ADF808000020ADF80E003B
:105420000020ADF80A000120ADF802000020ADF820
:1054300004000020ADF806006946DFF8080C09F00A
:105440001EF96946DFF8FC0B09F052F96946DFF8EE
:10545000F40B09F08DF90021DFF8E80B09F0F9F9F8
:105460000021DFF8E00B09F0FDF90021DFF8D40B93
:1054700009F001FA0021DFF8CC0B09F0DCF9012179
:10548000DFF8C00B09F0B8F90121DFF8B80B09F01B
:10549000C1F907B000BD00002015002086150020CE
:1054A00088150020541600205716002046160020AC
:1054B000F8140020451600200C1C01402215002085
:1054C0004D1600204E1600205016002051160020C8
:1054D00068160020EC15002000200140A8140020D0
:1054E000ED150020A4140020301500201814002011
:1054F000EF15002032150020F0150020B014002018
:10550000F2150020AC140020341500202C140020CB
:10551000F315002036150020F4150020F6150020A4
:1055200080B5DFF8100C0088002840F001831021BE
:10553000DFF8280A07F094FD002822D1DFF83C09A3
:10554000007800282DD0DFF838090078152810DB06
:105550000120DFF830190870DFF8040A007850F0F5
:105560000100DFF8FC1908700020DFF8101908703E
:1055700017E0DFF80C090078401CDFF80419087008
:105580000FE0DFF8DC09007810F0FE00DFF8D0193A
:1055900008700020DFF8E81808700120DFF8DC1838
:1055A00008702021DFF8B40907F05AFD002822D145
:1055B000DFF8B009007800282DD0DFF8AC090078BA
:1055C000152810DB0120DFF8A4190870DFF8900916
:1055D000007850F00200DFF8881908700020DFF82A
:1055E0008419087017E0DFF880090078401CDFF8A4
:1055F000781908700FE0DFF86809007810F0FD00F6
:10560000DFF85C1908700020DFF85C1908700120D1
:10561000DFF8501908704021DFF8400907F020FD3D
:10562000002822D1DFF84809007800282DD0DFF8C3
:1056300044090078152810DB0120DFF83C190870B8
:10564000DFF81C09007850F00400DFF81419087026
:105650000020DFF81C19087017E0DFF8180900783F
:10566000401CDFF8101908700FE0DFF8F40800782C
:1056700010F0FB00DFF8E81808700020DFF8F418DD
:1056800008700120DFF8E81808708021DFF8CC08E6
:1056900007F0E6FC002822D1DFF8AC0900780028EA
:1056A0002DD0DFF8A8090078152810DB0120DFF8DD
:1056B000A0190870DFF8A808007850F00800DFF89B
:1056C000A01808700020DFF88019087017E0DFF8D4
:1056D0007C090078401CDFF8741908700FE0DFF8CF
:1056E0008008007810F0F700DFF8741808700020C8
:1056F000DFF8581908700120DFF84C1908704FF4D2
:105700008071DFF8580807F0ABFC00281BD1DFF8E8
:105710004409008840F22131884208DBDFF8400864
:10572000007850F01000DFF83818087006E0DFF855
:1057300024090088401CDFF81C1908800020DFF8CD
:10574000181908801AE0DFF81009008840F22131AA
:10575000884208DBDFF80808007810F0EF00DFF877
:105760000018087006E0DFF8F0080088401CDFF839
:10577000E81808800020DFF8DC1808804FF400717A
:10578000DFF8D80707F06CFC002822D1DFF8A80961
:10579000007800282DD0DFF8A4090078152810DB48
:1057A0000120DFF89C190870DFF8B407007850F08A
:1057B0002000DFF8AC1708700020DFF87C190870B3
:1057C00017E0DFF878090078401CDFF870190870DE
:1057D0000FE0DFF88C07007810F0DF00DFF88017AB
:1057E00008700020DFF8541908700120DFF848190C
:1057F00008704FF48061DFF8640707F031FC00287F
:1058000022D1DFF84009007800282DD0DFF83809D0
:105810000078152810DB0120DFF830190870DFF858
:105820004007007850F04000DFF83417087000207F
:10583000DFF81019087017E0DFF80C090078401C39
:10584000DFF8041908700FE0DFF81407007810F093
:10585000BF00DFF80C1708700020DFF8EC180870A4
:105860000120DFF8E01808704FF40071DFF88809B4
:1058700007F0F6FB002822D1DFF880090078002825
:105880002DD0DFF87C090078152810DB0120DFF827
:1058900074190870DFF8C806007850F08000DFF84F
:1058A000C01608700020DFF85419087017E0DFF800
:1058B00050090078401CDFF8481908700FE0DFF845
:1058C000A006007810F07F00DFF894160870002022
:1058D000DFF82C1908700120DFF8201908704FF448
:1058E0008071DFF8140907F0BBFB002822D1DFF834
:1058F0001809007800282DD0DFF810090078152845
:1059000010DB0120DFF808190870DFF85406407832
:1059100050F00100DFF8481648700020DFF8E81862
:10592000087017E0DFF8E4080078401CDFF8DC18A6
:1059300008700FE0DFF82806407810F0FE00DFF86E
:10594000201648700020DFF8C41808700120DFF826
:10595000B81808700221DFF8040607F081FB002860
:1059600022D1DFF8B008007800282DD0DFF8A80891
:105970000078152810DB0120DFF8A0180870DFF888
:10598000E005407850F00200DFF8D41548700020A0
:10599000DFF88018087017E0DFF87C080078401CFA
:1059A000DFF8741808700FE0DFF8B405407810F0E5
:1059B000FD00DFF8AC1548700020DFF85C180870B7
:1059C0000120DFF8501808704FF48041D24807F0EA
:1059D00047FB002822D1DFF84808007800282DD0A6
:1059E000DFF840080078152810DB0120DFF83818B0
:1059F0000870DFF86C05407850F00400DFF860159F
:105A000048700020DFF81818087017E0DFF8140855
:105A10000078401CDFF80C1808700FE0DFF8400534
:105A2000407810F0FB00DFF8381548700020DFF8F0
:105A3000F41708700120DFF8E81708704FF4804170
:105A4000DFF8B40707F00CFB002822D1DFF8DC07F1
:105A5000007800282DD0DFF8D8070078152810DB53
:105A60000120DFF8D0170870DFF8F404407850F018
:105A70000800DFF8EC1448700020DFF8B017087059
:105A800017E0DFF8AC070078401CDFF8A4170870B7
:105A90000FE0DFF8CC04407810F0F700DFF8C01416
:105AA00048700020DFF8881708700120DFF87C17A5
:105AB00008704FF40061DFF8A40407F0D1FA002861
:105AC00022D1DFF87407007800282DD0DFF86C07AA
:105AD0000078152810DB0120DFF864170870DFF864
