:020000040800F2
:1000000000040020B59600085D8F00085F8F00088F
:10001000618F0008638F0008658F000800000000F2
:10002000000000000000000000000000678F0008D2
:10003000698F0008000000006B8F00086D8F0008BA
:100040000B6E00080B6E00080B6E0008758F000821
:100050000B6E00080B6E0008778F00080B6E00080F
:100060000B6E00088B8F00080B6E0008819400084F
:100070000B6E00080B6E00080B6E00080B6E00087C
:100080000B6E00080B6E00080B6E00088D8F0008C9
:100090008F8F00080B6E00080B6E0008918F000810
:1000A0000B6E0008938F00080B6E00080B6E0008A3
:1000B000A18F0008AF8F0008BD8F00080B6E0008ED
:1000C0000B6E00080B6E00080B6E00080B6E00082C
:1000D000CD8F0008CF8F00082991000819920008E1
:1000E000659400087D9400080B6E00080B6E0008F4
:1000F000BF8F00080B6E00080B6E00080B6E000827
:100100000B6E00087F9400080B6E00080B6E000851
:10011000079300080B6E00080B6E00080B6E0008BA
:100120000B6E00080B6E00080B6E00080B6E0008CB
:1001300040B2002805D40901DFF82C2B40B211543D
:1001400008E00901DFF8CC2C40B210F00F00104499
:1001500000F8041C704780B5411EB1F1807F01D3C7
:10016000012011E0401EDFF8041B08600F215FF042
:10017000FF30FFF7DDFF0020DFF8F41A08600720EA
:10018000DFF8941C0860002002BD0020DFF88C1C02
:100190000870DFF8E00ADFF8E81BDFF8802C12783F
:1001A00041F82200DFF8740C0078401CDFF86C1C6A
:1001B0000870DFF8C40ADFF8C81BDFF8602C12787B
:1001C00041F82200DFF8540C0078401CDFF84C1C8A
:1001D0000870DFF8A80ADFF8A81BDFF8402C1278B7
:1001E00041F82200DFF8340C0078401CDFF82C1CAA
:1001F0000870DFF88C0ADFF8881BDFF8202C1278F3
:1002000041F82200DFF8140C0078401CDFF80C1CC9
:100210000870DFF8700BDFF8681BDFF8002C12782D
:1002200041F82200DFF8F40B0078401CDFF8EC1BEB
:100230000870DFF8540BDFF8481BDFF8E02B12786A
:1002400041F82200DFF8D40B0078401CDFF8CC1B0B
:100250000870DFF8380BDFF8281BDFF8C02B1278A6
:1002600041F82200DFF8B40B0078401CDFF8AC1B2B
:100270000870DFF81C0BDFF8081BDFF8A02B1278E2
:1002800041F82200DFF8940B0078401CDFF88C1B4B
:100290000870DFF8000BDFF8E81ADFF8802B12781F
:1002A00041F82200DFF8740B0078401CDFF86C1B6B
:1002B0000870DFF86C0BDFF8C81ADFF8602B1278D3
:1002C00041F82200DFF8540B0078401CDFF84C1B8B
:1002D0000870DFF8540BDFF8A81ADFF8402B12780B
:1002E00041F82200DFF8340B0078401CDFF82C1BAB
:1002F0000870DFF8380BDFF8881ADFF8202B127847
:1003000041F82200DFF8140B0078401CDFF80C1BCA
:100310000870DFF81C0BDFF8681ADFF8002B127882
:1003200041F82200DFF8F40A0078401CDFF8EC1AEC
:100330000870DFF8000BDFF8481ADFF8E02A1278BF
:1003400041F82200DFF8D40A0078401CDFF8CC1A0C
:100350000870DFF8E40ADFF8281ADFF8C02A1278FC
:1003600041F82200DFF8B40A0078401CDFF8AC1A2C
:100370000870DFF8C80ADFF8081ADFF8A02A127838
:1003800041F82200DFF8940A0078401CDFF88C1A4C
:100390000870DFF8AC0ADFF8E819DFF8802A127875
:1003A00041F82200DFF8740A0078401CDFF86C1A6C
:1003B0000870DFF8900ADFF8C819DFF8602A1278B1
:1003C00041F82200DFF8540A0078401CDFF84C1A8C
:1003D0000870DFF8740ADFF8A819DFF8402A1278ED
:1003E00041F82200DFF8340A0078401CDFF82C1AAC
:1003F0000870DFF8580ADFF88819DFF8202A127829
:1004000041F82200DFF8140A0078401CDFF80C1ACB
:100410000870DFF83C0ADFF86819DFF8002A127864
:1004200041F82200DFF8F4090078401CDFF8EC19ED
:100430000870DFF8200ADFF84819DFF8E0291278A1
:1004400041F82200DFF8D4090078401CDFF8CC190D
:100450000870DFF8040ADFF82819DFF8C0291278DD
:1004600041F82200DFF8B4090078401CDFF8AC192D
:100470000870DFF8E809DFF80819DFF8A02912781A
:1004800041F82200DFF894090078401CDFF88C194D
:100490000870DFF8480BDFF8E818DFF880291278D9
:1004A00041F82200DFF874090078401CDFF86C196D
:1004B0000870DFF82C0BDFF8C818DFF86029127815
:1004C00041F82200DFF854090078401CDFF84C198D
:1004D0000870DFF8380BDFF8A818DFF84029127829
:1004E00041F82200DFF834090078401CDFF82C19AD
:1004F0000870DFF8280BDFF88818DFF82029127859
:1005000041F82200DFF814090078401CDFF80C19CC
:100510000870DFF8240BDFF86818DFF8002912787C
:1005200041F82200DFF8F4080078401CDFF8EC18EE
:100530000870DFF8080BDFF84818DFF8E0281278B9
:1005400041F82200DFF8D4080078401CDFF8CC180E
:100550000870DFF80C0BDFF82818DFF8C0281278D5
:1005600041F82200DFF8B4080078401CDFF8AC182E
:100570000870DFF8040BDFF80818DFF8A0281278FD
:1005800041F82200DFF894080078401CDFF88C184E
:100590000870DFF80C0BDFF8E817DFF88028127816
:1005A00041F82200DFF874080078401CDFF86C186E
:1005B0000870DFF8040BDFF8C817DFF8602812783E
:1005C00041F82200DFF854080078401CDFF84C188E
:1005D0000870DFF8E80ADFF8A817DFF8402812787B
:1005E00041F82200DFF834080078401CDFF82C18AE
:1005F0000870704780B5DFF8C80A007800280FD16E
:10060000DFF8C00A007800280AD10121DFF8280BA2
:1006100006F0F5FB0221DFF8200B06F0F0FB3DE0D1
:10062000DFF89C0A007801280FD1DFF8980A0078DB
:1006300000280AD10121DFF8000B06F0E3FB0221BC
:10064000DFF8F40A06F0DBFB28E0DFF8740A007834
:1006500000280FD1DFF86C0A007801280AD10121A7
:10066000DFF8D40A06F0CBFB0221DFF8CC0A06F053
:10067000C9FB13E0DFF8480A007801280ED1DFF843
:10068000440A0078012809D10121DFF8AC0A06F0FC
:10069000B6FB0221DFF8A00A06F0B1FB01BD80B570
:1006A000DFF81C1A0870FFF7A5FF01BD80B5DFF861
:1006B000141A0870FFF79EFF01BD80B5002805D110
:1006C0000421DFF8740A06F09AFB04E00421DFF845
:1006D000680A06F097FB01BD80B5002805D1082106
:1006E000DFF8540A06F08BFB04E00821DFF8480A23
:1006F00006F088FB01BD80B5002805D11021DFF888
:10070000380A06F07CFB04E01021DFF82C0A06F022
:1007100079FB01BD80B5DFF8240A0078002811D1EB
:10072000DFF81C0A007800280CD14FF40061DFF8D4
:10073000080A06F064FB4FF48051DFF8FC0906F06C
:100740005EFB43E0DFF8F4090078012811D1DFF8FF
:10075000F009007800280CD14FF40061DFF8D809C7
:1007600006F050FB4FF48051DFF8CC0906F047FB50
:100770002CE0DFF8C8090078002811D1DFF8C009A3
:10078000007801280CD14FF40061DFF8AC0906F0C5
:1007900036FB4FF48051DFF8A00906F033FB15E07B
:1007A000DFF898090078012810D1DFF89409007863
:1007B00001280BD14FF40061DFF87C0906F01FFB24
:1007C0004FF48051DFF8700906F019FB01BD80B5C8
:1007D000DFF868190870FFF79DFF01BD80B5DFF8ED
:1007E00060190870FFF796FF01BD80B5DFF8800A39
:1007F0000078002810D1DFF87C0A007800280BD19F
:100800004FF48071DFF8300906F0F9FA8021DFF843
:10081000280906F0F4FA40E0DFF8540A00780128CD
:1008200010D1DFF8500A007800280BD14FF4807106
:10083000DFF8040906F0E6FA8021DFF8FC0806F08C
:10084000DEFA2AE0DFF8280A0078002810D1DFF865
:10085000240A007801280BD14FF48071DFF8D80802
:1008600006F0CDFA8021DFF8D00806F0CBFA14E0CC
:10087000DFF8FC09007801280FD1DFF8F8090078CB
:1008800001280AD14FF48071DFF8AC0806F0B7FAFE
:100890008021DFF8A40806F0B2FA01BD80B5DFF8C8
:1008A000D4190870FFF7A1FF01BD80B5DFF8C019AA
:1008B0000870FFF79AFF01BD80B5002806D14FF4FC
:1008C0000071DFF8740806F09AFA05E04FF4007141
:1008D000DFF8640806F096FA01BD80B5002806D15D
:1008E0004FF48061DFF8500806F089FA05E04FF414
:1008F0008061DFF8440806F085FA01BD80B5002864
:1009000006D14FF40051DFF8300806F078FA05E020
:100910004FF40051DFF8200806F074FA01BD80B5ED
:10092000002806D14FF48041DFF80C0806F067FA82
:1009300005E04FF48041DFF8000806F063FA01BDDE
:1009400080B5002806D14FF40041DFF8EC0706F02F
:1009500056FA05E04FF40041DFF8DC0706F052FAE2
:1009600001BD80B5002805D11021DFF80C0906F083
:1009700046FA04E01021DFF8000906F043FA01BD51
:1009800080B5002805D10421DFF8F00806F037FA19
:1009900004E00421DFF8E40806F034FA01BD80B574
:1009A000002806D14FF48051DFF8D40806F027FA6A
:1009B00005E04FF48051DFF8C80806F023FA01BDC6
:1009C00080B5002806D14FF40061DFF8B40806F0C6
:1009D00016FA05E04FF40061DFF8A40806F012FAF9
:1009E00001BD80B5002805D14021DFF84C0706F095
:1009F00006FA04E04021DFF8400706F003FA01BDE3
:100A000080B5002805D12021DFF82C0706F0F7F982
:100A100004E02021DFF8200706F0F4F901BD80B5DD
:100A2000002806D14FF40041DFF8580806F0E7F936
:100A300005E04FF40041DFF84C0806F0E3F901BD92
:100A400080B5002806D14FF48061DFF8340806F045
:100A5000D6F905E04FF48061DFF8240806F0D2F9FA
:100A600001BD80B5002806D14FF40071DFF81008F1
:100A700006F0C5F905E04FF40071DFF8040806F050
:100A8000C1F901BD80B5002805D10821DFF8E807CC
:100A900006F0B5F904E00821DFF8DC0706F0B2F94A
:100AA00001BD80B5002805D10121DFF8D00706F08F
:100AB000A6F904E00121DFF8C40706F0A3F901BD9F
:100AC00080B5002805D10221DFF8B00706F097F9BC
:100AD00004E00221DFF8A40706F094F901BD80B517
:100AE00000280DD10821DFF89C0706F088F9DFF80F
:100AF000B40C007810F0FE00DFF8A81C08700CE0C1
:100B00000821DFF8800706F07DF9DFF8980C0078FF
:100B100050F00100DFF88C1C087001BD80B5002882
:100B200005D10421DFF85C0706F069F904E004212F
:100B3000DFF8500706F066F901BD80B500280ED138
:100B40004FF48051DFF8300706F059F9DFF8540C04
:100B5000007810F0FD00DFF84C1C08700DE04FF439
:100B60008051DFF8140706F04DF9DFF8380C0078F3
:100B700050F00200DFF82C1C087001BD80B5002881
:100B800006D14FF40051DFF8F00606F038F905E021
:100B90004FF40051DFF8E00606F034F901BD80B5EE
:100BA00000280ED14FF48051DFF8D00606F027F967
:100BB000DFF8F00B007810F0FB00DFF8E81B08709E
:100BC0000DE04FF48051DFF8B40606F01BF9DFF8B2
:100BD000D40B007850F00400DFF8C81B087001BD8A
:100BE00080B5002806D14FF40051DFF8900606F0DA
:100BF00006F905E04FF40051DFF8800606F002F92F
:100C000001BD80B5002806D14FF48041DFF874069D
:100C100006F0F5F805E04FF48041DFF8680606F0CD
:100C2000F1F801BD80B5002806D14FF40051DFF87E
:100C3000540606F0E4F805E04FF40051DFF84406EE
:100C400006F0E0F801BD80B5002806D14FF48051D0
:100C5000DFF8300606F0D3F805E04FF48051DFF8F6
:100C6000240606F0CFF801BD00E400E014E000E047
:100C700018E000E09F060008AD060008BB0600086B
:100C8000D906000880B501F025F901F004FF01F054
:100C900043F8DFF8143B002247F60101062002F07A
:100CA00045FC0821DFF8000B06F088F9DFF8FC3A74
:100CB000002247F60101062002F038FC0821DFF887
:100CC000EC0A06F092F93021DFF8E40A06F03AF96E
:100CD0000A2006F098FC302152A006F033F90820D3
:100CE00004F0FAF801F015FB02F004F802F01AFB28
:100CF00001F0D0FE01F090FB01F06CFC01F046FD2C
:100D000001F03EFE02F0E4FC02F0B4FD03F0CAFE86
:100D100003F0CCFE03F0DCFE03F0C0FF04F000F8AB
:100D200000F0B2FA00F00EFA00F0CEF900F0BCFDCF
:100D300000F05AFF00F03EFD04F05EFB00F090F87A
:100D400000F0B4FF04F034F804F059FE04F086FE1D
:100D500004F0EAFE05F05EF8DFF8F40A007805F02A
:100D6000C5F805F0B6F905F0C5FA05F0C7FE00F0C4
:100D700013F805F0FDF905F091FE05F043FFB1E72A
:100D800020100020F7060008010A0008E309000807
:100D90009D080008AB080008DFF8B80A00780028B2
:100DA00008D10220DFF8B01A08700220DFF8AC1A70
:100DB00008702DE0DFF8A80A0078C0F30010C0B278
:100DC000002821D0DFF89C0A0078012804D10120F6
:100DD000DFF8841A08701BE0DFF88C0A007801281D
:100DE00004D10120DFF8701A087011E0DFF8680AFA
:100DF000007800280CD10220DFF8601A0870022069
:100E0000DFF8541A087003E00120DFF8501A087068
:100E10007047000018ED00E010E000E0E41300204F
:100E2000B9080008456E6400DB080008CF07000819
:100E3000DD070008FD0800081F0900084109000837
:100E40001F0A0008A30A0008C10A0008DF0A0008F8
:100E50001D0B00083B0B00087D0B00089F0B0008D2
:100E600080B5DFF8080A0078002800F0B680DFF8C7
:100E7000000A0078002833D1DFF8F809008800283C
:100E80002BD1DFF8F4090088DFF8F01909888842CF
:100E90000CD3DFF8EC090078012840F09E8000F0C8
:100EA000C0FC0020DFF8D819087096E0DFF8CC0904
:100EB0000088801EDFF8C01909888842C0F28D8042
:100EC000DFF8BC090078002840F0878000F0B2FC11
:100ED0000120DFF8AC1908707FE000F0A2FC7CE094
:100EE000DFF88C090078012877D1DFF888090088BD
:100EF00000286ED1DFF88C090078002805D0022880
:100F000030D04FD303283FD067E0DFF87C0900687A
:100F1000002813D1DFF860090088462804DA03208E
:100F2000DFF8601908701CE0DFF8B00C00780028CA
:100F300017D10220DFF84C19087012E0DFF83809E9
:100F40000088DFF83819098888420AD3DFF83009A9
:100F50000078012805D100F064FC0020DFF820199A
:100F600008703AE0DFF824090078002801D000F08A
:100F700079F800F05FFC0120DFF804190870002008
:100F8000DFF80019087028E0DFF8500C007800281E
:100F900001D000F046FC00F071F80120DFF8E41801
:100FA00008701AE0DFF8D0080088462810DB00F04F
:100FB00059F800F03FFC0120DFF8C4180870DFF892
:100FC000D008DFF8C41808600020DFF8B8180870EF
:100FD00003E000F026FC00F045F801BDE10B00083D
:100FE000030C0008DFF8881808700120DFF87C186F
:100FF00008700020DFF87C1808800020DFF88418D3
:1010000008700020DFF8801808607047250C000881
:101010000020DFF85818087070470000470C0008DF
:10102000DFF8701808700020DFF86C1808700120D5
:10103000DFF8681808707047630900088109000824
:1010400080B50020DFF84C1808700020DFF84C183D
:1010500008700020DFF8481CC968884701BD0000FF
:101060009F0900080120DFF8381808700020DFF819
:10107000701B087070470000C109000880B501208E
:10108000DFF8081808700020DFF818180870DFF87B
:101090004C0B0078002801D000F0C3FB01BD00001C
:1010A000410A00080120DFF8C01708700020DFF8AF
:1010B0004C1C087070470000630A0008850A00088D
:1010C000DE130020DF13002080B5DFF89C070078D6
:1010D00000282FD0DFF89C070088002828D1DFF8EF
:1010E00098070088DFF89417098888420BD3DFF847
:1010F0000C0C007801281DD1FFF7B4FF0020DFF8A9
:10110000FC1B087016E0DFF874070088801EDFF80B
:101110006817098888420DDBDFF8E00B00780028AB
:1011200008D1FFF7ABFF0120DFF8D01B087001E00A
:10113000FFF798FF01BD000000180140E0130020F8
:10114000E113002080B5DFF858070078002800F090
:101150008D80DFF88C0A0078002802D0012869D041
:1011600084E00020DFF824170870DFF8780A0078A0
:10117000C0F3C000C0B2002803D0002005F079FD04
:1011800030E00020DFF8181B096D88470020DFF8E9
:10119000101BC96C88470120DFF8041B496E884783
:1011A0000020DFF8FC1A896D88470020DFF8F01A6C
:1011B000496D88470120DFF8E81A896E8847DFF813
:1011C000E40A807802F024F9DFF8D80A407902F0C6
:1011D00035F9DFF8D00A017A4FF47A704143DFF82D
:1011E000C80A0180DFF8AC06007800281DD0DFF8BF
:1011F000AC06007800280AD000F01CFB0020DFF8C5
:10120000981608700020DFF8941608700DE0DFF8DB
:1012100084060078DFF880160978884205D300F04C
:1012200009FB0020DFF8701608700120DFF8B01904
:1012300008701BE0DFF8700A0088002816D1002033
:10124000DFF85C1A496E88470020DFF8541A896E6F
:1012500088473021DFF8A80A05F074FE0020DFF887
:10126000801908700020DFF83816087001BD0000F2
:10127000E2130020E313002000100140000C0140A5
:10128000001C01400014014080B5DFF80006007822
:10129000002800F08582DFF80C06007800281BD0BB
:1012A000022844D035D3042800F002817CD30628DC
:1012B00000F05C81C0F01F81082800F08381C0F03D
:1012C000CB810A2800F04582C0F030820C2800F063
:1012D0006482C0F0618263E2DFF808090078C0F33D
:1012E000C000C0B2002807D0012005F0C2FC0A20CF
:1012F000DFF8B01508700BE0DFF8A804007810F0F4
:10130000F700DFF8A01408700120DFF898150870C6
:1013100046E24FF4FA70DFF8EC1908800220DFF89B
:10132000841508700220DFF8E019087038E2DFF851
:10133000D4090088002840F033820020DFF86019CB
:10134000096D88470020DFF85819C96C88470020CC
:10135000DFF84C19896D88470020DFF84419496D82
:1013600088470120DFF83819496E88470120DFF8E7
:101370003019896E88473021DFF8900905F0E2FDC9
:10138000DFF82009007802F043F8DFF81809C07888
:1013900002F054F840F6B830DFF8681908800320EE
:1013A000DFF800150870FBE1DFF858090088002815
:1013B00040F0F6813021DFF8580905F0C3FDDFF871
:1013C0002408007810F00300012827D1DFF89004EA
:1013D0004078C0F34000C0B200280CD0DFF894047D
:1013E000007850F04000DFF88C1408700C20DFF813
:1013F000B41408705BE00120DFF8A418096D884779
:10140000DFF8A00881794FF47A704143DFF8F408DF
:1014100001800420DFF88C14087048E0DFF8C4076E
:10142000007810F00300032841D1DFF8340440783D
:1014300010F0060F24D0DFF828044078C0F34000F5
:10144000C0B2002807D0DFF82C04007850F040002C
:10145000DFF820140870DFF808044078C0F380003B
:10146000C0B2002807D0DFF80C04007850F08000EC
:10147000DFF8001408700C20DFF82814087016E05C
:101480000120DFF81C18096D88470120DFF81018CB
:10149000896D8847DFF80C0881794FF47A704143F1
:1014A000DFF8600801800420DFF8F813087077E1A6
:1014B000DFF850080088002840F072810120DFF832
:1014C000E017C96C88470120DFF8D417496D8847B9
:1014D0003021DFF8FC0905F035FDDFF8C807C179D8
:1014E0004FF47A704143DFF81C0801800520DFF8D3
:1014F000B413087054E1DFF80C080088002830D0DD
:10150000DFF8E006007810F00300012811D1DFF8C1
:1015100050034078C0F34000C0B2002825D0062018
:10152000DFF8801308704FF47A70DFF8D81708805E
:101530001BE0DFF8B006007810F00300032814D198
:10154000DFF81C03407810F0060006280DD10620B5
:10155000DFF8501308704FF47A70DFF8A81708808E
:1015600003E00820DFF83C13087019E1DFF8940766
:101570000088002822D0DFF86C06007810F0030005
:1015800001280AD1B6484078C0F34000C0B2002814
:1015900017D10820C349087013E0DFF84806007827
:1015A00010F0030003280CD1AD48407810F006007D
:1015B000062806D00820BB49087002E00920B94976
:1015C0000870EDE0DFF84007007800280AD0DFF867
:1015D00038070078401EDFF8301708700220B14944
:1015E000087038E0DFF8FC05007810F003000128EF
:1015F0000DD19B484078C0F34000C0B2002827D1ED
:101600009C48407850F002009A49487020E0DFF88A
:10161000D405007810F00300032819D190484078D1
:10162000C0F34000C0B2002805D19248407850F085
:101630000200904948708A484078C0F38000C0B2E8
:10164000002805D18B48407850F004008949487043
:10165000072094490870A3E00020DFF84416096DC4
:1016600088470020DFF83816C96C88470020DFF86B
:101670003016896D88470020DFF82416496D8847A9
:101680003021DFF8440905F05DFCFFF7EBFCDFF8E3
:101690005405007810F00300012814D14148007867
:1016A000C0F3C000C0B2002806D07248007850F0E5
:1016B00008007049087035E06E48007850F001006D
:1016C0006C4908702EE0DFF81C05007810F003006C
:1016D000032827D133480078C0F3C000C0B20028E7
:1016E00006D06448007850F008006249087005E0B0
:1016F0006048007850F001005E4908702948007881
:10170000C0F30010C0B2002806D05A48007850F04C
:1017100010005849087005E05648007850F0020063
:10172000544908700C205F49087039E0DFF87405EF
:10173000407801F06DFEDFF86C05007901F07EFE67
:101740004FF4FA60DFF8BC1508800A20554908708C
:1017500026E0DFF8B0050088002821D10020DFF85E
:101760004015096D88470020DFF83415896D8847DA
:101770003021DFF8D00A05F0E5FB0A48007850F088
:101780000800084908700B20464908704248007854
:10179000401C4149087003E002E000203B4908700A
:1017A00001BD00008613002090110020F8110020D8
:1017B000C096000880B5DFF8900A007800282FD086
:1017C0002C48008800282BD1DFF8800AB0F90000EF
:1017D000DFF87C1AB1F9001088420BDBDFF8640DEA
:1017E000007801281CD100F01CF80020DFF8541DFF
:1017F000087015E0DFF8580AB0F90000801EDFF825
:101800004C1AB1F9001088420ADBDFF8380D007875
:10181000002805D100F00EF80120DFF8281D08701F
:1018200001BD0120DFF84C1B08700020DFF8501DBF
:10183000087070470120DFF8A41308700120DFF85A
:10184000481B08700020DFF8B41B087070470000C8
:10185000481400203A140020521400205314002091
:10186000821300204E140020361400204114002062
:10187000421400208413002092130020AE13002095
:1018800043140020441400206C1300202C1400206A
:10189000E09304003F140020401400204614002070
:1018A0002F1400202D14002080B5DFF8E00A007806
:1018B000002800F09181DFF8440B007800281BD04D
:1018C000022857D048D3042800F0AC8078D30628EB
:1018D00000F0E180C0F0C380082800F0F380C0F081
:1018E00007810A2800F04481C0F033810C2800F001
:1018F0006F81C0F05B816FE1BA480078C0F380006F
:10190000C0B200280CD0DFF80C04007810F0DF0023
:10191000DFF8001408700120DFF8E01A08701AE000
:10192000B0480078C0F30010C0B2002813D00120E6
:1019300005F0B8F9DFF8DC03007850F02000DFF89C
:10194000D41308704EF66020DFF8B41A08800B201C
:10195000DFF8A81A08703FE14FF4FA70DFF8A41A14
:1019600008800220DFF8941A08700220DFF8981A25
:10197000087031E1DFF88C0A0088002840F02C81E3
:101980000020C749096E88470020C549C96D8847AE
:101990000120C349C96E88473021DFF8700A05F07D
:1019A000D1FADFF86C0A007801F060FD40F6B8303B
:1019B000DFF8501A08800320DFF8401A08700BE1A6
:1019C000DFF8400A0088002840F006810120B44971
:1019D000096E88473021DFF83C0A05F0B3FADFF8DA
:1019E000300AC1784FF47A704143DFF8180A018059
:1019F000DFF8340B4078C0F3C000C0B200280CD030
:101A0000DFF8540B407850F00100DFF84C1B4870B1
:101A10000C20DFF8E819087003E00420DFF8DC1977
:101A20000870D9E0DFF8DC090088002840F0D48095
:101A300001209B49C96D88473021DFF8300B05F044
:101A400081FADFF8CC0901794FF47A704143DFF86D
:101A5000B40901800520DFF8A4190870BCE0DFF8A4
:101A6000A4090088002811D0DFF8BC0A4078C0F330
:101A7000C000C0B200280DD00620DFF88019087021
:101A80004FF47A70DFF87C19088003E00820DFF853
:101A90006C190870A0E0DFF86C09008800280CD0F1
:101AA000DFF8840A4078C0F3C000C0B2002808D133
:101AB0000820DFF84819087003E00920DFF83C1916
:101AC000087089E0DFF84009007800280BD0DFF8C3
:101AD00038090078401EDFF8301908700220DFF85E
:101AE0001C19087003E00720DFF81019087073E074
:101AF00000206B49096E884700206949C96D8847F5
:101B00003021DFF8C80A05F01DFADFF86808007810
:101B1000002801D1FFF785FE7E480078C0F3401011
:101B2000C0B2002808D0DFF8300A007850F020005A
:101B3000DFF8241A087007E0DFF81C0A007850F07C
:101B40000400DFF8141A08700C20DFF8B0180870D1
:101B500042E0DFF8BC08407801F088FC4FF4FA60FE
:101B6000DFF8A01808800A20DFF89018087033E02A
:101B7000DFF89008008800282ED100204849096E1F
:101B800088473021DFF8480A05F0DCF96148007821
:101B900050F020005F4908700B20DFF860180870D3
:101BA0004EF66020DFF85818088015E0DFF8300B9B
:101BB000007800280BD0DFF848080088002806D1FC
:101BC000FFF72FFE3021DFF8440B05F0BBF903E0EF
:101BD0000020DFF8B817087001BD000031140020A4
:101BE00030140020BE13002080B5DFF8880700788D
:101BF000002854D0DFF888090078002802D0012896
:101C000037D04CE00020DFF884170870DFF81C0B99
:101C10000078C0F38000C0B200281AD0002020490C
:101C2000096E884700201E49C96D884701201C495C
:101C3000C96E8847DFF8D807807801F017FCDFF815
:101C4000D00741794FF47A704143DFF82C0B0180C3
:101C50000AE0DFF8D80A0078C0F30010C0B200280C
:101C600002D0002005F01EF80120DFF814190870DA
:101C700015E0DFF8040B0088002810D10020084987
:101C8000C96E88473021DFF8F40A05F05BF90020BF
:101C9000DFF8EC1808700020DFF8D816087001BDD6
:101CA0002010002018130020B013002080B5DFF8AA
:101CB000D00A0078002820D0DFF8CC060078002871
:101CC0001BD0DFF86408007810F0010000280AD16A
:101CD0000120DFF8B01A096988474FF4FA60DFF88D
:101CE000A81A088009E0DFF8A00A0088002804D1BB
:101CF0000020DFF8901A0969884701BD37140020D9
:101D000078960008AC1300202E140020849600085A
:101D1000289600088613002010B5FEF736FA002436
:101D200006E00020DFF85C1A51F824108847641C94
:101D3000DFF8680B00788442F3DB4FF40051DFF8E2
:101D4000600B05F05FF84FF40041DFF8540B05F02D
:101D500056F84FF48061DFF8480B05F053F84FF464
:101D60008051DFF83C0B05F04AF88021DFF8300B9A
:101D700005F048F84FF40071DFF8240B05F03FF848
:101D80001021DFF81C0B05F03DF84021DFF8100BA7
:101D900005F035F841F2883000F018FF0A2001F014
:101DA00037FB142001F04AFB1E2001F05FFB0120ED
:101DB000DFF8301B08700120DFF82C1B08700120B1
:101DC000DFF8281B08700120DFF8241B087064204E
:101DD000DFF8681B08706420DFF8641B087064205B
:101DE000DFF8601B08706420DFF85C1B08701B20A4
:101DF000DFF8581B08703420DFF8501B487034207F
:101E0000DFF8481B88702620DFF8401BC8704A2086
:101E1000DFF8381B08714A20DFF8301B48710320B7
:101E2000DFF8281B88710320DFF8201BC87105200C
:101E3000DFF8181B08722720DFF8D4150870482037
:101E4000DFF8CC1548704820DFF8C41588700320EF
:101E5000DFF8BC15C8700320DFF8B4150871052041
:101E6000DFF8AC1548710120DFF8E41A0870012092
:101E7000DFF8E01A08700120DFF8DC1A0870012092
:101E8000DFF8D81A08700120DFF8D41A0870012092
:101E9000DFF8D01A08700120DFF8CC1A0870012092
:101EA000DFF8C81A08700120DFF8C41A0870012092
:101EB000DFF8C01A08700120DFF8BC1A0870012092
:101EC000DFF8B81A08700120DFF8F41C087010BDA4
:101ED000EC95000880B505F02BFC5FF4803005F030
:101EE00057FC05F07FFCDFF8DC1C0870DFF8D40C31
:101EF0000078012824D1002005F0AFFC002005F077
:101F0000C0FC4FF4806005F0B2FC102005F0A4FD89
:101F1000022005F095FD5FF4E0115FF4803005F0DC
:101F20007DFC012005F086FC392005F04BFD0028E2
:101F3000FAD0022005F082FC05F08AFC0828FBD1CB
:101F40000121042005F01EFD0121082005F01AFDE5
:101F50000121102005F016FD0121202005F012FDC1
:101F60000121402005F00EFD0121802005F00AFD31
:101F700001214FF4807005F005FD01214FF48040F0
:101F800005F000FD01215FF4003005F00BFD01219B
:101F90005FF4802005F006FD01215FF4002005F0CC
:101FA00001FD0121012005F0DDFC01214FF400506D
:101FB00005F0E8FC00F00AF804F028FF00F058F9FA
:101FC00000F048F901BD00009096000880B54FF47C
:101FD000E070ADF8000018208DF8030003208DF8A4
:101FE00002006946DFF8A80A04F09CFE4BF2D060BC
:101FF000ADF8000010208DF8030003208DF80200DA
:102000006946DFF89C0804F08DFE44F62010ADF818
:10201000000048208DF8030003208DF80200694677
:10202000DFF87C0804F07EFE4FF40070ADF800008D
:1020300018208DF8030003208DF802006946DFF8B0
:10204000880B04F06FFE4FF48060ADF800000420B0
:102050008DF803006946DFF8700B04F063FE04207E
:10206000ADF8000018208DF8030003208DF8020061
:102070006946DFF8540B04F055FE0820ADF8000067
:1020800004208DF803006946DFF83C0B04F04AFE9B
:102090004FF48060ADF8000018208DF80300032095
:1020A0008DF802006946DFF8F40B04F03BFE4FF4B4
:1020B0000060ADF8000004208DF803006946DFF8E9
:1020C000DC0B04F02FFE4FF48060ADF80000182008
:1020D0008DF8030003208DF802006946DFF8B0098F
:1020E00004F020FE4FF40060ADF8000004208DF8ED
:1020F00003006946DFF8980904F014FE4FF6FF70FC
:10210000ADF8000010208DF8030003208DF80200C8
:102110006946DFF88C0B04F005FE4FF20C00ADF8B9
:10212000000010208DF8030003208DF8020069469E
:10213000DFF8700B04F0F6FD4FF47F60ADF800009F
:1021400048208DF8030003208DF802006946DFF86F
:10215000540B04F0E7FD43F20300ADF8000010203B
:102160008DF8030003208DF802006946DFF82C0B80
:1021700004F0D8FD4FF44340ADF8000048208DF83E
:10218000030003208DF802006946DFF8100B04F00D
:10219000C9FD4FF44050ADF8000010208DF8030049
:1021A00003208DF802006946DFF8E40804F0BAFD68
:1021B0004FF46040ADF8000010208DF803000320BC
:1021C0008DF802006946DFF8E00A04F0ABFD032059
:1021D000ADF8000048208DF8030003208DF80200C0
:1021E0006946DFF8BC0604F09DFD1820ADF800003C
:1021F00010208DF8030003208DF802006946DFF8F7
:10220000900804F08FFD4FF4F050ADF8000010205E
:102210008DF8030003208DF802006946DFF8880A74
:1022200004F080FD0420ADF8000010208DF80300BC
:1022300003208DF802006946DFF8600A04F072FDA1
:1022400001BD00009C9600084C1400209E13002045
:10225000CA13002080B548F6A040FDF77CFF002897
:1022600000D0FEE700215FF0FF30FDF761FF01BD08
:1022700080B54FF4E06005F001FC0B208DF8000004
:1022800000208DF8010000208DF8020001208DF85B
:102290000300684605F0F7FB25208DF800000020BC
:1022A0008DF8010001208DF8020001208DF8030057
:1022B000684605F0E8FB26208DF8000000208DF828
:1022C000010002208DF8020001208DF8030068460D
:1022D00005F0D9FB27208DF8000000208DF80100C3
:1022E00003208DF8020001208DF80300684605F0F8
:1022F000CAFB34208DF8000000208DF80100042076
:102300008DF8020001208DF80300684605F0BBFB44
:1023100001BDDFF89809008800281CD1DFF890097A
:10232000006890F40040DFF888190860DFF8800941
:10233000006890F48040DFF878190860DFF87009D1
:10234000006890F40050DFF8681908604CF25030D3
:10235000DFF858190880704780B51F20DFF854193E
:1023600008704FF40041DFF8380504F04BFD01BD63
:10237000000000003414002080B54FF40041DFF865
:10238000200504F03CFD01BD47140020311400205D
:1023900080B54FF40051DFF8080504F033FD01BDAE
:1023A00080B54FF40051DFF8F80404F028FD01BDBA
:1023B00080B54FF48041DFF8E80404F015FD0028F3
:1023C0000DD0DFF8F40801680122DFF8E80890F981
:1023D000000082401143DFF8E00801600CE0DFF804
:1023E000D80801680122DFF8CC0890F9000082408B
:1023F0009143DFF8C408016001BD000032140020E1
:10240000BC130020B21300203314002000960008F3
:102410002C1300203896000880B5DFF820050078DE
:10242000002840F08080DFF894080078002802D16E
:10243000FFF792FF1CE0DFF884080178032291FB8C
:10244000F2F002FB1010C0B2002808D0022803D01E
:102450000ED2FFF7A5FF0BE0FFF7AAFF08E0FFF79A
:1024600097FFDFF850080078401EDFF84818087022
:10247000DFF8400890F9000000284DD5FFF77CFFF9
:102480000020DFF838180870DFF82C080068DFF843
:1024900030180860DFF828080068800CDFF824187E
:1024A0000880DFF82008B0F90000042190FBF1F06B
:1024B000DFF810180880DFF80C080088DFF808182B
:1024C000DFF80828127821F81200DFF800080078F9
:1024D000401CDFF8F8170870DFF8F00700780A28CA
:1024E00003DB0020DFF8E41708700021002205E07C
:1024F000DFF8D40730F812004118521C0A2AF7DB23
:1025000089B20A2091FBF0F0DFF8C417088064203C
:10251000DFF82814087006E0DFF8A0070078401CF8
:10252000DFF89817087001BD8213002080B51F20C6
:10253000DFF8A01708704FF48051D94804F062FC0E
:1025400001BD00004D14002080B54FF48051D448E7
:1025500004F055FC01BD00008413002080B54FF449
:102560008061CF4804F04EFC01BD00004896000891
:1025700080B54FF48061CA4804F041FC01BD000001
:102580003514002080B54FF40061C54804F02CFCE0
:1025900000280DD0DFF8400701680122DFF834077A
:1025A00090F9000082401143DFF82C0701600CE035
:1025B000DFF8240701680122DFF8180790F900000E
:1025C00082409143DFF81007016001BD5896000872
:1025D0001496000880B5DA480078002840F07F8023
:1025E000DFF81C0D0078002802D1FFF79FFF1CE0E8
:1025F000DFF80C0D0178032291FBF2F002FB1010C2
:10260000C0B2002808D0022803D00ED2FFF7B0FFD6
:102610000BE0FFF7B7FF08E0FFF7A0FFDFF8B40615
:102620000078401EDFF8AC160870DFF8A80690F9B5
:10263000000000284CD5FFF787FF0020DFF8C01C02
:102640000870DFF894060068DFF890160860DFF87D
:102650008C060068800CDFF888160880DFF880069A
:10266000B0F90000042190FBF1F0DFF87416088047
:10267000DFF86C060088DFF86C16DFF86C2612783D
:1026800021F81200DFF860060078401CDFF85816C9
:102690000870DFF8540600780A2803DB0020DFF812
:1026A000481608700021002205E0DFF8380630F8EF
:1026B00012004118521C0A2AF7DB89B20A2091FB4A
:1026C000F0F0DFF82816088064209D49087006E0C5
:1026D000DFF82C0C0078401CDFF8241C087001BDCA
:1026E0003F14002080B51F20DFF8041608704FF457
:1026F0000071DFF8100C04F085FB01BD80B54FF4CC
:102700000071DFF8000C04F07AFB01BDA896000808
:1027100080B58021DFF8EC0B04F074FB01BD80B5BF
:102720008021DFF8E00B04F06AFB01BDBE1300203E
:1027300080B54FF480715A4804F056FB00280DD044
:10274000DFF8C40B01680122DFF8A40590F900004E
:1027500082401143DFF8B00B01600CE0DFF8A80BFA
:1027600001680122DFF8880590F90000824091435A
:10277000DFF8940B016001BDB413002068960008D7
:102780003A14002020100020C813002080B56D48A6
:102790000078002840F08180DFF8FC0C00780028E9
:1027A00002D1FFF79FFF1CE0DFF8EC0C0178032259
:1027B00091FBF2F002FB1010C0B2002808D00228F2
:1027C00003D00ED2FFF7ABFF0BE0FFF7B1FF08E03D
:1027D000FFF79EFFDFF818050078401EDFF81015A0
:1027E0000870DFF80C0590F9000000284ED5FFF7BF
:1027F00085FF0020DFF8A01C0870DFF80C0B0068D4
:10280000DFF8081B0860DFF8040B0068800CDFF8B5
:10281000001B0880DFF8F80AB0F90000042190FBE3
:10282000F1F0DFF8EC1A0880DFF8E40AB0F90000F4
:10283000401DDFF8E01ADFF8E02A127821F81200D4
:10284000DFF8D40A0078401CDFF8CC1A0870DFF8F3
:10285000C80A00780A2803DB0020DFF8BC1A0870D9
:102860000021002205E0DFF8AC0A30F81200411820
:10287000521C0A2AF7DB89B20A2091FBF0F0DFF83C
:102880009C1A088064202F49087006E0DFF8080CC5
:102890000078401CDFF8001C087001BDE413002024
:1028A0000020014080B51F20DFF8741A0870402115
:1028B000DFF8500A04F0A6FA01BD80B54021DFF828
:1028C000440A04F09CFA01BD80B51021DFF8340AF7
:1028D00004F098FA01BD80B51021DFF8280A04F051
:1028E0008EFA01BD61140020681400206F140020CE
:1028F0007614002080B52021DFF8080A04F074FA6D
:1029000000280DD0DFF8940B01680122DFF8100ACF
:1029100090F9000082401143DFF8800B01600CE069
:10292000DFF8780B01680122DFF8F40990F9000064
:1029300082409143DFF8640B016001BD0F14002059
:1029400013140020171400201B140020181300205B
:10295000E7130020EA130020ED130020F3130020FA
:10296000F0130020F6130020F9130020FC130020C0
:10297000FF1300200214002005140020081400207A
:1029800080B5DFF8E40A0078002840F08080DFF8A6
:10299000500C0078002802D1FFF784FF1CE0DFF81C
:1029A000400C0178032291FBF2F002FB1010C0B240
:1029B000002808D0022803D00ED2FFF78CFF0BE0CE
:1029C000FFF798FF08E0FFF77FFFDFF85409007872
:1029D000401EDFF84C190870DFF8440990F9000038
:1029E00000284DD5FFF769FF0020DFF8F41B0870C1
:1029F000DFF8A80A0068DFF8A81A0860DFF8A00A64
:102A00000068800CDFF89C1A0880DFF8980AB0F99B
:102A10000000042190FBF1F0DFF8881A0880DFF84D
:102A2000840A0088DFF8801ADFF8802A127821F8FB
:102A30001200DFF8780A0078401CDFF8701A08707E
:102A4000DFF8680A00780A2803DB0020DFF85C1A48
:102A500008700021002205E0DFF84C0A30F812006F
:102A60004118521C0A2AF7DB89B20A2091FBF0F0C8
:102A7000DFF8701A08806420DFF8EC19087006E0AF
:102A8000DFF85C0B0078401CDFF8541B087001BDB8
:102A900000100140704700B591B00720ADF800006C
:102AA00003208DF8020000208DF803006946DFF84E
:102AB0006C0A04F037F90121012004F053FF4FF4B0
:102AC000004004F0E8FE01214FF4007004F05AFFCA
:102AD000DFF84C0A05F014F8DFF8480A0690DFF832
:102AE000480A0790002008900320099000200A90CF
:102AF00080200B904FF400700C904FF400600D900C
:102B000020200E904FF400500F900020109006A946
:102B1000DFF80C0A05F078F80121DFF8040A05F067
:102B200091F80020019001208DF8080001208DF817
:102B300009005FF4602003900020049003208DF8CA
:102B4000140001A9DFF86C0B05F0C4F8052301227D
:102B50000A21DFF8600B05F027F9052302220B217B
:102B6000DFF8500B05F020F9052303220C21DFF8D4
:102B7000440B05F019F90121DFF8380B05F0DCF8FA
:102B80000121DFF8300B05F0CAF8DFF8280B05F05B
:102B9000E0F8DFF8200B05F0E1F80028F9D1DFF8C4
:102BA000140B05F0E5F8DFF80C0B05F0E6F800284B
:102BB000F9D10121DFF8FC0A05F0E9F811B000BDF8
:102BC0000B1400201A0000200008014000B587B057
:102BD000DFF8101AB1FBF0F0DFF80C1A08600020E3
:102BE000ADF816000020ADF81200DFF8FC0900680F
:102BF000401EADF814000020ADF8100000208DF844
:102C0000180004A9DFF8680B05F038F96020ADF86A
:102C100000000020ADF80C000020ADF808000020F6
:102C2000ADF80E000020ADF80A000120ADF802005A
:102C30000020ADF804000020ADF806006946DFF87A
:102C4000300B05F036F96946DFF8240B05F06AF918
:102C50006946DFF81C0B05F0A5F90021DFF8100B21
:102C600005F011FA0021DFF8080B05F015FA002134
:102C7000DFF8FC0A05F019FA0021DFF8F40A05F084
:102C8000F4F90121DFF8E80A05F0D0F90121DFF8B5
:102C9000E00A05F0D9F907B000BD0000000C0140C2
:102CA0000018014000140140001C01408013002066
:102CB0000C1C01400D140020401300200E140020B5
:102CC0003C13002088130020BC12002010140020A8
:102CD0008A13002011140020481300204413002000
:102CE0008C130020D0120020141400208E1300201A
:102CF0001514002080B5DFF87C0A0078002840F029
:102D0000FE821021DFF8700A04F06EF8002822D14C
:102D1000DFF8A409007800282DD0DFF8A00900789A
:102D2000152810DB0120DFF898190870DFF84C0A2D
:102D3000007850F00100DFF8441A08700020DFF836
:102D40007819087017E0DFF874090078401CDFF884
:102D50006C1908700FE0DFF8240A007810F0FE000C
:102D6000DFF8181A08700020DFF8501908700120E9
:102D7000DFF8441908702021DFF8FC0904F034F86A
:102D8000002822D1DFF83C09007800282DD0DFF898
:102D900038090078152810DB0120DFF83019087099
:102DA000DFF8D809007850F00200DFF8D019087079
:102DB0000020DFF81019087017E0DFF80C09007820
:102DC000401CDFF8041908700FE0DFF8B009007844
:102DD00010F0FD00DFF8A41908700020DFF8E818F3
:102DE00008700120DFF8DC1808704021DFF888093E
:102DF00003F0FAFF002822D1DFF8840900780028C8
:102E00002DD0DFF880090078152810DB0120DFF8CD
:102E100078190870DFF86409007850F00400DFF8D2
:102E20005C1908700020DFF85819087017E0DFF807
:102E300054090078401CDFF84C1908700FE0DFF8E7
:102E40003C09007810F0FB00DFF830190870002012
:102E5000DFF8301908700120DFF82419087080218C
:102E6000DFF8140903F0C0FF002822D1DFF81C09A5
:102E7000007800282DD0DFF818090078152810DB1D
:102E80000120DFF810190870DFF8F008007850F022
:102E90000800DFF8E81808700020DFF8F018087064
:102EA00017E0DFF8EC080078401CDFF8E418087041
:102EB0000FE0DFF8C808007810F0F700DFF8BC1862
:102EC00008700020DFF8C81808700120DFF8BC186F
:102ED00008704FF48071DFF8A00803F085FF002828
:102EE00022D1DFF8B408007800282DD0DFF8AC0834
:102EF0000078152810DB0120DFF8A4180870DFF82F
:102F00007C08007850F01000DFF87018087000207E
:102F1000DFF88418087017E0DFF880080078401C9C
:102F2000DFF8781808700FE0DFF85008007810F02C
:102F3000EF00DFF8481808700020DFF8601808700C
:102F40000120DFF8541808704FF40071DFF82808EA
:102F500003F04AFF002822D1DFF848080078002853
:102F60002DD0DFF844080078152810DB0120DFF8A9
:102F70003C180870DFF80408007850F02000DFF8F3
:102F8000FC1708700020DFF81C18087017E0DFF845
:102F900018080078401CDFF8101808700FE0DFF800
:102FA000DC07007810F0DF00DFF8D0170870002091
:102FB000DFF8F41708700120DFF8E81708704FF405
:102FC0008061DFF8B40703F00FFF002822D1DFF89B
:102FD000E007007800282DD0DFF8D8070078152802
:102FE00010DB0120DFF8D0170870DFF890070078B9
:102FF00050F04000DFF8841708700020DFF8B017A9
:10300000087017E0DFF8AC070078401CDFF8A41761
:1030100008700FE0DFF86407007810F0BF00DFF8F9
:103020005C1708700020DFF88C1708700120DFF8AB
:10303000801708704FF40071DFF8800703F0D4FEAA
:10304000002822D1DFF87807007800282DD0DFF89B
:1030500074070078152810DB0120DFF86C17087062
:10306000DFF81807007850F08000DFF810170870BC
:103070000020DFF84C17087017E0DFF848070078E9
:10308000401CDFF8401708700FE0DFF8F00600780A
:1030900010F07F00DFF8E41608700020DFF8241736
:1030A00008700120DFF8181708704FF48071DFF8FE
:1030B0000C0703F099FE002822D1DFF810070078F2
:1030C00000282DD0DFF808070078152810DB012034
:1030D000DFF800170870DFF8A406407850F0010010
:1030E000DFF8981648700020DFF8E016087017E047
:1030F000DFF8DC060078401CDFF8D41608700FE01B
:10310000DFF87806407810F0FE00DFF8701648709F
:103110000020DFF8BC1608700120DFF8B016087038
:103120000221DFF8540603F05FFE002822D1DFF809
:10313000A806007800282DD0DFF8A0060078152812
:1031400010DB0120DFF898160870DFF830064078B1
:1031500050F00200DFF8241648700020DFF87816DF
:10316000087017E0DFF874060078401CDFF86C1672
:1031700008700FE0DFF80406407810F0FD00DFF87B
:10318000FC1548700020DFF8541608700120DFF8A5
:10319000481608704FF48041DFF8800303F024FEE6
:1031A000002822D1DFF83C06007800282DD0DFF877
:1031B00038060078152810DB0120DFF8301608707B
:1031C000DFF8B805407850F00400DFF8B01548701B
:1031D0000020DFF81016087017E0DFF80C06007802
:1031E000401CDFF8041608700FE0DFF89005407807
:1031F00010F0FB00DFF8841548700020DFF8E815B8
:1032000008700120DFF8DC1508704FF48041DFF80A
:10321000AC0503F0E9FD002822D1DFF8D4050078E1
:1032200000282DD0DFF8CC050078152810DB012010
:10323000DFF8C4150870DFF84405407850F0080046
:10324000DFF8381548700020DFF8A415087017E083
:10325000DFF8A0050078401CDFF8981508700FE033
:10326000DFF81805407810F0F700DFF81015487007
:103270000020DFF8801508700120DFF87415087051
:103280004FF40061DFF8F00403F0AEFD002822D116
:10329000DFF86805007800282DD0DFF86405007895
:1032A000152810DB0120DFF85C150870DFF8CC046E
:1032B000407850F08000DFF8C41448700020DFF838
:1032C0003C15087017E0DFF838050078401CDFF87F
:1032D000301508700FE0DFF8A404407810F07F008C
:1032E000DFF8981448700020DFF8141508700120EA
:1032F000DFF8081508700120DFF87814087001BDA8
:103300001214002000200140501300204C13002014
:1033100090130020E41200201814002092130020C3
:1033200019140020DFF898030078002803D000204B
:10333000DFF88C130870DFF894030078002803D0BE
:103340000020DFF888130870DFF83C0400780028BC
:1033500003D00020DFF830140870DFF8380400785C
:10336000002803D00020DFF82C140870DFF83004A8
:103370000078002803D00020DFF824140870DFF85C
:103380002C040078002803D00020DFF820140870F7
:10339000DFF824040078002803D00020DFF8181498
:1033A0000870DFF824040078002803D00020DFF83C
:1033B00018140870DFF81C040078002803D00020DF
:1033C000DFF810140870DFF818040078002803D024
:1033D0000020DFF80C140870DFF8100400780028D3
:1033E00003D00020DFF804140870DFF80C04007824
:1033F000002803D00020DFF800140870DFF8040470
:103400000078002803D00020DFF8F8130870704718
:1034100080B5C0B2642800DB6420D0F1640072493A
:103420000968C0B200FB01F06421B0FBF1F0411E5D
:1034300089B2DFF83C0304F041FE01BD80B5C0B2A3
:10344000642800DB6420D0F1640067490968C0B2D9
:1034500000FB01F06421B0FBF1F0411E89B2DFF8FE
:10346000100304F02DFE01BD1B14002080B5C0B276
:10347000642800DB6420D0F164005B490968C0B2B5
:1034800000FB01F06421B0FBF1F0411E89B2B848A5
:1034900004F018FE01BD000016140020581300208F
:1034A0005413002094130020F81200201C14002054
:1034B00080B5DFF854030078002812D0DFF8480305
:1034C0000178DFF8480303F062FD0020DFF83813CD
:1034D00008700020DFF8381308700120DFF834137B
:1034E000087001BD9613002080B5DFF82C0300782A
:1034F000002812D0DFF820030178DFF8200303F062
:1035000046FD0020DFF8101308700020DFF81013CC
:1035100008700120DFF80C13087001BD0010014095
:10352000080002404C2401409412002030B4FF24D3
:10353000BD4D2C70BC4C6070C0B2002809D0022870
:1035400014D00CD3042820D019D3062828D01DD39A
:103550002EE0B54841800020B349888028E0002053
:10356000B14948800020B049888021E00020AE4960
:1035700048800020AC490871AB48427118E0002037
:10358000A9494880A848828012E011E00120A6499C
:1035900088707820A449C8700020A349888007E07B
:1035A0000120A149887078209F49C8709E48828078
:1035B0009D4801889C48408841189B488088411854
:1035C0004FF6FF7041439848C180002003E09649C0
:1035D000095C1954401C0828F9DB30BC7047000016
:1035E0001A14002000A24A0434130020F8B580B257
:1035F00004F06EFD00228D4B04F078FD00228C4B10
:1036000004F046FE04000D008A48006804F064FFE0
:103610000022864B04F06AFD22002B0004F038FEE5
:1036200004000D008348006804F056FF02000B0000
:103630002000290004F074FF00227F4B04F028FED4
:1036400005F09CF904000D007C4AD2E9000122003B
:103650002B0004F04BFD7A4ED6E9002305F090F9DB
:1036600006000F0022002B002000290004F03EFD80
:1036700022002B0004F03AFD724CD4E9002304F040
:1036800035FD32003B0005F07BF902000B00002005
:103690006D4904F0FDFD02000B005FF066306B49E0
:1036A00005F06EF900226A4B05F06AF905F024FA7C
:1036B000F4BD000000240140E7130020E6130020C1
:1036C000E8130020EA130020E9130020EB13002088
:1036D00080B560480068604908605E4840685E499F
:1036E00048605C4880685C4988605B48006880B2DC
:1036F000FFF77CFF05F02CFA5849088056484068CF
:1037000080B2FFF773FF05F023FA5549088052484D
:10371000806880B2FFF76AFF05F01AFA5149088005
:103720004E48B0F900001E30B52803D200204E49A3
:10373000087002E001204C4908704948B0F90000C7
:103740001E30B52803D200204849087002E001204D
:10375000464908704348B0F900001E30B52803D22E
:1037600000204349087002E001204149087001BD72
:1037700000340140E51300200014014082130020B2
:10378000ED130020EC130020EE130020F0130020B6
:10379000EF130020F1130020F3130020F213002098
:1037A000F4130020F6130020F5130020F713002077
:1037B000F9130020F8130020FA130020000C014038
:1037C000FC130020FB130020FD130020FF1300203A
:1037D000FE13002000140020021400200114002019
:1037E00003140020051400200414002006140020F7
:1037F0000814002007140020091400200B140020D6
:103800000A1400200C140020691400205C11002010
:10381000661400206814002070140020C4110020D9
:103820006D1400206F1400202413002000000440B9
:1038300000FEAF400000002000408F40D0960008FE
:10384000D8960008C89600080000F03F661271C0C4
:103850000000E03F941200200C1300209E13002073
:10386000A0130020A21300201E1400201F1400200B
:103870002014002038B5DFF8B80C0078002800F0DC
:103880002887DFF8AC0C0078411EC9B2DFF8A40C21
:1038900001F010F9DFF89C1CDFF8942C1278114429
:1038A00011F8011CC0B2814240F00787DFF8840C98
:1038B0004178DFF8800C8078C9B2002927D002292E
:1038C00000F0A181C0F0A080042900F07A83C0F04C
:1038D0005F82062900F05D85C0F0D584082900F0DC
:1038E000D185C0F0A2850A2900F0FA85C0F0E185F3
:1038F0000C2900F08F86C0F0F7850E2900F0BD86F8
:10390000C0F093860F2900F0BE8600F0D6BEDFF827
:10391000241CC978DFF8BC2D1170DFF8181C097958
:10392000DFF8B02D5170DFF80C1C4979DFF8A42DB9
:103930009170DFF8001C8979DFF8982DD170DFF8DD
:10394000F41BC979DFF8902D1170C0B2002822D184
:1039500000241BE0DFF8800D0078210020390841A9
:1039600010F00100DFF8741D51F8241088470CE0B6
:10397000202CEFDADFF85C0D0068E04010F0010069
:10398000DFF8581D51F824108847641CDFF8500DEB
:1039900000788442ECDBDFF89C0B0078DFF8441DF4
:1039A0000870DFF8900B4078DFF8381D4870DFF8BA
:1039B000840B8078DFF82C1D8870DFF8780BC078D6
:1039C000DFF8201DC870DFF86C0B0079DFF8141DDC
:1039D0000871DFF8600B4079DFF8081D4871DFF8E7
:1039E000540B8079DFF8FC1C88710721DFF8F40C98
:1039F00001F060F8DFF8EC1CC8710821DFF8E40C76
:103A000003F0C5FA00F059BEDFF8281B0978DFF88B
:103A1000D42C1170DFF81C1B4978DFF8C82C5170CA
:103A2000DFF8101B8978DFF8BC2C9170C0B2002839
:103A300040F0E780DFF8B00C0068DFF8981C086001
:103A4000DFF8A80C00884FF4807190FBF1F201FBC5
:103A50001200DFF8901CC870DFF8900C00884FF45B
:103A6000807190FBF1F0DFF87C1C0871DFF8640CCA
:103A70000078DFF8701C4871DFF8580C4078DFF8E8
:103A8000641C8871DFF84C0C8078DFF8581CC87112
:103A9000DFF8400CC078DFF84C1C0872DFF8380CF7
:103AA0000078DFF8401C4872DFF8440C00884FF4BF
:103AB000807190FBF1F201FB1200DFF8281C887284
:103AC000DFF82C0C00884FF4807190FBF1F0DFF8E8
:103AD000141CC872DFF81C0C00884FF4807190FB36
:103AE000F1F201FB1200DFF8FC1B0873DFF8040C95
:103AF00000884FF4807190FBF1F0DFF8E81B487309
:103B0000DFF8F40B00884FF4807190FBF1F201FBB9
:103B10001200DFF8D01B8873DFF8DC0B00884FF44D
:103B2000807190FBF1F0DFF8BC1BC873DFF8CC0BA1
:103B300000884FF4807190FBF1F201FB1200DFF876
:103B4000A41B0874DFF8B40B00884FF4807190FB5D
:103B5000F1F0DFF8901B4874DFF8A40BB0F9000017
:103B60004FF4807190FBF1F201FB1200DFF8741B3F
:103B70008874DFF88C0BB0F900004FF4807190FB73
:103B8000F1F0DFF8601BC874DFF8780BB0F90000C3
:103B90004FF4807190FBF1F201FB1200DFF8441B3F
:103BA0000875DFF8600BB0F900004FF4807190FBEE
:103BB000F1F0DFF8301B4875DFF8140CB0F90000A5
:103BC0004FF4807190FBF1F201FB1200DFF8141B3F
:103BD0008875DFF8FC0BB0F900004FF4807190FBA2
:103BE000F1F0DFF8001BC8751821DFF8F80A00F0C3
:103BF00061FFDFF8F01A08761921DFF8E80A03F010
:103C0000C6F900F05ABDDFF82C190978DFF8D42A7C
:103C10001170DFF820194978DFF8C82A5170DFF8F1
:103C200014198978DFF8BC2A9170C0B2002840F0DE
:103C3000AD80DFF8BC0A00884FF4807190FBF1F290
:103C400001FB1200DFF89C1AC870DFF8A40A008894
:103C50004FF4807190FBF1F0DFF8881A0871DFF8FB
:103C6000940A00884FF4807190FBF1F201FB12007E
:103C7000DFF8701A4871DFF87C0A00884FF4807111
:103C800090FBF1F0DFF85C1A8871DFF86C0A0088AD
:103C90004FF4807190FBF1F201FB1200DFF8441A3F
:103CA000C871DFF8540A00884FF4807190FBF1F07E
:103CB000DFF8301A0872DFF8440A00884FF4807188
:103CC00090FBF1F201FB1200DFF8181A4872DFF8DE
:103CD0002C0A00884FF4807190FBF1F0DFF8041A91
:103CE0008872DFF81C0AB0F900004FF4807190FB75
:103CF000F1F201FB1200DFF8EC19C872DFF8000ADC
:103D0000B0F900004FF4807190FBF1F0DFF8D419A6
:103D10000873DFF8F009B0F900004FF4807190FBF0
:103D2000F1F201FB1200DFF8BC194873DFF8D40987
:103D3000B0F900004FF4807190FBF1F0DFF8A419A6
:103D40008873DFF88C0AB0F900004FF4807190FBA3
:103D5000F1F201FB1200DFF88C19C873DFF8700A6A
:103D6000B0F900004FF4807190FBF1F0DFF87419A6
:103D700008741121DFF86C0900F09CFEDFF864196B
:103D800048741221DFF85C0903F001F900F095BCDA
:103D9000DFF8A0170A79DFF89C174C794FF480718F
:103DA00001FB0424DFF88C178A79DFF88817CD79B6
:103DB0004FF4807101FB0525C0B2002849D1DFF81E
:103DC0007407C07807280CD1DFF868070079DFF89E
:103DD000241B0870DFF85C070079DFF81C1B0870F3
:103DE000EBE0DFF85007C078032806D1DFF80C0BB2
:103DF0000580DFF80C0B05800AE0DFF83807C07893
:103E0000062805D1DFF8FC0A0570DFF8FC0A05700A
:103E1000DFF8F83A2A0092B2210089B2DFF81407DD
:103E2000C078FFF783FB0821DFF8E00A03F0C6F84B
:103E3000DFF8DC3A2A0092B2210089B2DFF8F406FA
:103E4000C078FFF773FB0821DFF8C40A03F0CDF850
:103E5000B3E0C0B201283BD1DFF8D806C07807280C
:103E600006D1DFF8D0060079DFF8881A0870A4E0E0
:103E7000DFF8983A2A0092B2210089B2DFF8B4063E
:103E8000C078FFF753FB0821DFF8800A03F096F8AB
:103E9000DFF8A006C078032803D1DFF8600A0580A8
:103EA0008BE0DFF89006C078062840F08680DFF8C7
:103EB000540A0570DFF83C0A01784FF47A704143E8
:103EC000DFF8300B01600020DFF82C1B087074E075
:103ED000C0B202283AD1DFF85C06C078072806D1C4
:103EE000DFF850060079DFF8101A087065E0DFF897
:103EF000203A2A0092B2210089B2DFF83806C07851
:103F0000FFF714FB0821DFF8080A03F06EF8DFF86A
:103F10002406C078032803D1DFF8E40905804CE0CB
:103F2000DFF81006C078062847D1DFF8DC090570F5
:103F3000DFF8C40901784FF47A704143DFF8400B91
:103F400001600020DFF83C1B087036E0C0B2032897
:103F50001BD1DFF8E005C078DFF82C1B0870DFF814
:103F6000D4050179DFF8CC0542794FF4807000FB6D
:103F70000211DFF8180B01800020DFF8181D08700F
:103F80000120DFF8141D087017E0C0B2042804D126
:103F90000120DFF8FC1A08700FE0C0B205280CD130
:103FA000DFF89005C178DFF88C0502794FF4807056
:103FB00000FB0211DFF8DC0A0180062000F03CFD66
:103FC0007BE3C0B201283AD1DFF86805C078FFF77B
:103FD0001FFADFF860050078DFF808170870DFF8CF
:103FE00054054078DFF8FC164870DFF84805807803
:103FF000DFF8F0168870DFF8A00A00884FF48071AF
:1040000090FBF1F201FB1200DFF8D816C870DFF860
:10401000880A00884FF4807190FBF1F0DFF8C41635
:1040200008710521DFF8BC0600F044FDDFF8B41686
:1040300048710621DFF8AC0602F0A9FF22E1C0B208
:1040400002283AD1DFF8EC04C078FFF7F7F9DFF87F
:10405000E4040078DFF88C160870DFF8D8044078A4
:10406000DFF880164870DFF8CC048078DFF874162B
:104070008870DFF8280A00884FF4807190FBF1F215
:1040800001FB1200DFF85C16C870DFF8100A008828
:104090004FF4807190FBF1F0DFF8481608710521AC
:1040A000DFF8400600F006FDDFF8381648710621FB
:1040B000DFF8300602F06BFFE4E0C0B203283AD12B
:1040C000DFF87004C078FFF7D1F9DFF868040078F2
:1040D000DFF810160870DFF85C044078DFF804168B
:1040E0004870DFF850048078DFF8F8158870DFF842
:1040F000B00900884FF4807190FBF1F201FB1200CF
:10410000DFF8E015C870DFF8980900884FF4807177
:1041100090FBF1F0DFF8CC1508710521DFF8C4053C
:1041200000F0C8FCDFF8BC1548710621DFF8B405C3
:1041300002F02DFFA6E0C0B2042835D1DFF8F40369
:104140000078DFF8A0150870DFF8E8034078DFF8A2
:1041500094154870DFF8DC038078DFF888158870E4
:10416000DFF8340900884FF4807190FBF1F201FB15
:104170001200DFF87015C870DFF81C0900884FF4D2
:10418000807190FBF1F0DFF85C1508710521DFF814
:10419000540500F08FFCDFF84C1548710621DFF85C
:1041A000440502F0F4FE6DE0C0B2052835D1DFF819
:1041B00084030078DFF82C150870DFF87803407866
:1041C000DFF820154870DFF86C038078DFF81415ED
:1041D0008870DFF8C80800884FF4807190FBF1F216
:1041E00001FB1200DFF8FC14C870DFF8B00800888B
:1041F0004FF4807190FBF1F0DFF8E81408710521AD
:10420000DFF8E00400F056FCDFF8D814487106210E
:10421000DFF8D00402F0BBFE34E0C0B2062831D192
:10422000C4480078DFF8BC140870C2484078DFF852
:10423000B4144870BF488078DFF8A8148870DFF89D
:10424000600800884FF4807190FBF1F201FB1200CE
:10425000DFF89014C870DFF8480800884FF48071C8
:1042600090FBF1F0DFF87C1408710521DFF874048D
:1042700000F020FCDFF86C1448710621DFF86404BC
:1042800002F085FE19E2C0B2002812D1A948C07818
:10429000DFF8881A0870A7480079DFF8801A48709C
:1042A000A4484079DFF8741A8870062000F0C4FB37
:1042B0006EE0C0B2012812D19E48C078DFF85C1AC7
:1042C000C8709C480079DFF8541A08719948407901
:1042D000DFF8481A4871062000F0AEFB58E0C0B283
:1042E000022812D19348C078DFF8301A88719148BB
:1042F0000079DFF8281AC8718E484079DFF81C1A57
:104300000872062000F098FB42E0C0B203280CD1EE
:10431000DFF88C0A007800283AD1FCF791FEFCF710
:10432000ADFE062000F088FB32E0C0B2042813D1B5
:10433000FCF798FEFDF775FAFCF782FEFCF768FEC5
:104340000020DFF8601A08800020DFF85C1A08708F
:10435000062000F071FB1BE0C0B205280ED17548A5
:10436000C178744804794FF4807000FB0414DFF8BE
:10437000100B0480062000F05FFB09E0C0B20628A5
:1043800006D1FCF78FFEFCF75BFE062000F054FB25
:1043900093E1C0B2002812D16648C078DFF80C1A49
:1043A000087064480079DFF8041A48706148407961
:1043B000DFF8F8198870062000F03EFB34E0C0B248
:1043C000012812D15B48C078DFF8E019C87059485D
:1043D0000079DFF8D819087156484079DFF8CC1910
:1043E0004871062000F028FB1EE0C0B202280CD164
:1043F000DFF8900A0078002816D1FDF71BFAFCF7C9
:104400001FFE062000F018FB0EE0C0B203280BD1FF
:10441000DFF8740A0078002806D1FDF702FAFCF7ED
:104420000FFE062000F008FB47E1C0B2002805D1CE
:104430000520FCF7F5FDFCF735FE22E0C0B20128AF
:1044400005D10420FCF7ECFDFCF72CFE19E0C0B20E
:10445000022805D10320FCF7E3FDFCF723FE10E062
:10446000C0B2032805D10220FCF7DAFDFCF71AFEE2
:1044700007E0C0B2042804D10120FCF7D1FDFCF70D
:1044800011FE1AE1C0B2002803D10020FCF7AAFDFA
:104490000EE0C0B2012803D10120FCF7A3FD07E024
:1044A000C0B2022804D10120FCF7BAFDFCF7FAFDE6
:1044B00003E12048C1781F4802794FF4807000FB67
:1044C0000211DFF8C80901801A4841791948827938
:1044D0004FF4807000FB0211DFF8B4090180ECE0BA
:1044E000C0B200F0F9FCE8E0C0B2002824D1FCF72B
:1044F000B9FDFDF796F9FCF7A3FDFCF789FD002057
:10450000DFF8A01808800020DFF89C180870012050
:10451000DFF87C15087000207049896C88470020FE
:104520006E49896A88470120DFF86819087070E0D1
:1045300062140020F4100020002002F09AFB0020FA
:104540006649096D884700206449C96C8847002086
:104550006249496E884700206049896D884700207C
:104560005E49496D884700205C49896E8847002074
:104570005A49096E884700205849C96D884700206C
:104580005649C96E8847002002F08CFB0120534930
:10459000896C88474FF4FA7003F035F801204F49D1
:1045A000896A88474FF4FA7003F02DF8DFF8E808BD
:1045B000407ADFF8E01808700020DFF8E018087093
:1045C0000020DFF8DC180860DFF8CC08C179DFF8DC
:1045D000C808027A4FF4807000FB02110A0092B200
:1045E000DFF8B4084179DFF8B00883794FF48070C0
:1045F00000FB031189B2DFF8A008C378DFF8980840
:1046000004794FF4807000FB0433180080B200F08E
:1046100081F952E0DFF880088078012802D100F0AB
:10462000D9F801E000F003F947E0DFF86C08807882
:1046300001281DD1DFF860084179DFF85C08827934
:104640004FF4807000FB021189B2DFF84C08C27889
:10465000DFF8440803794FF4807000FB0322100058
:1046600080B200F0CBF90120DFF83018087003E0C9
:104670000020DFF8281808701FE0DFF81C08807899
:1046800000F042F819E0DFF810088078012808D11E
:104690000120DFF8101808700020DFF80C180870EF
:1046A0000BE00020DFF8F01508700120DFF8E013C0
:1046B00008700020DFF8EC1708700020DFF8EC1716
:1046C00008700020DFF8E81708700120DFF8C81C28
:1046D000087031BD381300201D1400202010002068
:1046E000E4130020C01000205C130020821300207F
:1046F0008A1300208E1300209213002096130020AE
:104700009E130020A013002080B5C0B200281CD149
:104710000020DFF8A0170870FCF7A4FCFDF781F873
:104720000120DB4908700220DFF88C170870002098
:10473000DFF8881708700020DFF88417496A884777
:104740000020DFF88017087041E0C0B2012814D1C2
:104750003220DFF8741708700420DFF87017087033
:104760000120DFF8581708700020DFF86417087080
:104770000020DFF86017087029E0C0B2022814D1C9
:104780006420DFF8441708700620DFF8401708702F
:104790000120DFF8281708700020DFF834170870B0
:1047A0000020DFF83017087011E0C0B203280ED0E7
:1047B000C0B204280BD0C0B2052808D10120DFF810
:1047C000041708700020DFF8D41B0870FFE701BD54
:1047D000A21300200120DFF8C81B08700020DFF8BA
:1047E000C41B08800020DFF8C01B08700020DFF821
:1047F000BC1B08700020DFF8B81B08700020DFF831
:10480000B41B08804620DFF8B01B08700120DFF8D9
:104810008C1608700020DFF8A41B08700120DFF858
:10482000B01608700020DFF86C140870704780B56F
:104830000020DFF86C1B0870FCF714FCFCF7F1FF9C
:10484000FCF7FEFBFCF7E4FB0020DFF884160870A1
:104850006320DFF86C1B08700020DFF8541B087021
:104860000A20DFF8481B08700020DFF830160870B7
:104870000020DFF83C1B08700020DFF840160870AD
:104880000020DFF83C16C96888470020DFF83016A2
:10489000096988470020DFF82816496A8847002000
:1048A000DFF81C16496988470020DFF8141689696B
:1048B00088470020DFF80816496C88470020DFF899
:1048C0000016896C88470020DFF8F415896888474E
:1048D0000020DFF8EC15096888470020DFF8E015B4
:1048E0004968884701206A4908700020DFF8A8134A
:1048F000087001BD2114002022140020A6130020FE
:10490000A81300202314002024140020901100205C
:10491000F811002080B580B2002807D1DFF86005CB
:104920000180FCF78DFBFCF7BDFB54E0DFF8502560
:10493000118080B2002808D080B2152805DA052041
:10494000FCF76EFBFCF7AEFB45E080B2B0F1150260
:10495000142A05D20420FCF763FBFCF7A3FB3AE022
:1049600080B2B0F12902142A05D20420FCF758FBCA
:10497000FCF798FB2FE080B2B0F13D02142A05D27B
:104980000420FCF74DFBFCF78DFB24E080B251388E
:10499000132805D20420FCF743FBFCF783FB1AE045
:1049A00089B2B1F11E00292803D20020FCF71AFBBE
:1049B00011E089B2B1F14700222803D20120FCF7AF
:1049C00011FB08E089B269391A2904D20120FCF7E9
:1049D00027FBFCF767FBB4202B4908702D480088A3
:1049E0002A4908800020AB4908700120AA490870B4
:1049F00001BD0000601300202514002080B20028B3
:104A000007D1DFF87C0401800120DFF8B8190870B5
:104A100011E0DFF86C24118080B2002807D080B24A
:104A2000642804DA0320DFF89C19087003E00320EF
:104A3000DFF890190870704780B5DFF85C140978CA
:104A4000DFF884291170DFF850144978DFF87829ED
:104A50005170DFF844148978DFF86C299170DFF821
:104A60006819C8700421DFF8600900F023F8DFF846
:104A7000581908710521DFF8500902F088FA01BDC4
:104A8000641300202614002027140020AA130020FD
:104A90002914002018000020981300209A130020E9
:104AA0009C13002080B5FEF703FD01BD80B5FEF725
:104AB0001BFD01BD10B402000020002402E0135DC4
:104AC0001818641CC9B28C42F9DBC0B210BC704724
:104AD00010B5DFF8F8080078012821D1DFF8F038A8
:104AE000002247F601010620FEF720FD0821DFF82D
:104AF000E00802F063FADFF8DC38002247F6010133
:104B00000620FEF713FD0821DFF8C80802F06DFA51
:104B10000020DFF8B818087000205F490870B8E07E
:104B20005D480078002800F0B4805A4800780028DA
:104B300002D0012826D0ACE0DFF89438012247F6F5
:104B400001010620FEF7F2FC0821DFF8840802F0DC
:104B500035FADFF88038012247F601010620FEF71A
:104B6000E5FC0821DFF86C0802F03FFA1420DFF8BA
:104B7000681808600020DFF86418087001204549B3
:104B8000087086E0DFF850080068002840F0818057
:104B9000CA480078002803D1CA48007800280BD002
:104BA000DFF83C08B0F90010DFF83408B0F9004035
:104BB0005FF0FF30444349E0DFF820080078002828
:104BC00005D0022823D012D3032830D03EE0DFF8EE
:104BD0001008B0F900105FF0FF304143DFF8000823
:104BE000B0F900400120DFF8F42710702EE0DFF864
:104BF000F007B0F90010DFF8E807B0F900405FF007
:104C0000FF3044430220DFF8D42710701EE0DFF8A5
:104C1000D007B0F900105FF0FF304143DFF8C00764
:104C2000B0F900400320DFF8B42710700EE0DFF881
:104C3000B007B0F90010DFF8A807B0F900405FF046
:104C4000FF3044430020DFF894271070DFF88037EE
:104C50000A0092B200210320FEF768FC0821DFF869
:104C6000700702F0ABF9DFF86C37220092B2002136
:104C70000320FEF75BFC0821DFF8580702F0B5F9C6
:104C8000DFF8600701784FF47A704143DFF8480796
:104C9000016010BD2A1400202814002080B5DFF820
:104CA00048070078002838D0DFF84007007800284F
:104CB00033D0DFF8900D006800282ED1DFF83007E0
:104CC000007800280BD1DFF82C07B0F900105FF056
:104CD000FF3041430120DFF81827107007E0DFF8AC
:104CE0001407B0F900100020DFF804271070DFF877
:104CF000E0360A0092B200210320FEF717FC0821DB
:104D0000DFF8CC0602F05AF9DFF8E00601784FF43C
:104D10007A704143DFF82C0D016001BD18130020AB
:104D200080B5DFF8240D0078002838D0DFF81C0D9E
:104D30000078002833D0DFF8D80D006800282ED185
:104D4000DFF80C0D007800280BD1DFF8080DB0F962
:104D500000105FF0FF3041430120DFF8F42C1070A9
:104D600007E0DFF8F00CB0F900100020DFF8E02CCD
:104D70001070DFF860360A0092B200210320FEF7BF
:104D8000D5FB0821DFF84C0602F02FF9DFF8BC0C48
:104D900001784FF47A704143DFF8740D016001BD72
:104DA0002C14002084130020361400202C13002023
:104DB00080B5DFF8A40C0078C0B2C009C0B20028EA
:104DC0005CD0DFF8DC050078002857D0DFF8440D10
:104DD0000078002805D002282AD01FD3032844D009
:104DE0004CE02A480088DFF8301D0880DFF82C0DE1
:104DF0000078002804D0012031490969884708E07B
:104E0000DFF81C0D0078002803D001202C49C96868
:104E100088470120DFF8FC1C08702FE0DFF8F80C51
:104E2000008800282AD10220DFF8E81C087025E05D
:104E300017480088DFF8EC1C0880DFF8E00C0078E9
:104E4000002804D000201E490969884708E0DFF8DF
:104E5000D00C0078002803D000201949C968884781
:104E60000320DFF8B01C087008E0DFF8B80C0088F9
:104E7000002803D10020DFF89C1C087001BD000051
:104E8000AE1300203114002034140020C013002081
:104E9000C213002048140020F41000204914002000
:104EA00070130020591400205A14002062140020AE
:104EB0005F14002055140020521400204E140020CE
:104EC00020100020571400201B0000201C00002090
:104ED000471400204F140020C0B2002813D002282D
:104EE00000F0938050D3042800F01181C0F0CE80F0
:104EF000062800F08E81C0F04B81082800F00B825C
:104F0000C0F0C88147E2DFF8500B007810F0FE00D7
:104F1000DFF8441B0870DFF8400B007810F0FD004C
:104F2000DFF8341B0870DFF8300B007810F0FB005E
:104F3000DFF8241B0870DFF8200B007850F0080021
:104F4000DFF8141B0870DFF8100B007810F0EF008A
:104F5000DFF8041B0870DFF8000B007850F0200029
:104F6000DFF8F41A0870DFF8F00A007810F0BF00DC
:104F7000DFF8E41A0870DFF8E00A007850F08000EB
:104F8000DFF8D41A087006E2DFF8CC0A007850F097
:104F90000100DFF8C41A0870DFF8BC0A007810F0CE
:104FA000FD00DFF8B41A0870DFF8AC0A007810F0E2
:104FB000FB00DFF8A41A0870DFF89C0A007810F0F4
:104FC000F700DFF8941A0870DFF88C0A007810F008
:104FD000EF00DFF8841A0870DFF87C0A007850F0E0
:104FE0002000DFF8741A0870DFF86C0A007810F0FF
:104FF000BF00DFF8641A0870DFF85C0A007850F030
:105000008000DFF8541A0870C5E1DFF84C0A007818
:1050100010F0FE00DFF8401A0870DFF83C0A007854
:1050200010F0FD00DFF8301A0870DFF82C0A007865
:1050300010F0FB00DFF8201A0870DFF81C0A007877
:1050400050F00800DFF8101A0870DFF80C0A00783A
:1050500010F0EF00DFF8001A0870DFF8FC090078A4
:1050600050F02000DFF8F0190870DFF8EC09007844
:1050700010F0BF00DFF8E0190870DFF8DC090078F5
:1050800050F08000DFF8D019087084E1DFF8C8091B
:10509000007850F00100DFF8C0190870DFF8B80997
:1050A000007810F0FD00DFF8B0190870DFF8A809EB
:1050B000007810F0FB00DFF8A0190870DFF89809FD
:1050C000007810F0F700DFF890190870DFF8880911
:1050D000007810F0EF00DFF880190870DFF8780929
:1050E000007850F02000DFF870190870DFF86809C8
:1050F000007810F0BF00DFF860190870DFF8580979
:10510000007850F08000DFF85019087043E1DFF8B4
:105110004809007810F0FE00DFF83C190870DFF84D
:105120003809007810F0FD00DFF82C190870DFF85E
:105130002809007810F0FB00DFF81C190870DFF870
:105140001809007850F00800DFF80C190870DFF833
:105150000809007850F01000DFF8FC180870DFF83C
:10516000F808007850F02000DFF8EC180870DFF83D
:10517000E808007850F04000DFF8DC180870DFF82D
:10518000D808007810F07F00DFF8CC18087002E132
:10519000DFF8C408007810F0FE00DFF8BC180870D3
:1051A000DFF8B408007810F0FD00DFF8AC180870E4
:1051B000DFF8A408007810F0FB00DFF89C180870F6
:1051C000DFF89408007850F00800DFF88C180870B9
:1051D000DFF88408007850F01000DFF87C180870C1
:1051E000DFF87408007850F02000DFF86C180870C1
:1051F000DFF86408007850F04000DFF85C180870B1
:10520000DFF85408007810F07F00DFF84C180870C1
:10521000C1E0DFF84408007850F00100DFF83818EA
:105220000870DFF83408007810F0FD00DFF8281867
:105230000870DFF82408007850F00400DFF8181830
:105240000870DFF81408007810F0F700DFF808188D
:105250000870DFF80408007810F0EF00DFF8F817A6
:105260000870DFF8F407007850F02000DFF8E81746
:105270000870DFF8E407007810F0BF00DFF8D817F7
:105280000870DFF8D407007810F07F00DFF8C81747
:10529000087080E0DFF8C007007810F0FE00DFF84B
:1052A000B8170870DFF8B007007810F0FD00DFF8DD
:1052B000A8170870DFF8A007007810F0FB00DFF8EF
:1052C00098170870DFF89007007850F00800DFF8B2
:1052D00088170870DFF88007007850F01000DFF8BA
:1052E00078170870DFF87007007850F02000DFF8BA
:1052F00068170870DFF86007007850F04000DFF8AA
:1053000058170870DFF85007007810F07F00DFF8BA
:10531000481708703FE0DFF84007007850F00100C0
:10532000DFF834170870DFF83007007850F002001B
:10533000DFF824170870DFF82007007850F0040029
:10534000DFF814170870DFF81007007810F0F70086
:10535000DFF804170870DFF80007007810F0EF009E
:10536000DFF8F4160870DFF8F006007850F020003F
:10537000DFF8E4160870DFF8E006007850F040002F
:10538000DFF8D4160870DFF8D006007810F07F0040
:10539000DFF8C4160870704761140020581400200C
:1053A0003A140020B6130020381400203B140020CB
:1053B00051140020B81300204A1400204B14002080
:1053C0003E1400205B140020C0100020291400208F
:1053D00090110020F8110020681300202B140020E9
:1053E000AA130020271400202314002021140020D9
:1053F00025140020A6130020DFF8E80A0068C00783
:1054000008D5DFF8E40A006840084000DFF8D81A41
:10541000086007E0DFF8D00A006850F00100DFF80C
:10542000C81A0860DFF8BC0A0068800708D5DFF8F2
:10543000B80A006830F00200DFF8AC1A086007E034
:10544000DFF8A40A006850F00200DFF89C1A086038
:10545000DFF8900A0068400708D5DFF88C0A00687A
:1054600030F00400DFF8801A086007E0DFF8780AFF
:10547000006850F00400DFF8701A0860DFF8640A72
:105480000068000708D5DFF8600A006830F00800FF
:10549000DFF8541A086007E0DFF84C0A006850F0A3
:1054A0000800DFF8441A0860DFF8380A0068C00610
:1054B00008D5DFF8340A006830F01000DFF8281A49
:1054C000086007E0DFF8200A006850F01000DFF8FD
:1054D000181A0860DFF80C0A0068800608D5DFF8A3
:1054E000080A006830F02000DFF8FC19086007E0C7
:1054F000DFF8F409006850F02000DFF8EC190860CC
:10550000DFF8E0090068400608D5DFF8DC0900682C
:1055100030F04000DFF8D019086007E0DFF8C80974
:10552000006850F04000DFF8C0190860DFF8B409E7
:105530000068000608D5DFF8B009006830F0800088
:10554000DFF8A419086007E0DFF89C09006850F054
:105550008000DFF894190860DFF888090068C0054A
:1055600008D5DFF88409006830F48070DFF8781916
:10557000086007E0DFF87009006850F48070DFF819
:1055800068190860DFF85C090068800508D5DFF855
:105590005809006830F40070DFF84C19086007E023
:1055A000DFF84409006850F40070DFF83C19086027
:1055B000DFF830090068400508D5DFF82C090068DD
:1055C00030F48060DFF82019086007E0DFF8180980
:1055D000006850F48060DFF810190860DFF80409F3
:1055E0000068000508D5DFF80009006830F40060A5
:1055F000DFF8F418086007E0DFF8EC08006850F402
:105600000060DFF8E4180860DFF8D8080068C0041C
:1056100008D5DFF8D408006830F48050DFF8C818E7
:10562000086007E0DFF8C008006850F48050DFF839
:10563000B8180860DFF8AC080068800408D5DFF807
:10564000A808006830F40050DFF89C18086007E0F4
:10565000DFF89408006850F40050DFF88C180860F8
:10566000DFF880080068400408D5DFF87C0800688F
:1056700030F48040DFF87018086007E0DFF8680851
:10568000006850F48040DFF860180860DFF85408C4
:105690000068000408D5DFF85008006830F40040C6
:1056A000DFF84418086007E0DFF83C08006850F4B1
:1056B0000040DFF834180860DFF8A80A006800042A
:1056C00008D5DFF82408006830F48030DFF81818B7
:1056D000086007E0DFF81008006850F48030DFF859
:1056E00008180860DFF8800A0068C00708D5DFF8EE
:1056F000F807006830F40030DFF8EC17086007E0C6
:10570000DFF8E407006850F40030DFF8DC170860C9
:10571000DFF8540A0068800708D5DFF8CC07006876
:1057200030F48020DFF8C017086007E0DFF8B80722
:10573000006850F48020DFF8B0170860DFF8240A12
:105740000068000708D5DFF8A007006830F40020E3
:10575000DFF89417086007E0DFF88C07006850F462
:105760000020DFF884170860DFF8F80900684007B8
:1057700008D5DFF87407006830F48010DFF8681788
:10578000086007E0DFF86007006850F48010DFF879
:1057900058170860DFF8D4090068C00408D5DFF89E
:1057A0004807006830F40010DFF83C17086007E095
:1057B000DFF83407006850F40010DFF82C17086099
:1057C000DFF8A8090068800408D5DFF81C07006826
:1057D00030F48000DFF81017086007E0DFF80807F2
:1057E000006850F48000DFF800170860DFF87809DF
:1057F0000068C00408D5DFF8F006006830F4000047
:10580000DFF8E416086007E0DFF8DC06006850F413
:105810000000DFF8D4160860DFF84C090068800447
:1058200008D5DFF8C406006830F08070DFF8B816DD
:10583000086007E0DFF8B006006850F08070DFF81D
:10584000A8160860DFF81C090068400408D5DFF8D6
:105850009806006830F00070DFF88C16086007E0EA
:10586000DFF88406006850F00070DFF87C160860EE
:10587000DFF8F0080068800408D5DFF86C060068DF
:1058800030F08060DFF86016086007E0DFF8580647
:10589000006850F08060DFF850160860DFF8C40838
:1058A0000068C00408D5DFF84006006830F00060EA
:1058B000DFF83416086007E0DFF82C06006850F0C7
:1058C0000060DFF824160860DFF8A0080068C00652
:1058D00008D5DFF81406006830F08050DFF80816AD
:1058E000086007E0DFF80006006850F08050DFF83D
:1058F000F8150860DFF870080068400708D5DFF881
:10590000E805006830F00050DFF8DC15086007E0BB
:10591000DFF8D405006850F00050DFF8CC150860BF
:10592000DFF878090068C00408D5DFF8BC05006816
:1059300030F08040DFF8B015086007E0DFF8A80518
:10594000006850F08040DFF8A0150860DFF84C09CF
:105950000068000508D5DFF89005006820F00040D9
:10596000DFF88415086007E0DFF87C05006850F078
:105970000040DFF874150860DFF820090068400572
:1059800008D5DFF81C09007810F0FE00DFF81019C8
:10599000087007E0DFF80809007850F00100DFF830
:1059A00000190870DFF8F4080068800508D5DFF8F2
:1059B000F008007810F0FD00DFF8E418087007E048
:1059C000DFF8DC08007850F00200DFF8D418087027
:1059D000DFF898070068000708D5DFF8C4080078EA
:1059E00010F0FB00DFF8B818087007E0DFF8B00827
:1059F000007850F00400DFF8A8180870704780B5F0
:105A0000DFF8A0080078002815D1DFF89C0800789E
:105A10002D2805DA0020DFF89418896A88470FE0FE
:105A2000DFF88408007833280ADB0120DFF87C18CF
:105A3000896A884704E00120DFF87018896A88477E
:105A400001BD000060130020241400202214002057
:105A500026140020A8130020BE13002080B5DFF814
:105A600044080078002852D0DFF844080088002855
:105A70004DD1DFF840080078002803D0022833D049
:105A800019D344E00120DFF82418C96A88470020B0
:105A9000DFF81818096B88470120DFF81018C9696A
:105AA000884743F69820DFF8081808800120DFF8BF
:105AB000041808702BE00020DFF8F017C96A884747
:105AC0000120DFF8E817096B88470020DFF8DC17B2
:105AD000C969884742F21070DFF8D41708800220A5
