:020000040800F2
:1000000000040020BDF80008C1F10008C3F1000899
:10001000C5F10008C7F10008C9F1000800000000A0
:10002000000000000000000000000000CBF100080C
:10003000CDF1000800000000CFF10008D1F1000868
:1000400013CC000813CC000813CC0008D9F1000829
:1000500013CC000813CC0008DBF1000813CC000817
:1000600013CC0008EFF1000813CC0008E5F60008F7
:1000700013CC000813CC000813CC000813CC0008E4
:1000800013CC000813CC000813CC0008F1F10008D1
:10009000F3F1000813CC000813CC0008F5F10008B8
:1000A00013CC0008F7F1000813CC000813CC0008AB
:1000B00005F2000813F2000821F2000813CC000832
:1000C00013CC000813CC000813CC000813CC000894
:1000D00031F2000833F200088DF300087DF40008C7
:1000E000C9F60008E1F6000813CC000813CC00089C
:1000F00023F2000813CC000813CC000813CC00082E
:1001000013CC0008E3F6000813CC000813CC000859
:100110006BF5000813CC000813CC000813CC0008C2
:1001200013CC000813CC000813CC000813CC000833
:1001300040B2002805D40901DFF8F02A40B211547A
:1001400008E00901DFF8D02C40B210F00F00104495
:1001500000F8041C704780B5411EB1F1807F01D3C7
:10016000012011E0401EDFF8EC1A08600F215FF05B
:10017000FF30FFF7DDFF0020DFF8001B08600720DD
:10018000DFF8C01C0860002002BD0020DFF8E01C82
:100190000870DFF8EC0ADFF8F81BDFF8D42C1278CF
:1001A00041F82200DFF8C80C0078401CDFF8C01CC2
:1001B0000870DFF8040BDFF8D81BDFF8B42C1278D6
:1001C00041F82200DFF8A80C0078401CDFF8A01CE2
:1001D0000870DFF8E80ADFF8B81BDFF8942C127813
:1001E00041F82200DFF8880C0078401CDFF8801C02
:1001F0000870DFF8000BDFF8981BDFF8742C12781A
:1002000041F82200DFF8680C0078401CDFF8601C21
:100210000870DFF8E40ADFF8781BDFF8542C127856
:1002200041F82200DFF8480C0078401CDFF8401C41
:100230000870DFF8EC0ADFF8581BDFF8342C12786E
:1002400041F82200DFF8280C0078401CDFF8201C61
:100250000870DFF8F00ADFF8381BDFF8142C12788A
:1002600041F82200DFF8080C0078401CDFF8001C81
:100270000870DFF8F40ADFF8181BDFF8F42B1278A7
:1002800041F82200DFF8E80B0078401CDFF8E01BA3
:100290000870DFF8000BDFF8F81ADFF8D42B1278BB
:1002A00041F82200DFF8C80B0078401CDFF8C01BC3
:1002B0000870DFF8080BDFF8D81ADFF8B42B1278D3
:1002C00041F82200DFF8A80B0078401CDFF8A01BE3
:1002D0000870DFF8EC0ADFF8B81ADFF8942B127810
:1002E00041F82200DFF8880B0078401CDFF8801B03
:1002F0000870DFF8D00ADFF8981ADFF8742B12784C
:1003000041F82200DFF8680B0078401CDFF8601B22
:100310000870DFF8B40ADFF8781ADFF8542B127887
:1003200041F82200DFF8480B0078401CDFF8401B42
:100330000870DFF8BC0ADFF8581ADFF8342B12789F
:1003400041F82200DFF8280B0078401CDFF8201B62
:100350000870DFF8C80ADFF8381ADFF8142B1278B3
:1003600041F82200DFF8080B0078401CDFF8001B82
:100370000870DFF8D40ADFF8181ADFF8F42A1278C8
:1003800041F82200DFF8E80A0078401CDFF8E01AA4
:100390000870DFF8B80ADFF8F819DFF8D42A127805
:1003A00041F82200DFF8C80A0078401CDFF8C01AC4
:1003B0000870DFF8C00ADFF8D819DFF8B42A12781D
:1003C00041F82200DFF8A80A0078401CDFF8A01AE4
:1003D0000870DFF8C40ADFF8B819DFF8942A127839
:1003E00041F82200DFF8880A0078401CDFF8801A04
:1003F0000870DFF8C80ADFF89819DFF8742A127855
:1004000041F82200DFF8680A0078401CDFF8601A23
:100410000870DFF8AC0ADFF87819DFF8542A127890
:1004200041F82200DFF8480A0078401CDFF8401A43
:100430000870DFF8D00ADFF85819DFF8342A12788C
:1004400041F82200DFF8280A0078401CDFF8201A63
:100450000870DFF8D40ADFF83819DFF8142A1278A8
:1004600041F82200DFF8080A0078401CDFF8001A83
:100470000870DFF8B80ADFF81819DFF8F4291278E5
:1004800041F82200DFF8E8090078401CDFF8E019A5
:100490000870DFF89C0ADFF8F818DFF8D429127822
:1004A00041F82200DFF8C8090078401CDFF8C019C5
:1004B0000870DFF8C40ADFF8D818DFF8B42912781A
:1004C00041F82200DFF8A8090078401CDFF8A019E5
:1004D0000870DFF8CC0ADFF8B818DFF89429127832
:1004E00041F82200DFF888090078401CDFF8801905
:1004F0000870DFF8B00ADFF89818DFF8742912786E
:1005000041F82200DFF868090078401CDFF8601924
:100510000870DFF8D80ADFF87818DFF85429127865
:1005200041F82200DFF848090078401CDFF8401944
:100530000870DFF8E00ADFF85818DFF8342912787D
:1005400041F82200DFF828090078401CDFF8201964
:100550000870DFF8C40ADFF83818DFF814291278B9
:1005600041F82200DFF808090078401CDFF8001984
:100570000870DFF8CC0ADFF81818DFF8F4281278D2
:1005800041F82200DFF8E8080078401CDFF8E018A6
:100590000870DFF8D40ADFF8F817DFF8D4281278EB
:1005A00041F82200DFF8C8080078401CDFF8C018C6
:1005B0000870DFF8DC0ADFF8D817DFF8B428127803
:1005C00041F82200DFF8A8080078401CDFF8A018E6
:1005D0000870DFF8C00ADFF8B817DFF8942812783F
:1005E00041F82200DFF888080078401CDFF8801806
:1005F0000870704780B5DFF8C01A097800290DD05F
:10060000012805D10121DFF8240C0CF0FFFA29E0C4
:100610000121DFF8180C0CF0F6FA23E0012817D1BD
:100620000121DFF8080C0CF0F1FA0221DFF8FC0BD5
:100630000CF0E9FA0120DFF8841A08704EF6602009
:10064000DFF87C1A08800120DFF8781A087009E0CA
:100650000121DFF8D80B0CF0D6FA0221DFF8CC0B21
:100660000CF0D1FA01BD80B5DFF84C1A09780029E9
:100670000DD0012805D10221DFF8B00B0CF0C6FA2D
:1006800029E00221DFF8A40B0CF0BDFA23E00128D9
:1006900017D10121DFF8940B0CF0B5FA0221DFF835
:1006A0008C0B0CF0B3FA0220DFF8101A08704EF62B
:1006B0006020DFF80C1A08800120DFF8081A0870A3
:1006C00009E00121DFF8640B0CF09DFA0221DFF84C
:1006D0005C0B0CF098FA01BD80B5DFF8E0090078FA
:1006E000012851D1DFF8DC090078002805D0022864
:1006F0002DD003D303283BD09CE09BE0DFF8C0095A
:100700000088002811D0DFF8580A0078C0F34010A4
:10071000C0B200281AD041F28830DFF8A41908804E
:100720000220DFF8A019087010E0DFF8380A00781E
:10073000002807D1E120DFF8301A08807D20DFF89B
:100740002C1A08800320DFF87C19087072E0DFF8AB
:100750007009008800286DD10020FFF74BFF0020B2
:10076000DFF8601908700020DFF85019087061E0A8
:100770000020FFF73FFF0020DFF848190870052030
:10078000DFF83819087055E0DFF8300900780228E2
:1007900050D1DFF830090078002805D002282DD08C
:1007A00003D303283BD045E044E0DFF81409008878
:1007B000002811D0DFF8A8090078C0F38010C0B27B
:1007C00000281AD041F28830DFF8F418088002209F
:1007D000DFF8F018087010E0DFF8880900780028CA
:1007E00007D1E120DFF8801908807D20DFF87C192F
:1007F00008800320DFF8CC1808701BE0DFF8C00881
:100800000088002816D10020FFF72DFF0020DFF818
:10081000B41808700020DFF8A41808700AE000205F
:10082000FFF721FF0020DFF89C1808700520DFF893
:100830008C18087001BD80B5DFF87C180978002994
:100840000FD0012806D14FF48071DFF8840B0CF033
:10085000DDF92EE04FF48071DFF8740B0CF0D3F962
:1008600027E001281AD14FF48071DFF8640B0CF0F7
:10087000CAF98021DFF8580B0CF0C5F94FF48071EC
:10088000DFF84C0B0CF0C2F942F21070DFF8A0193F
:1008900008800120DFF89C1908700AE04FF480718D
:1008A000DFF82C0B0CF0AFF98021DFF8240B0CF0F3
:1008B000AAF901BD80B5DFF80018097800290DD02C
:1008C000012805D18021DFF8080B0CF09FF92CE0FE
:1008D0008021DFF8FC0A0CF096F926E0012819D1F6
:1008E0008021DFF8EC0A0CF08EF94FF48071DFF80C
:1008F000E00A0CF088F98021DFF8D40A0CF086F9C0
:1009000042F21070DFF8281908800120DFF824195E
:1009100008700AE04FF48071DFF8B40A0CF073F944
:100920008021DFF8AC0A0CF06EF901BD80B5DFF86C
:1009300004090078002802D0012801D014E013E057
:10094000DFF8EC08008800280ED14FF48071DFF842
:10095000DC080CF058F98021DFF8D0080CF053F9CE
:100960000020DFF8D018087001BD80B5DFF8481707
:10097000097800290DD0012805D14021DFF8500A5F
:100980000CF044F92AE04021DFF8440A0CF03BF96E
:1009900024E0012818D14021DFF8340A0CF033F9A3
:1009A0002021DFF82C0A0CF02EF94021DFF8200A74
:1009B0000CF02CF90120DFF81C1A087042F21070BC
:1009C000DFF8141A088009E04021DFF8040A0CF06F
:1009D0001AF92021DFF8F8090CF015F901BD80B5EE
:1009E000DFF8D416097800290DD0012805D120217F
:1009F000DFF8DC090CF00AF92AE02021DFF8D00941
:100A00000CF001F924E0012818D12021DFF8C009F9
:100A10000CF0F9F84021DFF8B8090CF0F4F82021C7
:100A2000DFF8AC090CF0F2F80120DFF8A819087023
:100A300042F21070DFF8A019088009E04021DFF8C9
:100A400090090CF0E0F82021DFF884090CF0DBF8C5
:100A500001BD80B5DFF87C090078002802D00128AC
:100A600001D013E012E0DFF87009008800280DD1F2
:100A70002021DFF8B8070CF0C6F84021DFF8AC07FA
:100A80000CF0C1F80020DFF84C19087001BD80B5EA
:100A9000DFF82416097800290FD0012806D14FF479
:100AA0000061DFF82C090CF0B1F830E04FF4006180
:100AB000DFF81C090CF0A7F829E001281BD14FF43E
:100AC0000061DFF80C090CF09EF84FF48051DFF85C
:100AD00000090CF098F84FF40061DFF8F4080CF00E
:100AE00095F80120DFF8F418087046F2A810DFF836
:100AF000F01808800BE04FF40061DFF8D4080CF028
:100B000082F84FF48051DFF8C8080CF07CF801BD82
:100B100080B5DFF8A415097800290FD0012806D187
:100B20004FF48051DFF8A8080CF070F830E04FF473
:100B30008051DFF89C080CF066F829E001281BD1F1
:100B40004FF48051DFF888080CF05DF84FF4006135
:100B5000DFF87C080CF057F84FF48051DFF870088C
:100B60000CF054F80120DFF87418087046F2A81051
:100B7000DFF86C1808800BE04FF40061DFF85008D4
:100B80000CF041F84FF48051DFF844080CF03BF8CA
:100B900001BD80B5DFF844080078002802D00128A4
:100BA00001D015E014E0DFF83808008800280FD1E4
:100BB0004FF48051DFF874060CF025F84FF4006113
:100BC000DFF868060CF01FF80020DFF81018087036
:100BD00001BD80B5002805D10421DFF8F4070CF031
:100BE00012F804E00421DFF8E8070CF00FF801BD6B
:100BF00080B5002805D10821DFF8D4070CF003F8F0
:100C000004E00821DFF8C8070CF000F801BD80B54A
:100C1000002805D11021DFF8B8070BF0F4FF04E03D
:100C20001021DFF8AC070BF0F1FF01BD00E400E09C
:100C300080B5002806D14FF40071DFF894070BF05F
:100C4000E2FF05E04FF40071DFF884070BF0DEFFF0
:100C500001BD000014E000E080B5002806D14FF48B
:100C60008061DFF86C070BF0CEFF05E04FF4806188
:100C7000DFF85C070BF0CAFF01BD000018E000E0E0
:100C8000F505000880B500280AD14FF40051DFF8BF
:100C90009C050BF0B8FF0020DFF8B419087009E0DC
:100CA0004FF40051DFF884050BF0B0FF0120DFF8AE
:100CB000A019087001BD000067060008D30B0008EA
:100CC00080B500280AD14FF48041DFF860050BF0B1
:100CD0009AFF0020DFF8CC1B087009E04FF4804138
:100CE000DFF848050BF092FF0120DFF8B81B087011
:100CF00001BD0000F10B00080F0C000880B50028B2
:100D000006D14FF40041DFF8C8060BF07CFF05E088
:100D10004FF40041DFF8B8060BF078FF01BD00008A
:100D2000DF09000880B5002805D11021DFF8780B15
:100D30000BF069FF04E01021DFF86C0B0BF066FF8D
:100D400001BD00006B09000880B5002805D1042111
:100D5000DFF8580B0BF057FF04E00421DFF84C0BD1
:100D60000BF054FF01BD0000B508000880B5002855
:100D700006D14FF48051DFF8380B0BF044FF05E04B
:100D80004FF48051DFF8280B0BF040FF01BD00004D
:100D9000781000203708000880B5002806D14FF4ED
:100DA0000061DFF80C0B0BF02EFF05E04FF4006143
:100DB000DFF8FC0A0BF02AFF01BD0000310C00082F
:100DC000590C00088F0A0008110B000880B5002894
:100DD00006D14FF40041DFF8DC0A0BF014FF05E008
:100DE0004FF40041DFF8CC0A0BF010FF01BD00000A
:100DF000850C000880B5002806D14FF48061DFF82B
:100E0000B00A0BF000FF05E04FF48061DFF8A00AA4
:100E10000BF0FCFE01BD000018ED00E0C10C000865
:100E200080B5002806D14FF40071DFF8840A0BF07A
:100E3000EAFE05E04FF40071DFF8740A0BF0E6FEFD
:100E400001BD000010E000E0FD0C0008CD0D000821
:100E500080B5002805D10821DFF84C0A0BF0D3FE3D
:100E600004E00821DFF8400A0BF0D0FE01BD0000CD
:100E7000C3150020790E000880B5002805D1012196
:100E8000DFF8280A0BF0BFFE04E00121DFF81C0A9E
:100E90000BF0BCFE01BD00009D0E000880B50028CF
:100EA00005D10221DFF8040A0BF0ADFE04E00221B7
:100EB000DFF8F8090BF0AAFE01BD0000C50E00081E
:100EC000090F000880B500280DD10821DFF8E409DA
:100ED0000BF099FEDFF8480B007810F0FE00DFF809
:100EE000401B08700CE00821DFF8C8090BF08EFEEB
:100EF000DFF82C0B007850F00100DFF8241B08709D
:100F000001BD0000350F000880B5002805D104217F
:100F1000DFF8A0090BF077FE04E00421DFF8940964
:100F20000BF074FE01BD00007D0F0008A90F000842
:100F3000F10F000880B500280ED14FF48051DFF882
:100F400068090BF060FEDFF8D80A007810F0FD00A9
:100F5000DFF8CC1A08700DE04FF48051DFF8480933
:100F60000BF054FEDFF8B80A007850F00200DFF80A
:100F7000B01A087001BD00001D10000880B50028DF
:100F800006D14FF40051DFF820090BF03CFE05E0DC
:100F90004FF40051DFF810090BF038FE01BD0000DE
:100FA000451000086D10000880B500280ED14FF4E0
:100FB0008051DFF8F8080BF026FEDFF8640A0078AD
:100FC00010F0FB00DFF8581A08700DE04FF4805164
:100FD000DFF8D8080BF01AFEDFF8440A007850F06A
:100FE0000400DFF83C1A087001BD0000250D000860
:100FF00080B5002806D14FF40051DFF8B0080BF09F
:1010000002FE05E04FF40051DFF8A0080BF0FEFDF2
:1010100001BD0000490D00086D0D000880B50028D5
:1010200006D14FF48041DFF88C080BF0ECFD05E0B1
:101030004FF48041DFF87C080BF0E8FD01BD0000B3
:10104000990D000880B5002806D14FF40051DFF853
:1010500064080BF0D8FD05E04FF40051DFF85408A8
:101060000BF0D4FD01BD0000F50D000880B500288F
:1010700006D14FF48051DFF83C080BF0C4FD05E0C9
:101080004FF48051DFF82C080BF0C0FD01BD0000CB
:10109000210E0008510E000880B5DFF8880900789D
:1010A000012807D0DFF88009DFF88019097850F8A7
:1010B0002100804701BD00003F160020B21500202E
:1010C00010150020B3150020DFF86409DFF8581967
:1010D0000860DFF86009DFF850194860DFF8580948
:1010E000DFF844198860DFF85409DFF83C19C8605C
:1010F000DFF84C09DFF830190861DFF84809DFF83C
:1011000028194861DFF84009DFF81C198861DFF809
:101110003C09DFF81419C861DFF83409DFF8081951
:101120000862DFF83009DFF800194862DFF82809A3
:10113000DFF8F4188862DFF82409DFF8EC18C862D9
:10114000DFF81C09DFF8E0180863DFF81809DFF89A
:10115000D8184863DFF81009DFF8CC1888637047A7
:101160002615002056160020841500208615002024
:10117000704780B5DFF8800B0078002806D0022881
:1011800017D004D3042840D02ED34EE04DE0DFF832
:10119000DC080088DFF8D8180988884204D20320C8
:1011A000DFF8541B087003E00420DFF84C1B0870C4
:1011B0003BE0DFF8BC080088801EDFF8B018098823
:1011C000884204DB0320DFF8301B08700BE0DFF8F7
:1011D0009C080088DFF898180988884203D3042007
:1011E000DFF8141B087020E0DFF88808007800287A
:1011F00004D0DFF884080078002801D102F0F2FB67
:101200000220DFF8F41A08700FE0DFF868080078B1
:10121000012804D0DFF860080078012801D102F02D
:1012200081FB0220DFF8D01A087001BD00180140D0
:1012300012150020B415002080B5DFF840080088A2
:10124000002840F0C380DFF8B00A0078DFF83018DB
:101250000870DFF830080078C0B2C009C0B20028BA
:101260005DD0DFF81C080078002808D0012807D0DE
:10127000052817D0062830D007283FD0A0E09FE0EF
:10128000DFF8E8070088DFF8E8170988884204D209
:101290000620DFF8EC17087003E00720DFF8E017FE
:1012A00008708DE0DFF8C4070088DFF8C4170988EC
:1012B000884204D30720DFF8C81708700CE0DFF875
:1012C000B0070088801EDFF8A4170988884203DB76
:1012D0000620DFF8AC17087072E0DFF89807007896
:1012E000002804D0DFF890070078002801D102F030
:1012F00079FB0520DFF88817087061E0DFF87407D4
:101300000078012804D0DFF870070078012801D1A7
:1013100002F008FB0520DFF86817087050E0DFF8DE
:1013200060070078002806D0022817D004D30428CC
:101330003BD02ED344E043E0DFF830070088DFF8ED
:1013400030170988884204D20320DFF83417087068
:1013500003E00420DFF82817087031E0DFF80C07FD
:101360000088DFF80C170988884204D30420DFF8CE
:10137000101708700CE0DFF8F8060088801EDFF810
:10138000EC160988884203DB0320DFF8F4160870A6
:1013900016E0DFF868090078002801D102F046FB6A
:1013A0000220DFF8DC1608700AE0DFF85009007848
:1013B000012801D102F01CFB0220DFF8C4160870DE
:1013C000DFF8BC060078DFF83019087001BD0000B6
:1013D00000180140B515002014150020B615002096
:1013E0001615002080B5DFF894060088002840F02C
:1013F0002D81DFF804090078DFF804190870DFF8A0
:1014000084060078C0B2C009C0B200285DD0DFF801
:10141000F0080078002808D0012807D0032832D02F
:10142000042841D0052813D00AE109E1DFF83C0681
:101430000088DFF83C160988884204D20320DFF8D0
:10144000C018087003E00420DFF8B4180870F7E053
:10145000DFF818060088DFF818160988884204D3D8
:101460000420DFF89C1808700CE0DFF80406008800
:10147000801EDFF8F8150988884203DB0320DFF8B7
:1014800080180870DCE0DFF8EC050078002804D054
:10149000DFF8E4050078002801D102F0A3FA052066
:1014A000DFF85C180870CBE0DFF8C8050078012889
:1014B00004D0DFF8C4050078012801D102F032FA27
:1014C0000520DFF83C180870BAE0DFF8340800782F
:1014D00000280DD001280CD0022819D0032833D0C1
:1014E000052851D0062861D0072800F0A080A7E089
:1014F000A6E0DFF878050088462804DA0320DFF844
:101500000018087003E00220DFF8F417087097E075
:10151000DFF860050078012804D0DFF85C0500786A
:10152000012801D102F0FEF902F080FA0420DFF870
:10153000D4170870DFF8D007DFF8D017086006204E
:10154000DFF8BC1708707BE0DFF8B00700780128EF
:1015500001D102F04DFA02F045FA0020DFF8B01791
:1015600008804FF4FA70DFF8AC17088041F2883039
:10157000DFF8A41708800120DFF88817087005201D
:10158000DFF87C1708705BE0DFF8E004008846288D
:101590000BDB02F0C7F902F049FA0420DFF8641708
:1015A00008700620DFF85817087049E0DFF8BC041F
:1015B0000088462804DA0320DFF84417087035E075
:1015C000DFF83807007801281CD1DFF8A004008874
:1015D000DFF89C140988884228D302F009FA002019
:1015E000DFF82C1708804FF4FA70DFF8281708800E
:1015F00041F28830DFF8201708800120DFF8041757
:10160000087013E0DFF8F406007800280ED1DFF848
:1016100060040088801EDFF854140988884205DBC6
:1016200002F004FA0420DFF8DC16087008E0DFF8A6
:10163000DC060068002803D10120DFF8C41608701A
:10164000DFF8BC060078DFF8B016087001BD0000B6
:1016500048160020704780B5DFF89C060078DFF858
:10166000F4190870DFF81C040078C0B2C009C0B2D9
:1016700000285DD0DFF8DC090078002808D00128B8
:1016800007D0022817D0042830D005283FD002E127
:1016900001E1DFF8D8030088DFF8D4130988884215
:1016A00004D20420DFF8AC19087003E00520DFF84D
:1016B000A4190870EFE0DFF8B4030088DFF8B01376
:1016C0000988884204D30520DFF8881908700CE0E7
:1016D000DFF89C030088801EDFF890130988884299
:1016E00003DB0420DFF86C190870D4E0DFF8840312
:1016F0000078002804D0DFF880030078002801D1AA
:1017000002F070F90220DFF84C190870C3E0DFF82E
:1017100064030078012804D0DFF85C030078012816
:1017200001D102F0FFF80220DFF828190870B2E0BA
:10173000DFF82009007800280DD001280CD00228FD
:1017400013D0032821D004284CD006286CD00728B9
:1017500000F085809FE09EE00020DFF8FC18087014
:101760000220DFF8F018087095E0C0480088C049F2
:101770000988884204D20420DFF8D818087003E0F2
:101780000620DFF8D018087085E0B9480088801E70
:10179000B6490988884204DB0420DFF8B8180870CD
:1017A0001FE0B2480088B2490988884219D3DFF89F
:1017B000A808007800280AD1DFF8A0080078DFF830
:1017C000981808700620DFF88C18087009E0A948FE
:1017D0000078012803D0A8480078012801D102F040
:1017E000A1F858E0DFF814050078012801D102F0D3
:1017F000FFF8A0480078002811D19F480078002801
:101800000DD102F0EFF8DFF850080078002806D07C
:10181000DFF844080078401EDFF83C180870032009
:10182000DFF83018087036E092480078012803D0BD
:1018300091480078012801D102F074F8DFF8BC0467
:101840000078002801D102F0F1F84EF66020DFF8B0
:10185000BC1408600720DFF8FC1708701BE0DFF8F5
:10186000AC04006800280BD081480088801E7F49A6
:10187000098888420FDB0420DFF8D81708700AE0D7
:10188000DFF878040078012801D102F0B1F80320D4
:10189000DFF8C0170870DFF8BC070078DFF85814CD
:1018A000087001BD4916002000100140000C0140E5
:1018B000001C01400014014080B5DFF83C040078B2
:1018C00000280AD0022824D008D3042861D031D3BC
:1018D000062800F08F8072D3A0E09FE00020DFF8A0
:1018E000B81A08700020DFF878170870DFF8AC0A23
:1018F000007810F0FD00DFF8A41A08705C4800883A
:101900001E30DFF8601708800220DFF8EC13087043
:1019100084E056480088DFF84C170988884204D2D2
:101920000420DFF8D413087003E00520DFF8C813A3
:10193000087073E0DFF82C070088801E4B49098887
:10194000884204DB0420DFF8B01308700AE047483F
:101950000088DFF810170988884203D30520DFF8D4
:1019600098130870DFF8F8060078012810D1DFF826
:101970002C0A0078C0F34000C0B2002808D1DFF87C
:101980008C030068002803D10620DFF86C13087070
:1019900044E0DFF868030078012801D102F028F85C
:1019A00034480078002803D033480078002801D15B
:1019B00002F018F80320DFF8401308702EE02D48DD
:1019C0000078012803D02C480078012801D101F0CB
:1019D000A9FFDFF88C060078002807D1DFF8C009DE
:1019E000CA4908600120DFF8781608700320C24950
:1019F000087013E0DFF8A009007800280BD1DFF8A9
:101A00009C09007850F00200DFF89019087001205E
:101A1000DFF8841908700320B749087001BD000081
:101A20002A15002038160020E01100201D16002085
:101A3000711100087311000839120008E51300083D
:101A40005516000857160008B9180008891A00082A
:101A50001D1D0008692000086B200008B92300083C
:101A600089250008A72600087126000836150020E1
:101A70005E1500200D1600201016002028150020ED
:101A8000B81500206A15002080B59B480078DFF863
:101A900014190870DFF810090078C0B2C009C0B28C
:101AA000002800F09A80DFF8FC080078002808D0B1
:101AB000012807D0052850D006285FD0072823D05A
:101AC0006CE06BE00020DFF8D01808700020DFF831
:101AD000DC180870DFF8C408007810F0FD00DFF8AB
:101AE000BC180870DFF8C8080088DFF8C818098833
:101AF000884204D20520DFF8AC18087003E0062005
:101B0000DFF8A018087049E0DFF8A4080088DFF8C3
:101B1000A4180988884212D3DFF8900800780028BA
:101B200008D1DFF87C08DFF8541A08600120DFF8DC
:101B30007C1808700620DFF86C1808700CE0DFF8DD
:101B400074080088801EDFF868180988884203DB63
:101B50000520DFF85018087020E0DFF8240A00782C
:101B6000002804D0DFF81C0A0078002801D101F019
:101B700039FF0720DFF82C1808700FE0DFF8000AA3
:101B80000078012804D0DFF8FC090078012801D191
:101B900001F0C8FE0720DFF80C180870DFF80C0809
:101BA0000078012840F0A180DFF8D0090068002803
:101BB00040F09B80DFF8E0070078002840F0958037
:101BC000DFF8D807007850F00200DFF8D01708706F
:101BD0000120DFF8C417087087E0DFF8C807007835
:101BE000002806D0022827D004D304284AD03ED3A8
:101BF00060E05FE00020DFF8A01708700020DFF849
:101C0000AC170870DFF89407007810F0FD00DFF8DB
:101C10008C170870DFF898070088DFF89817098894
:101C2000884204D20320DFF87C17087003E0042008
:101C3000DFF8701708703DE0DFF874070088DFF800
:101C400074170988884204D30420DFF858170870F5
:101C50000CE0DFF860070088801EDFF85417098861
:101C6000884203DB0320DFF83C17087022E023489A
:101C70000078002801D101F0D9FE0220DFF82417F6
:101C8000087017E01D480078012801D101F0B0FE6E
:101C9000DFF818070078002808D1DFF80407DFF81C
:101CA000DC1808600120DFF8041708700220DFF854
:101CB000F4160870DFF8F4060078012815D1DFF873
:101CC000BC080068002810D1DFF8CC060078002896
:101CD0000BD1DFF8C806007850F00200DFF8BC1620
:101CE00008700120DFF8B0160870DFF8B806007839
:101CF0000149087001BD00001E16002013160020C7
:101D0000B915002037160020E09304009414002039
:101D1000781500207A1500207C15002080B5DFF8AA
:101D2000240B0078DFF8B4190870DFF87C0600781F
:101D3000C0B2C009C0B2002800F09A80DFF89C0948
:101D40000078002808D0012807D0042850D00528A2
:101D500025D007285DD06CE06BE00020DFF8381656
:101D600008700020DFF844160870DFF830060078AD
:101D700010F0FD00DFF824160870DFF83406008844
:101D8000DFF830160988884204D20420DFF84C19A5
:101D9000087003E00720DFF84419087049E0DFF815
:101DA00010060088DFF80C160988884212D3DFF885
:101DB000FC050078002808D1DFF8E405DFF8BC173F
:101DC00008600120DFF8E41508700720DFF80C191F
:101DD00008700CE0DFF8DC050088801EDFF8D01505
:101DE0000988884203DB0420DFF8F018087020E03F
:101DF000DFF88C070078002804D0DFF88807007827
:101E0000002801D101F0EEFD0520DFF8D0180870A0
:101E10000FE0DFF86C070078012804D0DFF86407D2
:101E20000078012801D101F07DFD0520DFF8AC1814
:101E30000870DFF878050078012840F00481DFF8A9
:101E40003C070068002840F0FE80DFF84C05007871
:101E5000002840F0F880DFF84405007850F00200D8
:101E6000DFF8381508700120DFF82C150870EAE05B
:101E7000DFF868080078002809D0022818D007D3B6
:101E8000042840D023D3062874D05CD3C0E0BFE040
:101E90000020DFF8041508700020DFF81015087026
:101EA000DFF8F804007810F0FD00DFF8F014087097
:101EB000DFF8FC040088462804DA0420DFF81C1848
:101EC000087003E00320DFF814180870A0E0DFF8C2
:101ED000B0060078012804D0DFF8A80600780128B1
:101EE00001D101F01FFD01F0A1FD0420DFF8581918
:101EF0000870DFF85809DFF8581908600620DFF885
:101F0000DC17087084E0DFF84C090078012801D163
:101F100001F06EFD01F066FD0020DFF83C1908803D
:101F20004FF4FA70DFF83419088041F28830DFF896
:101F3000301908800120DFF8101908700520DFF83B
:101F40009C17087064E0DFF868040088462810DBFE
:101F500001F0E8FC01F06AFD0420DFF8EC180870DD
:101F6000DFF8E808DFF8E81808600620DFF86C17EB
:101F700008704DE0DFF8DC08007801282AD1DFF88E
:101F800030040088DFF82C140988884240D301F01F
:101F90002FFD0020DFF8C01808804FF4FA70DFF83A
:101FA000BC18088041F28830DFF8B418088001209E
:101FB000DFF894180870DFF8F4030078002827D1C0
:101FC000DFF8DC03DFF8B41508600120DFF8DC136C
:101FD00008701DE0DFF87C080078002818D1DFF8D1
:101FE000D4030088801EDFF8C813098888420FDBFD
:101FF000DFF8BC030088462804DA0220DFF8DC168C
:10200000087005E001F012FD0420DFF83C180870AC
:10201000DFF898030078012815D1DFF86005006823
:10202000002810D1DFF87003007800280BD1DFF80A
:102030006C03007850F00200DFF860130870012094
:10204000DFF854130870DFF894060078DFF8F4170F
:10205000087001BDBB150020BA1500201C16002019
:10206000BC15002018150020704780B5DFF8D40794
:102070000078DFF8F0170870DFF82C030078C0B2A2
:10208000C009C0B2002800F09980DFF8D8070078B6
:10209000002808D0022824D006D3042853D030D3F7
:1020A000052861D070E06FE00020DFF8BC170870F1
:1020B0000020DFF8E41208700020DFF8F01208704A
:1020C000B648007810F0FD00B4490870DFF8E4026B
:1020D00000881E30B74908800220DFF88817087092
:1020E00052E0B3480088B3490988884204D20420EA
:1020F000DFF87017087003E00520DFF86817087034
:1021000042E0AB480088AB49098888420FD3A74812
:102110000078002806D1A248DFF86014086001208A
:10212000A24908700520DFF83C1708700AE0A148B2
:102130000088801E9E490988884203DB0420DFF85E
:102140002417087020E0DFF838040078002804D055
:10215000DFF830040078002801D101F043FC0320AF
:10216000DFF8001708700FE0DFF81404007801288A
:1021700004D0DFF810040078012801D101F0D2FB6F
:102180000320DFF8E016087088480078012840F046
:10219000FB80DFF8E8030068002840F0F5807E4807
:1021A0000078002840F0F0807C48007850F0020071
:1021B0007A490870012078490870E5E0DFF8A40644
:1021C000007800280ED001280DD0022825D0032841
:1021D00033D0042860D0062800F08080072800F063
:1021E000A280BCE0BBE00020DFF87C160870002075
:1021F0006949087000206D4908706848007810F03F
:10220000FD00664908706B4800881E3069490880E7
:102210000220DFF850160870A1E065480088654983
:102220000988884204D20420DFF83816087003E0D9
:102230000620DFF83016087091E05E480088801EA6
:102240005B490988884204DB0420DFF8181608700F
:1022500021E0574800885749098888421BD3DFF896
:102260000806007800280AD1DFF8680A0078DFF84D
:10227000F81508700620DFF8EC1508700BE0DFF8A1
:1022800000030078012804D0DFF8F8020078012864
:1022900001D101F047FB62E0DFF8B80500780128C2
:1022A00001D101F0A5FBB6480078002811D1B5484E
:1022B000007800280DD101F095FBDFF8AC0500781F
:1022C000002806D0DFF8A0050078401EDFF898153A
:1022D00008700320DFF88C15087040E0A8480078EB
:1022E000012803D0A7480078012801D101F01AFB8A
:1022F000DFF860050078002801D101F097FB4EF669
:102300006020DFF84C15086028480078002805D1C7
:1023100023489A4908600120244908700720DFF803
:10232000441508701BE0DFF82805006800280BD072
:1023300020480088801E1E49098888420FDB04203F
:10234000DFF8201508700AE0DFF80805007801289A
:1023500001D101F04DFB0320DFF808150870134888
:102360000078012810D18548006800280CD10A485F
:102370000078002808D10948007850F00200074989
:102380000870012004490870DFF8D8040078DFF8ED
:10239000B414087001BD0000B71500203D160020E0
:1023A000C0270900BE1500206A150020BD150020B9
:1023B000361500205E15002080B5DFF8880400780F
:1023C000DFF8A8190870DFF8A409007800280FD0FA
:1023D000022813D00DD304285ED042D3062800F083
:1023E0008B806FD3082800F0B980C0F0A280BFE0D6
:1023F000BEE00220DFF874190870B9E0DFF8700958
:102400000088DFF870190988884204D20420DFF8B8
:102410005C19087024E0DFF86009B0F900000028BA
:102420001AD0DFF84C090088DFF84819098888427B
:102430000DD3DFF83C090088DFF83C19B1F9001032
:10244000884204DA0720DFF82419087008E0082021
:10245000DFF81819087003E00520DFF8101908707C
:1024600086E0DFF810090088801EDFF8041909886B
:10247000884204DB0420DFF8F41808700BE0DFF872
:10248000F0080088DFF8EC180988884203D305209B
:10249000DFF8D81808706BE0DFF8B803007801287F
:1024A00001D101F0A5FA36480078002803D035485C
:1024B0000078002801D101F095FA0320DFF8AC186C
:1024C000087055E02E480078012803D02D48007888
:1024D000012801D101F026FADFF89C08B0F90000CC
:1024E000002804D10320DFF88418087003E00720D7
:1024F000DFF8781808703BE0DFF87C08B0F90000DE
:10250000801EDFF86C180988884204DB0720DFF89A
:102510005C1808700CE0DFF858080088DFF85818DD
:10252000B1F90010884203DB0820DFF8401808707A
:102530001EE013480078012803D0124800780128D3
:1025400001D101F0EFF9C3480078002801D101F072
:102550006DFA0620DFF81418087009E0BD4800780D
:10256000012801D101F044FA0620DFF800180870B4
:10257000DFF8F8070078B349087001BD981400200F
:102580000D1600201016002080B5AE480078DFF848
:10259000EC170870DFF8E4070078002808D002285C
:1025A0000CD006D3042836D01AD305284AD059E0D7
:1025B00058E00220DFF8C417087053E0DFF8B007D6
:1025C0000088DFF8B0170988884204D20420DFF8B9
:1025D000AC17087003E00520DFF8A017087041E091
:1025E000DFF890070088801EDFF88417098888428A
:1025F00004DB0420DFF8841708700BE0DFF87007B5
:102600000088DFF870170988884203D30520DFF8B7
:102610006C17087026E08F480078012801D101F07E
:10262000E7F9DFF8EC090078002804D0DFF8E409C6
:102630000078002801D101F0D5F90320DFF83C171C
:1026400008700FE0DFF8C8090078012804D0DFF82F
:10265000C4090078012801D101F064F90320DFF8F2
:102660001C170870DFF8140700787649087001BD60
:1026700080B5DFF89C090078012804D0DFF89409C0
:102680000078012801D101F04DF972480078012845
:1026900001D101F0ADF90020DFF87C1908700120AC
:1026A0006849087001BD80B5DFF864090078012829
:1026B00004D0DFF860090078012801D101F032F977
:1026C00064480078012801D101F092F90020DFF878
:1026D0004819087000205B49087001BDBF15002033
:1026E00080B501F031FD02F010FC01F00DFC4FF45B
:1026F0007A700AF0D4FEDFF82439002247F601018F
:10270000062003F0FFF90821DFF810090BF03FF86D
:10271000DFF80C39002247F60101062003F0F2F938
:102720000821DFF8FC080BF049F8002006F068FAF1
:102730000120DFF8F01808700120DFF8EC1808809D
:10274000DFF8E808007850F00400DFF8E0180870BF
:10275000DFF8D808007850F00800DFF8D0180870CB
:1027600001F03BFF03F008FC00F080F806F0E0FD0C
:1027700005F08AFF02F084F802F06EF902F060FAC8
:1027800002F038FB03F022FBDFF8A40800780028F1
:10279000E6D102F0B9FB02F001FD03F019F805F0F3
:1027A0005DFF05F05FFF06F0B3F806F003F901F0F6
:1027B0005DFB07F095FA06F051F907F0C3F807F052
:1027C000E8F807F01CF9DFF8500C007807F08EF9F4
:1027D00007F010FB07F058FF08F08CFA08F0C8FD6E
:1027E00008F0B2FEDFF8340C0078002801D100F0C8
:1027F000C7FA08F059FE08F057FFFEF74DFC09F044
:10280000C9F8FDF769FFFEF791F8FEF722F9FEF728
:10281000C0F900F0E0F909F0DFF809F010FB09F069
:1028200067FB09F0BFFB09F005F809F067F809F04C
:10283000B0FA00F00BFC00F027FE01F023F909F0DC
:10284000B9FC8DE71E16002037160020E093040027
:102850009414002013160020781500207A1500200B
:102860007C150020C0150020BA15002080B5DFF8C7
:10287000B00B0088002840F0AD81AA20DFF8B41723
:1028800008703C20DFF8AC174870DFF8AC07006830
:10289000DFF8A8170860DFF8940700884FF480710C
:1028A00090FBF1F201FB1200DFF88817C870DFF827
:1028B0007C0700884FF4807190FBF1F0DFF874170B
:1028C0000871DFF878070078DFF868174871DFF8DB
:1028D0006C074078DFF85C178871DFF86007807854
:1028E000DFF85017C871DFF85407C078DFF84417D5
:1028F0000872DFF84C070078DFF838174872DFF805
:10290000440700884FF4807190FBF1F201FB120044
:10291000DFF820178872DFF82C0700884FF48071E9
:1029200090FBF1F0DFF80C17C872DFF81C07008885
:102930004FF4807190FBF1F201FB1200DFF8F41606
:102940000873DFF8040700884FF4807190FBF1F002
:10295000DFF8E0164873DFF8180400884FF4807140
:1029600090FBF1F201FB1200DFF8C8168873DFF864
:10297000000400884FF4807190FBF1F0DFF8B4168A
:10298000C873DFF8A00A00884FF4807190FBF1F261
:1029900001FB1200DFF89C160874DFF8880A008833
:1029A0004FF4807190FBF1F0DFF888164874DFF87F
:1029B000780AB0F9000080B24FF4807190FBF1F218
:1029C00001FB1200DFF86C168874DFF85C0AB0F9BE
:1029D000000080B24FF4807190FBF1F0DFF85416E4
:1029E000C874DFF8480AB0F9000080B24FF4807173
:1029F00090FBF1F201FB1200DFF838160875DFF8E2
:102A00002C0AB0F9000080B24FF4807190FBF1F015
:102A1000DFF820164875DFF8180AB0F9000080B218
:102A20004FF4807190FBF1F201FB1200DFF8041605
:102A30008875DFF8FC09B0F9000080B24FF48071AE
:102A400090FBF1F0DFF8EC15C875DFF8E8090088B5
:102A5000DFF8E0150876DFF8E0090088DFF8D41524
:102A60004876DFF8D8090088DFF8C8158876DFF8DF
:102A7000D00900884FF4807190FBF1F201FB120045
:102A8000DFF8B015C876DFF8B80900884FF4807118
:102A900090FBF1F0DFF89C150877DFF8A8090088B3
:102AA0004FF4807190FBF1F201FB1200DFF8841506
:102AB0004877DFF8900900884FF4807190FBF1F0BF
:102AC000DFF870158877DFF880090078DFF8641583
:102AD000C877DFF850050078DFF8581581F8200036
:102AE000DFF868090078DFF84C1581F82100DFF87D
:102AF00028090078DFF83C1581F82200DFF850093A
:102B00000078DFF8301581F82300DFF848090078F5
:102B1000DFF8201581F82400DFF83C090078C0F3C5
:102B2000C000C0B2002818D0DFF8300900884FF488
:102B3000807190FBF1F201FB1200DFF8F81481F8CC
:102B40003200DFF8180900884FF4807190FBF1F033
:102B5000DFF8E01481F8330017E0DFF8040900889B
:102B60004FF4807190FBF1F201FB1200DFF8C41406
:102B700081F83200DFF8E80800884FF4807190FB9C
:102B8000F1F0DFF8B01481F83300DFF8D8080078EE
:102B9000DFF8A01481F83400DFF8CC0800684FF4A7
:102BA0007A71B0FBF1F0DFF88C1481F83500362132
:102BB000DFF8800405F05AFDDFF8781481F836005C
:102BC0003721DFF870040AF010FE4FF4FA70DFF8D6
:102BD0005018088001BD80B500F014F800F04BF8E3
:102BE00000F07AF800F0A7F801BDDFF8801808704F
:102BF000DFF87C180870DFF87C180870DFF8B41C68
:102C00000870704780B5DFF864080078002805D0A8
:102C1000022813D003D303281FD02BE02AE0DFF8CB
:102C200058080078002825D10120DFF850180968DD
:102C300088470220DFF8341808701BE0DFF83808F6
:102C40000078002816D10120DFF83018496888473D
:102C50000320DFF8181808700CE0DFF81C08007873
:102C6000002807D10120DFF8181808700020DFF8CD
:102C7000FC17087001BD80B5DFF8F4070078002864
:102C800005D0022812D003D303281ED021E020E073
:102C90000120DFF8E817496988476E20DFF8E4175C
:102CA00008800220DFF8C817087012E0DFF8D407A8
:102CB000008800280DD10120DFF8C01789698847F6
:102CC0000320DFF8AC17087003E00020DFF8A0173E
:102CD000087001BD1C16002080B5DFF89807007849
:102CE000002805D0022812D003D303281ED021E0EB
:102CF00020E00120DFF88417C96A88476E20DFF8DA
:102D00001C1B08800220DFF86C17087012E0DFF847
:102D10000C0B008800280DD10120DFF86017096B2B
:102D200088470320DFF84C17087003E00020DFF825
:102D30004417087001BD80B5DFF8780B00780028D3
:102D400003D002280CD001D30EE00DE00120DFF803
:102D50002C17C96988470220DFF8581B087003E068
:102D60000020DFF8501B087001BD0000C1150020D5
:102D7000361500205E15002074150020C2150020B5
:102D800010B5DFF8100B0078002817D1DFF8080B1A
:102D90000078002808D1DFF8200B0078022803D043
:102DA0000220DFF8541B0870DFF8100B00780228AF
:102DB00003D00220DFF8081B087027E1DFF8040BBE
:102DC0000078002822D099480078C0F30010C0B2E3
:102DD00000280DD00220DFF8E81A0870DFF8180B81
:102DE0000078032811DA0220DFF80C1B08700CE0D1
:102DF0000120DFF8CC1A0870DFF8FC0A00780328FD
:102E000003DA0220DFF8F01A0870FFE08748007844
:102E1000C0F30010C0B2002800F08680DFF8000B7D
:102E20000078012867D100241BE0DFF8280B007828
:102E300021002039084110F00100DFF8401651F858
:102E4000241088470CE0202CEFDADFF80C0B006828
:102E5000E04010F00100DFF8241651F824108847F4
:102E6000641CDFF8F80A00788442ECDBDFF83C0BE6
:102E70000078012804D0DFF80C0B0078012802D17B
:102E800000F0B0FD09E00020DFF8F015496E88473A
:102E90000020DFF8E815896E8847DFF8EC0A007833
:102EA000012802D100F0C2FD04E00020DFF8CC15BB
:102EB000C96E8847DFF81C0B0078DFF81C1B087010
:102EC000DFF8180B0078DFF8501508700020DFF8E5
:102ED000E01A08700220DFF8E81908700120DFF816
:102EE000181A08700120DFF8F81A08700020DFF8BF
:102EF000301A08708AE0DFF8640B0078002840F090
:102F00008580DFF8D40A0078012804D10120DFF899
:102F1000E819087003E00220DFF8DC1908700120CE
:102F2000DFF8381B087071E0DFF8F409007800283A
:102F300068D141480068DFF8201A086040480078EE
:102F4000DFF8101A0870DFF8900A0078DFF8841AAA
:102F50000870DFF814050068DFF8CC1A08602C4808
:102F60000078DFF8481A08702A480078DFF8141A49
:102F70000870DFF8EC0A0078DFF80C1A0870DFF848
:102F800098040078DFF8541A08700120DFF88814DC
:102F900008701F480078012803D01E4800780128D7
:102FA00001D100F0BFFCDFF8B80A0078012801D198
:102FB00000F01EFDDFF8200A0078012803D101206F
:102FC000DFF8A01A08700020DFF80C1A0870012042
:102FD000DFF8EC1808700220DFF81C1908700020D8
:102FE000DFF89814C96888470020DFF89014096951
:102FF00088470020DFF88414496A88470120DFF8F9
:10300000201908700020DFF8541A087010BD000065
:103010000D160020101600201D16002000130020A1
:1030200068130020441600202015002026150020DB
:103030005216002018110020C4140020A0140020F3
:10304000F61500202E1500203215002080B5DFF87F
:10305000180A007800282AD002285DD028D3042836
:1030600000F08F807DD3062800F0BC80C0F0A280E5
:10307000082800F0EB80C0F0CD800A2800F01B810A
:10308000C0F0FB800C2800F04481C0F033810E2892
:1030900000F07681C0F05781102800F07781C0F0F1
:1030A0007081122800F0B281C0F09A81B2E1B1E1E2
:1030B0000220DFF8B8190870DFF89C030078C0F32D
:1030C000C000C0B200280FD0012008F07BFBDFF861
:1030D000A009007850F00800DFF8941908700E205D
:1030E000DFF88419087016E0DFF86C03007810F040
:1030F000010000280FD00020DFF878190880DFF8E1
:103100007009007810F0F700DFF8641908700220E9
:10311000DFF8541908707DE1DFF8580900880028AD
:1031200040F078810020D549096D88470020D349B7
:10313000C96C88470120D149496E8847DFF83809B2
:10314000807802F0B1FBDFF83009017B4FF47A7030
:103150004143DFF8200901800320DFF80C190870D3
:1031600058E1DFF810090088002840F053814FF43F
:10317000FA70DFF8001908800420DFF8EC180870F6
:1031800048E1DFF8F0080088002840F04381012082
:10319000BA49496E8847DFF8E008C07802F084FB3E
:1031A00040F6B830DFF8CC1808800520DFF8B818F2
:1031B00008702FE1DFF8BC080088002840F02A8161
:1031C0000120AE49096D8847DFF8AC08817A4FF4D9
:1031D0007A704143DFF89C0801800620DFF88818E8
:1031E000087017E1DFF88C080088002840F0128191
:1031F0000120A249C96C8847DFF87C08C17A4FF4E6
:103200007A704143DFF86C0801800720DFF8581816
:103210000870FFE0DFF85C080088002811D0DFF8B4
:103220005C084078C0F34000C0B200280DD00820F0
:10323000DFF8341808704FF47A70DFF83818088017
:1032400003E00920DFF820180870E3E0DFF8240825
:10325000008800280CD0DFF824084078C0F3400034
:10326000C0B2002808D10920DFF8FC17087003E07D
:103270000B20DFF8F4170870CCE0DFF8F0070078D7
:1032800000280BD0DFF8E4070078401EDFF8DC17D9
:1032900008700A20DFF8D01708700BE0DFF8E007AD
:1032A0000078002802D1FB206D4908800F20DFF84C
:1032B000B8170870AEE000207049096D88470020FB
:1032C0006E49C96C884701206C49496E8847DFF810
:1032D000A807807802F0E8FADFF89C07017B4FF43A
:1032E0007A704143DFF88C0701800220DFF87817FD
:1032F00008708FE0DFF88007007902F0D5FA4FF40C
:10330000FA60DFF8701708800C20DFF85C1708708F
:1033100080E0DFF86007008800287BD10020574953
:10332000096D8847DFF84807007850F00800DFF89B
:10333000401708700120DFF8301B08700D20DFF8FF
:103340002817087066E0DFF834074078C0F34000C3
:10335000C0B2002813D1DFF828070078002806D172
:10336000FE203F4908800020DFF8FC16087000208E
:10337000DFF8F41A08700F20DFF8EC16087049E047
:1033800048E01020DFF8E016087043E0324800788B
:10339000C0F3C000C0B2002803D0002008F012FA29
:1033A00019E000203549096D884700203349C96C70
:1033B000884701203149496E8847DFF8BC0680788C
:1033C00002F072FADFF8B006017B4FF47A704143E5
:1033D000DFF8A00601801120DFF88C16087019E0D4
:1033E000DFF890060088002814D100202349496E98
:1033F0008847DFF87C06007810F0F700DFF87016D9
:1034000008701220DFF86016087003E00020DFF873
:103410005816087001BD0000221600206116002019
:103420001A1500203A1500204E15002050150020D6
:10343000521500203E1500204015002042150020A6
:103440004A1500204C15002039160020710000207C
:103450003C1600203D1600206A150020861500202D
:103460008415002053160020D41400206516002077
:103470006416002063160020B2150020781000208A
:103480001B1600209415002080B5DFF86C0A007828
:10349000C0F34000C0B2002800F0BF81DFF89C0CF0
:1034A0000078002829D002283DD027D3042872D0E4
:1034B00061D3062800F0A280C0F08780082800F0C1
:1034C000D280C0F0B4800A2800F00381C0F0E2800E
:1034D0000C2800F02E81C0F01E810E2800F05E81C5
:1034E000C0F04081102800F05F81C0F058811228A0
:1034F00000F08F81C0F078818FE18EE10220DFF84B
:10350000FC1908700020DFF8F8190880DFF8600562
:10351000007810F0EF00DFF8581508700220DFF88F
:103520001C1C087079E1DFF8D8090088002840F0F9
:1035300074810020DFF8CC19896D88470020DFF8FE
:10354000C419496D88470120DFF8B819896E88478A
:10355000DFF82405C07902F0CBF9DFF81C05017B08
:103560004FF47A704143DFF8980901800320DFF8B7
:10357000CC1B087051E1DFF888090088002840F072
:103580004C814FF4FA70DFF8781908800420DFF8D6
:10359000AC1B087041E1DFF868090088002840F0A2
:1035A0003C810120DFF85C19896E8847DFF8C80488
:1035B000007A02F09DF940F6B830DFF8441908802F
:1035C0000520DFF8781B087027E1DFF83409008850
:1035D000002840F022810120DFF82819896D8847F2
:1035E000DFF89404817A4FF47A704143DFF81009D0
:1035F00001800620DFF8441B08700EE1DFF80009A7
:103600000088002840F009810120DFF8F818496D92
:103610008847DFF86404C17A4FF47A704143DFF8D9
:10362000E00801800720DFF8141B0870F5E0DFF8E0
:10363000D0080088002811D0DFF840044078C0F39B
:103640008000C0B200280DD00820DFF8F01A087002
:103650004FF47A70DFF8A818088003E00920DFF83B
:10366000DC1A0870D9E0DFF89808008800280CD030
:10367000DFF808044078C0F38000C0B2002808D109
:103680000920DFF8B81A087003E00B20DFF8AC1A45
:103690000870C2E0DFF86408007800280BD0DFF87B
:1036A0005C080078401EDFF8541808700A20DFF824
:1036B0008C1A08700CE0DFF8C8030078002803D1EA
:1036C000FC20DFF87C1A08800F20DFF8701A0870E1
:1036D000A3E00020DFF82C18896D88470020DFF870
:1036E0002418496D88470120DFF81818896E88472B
:1036F000DFF88403C07902F0FBF8DFF87C03017B7C
:103700004FF47A704143DFF8F80701800220DFF8B8
:103710002C1A087081E0D848407A02F0E9F84FF49A
:10372000FA60DFF8DC1708800C20DFF8101A087048
:1037300073E0DFF8CC07008800286ED10020DFF8A6
:10374000C417896D8847CA48007850F01000C849EE
:1037500008700120DFF8EC1908700D20DFF8DC1983
:1037600008705AE0C5484078C0F38000C0B2002815
:1037700013D1C3480078002807D1FF20DFF8C01913
:1037800008800020DFF8B41908700020DFF8B419B1
:1037900008700F20DFF8A41908703EE03DE010200B
:1037A000DFF89819087038E00020DFF85817896DA5
:1037B00088470020DFF84C17496D88470120DFF863
:1037C0004417896E8847AC48C07902F091F8AA483E
:1037D000017B4FF47A704143DFF824070180112008
:1037E000DFF85819087018E0DFF81407008800287F
:1037F00013D10020DFF80C17896E88479C480078A9
:1038000010F0EF009A4908701220DFF830190870A4
:1038100003E00020DFF82419087001BD9615002090
:10382000C0B2002802D0012809D022E00220DFF82F
:103830000C1A08700420DFF8081A087019E0032039
:10384000DFF8F8190870DFF8B0060078C0B2C009D8
:10385000C0B200280DD10120DFF8E41908704FF440
:10386000FA70DFF8E019088041F28830DFF8D819E3
:1038700008800120DFF8D41908700020DFF8D01983
:10388000088001201C4908700120DFF8641C0870C2
:1038900070470000181600202F1600200E20DFF8B9
:1038A0009C1908700220144908700420DFF8901950
:1038B00008707047621600202B1600202D1600207D
:1038C0002C16002024160020DFF88819087001202B
:1038D000DFF8781908700020DFF8741908800120DB
:1038E000054908700420DFF8581908700520DFF832
:1038F0004C190870704700002A1600200020DFF8DD
:10390000541908700E20DFF8341908700420DFF80D
:10391000301908700220DFF8DC1B087070470000C7
:103920003816002080B500F003F800F019F801BD4A
:10393000DFF824090078012806D10020DFF81819E3
:1039400008700F20484908700020DFF81C15087027
:1039500070470000F7150020C8140020C315002090
:10396000DFF8940B0078012807D10020DFF8881BCE
:1039700008700F20DFF8C41708700020DFF8C417A4
:1039800008707047111600201416002080B5012021
:10399000DFF8C418087001203349087030480078F7
:1039A000012801D100F024F801BD00000E1600200E
:1039B0000816002080B50120DFF83C1B08700120AC
:1039C000DFF87817087026480078012801D100F048
:1039D0000FF801BD06160020051600202316002052
:1039E0005016002080B5FFF7D1FFFFF7E3FF01BDC0
:1039F000DFF804050078C0B2C009C0B200280ED1BB
:103A00001748007801280AD10020154908700F20B6
:103A1000DFF8E81A08700020DFF8E41A08700020C8
:103A2000DFF8E01A08707047D8140020DFF8C804E7
:103A30000078C0B2C009C0B200280ED101200849E8
:103A400008700120DFF8A81A08700120DFF8AC1A0E
:103A500008700120DFF8A81A08707047511600207E
:103A600013160020071600200B1600200F1600204A
:103A70002A1500205A150020601400202615002069
:103A80005616002080B5DFF8740A007800282BD085
:103A9000022864D029D3042800F09980C0F08780E0
:103AA000062800F0C580C0F0AB80082800F0F48044
:103AB000C0F0D6800A2800F02581C0F004810C28CF
:103AC00000F04E81C0F03D810E2800F08181C0F0F1
:103AD0006181102800F08281C0F07B81122800F003
:103AE000BD81C0F0A581BDE1BCE10220DFF8181A5C
:103AF0000870DFF804040078C0F38000C0B200282A
:103B000010D00020DFF8041A0880DFF8040A0078DB
:103B100010F0DF00DFF8F81908700220DFF8DC1978
:103B200008701BE0DFF8D0030078C0F30010C0B2CB
:103B300000280FD0012007F060FEDFF8D4090078DC
:103B400050F02000DFF8C81908700E20DFF8AC191B
:103B5000087003E00020DFF8A419087082E1DFF8A4
:103B6000AC090088002840F07D810020DFF8941324
:103B7000096E88470020DFF88C13C96D8847012043
:103B8000DFF88013C96E8847DFF88809807801F074
:103B9000DBFEDFF88009C1794FF47A704143DFF82A
:103BA0006C0901800320DFF8541908705AE1DFF82E
:103BB0005C090088002840F055814FF4FA70DFF866
:103BC0004C1908800420DFF8341908704AE1DFF846
:103BD0003C090088002840F045810120C949C96E90
:103BE0008847DFF83009C07801F0AEFE40F6B83003
:103BF000DFF8181908800520DFF80019087031E196
:103C0000DFF808090088002840F02C810120BD4918
:103C1000096E8847DFF8FC0841794FF47A70414318
:103C2000DFF8E80801800620DFF8D018087019E1F5
:103C3000DFF8D8080088002840F014810120B1493D
:103C4000C96D8847DFF8CC0881794FF47A70414319
:103C5000DFF8B80801800720DFF8A018087001E13C
:103C6000DFF8A8080088002811D0DFF8AC084078F9
:103C7000C0F3C000C0B200280DD00820DFF87C18C7
:103C800008704FF47A70DFF88418088003E0092088
:103C9000DFF868180870E5E0DFF870080088002891
:103CA0000CD0DFF874084078C0F3C000C0B2002820
:103CB00008D10920DFF84418087003E00B20DFF872
:103CC0003C180870CEE0DFF84008007800280BD0E0
:103CD000DFF834080078401EDFF82C1808700A203E
:103CE000DFF8181808700CE0DFF8100B00780028D7
:103CF00003D1FD20DFF8481408800F20DFF8FC17FF
:103D00000870AFE000207F49096E884700207D4998
:103D1000C96D884701207B49C96E8847DFF8F407E1
:103D2000807801F011FEDFF8EC07C1794FF47A706A
:103D30004143DFF8D80701800220DFF8C017087080
:103D400090E0DFF8D007007901F0FEFD4FF4FA6053
:103D5000DFF8B81708800C20DFF8A017087081E0A2
:103D6000DFF8A807008800287CD100206549096E8B
:103D70008847DFF89C07007850F02000DFF89017A4
:103D800008700120DFF87C1708700D20DFF86C1731
:103D9000087067E0DFF880074078C0F3C000C0B269
:103DA000002814D1DFF8540A0078002807D14FF416
:103DB0008070E34908800020DFF840170870002079
:103DC000DFF8401708700F20DFF83017087049E05F
:103DD00048E01020DFF82417087043E046480078D8
:103DE000C0F30010C0B2002803D0002007F005FD8A
:103DF00019E000204349096E884700204149C96DF8
:103E0000884701203F49C96E8847DFF80807807856
:103E100001F09AFDDFF8FC06C1794FF47A70414356
:103E2000DFF8E80601801120DFF8D016087019E0ED
:103E3000DFF8D8060088002814D100203149C96E67
:103E40008847DFF8CC06007810F0DF00DFF8C016F6
:103E500008701220DFF8A416087003E00020DFF8D5
:103E60009C16087001BD00004516002080B5DFF8E3
:103E7000080A007800283ED01F48007810F0140F80
:103E800004D10120DFF8041B087034E0DFF8000BD8
:103E9000007800282FD1DFF85806007800282AD0B3
:103EA000DFF87406007810F00100002811D000201F
:103EB0001449096988474FF4FA60DFF8101B08803D
:103EC0000120DFF8681D08700120DFF8C01A0870B3
:103ED00011E001200B4909698847DFF8500D00788F
:103EE000012808D1DFF8E40A0088002803D1002067
:103EF000DFF8381D087001BD6A1500201216002079
:103F00005C1500207810002010B5FCF73EF9FDF795
:103F1000DBF8002406E00020DFF80C1B51F8241029
:103F20008847641CDFF8040B00788442F3DB4FF40D
:103F30000051DFF8FC0A08F069FE4FF40041DFF899
:103F4000F00A08F060FE4FF48061DFF8E40A08F040
:103F50005DFE4FF48051DFF8D80A08F054FE80214E
:103F6000DFF8CC0A08F052FE4FF40071DFF8C00A07
:103F700008F049FE1021DFF8B80A08F047FE40219A
:103F8000DFF8AC0A08F03FFE41F2883001F056F845
:103F90000A2001F089FC142001F0AAFC1E2001F087
:103FA000D3FC0120DFF88C1A08700120DFF8881A92
:103FB00008700120DFF8841A08700120DFF8801AE9
:103FC00008706420DFF87C1A08706420DFF8781A23
:103FD00008706420DFF8741A08706420DFF8701A23
:103FE00008701B20DFF86C1AC8703420DFF8641AE0
:103FF00008713420DFF85C1A88702620DFF8541A24
:1040000008724A20DFF84C1A48724A20DFF8441A36
:10401000C8710320DFF83C1A88720320DFF8341AD5
:10402000C8720520DFF82C1A08732720DFF8E41483
:10403000C8704820DFF8DC1408714820DFF8D41479
:1040400088700320DFF8CC1448710320DFF8C41413
:1040500088710520DFF8BC14C8710120DFF8081B47
:1040600008700120DFF81C1B08700120DFF8181B06
:1040700008700120DFF8241B08700120DFF8301BD6
:1040800008700120DFF82C1B08700120DFF8381BB6
:1040900008700120DFF8341B08700120DFF8301BA6
:1040A00008700120DFF82C1B08700120DFF8281BA6
:1040B00008700120DFF8241B08700020DFF830149E
:1040C0000870002007F0CDFFB0F1AA3F1ED10120FB
:1040D00007F0C7FFDFF8581B0860022007F0C1FF98
:1040E000DFF8501B0860032007F0BBFFDFF8481B18
:1040F0000860042007F0B5FFDFF8401B08600520CA
:1041000007F0AFFFDFF8DC1C086015E007F0AFFF39
:104110000020DFF81C1B08600020DFF8181B086077
:104120000020DFF8141B08600020DFF8101B086077
:104130000020DFF8B01C086010BD00000C16002045
:10414000841500204616002080B509F085FB5FF439
:10415000803009F0B1FB09F0D9FBDFF88C1C087046
:10416000DFF8840C0078012824D1002009F009FC34
:10417000002009F01AFC4FF4806009F00CFC1020BC
:1041800009F0FEFC022009F0EFFC5FF4E0115FF49F
:10419000803009F0D7FB012009F0E0FB392009F05D
:1041A000A5FC0028FAD0022009F0DCFB09F0E4FBB2
:1041B0000828FBD10121042009F078FC0121082006
:1041C00009F074FC0121102009F070FC012120206D
:1041D00009F06CFC0121402009F068FC01218020DD
:1041E00009F064FC01214FF4807009F05FFC0121AB
:1041F0004FF4804009F05AFC01215FF4003009F0CF
:1042000065FC01215FF4802009F060FC01215FF46E
:10421000002009F05BFC0121012009F037FC01219D
:104220004FF4005009F042FC00F018F809F0FCF9D6
:1042300000F082F900F072F901BD00001D160020A7
:10424000371600207A1500207C1500201E1600204D
:10425000281500201C1600200D16002080B54FF4F4
:10426000E070ADF8000018208DF8030003208DF8F1
:1042700002006946DFF81C0B08F058FC4BF2D060D6
:10428000ADF8000010208DF8030003208DF8020027
:104290006946DFF89C0708F049FC44F62010ADF8A9
:1042A000000048208DF8030003208DF802006946C5
:1042B000DFF87C0708F03AFC4FF40070ADF800001E
:1042C00018208DF8030003208DF802006946DFF8FE
:1042D000C80A08F02BFC4FF48060ADF80000042001
:1042E0008DF803006946DFF8B00A08F01FFC0420CF
:1042F000ADF8000018208DF8030003208DF80200AF
:104300006946DFF8940A08F011FC0820ADF80000B7
:1043100004208DF803006946DFF87C0A08F006FCEB
:104320004FF48060ADF8000018208DF803000320E2
:104330008DF802006946DFF8FC0C08F0F7FB4FF43B
:104340000060ADF8000004208DF803006946DFF836
:10435000E40C08F0EBFB4FF48060ADF8000018208F
:104360008DF8030003208DF802006946DFF8240A67
:1043700008F0DCFB4FF40060ADF8000004208DF87D
:1043800003006946DFF80C0A08F0D0FB4FF6FF7017
:10439000ADF8000010208DF8030003208DF8020016
:1043A0006946DFF8480A08F0C1FB4FF20C00ADF88F
:1043B000000010208DF8030003208DF802006946EC
:1043C000DFF82C0A08F0B2FB4FF47F60ADF8000074
:1043D00048208DF8030003208DF802006946DFF8BD
:1043E000100A08F0A3FB43F20300ADF80000102010
:1043F0008DF8030003208DF802006946DFF8340CC5
:1044000008F094FB4FF44340ADF8000048208DF8CD
:10441000030003208DF802006946DFF8180C08F04D
:1044200085FB4FF44050ADF8000010208DF80300DC
:1044300003208DF802006946DFF8580908F076FB82
:104440004FF46040ADF8000010208DF80300032009
:104450008DF802006946DFF8AC0A08F067FB03201C
:10446000ADF8000048208DF8030003208DF802000D
:104470006946DFF8BC0508F059FB1820ADF80000CC
:1044800010208DF8030003208DF802006946DFF844
:10449000040908F04BFB4FF4F050ADF80000102079
:1044A0008DF8030003208DF802006946DFF8540AF6
:1044B00008F03CFB0420ADF8000010208DF803004C
:1044C00003208DF802006946DFF8680B08F02EFB28
:1044D0004FF44070ADF8000048208DF80300032031
:1044E0008DF802006946DFF84C0B08F01FFB01BD98
:1044F000201600202A160020101600201516002075
:104500003E160020471600201616002062150020D7
:104510002A150020841400202615002080B548F6B6
:10452000A040FBF718FE002800D0FEE700215FF056
:10453000FF30FBF7FDFD01BD80B54FF4E06009F0F1
:10454000EBFB0B208DF8000000208DF8010000200F
:104550008DF8020001208DF80300684609F0E1FBA8
:1045600025208DF8000000208DF8010001208DF835
:10457000020001208DF80300684609F0D2FB2620D6
:104580008DF8000000208DF8010002208DF8020057
:1045900001208DF80300684609F0C3FB27208DF841
:1045A000000000208DF8010003208DF8020001209A
:1045B0008DF80300684609F0B4FB34208DF8000044
:1045C00000208DF8010004208DF8020001208DF8F4
:1045D0000300684609F0A5FB01BD80B5DFF82C0B90
:1045E0000088002840F0FB80DFF84C0A0088002893
:1045F00006D0DFF8440A0088401EDFF83C1A088025
:10460000DFF80C0B0088002806D0DFF8040B0088C8
:10461000401EDFF8FC1A0880DFF8F80A008800283E
:1046200006D0DFF8F00A0088401EDFF8E81A08809C
:10463000DFF8E40A0088002806D0DFF8DC0A0088EA
:10464000401EDFF8D41A0880DFF8D00A008800285E
:1046500006D0DFF8C80A0088401EDFF8C01A0880BC
:10466000DFF8BC0A0088002806D0DFF8B40A00880A
:10467000401EDFF8AC1A0880DFF8A80A007800288E
:1046800006D0DFF8A00A0078401EDFF8981A0870FC
:10469000DFF8940A0078002806D0DFF88C0A00784A
:1046A000401EDFF8841A0870DFF8800A00780028BE
:1046B00023D0DFF87C0A0068401CDFF8741A086019
:1046C000DFF86C0A006848F6A041B0FBF1F080B258
:1046D000402808DBDFF85C0A007850F0FC00DFF8C7
:1046E000541A087009E0DFF84C1A097811F0030138
:1046F00051EA8001DFF83C0A01705F480078002829
:1047000006D04FF40041DFF8FC0708F07FFA05E01F
:104710004FF40041DFF8EC0708F075FADFF8180AEB
:10472000006890F48040DFF8101A0860DFF8080A8B
:10473000006890F40050DFF8001A0860DFF8FC0908
:104740000088002840D1DFF8F8090078002806D05A
:10475000DFF8DC040068401CDFF8D4140860DFF8E0
:10476000E4090078002806D0DFF8C8040068401C7F
:10477000DFF8C014086041480078002806D0DFF850
:10478000B8040068401CDFF8B0140860DFF8B8090E
:104790000078002806D0DFF8A4040068401CDFF889
:1047A0009C140860DFF8A4090078002806D0DFF820
:1047B00034060068401CDFF82C1608604FF41670B1
:1047C000DFF87819088006E0DFF870090088401EDD
:1047D000DFF8681908806420DFF83019088001BD0F
:1047E00080B51F20DFF8681908704FF40041DFF82A
:1047F000640908F00BFA01BD000000005616002005
:1048000080B54FF40041DFF84C0908F0FCF901BD18
:1048100080B54FF40051DFF83C0908F0F7F901BD0D
:1048200080B54FF40051DFF82C0908F0ECF901BD18
:1048300080B54FF480417E4808F0DAF900280DD0A9
:10484000DFF8140901680122DFF8040990F900007B
:1048500082401143DFF8000901600CE0DFF8F8083E
:1048600001680122DFF8E80890F9000082409143D6
:10487000DFF8E408016001BD18160020471600208B
:1048800080B570480078002840F07F80DFF8CC08C1
:104890000078002802D1FFF7A3FF1CE0DFF8BC0876
:1048A0000178032291FBF2F002FB1010C0B2002845
:1048B00008D0022803D00ED2FFF7B2FF0BE0FFF7BB
:1048C000B7FF08E0FFF7A4FFDFF884080078401E78
:1048D000DFF87C180870DFF8780890F900000028ED
:1048E0004CD5FFF78DFF0020DFF870180870DFF857
:1048F00068080068DFF868180860DFF86408006876
:10490000800CDFF860180880DFF85808B0F9000064
:10491000042190FBF1F0DFF84C180880DFF8440820
:104920000088DFF84418DFF84428127821F81200D4
:10493000DFF838080078401CDFF830180870DFF81E
:104940002C0800780A2803DB0020DFF82018087004
:104950000021002205E0DFF8100830F812004118AD
:10496000521C0A2AF7DB89B20A2091FBF0F0DFF82B
:104970000018088064203349087006E0DFF8DC077F
:104980000078401CDFF8D417087001BD1A1600200B
:104990002F16002080B51F20DFF8D81708704FF4BD
:1049A0008051DFF8B00708F031F901BD80B54FF450
:1049B0008051DFF8A00708F026F901BD80B54FF45B
:1049C0008061DFF8900708F021F901BD7215002021
:1049D00080B54FF48061DFF87C0708F014F901BD61
:1049E00080B54FF40061124808F002F900280DD09C
:1049F000DFF8840701680122DFF8780790F90000EA
:104A000082401143DFF8700701600CE0DFF86807AF
:104A100001680122DFF85C0790F9000082409143B1
:104A2000DFF85407016001BD78100020C315002095
:104A3000002001406A160020711600207816002020
:104A40007F160020E7150020EB150020EF15002051
:104A5000F31500206014002080B5DFF820070078EF
:104A6000002840F08080DFF8480D0078002802D14F
:104A7000FFF790FF1CE0DFF8380D0178032291FB6F
:104A8000F2F002FB1010C0B2002808D0022803D0B8
:104A90000ED2FFF79DFF0BE0FFF7A2FF08E0FFF744
:104AA0008DFFDFF8D0060078401EDFF8C8160870CA
:104AB000DFF8C00690F9000000284DD5FFF776FF1B
:104AC0000020DFF8EC1C0870DFF8AC060068DFF8A7
:104AD000B0160860DFF8A8060068800CDFF8A4169E
:104AE0000880DFF8A006B0F90000042190FBF1F087
:104AF000DFF890160880DFF88C060088DFF888164B
:104B0000DFF88826127821F81200DFF88006007896
:104B1000401CDFF878160870DFF8700600780A2865
:104B200003DB0020DFF8641608700021002205E096
:104B3000DFF8540630F812004118521C0A2AF7DB3D
:104B400089B20A2091FBF0F0DFF844160880642057
:104B5000DFF82816087006E0DFF8540C0078401CD7
:104B6000DFF84C1C087001BDC515002080B51F2062
:104B7000DFF8201608704FF40071DFF8D80508F050
:104B800045F801BDC8150020CB15002080B54FF4B5
:104B90000071DFF8C00508F036F801BDCE15002021
:104BA00080B58021DFF8AC0508F030F801BD0000C9
:104BB000D1150020D415002080B58021DFF89405A0
:104BC00008F021F801BD0000D7150020DA150020FB
:104BD000DC150020DE150020E0150020E315002084
:104BE00080B54FF48071DFF86C0508F001F80028FB
:104BF0000DD0DFF8C00B01680122DFF8980590F9AD
:104C0000000082401143DFF8AC0B01600CE0DFF8DC
:104C1000A40B01680122DFF87C0590F900008240B6
:104C20009143DFF8900B016001BD000021160020C8
:104C3000FC14002000150020041500200815002099
:104C400080B5DFF854050078002840F08280DFF856
:104C5000400D0078002802D1FFF788FF1CE0DFF844
:104C6000300D0178032291FBF2F002FB1010C0B26C
:104C7000002808D0022803D00ED2FFF79DFF0BE0DA
:104C8000FFF7AEFF08E0FFF78BFFDFF808050078BD
:104C9000401EDFF800150870DFF8F80490F90000F6
:104CA00000284FD5FFF772FF0020DFF8E41C0870E2
:104CB000DFF8000B0068DFF8001B0860DFF8F80A77
:104CC0000068800CDFF8F41A0880DFF8F00AB0F909
:104CD0000000042190FBF1F0DFF8E01A0880DFF813
:104CE000DC0AB0F90000401DDFF8D41ADFF8D42A3E
:104CF000127821F81200DFF8CC0A0078401CDFF8A7
:104D0000C41A0870DFF8BC0A00780A2803DB002008
:104D1000DFF8B01A08700021002205E0DFF8A00AD1
:104D200030F812004118521C0A2AF7DB89B20A2017
:104D300091FBF0F0DFF8901A08806420DFF8581437
:104D4000087006E0DFF8480C0078401CDFF8401CD3
:104D5000087001BD80B51F20DFF8701A087040216F
:104D6000DFF8F00307F052FF01BD80B54021DFF806
:104D7000E40307F048FF01BD80B51021DFF8D4033C
:104D800007F044FF01BD80B51021DFF8C80307F02C
:104D90003AFF01BD001001400008014080B520210C
:104DA000DFF8B00307F024FF00280DD0DFF8840BF4
:104DB00001680122DFF8140A90F9000082401143D3
:104DC000DFF8700B01600CE0DFF8680B016801226E
:104DD000DFF8F80990F9000082409143DFF8540BA6
:104DE000016001BD0C1500206E000020001801407C
:104DF0000014014080B5DFF8F40A0078002840F084
:104E00008080DFF8F00C0078002802D1FFF7A2FFC5
:104E10001CE0DFF8E00C0178032291FBF2F002FBCA
:104E20001010C0B2002808D0022803D00ED2FFF71D
:104E3000AAFF0BE0FFF7B2FF08E0FFF79DFFDFF8E6
:104E40008C090078401EDFF884190870DFF87C09AF
:104E500090F9000000284DD5FFF787FF0020DFF80C
:104E6000941C0870DFF8CC0A0068DFF8CC1A0860E0
:104E7000DFF8C40A0068800CDFF8C01A0880DFF889
:104E8000BC0AB0F90000042190FBF1F0DFF8AC1A85
:104E90000880DFF8A80A0088DFF8A41ADFF8A42A3F
:104EA000127821F81200DFF89C0A0078401CDFF825
:104EB000941A0870DFF88C0A00780A2803DB0020B7
:104EC000DFF8801A08700021002205E0DFF8700A80
:104ED00030F812004118521C0A2AF7DB89B20A2066
:104EE00091FBF0F0DFF8A41A08806420DFF8FC19C9
:104EF000087006E0DFF8FC0B0078401CDFF8F41BBC
:104F0000087001BD001C0140704700B591B023201E
:104F1000ADF8000003208DF8020000208DF803009A
:104F20006946DFF8700A07F001FE0121012008F050
:104F3000ADFD4FF4004008F042FD01214FF4007038
:104F400008F0B4FDDFF8500A08F028FFDFF84C0A3B
:104F50000690DFF84C0A0790002008900320099083
:104F600000200A9080200B904FF400700C904FF4BA
:104F700000600D9020200E904FF400500F90002004
:104F8000109006A9DFF8100A08F08CFF0121DFF865
:104F9000080A08F0A5FF0020019001208DF8080004
:104FA00001208DF809005FF4602003900020049038
:104FB00003208DF8140001A9DFF8180C08F0D8FFC1
:104FC000052301220A21DFF80C0C09F03BF8052328
:104FD00002220B21DFF8FC0B09F034F80523032231
:104FE0000F21DFF8F00B09F02DF80121DFF8E40BB9
:104FF00008F0F0FF0121DFF8DC0B08F0DEFFDFF83E
:10500000D40B08F0F4FFDFF8CC0B08F0F5FF002814
:10501000F9D1DFF8C00B08F0F9FFDFF8B80B08F0A2
:10502000FAFF0028F9D10121DFF8A80B08F0FDFFF5
:1050300011B000BD000C01409215002000B587B0F2
:10504000DFF8041AB1FBF0F0DFF8001A0860002066
:10505000ADF816000020ADF81200DFF8F009006886
:10506000401EADF814000020ADF8100000208DF8AF
:10507000180004A9DFF8480C09F04EF86020ADF8DC
:1050800000000020ADF80C000020ADF80800002062
:10509000ADF80E000020ADF80A000120ADF80200C6
:1050A0000020ADF804000020ADF806006946DFF8E6
:1050B000100C09F04CF86946DFF8040C09F080F890
:1050C0006946DFF8FC0B09F0BBF80021DFF8F00BB4
:1050D00009F027F90021DFF8E80B09F02BF900218E
:1050E000DFF8DC0B09F02FF90021DFF8D40B09F011
:1050F0000AF90121DFF8C80B09F0E6F80121DFF811
:10510000C00B09F0EFF807B000BD00001C1500202F
:1051100094150020961500207E1500208015002093
:10512000821500204C1600204F1600203E1600204D
:10513000F41400203D1600200C1C01401E15002018
:10514000451600204616002048160020491600206B
:10515000E515002000200140A8140020E6150020DD
:10516000A41400202C15002010140020E8150020A5
:105170002E150020E9150020B0140020EB150020AA
:10518000AC1400203015002024140020EC15002061
:1051900032150020ED150020EF15002080B5DFF856
:1051A000100C0088002840F001831021DFF8280A45
:1051B00007F01EFD002822D1DFF83C090078002806
:1051C0002DD0DFF838090078152810DB0120DFF832
:1051D00030190870DFF8040A007850F00100DFF899
:1051E000FC1908700020DFF81019087017E0DFF8CC
:1051F0000C090078401CDFF8041908700FE0DFF894
:10520000DC09007810F0FE00DFF8D01908700020EB
:10521000DFF8E81808700120DFF8DC18087020219A
:10522000DFF8B40907F0E4FC002822D1DFF8B00968
:10523000007800282DD0DFF8AC090078152810DBA5
:105240000120DFF8A4190870DFF89009007850F009
:105250000200DFF8881908700020DFF88419087050
:1052600017E0DFF880090078401CDFF87819087033
:105270000FE0DFF86809007810F0FD00DFF85C1936
:1052800008700020DFF85C1908700120DFF8501961
:1052900008704021DFF8400907F0AAFC002822D15D
:1052A000DFF84809007800282DD0DFF8440900789D
:1052B000152810DB0120DFF83C190870DFF81C0905
:1052C000007850F00400DFF8141908700020DFF8AF
:1052D0001C19087017E0DFF818090078401CDFF887
:1052E000101908700FE0DFF8F408007810F0FB00E8
:1052F000DFF8E81808700020DFF8F41808700120C3
:10530000DFF8E81808708021DFF8CC0807F070FC9F
:10531000002822D1DFF8AC09007800282DD0DFF872
:10532000A8090078152810DB0120DFF8A019087003
:10533000DFF8A808007850F00800DFF8A01808701F
:105340000020DFF88019087017E0DFF87C0900788A
:10535000401CDFF8741908700FE0DFF8800800784F
:1053600010F0F700DFF8741808700020DFF8581903
:1053700008700120DFF84C1908704FF48071DFF8D5
:10538000580807F035FC00281BD1DFF844090088D5
:1053900040F22131884208DBDFF84008007850F005
:1053A0001000DFF83818087006E0DFF824090088DC
:1053B000401CDFF81C1908800020DFF8181908804D
:1053C0001AE0DFF81009008840F22131884208DB3A
:1053D000DFF80808007810F0EF00DFF80018087018
:1053E00006E0DFF8F0080088401CDFF8E8180880C5
:1053F0000020DFF8DC1808804FF40071DFF8D807D0
:1054000007F0F6FB002822D1DFF8A8090078002871
:105410002DD0DFF8A4090078152810DB0120DFF873
:105420009C190870DFF8B407007850F02000DFF80E
:10543000AC1708700020DFF87C19087017E0DFF85F
:1054400078090078401CDFF8701908700FE0DFF869
:105450008C07007810F0DF00DFF88017087000205C
:10546000DFF8541908700120DFF8481908704FF46C
:105470008061DFF8640707F0BBFB002822D1DFF86A
:105480004009007800282DD0DFF838090078152869
:1054900010DB0120DFF830190870DFF840070078D2
:1054A00050F04000DFF8341708700020DFF81019C2
:1054B000087017E0DFF80C090078401CDFF80419C9
:1054C00008700FE0DFF81407007810F0BF00DFF875
:1054D0000C1708700020DFF8EC1808700120DFF8C6
:1054E000E01808704FF40071DFF8880907F080FBBE
:1054F000002822D1DFF88009007800282DD0DFF8BD
:105500007C090078152810DB0120DFF87419087079
:10551000DFF8C806007850F08000DFF8C016087089
:105520000020DFF85419087017E0DFF85009007800
:10553000401CDFF8481908700FE0DFF8A00600787B
:1055400010F07F00DFF8941608700020DFF82C19A7
:1055500008700120DFF8201908704FF48071DFF81F
:10556000140907F045FB002822D1DFF8180900785C
:1055700000282DD0DFF810090078152810DB012055
:10558000DFF808190870DFF85406407850F0010081
:10559000DFF8481648700020DFF8E818087017E0B8
:1055A000DFF8E4080078401CDFF8DC1808700FE032
:1055B000DFF82806407810F0FE00DFF8201648706B
:1055C0000020DFF8C41808700120DFF8B818087050
:1055D0000221DFF8040607F00BFB002822D1DFF8D8
:1055E000B008007800282DD0DFF8A808007815282A
:1055F00010DB0120DFF8A0180870DFF8E005407824
:1056000050F00200DFF8D41548700020DFF8801851
:10561000087017E0DFF87C080078401CDFF8741889
:1056200008700FE0DFF8B405407810F0FD00DFF8F7
:10563000AC1548700020DFF85C1808700120DFF816
:10564000501808704FF48041D24807F0D1FA002872
:1056500022D1DFF84808007800282DD0DFF8400874
:105660000078152810DB0120DFF838180870DFF803
:105670006C05407850F00400DFF860154870002099
:10568000DFF81818087017E0DFF814080078401CDD
:10569000DFF80C1808700FE0DFF84005407810F0D4
:1056A000FB00DFF8381548700020DFF8F4170870A9
:1056B0000120DFF8E81708704FF48041DFF8B407E5
:1056C00007F096FA002822D1DFF8DC0700780028DE
:1056D0002DD0DFF8D8070078152810DB0120DFF87F
:1056E000D0170870DFF8F404407850F00800DFF8B5
:1056F000EC1448700020DFF8B017087017E0DFF8EE
:10570000AC070078401CDFF8A41708700FE0DFF842
:10571000CC04407810F0F700DFF8C0144870002087
:10572000DFF8881708700120DFF87C1708704FF445
:105730000061DFF8A40407F05BFA002822D1DFF84B
:105740007407007800282DD0DFF86C070078152842
:1057500010DB0120DFF864170870DFF88004407860
:1057600050F08000DFF8741448700020DFF8441710
:10577000087017E0DFF840070078401CDFF83817A2
:1057800008700FE0DFF85404407810F07F00DFF875
:105790004C1448700020DFF8201708700120DFF853
:1057A000141708700120DFF80816088001BD0000FA
:1057B000EA150020B8140020B4140020341500208D
:1057C00038140020F015002036150020F1150020B7
:1057D000DFF82C030078002802D00020C8490870A8
:1057E000DFF804040078002803D00020DFF8F81365
:1057F0000870DFF800040078002803D00020DFF8EC
:10580000F4130870DFF8C4040078002803D00020E7
:10581000DFF8B8140870DFF8A4050078002803D07A
:105820000020DFF898150870DFF89C050078002844
:1058300003D00020DFF890150870DFF844060078E8
:10584000002803D00020DFF838160870DFF83C0687
:105850000078002803D00020DFF830160870DFF849
:1058600038060078002803D00020DFF82C160870D6
:10587000DFF830060078002803D00020DFF8241677
:105880000870DFF82C060078002803D00020DFF82D
:1058900020160870DFF824060078002803D00020C6
:1058A000DFF818160870704710B50400E4B2642CD5
:1058B00000DB6424D4F1640464480068E4B260430B
:1058C0006421B0FBF1F0411E89B2DFF8F40308F067
:1058D00043FDDFF8EC0504700020DFF8E8150880D0
:1058E0006420DFF8E415088010BD0000F3150020E7
:1058F00010B50400E4B2642C00DB6424D4F1640429
:1059000052480068E4B260436421B0FBF1F0411EEC
:1059100089B2DFF8AC0308F021FDDFF8B0050470B0
:105920000020DFF8AC1508806420DFF8A815088097
:1059300010BD0000C0140020BC1400203815002049
:105940004C140020F415002010B50400E4B2642CBF
:1059500000DB6424D4F164043C480068E4B2604392
:105960006421B0FBF1F0411E89B2DFF8540308F066
:10597000F7FCDFF8640504700020DFF8601508808C
:105980006420DFF85C15088010BD00003A15002087
:10599000EE15002000100140080002404C24014098
:1059A000D0130020DFF83C05007800284BD0002001
:1059B00006E0DFF83415095CDFF830251154401C8F
:1059C0000828F6DBDFF824050188DFF82005408889
:1059D0004118DFF81805808841184FF6FF704143E1
:1059E000DFF80C050180DFF80405C088DFF800153A
:1059F000098888421BD1DFF8F404008848F2FF01CF
:105A0000884214D1DFF8E4044088002806D1DFF88A
:105A1000DC048088DFF8DC14088008E0DFF8CC04C0
:105A20004088012803D0DFF8C40440880228002001
:105A3000DFF8B01408700020DFF8BC1408700120F3
:105A4000DFF8B8140870704700A24A049C140020C4
:105A5000DFF8AC04007800284BD0002006E0DFF827
:105A6000A414095CDFF884241154401C0828F6DBD8
:105A7000DFF878040188DFF8740440884118DFF803
:105A80006C04808841184FF6FF704143DFF86004D2
:105A90000180DFF85804C088DFF854140988884270
:105AA0001BD1DFF84804008848F2FF01884214D176
:105AB000DFF838044088002806D1DFF830048088F9
:105AC000DFF84414088008E0DFF82004408801284B
:105AD00003D0DFF81804408802280020DFF82014E3
