:020000040800F2
:100000000004002039B0000859A900085BA90008C5
:100010005DA900085FA9000861A9000800000000B0
:1000200000000000000000000000000063A90008BC
:1000300065A900080000000067A9000869A9000878
:10004000CB860008CB860008CB86000871A9000883
:10005000CB860008CB86000873A90008CB86000871
:10006000CB86000887A90008CB8600087DAE000873
:10007000CB860008CB860008CB860008CB8600081C
:10008000CB860008CB860008CB86000889A900082B
:100090008BA90008CB860008CB8600088DA9000834
:1000A000CB8600088FA90008CB860008CB86000805
:1000B0009DA90008ABA90008B9A90008CB860008D3
:1000C000CB860008CB860008CB860008CB860008CC
:1000D000C9A90008CBA9000825AB000815AC000889
:1000E00061AE000879AE0008CB860008CB86000818
:1000F000BBA90008CB860008CB860008CB86000889
:10010000CB8600087BAE0008CB860008CB860008B3
:1001100003AD0008CB860008CB860008CB8600081C
:10012000CB860008CB860008CB860008CB8600086B
:1001300040B2002805D40901DFF82C2B40B211543D
:1001400008E00901DFF8F82B40B210F00F0010446E
:1001500000F8041C704780B5411EB1F1807F01D3C7
:10016000012011E0401EDFF8241B08600F215FF022
:10017000FF30FFF7DDFF0020DFF8141B08600720C9
:10018000DFF8881C0860002002BD0020DFF8801C1A
:100190000870DFF8000BDFF8AC1BDFF8742C127866
:1001A00041F82200DFF8680C0078401CDFF8601C82
:1001B0000870DFF8E40ADFF88C1BDFF8542C1278A3
:1001C00041F82200DFF8480C0078401CDFF8401CA2
:1001D0000870DFF8C80ADFF86C1BDFF8342C1278DF
:1001E00041F82200DFF8280C0078401CDFF8201CC2
:1001F0000870DFF8AC0ADFF84C1BDFF8142C12781B
:1002000041F82200DFF8080C0078401CDFF8001CE1
:100210000870DFF8900ADFF82C1BDFF8F42B127857
:1002200041F82200DFF8E80B0078401CDFF8E01B03
:100230000870DFF8140BDFF80C1BDFF8D42B1278F2
:1002400041F82200DFF8C80B0078401CDFF8C01B23
:100250000870DFF8F80ADFF8EC1ADFF8B42B127830
:1002600041F82200DFF8A80B0078401CDFF8A01B43
:100270000870DFF8DC0ADFF8CC1ADFF8942B12786C
:1002800041F82200DFF8880B0078401CDFF8801B63
:100290000870DFF8C00ADFF8AC1ADFF8742B1278A8
:1002A00041F82200DFF8680B0078401CDFF8601B83
:1002B0000870DFF8A40ADFF88C1ADFF8542B1278E4
:1002C00041F82200DFF8480B0078401CDFF8401BA3
:1002D0000870DFF8880ADFF86C1ADFF8342B127820
:1002E00041F82200DFF8280B0078401CDFF8201BC3
:1002F0000870DFF86C0ADFF84C1ADFF8142B12785C
:1003000041F82200DFF8080B0078401CDFF8001BE2
:100310000870DFF8000BDFF82C1ADFF8F42A1278E7
:1003200041F82200DFF8E80A0078401CDFF8E01A04
:100330000870DFF8E40ADFF80C1ADFF8D42A127824
:1003400041F82200DFF8C80A0078401CDFF8C01A24
:100350000870DFF8C80ADFF8EC19DFF8B42A127861
:1003600041F82200DFF8A80A0078401CDFF8A01A44
:100370000870DFF8AC0ADFF8CC19DFF8942A12789D
:1003800041F82200DFF8880A0078401CDFF8801A64
:100390000870DFF8900ADFF8AC19DFF8742A1278D9
:1003A00041F82200DFF8680A0078401CDFF8601A84
:1003B0000870DFF8740ADFF88C19DFF8542A127815
:1003C00041F82200DFF8480A0078401CDFF8401AA4
:1003D0000870DFF8580ADFF86C19DFF8342A127851
:1003E00041F82200DFF8280A0078401CDFF8201AC4
:1003F0000870DFF83C0ADFF84C19DFF8142A12788D
:1004000041F82200DFF8080A0078401CDFF8001AE3
:100410000870DFF8200ADFF82C19DFF8F4291278C9
:1004200041F82200DFF8E8090078401CDFF8E01905
:100430000870DFF8040ADFF80C19DFF8D429127805
:1004400041F82200DFF8C8090078401CDFF8C01925
:100450000870DFF8E809DFF8EC18DFF8B429127843
:1004600041F82200DFF8A8090078401CDFF8A01945
:100470000870DFF8CC09DFF8CC18DFF8942912787F
:1004800041F82200DFF888090078401CDFF8801965
:100490000870DFF8B009DFF8AC18DFF874291278BB
:1004A00041F82200DFF868090078401CDFF8601985
:1004B0000870DFF89409DFF88C18DFF854291278F7
:1004C00041F82200DFF848090078401CDFF84019A5
:1004D0000870DFF87809DFF86C18DFF83429127833
:1004E00041F82200DFF828090078401CDFF82019C5
:1004F0000870DFF85C09DFF84C18DFF8142912786F
:1005000041F82200DFF808090078401CDFF80019E4
:100510000870DFF8C40ADFF82C18DFF8F428127826
:1005200041F82200DFF8E8080078401CDFF8E01806
:100530000870DFF8A80ADFF80C18DFF8D428127862
:1005400041F82200DFF8C8080078401CDFF8C01826
:100550000870DFF88C0ADFF8EC17DFF8B42812789F
:1005600041F82200DFF8A8080078401CDFF8A01846
:100570000870DFF8700ADFF8CC17DFF894281278DB
:1005800041F82200DFF888080078401CDFF8801866
:100590000870DFF8540ADFF8AC17DFF87428127817
:1005A00041F82200DFF868080078401CDFF8601886
:1005B0000870DFF8380ADFF88C17DFF85428127853
:1005C00041F82200DFF848080078401CDFF84018A6
:1005D0000870DFF81C0ADFF86C17DFF8342812788F
:1005E00041F82200DFF828080078401CDFF82018C6
:1005F0000870704780B5DFF8FC09007800280FD13B
:10060000DFF8F409007800280AD10121DFF8EC09AD
:1006100008F055F80221DFF8E40908F050F83DE051
:10062000DFF8D009007801280FD1DFF8CC09007875
:1006300000280AD10121DFF8C40908F043F802219B
:10064000DFF8B80908F03BF828E0DFF8A8090078DF
:1006500000280FD1DFF8A009007801280AD1012174
:10066000DFF8980908F02BF80221DFF8900908F06C
:1006700029F813E0DFF87C09007801280ED1DFF8B3
:1006800078090078012809D10121DFF8700908F004
:1006900016F80221DFF8640908F011F801BD80B5F1
:1006A000DFF850190870FFF7A5FF01BD80B5DFF82E
:1006B00048190870FFF79EFF01BD80B5002805D1DD
:1006C0000421DFF8380907F0FAFF04E00421DFF81D
:1006D0002C0907F0F7FF01BD80B5002805D10821DE
:1006E000DFF8180907F0EBFF04E00821DFF80C0938
:1006F00007F0E8FF01BD80B5002805D11021DFF823
:10070000FC0807F0DCFF04E01021DFF8F00807F038
:10071000D9FF01BD80B5DFF8E8080078002811D1C5
:10072000DFF8E008007800280CD14FF40061DFF812
:10073000CC0807F0C4FF4FF48051DFF8C00807F081
:10074000BEFF43E0DFF8B8080078012811D1DFF8D8
:10075000B408007800280CD14FF40061DFF89C0841
:1007600007F0B0FF4FF48051DFF8900807F0A7FFC3
:100770002CE0DFF88C080078002811D1DFF884081D
:10078000007801280CD14FF40061DFF8700807F001
:1007900096FF4FF48051DFF8640807F093FF15E0EF
:1007A000DFF85C080078012810D1DFF858080078DD
:1007B00001280BD14FF40061DFF8400807F07FFFFC
:1007C0004FF48051DFF8340807F079FF01BD80B5A0
:1007D000DFF82C180870FFF79DFF01BD80B5DFF82A
:1007E00024180870FFF796FF01BD80B5DFF8640A92
:1007F0000078002810D1DFF8600A007800280BD1BB
:100800004FF48071DFF8F40707F059FF8021DFF81B
:10081000EC0707F054FF40E0DFF8380A00780128C1
:1008200010D1DFF8340A007800280BD14FF4807122
:10083000DFF8C80707F046FF8021DFF8C00707F0A0
:100840003EFF2AE0DFF80C0A0078002810D1DFF81C
:10085000080A007801280BD14FF48071DFF89C075B
:1008600007F02DFF8021DFF8940707F02BFF14E03D
:10087000DFF8E009007801280FD1DFF8DC09007803
:1008800001280AD14FF48071DFF8700707F017FFD5
:100890008021DFF8680707F012FF01BD80B5DFF89F
:1008A000B8190870FFF7A1FF01BD80B5DFF8A419E2
:1008B0000870FFF79AFF01BD80B5002806D14FF4FC
:1008C0000071DFF8380707F0FAFE05E04FF4007119
:1008D000DFF8280707F0F6FE01BD80B5002806D135
:1008E0004FF48061DFF8140707F0E9FE05E04FF4EC
:1008F0008061DFF8080707F0E5FE01BD80B500283C
:1009000006D14FF40051DFF8F40607F0D8FE05E0F9
:100910004FF40051DFF8E40607F0D4FE01BD80B5C6
:10092000002806D14FF48041DFF8D00607F0C7FE5B
:1009300005E04FF48041DFF8C40607F0C3FE01BDB7
:1009400080B5002806D14FF40041DFF8B00607F06B
:10095000B6FE05E04FF40041DFF8A00607F0B2FE56
:1009600001BD80B5002805D11021DFF8240B07F068
:10097000A6FE04E01021DFF8180B07F0A3FE01BD6E
:1009800080B5002805D10421DFF8080B07F097FE99
:1009900004E00421DFF8FC0A07F094FE01BD80B5F5
:1009A000002806D14FF48051DFF8EC0A07F087FEEB
:1009B00005E04FF48051DFF8E00A07F083FE01BD47
:1009C00080B5002806D14FF40061DFF8CC0A07F0AB
:1009D00076FE05E04FF40061DFF8BC0A07F072FE16
:1009E00001BD80B5002805D14021DFF8100607F0D1
:1009F00066FE04E04021DFF8040607F063FE01BD57
:100A000080B5002805D12021DFF8F00507F057FE5A
:100A100004E02021DFF8E40507F054FE01BD80B5B5
:100A2000002806D14FF40041DFF8700A07F047FEB6
:100A300005E04FF40041DFF8640A07F043FE01BD12
:100A400080B5002806D14FF48061DFF84C0A07F02A
:100A500036FE05E04FF48061DFF83C0A07F032FE15
:100A600001BD80B5002806D14FF40071DFF8280AD7
:100A700007F025FE05E04FF40071DFF81C0A07F0CF
:100A800021FE01BD80B5002805D10821DFF8000A4C
:100A900007F015FE04E00821DFF8F40907F012FE64
:100AA00001BD80B5002805D10121DFF81C0B07F03E
:100AB00006FE04E00121DFF8100B07F003FE01BD84
:100AC00080B5002805D10221DFF8FC0A07F0F7FD08
:100AD00004E00221DFF8F00A07F0F4FD01BD80B563
:100AE00000280DD10821DFF8B40907F0E8FDDFF890
:100AF000D80B007810F0FE00DFF8CC1B08700CE07B
:100B00000821DFF8980907F0DDFDDFF8BC0B00785D
:100B100050F00100DFF8B01B087001BD80B500285F
:100B200005D10421DFF8740907F0C9FD04E00421B0
:100B3000DFF8680907F0C6FD01BD80B500280ED1B9
:100B40004FF48051DFF8480907F0B9FDDFF8780B62
:100B5000007810F0FD00DFF8701B08700DE04FF416
:100B60008051DFF82C0907F0ADFDDFF85C0B007851
:100B700050F00200DFF8501B087001BD80B500285E
:100B800006D14FF40051DFF8080907F098FD05E0A1
:100B90004FF40051DFF8F80807F094FD01BD80B56F
:100BA00000280ED14FF48051DFF8E80807F087FDE8
:100BB000DFF8140B007810F0FB00DFF80C1B087056
:100BC0000DE04FF48051DFF8CC0807F07BFDDFF833
:100BD000F80A007850F00400DFF8EC1A087001BD44
:100BE00080B5002806D14FF40051DFF8DC0907F08A
:100BF00066FD05E04FF40051DFF8CC0907F062FD17
:100C000001BD80B5002806D14FF48041DFF88C0883
:100C100007F055FD05E04FF48041DFF8800807F04C
:100C200051FD01BD80B5002806D14FF40051DFF819
:100C30006C0807F044FD05E04FF40051DFF85C0854
:100C400007F040FD01BD80B5002806D14FF480516A
:100C5000DFF8480807F033FD05E04FF48051DFF876
:100C60003C0807F02FFD01BD00E400E080B5DFF88F
:100C70005C090078012807D0DFF85409DFF84C1A26
:100C8000097850F82100804701BD000014E000E021
:100C900018E000E09F060008AD060008BB0600084B
:100CA000D9060008F7060008DFF8240ADFF8201943
:100CB0000860DFF8200ADFF818194860DFF8180A22
:100CC000DFF80C198860DFF8140ADFF80419C8602F
:100CD000DFF80C0ADFF8F8180861DFF8080ADFF817
:100CE000F0184861DFF8000ADFF8E4188861DFF8DF
:100CF000FC09DFF8DC18C861DFF8F409DFF8D01868
:100D00000862DFF8F009DFF8C8184862DFF8E80980
:100D1000DFF8BC188862DFF8E409DFF8B418C862AD
:100D2000DFF8DC09DFF8A8180863DFF8D809DFF876
:100D3000A0184863DFF8D009DFF89418886370477B
:100D400018ED00E070100020010A0008E309000817
:100D50009D080008AB080008B9080008DB08000877
:100D6000CF070008704780B5DFF8500B00780028E7
:100D700006D0022817D004D304283BD02ED344E059
:100D800043E0DFF888090088DFF884190988884281
:100D900004D20320DFF8241B087003E00420DFF8EE
:100DA0001C1B087031E0DFF868090088801EDFF83E
:100DB0005C190988884204DB0320DFF8001B0870F7
:100DC0000BE0DFF848090088DFF8441909888842F9
:100DD00003D30420DFF8E41A087016E0DFF83409C2
:100DE0000078002801D101F074F90220DFF8CC1A54
:100DF00008700AE0DFF81C090078012801D101F031
:100E00005FF90220DFF8B41A087001BD10E000E0BD
:100E1000AA140020DD070008FD0800081F090008CB
:100E2000410900081F0A0008A30A0008C10A0008B7
:100E3000DF0A00081D0B00083B0B00087D0B0008B3
:100E40009F0B0008E10B0008030C0008250C0008AC
:100E5000470C000880B5DFF8C0080088002840F083
:100E6000B980DFF8580A0078DFF8B0180870DFF8AA
:100E7000B0080078C0B2C009C0B2002853D0DFF873
:100E80009C080078002808D0012807D0052817D032
:100E9000062830D007283AD096E095E0DFF86C08B5
:100EA0000088DFF86C180988884204D20620DFF831
:100EB0006C18087003E00720DFF86018087083E002
:100EC000DFF848080088DFF848180988884204D30A
:100ED0000720DFF8481808700CE0DFF834080088B5
:100EE000801EDFF828180988884203DB0620DFF817
:100EF0002C18087068E0DFF81C080078002801D181
:100F000001F0E7F80520DFF8141808705CE0DFF85E
:100F100004080078012801D101F0D2F80520DFF89B
:100F2000FC17087050E0DFF8F4070078002806D0BE
:100F3000022817D004D304283BD02ED344E043E04A
:100F4000DFF8C8070088DFF8C8170988884204D28C
:100F50000320DFF8C817087003E00420DFF8BC178F
:100F6000087031E0DFF8A4070088DFF8A4170988CB
:100F7000884204D30420DFF8A41708700CE0DFF8DF
:100F800090070088801EDFF884170988884203DBF9
:100F90000320DFF88817087016E0DFF824090078CE
:100FA000002801D101F0C8FB0220DFF8701708709B
:100FB0000AE0DFF80C090078012801D101F0B1FB4B
:100FC0000220DFF858170870DFF850070078DFF8C4
:100FD000EC18087001BD00006309000881090008D1
:100FE0009F090008C1090008410A0008630A0008B7
:100FF000850A000898140020991400200018014068
:101000009A1400209B14002080B5DFF80C0700889C
:10101000002840F01E81DFF8A4080078DFF8A4184B
:101020000870DFF8FC060078C0B2C009C0B2002822
:1010300053D0DFF890080078002808D0012807D0A6
:10104000032832D004283CD0052813D0FBE0FAE076
:10105000DFF8B8060088DFF8B8160988884204D29D
:101060000320DFF86018087003E00420DFF854184C
:101070000870E8E0DFF894060088DFF89416098825
:10108000884204D30420DFF83C1808700CE0DFF835
:1010900080060088801EDFF874160988884203DB0A
:1010A0000320DFF820180870CDE0DFF8680600782C
:1010B000002801D101F00DF80520DFF808180870AC
:1010C000C1E0DFF850060078012801D100F0F8FFF8
:1010D0000520DFF8F0170870B5E0DFF8E8070078C2
:1010E00000280DD001280CD0022819D003282ED0BA
:1010F00005284CD006285CD0072800F09B80A2E091
:10110000A1E0DFF808060088462804DA0320DFF8AB
:10111000B417087003E00220DFF8A817087092E007
:10112000DFF8F0050078012801D100F0C9FF01F0D7
:1011300003FB0420DFF860190870DFF86009DFF8AE
:10114000601908600620DFF87C1708707BE0DFF884
:1011500070070078012801D101F0E3FA00F0B9FF2F
:101160000020DFF8401908804FF4FA70DFF83819D2
:10117000088041F28830DFF8341908800120DFF858
:10118000181908700520DFF83C1708705BE0DFF8DD
:101190007C05008846280BDB00F092FF01F0CCFABA
:1011A0000420DFF8F41808700620DFF8181708701C
:1011B00049E0DFF858050088462804DA0320DFF804
:1011C0000417087035E0DFF8F806007801281CD114
:1011D000DFF838050088DFF838150988884228D3F9
:1011E00001F09FFA0020DFF8BC1808804FF4FA7075
:1011F000DFF8B418088041F28830DFF8B0180880B2
:101200000120DFF89418087013E0DFF8B4060078C6
:1012100000280ED1DFF8F8040088801EDFF8EC14F7
:101220000988884205DB01F087FA0420DFF8681896
:10123000087008E0DFF868080068002803D1012082
:10124000DFF880160870DFF87C060078DFF86C168F
:10125000087001BD9C1400209D140020704780B5CB
:10126000DFF858060078DFF8001A0870DFF8B004DD
:101270000078C0B2C009C0B2002853D0DFF8E80936
:101280000078002808D0012807D0022817D00428A9
:1012900030D005283AD0F4E0F3E0DFF8700400889D
:1012A000DFF86C140988884204D20420DFF8B819EA
:1012B000087003E00520DFF8B0190870E1E0DFF8FE
:1012C0004C040088DFF848140988884204D30520BC
:1012D000DFF8941908700CE0DFF834040088801EF1
:1012E000DFF828140988884203DB0420DFF8781926
:1012F0000870C6E0DFF81C040078002801D100F077
:10130000E8FE0220DFF860190870BAE0DFF8040494
:101310000078012801D100F0D3FE0220DFF848193F
:101320000870AEE0DFF84009007800280DD00128F1
:101330000CD0022813D0032823D004284FD006282D
:101340006CD0072800F081809BE09AE00020DFF855
:10135000281A08700220DFF81019087091E0DFF8F1
:10136000AC030088DFF8A8130988884204D204205F
:10137000DFF8F418087003E00620DFF8EC180870B6
:101380007FE0DFF88C030088801EDFF88013098877
:10139000884204DB0420DFF8D01808701EE0DFF874
:1013A0006C030088DFF868130988884216D3DFF8D9
:1013B000C809007800280AD1DFF8F0090078DFF8C2
:1013C000B81908700620DFF8A018087006E0DFF8EA
:1013D00044030078012801D100F072FE51E0DFF8EB
:1013E000E0040078012801D101F09BF9DFF8240323
:1013F000007800280DD100F06CFEDFF87C09007841
:10140000002806D0DFF870090078401EDFF8681960
:1014100008700320DFF85018087032E0BD480078EB
:10142000012801D100F04CFEDFF894040078002878
:1014300001D101F081F94EF66020DFF864160860F2
:101440000720DFF8241808701BE0DFF85406006856
:1014500000280BD0AE480088801EAC49098888421D
:101460000FDB0420DFF8001808700AE0DFF85004F2
:101470000078012801D101F054F90320DFF8E817C2
:101480000870DFF8E4070078DFF83014087001BD59
:1014900000100140000C0140001C014000140140FC
:1014A00080B5DFF818040078002809D002281BD086
:1014B00007D3042855D028D306287DD063D382E0F3
:1014C00081E00020DFF8E81808700020DFF8E41859
:1014D00008708F4800881E30DFF8DC180880022072
:1014E000DFF8D81308706EE088480088DFF8C81865
:1014F0000988884204D20420DFF8C013087003E092
:101500000520DFF8B81308705DE0DFF8AC0800884C
:10151000801E7E490988884204DB0420DFF89C1382
:1015200008700AE079480088DFF88C18098888423A
:1015300003D30520DFF884130870DFF874080078FF
:1015400001280DD1DFF86C080078002808D1DFF8F9
:1015500050050068002803D10620DFF860130870EA
:1015600031E0DFF85C030078012801D101F0D9F8FF
:1015700068480078002801D100F0ABFD0320DFF8B7
:101580003C1308701FE063480078012801D100F087
:1015900097FDDFF81C080078002808D1DFF81C0848
:1015A000DFF8FC1408600120DFF80418087003203D
:1015B000DFF80813087006E00120DFF8F81708705C
:1015C0000320BE49087001BD000C01402115002018
:1015D0001011002080B5B9480078DFF8C4180870F1
:1015E000DFF8BC080078002806D002281DD004D3FC
:1015F00004283CD030D352E051E00020DFF8A4189A
:1016000008700020DFF8AC17087040480088404997
:101610000988884204D20320DFF88418087003E0A8
:101620000420DFF87C18087039E038480088384911
:101630000988884204D30420DFF8641808700AE09F
:1016400033480088801E31490988884203DB032023
:10165000DFF84C18087022E099480078002801D182
:1016600001F06AF80220DFF83818087017E0944893
:101670000078012801D101F054F8DFF8280800783B
:10168000002808D1DFF83407DFF81C1808600120B3
:10169000DFF8101808700220DFF804180870DFF86F
:1016A00004080078012808D1DFF8FC07006800284A
:1016B00003D10120DFF8FC160870DFF8E40700789A
:1016C0007E49087001BD000030140020091500207B
:1016D000650D0008670D0008550E00080910000888
:1016E0005D1200085F120008A1140008D51500085B
:1016F00025170008C9180008CB180008B11A0008FF
:101700006D1C00087D1D0008471D00083C140020CA
:101710005E140020F51400202E1400209E140020DA
:101720006E14002080B565480078DFF8DC1808707A
:10173000DFF8D408007800280CD0022813D00AD390
:10174000042833D01ED3062854D03FD3072800F0F6
:1017500098809EE09DE00020DFF848170870002088
:10176000DFF850160870DFF8A4080088462804DA6D
:101770000420DFF89418087003E00320DFF88818CD
:10178000087086E0DFF888080078012801D100F0B1
:1017900097FC00F0D1FF0420BF490870BF48C04942
:1017A00008600620DFF86018087072E0444800788E
:1017B000012801D100F0B5FF00F08BFC0420B649F0
:1017C00008700520DFF84018087062E0DFF83C0878
:1017D000008846280DDB00F073FC00F0ADFF04200C
:1017E000AD490870AD48AE4908600620DFF818180A
:1017F00008704EE0AA48006800283DD030480078C4
:10180000012826D1DFF804080088DFF8901809883D
:10181000884235D300F085FF0020A24908804FF4AC
:10182000FA70A149088041F28830A049088001205F
:1018300099490870DFF86C060078002820D1DFF89D
:101840007C05DFF8641608600120DFF85816087080
:1018500016E01B480078002812D1DFF84008008805
:10186000801EDFF8A8170988884209DB00F064FFB2
:1018700004208949087003E00120DFF88C17087004
:1018800007E087480068002803D10220DFF87817B6
:101890000870DFF810060078012808D1DFF8080684
:1018A0000068002803D10120DFF808150870DFF870
:1018B000580700780149087001BD00000A15002092
:1018C000FB1400209F140020704780B5DFF8280922
:1018D0000078DFF828180870DFF820080078002862
:1018E0000AD0022821D008D304285ED02FD306289E
:1018F00000F09F8078D3B9E0B8E00020DFF87814DA
:1019000008700020DFF89C1508700020DFF8A41490
:101910000870DFF8880700881E30DFF8801708801D
:101920000220DFF8D8170870A0E0DFF8E006008892
:10193000DFF868170988884204D20420DFF8BC1752
:10194000087003E00520DFF8B41708708EE0DFF8B8
:101950004C070088801EDFF8B4160988884204DB33
:101960000420DFF8981708701EE0DFF8A006008852
:10197000DFF828170988884216D3DFF8FC030078BF
:1019800000280AD1DFF824040078DFF8EC1308708F
:101990000520DFF86817087006E0DFF874060078A5
:1019A000012801D100F08CFB60E0DFF850080078DE
:1019B000012801D100F0B5FEDFF8540600780028B8
:1019C0000DD100F086FBDFF8B0030078002806D0C8
:1019D000DFF8A4030078401EDFF89C130870032092
:1019E000DFF81817087041E0DFF8240600780128B6
:1019F00001D100F065FBDFF804080078002801D170
:101A000000F09AFE4EF6602025490860DFF8940445
:101A10000078002808D1DFF8A403DFF88C140860F0
:101A20000120DFF8801408700620DFF8D016087057
:101A30001CE01B48006800280DD0DFF86006008815
:101A4000801EDFF8C815098888420FDB0420DFF804
:101A5000AC1608700AE0DFF8A4070078012801D16D
:101A600000F05FFE0320DFF894160870DFF83404FE
:101A70000078012808D1DFF830040068002803D17D
:101A80000120DFF830130870DFF870060078DFF807
:101A90006817087001BD000020150020E0930400C5
:101AA000D41300207C1400207E1400208014002019
:101AB00080B5DFF844070078DFF844170870DFF8D6
:101AC0004007007800280FD0022813D00DD3042837
:101AD0005ED042D3062800F085806CD3082800F041
:101AE000B180C0F09C80B8E0B7E00220DFF81017AA
:101AF0000870B2E0DFF814050088DFF8A015098847
:101B0000884204D20420DFF8F816087024E0DFF8D9
:101B1000F406B0F9000000281AD0DFF8F0040088BD
:101B2000DFF87815098888420DD3DFF8E0040088D3
:101B3000DFF8D016B1F90010884204DA0720DFF888
:101B4000C016087008E00820DFF8B416087003E03B
:101B50000520DFF8AC1608707FE0DFF8400500884C
:101B6000801EDFF8A8140988884204DB0420DFF80F
:101B7000901608700BE0DFF894040088DFF81C155D
:101B80000988884203D30520DFF87416087064E0E2
:101B9000DFF868060078012801D100F0C2FDDFF807
:101BA00070040078002801D100F093FA0320DFF8D8
:101BB0005016087051E0DFF858040078012801D170
:101BC00000F07EFADFF83C06B0F90000002804D1EE
:101BD0000320DFF82C16087003E00720DFF820163A
:101BE00008703AE0DFF81C06B0F90000801EDFF84C
:101BF0001C140988884204DB0720DFF804160870EB
:101C00000CE0DFF808040088DFF8F815B1F90010DF
:101C1000884203DB0820DFF8E81508701DE0DFF8D4
:101C2000F0030078012801D100F04AFADFF8CC0572
:101C30000078002801D100F07FFD0620DFF8C015F4
:101C400008700AE0DFF8B4050078012801D100F03F
:101C500068FD0620DFF8A8150870DFF8A4050078F5
:101C6000DFF89415087001BDA114002080B5DFF8DD
:101C700088050078DFF890150870DFF88C0500788B
:101C8000002808D002280CD006D3042836D01AD356
:101C9000052846D050E04FE00220DFF86C150870B0
:101CA0004AE0DFF868030088DFF8F013098888420B
:101CB00004D20420DFF85015087003E00520DFF897
:101CC0004815087038E0DFF8D4030088801EDFF87C
:101CD0003C130988884204DB0420DFF82C150870C7
:101CE0000BE0DFF828030088DFF8B013098888428A
:101CF00003D30520DFF8101508701DE0DFF8FC04A1
:101D00000078012801D100F00CFDDFF80403007811
:101D1000002801D100F0DDF90320DFF8EC14087091
:101D20000AE0DFF8EC020078012801D100F0C8F9E0
:101D30000320DFF8D4140870DFF8CC040078DFF853
:101D4000B814087001BD80B5DFF8C402007801281E
:101D500001D100F0B5F9DFF8A4040078012801D121
:101D600000F0DFFC0020DFF8A41408700120DFF889
:101D70008814087001BD0000A014002080B5DFF8B1
:101D800090020078012801D100F09AF9DFF86C0484
:101D90000078012801D100F0C4FC0020DFF86C14A9
:101DA00008700020DFF85014087001BD08150020ED
:101DB000A2140020A314002028140020C02709002A
:101DC00080B501F00BF801F0CAFD00F023FFDFF849
:101DD0009439002247F60101062002F009FB082190
:101DE000DFF8800906F025FDDFF87C39002247F690
:101DF0000101062002F0FCFA0821DFF86C0906F068
:101E00002FFD082004F004FA01F0FBF901F0A6FD13
:101E100001F072FA01F046FB01F018FC01F012FD2E
:101E200002F0B8FB01F0CAFE02F0E0F902F086FC15
:101E300003F084FF03F086FF03F096FF04F080F8C0
:101E400004F0BEF800F0E4F900F05AF900F0AAFC42
:101E500000F026FE04F0ECFB00F08CFE05F089FAA1
:101E600004F00CF904F0F0FE04F018FF04F08CFF0D
:101E700005F02DF9DFF8140C007805F085F905F070
:101E8000EBFA05F0FDFE06F05BFA00F00FF806F045
:101E90001DFA06F0D9FAFEF7E9FE06F045FBB3E7B6
:101EA000A5140020A4140020D813002010B5DFF8DA
:101EB000BC080078002812D1DFF8B40800780228A6
:101EC00003D00220DFF8AC180870DFF8AC08007807
:101ED000022803D00220DFF8A418087093E0DFF88E
:101EE00080080078C0F30010C0B2002849D0DFF8A5
:101EF0007C0C0078012840F0868000241BE0DFF88D
:101F00008008007821002039084110F00100DFF836
:101F1000741851F8241088470CE0202CEFDADFF811
:101F200068080068E04010F00100DFF8581851F828
:101F300024108847641CDFF8540800788442ECDBE6
:101F4000DFF84C080078012801D100F0C2F8DFF872
:101F500044080078012801D100F0EEFBDFF83808D2
:101F60000078DFF8381808700020DFF8341808709F
:101F70000220DFF8081808700020DFF8F01B087056
:101F800041E0DFF8E80B007800283CD1DFF8CC070F
:101F90000068DFF8F4170860DFF8F40A0078DFF86B
:101FA000E0170870DFF8F4070078DFF8EC17087026
:101FB00017480078DFF8D817087090480078DFF8E5
:101FC000D417087012480078012801D100F078F881
:101FD0008A480078012801D100F0A3FBDFF8BC0794
:101FE0000078012803D10120DFF8A81A0870012029
:101FF000DFF8881708700220DFF8781708700120D2
:10200000DFF8681B087010BDA61400203C140020E7
:10201000F5140020C0B2002802D0012804D006E048
:1020200002207A49087002E00320784908700120F4
:10203000714908700020DFF8601A08800120DFF87D
:10204000341708700420DFF8541A08700120DFF8F4
:10205000A01B087070470E206C4908700220DFF842
:10206000141708700420DFF8341A08707047DFF87E
:10207000001B08700120604908700020DFF8181A62
:1020800008800120DFF8EC1608700420DFF80C1A35
:10209000087005205D490870704700005E1400203C
:1020A0000020DFF8CC1A08700E2058490870042070
:1020B000DFF8E81908700220DFF8B81608707047DA
:1020C0000120DFF8301B08700020DFF82C1B08709F
:1020D000704780B50120DFF8241B08700120DFF86D
:1020E000201B087045480078012801D100F019FB39
:1020F0000020DFF8001B087001BD0000A7140020BD
:1021000080B5DFF8F00A0078002874D0DFF8E80A1C
:102110000078002802D0012856D06CE00020DFF8BB
:10212000DC1A08700020DFF8D81A0870DFF80406FF
:10213000007810F0F700DFF8FC150870DFF8C40A2B
:102140000078C0F3C000C0B2002807D0002006F01D
:10215000B3F90020DFF89C1A08704CE00020DFF88B
:102160002416096D88470020DFF81816C96C8847C7
:102170000120DFF81016496E88470020DFF80416AA
:10218000896D88470020DFF8FC15496D88470120DC
:10219000DFF8F015896E8847DFF86C0A807802F066
:1021A0009BF8DFF8640A407902F0ACF8DFF8580ACF
:1021B000017A4FF47A704143DFF8500A0180012020
:1021C000DFF8341A087016E0DFF8400A00880028AB
:1021D00011D10020DFF8AC15496E88470020DFF8E8
:1021E000A415896E88470020DFF80C1A08700020BB
:1021F000DFF8001A087001BD0A150020FB1400204A
:10220000A814002078140020A9140020091500202B
:1022100080B5DFF8E8090078002800F08182DFF857
:10222000E009007800281DD0022839D01BD30428EB
:102230007CD043D3062800F01681C0F0F680082831
:1022400000F0CB81C0F048810A2800F03482C0F051
:1022500072810C2800F05B82C0F041820D2800F0F2
:1022600057825DE25CE2DFF89C090078C0F3C000B1
:10227000C0B2002807D0012006F01EF90B20DFF8BD
:10228000801908700BE0DFF8AC04007810F0F7005C
:10229000DFF8A01408700220DFF8641908703FE22C
:1022A0004FF4FA70DFF8681908800320DFF850193E
:1022B00008700220DFF8201B087031E2DFF85009B7
:1022C0000088002840F02C820020DFF8B814096D47
:1022D00088470020DFF8AC14C96C88470020DFF87D
:1022E000A414896D88470020DFF89814496D884749
:1022F0000120DFF89014496E88470120DFF884142C
:10230000896E8847DFF80009007801F0E5FFDFF803
:10231000F808C07801F0F6FF40F6B830DFF8F018A2
:1023200008800420DFF8D8180870F9E1DFF8E00829
:102330000088002840F0F481DFF8C808007810F029
:102340000300012827D1DFF818044078C0F34000CB
:10235000C0B200280CD0DFF84007007850F04000F1
:10236000DFF8341708700D20DFF8941808705BE070
:102370000120DFF81014096D8847DFF88C08817997
:102380004FF47A704143DFF8880801800520DFF8B8
:102390007018087048E0DFF86C08007810F003004F
:1023A000032841D1DFF8B803407810F0060F24D09D
:1023B000DFF8AC034078C0F34000C0B2002807D07B
:1023C000DFF8D406007850F04000DFF8CC16087033
:1023D000DFF88C034078C0F38000C0B2002807D03B
:1023E000DFF8B406007850F08000DFF8AC16087013
:1023F0000D20DFF80C18087016E00120DFF88413B8
:10240000096D88470120DFF87C13896D8847DFF864
:10241000F80781794FF47A704143DFF8F4070180BF
:102420000520DFF8DC1708707AE1DFF8E4070088A0
:10243000002840F075810120DFF84813C96C8847F7
:102440000120DFF84013496D8847DFF8BC07C179E8
:102450004FF47A704143DFF8B80701800620DFF8B7
:10246000A01708705CE1DFF8A807008800282ED0CC
:10247000DFF89007007810F00300012810D1B84869
:102480004078C0F34000C0B2002824D00720DFF815
:10249000701708704FF47A70DFF8741708801AE02C
:1024A000DFF86007007810F00300032813D1AC4870
:1024B000407810F0060006280DD10720DFF84017FD
:1024C00008704FF47A70DFF84817088003E009209D
:1024D000DFF82C17087023E1DFF8340700880028A4
:1024E00024D0DFF82007007810F0030001280BD17A
:1024F0009B484078C0F34000C0B200281AD10920A0
:10250000DFF8FC16087015E0DFF8F806007810F028
:10251000030003280ED19248407810F006000628E8
:1025200008D00920DFF8D816087003E00A20DFF889
:10253000D0160870F4E0DFF8A008007800280BD06F
:10254000DFF894080078401EDFF88C18087003202C
:10255000DFF8AC1608703FE0DFF8A806007810F04E
:10256000030001280FD17E484078C0F34000C0B27C
:1025700000282DD1DFF82005407850F00200DFF868
:102580001815487024E0DFF87C06007810F003008E
:1025900003281DD172484078C0F34000C0B2002823
:1025A00007D1DFF8F404407850F00200DFF8E814B7
:1025B00048706B484078C0F38000C0B2002807D153
:1025C000DFF8D404407850F00400DFF8CC144870F1
:1025D0000820DFF82C160870A2E000206949096D78
:1025E000884700206749C96C884700206549896D84
:1025F000884700206349496D8847FFF761FDDFF890
:102600000406007810F00300012818D1494800782A
:10261000C0F3C000C0B2002808D0DFF87C04007806
:1026200050F00800DFF8701408703FE0DFF868042D
:10263000007850F00100DFF86014087036E0DFF831
:10264000C405007810F0030003282FD13948007822
:10265000C0F3C000C0B2002808D0DFF83C04007806
:1026600050F00800DFF83014087007E0DFF82804A5
:10267000007850F00100DFF8201408702D48007831
:10268000C0F30010C0B2002808D0DFF80C040078B6
:1026900050F01000DFF80014087007E0DFF8F803CE
:1026A000007850F00200DFF8F01308700D20DFF81A
:1026B0005015087034E0DFF85005407801F00CFE4A
:1026C000DFF84405007901F01DFE4FF4FA60DFF8F1
:1026D000401508800B20DFF82815087020E0DFF88F
:1026E0003005008800281BD100202649096D884745
:1026F00000202449896D88470E48007850F0080072
:102700000C4908700C20DFF8F814087008E007E0A6
:102710000020DFF8E81408700020DFF8E4140870E7
:1027200001BD0120DFF8581B08700020DFF8281DCC
:1027300008707047301400200120DFF8581B087023
:102740000120DFF8AC1408700120DFF84C1B087082
:102750000020DFF82C1B08707047000004140020D4
:102760002C140020301200209812002004150020A4
:10277000161500201515002018150020171500202B
:10278000E51400207010002008140020AA14002076
:10279000F6140020FC140020F1140020F014002096
:1027A000F314002080B5DFF8EC0A0078002800F070
:1027B0006B81DFF8E40A007800281DD0022849D098
:1027C0001BD3042878D053D3062800F0BA80C0F079
:1027D0009F80082800F0FE80C0F0CF800A2800F01B
:1027E0002481C0F0E1800C2800F04581C0F02C81EC
:1027F0000D2800F0418147E146E1DFF80804007848
:10280000C0F38000C0B200280CD0DFF8E00A0078E6
:1028100010F0DF00DFF8D41A08700220DFF8781A11
:10282000087016E0DFF8DC030078C0F30010C0B2D7
:1028300000280ED0012005F05DFEDFF8B00A007818
:1028400050F02000DFF8A41A08700C20DFF8481AB6
:10285000087019E14FF4FA70DFF8941A0880032029
:10286000DFF8341A08700220DFF8881A08700BE1CC
:10287000DFF87C0A0088002840F006810020DFF89D
:10288000881B096E88470020DFF87C1BC96D8847CC
:102890000120DFF8741BC96E8847DFF8700B0078E1
:1028A00001F048FD40F6B830DFF8441A08800420F3
:1028B000DFF8E4190870E7E0DFF8340A0088002840
:1028C00040F0E2800120DFF8401B096E8847DFF806
:1028D0003C0BC1784FF47A704143DFF8140A018051
:1028E000DFF8440B4078C0F3C000C0B200280AD023
:1028F0006948407850F00100674948700D20DFF8C2
:102900009819087003E00520DFF88C190870BBE007
:10291000DFF8DC090088002840F0B6800120DFF8ED
:10292000E81AC96D8847DFF8E40A01794FF47A7034
:102930004143DFF8BC0901800620DFF85C1908700C
:10294000A2E0DFF8AC090088002811D0DFF8D80A2F
:102950004078C0F3C000C0B200280DD00720DFF8D7
:10296000381908704FF47A70DFF88419088003E092
:102970000920DFF82419087086E0DFF87409008860
:1029800000280CD0DFF8A00A4078C0F3C000C0B225
:10299000002808D10920DFF80019087003E00A2098
:1029A000DFF8F41808706FE0DFF8480900780028B5
:1029B0000BD0DFF840090078401EDFF838190870A6
:1029C0000320DFF8D418087003E00820DFF8C818E7
:1029D000087059E00020DFF8301A096E884700209F
:1029E000DFF8241AC96D8847DFF8940800780028BA
:1029F00001D1FFF796FEDFF8F4080078C0F340102D
:102A0000C0B2002806D02448007850F020002249A7
:102A1000087005E02048007850F004001E49087056
:102A20000D20DFF8741808702EE0DFF8E009407818
:102A300001F080FC4FF4FA60DFF8B41808800B2036
:102A4000DFF8541808701FE0DFF8A4080088002899
:102A50001AD10020DFF8B019096E8847DFF88C081A
:102A6000007850F02000DFF8841808700C20DFF8A0
:102A70002818087008E007E00020DFF81818087030
:102A80000020DFF81418087001BD00000E150020AA
:102A9000E4140020F21400202E1400202015002041
:102AA00080B5DFF8DC07007800285DD0DFF8A809E2
:102AB0000078002802D0012844D055E00020DFF83B
:102AC000D41708700020DFF8D0170870DFF81C0852
:102AD000007810F0DF00DFF814180870494800781B
:102AE000C0F38000C0B200281DD00020DFF8181904
:102AF000096E88470020DFF81019C96D884701204A
:102B0000DFF80419C96E8847DFF80009807801F002
:102B100011FCDFF8F80841794FF47A704143DFF88F
:102B20001C0B018009E037480078C0F30010C0B2E8
:102B3000002802D0002005F0DDFC0120DFF8181984
:102B4000087011E0DFF8F40A008800280CD100209A
:102B5000DFF8B418C96E88470020DFF8FC18087049
:102B60000020DFF81C17087001BD000021150020AF
:102B70000815002080B5DFF8C80A0078002835D095
:102B80002048007810F0140F30D019480078002841
:102B90002CD0DFF89408007810F00100002812D043
:102BA0000020DFF86418096988474FF4FA60DFF8FD
:102BB000941A08800120DFF83C1C08700120DFF81F
:102BC000881A087012E00120DFF83C18096988476C
:102BD000DFF8200C0078012808D1DFF8680A0088A7
:102BE000002803D10020DFF80C1C087001BD000094
:102BF0000C150020F9140020FA140020F514002010
:102C0000F71400206E140020B81300206214002076
:102C10005C14002010B5FDF7B8FAFEF745F8002463
:102C200006E00020DFF8E01751F824108847641C04
:102C3000DFF8400B00788442F3DB4FF40051DFF8FB
:102C4000480B05F03FFD4FF40041DFF83C0B05F069
:102C500036FD4FF48061DFF8300B05F033FD4FF4A3
:102C60008051DFF8240B05F02AFD8021DFF8180BD6
:102C700005F028FD4FF40071DFF80C0B05F01FFD87
:102C80001021DFF8040B05F01DFD4021DFF8F80AE4
:102C900005F015FD41F2883000F0FCFE0A2001F03D
:102CA0001BFB142001F02EFB1E2001F043FB012032
:102CB000DFF8F41A08700120DFF83C1B08700120CF
:102CC000DFF8381B08700120DFF8341B087064201F
:102CD000DFF8301B08706420DFF82C1B08706420BC
:102CE000DFF8281B08706420DFF8241B08701B2005
:102CF000DFF8201B08703420DFF8181B48703420E0
:102D0000DFF8101B88702620DFF8081BC8704A20E7
:102D1000DFF8001B08714A20DFF8F81A4871032019
:102D2000DFF8F01A88710320DFF8E81AC87105206F
:102D3000DFF8E01A08722720DFF8D0160870482064
:102D4000DFF8C81648704820DFF8C01688700320E6
:102D5000DFF8B816C8700320DFF8B0160871052038
:102D6000DFF8A81648710120DFF8AC1A08700120BE
:102D7000DFF8A81A08700120DFF8A41A08700120F3
:102D8000DFF8A01A08700120DFF89C1A08700120F3
:102D9000DFF8981A08700120DFF8941A08700120F3
:102DA000DFF8901A08700120DFF88C1A08700120F3
:102DB000DFF8881A08700120DFF8841A08700120F3
:102DC000DFF8901B08700120DFF88C1B08700020D2
:102DD000DFF8C814087010BDF814002080B505F0A5
:102DE00071FD5FF4803005F09DFD05F0C5FDDFF855
:102DF000981C0870DFF8900C0078012824D100207E
:102E000005F0F5FD002005F006FE4FF4806005F0AA
:102E1000F8FD102005F0EAFE022005F0DBFE5FF46D
:102E2000E0115FF4803005F0C3FD012005F0CCFD1A
:102E3000392005F091FE0028FAD0022005F0C8FDE7
:102E400005F0D0FD0828FBD10121042005F064FE27
:102E50000121082005F060FE0121102005F05CFE34
:102E60000121202005F058FE0121402005F054FEEC
:102E70000121802005F050FE01214FF4807005F003
:102E80004BFE01214FF4804005F046FE01215FF426
:102E9000003005F051FE01215FF4802005F04CFE6A
:102EA00001215FF4002005F047FE0121012005F01B
:102EB00023FE01214FF4005005F02EFE00F007F82C
:102EC00005F004FC00F04CF900F03CF901BD80B5C0
:102ED0004FF4E070ADF8000018208DF803000320D7
:102EE0008DF802006946DFF8A40B05F07BFB4BF27E
:102EF000D060ADF8000010208DF8030003208DF89D
:102F000002006946DFF8800805F06CFB44F62010EB
:102F1000ADF8000048208DF8030003208DF8020072
:102F20006946DFF8640805F05DFB4FF40070ADF80A
:102F3000000018208DF8030003208DF80200694678
:102F4000DFF84C0B05F04EFB4FF48060ADF800004D
:102F500004208DF803006946DFF8340B05F042FBCE
:102F60000420ADF8000018208DF8030003208DF830
:102F700002006946DFF8180B05F034FB0820ADF8B5
:102F8000000004208DF803006946DFF8040B05F00B
:102F900029FB4FF48060ADF8000018208DF8030085
:102FA00003208DF802006946DFF8B80B05F01AFB24
:102FB0004FF40060ADF8000004208DF8030069466E
:102FC000DFF8A00B05F00EFB4FF48060ADF80000B9
:102FD00018208DF8030003208DF802006946DFF801
:102FE000AC0A05F0FFFA4FF40060ADF800000420D1
:102FF0008DF803006946DFF8940A05F0F3FA4FF6FE
:10300000FF70ADF8000010208DF8030003208DF84C
:1030100002006946DFF8500B05F0E4FA4FF20C00AD
:10302000ADF8000010208DF8030003208DF8020099
:103030006946DFF8380B05F0D5FA4FF47F60ADF83C
:10304000000048208DF8030003208DF80200694637
:10305000DFF8180B05F0C6FA43F20300ADF80000E4
:1030600010208DF8030003208DF802006946DFF878
:10307000F40A05F0B7FA4FF44340ADF800004820D9
:103080008DF8030003208DF802006946DFF8D40AAA
:1030900005F0A8FA4FF44050ADF8000010208DF86C
:1030A000030003208DF802006946DFF8E00905F00F
:1030B00099FA4FF46040ADF8000010208DF803003D
:1030C00003208DF802006946DFF8A40A05F08AFAA9
:1030D0000320ADF8000048208DF8030003208DF890
:1030E00002006946DFF8A00605F07CFA1820ADF86A
:1030F000000010208DF8030003208DF802006946BF
:10310000DFF8880905F06EFA4FF4F050ADF80000D2
:1031100010208DF8030003208DF802006946DFF8C7
:10312000500A05F05FFA0420ADF8000010208DF879
:10313000030003208DF802006946DFF8280A05F035
:1031400051FA01BD80B548F6A040FDF704F800280B
:1031500000D0FEE700215FF0FF30FCF7E9FF01BD82
:1031600080B54FF4E06005F053FD0B208DF80000B2
:1031700000208DF8010000208DF8020001208DF85C
:103180000300684605F049FD25208DF80000002069
:103190008DF8010001208DF8020001208DF8030058
:1031A000684605F03AFD26208DF8000000208DF8D5
:1031B000010002208DF8020001208DF8030068460E
:1031C00005F02BFD27208DF8000000208DF8010070
:1031D00003208DF8020001208DF80300684605F0F9
:1031E0001CFD34208DF8000000208DF80100042023
:1031F0008DF8020001208DF80300684605F00DFDF2
:1032000001BDDFF87009008800281BD1DFF86809CC
:10321000006890F40040DFF860190860DFF8580992
:10322000006890F48040DFF850190860DFF8480922
:10323000006890F40050DFF8401908606420DFF85F
:1032400034190880704780B51F20DFF830190870E6
:103250004FF40041DFF8300505F034FA01BD80B5C8
:103260004FF40041DFF8200505F029FA01BD80B5D3
:103270004FF40051DFF8100505F024FA01BD0000FD
:10328000FF14002080B54FF40051DFF8FC0405F076
:1032900016FA01BDFB140020FD1400200C150020BF
:1032A00080B54FF48041DFF8E00405F0FDF9002817
:1032B0000DD0DFF8CC0801680122DFF8C00890F9D2
:1032C000000082401143DFF8B80801600CE0DFF82D
:1032D000B00801680122DFF8A40890F900008240DC
:1032E0009143DFF89C08016001BD0000301400200C
:1032F00064140020FE14002080B5DFF80805007873
:10330000002840F08080DFF87C080078002802D197
:10331000FFF799FF1CE0DFF86C080178032291FBAE
:10332000F2F002FB1010C0B2002808D0022803D02F
:103330000ED2FFF7A7FF0BE0FFF7B2FF08E0FFF7A1
:1033400096FFDFF838080078401EDFF83018087064
:10335000DFF8280890F9000000284DD5FFF77FFF1F
:103360000020DFF820180870DFF814080068DFF884
:1033700018180860DFF810080068800CDFF80C18D7
:103380000880DFF80808B0F90000042190FBF1F094
:10339000DFF8F8170880DFF8F4070088DFF8F01787
:1033A000DFF8F027127821F81200DFF8E80700783C
:1033B000401CDFF8E0170870DFF8D80700780A280B
:1033C00003DB0020DFF8CC1708700021002205E0A5
:1033D000DFF8BC0730F812004118521C0A2AF7DB4C
:1033E00089B20A2091FBF0F0DFF8AC170880642066
:1033F000DFF81014087006E0DFF888070078401C3A
:10340000DFF88017087001BD70100020CC13002079
:1034100080B51F20DFF8841708704FF48051DA4818
:1034200005F050F901BD00002C14002080B54FF4C8
:103430008051D54805F043F901BD80B54FF4806156
:10344000D14805F03FF901BD80B54FF48061CE4809
:1034500005F035F901BD00000015002080B54FF4DE
:103460000061C94805F020F900280DD0DFF83007C9
:1034700001680122DFF8240790F90000824011431F
:10348000DFF81C0701600CE0DFF814070168012277
:10349000DFF8080790F9000082409143DFF8000749
:1034A000016001BD80B5D8480078002840F07F80D9
:1034B000DFF8140D0078002802D1FFF7A9FF1CE007
:1034C000DFF8040D0178032291FBF2F002FB1010EB
:1034D000C0B2002808D0022803D00ED2FFF7B4FFF4
:1034E0000BE0FFF7BBFF08E0FFF7A7FFDFF8AC0634
:1034F0000078401EDFF8A4160870DFF8A00690F9E7
:10350000000000284CD5FFF791FF0020DFF8B81C21
:103510000870DFF88C060068DFF888160860DFF8AE
:1035200084060068800CDFF880160880DFF87806D3
:10353000B0F90000042190FBF1F0DFF86C16088070
:10354000DFF864060088DFF86416DFF86426127876
:1035500021F81200DFF858060078401CDFF85016FA
:103560000870DFF84C0600780A2803DB0020DFF83B
:10357000401608700021002205E0DFF8300630F820
:1035800012004118521C0A2AF7DB89B20A2091FB6B
:10359000F0F0DFF82016088064209B49087006E0F0
:1035A000DFF8240C0078401CDFF81C1C087001BDFB
:1035B00080B51F20DFF8001608704FF40071DFF8A7
:1035C0000C0C05F07FF801BD80B54FF40071DFF8F9
:1035D000FC0B05F074F801BD80B58021DFF8EC0B21
:1035E00005F070F801BD80B58021DFF8E00B05F033
:1035F00066F801BD80B54FF48071634805F054F85A
:1036000000280DD0DFF8C80B01680122DFF8A805FB
:1036100090F9000082401143DFF8B40B01600CE028
:10362000DFF8AC0B01680122DFF88C0590F900008F
:1036300082409143DFF8980B016001BD66140020C1
:1036400004150020761400200615002080B56F4870
:103650000078002840F08180DFF8040D0078002811
:1036600002D1FFF7A5FF1CE0DFF8F40C017803227C
:1036700091FBF2F002FB1010C0B2002808D0022823
:1036800003D00ED2FFF7AFFF0BE0FFF7B3FF08E068
:10369000FFF7A2FFDFF820050078401EDFF81815BD
:1036A0000870DFF8140590F9000000284ED5FFF7E8
:1036B0008BFF0020DFF8A81C0870DFF8140B0068EF
:1036C000DFF8101B0860DFF80C0B0068800CDFF8D7
:1036D000081B0880DFF8000BB0F90000042190FB04
:1036E000F1F0DFF8F41A0880DFF8EC0AB0F9000016
:1036F000401DDFF8E81ADFF8E82A127821F81200F6
:10370000DFF8DC0A0078401CDFF8D41A0870DFF814
:10371000D00A00780A2803DB0020DFF8C41A0870FA
:103720000021002205E0DFF8B40A30F81200411849
:10373000521C0A2AF7DB89B20A2091FBF0F0DFF86D
:10374000A41A088064203149087006E0DFF8100CE4
:103750000078401CDFF8081C087001BD80B51F20F0
:10376000DFF8841A08704021DFF8600A04F0AAFF2D
:1037700001BD0000AA14002080B54021DFF84C0AEA
:1037800004F09DFF01BD00000020014080B5102124
:10379000DFF8380A04F096FF01BD80B51021DFF88C
:1037A0002C0A04F08CFF01BD2515002080B52021D6
:1037B000DFF8180A04F078FF00280DD0DFF8A40B1A
:1037C00001680122DFF8200A90F9000082401143CD
:1037D000DFF8900B01600CE0DFF8880B0168012234
:1037E000DFF8040A90F9000082409143DFF8740B7F
:1037F000016001BD0D1500202C150020331500209F
:103800003A150020D5140020D9140020DD14002022
:10381000E1140020B8130020AD140020B0140020E3
:10382000B3140020B9140020B6140020BC140020EA
:10383000BF140020C2140020C5140020C8140020AA
:10384000CB14002080B5DFF8E80A0078002840F0AB
:103850008080DFF8500C0078002802D1FFF77EFF4F
:103860001CE0DFF8400C0178032291FBF2F002FB30
:103870001010C0B2002808D0022803D00ED2FFF7E3
:103880008CFF0BE0FFF792FF08E0FFF77FFFDFF808
:1038900058090078401EDFF850190870DFF8480911
:1038A00090F9000000284DD5FFF766FF0020DFF8F3
:1038B000F41B0870DFF8AC0A0068DFF8AC1A086087
:1038C000DFF8A40A0068800CDFF8A01A0880DFF88F
:1038D0009C0AB0F90000042190FBF1F0DFF88C1A8B
:1038E0000880DFF8880A0088DFF8841ADFF8842A65
:1038F000127821F81200DFF87C0A0078401CDFF80B
:10390000741A0870DFF86C0A00780A2803DB0020BC
:10391000DFF8601A08700021002205E0DFF8500A85
:1039200030F812004118521C0A2AF7DB89B20A202B
:1039300091FBF0F0DFF8741A08806420DFF8F019CA
:10394000087006E0DFF85C0B0078401CDFF8541BC1
:10395000087001BDCE140020D1140020704700B5BE
:1039600091B00720ADF8000003208DF80200002080
:103970008DF803006946454804F034FE012101201A
:1039800005F0BAF84FF4004005F04FF801214FF46C
:10399000007005F0C1F8DFF84C0A05F07BF9DFF89C
:1039A000480A0690DFF8440A079000200890032098
:1039B000099000200A9080200B904FF400700C902A
:1039C0004FF400600D9020200E904FF400500F90A7
:1039D0000020109006A9DFF80C0A05F0DFF901219C
:1039E000DFF8000A05F0F8F90020019001208DF8B9
:1039F000080001208DF809005FF46020039000208A
:103A0000049003208DF8140001A9DFF86C0B05F079
:103A10002BFA052301220A21DFF85C0B05F08EFA50
:103A2000052302220B21DFF8500B05F087FA05234E
:103A300003220C21DFF8400B05F080FA0121DFF8AA
:103A4000380B05F043FA0121DFF82C0B05F031FAB1
:103A5000DFF8240B05F047FADFF81C0B05F048FAF5
:103A60000028F9D1DFF8100B05F04CFADFF8080B4D
:103A700005F04DFA0028F9D10121DFF8FC0A05F024
:103A800050FA11B000BD00006A0000200010014093
:103A90000008014000B587B0DFF80C1AB1FBF0F068
:103AA000DFF8081A08600020ADF816000020ADF815
:103AB0001200DFF8F8090068401EADF8140000207D
:103AC000ADF8100000208DF8180004A9DFF8640B91
:103AD00005F09EFA6020ADF800000020ADF80C0063
:103AE0000020ADF808000020ADF80E000020ADF871
:103AF0000A000120ADF802000020ADF8040000200B
:103B0000ADF806006946DFF82C0B05F09CFA694613
:103B1000DFF8200B05F0D0FA6946DFF8180B05F046
:103B20000BFB0021DFF80C0B05F077FB0021DFF821
:103B3000040B05F07BFB0021DFF8F80A05F07FFBA2
:103B40000021DFF8F00A05F05AFB0121DFF8E40A52
:103B500005F036FB0121DFF8DC0A05F03FFB07B07A
:103B600000BD0000000C014000180140001401409D
:103B7000001C01402A1400200C1C0140D31400201A
:103B8000E8130020D4140020E41300203214002095
:103B90005C130020D614002034140020D714002019
:103BA000F0130020EC1300203614002070130020C6
:103BB000DA14002038140020DB14002080B5DFF870
:103BC000780A0078002840F0FE821021DFF86C0AA5
:103BD00004F06AFD002822D1DFF8A009007800284F
:103BE0002DD0DFF89C090078152810DB0120DFF8C4
:103BF00094190870DFF8480A007850F00100DFF8E7
:103C0000401A08700020DFF87419087017E0DFF818
:103C100070090078401CDFF8681908700FE0DFF8C1
:103C2000200A007810F0FE00DFF8141A0870002057
:103C3000DFF84C1908700120DFF8401908702021C6
:103C4000DFF8F80904F030FD002822D1DFF8380948
:103C5000007800282DD0DFF834090078152810DB13
:103C60000120DFF82C190870DFF8D409007850F033
:103C70000200DFF8CC1908700020DFF80C1908707A
:103C800017E0DFF808090078401CDFF80019087019
:103C90000FE0DFF8AC09007810F0FD00DFF8A019A4
:103CA00008700020DFF8E41808700120DFF8D81849
:103CB00008704021DFF8840904F0F6FC002822D1C6
:103CC000DFF88009007800282DD0DFF87C09007823
:103CD000152810DB0120DFF874190870DFF860097F
:103CE000007850F00400DFF8581908700020DFF861
:103CF0005419087017E0DFF850090078401CDFF80D
:103D0000481908700FE0DFF83809007810F0FB0060
:103D1000DFF82C1908700020DFF82C19087001203A
:103D2000DFF8201908708021DFF8100904F0BCFCCE
:103D3000002822D1DFF81809007800282DD0DFF8FC
:103D400014090078152810DB0120DFF80C19087021
:103D5000DFF8EC08007850F00800DFF8E41808708D
:103D60000020DFF8EC18087017E0DFF8E8080078AA
:103D7000401CDFF8E01808700FE0DFF8C408007896
:103D800010F0F700DFF8B81808700020DFF8C4184A
:103D900008700120DFF8B81808704FF48071DFF860
:103DA0009C0804F081FC002822D1DFF8B0080078DC
:103DB00000282DD0DFF8A8080078152810DB012096
:103DC000DFF8A0180870DFF87808007850F01000CD
:103DD000DFF86C1808700020DFF88018087017E012
:103DE000DFF87C080078401CDFF8741808700FE0DA
:103DF000DFF84C08007810F0EF00DFF84418087086
:103E00000020DFF85C1808700120DFF850180870F7
:103E10004FF40071DFF8240804F046FC002822D19A
:103E2000DFF84408007800282DD0DFF8400800783B
:103E3000152810DB0120DFF838180870DFF80008BB
:103E4000007850F02000DFF8F81708700020DFF845
:103E50001818087017E0DFF814080078401CDFF825
:103E60000C1808700FE0DFF8D807007810F0DF00BA
:103E7000DFF8CC1708700020DFF8F0170870012079
:103E8000DFF8E41708704FF48061DFF8B00704F042
:103E90000BFC002822D1DFF8DC07007800282DD0A9
:103EA000DFF8D4070078152810DB0120DFF8CC17E5
:103EB0000870DFF88C07007850F04000DFF88017BA
:103EC00008700020DFF8AC17087017E0DFF8A807CB
:103ED0000078401CDFF8A01708700FE0DFF86007DB
:103EE000007810F0BF00DFF8581708700020DFF8E6
:103EF000881708700120DFF87C1708704FF40071F4
:103F0000DFF87C0704F0D0FB002822D1DFF874072B
:103F1000007800282DD0DFF870070078152810DB16
:103F20000120DFF868170870DFF81407007850F0F8
:103F30008000DFF80C1708700020DFF848170870C1
:103F400017E0DFF844070078401CDFF83C170870E2
:103F50000FE0DFF8EC06007810F07F00DFF8E016E5
:103F600008700020DFF8201708700120DFF8141710
:103F700008704FF48071DFF8080704F095FB002803
:103F800022D1DFF80C07007800282DD0DFF80407D5
:103F90000078152810DB0120DFF8FC160870DFF828
:103FA000A006407850F00100DFF894164870002019
:103FB000DFF8DC16087017E0DFF8D8060078401C40
:103FC000DFF8D01608700FE0DFF87406407810F0C4
:103FD000FE00DFF86C1648700020DFF8B816087095
:103FE0000120DFF8AC1608700221DFF8500604F05B
:103FF0005BFB002822D1DFF8A406007800282DD032
:10400000DFF89C060078152810DB0120DFF89416F5
:104010000870DFF82C06407850F00200DFF8201618
:1040200048700020DFF87416087017E0DFF870069B
:104030000078401CDFF8681608700FE0DFF8000613
:10404000407810F0FD00DFF8F81548700020DFF828
:10405000501608700120DFF8441608704FF48041B4
:10406000DFF8440604F020FB002822D1DFF83C06EC
:10407000007800282DD0DFF838060078152810DBEE
:104080000120DFF830160870DFF8B405407850F0F2
:104090000400DFF8AC1548700020DFF81016087037
:1040A00017E0DFF80C060078401CDFF804160870F3
:1040B0000FE0DFF88C05407810F0FB00DFF880158A
:1040C00048700020DFF8E81508700120DFF8DC15E3
:1040D00008704FF48041DFF8A80504F0E5FA0028E5
:1040E00022D1DFF8D405007800282DD0DFF8CC05E8
:1040F0000078152810DB0120DFF8C4150870DFF800
:104100004005407850F00800DFF834154870002072
:10411000DFF8A415087017E0DFF8A0050078401C50
:10412000DFF8981508700FE0DFF81405407810F0FC
:10413000F700DFF80C1548700020DFF880150870D4
:104140000120DFF8741508704FF40061DFF8EC040B
:1041500004F0AAFA002822D1DFF8680500780028C8
:104160002DD0DFF864050078152810DB0120DFF87A
:104170005C150870DFF8C804407850F08000DFF864
:10418000C01448700020DFF83C15087017E0DFF815
:1041900038050078401CDFF8301508700FE0DFF8B4
:1041A000A004407810F07F00DFF8941448700020DD
:1041B000DFF8141508700120DFF8081508700120D9
:1041C000DFF87414087001BDD814002000200140ED
:1041D000F8130020F41300203A1400208413002068
:1041E000DE1400203C140020DF140020DFF89403CC
:1041F0000078002803D00020DFF888130870DFF86B
:1042000090030078002803D00020DFF884130870A2
:10421000DFF838040078002803D00020DFF82C14E1
:104220000870DFF834040078002803D00020DFF89D
:1042300028140870DFF82C040078002803D0002030
:10424000DFF820140870DFF828040078002803D075
:104250000020DFF81C140870DFF820040078002824
:1042600003D00020DFF814140870DFF82004007871
:10427000002803D00020DFF814140870DFF81804B9
:104280000078002803D00020DFF80C140870DFF855
:1042900014040078002803D00020DFF80814087008
:1042A000DFF810040078002803D00020DFF80414A1
:1042B0000870DFF80C040078002803D00020DFF835
:1042C00000140870DFF804040078002803D00020F0
:1042D000DFF8F8130870704780B5C0B2642800DBBF
:1042E0006420D0F1640071490968C0B200FB01F09C
:1042F0006421B0FBF1F0411E89B2DFF8380304F00D
:10430000A7FF01BD80B5C0B2642800DB6420D0F1F6
:10431000640066490968C0B200FB01F06421B0FB8B
:10432000F1F0411E89B2DFF80C0304F093FF01BDE8
:10433000E114002080B5C0B2642800DB6420D0F115
:1043400064005A490968C0B200FB01F06421B0FB67
:10435000F1F0411E89B2B74804F07EFF01BD0000B4
:10436000DC14002000140020FC1300203E14002068
:1043700098130020E214002080B5DFF85403007881
:10438000002812D0DFF848030178DFF8480304F072
:1043900039FA0020DFF8381308700020DFF83813EE
:1043A00008700120DFF83413087001BD40140020AC
:1043B00080B5DFF82C030078002812D0DFF8200346
:1043C0000178DFF8200304F01DFA0020DFF8101355
:1043D00008700020DFF8101308700120DFF80C13BC
:1043E000087001BD080002404C2401403413002035
:1043F00030B4FF24BE4D2C70BD4C6070C0B200289C
:1044000009D0022814D00CD3042820D019D30628B0
:1044100028D01DD32EE0B64841800020B4498880C2
:1044200028E00020B24948800020B149888021E07E
:104430000020AF4948800020AD490871AC48427166
:1044400018E00020AA494880A948828012E011E0C3
:104450000120A74988707820A549C8700020A44988
:10446000888007E00120A24988707820A049C870A0
:104470009F4882809E4801889D48408841189C48FA
:10448000808841184FF6FF7041439948C180002051
:1044900003E09749095C1954401C0828F9DB30BC3B
:1044A00070470000E014002000A24A04DC13002042
:1044B000F8B580B204F0D6FE00228E4B04F0E0FE88
:1044C00000228D4B04F0AEFF04000D008B48006805
:1044D00005F0CCF80022874B04F0D2FE22002B001E
:1044E00004F0A0FF04000D008448006805F0BEF849
:1044F00002000B002000290005F0DCF80022804BB0
:1045000004F090FF05F004FB04000D007D4AD2E9A1
:10451000000122002B0004F0B3FE7B4ED6E90023FD
:1045200005F0F8FA06000F0022002B0020002900F9
:1045300004F0A6FE22002B0004F0A2FE734CD4E986
:10454000002304F09DFE32003B0005F0E3FA020078
:104550000B0000206E4904F065FF02000B005FF0C5
:1045600066306C4905F0D6FA00226B4B05F0D2FAA2
:1045700005F08CFBF4BD000000240140AD140020C8
:10458000AC140020AE140020B0140020AF140020A2
:10459000B114002080B561480068614908605F4837
:1045A00040685F4948605D4880685D4988605C4854
:1045B000006880B2FFF77CFF05F094FB5949088042
:1045C0005748406880B2FFF773FF05F08BFB5649F0
:1045D00008805348806880B2FFF76AFF05F082FBCD
:1045E000524908804F48B0F900001E30B52803D268
:1045F00000204F49087002E001204D4908704A48E8
:10460000B0F900001E30B52803D2002049490870D7
:1046100002E00120474908704448B0F900001E300C
:10462000B52803D200204449087002E00120424925
:10463000087001BD00340140AB140020001401409B
:104640002C140020B3140020B2140020B414002055
:10465000B6140020B5140020B7140020B9140020AF
:10466000B8140020BA140020BC140020BB14002091
:10467000BD140020BF140020BE140020C014002070
:10468000000C0140C2140020C1140020C3140020FB
:10469000C5140020C4140020C6140020C814002033
:1046A000C7140020C914002000100140CB140020C2
:1046B000CA140020CC140020CE140020CD140020F9
:1046C000CF140020D1140020D0140020D2140020D8
:1046D0002D150020FC1100202A1500202C1500208B
:1046E00034150020641200203115002033150020FD
:1046F000C41300200000044000FEAF405000002022
:1047000000408F4050B0000858B0000848B0000882
:104710000000F03F661271C00000E03F341300203B
:10472000AC1300204E14002050140020521400201E
:10473000E6140020E7140020E814002030B585B00E
:10474000DFF8540D0078002800F09687DFF8480D58
:104750000078411EC9B2DFF8440D01F0F7FADFF826
:104760003C1DDFF8342D1278114411F8011CC0B241
:10477000814240F07587DFF8240D4178DFF81C0D89
:104780008078C9B2002927D0022900F0A781C0F0A3
:10479000A080042900F00684C0F06B82062900F096
:1047A000E085C0F05E85082900F04A86C0F02586C5
:1047B0000A2900F07986C0F058860C2900F002879B
:1047C000C0F076860E2900F02587C0F006870F29F5
:1047D00000F02C8700F044BFDFF8C01CC978DFF878
:1047E000C02C1170DFF8B41C0979DFF8B42C5170BB
:1047F000DFF8A81C4979DFF8A82C9170DFF89C1C21
:104800008979DFF89C2CD170DFF8901CC979DFF82A
:10481000942C1170C0B2002822D100241BE0DFF8D4
:10482000840C007821002039084110F00100DFF8E5
:10483000F01D51F8241088470CE0202CEFDADFF847
:10484000600C0068E04010F00100DFF8D41D51F862
:1048500024108847641CDFF8CC0D00788442ECDB20
:10486000DFF8380C0078DFF8C01D0870DFF82C0C7A
:104870004078DFF8B41D4870DFF8200C8078DFF84E
:10488000A81D8870DFF8140CC078DFF89C1DC87074
:10489000DFF8080C0079DFF8901D0871DFF8FC0BD9
:1048A0004079DFF8841D4871DFF8F00B8079DFF87C
:1048B000781D88710721DFF8700D01F047FADFF8E5
:1048C000681DC8710821DFF8600D03F09BFF00F040
:1048D000C7BEDFF8C81B0978DFF84C2D1170DFF870
:1048E000BC1B4978DFF8402D5170DFF8B01B897888
:1048F000DFF8342D9170C0B2002840F0ED80DFF871
:104900007C0D0068DFF8981B0860DFF8740D0088E4
:104910004FF4807190FBF1F201FB1200DFF8081DEB
:10492000C870DFF85C0D00884FF4807190FBF1F0E7
:10493000DFF8F41C0871DFF8680B0078DFF8E81C7A
:104940004871DFF85C0B4078DFF8DC1C8871DFF819
:10495000500B8078DFF8D01CC871DFF8440BC078AA
:10496000DFF8C41C0872DFF83C0B0078DFF8B81CD5
:104970004872DFF8100D00884FF4807190FBF1F25F
:1049800001FB1200DFF8A01C8872DFF8F80C008829
:104990004FF4807190FBF1F0DFF88C1CC872DFF8E7
:1049A000E80C00884FF4807190FBF1F201FB1200DB
:1049B000DFF8741C0873DFF8D00C00884FF48071A6
:1049C00090FBF1F0DFF8601C4873DFF8C00C008842
:1049D0004FF4807190FBF1F201FB1200DFF8481CEC
:1049E0008873DFF8A80C00884FF4807190FBF1F019
:1049F000DFF8341CC873DFF8980C00884FF480711E
:104A000090FBF1F201FB1200DFF81C1C0874DFF8C8
:104A1000800C00884FF4807190FBF1F0DFF8081CE7
:104A20004874DFF8700CB0F9000080B24FF4807168
:104A300090FBF1F201FB1200DFF8EC1B8874DFF849
:104A4000540CB0F9000080B24FF4807190FBF1F08B
:104A5000DFF8D41BC874DFF8400CB0F9000080B256
:104A60004FF4807190FBF1F201FB1200DFF8B81BEC
:104A70000875DFF8240CB0F9000080B24FF48071A3
:104A800090FBF1F0DFF8A01B4875DFF8100CB0F9CF
:104A9000000080B24FF4807190FBF1F201FB120034
:104AA000DFF8841B8875DFF8F40BB0F9000080B2E2
:104AB0004FF4807190FBF1F0DFF86C1BC875182182
:104AC000DFF8640B01F042F9DFF85C1B087619216E
:104AD000DFF8540B03F096FE00F0C2BDDFF8BC19FE
:104AE0000978DFF8442B1170DFF8B0194978DFF846
:104AF000382B5170DFF8A4198978DFF82C2B9170CE
:104B0000C0B2002840F0B380DFF8780B00884FF483
:104B1000807190FBF1F201FB1200DFF80C1BC870F2
:104B2000DFF8600B00884FF4807190FBF1F0DFF844
:104B3000F81A0871DFF8500B00884FF4807190FB71
:104B4000F1F201FB1200DFF8E01A4871DFF8380BD0
:104B500000884FF4807190FBF1F0DFF8CC1A887177
:104B6000DFF8280B00884FF4807190FBF1F201FB15
:104B70001200DFF8B41AC871DFF8100B00884FF488
:104B8000807190FBF1F0DFF8A01A0872DFF8000BDB
:104B900000884FF4807190FBF1F201FB1200DFF806
:104BA000881A4872DFF8E80A00884FF4807190FB99
:104BB000F1F0DFF8741A8872DFF8D80AB0F9000053
:104BC00080B24FF4807190FBF1F201FB1200DFF82C
:104BD000581AC872DFF8BC0AB0F9000080B24FF46E
:104BE000807190FBF1F0DFF8401A0873DFF8A80A33
:104BF000B0F9000080B24FF4807190FBF1F201FB3C
:104C00001200DFF8241A4873DFF88C0AB0F90000AC
:104C100080B24FF4807190FBF1F0DFF80C1A8873CA
:104C2000DFF8780AB0F9000080B24FF4807190FB91
:104C3000F1F201FB1200DFF8F019C873DFF85C0A2B
:104C4000B0F9000080B24FF4807190FBF1F0DFF812
:104C5000D81908741121DFF8D00901F077F8DFF8CE
:104C6000C81948741221DFF8C00903F0CBFD00F029
:104C7000F7BCDFF828180A79DFF820184C794FF4D0
:104C8000807101FB0424DFF814188A79DFF80C180E
:104C9000CD794FF4807101FB0525C0B200284CD1BD
:104CA000DFF8F807C07807280CD1DFF8F0070079A3
:104CB000DFF8001B0870DFF8E4070079DFF8F81A66
:104CC000087036E0DFF8D407C078032806D1DFF893
:104CD000EC0A0580DFF8E80A05800AE0DFF8BC0787
:104CE000C078062805D1DFF8DC0A0570DFF8D80A9D
:104CF0000570DFF8D83A2A0092B2210089B2DFF8B5
:104D00009C07C078FFF774FB0821DFF8C00A03F0A6
:104D100090FDDFF8BC3A2A0092B2210089B2DFF898
:104D20007C07C078FFF764FB0821DFF8A40A03F0D2
:104D300097FD062000F0D3FF33E1C0B201283DD13A
:104D4000DFF85807C078072806D1DFF85007007948
:104D5000DFF8601A08702DE0DFF8703A2A0092B28E
:104D6000210089B2DFF83407C078FFF741FB082142
:104D7000DFF8580A03F05DFDDFF82007C07803284C
:104D800003D1DFF8380A058014E0DFF81007C07897
:104D900006280FD1DFF82C0A0570DFF8180A017811
:104DA0004FF47A704143DFF87C0B01600020DFF89C
:104DB000781B0870062000F092FFF2E0C0B20228D3
:104DC0003DD1DFF8D806C078072806D1DFF8CC0639
:104DD0000079DFF8E41908702DE0DFF8F4392A00D3
:104DE00092B2210089B2DFF8B406C078FFF700FB69
:104DF0000821DFF8DC0903F033FDDFF8A006C078F6
:104E0000032803D1DFF8B809058014E0DFF88C0629
:104E1000C07806280FD1DFF8B0090570DFF89809CF
:104E200001784FF47A704143DFF8480B01600020AD
:104E3000DFF8441B0870062000F051FFB1E0C0B25B
:104E400003281ED1DFF85406C078DFF8981B0870DD
:104E5000DFF848060179DFF8440642794FF48070A4
:104E600000FB0211DFF8800B01800020DFF8CC1C72
:104E700008700120DFF8C81C0870062000F02FFF22
:104E80008FE0C0B2042807D10120DFF8601B087052
:104E9000062000F024FF84E0C0B2052810D1DFF81E
:104EA000FC05C178DFF8F40502794FF4807000FB4F
:104EB0000211DFF83C0B0180062000F010FF70E0CB
:104EC000C0B2062835D1DFF8D4050078DFF85817CE
:104ED0000870DFF8C8054078DFF84C174870DFF835
:104EE000BC058078DFF840178870DFF8080B008871
:104EF0004FF4807190FBF1F201FB1200DFF82817EC
:104F0000C870DFF8F00A00884FF4807190FBF1F070
:104F1000DFF8141708710521DFF80C0700F016FF01
:104F2000DFF8041748710621DFF8FC0603F06AFC7D
:104F300037E0C0B2072834D1DFF860050078DFF829
:104F4000E8160870DFF854054078DFF8DC16487082
:104F5000DFF848058078DFF8D0168870DFF8980A07
:104F600000884FF4807190FBF1F201FB1200DFF832
:104F7000B816C870DFF8800A00884FF4807190FB83
:104F8000F1F0DFF8A41608710521DFF89C0600F0A7
:104F9000DDFEDFF8941648710621DFF88C0603F079
:104FA00031FC5DE3C0B201283AD1DFF8F004C078EB
:104FB000FFF792F9DFF8E4040078DFF86C16087068
:104FC000DFF8D8044078DFF860164870DFF8CC04CA
:104FD0008078DFF854168870DFF8E80A00884FF40C
:104FE000807190FBF1F201FB1200DFF83C16C870F3
:104FF000DFF8D00A00884FF4807190FBF1F0DFF801
:10500000281608710521DFF8200600F09FFEDFF862
:10501000181648710621DFF8100603F0F3FB1FE1B4
:10502000C0B202283AD1DFF87404C078FFF76AF9F9
:10503000DFF868040078DFF8F0150870DFF85C042A
:105040004078DFF8E4154870DFF850048078DFF826
:10505000D8158870DFF8EC0A00884FF4807190FB57
:10506000F1F201FB1200DFF8C015C870DFF8D40AB6
:1050700000884FF4807190FBF1F0DFF8AC150871F7
:105080000521DFF8A40500F061FEDFF89C154871EA
:105090000621DFF8940503F0B5FBE1E0C0B2032878
:1050A0003AD1DFF8F803C078FFF744F9DFF8EC03F2
:1050B0000078DFF874150870DFF8E0034078DFF857
:1050C00068154870DFF8D4038078DFF85C158870C5
:1050D000DFF8740A00884FF4807190FBF1F201FB55
:1050E0001200DFF84415C870DFF85C0A00884FF43E
:1050F000807190FBF1F0DFF8301508710521DFF8C1
:10510000280500F023FEDFF8201548710621DFF89E
:10511000180503F077FBA3E0C0B2042835D1DFF80F
:105120007C030078DFF800150870DFF87003407822
:10513000DFF8F4144870DFF864038078DFF8E814CF
:105140008870DFF8800900884FF4807190FBF1F2DD
:1051500001FB1200DFF8D014C870DFF8680900887E
:105160004FF4807190FBF1F0DFF8BC140871052159
:10517000DFF8B40400F0EAFDDFF8AC144871062152
:10518000DFF8A40403F03EFB6AE0C0B2052832D188
:10519000C2480078DFF890140870C0484078DFF803
:1051A00088144870BD488078DFF87C148870DFF878
:1051B000940900884FF4807190FBF1F201FB12001A
:1051C000DFF86414C870DFF87C0900884FF4807140
:1051D00090FBF1F0DFF8501408710521DFF8480466
:1051E00000F0B4FDDFF8401448710621DFF8380400
:1051F00003F008FB34E0C0B2062831D1A74800789C
:10520000DFF824140870A5484078DFF81C144870B3
:10521000A2488078DFF810148870DFF82C09008825
:105220004FF4807190FBF1F201FB1200DFF8F813EC
:10523000C870DFF8140900884FF4807190FBF1F01A
:10524000DFF8E41308710521DFF8DC0300F07EFDD0
:10525000DFF8D41348710621DFF8CC0303F0D2FA4B
:10526000FEE1C0B2002812D18C48C078DFF8DC180B
:1052700008708A480079DFF8D41848708748407968
:10528000DFF8C8188870062000F029FD68E0C0B279
:10529000012812D18148C078DFF8B018C8707F4863
:1052A0000079DFF8A81808717C484079DFF89C186D
:1052B0004871062000F013FD52E0C0B2022812D15E
:1052C0007648C078DFF88418887174480079DFF870
:1052D0007C18C87171484079DFF870180872062090
:1052E00000F0FDFC3CE0C0B203280CD1DFF8300A2E
:1052F0000078002834D1FCF7D3FEFCF7EAFE062044
:1053000000F0EDFC2CE0C0B204280FD1FCF7D8FE71
:10531000FDF707FAFCF7C4FEFCF79DFE0020DFF85E
:10532000141C0880062000F0DAFC19E0C0B2052841
:105330000ED15A48C178594804794FF4807000FB67
:105340000414DFF8E0090480062000F0C8FC07E040
:10535000C0B2062804D1FCF7A3FE062000F0BFFC73
:105360007EE1C0B2002812D14C48C078DFF8B819ED
:1053700008704A480079DFF8B0194870474840790A
:10538000DFF8A4198870062000F0A9FC34E0C0B250
:10539000012812D14148C078DFF88C19C8703F4805
:1053A0000079DFF8841908713C484079DFF87819F2
:1053B0004871062000F093FC1EE0C0B202280CD118
:1053C000DFF868090078002816D1FDF7B5F9FCF779
:1053D00067FE062000F083FC0EE0C0B203280BD16C
:1053E000DFF84C090078002806D1FDF79AF9FCF7A0
:1053F00057FE062000F073FC32E1C0B2002803D152
:105400000520FCF734FE1AE0C0B2012803D10420C5
:10541000FCF72DFE13E0C0B2022803D10320FCF7F5
:1054200026FE0CE0C0B2032803D10220FCF71FFEC9
:1054300005E0C0B2042802D10120FCF718FE0FE1FC
:10544000C0B2002803D10020FCF7E4FD0CE0C0B29C
:10545000012803D10120FCF7DDFD05E0C0B20228E0
:1054600002D10120FCF703FEFAE00C48C1780B489A
:1054700002794FF4807000FB0211DFF8B808018058
:1054800006484179054882794FF4807000FB02118B
:10549000DFF8A4080180E3E0261500209411002025
:1054A000E0130020E4140020C0B200F0B1FED7E009
:1054B000C0B2002805D1DFF8800AC07800F004FBF4
:1054C0007FE0002002F0F8FF002003F013F8002036
:1054D0005349096D884700205149C96C884700200D
:1054E0004F49496E884700204D49896D8847002003
:1054F0004B49496D884700204949896E88470020FB
:105500004749096E884700204549C96D88470020F2
:105510004349C96E884701204149896C88474FF447
:10552000FA7004F0A1FF01203D49896A88474FF4D1
:10553000FA7004F099FFDFF8000A407ADFF8001BE8
:1055400008700020DFF8781C08700020DFF8EC19E4
:105550000860DFF8E409407B0390DFF8DC09007B9A
:105560000290DFF8D409C07A0190DFF8CC09807A84
:105570000090DFF8C409437ADFF8BC09C179DFF88D
:10558000B809027A4FF4807000FB02110A0092B24F
:10559000DFF8A4094179DFF8A00984794FF480701D
:1055A00000FB041189B2DFF89009C478DFF888099C
:1055B00005794FF4807000FB0544200080B200F0B4
:1055C000C7FA4DE0DFF870098078012802D100F0B9
:1055D000D5F901E000F012FA42E0DFF85C09417908
:1055E000DFF8540982794FF4807000FB02110A0041
:1055F00092B2DFF84409C178DFF83C0903794FF42F
:10560000807000FB031189B2DFF82C09807800F06C
:10561000E1F825E0DFF82009807800F041F81FE08C
:1056200070100020AA14002060110020DFF8080983
:105630008078012808D10120DFF8081A08700020BE
:10564000DFF8041A08700BE00020DFF8F41408708B
:105650000120DFF8981308700020DFF8E8190870BF
:105660000020DFF8E81908700020DFF8E41908705E
:105670000120DFF8501B087005B030BD0414002075
:105680002C14002034140020381400203C14002076
:10569000401400204E14002050140020521400200A
:1056A00080B5C0B2002826D10E20DFF8A8190870F6
:1056B0000020DFF8A419496A88470020DFF898190C
:1056C000C96888470020DFF8901989688847012059
:1056D000C64908700220DFF8841908700020DFF83E
:1056E000801908700020DFF87C1908700120DFF8AD
:1056F000781908705DE0C0B201281CD13220DFF8B3
:105700006C1908700420DFF8681908700120DFF8B0
:105710004C1908700120DFF8481908700020DFF8E4
:10572000541908700020DFF8401908700120DFF8D4
:10573000481908703DE0C0B202281CD16420DFF88F
:105740002C1908700620DFF8281908700120DFF8EE
:105750000C1908700120DFF8081908700020DFF824
:10576000141908700020DFF8001908700120DFF814
:10577000081908701DE0C0B203281AD0C0B204286E
:1057800017D0C0B2052814D10120DFF8D81808704E
:105790000020DFF8E01808700020DFF8CC1808704F
:1057A0000120DFF8B81808700120DFF81C1A087013
:1057B000FFE701BDE9140020EA1400205614002080
:1057C00058140020EB140020EC14002030120020AC
:1057D0009812002080B5C0B2002818D10E20DFF842
:1057E000741808700220DFF87418087001207F49CF
:1057F00008700020DFF86018896A88470120DFF808
:10580000401808700120DFF8B819087070E089B2FC
:10581000002917D1DFF80C0502800620DFF83418C4
:1058200008700120DFF8A41908700120DFF82C1897
:1058300008700420DFF8981908700020DFF880193C
:10584000087048E0DFF8DC04028089B2002906D045
:1058500089B2152903DA052000F04BF83BE089B244
:10586000B1F11500142803D2042000F042F832E010
:1058700089B2B1F12900142803D2032000F039F8CD
:1058800029E089B2B1F13D00142803D2022000F0D2
:1058900030F820E089B25139132903D2012000F0F9
:1058A00028F818E092B2B2F11E00292803D2002095
:1058B00000F03CF80FE092B2B2F14700222803D288
:1058C000012000F033F806E092B2693A1A2A02D2B7
:1058D000012000F00EF8B4204249087044480088C6
:1058E00041490880002095490870012094490870BA
:1058F00001BDDFF8E01808700A20DFF858170870BB
:105900000120DFF8C81808700120DFF85017087070
:105910000120DFF8601708700020DFF8A418087075
:10592000704700000C140020ED140020C0B20028C5
:1059300002D0012805D008E00720DFF8181708700A
:1059400003E00820DFF80C1708700120DFF87C184E
:1059500008700020DFF8DC1508800120DFF8FC1655
:1059600008700120DFF80C1708700020DFF85018CD
:105970000870704710140020EE1400200120DFF89A
:10598000581808700020DFF8541808800120DFF84C
:10599000501808700120DFF84C1808700020DFF85C
:1059A000481808700020DFF8441808804620DFF807
:1059B000401808700120DFF8081808700020DFF890
:1059C000341808700120DFF8AC16087000205B491D
:1059D00008700220DFF8201808700220DFF87C161B
:1059E00008707047EF1400205A140020F2140020B1
:1059F000680000204A1400204C14002080B50020CC
:105A0000DFF8D4170870FCF75BFBFCF78AFEFCF7A5
:105A100047FBFCF720FB0020DFF858160870072032
:105A2000DFF8C01708700020DFF894170870002016
:105A3000DFF8B41708700020DFF824160870002083
:105A4000DFF81416C96888470020DFF80C160969CA
:105A500088470020DFF80016496A88470020DFF8F1
:105A6000F815496988470020DFF8EC1589698847EF
:105A70000020DFF8E415496C88470020DFF8D815CE
:105A8000896C88470020DFF8D01589688847002096
:105A9000DFF8C415096888470020DFF8BC1549689D
:105AA00088470220DFF8541708700220DFF85017EB
:105AB00008700120DFF84C1708700020DFF8241B65
:105AC000087001BD4414002010B50400FCF7F8FA7A
:105AD000FCF727FEFCF7E4FAFCF7BDFA0020DFF83C
