:020000040800F2
:1000000000040020B98000087179000873790008A5
:1000100075790008777900087979000800000000F8
:100020000000000000000000000000007B790008D4
:100030007D790008000000007F79000881790008C0
:10004000C3580008C3580008C3580008897900083D
:10005000C3580008C35800088B790008C35800082B
:10006000C35800089F790008C3580008957E00080F
:10007000C3580008C3580008C3580008C3580008F4
:10008000C3580008C3580008C3580008A1790008E5
:10009000A3790008C3580008C3580008A5790008D0
:1000A000C3580008A7790008C3580008C3580008BF
:1000B000B5790008C3790008D1790008C358000851
:1000C000C3580008C3580008C3580008C3580008A4
:1000D000E1790008E37900083D7B00082D7C0008E9
:1000E000797E0008917E0008C3580008C3580008B4
:1000F000D3790008C3580008C3580008C358000843
:10010000C3580008937E0008C3580008C35800086D
:100110001B7D0008C3580008C3580008C3580008D6
:10012000C3580008C3580008C3580008C358000843
:1001300040B2002805D40901DFF8642A40B2115406
:1001400008E00901DFF8DC2C40B210F00F00104489
:1001500000F8041C704780B5411EB1F1807F01D3C7
:10016000012011E0401EDFF83C1A08600F215FF00B
:10017000FF30FFF7DDFF0020DFF82C1A08600720B2
:10018000DFF8A41C0860002002BD0020DFF89C1CE2
:100190000870DFF8180ADFF8E81BDFF8902C1278F7
:1001A00041F82200DFF8840C0078401CDFF87C1C4A
:1001B0000870DFF8FC09DFF8C81BDFF8702C127834
:1001C00041F82200DFF8640C0078401CDFF85C1C6A
:1001D0000870DFF8E009DFF8A81BDFF8502C127870
:1001E00041F82200DFF8440C0078401CDFF83C1C8A
:1001F0000870DFF8400BDFF8881BDFF8302C12782E
:1002000041F82200DFF8240C0078401CDFF81C1CA9
:100210000870DFF8240BDFF8681BDFF8102C127869
:1002200041F82200DFF8040C0078401CDFF8FC1BCA
:100230000870DFF8300BDFF8481BDFF8F02B12787E
:1002400041F82200DFF8E40B0078401CDFF8DC1BEB
:100250000870DFF8300BDFF8281BDFF8D02B12789E
:1002600041F82200DFF8C40B0078401CDFF8BC1B0B
:100270000870DFF8300BDFF8081BDFF8B02B1278BE
:1002800041F82200DFF8A40B0078401CDFF89C1B2B
:100290000870DFF8140BDFF8E81ADFF8902B1278FB
:1002A00041F82200DFF8840B0078401CDFF87C1B4B
:1002B0000870DFF8180BDFF8C81ADFF8702B127817
:1002C00041F82200DFF8640B0078401CDFF85C1B6B
:1002D0000870DFF8100BDFF8A81ADFF8502B12783F
:1002E00041F82200DFF8440B0078401CDFF83C1B8B
:1002F0000870DFF8180BDFF8881ADFF8302B127857
:1003000041F82200DFF8240B0078401CDFF81C1BAA
:100310000870DFF81C0BDFF8681ADFF8102B127872
:1003200041F82200DFF8040B0078401CDFF8FC1ACB
:100330000870DFF8000BDFF8481ADFF8F02A1278AF
:1003400041F82200DFF8E40A0078401CDFF8DC1AEC
:100350000870DFF8E40ADFF8281ADFF8D02A1278EC
:1003600041F82200DFF8C40A0078401CDFF8BC1A0C
:100370000870DFF8C80ADFF8081ADFF8B02A127828
:1003800041F82200DFF8A40A0078401CDFF89C1A2C
:100390000870DFF8AC0ADFF8E819DFF8902A127865
:1003A00041F82200DFF8840A0078401CDFF87C1A4C
:1003B0000870DFF8000BDFF8C819DFF8702A127830
:1003C00041F82200DFF8640A0078401CDFF85C1A6C
:1003D0000870DFF8E40ADFF8A819DFF8502A12786D
:1003E00041F82200DFF8440A0078401CDFF83C1A8C
:1003F0000870DFF8C80ADFF88819DFF8302A1278A9
:1004000041F82200DFF8240A0078401CDFF81C1AAB
:100410000870DFF8AC0ADFF86819DFF8102A1278E4
:1004200041F82200DFF8040A0078401CDFF8FC19CC
:100430000870DFF8900ADFF84819DFF8F029127821
:1004400041F82200DFF8E4090078401CDFF8DC19ED
:100450000870DFF8740ADFF82819DFF8D02912785D
:1004600041F82200DFF8C4090078401CDFF8BC190D
:100470000870DFF8580ADFF80819DFF8B029127899
:1004800041F82200DFF8A4090078401CDFF89C192D
:100490000870DFF83C0ADFF8E818DFF890291278D6
:1004A00041F82200DFF884090078401CDFF87C194D
:1004B0000870DFF8200ADFF8C818DFF87029127812
:1004C00041F82200DFF864090078401CDFF85C196D
:1004D0000870DFF8040ADFF8A818DFF8502912784E
:1004E00041F82200DFF844090078401CDFF83C198D
:1004F0000870DFF8E809DFF88818DFF8302912788B
:1005000041F82200DFF824090078401CDFF81C19AC
:100510000870DFF8CC09DFF86818DFF810291278C6
:1005200041F82200DFF804090078401CDFF8FC18CD
:1005300008707047704780B5DFF8D80A0078002847
:100540000FD1DFF8D40A007800280AD10121DFF8A2
:10055000CC0A05F0B0F90221DFF8C00A05F0ABF9CA
:100560003DE0DFF8B00A007801280FD1DFF8A80AD3
:10057000007800280AD10121DFF8A00A05F09EF9D1
:100580000221DFF8980A05F096F928E0DFF8840ADE
:10059000007800280FD1DFF8800A007801280AD1FE
:1005A0000121DFF8780A05F086F90221DFF86C0AEC
:1005B00005F084F913E0DFF85C0A007801280ED119
:1005C000DFF8540A0078012809D10121DFF84C0A2C
:1005D00005F071F90221DFF8440A05F06CF901BD5C
:1005E00080B5DFF8301A0870FFF7A5FF01BD80B5B0
:1005F000DFF8241A0870FFF79EFF01BD80B50028C0
:1006000005D10421DFF8140A05F055F904E00421AE
:10061000DFF8080A05F052F901BD80B5002805D1C0
:100620000821DFF8F80905F046F904E00821DFF8B1
:10063000EC0905F043F901BD80B5002805D1102172
:10064000DFF8D80905F037F904E01021DFF8CC090C
:1006500005F034F901BD80B5DFF8C4090078002841
:100660000FD1DFF8C009007800280AD12021DFF877
:10067000AC0905F020F94021DFF8A00905F01BF9CD
:100680003DE0DFF89C09007801280FD1DFF89409DC
:10069000007800280AD12021DFF8800905F00EF942
:1006A0004021DFF8780905F006F928E0DFF8700945
:1006B000007800280FD1DFF86C09007801280AD1F2
:1006C0002021DFF8580905F0F6F84021DFF84C0941
:1006D00005F0F4F813E0DFF84809007801280ED19E
:1006E000DFF840090078012809D12021DFF82C0922
:1006F00005F0E1F84021DFF8240905F0DCF801BD40
:1007000080B5DFF81C190870FFF7A5FF01BD80B5A3
:10071000DFF810190870FFF79EFF01BD80B5DFF804
:1007200008090078002810D1DFF8000900780028B7
:100730000BD14FF48071DFF8E40805F0BCF880219C
:10074000DFF8D80805F0B7F840E0DFF8DC080078FB
:10075000012810D1DFF8D408007800280BD14FF41D
:100760008071DFF8B80805F0A9F88021DFF8AC083F
:1007700005F0A1F82AE0DFF8B0080078002810D1D1
:10078000DFF8A808007801280BD14FF48071DFF85A
:100790008C0805F090F88021DFF8800805F08EF8CD
:1007A00014E0DFF88408007801280FD1DFF87C0816
:1007B000007801280AD14FF48071DFF8600805F055
:1007C0007AF88021DFF8540805F075F801BD80B58E
:1007D000DFF858180870FFF7A1FF01BD80B5DFF8FA
:1007E00048180870FFF79AFF01BD80B5002806D1B0
:1007F0004FF40071DFF8240805F05DF805E04FF4D0
:100800000071DFF8180805F059F801BD80B500281F
:1008100006D14FF48061DFF8040805F04CF805E0DC
:100820004FF48061DFF8F40705F048F801BD80B5AA
:10083000002806D14FF40061DFF8E00705F03BF82F
:1008400005E04FF40061DFF8D40705F037F801BD8B
:1008500080B5002806D14FF48051DFF8C00705F0BD
:100860002AF805E04FF48051DFF8B00705F026F8CC
:1008700001BD80B5002806D14FF40051DFF89C0778
:1008800005F019F805E04FF40051DFF8900705F086
:1008900015F801BD80B5002806D14FF48041DFF87E
:1008A0007C0705F008F805E04FF48041DFF86C079D
:1008B00005F004F801BD80B5002806D14FF40041D1
:1008C000DFF8580704F0F7FF05E04FF40041DFF8C8
:1008D0004C0704F0F3FF01BD80B5002806D14FF4AA
:1008E0000041DFF84C0704F0E6FF05E04FF400415B
:1008F000DFF83C0704F0E2FF01BD80B5002805D118
:100900000121DFF8300704F0D6FF04E00121DFF811
:10091000240704F0D3FF01BD80B5002805D10221D2
:10092000DFF8100704F0C7FF04E00221DFF8040736
:1009300004F0C4FF01BD80B500280DD10821DFF807
:10094000F00604F0B8FFDFF8540C007810F0FE0059
:10095000DFF8481C08700CE00821DFF8D40604F02A
:10096000ADFFDFF8380C007850F00100DFF82C1CE8
:10097000087001BD80B5002805D10421DFF8B0065C
:1009800004F099FF04E00421DFF8A40604F096FFC8
:1009900001BD80B500280ED14FF48051DFF89806D4
:1009A00004F089FFDFF8F40B007810F0FD00DFF8A9
:1009B000EC1B08700DE04FF48051DFF87C0604F06A
:1009C0007DFFDFF8D80B007850F00200DFF8CC1B79
:1009D000087001BD80B5002806D14FF40051DFF842
:1009E000580604F068FF05E04FF40051DFF84806B0
:1009F00004F064FF01BD80B500280ED14FF4805192
:100A0000DFF8300604F057FFDFF8900B007810F0A5
:100A1000FB00DFF8881B08700DE04FF48051DFF811
:100A2000140604F04BFFDFF8740B007850F004005C
:100A3000DFF8681B087001BD80B5002806D14FF4AF
:100A40000051DFF8F00504F036FF05E04FF40051E7
:100A5000DFF8E00504F032FF01BD80B5002806D1C3
:100A60004FF48041DFF8C80504F025FF05E04FF49E
:100A70008041DFF8BC0504F021FF01BD80B50028EE
:100A800006D14FF40051DFF8A80504F014FF05E08B
:100A90004FF40051DFF8980504F010FF01BD80B558
:100AA000002806D14FF48051DFF8840504F003FFDD
:100AB00005E04FF48051DFF8780504F0FFFE01BD3A
:100AC00080B501F091F801F026FE00F0A5FFDFF8F7
:100AD000D03A002247F60101062002F069FB082106
:100AE000DFF8BC0A04F0C6FFDFF8B83A002247F688
:100AF0000101062002F05CFB0821DFF8A80A04F0DF
:100B0000D0FF3021DFF8A00A04F078FF0A2005F0BA
:100B100091FA3021A2A004F071FF082003F04CFEEE
:100B200001F041FA01F026FF02F03CFA01F0F2FD7B
:100B300001F0B0FA01F090FB01F066FC01F054FD09
:100B400002F008FC02F0DEFC03F044FC03F046FC7B
:100B500003F056FC03F01CFD03F05CFD00F06EFAA0
:100B600000F0C0F900F06EF900F03AFD00F0CEFEA2
:100B700000F022F800F025FF03F098FD04F0A0F843
:100B800004F00AFB04F02CFB04F07CFB04F0C0FC36
:100B9000DFF8180A007804F00CFD04F0A2FDBFE7AE
:100BA00000E400E014E000E018E000E03505000893
:100BB000E1050008EF05000880B5DFF8F4090078CA
:100BC000002800F0B680DFF8EC090078002833D167
:100BD000DFF8E409008800282BD1DFF8E00900885D
:100BE000DFF8DC19098888420CD3DFF8D8090078CF
:100BF000012840F09E8000F0BEFC0020DFF8C41900
:100C0000087096E0DFF8B8090088801EDFF8AC199C
:100C100009888842C0F28D80DFF8A8090078002892
:100C200040F0878000F0B0FC0120DFF898190870D0
:100C30007FE000F0A0FC7CE0DFF878090078012874
:100C400077D1DFF87409008800286ED1DFF87809C1
:100C50000078002805D0022830D04FD303283FD099
:100C600067E0DFF868090068002813D1DFF84C0955
:100C70000088462804DA0320DFF84C1908701CE0CD
:100C8000DFF8740C0078002817D10220DFF838193B
:100C9000087012E0DFF824090088DFF824190988B9
:100CA00088420AD3DFF81C090078012805D100F03A
:100CB00062FC0020DFF80C1908703AE0DFF8100938
:100CC0000078002801D000F083F800F05DFC0120DE
:100CD000DFF8F01808700020DFF8EC18087028E042
:100CE000DFF8140C0078002801D000F044FC00F07C
:100CF0007BF80120DFF8D01808701AE0DFF8BC0894
:100D00000088462810DB00F063F800F03DFC01206D
:100D1000DFF8B0180870DFF8BC08DFF8B01808601A
:100D20000020DFF8A418087003E000F024FC00F0B5
:100D30004FF801BDFD0500081B060008DFF8741818
:100D400008700120DFF8681808700020DFF86818C4
:100D500008800020DFF8701808700020DFF86C1899
:100D6000086070473906000880B50020DFF8401899
:100D700008700020DFF87C1C4969884701BD00002D
:100D80002010002001070008DFF84C180870002030
:100D9000DFF8481808700120DFF8601B0870704702
:100DA000456E64000F070008CF07000880B50020DB
:100DB000DFF8241808700020DFF8401B08700020BE
:100DC000DFF8301C0969884701BD0000DD07000815
:100DD0000120DFF82C1B08700020DFF81C1C0870B5
:100DE00070470000EB07000880B50120DFF8E0172E
:100DF00008700020DFF80C1B0870DFF8FC0A007890
:100E0000002801D000F0B7FB01BD00000D0800086C
:100E10000120DFF8F41A08700020DFF8E01B0870EA
:100E20007047000018ED00E010E000E0AC13002077
:100E30002F080008510800087308000895080008EA
:100E4000B708000880B5DFF8C00A007800282FD066
:100E5000DFF864070088002828D1DFF860070088E1
:100E6000DFF85C17098888420BD3DFF8900B007815
:100E700001281DD1FFF7ACFF0020DFF8801B0870B0
:100E800016E0DFF83C070088801EDFF8301709887D
:100E900088420DDBDFF8640B0078002808D1FFF7EB
:100EA000A3FF0120DFF8541B087001E0FFF790FF5B
:100EB00001BD0000D9080008FB0800081909000856
:100EC000370900087509000893090008D5090008CA
:100ED000F7090008390A00085B0A00087D0A0008C3
:100EE0009F0A000880B5DFF8180A0078002800F093
:100EF0008F80DFF8040B0078002802D001286BD027
:100F000086E00020DFF8C8160870DFF8F40A0078E1
:100F1000C0F3C000C0B2002805D00020DFF8D41A0A
:100F2000096C884730E00020DFF8C81A496D88470F
:100F30000020DFF8C01A096D88470120DFF8B41AD5
:100F4000896E88470020DFF8AC1AC96D88470020F9
:100F5000DFF8A01A896D88470120DFF8981AC96E5A
:100F60008847DFF8A00A807802F095F8DFF8940A45
:100F7000407902F0A6F8DFF88C0A017A4FF47A7013
:100F80004143DFF8840A0180DFF84C06007800282E
:100F90001DD0DFF86809007800280AD000F0F4FAC4
:100FA0000020DFF8381608700020DFF850190870AC
:100FB0000DE0DFF828060078DFF81C160978884273
:100FC00005D300F0E1FA0020DFF8101608700120C8
:100FD000DFF8241A08701BE0DFF82C0A00880028CC
:100FE00016D10020DFF80C1A896E88470020DFF840
:100FF000041AC96E88473021DFF8100A04F0FEFC9D
:101000000020DFF8F41908700020DFF8F4180870E9
:1010100001BD0000A6130020A71300200018014006
:10102000A8130020A9130020AA130020AB1300204E
:1010300000140140000C01400010014080B5DFF8B1
:1010400090050078002800F09582DFF8B808007855
:1010500000281CD0022847D038D3042800F005818E
:10106000C0F07F80062800F05E81C0F02181082852
:1010700000F08A81C0F0D7810A2800F05382C0F0C6
:101080003D820C2800F07382C0F0708272E2DFF8BB
:1010900070090078C0F3C000C0B2002809D0012058
:1010A000DFF85019096C88470A20DFF858180870D3
:1010B0000BE0DFF8E804007810F0F700DFF8DC144C
:1010C00008700120DFF83C18087053E24FF4FA7002
:1010D000DFF83C1908800220DFF828180870022089
:1010E000DFF83019087045E2DFF82409008800288D
:1010F00040F040820020DFF8FC18496D884700204E
:10110000DFF8F018096D88470020DFF8E818C96D8E
:1011100088470020DFF8DC18896D88470120DFF858
:10112000D418896E88470120DFF8C818C96E88472F
:101130003021DFF8A40A04F061FCDFF8C808007869
:1011400001F0A9FFDFF8BC08C07801F0BAFF40F653
:10115000B830DFF8BC1808800320DFF8A817087043
:1011600008E2DFF8AC080088002840F00382302154
:10117000DFF8680A04F042FCDFF88408007810F019
:101180000300012827D1DFF8580A4078C0F3400057
:10119000C0B200280CD0DFF82004007850F04000E6
:1011A000DFF8141408700C20DFF8581708705BE0A3
:1011B0000120DFF84018496D8847DFF84808817939
:1011C0004FF47A704143DFF8480801800420DFF8CB
:1011D0003417087048E0DFF82808007810F00300A2
:1011E000032841D1DFF8F809407810F0060F24D029
:1011F000DFF8EC094078C0F34000C0B2002807D007
:10120000DFF8B403007850F04000DFF8AC1308704A
:10121000DFF8CC094078C0F38000C0B2002807D0C6
:10122000DFF89403007850F08000DFF88C1308702A
:101230000C20DFF8D016087016E00120DFF8B41794
:10124000496D88470120DFF8AC17C96D8847DFF882
:10125000B40781794FF47A704143DFF8B407018015
:101260000420DFF8A016087084E1DFF8A4070088E6
:10127000002840F07F810120DFF87817096D88474A
:101280000120DFF87017896D88473021DFF84C0A9C
:1012900004F0B4FBDFF86C07C1794FF47A70414376
:1012A000DFF86C0701800520DFF85816087061E14F
:1012B000DFF85C070088002830D0DFF844070078AA
:1012C00010F00300012811D1DFF814094078C0F3B1
:1012D0004000C0B2002825D00620DFF8281608708C
:1012E0004FF47A70DFF8281708801BE0DFF810074A
:1012F000007810F00300032814D1DFF8E4084078E8
:1013000010F0060006280DD10620DFF8F815087049
:101310004FF47A70DFF8F816088003E00820DFF851
:10132000E415087026E1DFF8E8060088002826D0DA
:10133000DFF8CC06007810F0030001280CD1DFF8AC
:10134000A0084078C0F34000C0B200281BD108209C
:10135000DFF8B015087016E0DFF8A406007810F08A
:10136000030003280FD1DFF87808407810F006005A
:10137000062808D00820DFF88C15087003E0092043
:10138000DFF880150870F5E0DFF88806007800289F
:101390000BD0DFF880060078401EDFF87816087062
:1013A0000220DFF8601508703CE0DFF85406007892
:1013B00010F0030001280ED1DFF824084078C0F3B4
:1013C0004000C0B2002829D17B48407850F002008C
:1013D0007949487022E0DFF82806007810F0030011
:1013E00003281BD1DFF8F8074078C0F34000C0B2F3
:1013F000002805D17048407850F002006E494870CE
:10140000DFF8DC074078C0F38000C0B2002805D1C7
:101410006948407850F00400674948700720DFF8B9
:10142000E4140870A6E00020DFF8C815496D88476D
:101430000020DFF8C015096D88470020DFF8B415DB
:10144000C96D88470020DFF8AC15896D88473021C9
:10145000DFF8900A04F0D2FAFFF7BAFCDFF8A00533
:10146000007810F00300012814D14C480078C0F334
:10147000C000C0B2002806D04F48007850F00800E5
:101480004D49087035E04C48007850F001004A4959
:1014900008702EE0DFF86805007810F003000328DC
:1014A00027D13E480078C0F3C000C0B2002806D063
:1014B0004148007850F008003F49087005E03E4878
:1014C000007850F001003C49087034480078C0F3BF
:1014D0000010C0B2002806D03748007850F0100045
:1014E0003549087005E03448007850F00200324970
:1014F00008700C20DFF80C1408703BE0DFF80405DE
:10150000407801F0C8FDDFF8FC04007901F0D9FD56
:101510004FF4FA60DFF8F81408800A20DFF8E413CB
:10152000087027E0DFF8E8040088002822D10020B6
:10153000DFF8C014496D88470020DFF8B814C96D82
:1015400088473021DFF8F00A04F058FA1348007891
:1015500050F00800114908700B20DFF8A81308703C
:101560001E480078401C1D49087003E002E000207E
:101570001749087001BD0120DFF80C1B087000201E
:10158000DFF8C41C087070470120DFF86C13087086
:101590000020DFF8F81A087070470000561300208A
:1015A00068110020D0110020C48000081114002010
:1015B0000A1400200B140020541300206213002092
:1015C0007E1300200C1400200D1400204413002072
:1015D000F5130020E09304000814002009140020F3
:1015E00080B5DFF8AC0A0078002800F08481DFF8CD
:1015F0009C0A007800281BD002284ED03FD3042834
:1016000000F0A3806FD3062800F0D880C0F0BA8025
:10161000082800F0EA80C0F0FE800A2800F03C8133
:10162000C0F02B810C2800F06281C0F0538162E190
:10163000DFF8CC030078C0F38000C0B200280CD0E3
:10164000DFF8A005007810F0DF00DFF898150870CB
:101650000120DFF8381A087010E0DFF8A4030078E2
:10166000C0F30010C0B2002808D00120DFF88413B6
:10167000496C88470B20DFF8141A08703BE14FF4DF
:10168000FA70DFF8201B08800220DFF8001A0870CB
:101690000220DFF8141B08702DE1DFF8080B00882A
:1016A000002840F028810020D249496E8847002058
:1016B000D049096E88470120CE49096F88473021FB
:1016C000DFF8100B04F09AF9DFF82C0B007801F02A
:1016D00011FD40F6B830DFF8CC1A08800320DFF89F
:1016E000AC19087007E1DFF8BC0A0088002840F058
:1016F00002810120BF49496E88473021DFF8FC0A8A
:1017000004F07CF9DFF8F00AC1784FF47A704143B5
:10171000DFF8900A0180DFF8C8044078C0F3C00009
:10172000C0B200280CD0DFF8240B407850F0010044
:10173000DFF8181B48700C20DFF85019087003E020
:101740000420DFF848190870D5E0DFF8580A00884F
:10175000002840F0D0800120A649096E884730213A
:10176000DFF8EC0A04F04AF9DFF88C0A01794FF44B
:101770007A704143DFF82C0A01800520DFF80C194C
:101780000870B8E0DFF81C0A0088002811D0DFF8E4
:1017900050044078C0F3C000C0B200280DD006202D
:1017A000DFF8E81808704FF47A70DFF8F81908804D
:1017B00003E00820DFF8D41808709CE0DFF8E409A3
:1017C000008800280CD0DFF818044078C0F3C0006F
:1017D000C0B2002808D10820DFF8B018087003E074
:1017E0000920DFF8A818087085E0DFF8BC09007848
:1017F00000280BD0DFF8B0090078401EDFF8A819E8
:1018000008700220DFF88418087003E00720DFF872
:101810007C1808706FE000207649496E88470020E8
:101820007449096E88473021DFF8280A04F0E6F889
:10183000DFF854080078002801D1FFF79CFEDFF89C
:10184000A4030078C0F34010C0B2002808D0DFF82D
:10185000FC09007850F02000DFF8F019087007E06C
:10186000DFF8E809007850F00400DFF8E0190870AC
:101870000C20DFF8181808703DE0DFF87C0940788C
:1018800001F038FC4FF4FA60DFF8181908800A20DC
:10189000DFF8F81708702EE0DFF808090088002844
:1018A00029D100205349496E88473021DFF8F80AD2
:1018B00004F0A4F8CB48007850F02000C949087023
:1018C0000B20DFF8C81708704EF66020DFF8DC1A2E
:1018D000088010E0DFF8D80A0078002806D0DFF88A
:1018E000CC0A0088002801D1FFF745FE03E0002064
:1018F000DFF89C17087001BDFA1300200F140020B8
:10190000F8130020F6130020FF13002080B5DFF845
:1019100078070078002853D0DFF82C0900780028D9
:1019200002D0012836D04BE00020DFF864170870A1
:1019300033480078C0F38000C0B200281AD00020DD
:101940002C49496E884700202A49096E88470120A2
:101950002849096F8847DFF8A008807801F0CAFBA2
:10196000DFF8940841794FF47A704143DFF88C0A2C
:1019700001800AE022480078C0F30010C0B20028BD
:1019800003D000201B49496C88470120DFF8B818B4
:10199000087015E0DFF8640A0088002810D10020E4
:1019A0001449096F88473021DFF8540A04F026F8FB
:1019B0000020DFF8941808700020DFF8CC160870BB
:1019C00001BD80B5DFF83C0A0078002810D08448BB
:1019D000007810F00100002805D10120DFF8781B05
:1019E0004969884704E00020DFF86C1B4969884793
:1019F00001BD000020100020F91300200014002079
:101A00008E130020F0120020801300208880000830
:101A10007C130020F713002010B5FEF7B6FB00245E
:101A200006E00020DFF8301B51F824108847641CC2
:101A3000DFF8280B00788442F3DB4FF40051DFF825
:101A4000200B03F03BFF4FF40041DFF8140B03F0D1
:101A500032FF4FF48061DFF8080B03F02FFF4FF4E3
:101A60008051DFF8FC0A03F026FF8021DFF8F00A3E
:101A700003F024FF4FF40071DFF8E40A03F01BFFCA
:101A80001021DFF8DC0A03F019FF4021DFF8D00A4B
:101A900003F011FF41F2883000F0D8FE0A2001F077
:101AA000FAFA142001F00DFB1E2001F023FB0120A7
:101AB000DFF8F81A08700120DFF8F41A0870012026
:101AC000DFF8F01A08700120DFF8EC1A08706420C3
:101AD000DFF8E81A08706420DFF8E41A0870642060
:101AE000DFF8E01A08706420DFF8DC1A08701B20A9
:101AF000DFF8D81A08703420DFF8D01A4870342084
:101B0000DFF8C81A88702620DFF8C01AC8704A208B
:101B1000DFF8B81A08714A20DFF8B01A48710320BC
:101B2000DFF8A81A88710320DFF8A01AC871052011
:101B3000DFF8981A08722720DFF8BC1608704820D2
:101B4000DFF8B41648704820DFF8AC168870032020
:101B5000DFF8A416C8700320DFF89C160871052072
:101B6000DFF8941648710120DFF8641A087001202C
:101B7000DFF8601A08700120DFF85C1A0870012095
:101B8000DFF8581A08700120DFF8541A0870012095
:101B9000DFF8501A08700120DFF85C1B0870012084
:101BA000DFF8581B08700120DFF8541B0870012073
:101BB000DFF8501B08700120DFF84C1B0870012073
:101BC000DFF8481B08700120DFF8441B0870012073
:101BD000DFF83018087010BD9480000838800008C5
:101BE000521300205613002080B504F0ABFA5FF4C6
:101BF000803004F0D7FA04F0FFFADFF8441C0870D4
:101C0000DFF83C0C0078012824D1002004F02FFBE1
:101C1000002004F040FB4FF4806004F032FB102001
:101C200004F024FC022004F015FC5FF4E0115FF4E2
:101C3000803004F0FDFA012004F006FB392004F0A6
:101C4000CBFB0028FAD0022004F002FB04F00AFBD0
:101C50000828FBD10121042004F09EFB012108206B
:101C600004F09AFB0121102004F096FB01212020B2
:101C700004F092FB0121402004F08EFB0121802022
:101C800004F08AFB01214FF4807004F085FB0121F0
:101C90004FF4804004F080FB01215FF4003004F039
:101CA0008BFB01215FF4802004F086FB01215FF4AF
:101CB000002004F081FB0121012004F05DFB0121E3
:101CC0004FF4005004F068FB00F00AF803F0FAFD4E
:101CD00000F018F900F008F901BD0000FC7F0008D1
:101CE00080B54FF4E070ADF8000018208DF80300C7
:101CF00003208DF802006946DFF8480B03F06EFD03
:101D00004BF2D060ADF8000010208DF803000320E6
:101D10008DF802006946DFF8480803F05FFD44F6DD
:101D20002010ADF8000048208DF8030003208DF846
:101D300002006946DFF8280803F050FD4FF40070F8
:101D4000ADF8000018208DF8030003208DF8020084
:101D50006946DFF8F40A03F041FD4FF48060ADF806
:101D6000000004208DF803006946DFF8DC0A03F068
:101D700035FD0420ADF8000018208DF80300032085
:101D80008DF802006946DFF8C00A03F027FD08203D
:101D9000ADF8000004208DF803006946DFF8A80ABA
:101DA00003F01CFD4FF48060ADF8000018208DF8A2
:101DB000030003208DF802006946DFF8600B03F092
:101DC0000DFD4FF40060ADF8000004208DF8030015
:101DD0006946DFF8480B03F001FD4FF48060ADF871
:101DE000000018208DF8030003208DF802006946DA
:101DF000DFF8500A03F0F2FC4FF40060ADF8000089
:101E000004208DF803006946DFF8380A03F0E6FC89
:101E10004FF6FF70ADF8000010208DF8030003208E
:101E20008DF802006946DFF8F80A03F0D7FC4FF29C
:101E30000C00ADF8000010208DF8030003208DF891
:101E400002006946DFF8DC0A03F0C8FC4FF47F604B
:101E5000ADF8000048208DF8030003208DF8020043
:101E60006946DFF8C00A03F0B9FC43F20300ADF89D
:101E7000000010208DF8030003208DF80200694651
:101E8000DFF8980A03F0AAFC4FF44340ADF80000D5
:101E900048208DF8030003208DF802006946DFF822
:101EA0007C0A03F09BFC4FF44050ADF8000010207A
:101EB0008DF8030003208DF802006946DFF88409DD
:101EC00003F08CFC4FF46040ADF8000010208DF85A
:101ED000030003208DF802006946DFF84C0A03F086
:101EE0007DFC01BDA080000880B548F6A040FEF74B
:101EF00032F9002800D0FEE700215FF0FF30FEF746
:101F000017F901BD80B54FF4E06004F0C1FA0B2071
:101F10008DF8000000208DF8010000208DF80200EF
:101F200001208DF80300684604F0B7FA25208DF8EB
:101F3000000000208DF8010001208DF80200012032
:101F40008DF80300684604F0A8FA26208DF80000FA
:101F500000208DF8010002208DF8020001208DF88C
:101F60000300684604F099FA27208DF8000000204D
:101F70008DF8010003208DF8020001208DF8030088
:101F8000684604F08AFA34208DF8000000208DF8AD
:101F9000010004208DF8020001208DF8030068463E
:101FA00004F07BFA01BDDFF88409008800281CD109
:101FB000DFF87C09006890F40040DFF874190860CD
:101FC000DFF86C09006890F48040DFF8641908605D
:101FD000DFF85C09006890F40050DFF854190860DD
:101FE0004FF4FA70DFF844190880704780B51F205D
:101FF000DFF8401908704FF40041DFF8640503F082
:102000005DFC01BD80B54FF40041DFF8540503F0DD
:1020100052FC01BD80B54FF40051DFF8440503F0D8
:102020004DFC01BD80B54FF40051DFF8340503F0DD
:1020300042FC01BD00000000AC80000880B54FF4F8
:102040008041DFF81C0503F02BFC00280DD0DFF8E1
:10205000E80801680122DFF8DC0890F900008240FE
:102060001143DFF8D40801600CE0DFF8CC08016808
:102070000122DFF8C00890F9000082409143DFF8A8
:10208000B808016001BD0000FD130020FB13002013
:10209000FA13002080B5DFF824050078002840F00E
:1020A0008080DFF898080078002802D1FFF79EFFB3
:1020B0001CE0DFF888080178032291FBF2F002FBB4
:1020C0001010C0B2002808D0022803D00ED2FFF7AB
:1020D000A9FF0BE0FFF7B2FF08E0FFF79BFFDFF877
:1020E00054080078401EDFF84C180870DFF84408E8
:1020F00090F9000000284DD5FFF784FF0020DFF89D
:102100003C180870DFF830080068DFF83418086001
:10211000DFF82C080068800CDFF828180880DFF84A
:102120002408B0F90000042190FBF1F0DFF8141846
:102130000880DFF810080088DFF80C18DFF80C289A
:10214000127821F81200DFF804080078401CDFF84C
:10215000FC170870DFF8F40700780A2803DB00207A
:10216000DFF8E81708700021002205E0DFF8D80743
:1021700030F812004118521C0A2AF7DB89B20A20F3
:1021800091FBF0F0DFF8C81708806420DFF82C140A
:10219000087006E0DFF8A4070078401CDFF89C1701
:1021A000087001BD82130020FC13002080B51F20A1
:1021B000DFF8A01708704FF48051DFF8A40303F094
:1021C0007DFB01BD80B54FF48051DFF8940303F02F
:1021D00072FB01BD1080000880B54FF48061DFF80C
:1021E000800303F06BFB01BD80B54FF48061DC48D8
:1021F00003F061FB01BD00000413002048800008CB
:1022000080B54FF40061D64803F04AFB00280DD09A
:10221000DFF8440701680122DFF8380790F9000071
:1022200082401143DFF8300701600CE0DFF8280737
:1022300001680122DFF81C0790F9000082409143F9
:10224000DFF81407016001BDFE13002054130020C5
:10225000588000086880000880B5D94800780028B8
:1022600040F07F80DFF8180D0078002802D1FFF7DA
:102270009DFF1CE0DFF8080D0178032291FBF2F0CE
:1022800002FB1010C0B2002808D0022803D00ED2E2
:10229000FFF7AAFF0BE0FFF7B3FF08E0FFF79CFF93
:1022A000DFF8B0060078401EDFF8A8160870DFF8E7
:1022B000A40690F9000000284CD5FFF783FF00200A
:1022C000DFF8BC1C0870DFF890060068DFF88C1699
:1022D0000860DFF888060068800CDFF88416088044
:1022E000DFF87C06B0F90000042190FBF1F0DFF884
:1022F00070160880DFF868060088DFF86816DFF8D7
:102300006826127821F81200DFF85C060078401C7D
:10231000DFF854160870DFF8500600780A2803DB4F
:102320000020DFF8441608700021002205E0DFF8E5
:10233000340630F812004118521C0A2AF7DB89B221
:102340000A2091FBF0F0DFF82416088064209C49F5
:10235000087006E0DFF8280C0078401CDFF8201C2D
:10236000087001BD80B51F20DFF8041608704FF417
:102370000071DFF8100C03F0A1FA01BD80B54FF435
:102380000071DFF8000C03F096FA01BD80B58021E2
:10239000DFF8F00B03F092FA01BD80B58021DFF881
:1023A000E40B03F088FA01BD248000088C130020A0
:1023B0000814002080B54FF48071694803F070FA6A
:1023C00000280DD0DFF8C00B01680122DFF8A0055E
:1023D00090F9000082401143DFF8AC0B01600CE083
:1023E000DFF8A40B01680122DFF8840590F90000F2
:1023F00082409143DFF8900B016001BD84130020FF
:10240000788000081014002080B56E4800780028FD
:1024100040F08180DFF8100D0078002802D1FFF72E
:10242000A1FF1CE0DFF8000D0178032291FBF2F020
:1024300002FB1010C0B2002808D0022803D00ED230
:10244000FFF7ABFF0BE0FFF7B5FF08E0FFF79EFFDC
:10245000DFF81C050078401EDFF814150870DFF85F
:10246000100590F9000000284ED5FFF787FF0020E7
:10247000DFF8B41C0870DFF8100B0068DFF80C1BE5
:102480000860DFF8080B0068800CDFF8041B088088
:10249000DFF8FC0AB0F90000042190FBF1F0DFF84E
:1024A000F01A0880DFF8E80AB0F90000401DDFF8F4
:1024B000E41ADFF8E42A127821F81200DFF8D80ACB
:1024C0000078401CDFF8D01A0870DFF8CC0A0078DA
:1024D0000A2803DB0020DFF8C01A08700021002260
:1024E00005E0DFF8B00A30F812004118521C0A2A41
:1024F000F7DB89B20A2091FBF0F0DFF8A01A088020
:1025000064203049087006E0DFF81C0C0078401C9D
:10251000DFF8141C087001BD80B51F20DFF8801A99
:1025200008704021DFF85C0A03F0C8F901BD80B5EE
:102530004021DFF8500A03F0BEF901BD80B510213B
:10254000DFF8400A03F0BAF901BD80B51021DFF8C9
:10255000340A03F0B0F901BD20100020AC130020B4
:102560000020014080B52021DFF8180A03F098F917
:1025700000280DD0DFF8A80B01680122DFF8200A3F
:1025800090F9000082401143DFF8940B01600CE0E9
:10259000DFF88C0B01680122DFF8040A90F90000D3
:1025A00082409143DFF8780B016001BD18140020D0
:1025B0001F140020261400202D140020D913002001
:1025C000DD130020E1130020E5130020F0120020AD
:1025D000B1130020B4130020B7130020BD13002056
:1025E000BA130020C013002080B5DFF8040B007878
:1025F000002840F08080DFF86C0C0078002802D1C1
:10260000FFF78AFF1CE0DFF85C0C0178032291FBE6
:10261000F2F002FB1010C0B2002808D0022803D04C
:102620000ED2FFF792FF0BE0FFF79CFF08E0FFF7E9
:1026300085FFDFF86C090078401EDFF86419087028
:10264000DFF85C0990F9000000284DD5FFF76FFF17
:102650000020DFF8101C0870DFF8C40A0068DFF8FB
:10266000C41A0860DFF8BC0A0068800CDFF8BC1AE6
:102670000880DFF8B80AB0F90000042190FBF1F0FF
:10268000DFF8A81A0880DFF8A40A0088DFF8A01A8B
:10269000DFF8A02A127821F81200DFF8980A0078F3
:1026A000401CDFF8901A0870DFF8880A00780A28C2
:1026B00003DB0020DFF87C1A08700021002205E00F
:1026C000DFF86C0A30F812004118521C0A2AF7DBB6
:1026D00089B20A2091FBF0F0DFF8901A088064209C
:1026E000DFF80C1A087006E0DFF8780B0078401C61
:1026F000DFF8701B087001BDC3130020C613002053
:10270000C9130020CC130020CF130020D2130020C7
:10271000D5130020704700B591B00720ADF8000038
:1027200003208DF8020000208DF80300694645481B
:1027300003F054F80121012003F01EFE4FF4004085
:1027400003F0B3FD01214FF4007003F025FEDFF824
:10275000540A03F0DFFEDFF8500A0690DFF84C0A57
:102760000790002008900320099000200A90802004
:102770000B904FF400700C904FF400600D902020EF
:102780000E904FF400500F900020109006A9DFF833
:10279000140A03F043FF0121DFF8080A03F05CFF8D
:1027A0000020019001208DF8080001208DF809001B
:1027B0005FF4602003900020049003208DF8140043
:1027C00001A9DFF8740B03F08FFF052301220A2112
:1027D000DFF8640B03F0F2FF052302220B21DFF880
:1027E000580B03F0EBFF052303220C21DFF8480B05
:1027F00003F0E4FF0121DFF8400B03F0A7FF012104
:10280000DFF8340B03F095FFDFF82C0B03F0ABFF80
:10281000DFF8240B03F0ACFF0028F9D1DFF8180B28
:1028200003F0B0FFDFF8100B03F0B1FF0028F9D17F
:102830000121DFF8040B03F0B4FF11B000BD00006C
:102840001A000020001001400008014000B587B0C8
:10285000DFF8141AB1FBF0F0DFF8101A086000205E
:10286000ADF816000020ADF81200DFF8000A00688D
:10287000401EADF814000020ADF8100000208DF8C7
:10288000180004A9DFF8700B04F002F86020ADF81E
:1028900000000020ADF80C000020ADF8080000207A
:1028A000ADF80E000020ADF80A000120ADF80200DE
:1028B0000020ADF804000020ADF806006946DFF8FE
:1028C000380B04F000F86946DFF82C0B04F034F8FC
:1028D0006946DFF8240B04F06FF80021DFF8180BCD
:1028E00004F0DBF80021DFF8100B04F0DFF8002122
:1028F000DFF8040B04F0E3F80021DFF8FC0A04F031
:10290000BEF80121DFF8F00A04F09AF80121DFF89F
:10291000E80A04F0A3F807B000BD0000000C014075
:102920000018014000140140001C01405013002019
:102930000C1C0140D713002018130020D8130020CE
:10294000141300205813002094120020DA130020E2
:102950005A130020DB130020201300201C1300203A
:102960005C130020A8120020DE1300205E1300205C
:10297000DF13002080B5DFF8840A0078002840F0DB
:10298000FE821021DFF8780A02F08AFF002822D1A7
:10299000DFF8A809007800282DD0DFF8A409007816
:1029A000152810DB0120DFF89C190870DFF8540AA5
:1029B000007850F00100DFF84C1A08700020DFF8B2
:1029C0007C19087017E0DFF878090078401CDFF800
:1029D000701908700FE0DFF82C0A007810F0FE0084
:1029E000DFF8201A08700020DFF854190870012061
:1029F000DFF8481908702021DFF8040A02F050FFC0
:102A0000002822D1DFF84009007800282DD0DFF817
:102A10003C090078152810DB0120DFF83419087014
:102A2000DFF8E009007850F00200DFF8D8190870EC
:102A30000020DFF81419087017E0DFF8100900789B
:102A4000401CDFF8081908700FE0DFF8B8090078BB
:102A500010F0FD00DFF8AC1908700020DFF8EC186A
:102A600008700120DFF8E01808704021DFF89009B5
:102A700002F016FF002822D1DFF88C090078002828
:102A80002DD0DFF888090078152810DB0120DFF849
:102A900080190870DFF86C09007850F00400DFF846
:102AA000641908700020DFF86019087017E0DFF87B
:102AB0005C090078401CDFF8541908700FE0DFF85B
:102AC0004409007810F0FB00DFF838190870002086
:102AD000DFF8381908700120DFF82C190870802100
:102AE000DFF81C0902F0DCFE002822D1DFF82409FF
:102AF000007800282DD0DFF820090078152810DB99
:102B00000120DFF818190870DFF8F808007850F095
:102B10000800DFF8F01808700020DFF8F8180870D7
:102B200017E0DFF8F4080078401CDFF8EC180870B4
:102B30000FE0DFF8D008007810F0F700DFF8C418D5
:102B400008700020DFF8D01808700120DFF8C418E2
:102B500008704FF48071DFF8A80802F0A1FE002889
:102B600022D1DFF8BC08007800282DD0DFF8B408A7
:102B70000078152810DB0120DFF8AC180870DFF8AA
:102B80008408007850F01000DFF8781808700020F2
:102B9000DFF88C18087017E0DFF888080078401C10
:102BA000DFF8801808700FE0DFF85808007810F0A0
:102BB000EF00DFF8501808700020DFF86818087080
:102BC0000120DFF85C1808704FF40071DFF830085E
:102BD00002F066FE002822D1DFF8500800780028B5
:102BE0002DD0DFF84C080078152810DB0120DFF825
:102BF00044180870DFF80C08007850F02000DFF867
:102C0000041808700020DFF82418087017E0DFF8B7
:102C100020080078401CDFF8181808700FE0DFF873
:102C2000E407007810F0DF00DFF8D8170870002004
:102C3000DFF8FC1708700120DFF8F01708704FF478
:102C40008061DFF8BC0702F02BFE002822D1DFF8FC
:102C5000E807007800282DD0DFF8E0070078152875
:102C600010DB0120DFF8D8170870DFF8980700782C
:102C700050F04000DFF88C1708700020DFF8B8171C
:102C8000087017E0DFF8B4070078401CDFF8AC17D5
:102C900008700FE0DFF86C07007810F0BF00DFF875
:102CA000641708700020DFF8941708700120DFF81F
:102CB000881708704FF40071DFF8880702F0F0FD04
:102CC000002822D1DFF88007007800282DD0DFF817
:102CD0007C070078152810DB0120DFF874170870D6
:102CE000DFF82007007850F08000DFF81817087030
:102CF0000020DFF85417087017E0DFF8500700785D
:102D0000401CDFF8481708700FE0DFF8F80600787D
:102D100010F07F00DFF8EC1608700020DFF82C17A9
:102D200008700120DFF8201708704FF48071DFF879
:102D3000140702F0B5FD002822D1DFF8180700784B
:102D400000282DD0DFF810070078152810DB0120AF
:102D5000DFF808170870DFF8AC06407850F0010083
:102D6000DFF8A01648700020DFF8E816087017E0BA
:102D7000DFF8E4060078401CDFF8DC1608700FE08E
:102D8000DFF88006407810F0FE00DFF87816487013
:102D90000020DFF8C41608700120DFF8B8160870AC
:102DA0000221DFF85C0602F07BFD002822D1DFF86B
:102DB000B006007800282DD0DFF8A8060078152886
:102DC00010DB0120DFF8A0160870DFF83806407825
:102DD00050F00200DFF82C1648700020DFF8801653
:102DE000087017E0DFF87C060078401CDFF87416E6
:102DF00008700FE0DFF80C06407810F0FD00DFF8F7
:102E0000041648700020DFF85C1608700120DFF817
:102E1000501608704FF48041DFF8500602F040FD74
:102E2000002822D1DFF84806007800282DD0DFF8EE
:102E300044060078152810DB0120DFF83C160870E6
:102E4000DFF8C005407850F00400DFF8B81548708E
:102E50000020DFF81C16087017E0DFF8180600786D
:102E6000401CDFF8101608700FE0DFF89805407876
:102E700010F0FB00DFF88C1548700020DFF8F41527
:102E800008700120DFF8E81508704FF48041DFF882
:102E9000B40502F005FD002822D1DFF8E005007836
:102EA00000282DD0DFF8D8050078152810DB012088
:102EB000DFF8D0150870DFF84C05407850F00800B6
:102EC000DFF8401548700020DFF8B015087017E0F3
:102ED000DFF8AC050078401CDFF8A41508700FE09F
:102EE000DFF82005407810F0F700DFF8181548707B
:102EF0000020DFF88C1508700120DFF880150870BD
:102F00004FF40061DFF8F80402F0CAFC002822D177
:102F1000DFF87405007800282DD0DFF87005007800
:102F2000152810DB0120DFF868150870DFF8D404DD
:102F3000407850F08000DFF8CC1448700020DFF8B3
:102F40004815087017E0DFF844050078401CDFF8EA
:102F50003C1508700FE0DFF8AC04407810F07F00FB
:102F6000DFF8A01448700020DFF820150870012059
:102F7000DFF8141508700120DFF88014087001BD17
:102F8000DC1300200020014028130020241300201F
:102F900060130020BC120020E21300206213002006
:102FA000E313002080B5DFF89C030078002803D0ED
:102FB0000020DFF890130870DFF8940300780028F1
:102FC00003D00020DFF888130870DFF8440400788D
:102FD000002803D00020DFF838140870DFF83C0424
:102FE0000078002803D00020DFF830140870DFF8E4
:102FF00038040078002803D00020DFF82C14087073
:10300000DFF830040078002803D00020DFF8241413
:103010000870DFF82C040078002803D00020DFF8C7
:1030200020140870DFF828040078002803D000205E
:10303000DFF81C140870DFF824040078002803D09F
:103040000020DFF818140870DFF81C04007800284E
:1030500003D00020DFF810140870DFF81C0400789B
:10306000002803D00020DFF810140870DFF81404E3
:103070000078002803D00020DFF808140870DFF87B
:1030800010040078002805D002F062FB0020DFF871
:103090000014087001BD80B5C0B2642800DB642054
:1030A000D0F1640071490968C0B200FB01F06421ED
:1030B000B0FBF1F0411E89B2DFF83C0303F008FDDC
:1030C00001BD80B5C0B2642800DB6420D0F164008B
:1030D00066490968C0B200FB01F06421B0FBF1F061
:1030E000411E89B2DFF8100303F0F4FC01BD0000BB
:1030F000E513002080B5C0B2642800DB6420D0F165
:1031000064005A490968C0B200FB01F06421B0FBB9
:10311000F1F0411E89B2B84803F0DEFC01BD0000A9
:10312000301300202C130020E01300206413002033
:10313000D0120020E613002080B5DFF85803007895
:10314000002812D0DFF84C030178DFF84C0302F0BE
:103150007AFC0020DFF83C1308700020DFF83C13F5
:1031600008700120DFF83813087001BD66130020D5
:1031700080B5DFF830030078002812D0DFF8240390
:103180000178DFF8240302F05EFC0020DFF814135E
:1031900008700020DFF8141308700120DFF8101306
:1031A000087001BD080002404C2401406C12002050
:1031B00030B4FF24BF4D2C70BE4C6070C0B20028EC
:1031C00009D0022814D00CD3042820D019D3062803
:1031D00028D01DD32EE0B74841800020B549888013
:1031E00028E00020B34948800020B249888021E0CF
:1031F0000020B04948800020AE490871AD484271B6
:1032000018E00020AB494880AA48828012E011E013
:103210000120A84988707820A649C8700020A549D7
:10322000888007E00120A34988707820A149C870F0
:10323000A04882809F4801889E48408841189D4848
:10324000808841184FF6FF7041439A48C1800020A2
:1032500003E09849095C1954401C0828F9DB30BC8C
:1032600070470000E413002000A24A040C13002061
:10327000F8B580B203F036FC00228F4B03F040FC1F
:1032800000228E4B03F00EFD04000D008C480068F8
:1032900003F02CFE8B4A8C4B03F032FC22002B00F7
:1032A00003F000FD04000D008548006803F01EFED9
:1032B00002000B002000290003F03CFE0022834B9B
:1032C00003F0F0FC04F064F804000D00804AD2E939
:1032D000000122002B0003F013FC7E4ED6E90023F0
:1032E00004F058F806000F0022002B0020002900EF
:1032F00003F006FC22002B0003F002FC764CD4E91C
:10330000002303F0FDFB32003B0004F043F8020011
:103310000B000020714903F0C5FC02000B005FF0B8
:1033200066306F4904F036F800226E4B04F032F834
:1033300004F0ECF8F4BD000000240140B1130020BB
:10334000B0130020B2130020B4130020B3130020E8
:10335000B513002080B5644800686449086062487D
:1033600040686249486060488068604988605F489A
:10337000006880B2FFF77CFF04F0F4F85C49088035
:103380005A48406880B2FFF773FF04F0EBF85949E0
:1033900008805648806880B2FFF76AFF04F0E2F8C0
:1033A000554908805248B0F900001E30B52803D2B4
:1033B00000205249087002E00120504908704D4831
:1033C000B0F900001E30B52803D200204C49087027
:1033D00002E001204A4908704748B0F900001E3059
:1033E000B52804D20020DFF88C1D087003E001200E
:1033F000DFF8801D087001BD00340140AF130020CC
:103400000014014052130020B7130020B61300200F
:10341000B8130020BA130020B9130020BB130020FA
:10342000BD130020BC130020BE130020C0130020D9
:10343000BF130020C1130020C3130020C2130020BB
:10344000C4130020000C0140C6130020C513002047
:10345000C7130020C9130020C8130020CA1300207E
:10346000CC130020CB130020CD130020001001400E
:10347000CF130020CE130020D0130020D213002041
:10348000D1130020D3130020D5130020D413002023
:10349000D613002020140020341100201D14002019
:1034A0001F140020271400209C1100202414002049
:1034B00026140020FC1200200000044000FEAF4053
:1034C000000000207B14AE47E17A024000408F40AC
:1034D000D8800008E0800008D08000080000F03F9D
:1034E000661271C00000E03F6C120020E412002060
:1034F0006E1300207013002072130020E7130020C9
:10350000E813002038B5DFF8B80C0078002800F088
:103510003086DFF8AC0C0078411EC9B2DFF8A40C8D
:1035200000F060FFDFF89C1CDFF8942C1278114447
:1035300011F8011CC0B2814240F01086DFF8840C03
:103540004178DFF8800C8078C9B2002922D00229A6
:1035500000F0E180C0F08780042900F0BA82C0F05A
:103560009F81062900F0AB84C0F01884082900F080
:103570001F85C0F0F0840A2900F04885C0F02F852F
:103580000C2900F0D485C0F045850D2900F0D985BF
:1035900000F0E4BDDFF82C1CC978DFF8DC2B1170DB
:1035A000DFF8201C0979DFF8D02B5170DFF8141CEC
:1035B0004979DFF8C42B9170DFF8081C8979DFF8AE
:1035C000B82BD170C0B2002814D100240CE0DFF871
:1035D000A80B0068E04010F00100DFF8EC1B01EBE5
:1035E000840149688847641CDFF8E00B0078401EBE
:1035F0008442ECDBDFF8CC0B0078DFF8601C08704D
:10360000DFF8C00B4078DFF8541C4870DFF8B40BCB
:103610008078DFF8481C8870DFF8A80BC078DFF8E6
:103620003C1CC870DFF89C0B0079DFF8301C087177
:10363000DFF8900B4079DFF8241C4871DFF8840B29
:103640008079DFF8181C88710721DFF8100C00F072
:10365000C9FEDFF8081CC8710821DFF8000C02F071
:10366000F2F900F07BBDDFF85C1B0978DFF8EC2B8A
:103670001170DFF8501B4978DFF8E02B5170DFF84C
:10368000441B8978DFF8D42B9170C0B2002840D158
:10369000DFF8CC0B0068DFF8E01A0860DFF8C40B35
:1036A00000884FF4807190FBF1F201FB1200DFF80B
:1036B000AC1BC870DFF8AC0B00884FF4807190FB36
:1036C000F1F0DFF8981B0871DFF8AC0A0078DFF83A
:1036D0008C1B4871DFF8A00A4078DFF8801B8871E6
:1036E000DFF8940A8078DFF8741BC871DFF8880A65
:1036F000C078DFF8681B08720921DFF8600B00F062
:1037000071FEDFF8581B48720A21DFF8500B02F0F7
:103710009AF900F023BDDFF8AC1A0978DFF83C2BEA
:103720001170DFF8A01A4978DFF8302B5170DFF8FC
:10373000941A8978DFF8242B9170C0B2002840F0E9
:10374000AD80DFF8240B00884FF4807190FBF1F21C
:1037500001FB1200DFF8041BC870DFF80C0B0088B7
:103760004FF4807190FBF1F0DFF8F01A0871DFF888
:10377000FC0A00884FF4807190FBF1F201FB12000B
:10378000DFF8D81A4871DFF8E40A00884FF4807136
:1037900090FBF1F0DFF8C41A8871DFF8B40B0088F1
:1037A0004FF4807190FBF1F201FB1200DFF8AC1ACC
:1037B000C871DFF89C0B00884FF4807190FBF1F02A
:1037C000DFF8981A0872DFF88C0B00884FF48071CC
:1037D00090FBF1F201FB1200DFF8801A4872DFF86B
:1037E000740B00884FF4807190FBF1F0DFF86C1AD5
:1037F0008872DFF8AC0BB0F900004FF4807190FBD9
:10380000F1F201FB1200DFF8541AC872DFF8900BD6
:10381000B0F900004FF4807190FBF1F0DFF83C1A32
:103820000873DFF8800BB0F900004FF4807190FB53
:10383000F1F201FB1200DFF8241A4873DFF8640B81
:10384000B0F900004FF4807190FBF1F0DFF80C1A32
:103850008873DFF8540BB0F900004FF4807190FBCF
:10386000F1F201FB1200DFF8F419C873DFF8380B2E
:10387000B0F900004FF4807190FBF1F0DFF8DC1933
:1038800008741121DFF8D40900F0ACFDDFF8CC1981
:1038900048741221DFF8C40902F0D5F800F05EBCCC
:1038A000DFF820190A79DFF81C194C794FF4807180
:1038B00001FB0424DFF80C198A79DFF80819CD79A7
:1038C0004FF4807101FB0525C0B2002849D1DFF813
:1038D000F408C07807280CD1DFF8E8080079DFF891
:1038E000CC1A0870DFF8DC080079DFF8C41A087019
:1038F000EBE0DFF8D008C078032806D1DFF8B40A7F
:103900000580DFF8B40A05800AE0DFF8B808C0785F
:10391000062805D1DFF8A40A0570DFF8A40A0570AF
:10392000DFF8A03A2A0092B2210089B2DFF89408A9
:10393000C078FFF73DFC0821DFF8880A02F09AF80A
:10394000DFF8843A2A0092B2210089B2DFF87408C5
:10395000C078FFF72DFC0821DFF86C0A02F0A1F80F
:10396000B3E0C0B201283BD1DFF85808C07807287F
:1039700006D1DFF850080079DFF8301A0870A4E0AB
:10398000DFF8403A2A0092B2210089B2DFF8340809
:10399000C078FFF70DFC0821DFF8280A02F06AF86A
:1039A000DFF82008C078032803D1DFF8080A058073
:1039B0008BE0DFF81008C078062840F08680DFF83A
:1039C000FC090570DFF8E40901784FF47A7041438F
:1039D000DFF8F80901600020DFF8F419087074E0DE
:1039E000C0B202283AD1DFF8DC07C078072806D138
:1039F000DFF8D0070079DFF8B819087065E0DFF864
:103A0000C8392A0092B2210089B2DFF8B807C0781D
:103A1000FFF7CEFB0821DFF8B00902F042F8DFF82B
:103A2000A407C078032803D1DFF88C0905804CE097
:103A3000DFF89007C078062847D1DFF884090570C1
:103A4000DFF86C0901784FF47A704143DFF8380BE6
:103A500001600020DFF8341B087036E0C0B2032894
:103A60001BD1DFF86007C078DFF8281C0870DFF88A
:103A700054070179DFF84C0742794FF4807000FB5E
:103A80000211DFF8140C01800020DFF8101C087010
:103A90000120DFF8F01C087017E0C0B2042804D140
:103AA0000120DFF8E41C08700FE0C0B205280CD13B
:103AB000DFF81007C178DFF80C0702794FF4807047
:103AC00000FB0211DFF8480B0180062000F044FCE7
:103AD00044E3C0B201283AD1DFF8E806C078FFF726
:103AE000DAFADFF8E0060078DFF870170870DFF820
:103AF000D4064078DFF864174870DFF8C80680788D
:103B0000DFF858178870DFF8980B00884FF4807141
:103B100090FBF1F201FB1200DFF84017C870DFF8EC
:103B2000800B00884FF4807190FBF1F0DFF82C17C8
:103B300008710521DFF8240700F054FCDFF81C179A
:103B400048710621DFF8140701F07DFF25E1C0B2BE
:103B500002283AD1DFF86C06C078FFF7B2FADFF836
:103B600064060078DFF8F4160870DFF8580640782D
:103B7000DFF8E8164870DFF84C068078DFF8DC16CE
:103B80008870DFF8200B00884FF4807190FBF1F211
:103B900001FB1200DFF8C416C870DFF8080B0088BC
:103BA0004FF4807190FBF1F0DFF8B0160871052139
:103BB000DFF8A80600F016FCDFF8A0164871062111
:103BC000DFF8980601F03FFFE7E0C0B203283AD1E2
:103BD000DFF8F005C078FFF78DFADFF8E805007828
:103BE000DFF878160870DFF8DC054078DFF86C162F
:103BF0004870DFF8D0058078DFF860168870DFF84D
:103C0000A80A00884FF4807190FBF1F201FB1200CA
:103C1000DFF84816C870DFF8900A00884FF480710A
:103C200090FBF1F0DFF8341608710521DFF82C065F
:103C300000F0D8FBDFF8241648710621DFF81C06D7
:103C400001F001FFA9E0C0B2042835D1DFF8740506
:103C50000078DFF808160870DFF868054078DFF8AC
:103C6000FC154870DFF85C058078DFF8F015887087
:103C7000DFF82C0A00884FF4807190FBF1F201FB11
:103C80001200DFF8D815C870DFF8140A00884FF466
:103C9000807190FBF1F0DFF8C41508710521DFF8A1
:103CA000BC0500F09FFBDFF8B41548710621DFF872
:103CB000AC0501F0C8FE70E0C0B2052835D1DFF8D0
:103CC00004050078DFF894150870DFF8F8044078F0
:103CD000DFF888154870DFF8EC048078DFF87C1591
:103CE0008870DFF8C00900884FF4807190FBF1F212
:103CF00001FB1200DFF86415C870DFF8A80900881E
:103D00004FF4807190FBF1F0DFF850150871052138
:103D1000DFF8480500F066FBDFF840154871062122
:103D2000DFF8380501F08FFE37E0C0B2062834D145
:103D3000DFF890040078DFF824150870DFF88404B9
:103D40004078DFF818154870DFF878048078DFF8DD
:103D50000C158870DFF8500900884FF4807190FBD3
:103D6000F1F201FB1200DFF8F414C870DFF8380933
:103D700000884FF4807190FBF1F0DFF8E0140871D7
:103D80000521DFF8D80400F02DFBDFF8D0144871CE
:103D90000621DFF8C80401F056FEDFE1C0B20028BA
:103DA00015D1DFF82004C078DFF8E0190870DFF8DB
:103DB00014040079DFF8D4194870DFF8080440795A
:103DC000DFF8C8198870062000F0C6FA76E0C0B2A5
:103DD000012815D1DFF8EC03C078DFF8B019C870FE
:103DE000DFF8E0030079DFF8A4190871DFF8D403E5
:103DF0004079DFF898194871062000F0ADFA5DE0CF
:103E0000C0B2022815D1DFF8BC03C078DFF87C19F6
:103E10008871DFF8B0030079DFF87019C871DFF836
:103E2000A4034079DFF864190872062000F094FAC0
:103E300044E0C0B203280CD1DFF854090078002810
:103E40003CD1FCF7B3FFFCF7CFFF062000F084FA6B
:103E500034E0C0B2042813D1FCF7BAFFFDF78BFBA6
:103E6000FCF7A4FFFCF780FF0020DFF8281908808A
:103E70000020DFF824190870062000F06DFA1DE01C
:103E8000C0B2052810D1DFF83C03C178DFF8340355
:103E900004794FF4807000FB0414DFF800090480FB
:103EA000062000F059FA09E0C0B2062806D1FCF756
:103EB000AFFFFCF77BFF062000F04EFA4EE1C0B2E8
:103EC000002812D1BF48C078DFF8D4180870BD4868
:103ED0000079DFF8CC184870BA484079DFF8C0188C
:103EE0008870062000F038FA34E0C0B2012812D100
:103EF000B448C078DFF8A818C870B2480079DFF875
:103F0000A0180871AF484079DFF89418487106206E
:103F100000F022FA1EE0C0B202280CD1DFF88408BB
:103F20000078002816D1FDF72FFBFCF73FFF062095
:103F300000F012FA0EE0C0B203280BD1DFF86808D7
:103F40000078002806D1FDF716FBFCF72FFF0620AE
:103F500000F002FA02E1C0B2002805D10520FCF70A
:103F600013FFFCF755FF22E0C0B2012805D1042061
:103F7000FCF70AFFFCF74CFF19E0C0B2022805D19C
:103F80000320FCF701FFFCF743FF10E0C0B2032859
:103F900005D10220FCF7F8FEFCF73AFF07E0C0B2BB
:103FA000042804D10120FCF7EFFEFCF731FFD5E037
:103FB000C0B2002803D10020FCF7C0FE0EE0C0B262
:103FC000012803D10120FCF7B9FE07E0C0B20228A6
:103FD00004D10120FCF7D8FEFCF71AFFBEE07948B7
:103FE000C178784802794FF4807000FB0211DFF845
:103FF000BC07018073484179724882794FF4807020
:1040000000FB0211DFF8A8070180A7E0C0B200F0B2
:10401000D3FBA3E0C0B2002820D1FCF7D9FEFDF706
:10402000AAFAFCF7C3FEFCF79FFE0020DFF8641736
:1040300008800020DFF8601708700120DFF84817BB
:10404000087000206049C96C884700205E49096BF0
:1040500088470020DFF85C17087067E000205A49A5
:10406000096C884700205849496D88470020564907
:10407000096D884700205449896E884700205249BD
:10408000C96D884700205049896D884700204E49F6
:10409000C96E884700204C49496E884700204A492C
:1040A000096E884700204849096F88470020464923
:1040B000496C884701204449C96C88474FF4FA701D
:1040C00001F0B8FF01204049096B88474FF4FA70AE
:1040D00001F0B0FF3B48407ADFF8D81608700020A6
:1040E000DFF8941B08700020DFF8901B086035484B
:1040F000C1793448027A4FF4807000FB02110A0043
:1041000092B2304841792F4883794FF4807000FB98
:10411000031189B22B48C3782A4804794FF4807080
:1041200000FB0433180080B200F0A2F816E0254826
:104130008078012802D100F021F801E000F048F871
:104140000CE020488078012804D10120DFF8281BEA
:10415000087003E00020DFF8201B087000201849D9
:1041600008700020DFF8181B08700120DFF8141B0E
:10417000087031BDE9130020101300200120DFF882
:10418000081B08700020DFF8041B08800020DFF8FF
:10419000001B08700020DFF8FC1A08700020DFF810
:1041A000F81A08804620DFF8F41A08700120DFF8BA
:1041B000C81A08700020DFF8E81A0870704700007D
:1041C00019140020CC10002020100020AC13002077
:1041D00080B50020DFF8B01A0870FCF7F9FDFDF794
:1041E000CAF9FCF7E3FDFCF7BFFD0020DFF8B41AC5
:1041F00008706320DFF8B01A08700A20DFF8941AFC
:1042000008700020DFF8701A08700020DFF89C1A90
:10421000096988470020DFF8941A49698847002017
:10422000DFF8881A896A88470020DFF8801AC96A8F
:1042300088470020DFF8741A896C88470020DFF86F
:104240006C1AC96C88470020DFF8601AC968884773
:104250000120DFF83415087001BD0000981000201F
:1042600034130020521300205A1300205E13002044
:1042700080B580B2002807D1DFF820050180FCF767
:1042800095FDFCF7C5FD54E0DFF81025118080B2E4
:10429000002808D080B2152805DA0520FCF774FD47
:1042A000FCF7B6FD45E080B2B0F11502142A05D244
:1042B0000420FCF769FDFCF7ABFD3AE080B2B0F1F9
:1042C0002902142A05D20420FCF75EFDFCF7A0FDAC
:1042D0002FE080B2B0F13D02142A05D20420FCF791
:1042E00053FDFCF795FD24E080B25138132805D228
:1042F0000420FCF749FDFCF78BFD1AE089B2B1F10F
:104300001E00292803D20020FCF718FD11E089B215
:10431000B1F14700222803D20120FCF70FFD08E08D
:1043200089B269391A2904D20120FCF72DFDFCF766
:104330006FFDB420D7490870B5480088D649088079
:104340000020D64908700120DFF83814087001BD3C
:10435000621300206613002080B5DFF85419097835
:10436000DFF850291170DFF848194978DFF844293F
:104370005170DFF83C198978DFF838299170DFF83F
:104380003419C8700421DFF82C0900F02BF8DFF88D
:10439000241908710521DFF81C0901F054FB01BD47
:1043A0006E1300207013002072130020EA13002007
:1043B000EB1300207613002078130020EC1300206C
:1043C000ED13002068110020D011002038130020C8
:1043D000EE13002080B5FEF7AFFE01BD80B5FEF7FD
:1043E000C7FE01BD10B402000020002402E0135DEE
:1043F0001818641CC9B28C42F9DBC0B210BC7047FB
:1044000010B5DFF884030078012821D1DFF8A8383F
:10441000002247F601010620FEF7CAFE0821DFF858
:10442000980801F027FBDFF89438002247F60101D5
:104430000620FEF7BDFE0821DFF8800801F031FB01
:104440000020DFF8441308700020CE4908709AE07D
:10445000CC480078002800F096809048007800282A
:1044600002D0012826D08EE0DFF84C38012247F632
:1044700001010620FEF79CFE0821DFF83C0801F050
:10448000F9FADFF83838012247F601010620FEF775
:104490008FFE0821DFF8240801F003FB1420DFF869
:1044A0003C1D08600020DFF8EC1C087001207B49EF
:1044B000087068E0DFF8240D0068002863D1DFF899
:1044C000D40C0078002805D002281FD010D3032870
:1044D0002AD036E07048B0F900106F48B0F90040BB
:1044E0005FF0FF3044430120DFF8A82C107028E073
:1044F0006948B0F900105FF0FF3041436648B0F9F9
:1045000000400220DFF88C2C10701AE06248B0F9ED
:1045100000106148B0F900405FF0FF3044430320D1
:10452000DFF8702C10700CE05B48B0F900105FF001
:10453000FF3041435848B0F900400020DFF8542CC8
:104540001070DFF874370A0092B200210320FEF7E2
:104550002FFE0821DFF8600701F08CFADFF85C37E6
:10456000220092B200210320FEF722FE0821DFF88C
:104570004C0701F096FA474801784FF47A704143AE
:10458000DFF8580C016010BD3C130020EF13002031
:1045900080B5DFF8B00C0078002838D0DFF8A80C20
:1045A0000078002833D0DFF8A40C006800282ED152
:1045B000DFF89C0C007800280BD1DFF8980CB0F9DC
:1045C00000105FF0FF3041430120DFF8842C1070B1
:1045D00007E0DFF8800CB0F900100020DFF8702C45
:1045E0001070DFF8D4360A0092B200210320FEF7E3
:1045F000DFFD0821DFF8C00601F03CFADFF8480CC7
:1046000001784FF47A704143DFF8400C016001BD3E
:104610001800002080B5DFF8400C0078002838D062
:10462000DFF8380C0078002833D0DFF8340C00684D
:1046300000282ED1DFF82C0C007800280BD1DFF8F1
:10464000280CB0F900105FF0FF3041430120DFF883
:10465000142C107007E0DFF8100CB0F900100020E7
:10466000DFF8002C1070DFF854360A0092B20021F7
:104670000320FEF79DFD0821DFF8400601F011FA46
:10468000DFF8D80B01784FF47A704143DFF8D00B94
:10469000016001BDF01300207A130020F313002005
:1046A000681300206A1300206C13002080B5DFF827
:1046B000BC0B0078C0B2C009C0B2002860D0DFF8DF
:1046C000C805007800285BD0DFF8A40B007800282C
:1046D00005D002282CD021D3032848D050E03348FD
:1046E0000088DFF8901B0880DFF88C0B007800282A
:1046F00005D00120DFF8B4154969884709E0DFF8E3
:104700007C0B0078002804D00120DFF8A01509698F
:1047100088470120DFF8581B087031E0DFF8540BA0
:10472000008800282CD10220DFF8441B087027E005
:104730001F480088DFF8481B0880DFF83C0B007832
:10474000002805D00020DFF864154969884709E092
:10475000DFF8280B0078002804D00020DFF84C1583
:10476000096988470320DFF8081B087008E0DFF8B4
:10477000100B0088002803D10020DFF8F41A08701D
:1047800001BD0000F1130020F2130020F012002000
:10479000F513002054130020FF1300207E13002087
:1047A00004130020FA130020FD13002090130020B2
:1047B0009213002011140020C0B2002813D0022848
:1047C00000F0938050D3042800F01181C0F0CE8017
:1047D000062800F08E81C0F04B81082800F00B8283
:1047E000C0F0C88147E2DFF8840A007810F0FE00CC
:1047F000DFF8781A0870DFF8740A007810F0FD000E
:10480000DFF8681A0870DFF8640A007810F0FB001F
:10481000DFF8581A0870DFF8540A007850F00800E2
:10482000DFF8481A0870DFF8440A007810F0EF004B
:10483000DFF8381A0870DFF8340A007850F02000EA
:10484000DFF8281A0870DFF8240A007810F0BF009B
:10485000DFF8181A0870DFF8140A007850F08000AA
:10486000DFF8081A087006E2DFF8000A007850F056
:104870000100DFF8F8190870DFF8F009007810F08F
:10488000FD00DFF8E8190870DFF8E009007810F0A3
:10489000FB00DFF8D8190870DFF8D009007810F0B5
:1048A000F700DFF8C8190870DFF8C009007810F0C9
:1048B000EF00DFF8B8190870DFF8B009007850F0A1
:1048C0002000DFF8A8190870DFF8A009007810F0C0
:1048D000BF00DFF898190870DFF89009007850F0F1
:1048E0008000DFF888190870C5E1DFF880090078DA
:1048F00010F0FE00DFF874190870DFF87009007816
:1049000010F0FD00DFF864190870DFF86009007826
:1049100010F0FB00DFF854190870DFF85009007838
:1049200050F00800DFF844190870DFF840090078FB
:1049300010F0EF00DFF834190870DFF83009007864
:1049400050F02000DFF824190870DFF82009007803
:1049500010F0BF00DFF814190870DFF810090078B4
:1049600050F08000DFF80419087084E1DFF8FC08DB
:10497000007850F00100DFF8F4180870DFF8EC0858
:10498000007810F0FD00DFF8E4180870DFF8DC08AC
:10499000007810F0FB00DFF8D4180870DFF8CC08BE
:1049A000007810F0F700DFF8C4180870DFF8BC08D2
:1049B000007810F0EF00DFF8B4180870DFF8AC08EA
:1049C000007850F02000DFF8A4180870DFF89C0889
:1049D000007810F0BF00DFF894180870DFF88C083A
:1049E000007850F08000DFF88418087043E1DFF8A9
:1049F0007C08007810F0FE00DFF870180870DFF80F
:104A00006C08007810F0FD00DFF860180870DFF81F
:104A10005C08007810F0FB00DFF850180870DFF831
:104A20004C08007850F00800DFF840180870DFF8F4
:104A30003C08007850F01000DFF830180870DFF8FC
:104A40002C08007850F02000DFF820180870DFF8FC
:104A50001C08007850F04000DFF810180870DFF8EC
:104A60000C08007810F07F00DFF80018087002E1F1
:104A7000DFF8F807007810F0FE00DFF8F017087094
:104A8000DFF8E807007810F0FD00DFF8E0170870A5
:104A9000DFF8D807007810F0FB00DFF8D0170870B7
:104AA000DFF8C807007850F00800DFF8C01708707A
:104AB000DFF8B807007850F01000DFF8B017087082
:104AC000DFF8A807007850F02000DFF8A017087082
:104AD000DFF89807007850F04000DFF89017087072
:104AE000DFF88807007810F07F00DFF88017087083
:104AF000C1E0DFF87807007850F00100DFF86C17AC
:104B00000870DFF86807007810F0FD00DFF85C1728
:104B10000870DFF85807007850F00400DFF84C17F1
:104B20000870DFF84807007810F0F700DFF83C174E
:104B30000870DFF83807007810F0EF00DFF82C1766
:104B40000870DFF82807007850F02000DFF81C1705
:104B50000870DFF81807007810F0BF00DFF80C17B6
:104B60000870DFF80807007810F07F00DFF8FC1607
:104B7000087080E0DFF8F406007810F0FE00DFF83F
:104B8000EC160870DFF8E406007810F0FD00DFF89E
:104B9000DC160870DFF8D406007810F0FB00DFF8B0
:104BA000CC160870DFF8C406007850F00800DFF873
:104BB000BC160870DFF8B406007850F01000DFF87B
:104BC000AC160870DFF8A406007850F02000DFF87B
:104BD0009C160870DFF89406007850F04000DFF86B
:104BE0008C160870DFF88406007810F07F00DFF87C
:104BF0007C1608703FE0DFF87406007850F0010082
:104C0000DFF868160870DFF86406007850F00200DC
:104C1000DFF858160870DFF85406007850F00400EA
:104C2000DFF848160870DFF84406007810F0F70047
:104C3000DFF838160870DFF83406007810F0EF005F
:104C4000DFF828160870DFF82406007850F02000FE
:104C5000DFF818160870DFF81406007850F04000EE
:104C6000DFF808160870DFF80406007810F07F00FF
:104C7000DFF8F81508707047121400204813002060
:104C8000161400201814002003140020861300209E
:104C900001140020041400208813002013140020A5
:104CA00014140020101400200714002020100020ED
:104CB000CC1000209810002068110020D011002096
:104CC000DFF8A00A0068C00708D5DFF89C0A006872
:104CD00030F00200DFF8901A086007E0DFF8880A79
:104CE000006850F00200DFF8801A0860DFF8740AEC
:104CF0000068800708D5DFF8700A006830F004000B
:104D0000DFF8641A086007E0DFF85C0A006850F01A
:104D10000400DFF8541A0860DFF8480A006840070A
:104D200008D5DFF8440A006830F00800DFF8381AC8
:104D3000086007E0DFF8300A006850F00800DFF88C
:104D4000281A0860DFF81C0A0068000708D5DFF899
:104D5000180A006830F01000DFF80C1A086007E04D
:104D6000DFF8040A006850F01000DFF8FC19086052
:104D7000DFF8F0090068C00608D5DFF8EC09006824
:104D800030F02000DFF8E019086007E0DFF8D8090C
:104D9000006850F02000DFF8D0190860DFF8C4097F
:104DA0000068800608D5DFF8C009006830F04000D0
:104DB000DFF8B419086007E0DFF8AC09006850F0CC
:104DC0004000DFF8A4190860DFF898090068400681
:104DD00008D5DFF89409006830F08000DFF8881902
:104DE000086007E0DFF88009006850F08000DFF815
:104DF00078190860DFF86C090068000608D5DFF84C
:104E00006809006830F48070DFF85C19086007E01A
:104E1000DFF85409006850F48070DFF84C1908601E
:104E2000DFF840090068C00508D5DFF83C090068D4
:104E300030F40070DFF83019086007E0DFF8280967
:104E4000006850F40070DFF820190860DFF81409DA
:104E50000068800508D5DFF81009006830F480602C
:104E6000DFF80419086007E0DFF8FC08006850F478
:104E70008060DFF8F4180860DFF8E8080068400593
:104E800008D5DFF8E408006830F40060DFF8D818CF
:104E9000086007E0DFF8D008006850F40060DFF831
:104EA000C8180860DFF8BC080068000508D5DFF8FE
:104EB000B808006830F48050DFF8AC18086007E0EC
:104EC000DFF8A408006850F48050DFF89C180860F0
:104ED000DFF890080068C00408D5DFF88C08006887
:104EE00030F40050DFF88018086007E0DFF8780839
:104EF000006850F40050DFF870180860DFF86408AC
:104F00000068800408D5DFF86008006830F480404D
:104F1000DFF85418086007E0DFF84C08006850F428
:104F20008040DFF844180860DFF838080068400463
:104F300008D5DFF83408006830F40040DFF828189E
:104F4000086007E0DFF82008006850F40040DFF850
:104F500018180860DFF80C080068000408D5DFF8AE
:104F60000808006830F48030DFF8FC17086007E0BC
:104F7000DFF8F407006850F48030DFF8EC170860C1
:104F8000DFF8E8070068000408D5DFF8DC070068F0
:104F900030F40030DFF8D017086007E0DFF8C8070A
:104FA000006850F40030DFF8C0170860DFF8C00771
:104FB0000068C00708D5DFF8B007006830F480202B
:104FC000DFF8A417086007E0DFF89C07006850F4DA
:104FD0008020DFF894170860DFF8940700688007E6
:104FE00008D5DFF88407006830F40020DFF8781770
:104FF000086007E0DFF87007006850F40020DFF871
:1050000068170860DFF864070068000708D5DFF854
:105010005807006830F48010DFF84C17086007E08C
:10502000DFF84407006850F48010DFF83C17086090
:10503000DFF838070068400708D5DFF82C0700685C
:1050400030F40010DFF82017086007E0DFF81807D9
:10505000006850F40010DFF810170860DFF814073C
:105060000068C00408D5DFF80007006830F480004D
:10507000DFF8F416086007E0DFF8EC06006850F48B
:105080008000DFF8E4160860DFF8E80600688004B6
:1050900008D5DFF8D406006830F40000DFF8C81641
:1050A000086007E0DFF8C006006850F40000DFF891
:1050B000B8160860DFF8B8060068C00408D5DFF845
:1050C000A806006830F08070DFF89C16086007E0E2
:1050D000DFF89406006850F08070DFF88C160860E6
:1050E000DFF88C060068800408D5DFF87C060068CD
:1050F00030F00070DFF87016086007E0DFF868062F
:10510000006850F00070DFF860160860DFF85C0699
:105110000068400408D5DFF85006006830F0806071
:10512000DFF84416086007E0DFF83C06006850F03E
:105130008060DFF834160860DFF83006006880040D
:1051400008D5DFF82406006830F00060DFF8181694
:10515000086007E0DFF81006006850F00060DFF834
:1051600008160860DFF804060068C00408D5DFF8F8
:10517000F805006830F08050DFF8EC15086007E0B3
:10518000DFF8E405006850F08050DFF8DC150860B7
:1051900070470000F413002080B5DFF8DC050078CC
:1051A000002815D1DFF8D40500782D2805DA002075
:1051B000DFF8CC15096B88470FE0DFF8C0050078F1
:1051C00033280ADB0120DFF8B815096B884704E0B3
:1051D0000120DFF8AC15096B884701BD40130020A2
:1051E00080B5DFF89405007800282AD0DFF8940510
:1051F0000088002825D1DFF890050078002802D02B
:1052000001280FD01DE00120DFF874158969884757
:1052100043F69820DFF86C1508800120DFF8681548
:1052200008700EE00020DFF858158969884740F2C1
:10523000DC50DFF8501508800320DFF84C150870AB
:10524000FFE701BDEC130020EA1300203813002013
:10525000EE13002076130020ED130020EB13002046
:105260003C130020EF130020781300208E13002041
:105270000E140020941300200A14002008140020AB
:105280009613002080B5DFF8F0040078002800F0C5
:105290003E81DFF8F804007800281BD0012828D0D0
:1052A00002284FD0032862D0042800F089800A2801
:1052B00000F09A800B2800F0A6800C2800F0CC802B
:1052C0000D2800F0D8800E2800F0E9800F2800F0AB
:1052D0000F811CE10120DFF8A814496888474EF6C9
:1052E0006020DFF8AC1408800120DFF8A0140870FB
:1052F0000DE1DFF89C04008800281AD0DFF8940440
:105300000078C0F34010C0B200281AD00020DFF8A7
:105310007014496888470020DFF87C14087041F257
:105320008830DFF86C1408800220DFF86014087001
:1053300007E00120DFF8601408706320DFF84C14E8
:105340000870E4E0DFF848040088002840F0DF80BF
:105350000120DFF82C14896888474EF66020DFF8BA
:10536000301408800320DFF824140870CFE0DFF841
:105370002004008800281AD0DFF818040078C0F351
:105380008010C0B200281AD00020DFF8F41389681A
:1053900088470020DFF80414087041F28830DFF8F5
:1053A000F01308800420DFF8E413087007E0012000
:1053B000DFF8E81308706320DFF8D0130870A6E068
:1053C000DFF8CC030088002840F0A1800020DFF83F
:1053D000B013896888476320DFF8B0130870002095
:1053E000DFF8BC13087092E00120DFF894134968DD
:1053F00088474EF66020DFF8981308800B20DFF80E
:105400008C13087083E0DFF88803008800281AD026
:10541000DFF880030078C0F34010C0B200281AD033
:105420000020DFF85C13496888470020DFF8681324
:10543000087041F28830DFF8581308800C20DFF83C
:105440004C13087007E00120DFF84C13087063204C
:10545000DFF8381308705AE0DFF8340300880028BA
:1054600055D147F23050DFF8281308800D20DFF8BF
:105470001C1308704BE0DFF818030088002846D1A1
:105480000120DFF8FC12896888474EF66020DFF8BB
:10549000001308800E20DFF8F412087037E0DFF800
:1054A000F002008800281AD0DFF8E8020078C0F384
:1054B0008010C0B200281AD00020DFF8C41289681A
:1054C00088470020DFF8D412087041F28830DFF8F6
:1054D000C01208800F20DFF8B412087007E0012026
:1054E000DFF8B81208706320DFF8A01208700EE031
:1054F000DFF89C020088002809D10020DFF8801224
:10550000896888476320DFF884120870FFE701BDCF
:1055100080B5DFF864020078002849D0DFF8800207
:105520000078002806D0012813D00A2820D00B28A4
:105530002ED03DE00120DFF84812C96888474CF2C0
:105540005030DFF8601208800120DFF85412087034
:105550002EE0DFF850020088002829D10020DFF873
:105560002012C96888470A20DFF8341208701FE04B
:10557000DFF83402B0F90000332808DB0120DFF83F
:105580000012C96888470B20DFF8141208700FE07A
:10559000DFF81402B0F90000282808DA0020DFF84C
:1055A000E011C96888470A20DFF8F4110870FFE7A6
:1055B00001BD10B5DFF8C011097800294FD0C0B285
:1055C00000280AD10020DFF8B811896B8847002035
:1055D000DFF8AC11C96B884741E0C0B2012802D1A5
:1055E0004FF4967401E04FF4C874C0B2401E012815
:1055F00002D9801E2FD032E0DFF8B0010068DFF85A
:10560000B011884222D2200000B200F046F80028F3
:105610000AD00020DFF86811896B88470020DFF886
:105620006011C96B884715E0B4F11E0000B200F0AC
:1056300046F800280ED00120DFF84411896B884716
:105640000120DFF83C11C96B884703E0200000B25D
:1056500000F006F803E0200000B200F001F810BDF1
:1056600080B500B200F019F8002813D0DFF844012B
:10567000006800280ED10020DFF80411896B8847EC
:105680000020DFF8FC10C96B8847DFF82C01DFF839
:10569000241108603348006801BD00B2DFF81C1116
:1056A0000988884201DA012008E000B2DFF8101111
:1056B0000988884201DA012000E000207047DFF805
:1056C000FC10098800B2814201DA012008E0DFF80D
:1056D000F010098800B2814201DA012000E00020C8
:1056E000704780B5DFF89000007800282FD0DFF8F1
:1056F000D400007800282AD0DFF8CC000078DFF84A
:10570000CC10B1F9001000B288420BDADFF8C0000B
:10571000007801281BD0FBF72EFF0120DFF8B01026
:10572000087014E0DFF8A400B0F90000DFF898106A
:105730000978891E88420ADADFF894000078022886
:1057400005D0FBF721FF0220DFF88410087001BDAF
:105750000020DFF8801008700020DFF87C1008704F
:10576000704700000C180140341300200C14014055
:105770000C0C01400C100140031400200214002006
:1057800020100020861300200114002004140020A3
:105790008813002052130020051400200614002056
:1057A000071400208A1300207013002048130020E3
:1057B000804F12004C130020C02709005A1300200C
:1057C0005E13002012140020131400206E1300201A
:1057D00014140020AD130020AE13002070B4002379
:1057E00000220025002600240022CB7813F00F03AE
:1057F000CA78D20601D58A7813430A78120621D0D6
:10580000046800251BE0CA78482A17D10122AA4063
:10581000026113E00126AE400A883240B2420DD147
:10582000AE000F22B240944313FA06F6264334002A
:10583000CA78282AE7D10122AA4042616D1C082DAE
:10584000E8D304600A88B2F5807F27DB446800252E
:1058500021E0012215F1080612FA06F60A88324004
:10586000B24217D1AE000F22B240944313FA06F6AB
:1058700026433400CA78282A04D1012615F10802EB
:1058800096404661CA78482A04D1012615F10802DB
:10589000964006616D1C082DDBD3446070BC7047D8
:1058A00002000020906889B2084201D0012000E087
:1058B0000020C0B2704789B20161704789B241616E
:1058C0007047FEE700B585B05FF4E130009000203E
:1058D000ADF804000020ADF806000020ADF8080087
:1058E0000020ADF80C000C20ADF80A00694678489D
:1058F00001F056FE012240F22551754801F0C0FE2C
:10590000002240F22771724801F0BAFE012170486E
:1059100001F0A8FE4FF4614000900020ADF80400B3
:105920000020ADF806000020ADF808000020ADF81A
:105930000C000C20ADF80A006946664801F030FE04
:10594000012240F22551634801F09AFE002240F204
:105950002771604801F094FE01215E4801F082FE4B
:105960004FF4614000900020ADF804000020ADF835
:1059700006000020ADF808000020ADF80C000C2057
:10598000ADF80A006946544801F00AFE012240F2CF
:105990002551514801F074FE002240F227714E4813
:1059A00001F06EFE01214C4801F05CFE4FF41650F0
:1059B00000900020ADF804000020ADF806000020A3
:1059C000ADF808000020ADF80C000C20ADF80A007E
:1059D0006946424801F0E4FD012240F225513F486A
:1059E00001F04EFE002240F227713C4801F048FED3
:1059F00001213A4801F036FE05B000BD70B5040043
:105A00000D000026002036490870200001F0ACFE91
:105A1000801C34490870002604E0A05D32493144FE
:105A20008870761C200001F09FFE8642F5D33B2053
:105A30002D4908702C484570012240F227712448F6
:105A400001F01EFE70BD10B500220022244B1A701A
:105A5000244A1170002203E0835C234CA354521C9F
:105A6000C9B28A42F8DB012240F22771184801F0DE
:105A700007FE10BD10B5002200221C4B1A701C4AF4
:105A80001170002203E0835C1A4CA354521CC9B26B
:105A90008A42F8DB012240F227710E4801F0F0FD46
:105AA00010BD10B500220022134B1A70134A11705A
:105AB000002203E0835C124CA354521CC9B28A42F8
:105AC000F8DB012240F22771034801F0D9FD10BD37
:105AD000003801400044004000480040004C0040B5
